{
  "contractName": "ChangesLibrary",
  "abi": [
    {
      "inputs": [],
      "name": "headChangeProposals",
      "outputs": [
        {
          "internalType": "string",
          "name": "",
          "type": "string"
        }
      ],
      "stateMutability": "view",
      "type": "function"
    },
    {
      "inputs": [],
      "name": "headChanges",
      "outputs": [
        {
          "internalType": "string",
          "name": "",
          "type": "string"
        }
      ],
      "stateMutability": "view",
      "type": "function"
    }
  ],
  "bytecode": "0x611a58610053600b82828239805160001a607314610046577f4e487b7100000000000000000000000000000000000000000000000000000000600052600060045260246000fd5b30600052607381538281f3fe730000000000000000000000000000000000000000301460806040526004361061009d5760003560e01c806395f4120c1161007057806395f4120c14610142578063b2d4cf7814610172578063c8d84335146101a2578063ddaee8df146101cb578063e1cec2c4146101f45761009d565b806313680a39146100a2578063681ef9ce146100cb57806381659a90146100fb5780639251afee14610124575b600080fd5b8180156100ae57600080fd5b506100c960048036038101906100c491906113b0565b610212565b005b6100e560048036038101906100e0919061146c565b6104d8565b6040516100f2919061150d565b60405180910390f35b81801561010757600080fd5b50610122600480360381019061011d91906113b0565b610529565b005b61012c610681565b60405161013991906115b0565b60405180910390f35b61015c6004803603810190610157919061160a565b6106ba565b6040516101699190611756565b60405180910390f35b61018c6004803603810190610187919061160a565b610973565b6040516101999190611791565b60405180910390f35b8180156101ae57600080fd5b506101c960048036038101906101c491906113b0565b610b5b565b005b8180156101d757600080fd5b506101f260048036038101906101ed91906113b0565b610e21565b005b6101fc6110b7565b60405161020991906115b0565b60405180910390f35b60006040518060400160405280600f81526020017f4368616e676550726f706f73616c73000000000000000000000000000000000081525090505b8160405160200161025e91906117e8565b60405160208183030381529060405280519060200120836000018260405161028691906117e8565b90815260200160405180910390206001016040516020016102a791906118f3565b60405160208183030381529060405280519060200120146103755782600001816040516102d491906117e8565b908152602001604051809103902060010180546102f09061182e565b80601f016020809104026020016040519081016040528092919081815260200182805461031c9061182e565b80156103695780601f1061033e57610100808354040283529160200191610369565b820191906000526020600020905b81548152906001019060200180831161034c57829003601f168201915b5050505050905061024d565b826000018260405161038791906117e8565b908152602001604051809103902060010183600001826040516103aa91906117e8565b90815260200160405180910390206001019080546103c79061182e565b6103d29291906110f0565b50826000016040518060400160405280600f81526020017f4368616e676550726f706f73616c73000000000000000000000000000000000081525060405161041a91906117e8565b9081526020016040518091039020600101836000018360405161043d91906117e8565b908152602001604051809103902060010190805461045a9061182e565b6104659291906110f0565b5081836000016040518060400160405280600f81526020017f4368616e676550726f706f73616c7300000000000000000000000000000000008152506040516104ae91906117e8565b908152602001604051809103902060010190805190602001906104d292919061117d565b50505050565b60008360000183836040516104ee92919061192f565b908152602001604051809103902060000160009054906101000a900473ffffffffffffffffffffffffffffffffffffffff1690509392505050565b60405180604001604052803373ffffffffffffffffffffffffffffffffffffffff1681526020016040518060400160405280600781526020017f4368616e67657300000000000000000000000000000000000000000000000000815250815250826000018260405161059b91906117e8565b908152602001604051809103902060008201518160000160006101000a81548173ffffffffffffffffffffffffffffffffffffffff021916908373ffffffffffffffffffffffffffffffffffffffff160217905550602082015181600101908051906020019061060c92919061117d565b5090505080826000016040518060400160405280600781526020017f4368616e6765730000000000000000000000000000000000000000000000000081525060405161065891906117e8565b9081526020016040518091039020600101908051906020019061067c92919061117d565b505050565b6040518060400160405280600f81526020017f4368616e676550726f706f73616c73000000000000000000000000000000000081525081565b606060006106c88484610973565b905060008167ffffffffffffffff8111156106e6576106e5611285565b5b60405190808252806020026020018201604052801561071957816020015b60608152602001906001900390816107045790505b50905060008461078057856000016040518060400160405280600f81526020017f4368616e676550726f706f73616c73000000000000000000000000000000000081525060405161076a91906117e8565b90815260200160405180910390206001016107d9565b856000016040518060400160405280600781526020017f4368616e676573000000000000000000000000000000000000000000000000008152506040516107c791906117e8565b90815260200160405180910390206001015b80546107e49061182e565b80601f01602080910402602001604051908101604052809291908181526020018280546108109061182e565b801561085d5780601f106108325761010080835404028352916020019161085d565b820191906000526020600020905b81548152906001019060200180831161084057829003601f168201915b5050505050905060005b838110156109665781836001838761087f9190611977565b6108899190611977565b8151811061089a576108996119ab565b5b602002602001018190525086600001826040516108b791906117e8565b908152602001604051809103902060010180546108d39061182e565b80601f01602080910402602001604051908101604052809291908181526020018280546108ff9061182e565b801561094c5780601f106109215761010080835404028352916020019161094c565b820191906000526020600020905b81548152906001019060200180831161092f57829003601f168201915b50505050509150808061095e906119da565b915050610867565b5081935050505092915050565b600080600090506000836109bc576040518060400160405280600f81526020017f4368616e676550726f706f73616c7300000000000000000000000000000000008152506109f3565b6040518060400160405280600781526020017f4368616e676573000000000000000000000000000000000000000000000000008152505b90505b600073ffffffffffffffffffffffffffffffffffffffff16856000018660000183604051610a2491906117e8565b9081526020016040518091039020600101604051610a4291906118f3565b908152602001604051809103902060000160009054906101000a900473ffffffffffffffffffffffffffffffffffffffff1673ffffffffffffffffffffffffffffffffffffffff1614610b50578180610a9a906119da565b9250508460000181604051610aaf91906117e8565b90815260200160405180910390206001018054610acb9061182e565b80601f0160208091040260200160405190810160405280929190818152602001828054610af79061182e565b8015610b445780601f10610b1957610100808354040283529160200191610b44565b820191906000526020600020905b815481529060010190602001808311610b2757829003601f168201915b505050505090506109f6565b819250505092915050565b60006040518060400160405280600f81526020017f4368616e676550726f706f73616c73000000000000000000000000000000000081525090505b81604051602001610ba791906117e8565b604051602081830303815290604052805190602001208360000182604051610bcf91906117e8565b9081526020016040518091039020600101604051602001610bf091906118f3565b6040516020818303038152906040528051906020012014610cbe578260000181604051610c1d91906117e8565b90815260200160405180910390206001018054610c399061182e565b80601f0160208091040260200160405190810160405280929190818152602001828054610c659061182e565b8015610cb25780601f10610c8757610100808354040283529160200191610cb2565b820191906000526020600020905b815481529060010190602001808311610c9557829003601f168201915b50505050509050610b96565b8260000182604051610cd091906117e8565b90815260200160405180910390206001018360000182604051610cf391906117e8565b9081526020016040518091039020600101908054610d109061182e565b610d1b9291906110f0565b50826000016040518060400160405280600781526020017f4368616e67657300000000000000000000000000000000000000000000000000815250604051610d6391906117e8565b90815260200160405180910390206001018360000183604051610d8691906117e8565b9081526020016040518091039020600101908054610da39061182e565b610dae9291906110f0565b5081836000016040518060400160405280600781526020017f4368616e67657300000000000000000000000000000000000000000000000000815250604051610df791906117e8565b90815260200160405180910390206001019080519060200190610e1b92919061117d565b50505050565b60405180604001604052803373ffffffffffffffffffffffffffffffffffffffff168152602001836000016040518060400160405280600f81526020017f4368616e676550726f706f73616c730000000000000000000000000000000000815250604051610e8f91906117e8565b90815260200160405180910390206001018054610eab9061182e565b80601f0160208091040260200160405190810160405280929190818152602001828054610ed79061182e565b8015610f245780601f10610ef957610100808354040283529160200191610f24565b820191906000526020600020905b815481529060010190602001808311610f0757829003601f168201915b50505050508152508260000182604051610f3e91906117e8565b908152602001604051809103902060008201518160000160006101000a81548173ffffffffffffffffffffffffffffffffffffffff021916908373ffffffffffffffffffffffffffffffffffffffff1602179055506020820151816001019080519060200190610faf92919061117d565b50905050816000016040518060400160405280600f81526020017f4368616e676550726f706f73616c730000000000000000000000000000000000815250604051610ffa91906117e8565b9081526020016040518091039020600101826000018260405161101d91906117e8565b908152602001604051809103902060010190805461103a9061182e565b6110459291906110f0565b5080826000016040518060400160405280600f81526020017f4368616e676550726f706f73616c73000000000000000000000000000000000081525060405161108e91906117e8565b908152602001604051809103902060010190805190602001906110b292919061117d565b505050565b6040518060400160405280600781526020017f4368616e6765730000000000000000000000000000000000000000000000000081525081565b8280546110fc9061182e565b90600052602060002090601f01602090048101928261111e576000855561116c565b82601f1061112f578054855561116c565b8280016001018555821561116c57600052602060002091601f016020900482015b8281111561116b578254825591600101919060010190611150565b5b5090506111799190611203565b5090565b8280546111899061182e565b90600052602060002090601f0160209004810192826111ab57600085556111f2565b82601f106111c457805160ff19168380011785556111f2565b828001600101855582156111f2579182015b828111156111f15782518255916020019190600101906111d6565b5b5090506111ff9190611203565b5090565b5b8082111561121c576000816000905550600101611204565b5090565b6000604051905090565b600080fd5b600080fd5b6000819050919050565b61124781611234565b811461125257600080fd5b50565b6000813590506112648161123e565b92915050565b600080fd5b600080fd5b6000601f19601f8301169050919050565b7f4e487b7100000000000000000000000000000000000000000000000000000000600052604160045260246000fd5b6112bd82611274565b810181811067ffffffffffffffff821117156112dc576112db611285565b5b80604052505050565b60006112ef611220565b90506112fb82826112b4565b919050565b600067ffffffffffffffff82111561131b5761131a611285565b5b61132482611274565b9050602081019050919050565b82818337600083830152505050565b600061135361134e84611300565b6112e5565b90508281526020810184848401111561136f5761136e61126f565b5b61137a848285611331565b509392505050565b600082601f8301126113975761139661126a565b5b81356113a7848260208601611340565b91505092915050565b600080604083850312156113c7576113c661122a565b5b60006113d585828601611255565b925050602083013567ffffffffffffffff8111156113f6576113f561122f565b5b61140285828601611382565b9150509250929050565b600080fd5b600080fd5b60008083601f84011261142c5761142b61126a565b5b8235905067ffffffffffffffff8111156114495761144861140c565b5b60208301915083600182028301111561146557611464611411565b5b9250929050565b6000806000604084860312156114855761148461122a565b5b600061149386828701611255565b935050602084013567ffffffffffffffff8111156114b4576114b361122f565b5b6114c086828701611416565b92509250509250925092565b600073ffffffffffffffffffffffffffffffffffffffff82169050919050565b60006114f7826114cc565b9050919050565b611507816114ec565b82525050565b600060208201905061152260008301846114fe565b92915050565b600081519050919050565b600082825260208201905092915050565b60005b83811015611562578082015181840152602081019050611547565b83811115611571576000848401525b50505050565b600061158282611528565b61158c8185611533565b935061159c818560208601611544565b6115a581611274565b840191505092915050565b600060208201905081810360008301526115ca8184611577565b905092915050565b60008115159050919050565b6115e7816115d2565b81146115f257600080fd5b50565b600081359050611604816115de565b92915050565b600080604083850312156116215761162061122a565b5b600061162f85828601611255565b9250506020611640858286016115f5565b9150509250929050565b600081519050919050565b600082825260208201905092915050565b6000819050602082019050919050565b600082825260208201905092915050565b600061169282611528565b61169c8185611676565b93506116ac818560208601611544565b6116b581611274565b840191505092915050565b60006116cc8383611687565b905092915050565b6000602082019050919050565b60006116ec8261164a565b6116f68185611655565b93508360208202850161170885611666565b8060005b85811015611744578484038952815161172585826116c0565b9450611730836116d4565b925060208a0199505060018101905061170c565b50829750879550505050505092915050565b6000602082019050818103600083015261177081846116e1565b905092915050565b6000819050919050565b61178b81611778565b82525050565b60006020820190506117a66000830184611782565b92915050565b600081905092915050565b60006117c282611528565b6117cc81856117ac565b93506117dc818560208601611544565b80840191505092915050565b60006117f482846117b7565b915081905092915050565b7f4e487b7100000000000000000000000000000000000000000000000000000000600052602260045260246000fd5b6000600282049050600182168061184657607f821691505b602082108103611859576118586117ff565b5b50919050565b60008190508160005260206000209050919050565b600081546118818161182e565b61188b81866117ac565b945060018216600081146118a657600181146118b7576118ea565b60ff198316865281860193506118ea565b6118c08561185f565b60005b838110156118e2578154818901526001820191506020810190506118c3565b838801955050505b50505092915050565b60006118ff8284611874565b915081905092915050565b600061191683856117ac565b9350611923838584611331565b82840190509392505050565b600061193c82848661190a565b91508190509392505050565b7f4e487b7100000000000000000000000000000000000000000000000000000000600052601160045260246000fd5b600061198282611778565b915061198d83611778565b9250828210156119a05761199f611948565b5b828203905092915050565b7f4e487b7100000000000000000000000000000000000000000000000000000000600052603260045260246000fd5b60006119e582611778565b91507fffffffffffffffffffffffffffffffffffffffffffffffffffffffffffffffff8203611a1757611a16611948565b5b60018201905091905056fea264697066735822122060e2ed3deabb126c2595127d597e53dc4dc872d05f5fb7229f9441e812b9aea864736f6c634300080d0033",
  "immutableReferences": {},
  "source": "// SPDX-License-Identifier: MIT\npragma solidity ^0.8.13;\n\nlibrary ChangesLibrary {\n    // data structures initiate on new linked list\n\n    string public constant headChanges = \"Changes\";\n    string public constant headChangeProposals = \"ChangeProposals\";\n\n\n    struct Change {\n        address changeMaker;\n\n        // pointers\n        string before;\n    }\n\n    struct changesMap {\n        mapping(string => Change) changes;\n    }\n\n\n\n    // create new linkedList\n    function initialize(\n        changesMap storage self,\n        string memory baseChangeCID\n    ) external {\n        self.changes[baseChangeCID] = Change(msg.sender, headChanges);\n        self.changes[headChanges].before = baseChangeCID;\n    }\n\n\n    // create a change proposal and add it to the list\n    function createChangeProposal(\n        changesMap storage self,\n        string memory changeCID\n    ) external {\n        self.changes[changeCID] = Change({changeMaker: msg.sender, before: self.changes[headChangeProposals].before});\n        self.changes[changeCID].before = self.changes[headChangeProposals].before;\n        self.changes[headChangeProposals].before = changeCID;\n    }\n\n\n    // the function create a new change by moving a change proposal from it's list to the changes list\n    function acceptChangeProposal(\n        changesMap storage self,\n        string memory changeCID\n    ) external {\n        string memory changeCIDpointer = headChangeProposals;\n        while (keccak256(abi.encodePacked(self.changes[changeCIDpointer].before)) != keccak256(abi.encodePacked(changeCID))) {\n            changeCIDpointer = self.changes[changeCIDpointer].before;\n        }\n\n        self.changes[changeCIDpointer].before = self.changes[changeCID].before;\n        self.changes[changeCID].before = self.changes[headChanges].before;\n        self.changes[headChanges].before = changeCID;\n    }\n\n\n    // the function returns the two lists\n    function getChangesOrChangeProposals(\n        changesMap storage self,\n        bool ChangesOrChangeProposals\n    ) external view returns (string[] memory) {\n        uint proposalCount = getChangesOrChangeProposalsCount(self, ChangesOrChangeProposals);\n        string[] memory returnedList = new string[](proposalCount);\n        \n        string memory current = ChangesOrChangeProposals ? self.changes[headChanges].before : self.changes[headChangeProposals].before;\n\n        for (uint i = 0; i < proposalCount; i++) {\n            returnedList[proposalCount - i - 1] = current;\n            current = self.changes[current].before;\n        }\n        \n        return returnedList;\n    }\n\n\n\n    // the function returns the number of changes/change proposals in a project\n    function getChangesOrChangeProposalsCount(\n        changesMap storage self,\n        bool ChangesOrChangeProposals\n    ) public view returns (uint) {\n        uint count = 0;\n\n        string memory currentProposal = ChangesOrChangeProposals ? headChanges : headChangeProposals;\n\n        while (self.changes[self.changes[currentProposal].before].changeMaker != address(0)) {\n            count++;\n            currentProposal = self.changes[currentProposal].before;\n        }\n        return count;\n    }\n\n\n    function getChangeMaker(\n        changesMap storage self,\n        string calldata patch\n    ) external view returns (address) {\n        return self.changes[patch].changeMaker;\n    }\n\n\n    // the function make a go back\n    function removeChange(\n        changesMap storage self,\n        string memory changeCID) external \n    {\n        string memory changeCIDpointer = headChangeProposals;\n\n        while (keccak256(abi.encodePacked(self.changes[changeCIDpointer].before)) != keccak256(abi.encodePacked(changeCID))) {\n            changeCIDpointer = self.changes[changeCIDpointer].before;\n        }\n\n        self.changes[changeCIDpointer].before = self.changes[changeCID].before;\n        self.changes[changeCID].before = self.changes[headChangeProposals].before;\n        self.changes[headChangeProposals].before = changeCID;\n    }\n}\n",
  "sourcePath": "c:\\Users\\User\\Desktop\\\\davidson\\project\\DavidsonProject\\Smart Contract\\contracts\\Changes.sol",
  "compiler": {
    "name": "solc",
    "version": "0.8.13+commit.abaa5c0e.Emscripten.clang"
  },
  "schemaVersion": "3.4.7",
  "updatedAt": "2024-04-19T22:33:00.860Z",
  "devdoc": {
    "kind": "dev",
    "methods": {},
    "version": 1
  },
  "userdoc": {
    "kind": "user",
    "methods": {},
    "version": 1
  }
}