{
  "contractName": "Projects",
  "abi": [
    {
      "inputs": [
        {
          "internalType": "address",
          "name": "tokenAddress",
          "type": "address"
        }
      ],
      "stateMutability": "nonpayable",
      "type": "constructor"
    },
    {
      "anonymous": false,
      "inputs": [
        {
          "indexed": false,
          "internalType": "string",
          "name": "message",
          "type": "string"
        },
        {
          "indexed": false,
          "internalType": "string",
          "name": "projectName",
          "type": "string"
        },
        {
          "indexed": false,
          "internalType": "string",
          "name": "changeCID",
          "type": "string"
        }
      ],
      "name": "NewChangeIsMadeToProject",
      "type": "event"
    },
    {
      "anonymous": false,
      "inputs": [
        {
          "indexed": false,
          "internalType": "string",
          "name": "message",
          "type": "string"
        },
        {
          "indexed": false,
          "internalType": "string",
          "name": "Name",
          "type": "string"
        },
        {
          "indexed": false,
          "internalType": "string",
          "name": "CID",
          "type": "string"
        },
        {
          "indexed": false,
          "internalType": "uint256",
          "name": "indexValue",
          "type": "uint256"
        }
      ],
      "name": "NewChangeProposalCreated",
      "type": "event"
    },
    {
      "anonymous": false,
      "inputs": [
        {
          "indexed": false,
          "internalType": "string",
          "name": "message",
          "type": "string"
        },
        {
          "indexed": false,
          "internalType": "string",
          "name": "name",
          "type": "string"
        },
        {
          "indexed": false,
          "internalType": "uint256",
          "name": "value",
          "type": "uint256"
        }
      ],
      "name": "NewProjectCreated",
      "type": "event"
    },
    {
      "anonymous": false,
      "inputs": [
        {
          "indexed": false,
          "internalType": "string",
          "name": "message",
          "type": "string"
        },
        {
          "indexed": false,
          "internalType": "string",
          "name": "projectName",
          "type": "string"
        },
        {
          "indexed": false,
          "internalType": "string",
          "name": "changeProposalCID",
          "type": "string"
        },
        {
          "indexed": false,
          "internalType": "address",
          "name": "voter",
          "type": "address"
        }
      ],
      "name": "NewVoteForChangeProposal",
      "type": "event"
    },
    {
      "anonymous": false,
      "inputs": [
        {
          "indexed": false,
          "internalType": "string",
          "name": "message",
          "type": "string"
        },
        {
          "indexed": false,
          "internalType": "string",
          "name": "changeCID",
          "type": "string"
        },
        {
          "indexed": false,
          "internalType": "string",
          "name": "ProjectName",
          "type": "string"
        }
      ],
      "name": "ProjectWentBack",
      "type": "event"
    },
    {
      "anonymous": false,
      "inputs": [
        {
          "indexed": false,
          "internalType": "string",
          "name": "message",
          "type": "string"
        },
        {
          "indexed": false,
          "internalType": "uint256",
          "name": "lastDistributionTime",
          "type": "uint256"
        }
      ],
      "name": "TokensDisributed",
      "type": "event"
    },
    {
      "inputs": [],
      "name": "ClaimingInterval",
      "outputs": [
        {
          "internalType": "uint256",
          "name": "",
          "type": "uint256"
        }
      ],
      "stateMutability": "view",
      "type": "function"
    },
    {
      "inputs": [
        {
          "internalType": "string",
          "name": "",
          "type": "string"
        }
      ],
      "name": "NameToID",
      "outputs": [
        {
          "internalType": "uint256",
          "name": "",
          "type": "uint256"
        }
      ],
      "stateMutability": "view",
      "type": "function"
    },
    {
      "inputs": [],
      "name": "TimeLockInterval",
      "outputs": [
        {
          "internalType": "uint256",
          "name": "",
          "type": "uint256"
        }
      ],
      "stateMutability": "view",
      "type": "function"
    },
    {
      "inputs": [],
      "name": "token",
      "outputs": [
        {
          "internalType": "contract ProjectsToken",
          "name": "",
          "type": "address"
        }
      ],
      "stateMutability": "view",
      "type": "function"
    },
    {
      "inputs": [
        {
          "internalType": "string",
          "name": "changeCID",
          "type": "string"
        },
        {
          "internalType": "string",
          "name": "projectName",
          "type": "string"
        }
      ],
      "name": "createProject",
      "outputs": [],
      "stateMutability": "nonpayable",
      "type": "function"
    },
    {
      "inputs": [
        {
          "internalType": "string",
          "name": "changeCID",
          "type": "string"
        },
        {
          "internalType": "string",
          "name": "projectName",
          "type": "string"
        }
      ],
      "name": "uploadChangeProposal",
      "outputs": [],
      "stateMutability": "nonpayable",
      "type": "function"
    },
    {
      "inputs": [
        {
          "internalType": "address",
          "name": "addr",
          "type": "address"
        },
        {
          "internalType": "string",
          "name": "changeProposalCID",
          "type": "string"
        },
        {
          "internalType": "bool",
          "name": "isChange",
          "type": "bool"
        },
        {
          "internalType": "string",
          "name": "projectName",
          "type": "string"
        }
      ],
      "name": "isVoted",
      "outputs": [
        {
          "internalType": "bool",
          "name": "",
          "type": "bool"
        }
      ],
      "stateMutability": "view",
      "type": "function"
    },
    {
      "inputs": [
        {
          "internalType": "string",
          "name": "changeCID",
          "type": "string"
        },
        {
          "internalType": "string",
          "name": "projectName",
          "type": "string"
        }
      ],
      "name": "acceptRemoval",
      "outputs": [],
      "stateMutability": "nonpayable",
      "type": "function"
    },
    {
      "inputs": [
        {
          "internalType": "string",
          "name": "changeProposalCID",
          "type": "string"
        },
        {
          "internalType": "string",
          "name": "projectName",
          "type": "string"
        }
      ],
      "name": "acceptChangeProposal",
      "outputs": [],
      "stateMutability": "nonpayable",
      "type": "function"
    },
    {
      "inputs": [
        {
          "internalType": "string",
          "name": "changeProposalCID",
          "type": "string"
        },
        {
          "internalType": "bool",
          "name": "isChange",
          "type": "bool"
        },
        {
          "internalType": "string",
          "name": "projectName",
          "type": "string"
        }
      ],
      "name": "voteForChangeProposal",
      "outputs": [],
      "stateMutability": "nonpayable",
      "type": "function"
    },
    {
      "inputs": [
        {
          "internalType": "string",
          "name": "changeCID",
          "type": "string"
        },
        {
          "internalType": "bool",
          "name": "isChange",
          "type": "bool"
        },
        {
          "internalType": "string",
          "name": "projectName",
          "type": "string"
        }
      ],
      "name": "getChangeVotes",
      "outputs": [
        {
          "internalType": "uint256",
          "name": "",
          "type": "uint256"
        }
      ],
      "stateMutability": "view",
      "type": "function"
    },
    {
      "inputs": [
        {
          "internalType": "string",
          "name": "changeCID",
          "type": "string"
        },
        {
          "internalType": "bool",
          "name": "isChange",
          "type": "bool"
        },
        {
          "internalType": "string",
          "name": "projectName",
          "type": "string"
        }
      ],
      "name": "removeVote",
      "outputs": [],
      "stateMutability": "nonpayable",
      "type": "function"
    },
    {
      "inputs": [
        {
          "internalType": "address",
          "name": "UserAddress",
          "type": "address"
        },
        {
          "internalType": "string",
          "name": "projectName",
          "type": "string"
        }
      ],
      "name": "getBalance",
      "outputs": [
        {
          "internalType": "uint256",
          "name": "",
          "type": "uint256"
        }
      ],
      "stateMutability": "view",
      "type": "function"
    },
    {
      "inputs": [
        {
          "internalType": "string",
          "name": "projectName",
          "type": "string"
        }
      ],
      "name": "getTotalTokens",
      "outputs": [
        {
          "internalType": "uint256",
          "name": "",
          "type": "uint256"
        }
      ],
      "stateMutability": "view",
      "type": "function"
    },
    {
      "inputs": [
        {
          "internalType": "string",
          "name": "projectName",
          "type": "string"
        },
        {
          "internalType": "bool",
          "name": "changesOrChangeProposals",
          "type": "bool"
        }
      ],
      "name": "getChangesOrProposals",
      "outputs": [
        {
          "internalType": "string[]",
          "name": "",
          "type": "string[]"
        }
      ],
      "stateMutability": "view",
      "type": "function"
    },
    {
      "inputs": [
        {
          "internalType": "string",
          "name": "projectName",
          "type": "string"
        }
      ],
      "name": "getParticipants",
      "outputs": [
        {
          "internalType": "address[]",
          "name": "",
          "type": "address[]"
        }
      ],
      "stateMutability": "view",
      "type": "function"
    },
    {
      "inputs": [
        {
          "internalType": "string",
          "name": "projectName",
          "type": "string"
        },
        {
          "internalType": "string",
          "name": "changeCID",
          "type": "string"
        }
      ],
      "name": "getChangeMaker",
      "outputs": [
        {
          "internalType": "address",
          "name": "",
          "type": "address"
        }
      ],
      "stateMutability": "view",
      "type": "function"
    },
    {
      "inputs": [],
      "name": "getLastProjects",
      "outputs": [
        {
          "internalType": "string[]",
          "name": "",
          "type": "string[]"
        }
      ],
      "stateMutability": "view",
      "type": "function"
    }
  ],
  "bytecode": "0x60806040523480156200001157600080fd5b50604051620047fc380380620047fc8339818101604052810190620000379190620000e9565b80600260006101000a81548173ffffffffffffffffffffffffffffffffffffffff021916908373ffffffffffffffffffffffffffffffffffffffff160217905550506200011b565b600080fd5b600073ffffffffffffffffffffffffffffffffffffffff82169050919050565b6000620000b18262000084565b9050919050565b620000c381620000a4565b8114620000cf57600080fd5b50565b600081519050620000e381620000b8565b92915050565b6000602082840312156200010257620001016200007f565b5b60006200011284828501620000d2565b91505092915050565b6146d1806200012b6000396000f3fe608060405234801561001057600080fd5b50600436106101165760003560e01c80637e90def7116100a2578063a90d00cd11610071578063a90d00cd14610319578063eb8892fc14610349578063ebe1c30814610365578063ed0c2d9014610381578063fc0c546a1461039d57610116565b80637e90def71461026b57806382f248821461029b578063a54d804d146102cb578063a8363610146102e957610116565b80634a513875116100e95780634a513875146101c757806351e684ba146101e35780636ad40d79146102015780636bd06204146102315780637a5945da1461024d57610116565b80631d7147d81461011b5780631dd7cecf1461014b57806333846eba1461017b57806349bdbe6f146101ab575b600080fd5b61013560048036038101906101309190612fb6565b6103bb565b6040516101429190613171565b60405180910390f35b610165600480360381019061016091906131f1565b6105d4565b604051610172919061326a565b60405180910390f35b610195600480360381019061019091906133b5565b6107e0565b6040516101a2919061326a565b60405180910390f35b6101c560048036038101906101c091906133fe565b61080e565b005b6101e160048036038101906101dc919061347a565b610ae4565b005b6101eb610f19565b6040516101f8919061326a565b60405180910390f35b61021b600480360381019061021691906134fb565b610f1e565b604051610228919061326a565b60405180910390f35b61024b60048036038101906102469190613590565b611304565b005b6102556114e2565b604051610262919061326a565b60405180910390f35b61028560048036038101906102809190613608565b6114e7565b6040516102929190613713565b60405180910390f35b6102b560048036038101906102b09190613735565b611687565b6040516102c291906137eb565b60405180910390f35b6102d3611931565b6040516102e09190613171565b60405180910390f35b61030360048036038101906102fe9190613608565b611a82565b604051610310919061326a565b60405180910390f35b610333600480360381019061032e919061347a565b611c8c565b6040516103409190613815565b60405180910390f35b610363600480360381019061035e9190613830565b611ea3565b005b61037f600480360381019061037a91906138c0565b612434565b005b61039b6004803603810190610396919061347a565b61284d565b005b6103a5612c91565b6040516103b291906139af565b60405180910390f35b606083838080601f016020809104026020016040519081016040528093929190818152602001838380828437600081840152601f19601f82011690508083019250505050505050600080826040516104139190613a06565b9081526020016040518091039020549050600260009054906101000a900473ffffffffffffffffffffffffffffffffffffffff1673ffffffffffffffffffffffffffffffffffffffff16634f558e79826040518263ffffffff1660e01b815260040161047f919061326a565b602060405180830381865afa15801561049c573d6000803e3d6000fd5b505050506040513d601f19601f820116820180604052508101906104c09190613a32565b6104ff576040517f08c379a00000000000000000000000000000000000000000000000000000000081526004016104f690613abc565b60405180910390fd5b6000808787604051610512929190613b01565b90815260200160405180910390205490506001818154811061053757610536613b1a565b5b906000526020600020906007020160010173__ChangesLibrary________________________6395f4120c9091876040518363ffffffff1660e01b8152600401610582929190613b5f565b600060405180830381865af415801561059f573d6000803e3d6000fd5b505050506040513d6000823e3d601f19601f820116820180604052508101906105c89190613cd9565b93505050509392505050565b600082828080601f016020809104026020016040519081016040528093929190818152602001838380828437600081840152601f19601f820116905080830192505050505050506000808260405161062c9190613a06565b9081526020016040518091039020549050600260009054906101000a900473ffffffffffffffffffffffffffffffffffffffff1673ffffffffffffffffffffffffffffffffffffffff16634f558e79826040518263ffffffff1660e01b8152600401610698919061326a565b602060405180830381865afa1580156106b5573d6000803e3d6000fd5b505050506040513d601f19601f820116820180604052508101906106d99190613a32565b610718576040517f08c379a000000000000000000000000000000000000000000000000000000000815260040161070f90613abc565b60405180910390fd5b600260009054906101000a900473ffffffffffffffffffffffffffffffffffffffff1673ffffffffffffffffffffffffffffffffffffffff1662fdd58e8760008888604051610768929190613b01565b9081526020016040518091039020546040518363ffffffff1660e01b8152600401610794929190613d22565b602060405180830381865afa1580156107b1573d6000803e3d6000fd5b505050506040513d601f19601f820116820180604052508101906107d59190613d77565b925050509392505050565b6000818051602081018201805184825260208301602085012081835280955050505050506000915090505481565b81818080601f016020809104026020016040519081016040528093929190818152602001838380828437600081840152601f19601f82011690508083019250505050505050600080826040516108649190613a06565b9081526020016040518091039020549050600260009054906101000a900473ffffffffffffffffffffffffffffffffffffffff1673ffffffffffffffffffffffffffffffffffffffff16634f558e79826040518263ffffffff1660e01b81526004016108d0919061326a565b602060405180830381865afa1580156108ed573d6000803e3d6000fd5b505050506040513d601f19601f820116820180604052508101906109119190613a32565b610950576040517f08c379a000000000000000000000000000000000000000000000000000000000815260040161094790613abc565b60405180910390fd5b6000808585604051610963929190613b01565b90815260200160405180910390205490506001818154811061098857610987613b1a565b5b906000526020600020906007020160010173__ChangesLibrary________________________63ddaee8df9091886040518363ffffffff1660e01b81526004016109d3929190613dee565b60006040518083038186803b1580156109eb57600080fd5b505af41580156109ff573d6000803e3d6000fd5b505050506001808281548110610a1857610a17613b1a565b5b906000526020600020906007020160060160003373ffffffffffffffffffffffffffffffffffffffff1673ffffffffffffffffffffffffffffffffffffffff16815260200190815260200160002060000187604051610a779190613a06565b908152602001604051809103902060000160006101000a81548160ff0219169083151502179055507f7b7acf540aac5e16ce3dfbd4d106c203a301da603c18502d179f60282962e5c485858884604051610ad49493929190613f1c565b60405180910390a1505050505050565b81818080601f016020809104026020016040519081016040528093929190818152602001838380828437600081840152601f19601f8201169050808301925050505050505060008082604051610b3a9190613a06565b9081526020016040518091039020549050600260009054906101000a900473ffffffffffffffffffffffffffffffffffffffff1673ffffffffffffffffffffffffffffffffffffffff16634f558e79826040518263ffffffff1660e01b8152600401610ba6919061326a565b602060405180830381865afa158015610bc3573d6000803e3d6000fd5b505050506040513d601f19601f82011682018060405250810190610be79190613a32565b610c26576040517f08c379a0000000000000000000000000000000000000000000000000000000008152600401610c1d90613abc565b60405180910390fd5b6000808585604051610c39929190613b01565b9081526020016040518091039020549050600260009054906101000a900473ffffffffffffffffffffffffffffffffffffffff1673ffffffffffffffffffffffffffffffffffffffff1663bd85b039826040518263ffffffff1660e01b8152600401610ca5919061326a565b602060405180830381865afa158015610cc2573d6000803e3d6000fd5b505050506040513d601f19601f82011682018060405250810190610ce69190613d77565b6002610cf6898960008a8a610f1e565b610d009190613fa5565b11610d0a57600080fd5b600080600090505b610d3f60018481548110610d2957610d28613b1a565b5b9060005260206000209060070201600401612cb7565b811015610e4057610d7d8160018581548110610d5e57610d5d613b1a565b5b9060005260206000209060070201600401612ccc90919063ffffffff16565b915060018381548110610d9357610d92613b1a565b5b906000526020600020906007020160060160008373ffffffffffffffffffffffffffffffffffffffff1673ffffffffffffffffffffffffffffffffffffffff1681526020019081526020016000206000018989604051610df4929190613b01565b9081526020016040518091039020600080820160006101000a81549060ff02191690556000820160016101000a81549060ff021916905550508080610e3890613fff565b915050610d12565b5060018281548110610e5557610e54613b1a565b5b906000526020600020906007020160010173__ChangesLibrary________________________6313680a3990918a8a6040518463ffffffff1660e01b8152600401610ea293929190614074565b60006040518083038186803b158015610eba57600080fd5b505af4158015610ece573d6000803e3d6000fd5b505050507f718a982b61bc723a0c68281b0eb10e1cff37bd89888841ae545c98cd5493a05688888888604051610f0794939291906140f2565b60405180910390a15050505050505050565b607881565b600082828080601f016020809104026020016040519081016040528093929190818152602001838380828437600081840152601f19601f8201169050808301925050505050505060008082604051610f769190613a06565b9081526020016040518091039020549050600260009054906101000a900473ffffffffffffffffffffffffffffffffffffffff1673ffffffffffffffffffffffffffffffffffffffff16634f558e79826040518263ffffffff1660e01b8152600401610fe2919061326a565b602060405180830381865afa158015610fff573d6000803e3d6000fd5b505050506040513d601f19601f820116820180604052508101906110239190613a32565b611062576040517f08c379a000000000000000000000000000000000000000000000000000000000815260040161105990613abc565b60405180910390fd5b6000808686604051611075929190613b01565b908152602001604051809103902054905060008080600090505b6110bc600185815481106110a6576110a5613b1a565b5b9060005260206000209060070201600401612cb7565b8110156112f2576110fa81600186815481106110db576110da613b1a565b5b9060005260206000209060070201600401612ccc90919063ffffffff16565b91508961119a576001848154811061111557611114613b1a565b5b906000526020600020906007020160060160008373ffffffffffffffffffffffffffffffffffffffff1673ffffffffffffffffffffffffffffffffffffffff1681526020019081526020016000206000018c8c604051611176929190613b01565b908152602001604051809103902060000160019054906101000a900460ff1661122f565b600184815481106111ae576111ad613b1a565b5b906000526020600020906007020160060160008373ffffffffffffffffffffffffffffffffffffffff1673ffffffffffffffffffffffffffffffffffffffff1681526020019081526020016000206000018c8c60405161120f929190613b01565b908152602001604051809103902060000160009054906101000a900460ff165b156112df57600260009054906101000a900473ffffffffffffffffffffffffffffffffffffffff1673ffffffffffffffffffffffffffffffffffffffff1662fdd58e83866040518363ffffffff1660e01b8152600401611290929190613d22565b602060405180830381865afa1580156112ad573d6000803e3d6000fd5b505050506040513d601f19601f820116820180604052508101906112d19190613d77565b836112dc9190614140565b92505b80806112ea90613fff565b91505061108f565b50819550505050505095945050505050565b600060018054905090508060008360405161131f9190613a06565b908152602001604051809103902081905550600260009054906101000a900473ffffffffffffffffffffffffffffffffffffffff1673ffffffffffffffffffffffffffffffffffffffff1663156e29f6338360646040518463ffffffff1660e01b8152600401611391939291906141d1565b600060405180830381600087803b1580156113ab57600080fd5b505af11580156113bf573d6000803e3d6000fd5b505050506000600180816001815401808255809150500390600052602060002090600702019050828160000190805190602001906113fe929190612e62565b508060010173__ChangesLibrary________________________6381659a909091866040518363ffffffff1660e01b815260040161143d929190613dee565b60006040518083038186803b15801561145557600080fd5b505af4158015611469573d6000803e3d6000fd5b505050506064816003018190555060f0426114849190614140565b81600201819055506114a23382600401612ce690919063ffffffff16565b507fe224389b386caecb8e3b38edc39361c7227e3ef820a8276bc31ac9cf1ba69fcd83836040516114d4929190614254565b60405180910390a150505050565b60f081565b606082828080601f016020809104026020016040519081016040528093929190818152602001838380828437600081840152601f19601f820116905080830192505050505050506000808260405161153f9190613a06565b9081526020016040518091039020549050600260009054906101000a900473ffffffffffffffffffffffffffffffffffffffff1673ffffffffffffffffffffffffffffffffffffffff16634f558e79826040518263ffffffff1660e01b81526004016115ab919061326a565b602060405180830381865afa1580156115c8573d6000803e3d6000fd5b505050506040513d601f19601f820116820180604052508101906115ec9190613a32565b61162b576040517f08c379a000000000000000000000000000000000000000000000000000000000815260040161162290613abc565b60405180910390fd5b600080868660405161163e929190613b01565b908152602001604051809103902054905061167c6001828154811061166657611665613b1a565b5b9060005260206000209060070201600401612d16565b935050505092915050565b600082828080601f016020809104026020016040519081016040528093929190818152602001838380828437600081840152601f19601f82011690508083019250505050505050600080826040516116df9190613a06565b9081526020016040518091039020549050600260009054906101000a900473ffffffffffffffffffffffffffffffffffffffff1673ffffffffffffffffffffffffffffffffffffffff16634f558e79826040518263ffffffff1660e01b815260040161174b919061326a565b602060405180830381865afa158015611768573d6000803e3d6000fd5b505050506040513d601f19601f8201168201806040525081019061178c9190613a32565b6117cb576040517f08c379a00000000000000000000000000000000000000000000000000000000081526004016117c290613abc565b60405180910390fd5b60008086866040516117de929190613b01565b90815260200160405180910390205490508661188d576001818154811061180857611807613b1a565b5b906000526020600020906007020160060160008b73ffffffffffffffffffffffffffffffffffffffff1673ffffffffffffffffffffffffffffffffffffffff1681526020019081526020016000206000018989604051611869929190613b01565b908152602001604051809103902060000160019054906101000a900460ff16611922565b600181815481106118a1576118a0613b1a565b5b906000526020600020906007020160060160008b73ffffffffffffffffffffffffffffffffffffffff1673ffffffffffffffffffffffffffffffffffffffff1681526020019081526020016000206000018989604051611902929190613b01565b908152602001604051809103902060000160009054906101000a900460ff165b93505050509695505050505050565b60606000600180549050905060008167ffffffffffffffff8111156119595761195861328a565b5b60405190808252806020026020018201604052801561198c57816020015b60608152602001906001900390816119775790505b50905060005b82811015611a7957600181815481106119ae576119ad613b1a565b5b906000526020600020906007020160000180546119ca906142c6565b80601f01602080910402602001604051908101604052809291908181526020018280546119f6906142c6565b8015611a435780601f10611a1857610100808354040283529160200191611a43565b820191906000526020600020905b815481529060010190602001808311611a2657829003601f168201915b5050505050828281518110611a5b57611a5a613b1a565b5b60200260200101819052508080611a7190613fff565b915050611992565b50809250505090565b600082828080601f016020809104026020016040519081016040528093929190818152602001838380828437600081840152601f19601f8201169050808301925050505050505060008082604051611ada9190613a06565b9081526020016040518091039020549050600260009054906101000a900473ffffffffffffffffffffffffffffffffffffffff1673ffffffffffffffffffffffffffffffffffffffff16634f558e79826040518263ffffffff1660e01b8152600401611b46919061326a565b602060405180830381865afa158015611b63573d6000803e3d6000fd5b505050506040513d601f19601f82011682018060405250810190611b879190613a32565b611bc6576040517f08c379a0000000000000000000000000000000000000000000000000000000008152600401611bbd90613abc565b60405180910390fd5b600260009054906101000a900473ffffffffffffffffffffffffffffffffffffffff1673ffffffffffffffffffffffffffffffffffffffff1663bd85b03960008787604051611c16929190613b01565b9081526020016040518091039020546040518263ffffffff1660e01b8152600401611c41919061326a565b602060405180830381865afa158015611c5e573d6000803e3d6000fd5b505050506040513d601f19601f82011682018060405250810190611c829190613d77565b9250505092915050565b600084848080601f016020809104026020016040519081016040528093929190818152602001838380828437600081840152601f19601f8201169050808301925050505050505060008082604051611ce49190613a06565b9081526020016040518091039020549050600260009054906101000a900473ffffffffffffffffffffffffffffffffffffffff1673ffffffffffffffffffffffffffffffffffffffff16634f558e79826040518263ffffffff1660e01b8152600401611d50919061326a565b602060405180830381865afa158015611d6d573d6000803e3d6000fd5b505050506040513d601f19601f82011682018060405250810190611d919190613a32565b611dd0576040517f08c379a0000000000000000000000000000000000000000000000000000000008152600401611dc790613abc565b60405180910390fd5b6000808888604051611de3929190613b01565b908152602001604051809103902054905060018181548110611e0857611e07613b1a565b5b906000526020600020906007020160010173__ChangesLibrary________________________63681ef9ce909188886040518463ffffffff1660e01b8152600401611e5593929190614074565b602060405180830381865af4158015611e72573d6000803e3d6000fd5b505050506040513d601f19601f82011682018060405250810190611e96919061430c565b9350505050949350505050565b81818080601f016020809104026020016040519081016040528093929190818152602001838380828437600081840152601f19601f8201169050808301925050505050505060008082604051611ef99190613a06565b9081526020016040518091039020549050600260009054906101000a900473ffffffffffffffffffffffffffffffffffffffff1673ffffffffffffffffffffffffffffffffffffffff16634f558e79826040518263ffffffff1660e01b8152600401611f65919061326a565b602060405180830381865afa158015611f82573d6000803e3d6000fd5b505050506040513d601f19601f82011682018060405250810190611fa69190613a32565b611fe5576040517f08c379a0000000000000000000000000000000000000000000000000000000008152600401611fdc90613abc565b60405180910390fd5b6000808585604051611ff8929190613b01565b908152602001604051809103902054905085156120ec57600015156001828154811061202757612026613b1a565b5b906000526020600020906007020160060160003373ffffffffffffffffffffffffffffffffffffffff1673ffffffffffffffffffffffffffffffffffffffff168152602001908152602001600020600001886040516120869190613a06565b908152602001604051809103902060000160009054906101000a900460ff161515146120e7576040517f08c379a00000000000000000000000000000000000000000000000000000000081526004016120de90614385565b60405180910390fd5b6121c5565b600015156001828154811061210457612103613b1a565b5b906000526020600020906007020160060160003373ffffffffffffffffffffffffffffffffffffffff1673ffffffffffffffffffffffffffffffffffffffff168152602001908152602001600020600001886040516121639190613a06565b908152602001604051809103902060000160019054906101000a900460ff161515146121c4576040517f08c379a00000000000000000000000000000000000000000000000000000000081526004016121bb90614385565b60405180910390fd5b5b6000600260009054906101000a900473ffffffffffffffffffffffffffffffffffffffff1673ffffffffffffffffffffffffffffffffffffffff1662fdd58e33846040518363ffffffff1660e01b8152600401612223929190613d22565b602060405180830381865afa158015612240573d6000803e3d6000fd5b505050506040513d601f19601f820116820180604052508101906122649190613d77565b9050600081116122a9576040517f08c379a00000000000000000000000000000000000000000000000000000000081526004016122a0906143f1565b60405180910390fd5b86156123505760018083815481106122c4576122c3613b1a565b5b906000526020600020906007020160060160003373ffffffffffffffffffffffffffffffffffffffff1673ffffffffffffffffffffffffffffffffffffffff168152602001908152602001600020600001896040516123239190613a06565b908152602001604051809103902060000160006101000a81548160ff0219169083151502179055506123ed565b600180838154811061236557612364613b1a565b5b906000526020600020906007020160060160003373ffffffffffffffffffffffffffffffffffffffff1673ffffffffffffffffffffffffffffffffffffffff168152602001908152602001600020600001896040516123c49190613a06565b908152602001604051809103902060000160016101000a81548160ff0219169083151502179055505b7fb64f8561c8d312f5e6a3dbffda44bbb4d741f23969f1ea178a97d1428ebcaafe86868a33604051612422949392919061445d565b60405180910390a15050505050505050565b80600080826040516124469190613a06565b9081526020016040518091039020549050600260009054906101000a900473ffffffffffffffffffffffffffffffffffffffff1673ffffffffffffffffffffffffffffffffffffffff16634f558e79826040518263ffffffff1660e01b81526004016124b2919061326a565b602060405180830381865afa1580156124cf573d6000803e3d6000fd5b505050506040513d601f19601f820116820180604052508101906124f39190613a32565b612532576040517f08c379a000000000000000000000000000000000000000000000000000000000815260040161252990613abc565b60405180910390fd5b600080846040516125439190613a06565b908152602001604051809103902054905084156126d1576001818154811061256e5761256d613b1a565b5b906000526020600020906007020160060160003373ffffffffffffffffffffffffffffffffffffffff1673ffffffffffffffffffffffffffffffffffffffff16815260200190815260200160002060000187876040516125cf929190613b01565b908152602001604051809103902060000160009054906101000a900460ff1661262d576040517f08c379a000000000000000000000000000000000000000000000000000000000815260040161262490614529565b60405180910390fd5b60006001828154811061264357612642613b1a565b5b906000526020600020906007020160060160003373ffffffffffffffffffffffffffffffffffffffff1673ffffffffffffffffffffffffffffffffffffffff16815260200190815260200160002060000188886040516126a4929190613b01565b908152602001604051809103902060000160006101000a81548160ff021916908315150217905550612844565b600181815481106126e5576126e4613b1a565b5b906000526020600020906007020160060160003373ffffffffffffffffffffffffffffffffffffffff1673ffffffffffffffffffffffffffffffffffffffff1681526020019081526020016000206000018787604051612746929190613b01565b908152602001604051809103902060000160019054906101000a900460ff166127a4576040517f08c379a000000000000000000000000000000000000000000000000000000000815260040161279b90614529565b60405180910390fd5b6000600182815481106127ba576127b9613b1a565b5b906000526020600020906007020160060160003373ffffffffffffffffffffffffffffffffffffffff1673ffffffffffffffffffffffffffffffffffffffff168152602001908152602001600020600001888860405161281b929190613b01565b908152602001604051809103902060000160016101000a81548160ff0219169083151502179055505b50505050505050565b81818080601f016020809104026020016040519081016040528093929190818152602001838380828437600081840152601f19601f82011690508083019250505050505050600080826040516128a39190613a06565b9081526020016040518091039020549050600260009054906101000a900473ffffffffffffffffffffffffffffffffffffffff1673ffffffffffffffffffffffffffffffffffffffff16634f558e79826040518263ffffffff1660e01b815260040161290f919061326a565b602060405180830381865afa15801561292c573d6000803e3d6000fd5b505050506040513d601f19601f820116820180604052508101906129509190613a32565b61298f576040517f08c379a000000000000000000000000000000000000000000000000000000000815260040161298690613abc565b60405180910390fd5b60008085856040516129a2929190613b01565b90815260200160405180910390205490503373ffffffffffffffffffffffffffffffffffffffff16600182815481106129de576129dd613b1a565b5b906000526020600020906007020160010173__ChangesLibrary________________________63681ef9ce90918a8a6040518463ffffffff1660e01b8152600401612a2b93929190614074565b602060405180830381865af4158015612a48573d6000803e3d6000fd5b505050506040513d601f19601f82011682018060405250810190612a6c919061430c565b73ffffffffffffffffffffffffffffffffffffffff1614612ac2576040517f08c379a0000000000000000000000000000000000000000000000000000000008152600401612ab9906145bb565b60405180910390fd5b600260009054906101000a900473ffffffffffffffffffffffffffffffffffffffff1673ffffffffffffffffffffffffffffffffffffffff1663bd85b039826040518263ffffffff1660e01b8152600401612b1d919061326a565b602060405180830381865afa158015612b3a573d6000803e3d6000fd5b505050506040513d601f19601f82011682018060405250810190612b5e9190613d77565b6002612b6e898960018a8a610f1e565b612b789190613fa5565b11612b8257600080fd5b612bb93360018381548110612b9a57612b99613b1a565b5b9060005260206000209060070201600401612ce690919063ffffffff16565b5060018181548110612bce57612bcd613b1a565b5b906000526020600020906007020160010173__ChangesLibrary________________________63c8d84335909189896040518463ffffffff1660e01b8152600401612c1b93929190614074565b60006040518083038186803b158015612c3357600080fd5b505af4158015612c47573d6000803e3d6000fd5b505050507fa59a33e81abf86b25a561f609013d867f28b3c0cbc2cdf98e852b0c0c041eb6c85858989604051612c80949392919061464d565b60405180910390a150505050505050565b600260009054906101000a900473ffffffffffffffffffffffffffffffffffffffff1681565b6000612cc582600001612d37565b9050919050565b6000612cdb8360000183612d48565b60001c905092915050565b6000612d0e836000018373ffffffffffffffffffffffffffffffffffffffff1660001b612d73565b905092915050565b60606000612d2683600001612de3565b905060608190508092505050919050565b600081600001805490509050919050565b6000826000018281548110612d6057612d5f613b1a565b5b9060005260206000200154905092915050565b6000612d7f8383612e3f565b612dd8578260000182908060018154018082558091505060019003906000526020600020016000909190919091505582600001805490508360010160008481526020019081526020016000208190555060019050612ddd565b600090505b92915050565b606081600001805480602002602001604051908101604052809291908181526020018280548015612e3357602002820191906000526020600020905b815481526020019060010190808311612e1f575b50505050509050919050565b600080836001016000848152602001908152602001600020541415905092915050565b828054612e6e906142c6565b90600052602060002090601f016020900481019282612e905760008555612ed7565b82601f10612ea957805160ff1916838001178555612ed7565b82800160010185558215612ed7579182015b82811115612ed6578251825591602001919060010190612ebb565b5b509050612ee49190612ee8565b5090565b5b80821115612f01576000816000905550600101612ee9565b5090565b6000604051905090565b600080fd5b600080fd5b600080fd5b600080fd5b600080fd5b60008083601f840112612f3e57612f3d612f19565b5b8235905067ffffffffffffffff811115612f5b57612f5a612f1e565b5b602083019150836001820283011115612f7757612f76612f23565b5b9250929050565b60008115159050919050565b612f9381612f7e565b8114612f9e57600080fd5b50565b600081359050612fb081612f8a565b92915050565b600080600060408486031215612fcf57612fce612f0f565b5b600084013567ffffffffffffffff811115612fed57612fec612f14565b5b612ff986828701612f28565b9350935050602061300c86828701612fa1565b9150509250925092565b600081519050919050565b600082825260208201905092915050565b6000819050602082019050919050565b600081519050919050565b600082825260208201905092915050565b60005b8381101561307c578082015181840152602081019050613061565b8381111561308b576000848401525b50505050565b6000601f19601f8301169050919050565b60006130ad82613042565b6130b7818561304d565b93506130c781856020860161305e565b6130d081613091565b840191505092915050565b60006130e783836130a2565b905092915050565b6000602082019050919050565b600061310782613016565b6131118185613021565b93508360208202850161312385613032565b8060005b8581101561315f578484038952815161314085826130db565b945061314b836130ef565b925060208a01995050600181019050613127565b50829750879550505050505092915050565b6000602082019050818103600083015261318b81846130fc565b905092915050565b600073ffffffffffffffffffffffffffffffffffffffff82169050919050565b60006131be82613193565b9050919050565b6131ce816131b3565b81146131d957600080fd5b50565b6000813590506131eb816131c5565b92915050565b60008060006040848603121561320a57613209612f0f565b5b6000613218868287016131dc565b935050602084013567ffffffffffffffff81111561323957613238612f14565b5b61324586828701612f28565b92509250509250925092565b6000819050919050565b61326481613251565b82525050565b600060208201905061327f600083018461325b565b92915050565b600080fd5b7f4e487b7100000000000000000000000000000000000000000000000000000000600052604160045260246000fd5b6132c282613091565b810181811067ffffffffffffffff821117156132e1576132e061328a565b5b80604052505050565b60006132f4612f05565b905061330082826132b9565b919050565b600067ffffffffffffffff8211156133205761331f61328a565b5b61332982613091565b9050602081019050919050565b82818337600083830152505050565b600061335861335384613305565b6132ea565b90508281526020810184848401111561337457613373613285565b5b61337f848285613336565b509392505050565b600082601f83011261339c5761339b612f19565b5b81356133ac848260208601613345565b91505092915050565b6000602082840312156133cb576133ca612f0f565b5b600082013567ffffffffffffffff8111156133e9576133e8612f14565b5b6133f584828501613387565b91505092915050565b60008060006040848603121561341757613416612f0f565b5b600084013567ffffffffffffffff81111561343557613434612f14565b5b61344186828701613387565b935050602084013567ffffffffffffffff81111561346257613461612f14565b5b61346e86828701612f28565b92509250509250925092565b6000806000806040858703121561349457613493612f0f565b5b600085013567ffffffffffffffff8111156134b2576134b1612f14565b5b6134be87828801612f28565b9450945050602085013567ffffffffffffffff8111156134e1576134e0612f14565b5b6134ed87828801612f28565b925092505092959194509250565b60008060008060006060868803121561351757613516612f0f565b5b600086013567ffffffffffffffff81111561353557613534612f14565b5b61354188828901612f28565b9550955050602061355488828901612fa1565b935050604086013567ffffffffffffffff81111561357557613574612f14565b5b61358188828901612f28565b92509250509295509295909350565b600080604083850312156135a7576135a6612f0f565b5b600083013567ffffffffffffffff8111156135c5576135c4612f14565b5b6135d185828601613387565b925050602083013567ffffffffffffffff8111156135f2576135f1612f14565b5b6135fe85828601613387565b9150509250929050565b6000806020838503121561361f5761361e612f0f565b5b600083013567ffffffffffffffff81111561363d5761363c612f14565b5b61364985828601612f28565b92509250509250929050565b600081519050919050565b600082825260208201905092915050565b6000819050602082019050919050565b61368a816131b3565b82525050565b600061369c8383613681565b60208301905092915050565b6000602082019050919050565b60006136c082613655565b6136ca8185613660565b93506136d583613671565b8060005b838110156137065781516136ed8882613690565b97506136f8836136a8565b9250506001810190506136d9565b5085935050505092915050565b6000602082019050818103600083015261372d81846136b5565b905092915050565b6000806000806000806080878903121561375257613751612f0f565b5b600061376089828a016131dc565b965050602087013567ffffffffffffffff81111561378157613780612f14565b5b61378d89828a01612f28565b955095505060406137a089828a01612fa1565b935050606087013567ffffffffffffffff8111156137c1576137c0612f14565b5b6137cd89828a01612f28565b92509250509295509295509295565b6137e581612f7e565b82525050565b600060208201905061380060008301846137dc565b92915050565b61380f816131b3565b82525050565b600060208201905061382a6000830184613806565b92915050565b6000806000806060858703121561384a57613849612f0f565b5b600085013567ffffffffffffffff81111561386857613867612f14565b5b61387487828801613387565b945050602061388587828801612fa1565b935050604085013567ffffffffffffffff8111156138a6576138a5612f14565b5b6138b287828801612f28565b925092505092959194509250565b600080600080606085870312156138da576138d9612f0f565b5b600085013567ffffffffffffffff8111156138f8576138f7612f14565b5b61390487828801612f28565b9450945050602061391787828801612fa1565b925050604085013567ffffffffffffffff81111561393857613937612f14565b5b61394487828801613387565b91505092959194509250565b6000819050919050565b600061397561397061396b84613193565b613950565b613193565b9050919050565b60006139878261395a565b9050919050565b60006139998261397c565b9050919050565b6139a98161398e565b82525050565b60006020820190506139c460008301846139a0565b92915050565b600081905092915050565b60006139e082613042565b6139ea81856139ca565b93506139fa81856020860161305e565b80840191505092915050565b6000613a1282846139d5565b915081905092915050565b600081519050613a2c81612f8a565b92915050565b600060208284031215613a4857613a47612f0f565b5b6000613a5684828501613a1d565b91505092915050565b600082825260208201905092915050565b7f50726f6a65637420646f206e6f74206578697374000000000000000000000000600082015250565b6000613aa6601483613a5f565b9150613ab182613a70565b602082019050919050565b60006020820190508181036000830152613ad581613a99565b9050919050565b6000613ae883856139ca565b9350613af5838584613336565b82840190509392505050565b6000613b0e828486613adc565b91508190509392505050565b7f4e487b7100000000000000000000000000000000000000000000000000000000600052603260045260246000fd5b8082525050565b613b5981612f7e565b82525050565b6000604082019050613b746000830185613b49565b613b816020830184613b50565b9392505050565b600067ffffffffffffffff821115613ba357613ba261328a565b5b602082029050602081019050919050565b6000613bc7613bc284613305565b6132ea565b905082815260208101848484011115613be357613be2613285565b5b613bee84828561305e565b509392505050565b600082601f830112613c0b57613c0a612f19565b5b8151613c1b848260208601613bb4565b91505092915050565b6000613c37613c3284613b88565b6132ea565b90508083825260208201905060208402830185811115613c5a57613c59612f23565b5b835b81811015613ca157805167ffffffffffffffff811115613c7f57613c7e612f19565b5b808601613c8c8982613bf6565b85526020850194505050602081019050613c5c565b5050509392505050565b600082601f830112613cc057613cbf612f19565b5b8151613cd0848260208601613c24565b91505092915050565b600060208284031215613cef57613cee612f0f565b5b600082015167ffffffffffffffff811115613d0d57613d0c612f14565b5b613d1984828501613cab565b91505092915050565b6000604082019050613d376000830185613806565b613d44602083018461325b565b9392505050565b613d5481613251565b8114613d5f57600080fd5b50565b600081519050613d7181613d4b565b92915050565b600060208284031215613d8d57613d8c612f0f565b5b6000613d9b84828501613d62565b91505092915050565b600082825260208201905092915050565b6000613dc082613042565b613dca8185613da4565b9350613dda81856020860161305e565b613de381613091565b840191505092915050565b6000604082019050613e036000830185613b49565b8181036020830152613e158184613db5565b90509392505050565b7f4e6577206368616e67652070726f706f73616c20746f207468652050726f6a6560008201527f6374207769746820746865206e616d6520616e6420666f6c6c6f77696e67204960208201527f4420616e64204349443a00000000000000000000000000000000000000000000604082015250565b6000613ea0604a83613a5f565b9150613eab82613e1e565b606082019050919050565b6000613ec28385613a5f565b9350613ecf838584613336565b613ed883613091565b840190509392505050565b6000613eee82613042565b613ef88185613a5f565b9350613f0881856020860161305e565b613f1181613091565b840191505092915050565b60006080820190508181036000830152613f3581613e93565b90508181036020830152613f4a818688613eb6565b90508181036040830152613f5e8185613ee3565b9050613f6d606083018461325b565b95945050505050565b7f4e487b7100000000000000000000000000000000000000000000000000000000600052601160045260246000fd5b6000613fb082613251565b9150613fbb83613251565b9250817fffffffffffffffffffffffffffffffffffffffffffffffffffffffffffffffff0483118215151615613ff457613ff3613f76565b5b828202905092915050565b600061400a82613251565b91507fffffffffffffffffffffffffffffffffffffffffffffffffffffffffffffffff820361403c5761403b613f76565b5b600182019050919050565b60006140538385613da4565b9350614060838584613336565b61406983613091565b840190509392505050565b60006040820190506140896000830186613b49565b818103602083015261409c818486614047565b9050949350505050565b7f50726f6a656374206368616e67656420746f206368616e67653a200000000000600082015250565b60006140dc601b83613a5f565b91506140e7826140a6565b602082019050919050565b6000606082019050818103600083015261410b816140cf565b90508181036020830152614120818688613eb6565b90508181036040830152614135818486613eb6565b905095945050505050565b600061414b82613251565b915061415683613251565b9250827fffffffffffffffffffffffffffffffffffffffffffffffffffffffffffffffff0382111561418b5761418a613f76565b5b828201905092915050565b6000819050919050565b60006141bb6141b66141b184614196565b613950565b613251565b9050919050565b6141cb816141a0565b82525050565b60006060820190506141e66000830186613806565b6141f3602083018561325b565b61420060408301846141c2565b949350505050565b7f4e65772070726f6a656374206372656174656420776974682049443a00000000600082015250565b600061423e601c83613a5f565b915061424982614208565b602082019050919050565b6000606082019050818103600083015261426d81614231565b905081810360208301526142818185613ee3565b9050614290604083018461325b565b9392505050565b7f4e487b7100000000000000000000000000000000000000000000000000000000600052602260045260246000fd5b600060028204905060018216806142de57607f821691505b6020821081036142f1576142f0614297565b5b50919050565b600081519050614306816131c5565b92915050565b60006020828403121561432257614321612f0f565b5b6000614330848285016142f7565b91505092915050565b7f416c726561647920766f74656400000000000000000000000000000000000000600082015250565b600061436f600d83613a5f565b915061437a82614339565b602082019050919050565b6000602082019050818103600083015261439e81614362565b9050919050565b7f566f74696e6720706f77657220697320696e73756666696369656e7400000000600082015250565b60006143db601c83613a5f565b91506143e6826143a5565b602082019050919050565b6000602082019050818103600083015261440a816143ce565b9050919050565b7f4e657720766f746520666f72206368616e67652070726f706f73616c3a000000600082015250565b6000614447601d83613a5f565b915061445282614411565b602082019050919050565b600060808201905081810360008301526144768161443a565b9050818103602083015261448b818688613eb6565b9050818103604083015261449f8185613ee3565b90506144ae6060830184613806565b95945050505050565b7f546f2072656d6f766520796f757220766f746520796f75206d75737420766f7460008201527f6520666972737400000000000000000000000000000000000000000000000000602082015250565b6000614513602783613a5f565b915061451e826144b7565b604082019050919050565b6000602082019050818103600083015261454281614506565b9050919050565b7f6f6e6c7920746865206368616e67652070726f706f73616c2063726561746f7260008201527f2063616e20616363657074000000000000000000000000000000000000000000602082015250565b60006145a5602b83613a5f565b91506145b082614549565b604082019050919050565b600060208201905081810360008301526145d481614598565b9050919050565b7f41206e6577206368616e676520686173206265656e206d61646520746f20746860008201527f652070726f6a6563743a20000000000000000000000000000000000000000000602082015250565b6000614637602b83613a5f565b9150614642826145db565b604082019050919050565b600060608201905081810360008301526146668161462a565b9050818103602083015261467b818688613eb6565b90508181036040830152614690818486613eb6565b90509594505050505056fea264697066735822122079b62eab70ba2b9286f5ffee49c081b65fcc34154bbb9f860fb0dd76a2f876fa64736f6c634300080d0033",
  "immutableReferences": {},
  "source": "// SPDX-License-Identifier: MIT\npragma solidity ^0.8.13;\nimport \"../node_modules/@openzeppelin/contracts/utils/Counters.sol\";\nimport \"../node_modules/@openzeppelin/contracts/utils/structs/EnumerableMap.sol\";\nimport \"./Changes.sol\";\nimport \"./ProjectsToken.sol\";\n\n\ncontract Projects {\n    // initiate all the data structures and constants saved on the smart contract\n    uint public constant TimeLockInterval = 4 minutes;\n    uint public constant ClaimingInterval = 2 minutes;\n\n    using EnumerableSet for EnumerableSet.AddressSet;\n    using Counters for Counters.Counter;\n    using ChangesLibrary for ChangesLibrary.changesMap;\n\n    \n    // -------------------------------------------------------- Mappings\n    mapping(string => uint) public NameToID;    \n\n    // -------------------------------------------------------- Structs\n    struct Vote {\n        bool VotedToChangeProposal;\n        bool VotedToChangeRemoval;\n    }\n\n    struct Participant {\n        mapping(string => Vote) voted;\n        mapping(uint => uint) TokensSpent;\n        uint pendingTokens;\n    }\n\n    struct Project {\n        string name;\n        ChangesLibrary.changesMap changes;\n        uint DistributionTime;\n        uint newTokens;\n        EnumerableSet.AddressSet participants;\n        mapping(address => Participant) participant;\n    }\n\n    // -------------------------------------------------------- Lists\n    Project[] publicProjects;\n\n    // -------------------------------------------------------- Token\n    ProjectsToken public token;\n\n    // -------------------------------------------------------- Events\n    event NewProjectCreated(string message, string name, uint value);\n    event NewChangeProposalCreated(string message, string Name, string CID, uint indexValue);\n    event NewVoteForChangeProposal(string message, string projectName, string changeProposalCID, address voter);\n    event NewChangeIsMadeToProject(string message, string projectName, string changeCID); // Message, Project CID, Message, ChangeCID\n    event ProjectWentBack(string message, string changeCID, string ProjectName);\n    event TokensDisributed(string message, uint lastDistributionTime);\n\n    // -------------------------------------------------------- Modifiers\n    modifier ProjectExist(string memory _Name) {\n        uint idx = NameToID[_Name];\n        require(token.exists(idx), \"Project do not exist\");\n        _;\n    }\n\n    // -------------------------------------------------------- Constructor\n    constructor(address tokenAddress) {\n        token = ProjectsToken(tokenAddress);\n    } \n\n    // -------------------------------------------------------- Functions\n\n    // the function create a new project with an inital change\n    function createProject(\n        string memory changeCID, \n        string memory projectName\n    ) public {\n        uint newProjectID = publicProjects.length;\n        NameToID[projectName] = newProjectID;\n        token.mint(msg.sender, newProjectID, 100);\n        \n        Project storage newProject = publicProjects.push();\n        newProject.name = projectName;\n        newProject.changes.initialize(changeCID);\n        newProject.newTokens = 100;\n        newProject.DistributionTime = block.timestamp + TimeLockInterval; \n        newProject.participants.add(msg.sender);\n\n        emit NewProjectCreated(\"New project created with ID:\", projectName, newProjectID);\n    }\n\n\n    // the functions create a change proposal\n    function uploadChangeProposal(\n        string memory changeCID, \n        string calldata projectName\n    ) ProjectExist(projectName) external {\n        uint projectID = NameToID[projectName];\n        publicProjects[projectID].changes.createChangeProposal(changeCID);\n        publicProjects[projectID].participant[msg.sender].voted[changeCID].VotedToChangeProposal = true;\n        emit NewChangeProposalCreated(\"New change proposal to the Project with the name and following ID and CID:\", projectName, changeCID, projectID);\n    }\n\n    \n    function isVoted(\n        address addr,\n        string calldata changeProposalCID,\n        bool isChange,\n        string calldata projectName\n    ) ProjectExist(projectName) view external returns (bool) {\n        uint projectID = NameToID[projectName];\n        return isChange ? publicProjects[projectID].participant[addr].voted[changeProposalCID].VotedToChangeProposal\n                        : publicProjects[projectID].participant[addr].voted[changeProposalCID].VotedToChangeRemoval;\n    }\n\n\n    // the function make a go Back \n    function acceptRemoval(\n        string calldata changeCID,\n        string calldata projectName \n    ) ProjectExist(projectName) external {\n        uint projectID = NameToID[projectName];\n        require(getChangeVotes(changeCID, false, projectName)*2 > token.totalSupply(projectID));\n\n        address participant;\n        for (uint index = 0; index < publicProjects[projectID].participants.length(); index++) {\n            participant = publicProjects[projectID].participants.at(index);\n            delete publicProjects[projectID].participant[participant].voted[changeCID];\n        }\n        \n        publicProjects[projectID].changes.removeChange(changeCID);\n        emit ProjectWentBack(\"Project changed to change: \", changeCID, projectName);\n    }\n\n\n    // the functions accept a change proposal and add it to the list\n    function acceptChangeProposal(\n        string calldata changeProposalCID,\n        string calldata projectName\n    ) ProjectExist(projectName) external {\n        uint projectID = NameToID[projectName];\n        require(publicProjects[projectID].changes.getChangeMaker(changeProposalCID) == msg.sender, \"only the change proposal creator can accept\");\n        require(getChangeVotes(changeProposalCID, true, projectName)*2 > token.totalSupply(projectID));\n        publicProjects[projectID].participants.add(msg.sender);\n        publicProjects[projectID].changes.acceptChangeProposal(changeProposalCID);\n\n        emit NewChangeIsMadeToProject(\"A new change has been made to the project: \", projectName, changeProposalCID);\n    }\n\n\n    // the function allow user to vote in favor of a change proposal\n    function voteForChangeProposal(\n        string memory changeProposalCID, \n        bool isChange,\n        string calldata projectName\n    ) ProjectExist(projectName) external {\n        uint projectID = NameToID[projectName];\n        if (isChange) {\n            require(publicProjects[projectID].participant[msg.sender].voted[changeProposalCID].VotedToChangeProposal == false, \"Already voted\");\n        } else {\n            require(publicProjects[projectID].participant[msg.sender].voted[changeProposalCID].VotedToChangeRemoval == false, \"Already voted\");\n        }\n\n        uint votingPower = token.balanceOf(msg.sender, projectID);\n        if (votingPower <= 0) {\n            revert(\"Voting power is insufficient\");\n        }\n\n        if (isChange) {\n            publicProjects[projectID].participant[msg.sender].voted[changeProposalCID].VotedToChangeProposal = true;\n        } else {\n            publicProjects[projectID].participant[msg.sender].voted[changeProposalCID].VotedToChangeRemoval = true;\n        }\n        emit NewVoteForChangeProposal(\n            \"New vote for change proposal:\",\n            projectName,\n            changeProposalCID,\n            msg.sender\n        );\n    }\n\n    function getChangeVotes(\n    string calldata changeCID,\n    bool isChange,\n    string calldata projectName\n    ) ProjectExist(projectName) public view returns (uint) {\n        uint projectID = NameToID[projectName];\n        uint votes = 0;\n        address participant;\n        for (uint index = 0; index < publicProjects[projectID].participants.length(); index++) {\n            participant = publicProjects[projectID].participants.at(index);\n            if (isChange ? publicProjects[projectID].participant[participant].voted[changeCID].VotedToChangeProposal \n                         : publicProjects[projectID].participant[participant].voted[changeCID].VotedToChangeRemoval) {\n                votes += token.balanceOf(participant, projectID);\n            }\n        }\n        return votes;\n    }\n\n\n    function removeVote(\n        string calldata changeCID,\n        bool isChange,\n        string memory projectName\n    ) ProjectExist(projectName) external {\n        uint projectID = NameToID[projectName];\n        if (isChange) {\n            require(publicProjects[projectID].participant[msg.sender].voted[changeCID].VotedToChangeProposal, \"To remove your vote you must vote first\");\n            publicProjects[projectID].participant[msg.sender].voted[changeCID].VotedToChangeProposal = false;\n        } else {\n            require(publicProjects[projectID].participant[msg.sender].voted[changeCID].VotedToChangeRemoval, \"To remove your vote you must vote first\");\n            publicProjects[projectID].participant[msg.sender].voted[changeCID].VotedToChangeRemoval = false;\n        }\n    }\n\n\n    function getBalance(\n        address UserAddress,\n        string calldata projectName\n    ) ProjectExist(projectName) external view returns (uint) {\n        return token.balanceOf(UserAddress, NameToID[projectName]);\n    }\n\n\n    function getTotalTokens(\n        string calldata projectName\n    ) ProjectExist(projectName) external view returns (uint) {\n        return token.totalSupply(NameToID[projectName]);\n    }\n\n\n    // the functions returns the changes/change proposals\n    function getChangesOrProposals(\n        string calldata projectName, \n        bool changesOrChangeProposals\n    ) ProjectExist(projectName) external view returns (string[] memory) {\n        uint projectID = NameToID[projectName];\n        return publicProjects[projectID].changes.getChangesOrChangeProposals(changesOrChangeProposals); // true for changes and false for change proposals\n    }\n\n\n    function getParticipants(\n        string calldata projectName\n    ) ProjectExist(projectName) external view returns (address[] memory) {\n        uint projectID = NameToID[projectName];\n        return publicProjects[projectID].participants.values(); \n    }\n\n\n    function getChangeMaker(\n        string calldata projectName,\n        string calldata changeCID\n    ) ProjectExist(projectName) external view returns (address) {\n        uint projectID = NameToID[projectName];\n        return publicProjects[projectID].changes.getChangeMaker(changeCID);\n    }\n\n    // TEMP\n    function getLastProjects() external view returns (string[] memory) {\n        uint arr_length = publicProjects.length;\n        string[] memory projects = new string[](arr_length);\n        for (uint i = 0; i < arr_length; i++) {\n            projects[i] = publicProjects[i].name; \n        }\n        return projects;\n    }\n}\n",
  "sourcePath": "c:\\Users\\User\\Desktop\\\\davidson\\project\\DavidsonProject\\Smart Contract\\contracts\\Projects.sol",
  "compiler": {
    "name": "solc",
    "version": "0.8.13+commit.abaa5c0e.Emscripten.clang"
  },
  "schemaVersion": "3.4.7",
  "updatedAt": "2024-04-22T10:09:20.348Z",
  "networkType": "ethereum",
  "devdoc": {
    "kind": "dev",
    "methods": {},
    "version": 1
  },
  "userdoc": {
    "kind": "user",
    "methods": {},
    "version": 1
  }
}