{
  "contractName": "Projects",
  "abi": [
    {
      "inputs": [
        {
          "internalType": "address",
          "name": "tokenAddress",
          "type": "address"
        }
      ],
      "stateMutability": "nonpayable",
      "type": "constructor"
    },
    {
      "anonymous": false,
      "inputs": [
        {
          "indexed": false,
          "internalType": "string",
          "name": "message",
          "type": "string"
        },
        {
          "indexed": false,
          "internalType": "string",
          "name": "projectName",
          "type": "string"
        },
        {
          "indexed": false,
          "internalType": "string",
          "name": "changeCID",
          "type": "string"
        }
      ],
      "name": "NewChangeIsMadeToProject",
      "type": "event"
    },
    {
      "anonymous": false,
      "inputs": [
        {
          "indexed": false,
          "internalType": "string",
          "name": "message",
          "type": "string"
        },
        {
          "indexed": false,
          "internalType": "string",
          "name": "Name",
          "type": "string"
        },
        {
          "indexed": false,
          "internalType": "string",
          "name": "CID",
          "type": "string"
        },
        {
          "indexed": false,
          "internalType": "uint256",
          "name": "indexValue",
          "type": "uint256"
        }
      ],
      "name": "NewChangeProposalCreated",
      "type": "event"
    },
    {
      "anonymous": false,
      "inputs": [
        {
          "indexed": false,
          "internalType": "string",
          "name": "message",
          "type": "string"
        },
        {
          "indexed": false,
          "internalType": "string",
          "name": "name",
          "type": "string"
        },
        {
          "indexed": false,
          "internalType": "uint256",
          "name": "value",
          "type": "uint256"
        }
      ],
      "name": "NewProjectCreated",
      "type": "event"
    },
    {
      "anonymous": false,
      "inputs": [
        {
          "indexed": false,
          "internalType": "string",
          "name": "message",
          "type": "string"
        },
        {
          "indexed": false,
          "internalType": "string",
          "name": "projectName",
          "type": "string"
        },
        {
          "indexed": false,
          "internalType": "string",
          "name": "changeProposalCID",
          "type": "string"
        },
        {
          "indexed": false,
          "internalType": "address",
          "name": "voter",
          "type": "address"
        },
        {
          "indexed": false,
          "internalType": "uint256",
          "name": "votes",
          "type": "uint256"
        }
      ],
      "name": "NewVoteForChangeProposal",
      "type": "event"
    },
    {
      "anonymous": false,
      "inputs": [
        {
          "indexed": false,
          "internalType": "string",
          "name": "message",
          "type": "string"
        },
        {
          "indexed": false,
          "internalType": "string",
          "name": "changeCID",
          "type": "string"
        },
        {
          "indexed": false,
          "internalType": "string",
          "name": "ProjectName",
          "type": "string"
        }
      ],
      "name": "ProjectWentBack",
      "type": "event"
    },
    {
      "anonymous": false,
      "inputs": [
        {
          "indexed": false,
          "internalType": "string",
          "name": "message",
          "type": "string"
        },
        {
          "indexed": false,
          "internalType": "uint256",
          "name": "lastDistributionTime",
          "type": "uint256"
        }
      ],
      "name": "TokensDisributed",
      "type": "event"
    },
    {
      "inputs": [],
      "name": "ClaimingInterval",
      "outputs": [
        {
          "internalType": "uint256",
          "name": "",
          "type": "uint256"
        }
      ],
      "stateMutability": "view",
      "type": "function"
    },
    {
      "inputs": [
        {
          "internalType": "string",
          "name": "",
          "type": "string"
        }
      ],
      "name": "NameToID",
      "outputs": [
        {
          "internalType": "uint256",
          "name": "",
          "type": "uint256"
        }
      ],
      "stateMutability": "view",
      "type": "function"
    },
    {
      "inputs": [],
      "name": "TimeLockInterval",
      "outputs": [
        {
          "internalType": "uint256",
          "name": "",
          "type": "uint256"
        }
      ],
      "stateMutability": "view",
      "type": "function"
    },
    {
      "inputs": [],
      "name": "token",
      "outputs": [
        {
          "internalType": "contract ProjectsToken",
          "name": "",
          "type": "address"
        }
      ],
      "stateMutability": "view",
      "type": "function"
    },
    {
      "inputs": [
        {
          "internalType": "string",
          "name": "_CID",
          "type": "string"
        },
        {
          "internalType": "string",
          "name": "projectName",
          "type": "string"
        }
      ],
      "name": "createProject",
      "outputs": [],
      "stateMutability": "nonpayable",
      "type": "function"
    },
    {
      "inputs": [
        {
          "internalType": "string",
          "name": "_changeCID",
          "type": "string"
        },
        {
          "internalType": "string",
          "name": "_projectName",
          "type": "string"
        }
      ],
      "name": "MakeChangeProposal",
      "outputs": [],
      "stateMutability": "nonpayable",
      "type": "function"
    },
    {
      "inputs": [
        {
          "internalType": "string",
          "name": "_changeCID",
          "type": "string"
        },
        {
          "internalType": "string",
          "name": "_projectName",
          "type": "string"
        }
      ],
      "name": "MakeGoBackProposal",
      "outputs": [],
      "stateMutability": "nonpayable",
      "type": "function"
    },
    {
      "inputs": [
        {
          "internalType": "string",
          "name": "_projectName",
          "type": "string"
        },
        {
          "internalType": "string",
          "name": "_changeCID",
          "type": "string"
        }
      ],
      "name": "acceptGoBack",
      "outputs": [],
      "stateMutability": "nonpayable",
      "type": "function"
    },
    {
      "inputs": [
        {
          "internalType": "string",
          "name": "_proposedChangeCID",
          "type": "string"
        },
        {
          "internalType": "string",
          "name": "_projectName",
          "type": "string"
        }
      ],
      "name": "acceptChangeProposal",
      "outputs": [],
      "stateMutability": "nonpayable",
      "type": "function"
    },
    {
      "inputs": [
        {
          "internalType": "string",
          "name": "_changeProposalCID",
          "type": "string"
        },
        {
          "internalType": "string",
          "name": "_projectName",
          "type": "string"
        }
      ],
      "name": "voteForChangeProposal",
      "outputs": [],
      "stateMutability": "nonpayable",
      "type": "function"
    },
    {
      "inputs": [
        {
          "internalType": "address",
          "name": "_UserAddress",
          "type": "address"
        },
        {
          "internalType": "string",
          "name": "_projectName",
          "type": "string"
        }
      ],
      "name": "getBalance",
      "outputs": [
        {
          "internalType": "uint256",
          "name": "",
          "type": "uint256"
        }
      ],
      "stateMutability": "view",
      "type": "function"
    },
    {
      "inputs": [
        {
          "internalType": "string",
          "name": "_projectName",
          "type": "string"
        }
      ],
      "name": "getTotalTokens",
      "outputs": [
        {
          "internalType": "uint256",
          "name": "",
          "type": "uint256"
        }
      ],
      "stateMutability": "view",
      "type": "function"
    },
    {
      "inputs": [
        {
          "internalType": "string",
          "name": "_projectName",
          "type": "string"
        },
        {
          "internalType": "bool",
          "name": "changesOrChangeProposals",
          "type": "bool"
        }
      ],
      "name": "getChangesOrProposals",
      "outputs": [
        {
          "internalType": "string[]",
          "name": "",
          "type": "string[]"
        }
      ],
      "stateMutability": "view",
      "type": "function"
    },
    {
      "inputs": [
        {
          "internalType": "string",
          "name": "_projectName",
          "type": "string"
        }
      ],
      "name": "getAddresses",
      "outputs": [
        {
          "internalType": "address[]",
          "name": "",
          "type": "address[]"
        }
      ],
      "stateMutability": "view",
      "type": "function"
    },
    {
      "inputs": [
        {
          "internalType": "string",
          "name": "_projectName",
          "type": "string"
        },
        {
          "internalType": "string",
          "name": "change",
          "type": "string"
        }
      ],
      "name": "getChangeMaker",
      "outputs": [
        {
          "internalType": "address",
          "name": "",
          "type": "address"
        }
      ],
      "stateMutability": "view",
      "type": "function"
    },
    {
      "inputs": [],
      "name": "getLastProjects",
      "outputs": [
        {
          "internalType": "string[]",
          "name": "",
          "type": "string[]"
        }
      ],
      "stateMutability": "view",
      "type": "function"
    },
    {
      "inputs": [
        {
          "internalType": "string",
          "name": "projectName",
          "type": "string"
        }
      ],
      "name": "getLastDistriubtionTime",
      "outputs": [
        {
          "internalType": "uint256",
          "name": "",
          "type": "uint256"
        }
      ],
      "stateMutability": "view",
      "type": "function"
    },
    {
      "inputs": [
        {
          "internalType": "address",
          "name": "usr",
          "type": "address"
        },
        {
          "internalType": "string",
          "name": "projectName",
          "type": "string"
        }
      ],
      "name": "getPendingTokens",
      "outputs": [
        {
          "internalType": "uint256",
          "name": "",
          "type": "uint256"
        }
      ],
      "stateMutability": "view",
      "type": "function"
    }
  ],
  "bytecode": "0x60806040523480156200001157600080fd5b5060405162003c0b38038062003c0b8339818101604052810190620000379190620000e9565b80600260006101000a81548173ffffffffffffffffffffffffffffffffffffffff021916908373ffffffffffffffffffffffffffffffffffffffff160217905550506200011b565b600080fd5b600073ffffffffffffffffffffffffffffffffffffffff82169050919050565b6000620000b18262000084565b9050919050565b620000c381620000a4565b8114620000cf57600080fd5b50565b600081519050620000e381620000b8565b92915050565b6000602082840312156200010257620001016200007f565b5b60006200011284828501620000d2565b91505092915050565b613ae0806200012b6000396000f3fe608060405234801561001057600080fd5b50600436106101165760003560e01c80637a5945da116100a2578063a836361011610071578063a836361014610305578063a90d00cd14610335578063c4687fb814610365578063ed0c2d9014610381578063fc0c546a1461039d57610116565b80637a5945da146102915780638d1446fc146102af578063a54d804d146102cb578063a5635963146102e957610116565b806347d8899a116100e957806347d8899a146101db57806351e684ba1461020b57806354696993146102295780636bd0620414610259578063750354d21461027557610116565b80631d7147d81461011b5780631dd7cecf1461014b57806333846eba1461017b57806339b64c30146101ab575b600080fd5b6101356004803603810190610130919061259b565b6103bb565b6040516101429190612756565b60405180910390f35b610165600480360381019061016091906127d6565b6105d4565b604051610172919061284f565b60405180910390f35b6101956004803603810190610190919061299a565b6107e0565b6040516101a2919061284f565b60405180910390f35b6101c560048036038101906101c091906129e3565b61080e565b6040516101d29190612aee565b60405180910390f35b6101f560048036038101906101f091906129e3565b610a24565b604051610202919061284f565b60405180910390f35b610213610bbd565b604051610220919061284f565b60405180910390f35b610243600480360381019061023e91906127d6565b610bc2565b604051610250919061284f565b60405180910390f35b610273600480360381019061026e9190612b10565b610d99565b005b61028f600480360381019061028a9190612b88565b610f60565b005b61029961148a565b6040516102a6919061284f565b60405180910390f35b6102c960048036038101906102c49190612b88565b61148f565b005b6102d361181d565b6040516102e09190612756565b60405180910390f35b61030360048036038101906102fe9190612b88565b6119bb565b005b61031f600480360381019061031a91906129e3565b611b90565b60405161032c919061284f565b60405180910390f35b61034f600480360381019061034a9190612c04565b611d9a565b60405161035c9190612c94565b60405180910390f35b61037f600480360381019061037a9190612caf565b611fb1565b005b61039b60048036038101906103969190612b88565b6121e9565b005b6103a5612421565b6040516103b29190612d8a565b60405180910390f35b606083838080601f016020809104026020016040519081016040528093929190818152602001838380828437600081840152601f19601f82011690508083019250505050505050600080826040516104139190612de1565b9081526020016040518091039020549050600260009054906101000a900473ffffffffffffffffffffffffffffffffffffffff1673ffffffffffffffffffffffffffffffffffffffff16634f558e79826040518263ffffffff1660e01b815260040161047f919061284f565b602060405180830381865afa15801561049c573d6000803e3d6000fd5b505050506040513d601f19601f820116820180604052508101906104c09190612e0d565b6104ff576040517f08c379a00000000000000000000000000000000000000000000000000000000081526004016104f690612e97565b60405180910390fd5b6000808787604051610512929190612edc565b90815260200160405180910390205490506001818154811061053757610536612ef5565b5b90600052602060002090600a020160010173__ChangesLibrary________________________63e3e26be89091876040518363ffffffff1660e01b8152600401610582929190612f3a565b600060405180830381865af415801561059f573d6000803e3d6000fd5b505050506040513d6000823e3d601f19601f820116820180604052508101906105c891906130b4565b93505050509392505050565b600082828080601f016020809104026020016040519081016040528093929190818152602001838380828437600081840152601f19601f820116905080830192505050505050506000808260405161062c9190612de1565b9081526020016040518091039020549050600260009054906101000a900473ffffffffffffffffffffffffffffffffffffffff1673ffffffffffffffffffffffffffffffffffffffff16634f558e79826040518263ffffffff1660e01b8152600401610698919061284f565b602060405180830381865afa1580156106b5573d6000803e3d6000fd5b505050506040513d601f19601f820116820180604052508101906106d99190612e0d565b610718576040517f08c379a000000000000000000000000000000000000000000000000000000000815260040161070f90612e97565b60405180910390fd5b600260009054906101000a900473ffffffffffffffffffffffffffffffffffffffff1673ffffffffffffffffffffffffffffffffffffffff1662fdd58e8760008888604051610768929190612edc565b9081526020016040518091039020546040518363ffffffff1660e01b81526004016107949291906130fd565b602060405180830381865afa1580156107b1573d6000803e3d6000fd5b505050506040513d601f19601f820116820180604052508101906107d59190613152565b925050509392505050565b6000818051602081018201805184825260208301602085012081835280955050505050506000915090505481565b606082828080601f016020809104026020016040519081016040528093929190818152602001838380828437600081840152601f19601f82011690508083019250505050505050600080826040516108669190612de1565b9081526020016040518091039020549050600260009054906101000a900473ffffffffffffffffffffffffffffffffffffffff1673ffffffffffffffffffffffffffffffffffffffff16634f558e79826040518263ffffffff1660e01b81526004016108d2919061284f565b602060405180830381865afa1580156108ef573d6000803e3d6000fd5b505050506040513d601f19601f820116820180604052508101906109139190612e0d565b610952576040517f08c379a000000000000000000000000000000000000000000000000000000000815260040161094990612e97565b60405180910390fd5b6000808686604051610965929190612edc565b90815260200160405180910390205490506001818154811061098a57610989612ef5565b5b90600052602060002090600a020160010173__ChangesLibrary________________________635a45338590916040518263ffffffff1660e01b81526004016109d3919061317f565b600060405180830381865af41580156109f0573d6000803e3d6000fd5b505050506040513d6000823e3d601f19601f82011682018060405250810190610a199190613272565b935050505092915050565b600082828080601f016020809104026020016040519081016040528093929190818152602001838380828437600081840152601f19601f8201169050808301925050505050505060008082604051610a7c9190612de1565b9081526020016040518091039020549050600260009054906101000a900473ffffffffffffffffffffffffffffffffffffffff1673ffffffffffffffffffffffffffffffffffffffff16634f558e79826040518263ffffffff1660e01b8152600401610ae8919061284f565b602060405180830381865afa158015610b05573d6000803e3d6000fd5b505050506040513d601f19601f82011682018060405250810190610b299190612e0d565b610b68576040517f08c379a0000000000000000000000000000000000000000000000000000000008152600401610b5f90612e97565b60405180910390fd5b6000808686604051610b7b929190612edc565b908152602001604051809103902054905060018181548110610ba057610b9f612ef5565b5b90600052602060002090600a020160050154935050505092915050565b607881565b600082828080601f016020809104026020016040519081016040528093929190818152602001838380828437600081840152601f19601f8201169050808301925050505050505060008082604051610c1a9190612de1565b9081526020016040518091039020549050600260009054906101000a900473ffffffffffffffffffffffffffffffffffffffff1673ffffffffffffffffffffffffffffffffffffffff16634f558e79826040518263ffffffff1660e01b8152600401610c86919061284f565b602060405180830381865afa158015610ca3573d6000803e3d6000fd5b505050506040513d601f19601f82011682018060405250810190610cc79190612e0d565b610d06576040517f08c379a0000000000000000000000000000000000000000000000000000000008152600401610cfd90612e97565b60405180910390fd5b6000808686604051610d19929190612edc565b908152602001604051809103902054905060018181548110610d3e57610d3d612ef5565b5b90600052602060002090600a020160070160008873ffffffffffffffffffffffffffffffffffffffff1673ffffffffffffffffffffffffffffffffffffffff1681526020019081526020016000205493505050509392505050565b6000600180549050905080600083604051610db49190612de1565b908152602001604051809103902081905550600260009054906101000a900473ffffffffffffffffffffffffffffffffffffffff1673ffffffffffffffffffffffffffffffffffffffff1663156e29f6338360646040518463ffffffff1660e01b8152600401610e26939291906132f6565b600060405180830381600087803b158015610e4057600080fd5b505af1158015610e54573d6000803e3d6000fd5b505050506000600180816001815401808255809150500390600052602060002090600a0201905082816000019080519060200190610e93929190612447565b508060010173__ChangesLibrary________________________63aaff905a9091866040518363ffffffff1660e01b8152600401610ed2929190613377565b60006040518083038186803b158015610eea57600080fd5b505af4158015610efe573d6000803e3d6000fd5b505050506064816006018190555060f042610f1991906133d6565b81600501819055507fe224389b386caecb8e3b38edc39361c7227e3ef820a8276bc31ac9cf1ba69fcd8383604051610f529291906134b1565b60405180910390a150505050565b81818080601f016020809104026020016040519081016040528093929190818152602001838380828437600081840152601f19601f8201169050808301925050505050505060008082604051610fb69190612de1565b9081526020016040518091039020549050600260009054906101000a900473ffffffffffffffffffffffffffffffffffffffff1673ffffffffffffffffffffffffffffffffffffffff16634f558e79826040518263ffffffff1660e01b8152600401611022919061284f565b602060405180830381865afa15801561103f573d6000803e3d6000fd5b505050506040513d601f19601f820116820180604052508101906110639190612e0d565b6110a2576040517f08c379a000000000000000000000000000000000000000000000000000000000815260040161109990612e97565b60405180910390fd5b60008085856040516110b5929190612edc565b908152602001604051809103902054905060001515600182815481106110de576110dd612ef5565b5b90600052602060002090600a0201600901876040516110fd9190612de1565b908152602001604051809103902060003373ffffffffffffffffffffffffffffffffffffffff1673ffffffffffffffffffffffffffffffffffffffff16815260200190815260200160002060009054906101000a900460ff16151514611198576040517f08c379a000000000000000000000000000000000000000000000000000000000815260040161118f90613540565b60405180910390fd5b6000600260009054906101000a900473ffffffffffffffffffffffffffffffffffffffff1673ffffffffffffffffffffffffffffffffffffffff1662fdd58e33846040518363ffffffff1660e01b81526004016111f69291906130fd565b602060405180830381865afa158015611213573d6000803e3d6000fd5b505050506040513d601f19601f820116820180604052508101906112379190613152565b90506000811161127c576040517f08c379a0000000000000000000000000000000000000000000000000000000008152600401611273906135ac565b60405180910390fd5b600182815481106112905761128f612ef5565b5b90600052602060002090600a020160010173__ChangesLibrary________________________637dba11cb909189846040518463ffffffff1660e01b81526004016112dd939291906135db565b60006040518083038186803b1580156112f557600080fd5b505af4158015611309573d6000803e3d6000fd5b50505050600180838154811061132257611321612ef5565b5b90600052602060002090600a0201600901886040516113419190612de1565b908152602001604051809103902060003373ffffffffffffffffffffffffffffffffffffffff1673ffffffffffffffffffffffffffffffffffffffff16815260200190815260200160002060006101000a81548160ff0219169083151502179055507f0defd832aa647eb845ac2ed5e414ba9da1d13d7c3b2028fea20853913891174d86868933600187815481106113dc576113db612ef5565b5b90600052602060002090600a020160010173__ChangesLibrary________________________63ca5451d290918e6040518363ffffffff1660e01b8152600401611427929190613377565b602060405180830381865af4158015611444573d6000803e3d6000fd5b505050506040513d601f19601f820116820180604052508101906114689190613152565b604051611479959493929190613692565b60405180910390a150505050505050565b60f081565b81818080601f016020809104026020016040519081016040528093929190818152602001838380828437600081840152601f19601f82011690508083019250505050505050600080826040516114e59190612de1565b9081526020016040518091039020549050600260009054906101000a900473ffffffffffffffffffffffffffffffffffffffff1673ffffffffffffffffffffffffffffffffffffffff16634f558e79826040518263ffffffff1660e01b8152600401611551919061284f565b602060405180830381865afa15801561156e573d6000803e3d6000fd5b505050506040513d601f19601f820116820180604052508101906115929190612e0d565b6115d1576040517f08c379a00000000000000000000000000000000000000000000000000000000081526004016115c890612e97565b60405180910390fd5b60008085856040516115e4929190612edc565b90815260200160405180910390205490506001818154811061160957611608612ef5565b5b90600052602060002090600a020160010173__ChangesLibrary________________________636de060a8909188600260009054906101000a900473ffffffffffffffffffffffffffffffffffffffff1673ffffffffffffffffffffffffffffffffffffffff1662fdd58e3360008c8c604051611687929190612edc565b9081526020016040518091039020546040518363ffffffff1660e01b81526004016116b39291906130fd565b602060405180830381865afa1580156116d0573d6000803e3d6000fd5b505050506040513d601f19601f820116820180604052508101906116f49190613152565b6040518463ffffffff1660e01b8152600401611712939291906135db565b60006040518083038186803b15801561172a57600080fd5b505af415801561173e573d6000803e3d6000fd5b50505050600180828154811061175757611756612ef5565b5b90600052602060002090600a0201600901876040516117769190612de1565b908152602001604051809103902060003373ffffffffffffffffffffffffffffffffffffffff1673ffffffffffffffffffffffffffffffffffffffff16815260200190815260200160002060006101000a81548160ff0219169083151502179055507f7b7acf540aac5e16ce3dfbd4d106c203a301da603c18502d179f60282962e5c48585888460405161180d9493929190613792565b60405180910390a1505050505050565b60606000600180549050905060006001805490509050600a82111561184157600a91505b60008267ffffffffffffffff81111561185d5761185c61286f565b5b60405190808252806020026020018201604052801561189057816020015b606081526020019060019003908161187b5790505b509050600060018054905011156119b257600083836118af91906137ec565b90505b828110156119b057600181815481106118ce576118cd612ef5565b5b90600052602060002090600a020160000180546118ea9061384f565b80601f01602080910402602001604051908101604052809291908181526020018280546119169061384f565b80156119635780601f1061193857610100808354040283529160200191611963565b820191906000526020600020905b81548152906001019060200180831161194657829003601f168201915b5050505050828260018661197791906137ec565b61198191906137ec565b8151811061199257611991612ef5565b5b602002602001018190525080806119a890613880565b9150506118b2565b505b80935050505090565b60008083836040516119ce929190612edc565b9081526020016040518091039020549050600181815481106119f3576119f2612ef5565b5b90600052602060002090600a020160040160405180606001604052808681526020013373ffffffffffffffffffffffffffffffffffffffff168152602001600260009054906101000a900473ffffffffffffffffffffffffffffffffffffffff1673ffffffffffffffffffffffffffffffffffffffff1662fdd58e3360008989604051611a81929190612edc565b9081526020016040518091039020546040518363ffffffff1660e01b8152600401611aad9291906130fd565b602060405180830381865afa158015611aca573d6000803e3d6000fd5b505050506040513d601f19601f82011682018060405250810190611aee9190613152565b81525090806001815401808255809150506001900390600052602060002090600302016000909190919091506000820151816000019080519060200190611b36929190612447565b5060208201518160010160006101000a81548173ffffffffffffffffffffffffffffffffffffffff021916908373ffffffffffffffffffffffffffffffffffffffff16021790555060408201518160020155505050505050565b600082828080601f016020809104026020016040519081016040528093929190818152602001838380828437600081840152601f19601f8201169050808301925050505050505060008082604051611be89190612de1565b9081526020016040518091039020549050600260009054906101000a900473ffffffffffffffffffffffffffffffffffffffff1673ffffffffffffffffffffffffffffffffffffffff16634f558e79826040518263ffffffff1660e01b8152600401611c54919061284f565b602060405180830381865afa158015611c71573d6000803e3d6000fd5b505050506040513d601f19601f82011682018060405250810190611c959190612e0d565b611cd4576040517f08c379a0000000000000000000000000000000000000000000000000000000008152600401611ccb90612e97565b60405180910390fd5b600260009054906101000a900473ffffffffffffffffffffffffffffffffffffffff1673ffffffffffffffffffffffffffffffffffffffff1663bd85b03960008787604051611d24929190612edc565b9081526020016040518091039020546040518263ffffffff1660e01b8152600401611d4f919061284f565b602060405180830381865afa158015611d6c573d6000803e3d6000fd5b505050506040513d601f19601f82011682018060405250810190611d909190613152565b9250505092915050565b600084848080601f016020809104026020016040519081016040528093929190818152602001838380828437600081840152601f19601f8201169050808301925050505050505060008082604051611df29190612de1565b9081526020016040518091039020549050600260009054906101000a900473ffffffffffffffffffffffffffffffffffffffff1673ffffffffffffffffffffffffffffffffffffffff16634f558e79826040518263ffffffff1660e01b8152600401611e5e919061284f565b602060405180830381865afa158015611e7b573d6000803e3d6000fd5b505050506040513d601f19601f82011682018060405250810190611e9f9190612e0d565b611ede576040517f08c379a0000000000000000000000000000000000000000000000000000000008152600401611ed590612e97565b60405180910390fd5b6000808888604051611ef1929190612edc565b908152602001604051809103902054905060018181548110611f1657611f15612ef5565b5b90600052602060002090600a020160010173__ChangesLibrary________________________631ecd7085909188886040518463ffffffff1660e01b8152600401611f63939291906138f5565b602060405180830381865af4158015611f80573d6000803e3d6000fd5b505050506040513d601f19601f82011682018060405250810190611fa49190613927565b9350505050949350505050565b82828080601f016020809104026020016040519081016040528093929190818152602001838380828437600081840152601f19601f82011690508083019250505050505050600080826040516120079190612de1565b9081526020016040518091039020549050600260009054906101000a900473ffffffffffffffffffffffffffffffffffffffff1673ffffffffffffffffffffffffffffffffffffffff16634f558e79826040518263ffffffff1660e01b8152600401612073919061284f565b602060405180830381865afa158015612090573d6000803e3d6000fd5b505050506040513d601f19601f820116820180604052508101906120b49190612e0d565b6120f3576040517f08c379a00000000000000000000000000000000000000000000000000000000081526004016120ea90612e97565b60405180910390fd5b6000808686604051612106929190612edc565b90815260200160405180910390205490506001818154811061212b5761212a612ef5565b5b90600052602060002090600a020160010173__ChangesLibrary________________________637cbb44f99091866040518363ffffffff1660e01b8152600401612176929190613377565b60006040518083038186803b15801561218e57600080fd5b505af41580156121a2573d6000803e3d6000fd5b505050507f718a982b61bc723a0c68281b0eb10e1cff37bd89888841ae545c98cd5493a0568487876040516121d9939291906139a0565b60405180910390a1505050505050565b81818080601f016020809104026020016040519081016040528093929190818152602001838380828437600081840152601f19601f820116905080830192505050505050506000808260405161223f9190612de1565b9081526020016040518091039020549050600260009054906101000a900473ffffffffffffffffffffffffffffffffffffffff1673ffffffffffffffffffffffffffffffffffffffff16634f558e79826040518263ffffffff1660e01b81526004016122ab919061284f565b602060405180830381865afa1580156122c8573d6000803e3d6000fd5b505050506040513d601f19601f820116820180604052508101906122ec9190612e0d565b61232b576040517f08c379a000000000000000000000000000000000000000000000000000000000815260040161232290612e97565b60405180910390fd5b600080858560405161233e929190612edc565b90815260200160405180910390205490506001818154811061236357612362612ef5565b5b90600052602060002090600a020160010173__ChangesLibrary________________________636b6b15cc9091886040518363ffffffff1660e01b81526004016123ae929190613377565b60006040518083038186803b1580156123c657600080fd5b505af41580156123da573d6000803e3d6000fd5b505050507fa59a33e81abf86b25a561f609013d867f28b3c0cbc2cdf98e852b0c0c041eb6c85858860405161241193929190613a5e565b60405180910390a1505050505050565b600260009054906101000a900473ffffffffffffffffffffffffffffffffffffffff1681565b8280546124539061384f565b90600052602060002090601f01602090048101928261247557600085556124bc565b82601f1061248e57805160ff19168380011785556124bc565b828001600101855582156124bc579182015b828111156124bb5782518255916020019190600101906124a0565b5b5090506124c991906124cd565b5090565b5b808211156124e65760008160009055506001016124ce565b5090565b6000604051905090565b600080fd5b600080fd5b600080fd5b600080fd5b600080fd5b60008083601f840112612523576125226124fe565b5b8235905067ffffffffffffffff8111156125405761253f612503565b5b60208301915083600182028301111561255c5761255b612508565b5b9250929050565b60008115159050919050565b61257881612563565b811461258357600080fd5b50565b6000813590506125958161256f565b92915050565b6000806000604084860312156125b4576125b36124f4565b5b600084013567ffffffffffffffff8111156125d2576125d16124f9565b5b6125de8682870161250d565b935093505060206125f186828701612586565b9150509250925092565b600081519050919050565b600082825260208201905092915050565b6000819050602082019050919050565b600081519050919050565b600082825260208201905092915050565b60005b83811015612661578082015181840152602081019050612646565b83811115612670576000848401525b50505050565b6000601f19601f8301169050919050565b600061269282612627565b61269c8185612632565b93506126ac818560208601612643565b6126b581612676565b840191505092915050565b60006126cc8383612687565b905092915050565b6000602082019050919050565b60006126ec826125fb565b6126f68185612606565b93508360208202850161270885612617565b8060005b85811015612744578484038952815161272585826126c0565b9450612730836126d4565b925060208a0199505060018101905061270c565b50829750879550505050505092915050565b6000602082019050818103600083015261277081846126e1565b905092915050565b600073ffffffffffffffffffffffffffffffffffffffff82169050919050565b60006127a382612778565b9050919050565b6127b381612798565b81146127be57600080fd5b50565b6000813590506127d0816127aa565b92915050565b6000806000604084860312156127ef576127ee6124f4565b5b60006127fd868287016127c1565b935050602084013567ffffffffffffffff81111561281e5761281d6124f9565b5b61282a8682870161250d565b92509250509250925092565b6000819050919050565b61284981612836565b82525050565b60006020820190506128646000830184612840565b92915050565b600080fd5b7f4e487b7100000000000000000000000000000000000000000000000000000000600052604160045260246000fd5b6128a782612676565b810181811067ffffffffffffffff821117156128c6576128c561286f565b5b80604052505050565b60006128d96124ea565b90506128e5828261289e565b919050565b600067ffffffffffffffff8211156129055761290461286f565b5b61290e82612676565b9050602081019050919050565b82818337600083830152505050565b600061293d612938846128ea565b6128cf565b9050828152602081018484840111156129595761295861286a565b5b61296484828561291b565b509392505050565b600082601f830112612981576129806124fe565b5b813561299184826020860161292a565b91505092915050565b6000602082840312156129b0576129af6124f4565b5b600082013567ffffffffffffffff8111156129ce576129cd6124f9565b5b6129da8482850161296c565b91505092915050565b600080602083850312156129fa576129f96124f4565b5b600083013567ffffffffffffffff811115612a1857612a176124f9565b5b612a248582860161250d565b92509250509250929050565b600081519050919050565b600082825260208201905092915050565b6000819050602082019050919050565b612a6581612798565b82525050565b6000612a778383612a5c565b60208301905092915050565b6000602082019050919050565b6000612a9b82612a30565b612aa58185612a3b565b9350612ab083612a4c565b8060005b83811015612ae1578151612ac88882612a6b565b9750612ad383612a83565b925050600181019050612ab4565b5085935050505092915050565b60006020820190508181036000830152612b088184612a90565b905092915050565b60008060408385031215612b2757612b266124f4565b5b600083013567ffffffffffffffff811115612b4557612b446124f9565b5b612b518582860161296c565b925050602083013567ffffffffffffffff811115612b7257612b716124f9565b5b612b7e8582860161296c565b9150509250929050565b600080600060408486031215612ba157612ba06124f4565b5b600084013567ffffffffffffffff811115612bbf57612bbe6124f9565b5b612bcb8682870161296c565b935050602084013567ffffffffffffffff811115612bec57612beb6124f9565b5b612bf88682870161250d565b92509250509250925092565b60008060008060408587031215612c1e57612c1d6124f4565b5b600085013567ffffffffffffffff811115612c3c57612c3b6124f9565b5b612c488782880161250d565b9450945050602085013567ffffffffffffffff811115612c6b57612c6a6124f9565b5b612c778782880161250d565b925092505092959194509250565b612c8e81612798565b82525050565b6000602082019050612ca96000830184612c85565b92915050565b600080600060408486031215612cc857612cc76124f4565b5b600084013567ffffffffffffffff811115612ce657612ce56124f9565b5b612cf28682870161250d565b9350935050602084013567ffffffffffffffff811115612d1557612d146124f9565b5b612d218682870161296c565b9150509250925092565b6000819050919050565b6000612d50612d4b612d4684612778565b612d2b565b612778565b9050919050565b6000612d6282612d35565b9050919050565b6000612d7482612d57565b9050919050565b612d8481612d69565b82525050565b6000602082019050612d9f6000830184612d7b565b92915050565b600081905092915050565b6000612dbb82612627565b612dc58185612da5565b9350612dd5818560208601612643565b80840191505092915050565b6000612ded8284612db0565b915081905092915050565b600081519050612e078161256f565b92915050565b600060208284031215612e2357612e226124f4565b5b6000612e3184828501612df8565b91505092915050565b600082825260208201905092915050565b7f50726f6a65637420646f206e6f74206578697374000000000000000000000000600082015250565b6000612e81601483612e3a565b9150612e8c82612e4b565b602082019050919050565b60006020820190508181036000830152612eb081612e74565b9050919050565b6000612ec38385612da5565b9350612ed083858461291b565b82840190509392505050565b6000612ee9828486612eb7565b91508190509392505050565b7f4e487b7100000000000000000000000000000000000000000000000000000000600052603260045260246000fd5b8082525050565b612f3481612563565b82525050565b6000604082019050612f4f6000830185612f24565b612f5c6020830184612f2b565b9392505050565b600067ffffffffffffffff821115612f7e57612f7d61286f565b5b602082029050602081019050919050565b6000612fa2612f9d846128ea565b6128cf565b905082815260208101848484011115612fbe57612fbd61286a565b5b612fc9848285612643565b509392505050565b600082601f830112612fe657612fe56124fe565b5b8151612ff6848260208601612f8f565b91505092915050565b600061301261300d84612f63565b6128cf565b9050808382526020820190506020840283018581111561303557613034612508565b5b835b8181101561307c57805167ffffffffffffffff81111561305a576130596124fe565b5b8086016130678982612fd1565b85526020850194505050602081019050613037565b5050509392505050565b600082601f83011261309b5761309a6124fe565b5b81516130ab848260208601612fff565b91505092915050565b6000602082840312156130ca576130c96124f4565b5b600082015167ffffffffffffffff8111156130e8576130e76124f9565b5b6130f484828501613086565b91505092915050565b60006040820190506131126000830185612c85565b61311f6020830184612840565b9392505050565b61312f81612836565b811461313a57600080fd5b50565b60008151905061314c81613126565b92915050565b600060208284031215613168576131676124f4565b5b60006131768482850161313d565b91505092915050565b60006020820190506131946000830184612f24565b92915050565b600067ffffffffffffffff8211156131b5576131b461286f565b5b602082029050602081019050919050565b6000815190506131d5816127aa565b92915050565b60006131ee6131e98461319a565b6128cf565b9050808382526020820190506020840283018581111561321157613210612508565b5b835b8181101561323a578061322688826131c6565b845260208401935050602081019050613213565b5050509392505050565b600082601f830112613259576132586124fe565b5b81516132698482602086016131db565b91505092915050565b600060208284031215613288576132876124f4565b5b600082015167ffffffffffffffff8111156132a6576132a56124f9565b5b6132b284828501613244565b91505092915050565b6000819050919050565b60006132e06132db6132d6846132bb565b612d2b565b612836565b9050919050565b6132f0816132c5565b82525050565b600060608201905061330b6000830186612c85565b6133186020830185612840565b61332560408301846132e7565b949350505050565b600082825260208201905092915050565b600061334982612627565b613353818561332d565b9350613363818560208601612643565b61336c81612676565b840191505092915050565b600060408201905061338c6000830185612f24565b818103602083015261339e818461333e565b90509392505050565b7f4e487b7100000000000000000000000000000000000000000000000000000000600052601160045260246000fd5b60006133e182612836565b91506133ec83612836565b9250827fffffffffffffffffffffffffffffffffffffffffffffffffffffffffffffffff03821115613421576134206133a7565b5b828201905092915050565b7f4e65772070726f6a656374206372656174656420776974682049443a00000000600082015250565b6000613462601c83612e3a565b915061346d8261342c565b602082019050919050565b600061348382612627565b61348d8185612e3a565b935061349d818560208601612643565b6134a681612676565b840191505092915050565b600060608201905081810360008301526134ca81613455565b905081810360208301526134de8185613478565b90506134ed6040830184612840565b9392505050565b7f416c726561647920766f74656400000000000000000000000000000000000000600082015250565b600061352a600d83612e3a565b9150613535826134f4565b602082019050919050565b600060208201905081810360008301526135598161351d565b9050919050565b7f566f74696e6720706f77657220697320696e73756666696369656e7400000000600082015250565b6000613596601c83612e3a565b91506135a182613560565b602082019050919050565b600060208201905081810360008301526135c581613589565b9050919050565b6135d581612836565b82525050565b60006060820190506135f06000830186612f24565b8181036020830152613602818561333e565b905061361160408301846135cc565b949350505050565b7f4e657720766f746520666f72206368616e67652070726f706f73616c3a000000600082015250565b600061364f601d83612e3a565b915061365a82613619565b602082019050919050565b60006136718385612e3a565b935061367e83858461291b565b61368783612676565b840190509392505050565b600060a08201905081810360008301526136ab81613642565b905081810360208301526136c0818789613665565b905081810360408301526136d48186613478565b90506136e36060830185612c85565b6136f06080830184612840565b9695505050505050565b7f4e6577206368616e67652070726f706f73616c20746f207468652050726f6a6560008201527f6374207769746820746865206e616d6520616e6420666f6c6c6f77696e67204960208201527f4420616e64204349443a00000000000000000000000000000000000000000000604082015250565b600061377c604a83612e3a565b9150613787826136fa565b606082019050919050565b600060808201905081810360008301526137ab8161376f565b905081810360208301526137c0818688613665565b905081810360408301526137d48185613478565b90506137e36060830184612840565b95945050505050565b60006137f782612836565b915061380283612836565b925082821015613815576138146133a7565b5b828203905092915050565b7f4e487b7100000000000000000000000000000000000000000000000000000000600052602260045260246000fd5b6000600282049050600182168061386757607f821691505b60208210810361387a57613879613820565b5b50919050565b600061388b82612836565b91507fffffffffffffffffffffffffffffffffffffffffffffffffffffffffffffffff82036138bd576138bc6133a7565b5b600182019050919050565b60006138d4838561332d565b93506138e183858461291b565b6138ea83612676565b840190509392505050565b600060408201905061390a6000830186612f24565b818103602083015261391d8184866138c8565b9050949350505050565b60006020828403121561393d5761393c6124f4565b5b600061394b848285016131c6565b91505092915050565b7f50726f6a656374206368616e67656420746f206368616e67653a200000000000600082015250565b600061398a601b83612e3a565b915061399582613954565b602082019050919050565b600060608201905081810360008301526139b98161397d565b905081810360208301526139cd8186613478565b905081810360408301526139e2818486613665565b9050949350505050565b7f41206e6577206368616e676520686173206265656e206d61646520746f20746860008201527f652070726f6a6563743a20000000000000000000000000000000000000000000602082015250565b6000613a48602b83612e3a565b9150613a53826139ec565b604082019050919050565b60006060820190508181036000830152613a7781613a3b565b90508181036020830152613a8c818587613665565b90508181036040830152613aa08184613478565b905094935050505056fea2646970667358221220e88b1887cfba29fcc273a0b4b6393c17f8a6df99a842356a27a3459a176ba4f764736f6c634300080d0033",
  "immutableReferences": {},
  "source": "// SPDX-License-Identifier: MIT\npragma solidity ^0.8.13;\n\nimport \"../node_modules/@openzeppelin/contracts/utils/Counters.sol\";\nimport \"./Changes.sol\";\nimport \"./ProjectsToken.sol\";\n\n\ncontract Projects {\n    // initiate all the data structures and constants saved on the smart contract\n    uint public constant TimeLockInterval = 4 minutes;\n    uint public constant ClaimingInterval = 2 minutes;\n\n    using Counters for Counters.Counter;\n    using ChangesLibrary for ChangesLibrary.ChangesStorage;\n\n    \n    // -------------------------------------------------------- Mappings\n    mapping(string => uint) public NameToID;    \n\n    // -------------------------------------------------------- Structs\n\n    struct goBack {\n        string changeCID;\n        address goBackMaker;\n        uint votes;\n    }\n\n    struct Project {\n        string name;\n        ChangesLibrary.ChangesStorage changes;\n        goBack[] goBackProposals;\n\n        // time lock\n        uint DistributionTime;\n\n        // distribution\n        uint newTokens;\n        mapping(address => uint) pendingTokens;\n        mapping(address => mapping(uint => uint)) TokensSpent; // user => time => tokens spent\n\n        // - ChangeCID => Voter address => Voted?\n        mapping(string => mapping(address => bool)) Voted;\n\n    }\n\n\n    // -------------------------------------------------------- Lists\n    Project[] publicProjects;\n\n    // -------------------------------------------------------- Token\n    ProjectsToken public token;\n\n    // -------------------------------------------------------- Events\n    event NewProjectCreated(string message, string name, uint value);\n    event NewChangeProposalCreated(string message, string Name, string CID, uint indexValue);\n    event NewVoteForChangeProposal(string message, string projectName, string changeProposalCID, address voter, uint votes);\n    event NewChangeIsMadeToProject(string message, string projectName, string changeCID); // Message, Project CID, Message, ChangeCID\n    event ProjectWentBack(string message, string changeCID, string ProjectName);\n    event TokensDisributed(string message, uint lastDistributionTime);\n\n    // -------------------------------------------------------- Modifiers\n    modifier ProjectExist(string memory _Name) {\n        uint idx = NameToID[_Name];\n        require(token.exists(idx), \"Project do not exist\");\n        _;\n    }\n\n\n    // -------------------------------------------------------- Constructor\n    constructor(address tokenAddress) {\n        token = ProjectsToken(tokenAddress);\n    } \n\n    // -------------------------------------------------------- Functions\n\n    // the function create a new project with an inital change\n    function createProject(string memory _CID, string memory projectName) public {\n        uint newProjectID = publicProjects.length;\n        NameToID[projectName] = newProjectID;\n        token.mint(msg.sender, newProjectID, 100);\n        \n        Project storage newProject = publicProjects.push();\n        newProject.name = projectName;\n        newProject.changes.initialize(_CID);\n        newProject.newTokens = 100;\n        newProject.DistributionTime = block.timestamp + TimeLockInterval; \n\n        emit NewProjectCreated(\"New project created with ID:\", projectName, newProjectID);\n    }\n\n\n    // the functions create a change proposal\n    function MakeChangeProposal(\n        string memory _changeCID, \n        string calldata _projectName\n    ) ProjectExist(_projectName) external {\n        uint projectIDX = NameToID[_projectName];\n        publicProjects[projectIDX].changes.createChangeProposal(_changeCID, token.balanceOf(msg.sender, NameToID[_projectName]));\n        publicProjects[projectIDX].Voted[_changeCID][msg.sender] = true;\n        emit NewChangeProposalCreated(\"New change proposal to the Project with the name and following ID and CID:\", _projectName, _changeCID, projectIDX);\n    }\n\n\n    // the functions make a go back proposal\n    function MakeGoBackProposal(\n        string memory _changeCID, \n        string calldata _projectName\n    ) external {\n        uint projectID = NameToID[_projectName];\n        publicProjects[projectID].goBackProposals.push(goBack(_changeCID, msg.sender, token.balanceOf(msg.sender, NameToID[_projectName])));\n    }\n\n\n    // the function make a go Back \n    function acceptGoBack(\n        string calldata _projectName, \n        string memory _changeCID\n    ) ProjectExist(_projectName) external {\n        uint projectIDX = NameToID[_projectName];\n        publicProjects[projectIDX].changes.goBack(_changeCID);\n        \n        emit ProjectWentBack(\"Project changed to change: \", _changeCID, _projectName);\n    }\n\n\n    // the functions accept a change proposal and add it to the list\n    function acceptChangeProposal(\n        string memory _proposedChangeCID, \n        string calldata _projectName\n    ) ProjectExist(_projectName) external {\n        uint projectID = NameToID[_projectName];\n        publicProjects[projectID].changes.acceptChangeProposal(_proposedChangeCID);\n        emit NewChangeIsMadeToProject(\"A new change has been made to the project: \", _projectName, _proposedChangeCID);\n    }\n\n\n    // the function allow user to vote in favor of a change proposal\n    function voteForChangeProposal(\n        string memory _changeProposalCID, \n        string calldata _projectName\n    ) ProjectExist(_projectName) external {\n        uint projectID = NameToID[_projectName];\n\n        require(publicProjects[projectID].Voted[_changeProposalCID][msg.sender] == false, \"Already voted\");\n\n        uint votingPower = token.balanceOf(msg.sender, projectID);\n        \n        if (votingPower <= 0) {\n            revert(\"Voting power is insufficient\");\n        }\n\n        publicProjects[projectID].changes.voteForChangeProposal(_changeProposalCID, votingPower);\n        publicProjects[projectID].Voted[_changeProposalCID][msg.sender] = true;\n        \n        emit NewVoteForChangeProposal(\n            \"New vote for change proposal:\",\n            _projectName,\n            _changeProposalCID,\n            msg.sender,\n            publicProjects[projectID].changes.getChangeProposalVotes(_changeProposalCID)\n        );\n    }\n\n\n    function getBalance(\n        address _UserAddress,\n        string calldata _projectName\n    ) ProjectExist(_projectName) external view returns (uint) {\n        return token.balanceOf(_UserAddress, NameToID[_projectName]);\n    }\n\n\n    function getTotalTokens(\n        string calldata _projectName\n    ) ProjectExist(_projectName) external view returns (uint) {\n        return token.totalSupply(NameToID[_projectName]);\n    }\n\n\n    // the functions returns the changes/change proposals\n    function getChangesOrProposals(\n        string calldata _projectName, \n        bool changesOrChangeProposals\n    ) ProjectExist(_projectName) external view returns (string[] memory) {\n        uint projectID = NameToID[_projectName];\n        return publicProjects[projectID].changes.getChangesOrChangeProposals(changesOrChangeProposals); // true for changes and false for change proposals\n    }\n\n\n    function getAddresses(\n        string calldata _projectName\n    ) ProjectExist(_projectName) external view returns (address[] memory) {\n        uint projectID = NameToID[_projectName];\n        return publicProjects[projectID].changes.getAddresses(); // true for changes and false for change proposals\n    }\n\n\n    function getChangeMaker(\n        string calldata _projectName,\n        string calldata change\n    ) ProjectExist(_projectName) external view returns (address) {\n        uint projectID = NameToID[_projectName];\n        return publicProjects[projectID].changes.getChangeMaker(change);\n    }\n\n\n    // TEMP\n    function getLastProjects() external view returns (string[] memory) {\n        uint arr_length = publicProjects.length;\n        uint arr_index = publicProjects.length;\n        if (arr_length > 10) {\n            arr_length = 10;\n        }\n\n        string[] memory lastProjects = new string[](arr_length);\n        if (publicProjects.length > 0) {\n        for (uint256 i = arr_index - arr_length; i < arr_index; i++) {\n            lastProjects[arr_index - 1 - i] = publicProjects[i].name; \n        }}\n        return lastProjects;\n    }\n\n\n    function getLastDistriubtionTime(string calldata projectName) external view ProjectExist(projectName) returns (uint)  {\n        uint projectID = NameToID[projectName];\n        return publicProjects[projectID].DistributionTime;\n    }\n\n\n    function getPendingTokens(address usr, string calldata projectName) ProjectExist(projectName) external view returns (uint) {\n        uint projectID = NameToID[projectName];\n        return publicProjects[projectID].pendingTokens[usr];\n    }\n}\n",
  "sourcePath": "c:\\Users\\User\\Desktop\\\\davidson\\project\\DavidsonProject\\Smart Contract\\contracts\\Projects.sol",
  "compiler": {
    "name": "solc",
    "version": "0.8.13+commit.abaa5c0e.Emscripten.clang"
  },
  "schemaVersion": "3.4.7",
  "updatedAt": "2024-04-17T11:58:39.172Z",
  "networkType": "ethereum",
  "devdoc": {
    "kind": "dev",
    "methods": {},
    "version": 1
  },
  "userdoc": {
    "kind": "user",
    "methods": {},
    "version": 1
  }
}