{
  "contractName": "Projects",
  "abi": [
    {
      "inputs": [
        {
          "internalType": "address",
          "name": "tokenAddress",
          "type": "address"
        }
      ],
      "stateMutability": "nonpayable",
      "type": "constructor"
    },
    {
      "anonymous": false,
      "inputs": [
        {
          "indexed": false,
          "internalType": "string",
          "name": "message",
          "type": "string"
        },
        {
          "indexed": false,
          "internalType": "string",
          "name": "projectName",
          "type": "string"
        },
        {
          "indexed": false,
          "internalType": "string",
          "name": "changeCID",
          "type": "string"
        }
      ],
      "name": "NewChangeIsMadeToProject",
      "type": "event"
    },
    {
      "anonymous": false,
      "inputs": [
        {
          "indexed": false,
          "internalType": "string",
          "name": "message",
          "type": "string"
        },
        {
          "indexed": false,
          "internalType": "string",
          "name": "Name",
          "type": "string"
        },
        {
          "indexed": false,
          "internalType": "string",
          "name": "CID",
          "type": "string"
        },
        {
          "indexed": false,
          "internalType": "uint256",
          "name": "indexValue",
          "type": "uint256"
        }
      ],
      "name": "NewChangeProposalCreated",
      "type": "event"
    },
    {
      "anonymous": false,
      "inputs": [
        {
          "indexed": false,
          "internalType": "string",
          "name": "message",
          "type": "string"
        },
        {
          "indexed": false,
          "internalType": "string",
          "name": "name",
          "type": "string"
        },
        {
          "indexed": false,
          "internalType": "uint256",
          "name": "value",
          "type": "uint256"
        }
      ],
      "name": "NewProjectCreated",
      "type": "event"
    },
    {
      "anonymous": false,
      "inputs": [
        {
          "indexed": false,
          "internalType": "string",
          "name": "message",
          "type": "string"
        },
        {
          "indexed": false,
          "internalType": "string",
          "name": "projectName",
          "type": "string"
        },
        {
          "indexed": false,
          "internalType": "string",
          "name": "changeProposalCID",
          "type": "string"
        },
        {
          "indexed": false,
          "internalType": "address",
          "name": "voter",
          "type": "address"
        },
        {
          "indexed": false,
          "internalType": "uint256",
          "name": "votes",
          "type": "uint256"
        }
      ],
      "name": "NewVoteForChangeProposal",
      "type": "event"
    },
    {
      "anonymous": false,
      "inputs": [
        {
          "indexed": false,
          "internalType": "string",
          "name": "message",
          "type": "string"
        },
        {
          "indexed": false,
          "internalType": "string",
          "name": "changeCID",
          "type": "string"
        },
        {
          "indexed": false,
          "internalType": "string",
          "name": "ProjectName",
          "type": "string"
        }
      ],
      "name": "ProjectWentBack",
      "type": "event"
    },
    {
      "anonymous": false,
      "inputs": [
        {
          "indexed": false,
          "internalType": "string",
          "name": "message",
          "type": "string"
        },
        {
          "indexed": false,
          "internalType": "uint256",
          "name": "lastDistributionTime",
          "type": "uint256"
        }
      ],
      "name": "TokensDisributed",
      "type": "event"
    },
    {
      "inputs": [
        {
          "internalType": "string",
          "name": "",
          "type": "string"
        }
      ],
      "name": "NameToID",
      "outputs": [
        {
          "internalType": "uint256",
          "name": "",
          "type": "uint256"
        }
      ],
      "stateMutability": "view",
      "type": "function",
      "constant": true
    },
    {
      "inputs": [],
      "name": "TimeLockInterval",
      "outputs": [
        {
          "internalType": "uint256",
          "name": "",
          "type": "uint256"
        }
      ],
      "stateMutability": "view",
      "type": "function",
      "constant": true
    },
    {
      "inputs": [],
      "name": "token",
      "outputs": [
        {
          "internalType": "contract ProjectsToken",
          "name": "",
          "type": "address"
        }
      ],
      "stateMutability": "view",
      "type": "function",
      "constant": true
    },
    {
      "inputs": [
        {
          "internalType": "string",
          "name": "_CID",
          "type": "string"
        },
        {
          "internalType": "string",
          "name": "projectName",
          "type": "string"
        }
      ],
      "name": "createProject",
      "outputs": [],
      "stateMutability": "nonpayable",
      "type": "function"
    },
    {
      "inputs": [
        {
          "internalType": "string",
          "name": "_changeCID",
          "type": "string"
        },
        {
          "internalType": "string",
          "name": "_projectName",
          "type": "string"
        }
      ],
      "name": "MakeChangeProposal",
      "outputs": [],
      "stateMutability": "nonpayable",
      "type": "function"
    },
    {
      "inputs": [
        {
          "internalType": "string",
          "name": "_changeCID",
          "type": "string"
        },
        {
          "internalType": "string",
          "name": "_projectName",
          "type": "string"
        }
      ],
      "name": "MakeGoBackProposal",
      "outputs": [],
      "stateMutability": "nonpayable",
      "type": "function"
    },
    {
      "inputs": [
        {
          "internalType": "string",
          "name": "_projectName",
          "type": "string"
        },
        {
          "internalType": "string",
          "name": "_changeCID",
          "type": "string"
        }
      ],
      "name": "acceptGoBack",
      "outputs": [],
      "stateMutability": "nonpayable",
      "type": "function"
    },
    {
      "inputs": [
        {
          "internalType": "string",
          "name": "_proposedChangeCID",
          "type": "string"
        },
        {
          "internalType": "string",
          "name": "_projectName",
          "type": "string"
        }
      ],
      "name": "acceptChangeProposal",
      "outputs": [],
      "stateMutability": "nonpayable",
      "type": "function"
    },
    {
      "inputs": [
        {
          "internalType": "string",
          "name": "_projectName",
          "type": "string"
        },
        {
          "internalType": "address",
          "name": "_UserAddress",
          "type": "address"
        }
      ],
      "name": "getBalance",
      "outputs": [
        {
          "internalType": "uint256",
          "name": "",
          "type": "uint256"
        }
      ],
      "stateMutability": "view",
      "type": "function",
      "constant": true
    },
    {
      "inputs": [
        {
          "internalType": "string",
          "name": "_changeProposalCID",
          "type": "string"
        },
        {
          "internalType": "string",
          "name": "_projectName",
          "type": "string"
        }
      ],
      "name": "voteForChangeProposal",
      "outputs": [],
      "stateMutability": "nonpayable",
      "type": "function"
    },
    {
      "inputs": [
        {
          "internalType": "string",
          "name": "_projectName",
          "type": "string"
        },
        {
          "internalType": "bool",
          "name": "changesOrChangeProposals",
          "type": "bool"
        }
      ],
      "name": "getChangesOrProposals",
      "outputs": [
        {
          "internalType": "string[]",
          "name": "",
          "type": "string[]"
        }
      ],
      "stateMutability": "view",
      "type": "function",
      "constant": true
    },
    {
      "inputs": [],
      "name": "getLastProjects",
      "outputs": [
        {
          "internalType": "string[]",
          "name": "",
          "type": "string[]"
        }
      ],
      "stateMutability": "view",
      "type": "function",
      "constant": true
    }
  ],
  "bytecode": "0x60a060405262278d006080908152503480156200001b57600080fd5b5060405162002d2738038062002d278339818101604052810190620000419190620000f3565b80600260006101000a81548173ffffffffffffffffffffffffffffffffffffffff021916908373ffffffffffffffffffffffffffffffffffffffff1602179055505062000125565b600080fd5b600073ffffffffffffffffffffffffffffffffffffffff82169050919050565b6000620000bb826200008e565b9050919050565b620000cd81620000ae565b8114620000d957600080fd5b50565b600081519050620000ed81620000c2565b92915050565b6000602082840312156200010c576200010b62000089565b5b60006200011c84828501620000dc565b91505092915050565b608051612be6620001416000396000610b6f0152612be66000f3fe608060405234801561001057600080fd5b50600436106100b45760003560e01c80638d1446fc116100715780638d1446fc1461019f578063a54d804d146101bb578063a5635963146101d9578063c4687fb8146101f5578063ed0c2d9014610211578063fc0c546a1461022d576100b4565b80631d7147d8146100b957806333846eba146100e95780636bd0620414610119578063750354d2146101355780637a5945da1461015157806389f4b3171461016f575b600080fd5b6100d360048036038101906100ce9190611a88565b61024b565b6040516100e09190611c43565b60405180910390f35b61010360048036038101906100fe9190611d95565b610464565b6040516101109190611df7565b60405180910390f35b610133600480360381019061012e9190611e12565b610492565b005b61014f600480360381019061014a9190611e8a565b610643565b005b610159610b6d565b6040516101669190611df7565b60405180910390f35b61018960048036038101906101849190611f64565b610b91565b6040516101969190611df7565b60405180910390f35b6101b960048036038101906101b49190611e8a565b610d9d565b005b6101c361112b565b6040516101d09190611c43565b60405180910390f35b6101f360048036038101906101ee9190611e8a565b6112c9565b005b61020f600480360381019061020a9190611fc4565b61149e565b005b61022b60048036038101906102269190611e8a565b6116d6565b005b61023561190e565b604051610242919061209f565b60405180910390f35b606083838080601f016020809104026020016040519081016040528093929190818152602001838380828437600081840152601f19601f82011690508083019250505050505050600080826040516102a391906120f6565b9081526020016040518091039020549050600260009054906101000a900473ffffffffffffffffffffffffffffffffffffffff1673ffffffffffffffffffffffffffffffffffffffff16634f558e79826040518263ffffffff1660e01b815260040161030f9190611df7565b602060405180830381865afa15801561032c573d6000803e3d6000fd5b505050506040513d601f19601f820116820180604052508101906103509190612122565b61038f576040517f08c379a0000000000000000000000000000000000000000000000000000000008152600401610386906121ac565b60405180910390fd5b60008087876040516103a29291906121f1565b9081526020016040518091039020549050600181815481106103c7576103c661220a565b5b906000526020600020906009020160010173__ChangesLibrary________________________63e3e26be89091876040518363ffffffff1660e01b815260040161041292919061224f565b600060405180830381865af415801561042f573d6000803e3d6000fd5b505050506040513d6000823e3d601f19601f8201168201806040525081019061045891906123c9565b93505050509392505050565b6000818051602081018201805184825260208301602085012081835280955050505050506000915090505481565b60006001805490509050806000836040516104ad91906120f6565b908152602001604051809103902081905550600260009054906101000a900473ffffffffffffffffffffffffffffffffffffffff1673ffffffffffffffffffffffffffffffffffffffff1663156e29f63383600a6040518463ffffffff1660e01b815260040161051f9392919061245c565b600060405180830381600087803b15801561053957600080fd5b505af115801561054d573d6000803e3d6000fd5b5050505060006001808160018154018082558091505003906000526020600020906009020190508281600001908051906020019061058c929190611934565b508060010173__ChangesLibrary________________________63aaff905a9091866040518363ffffffff1660e01b81526004016105cb9291906124dd565b60006040518083038186803b1580156105e357600080fd5b505af41580156105f7573d6000803e3d6000fd5b505050504281600501819055507fe224389b386caecb8e3b38edc39361c7227e3ef820a8276bc31ac9cf1ba69fcd8383604051610635929190612592565b60405180910390a150505050565b81818080601f016020809104026020016040519081016040528093929190818152602001838380828437600081840152601f19601f820116905080830192505050505050506000808260405161069991906120f6565b9081526020016040518091039020549050600260009054906101000a900473ffffffffffffffffffffffffffffffffffffffff1673ffffffffffffffffffffffffffffffffffffffff16634f558e79826040518263ffffffff1660e01b81526004016107059190611df7565b602060405180830381865afa158015610722573d6000803e3d6000fd5b505050506040513d601f19601f820116820180604052508101906107469190612122565b610785576040517f08c379a000000000000000000000000000000000000000000000000000000000815260040161077c906121ac565b60405180910390fd5b60008085856040516107989291906121f1565b908152602001604051809103902054905060001515600182815481106107c1576107c061220a565b5b9060005260206000209060090201600801876040516107e091906120f6565b908152602001604051809103902060003373ffffffffffffffffffffffffffffffffffffffff1673ffffffffffffffffffffffffffffffffffffffff16815260200190815260200160002060009054906101000a900460ff1615151461087b576040517f08c379a000000000000000000000000000000000000000000000000000000000815260040161087290612621565b60405180910390fd5b6000600260009054906101000a900473ffffffffffffffffffffffffffffffffffffffff1673ffffffffffffffffffffffffffffffffffffffff1662fdd58e33846040518363ffffffff1660e01b81526004016108d9929190612641565b602060405180830381865afa1580156108f6573d6000803e3d6000fd5b505050506040513d601f19601f8201168201806040525081019061091a9190612696565b90506000811161095f576040517f08c379a00000000000000000000000000000000000000000000000000000000081526004016109569061270f565b60405180910390fd5b600182815481106109735761097261220a565b5b906000526020600020906009020160010173__ChangesLibrary________________________637dba11cb909189846040518463ffffffff1660e01b81526004016109c09392919061273e565b60006040518083038186803b1580156109d857600080fd5b505af41580156109ec573d6000803e3d6000fd5b505050506001808381548110610a0557610a0461220a565b5b906000526020600020906009020160080188604051610a2491906120f6565b908152602001604051809103902060003373ffffffffffffffffffffffffffffffffffffffff1673ffffffffffffffffffffffffffffffffffffffff16815260200190815260200160002060006101000a81548160ff0219169083151502179055507f0defd832aa647eb845ac2ed5e414ba9da1d13d7c3b2028fea20853913891174d8686893360018781548110610abf57610abe61220a565b5b906000526020600020906009020160010173__ChangesLibrary________________________63ca5451d290918e6040518363ffffffff1660e01b8152600401610b0a9291906124dd565b602060405180830381865af4158015610b27573d6000803e3d6000fd5b505050506040513d601f19601f82011682018060405250810190610b4b9190612696565b604051610b5c9594939291906127f5565b60405180910390a150505050505050565b7f000000000000000000000000000000000000000000000000000000000000000081565b600083838080601f016020809104026020016040519081016040528093929190818152602001838380828437600081840152601f19601f8201169050808301925050505050505060008082604051610be991906120f6565b9081526020016040518091039020549050600260009054906101000a900473ffffffffffffffffffffffffffffffffffffffff1673ffffffffffffffffffffffffffffffffffffffff16634f558e79826040518263ffffffff1660e01b8152600401610c559190611df7565b602060405180830381865afa158015610c72573d6000803e3d6000fd5b505050506040513d601f19601f82011682018060405250810190610c969190612122565b610cd5576040517f08c379a0000000000000000000000000000000000000000000000000000000008152600401610ccc906121ac565b60405180910390fd5b600260009054906101000a900473ffffffffffffffffffffffffffffffffffffffff1673ffffffffffffffffffffffffffffffffffffffff1662fdd58e8560008989604051610d259291906121f1565b9081526020016040518091039020546040518363ffffffff1660e01b8152600401610d51929190612641565b602060405180830381865afa158015610d6e573d6000803e3d6000fd5b505050506040513d601f19601f82011682018060405250810190610d929190612696565b925050509392505050565b81818080601f016020809104026020016040519081016040528093929190818152602001838380828437600081840152601f19601f8201169050808301925050505050505060008082604051610df391906120f6565b9081526020016040518091039020549050600260009054906101000a900473ffffffffffffffffffffffffffffffffffffffff1673ffffffffffffffffffffffffffffffffffffffff16634f558e79826040518263ffffffff1660e01b8152600401610e5f9190611df7565b602060405180830381865afa158015610e7c573d6000803e3d6000fd5b505050506040513d601f19601f82011682018060405250810190610ea09190612122565b610edf576040517f08c379a0000000000000000000000000000000000000000000000000000000008152600401610ed6906121ac565b60405180910390fd5b6000808585604051610ef29291906121f1565b908152602001604051809103902054905060018181548110610f1757610f1661220a565b5b906000526020600020906009020160010173__ChangesLibrary________________________636de060a8909188600260009054906101000a900473ffffffffffffffffffffffffffffffffffffffff1673ffffffffffffffffffffffffffffffffffffffff1662fdd58e3360008c8c604051610f959291906121f1565b9081526020016040518091039020546040518363ffffffff1660e01b8152600401610fc1929190612641565b602060405180830381865afa158015610fde573d6000803e3d6000fd5b505050506040513d601f19601f820116820180604052508101906110029190612696565b6040518463ffffffff1660e01b81526004016110209392919061273e565b60006040518083038186803b15801561103857600080fd5b505af415801561104c573d6000803e3d6000fd5b5050505060018082815481106110655761106461220a565b5b90600052602060002090600902016008018760405161108491906120f6565b908152602001604051809103902060003373ffffffffffffffffffffffffffffffffffffffff1673ffffffffffffffffffffffffffffffffffffffff16815260200190815260200160002060006101000a81548160ff0219169083151502179055507f7b7acf540aac5e16ce3dfbd4d106c203a301da603c18502d179f60282962e5c48585888460405161111b94939291906128f5565b60405180910390a1505050505050565b60606000600180549050905060006001805490509050600a82111561114f57600a91505b60008267ffffffffffffffff81111561116b5761116a611c6a565b5b60405190808252806020026020018201604052801561119e57816020015b60608152602001906001900390816111895790505b509050600060018054905011156112c057600083836111bd919061297e565b90505b828110156112be57600181815481106111dc576111db61220a565b5b906000526020600020906009020160000180546111f8906129e1565b80601f0160208091040260200160405190810160405280929190818152602001828054611224906129e1565b80156112715780601f1061124657610100808354040283529160200191611271565b820191906000526020600020905b81548152906001019060200180831161125457829003601f168201915b50505050508282600186611285919061297e565b61128f919061297e565b815181106112a05761129f61220a565b5b602002602001018190525080806112b690612a12565b9150506111c0565b505b80935050505090565b60008083836040516112dc9291906121f1565b9081526020016040518091039020549050600181815481106113015761130061220a565b5b906000526020600020906009020160040160405180606001604052808681526020013373ffffffffffffffffffffffffffffffffffffffff168152602001600260009054906101000a900473ffffffffffffffffffffffffffffffffffffffff1673ffffffffffffffffffffffffffffffffffffffff1662fdd58e336000898960405161138f9291906121f1565b9081526020016040518091039020546040518363ffffffff1660e01b81526004016113bb929190612641565b602060405180830381865afa1580156113d8573d6000803e3d6000fd5b505050506040513d601f19601f820116820180604052508101906113fc9190612696565b81525090806001815401808255809150506001900390600052602060002090600302016000909190919091506000820151816000019080519060200190611444929190611934565b5060208201518160010160006101000a81548173ffffffffffffffffffffffffffffffffffffffff021916908373ffffffffffffffffffffffffffffffffffffffff16021790555060408201518160020155505050505050565b82828080601f016020809104026020016040519081016040528093929190818152602001838380828437600081840152601f19601f82011690508083019250505050505050600080826040516114f491906120f6565b9081526020016040518091039020549050600260009054906101000a900473ffffffffffffffffffffffffffffffffffffffff1673ffffffffffffffffffffffffffffffffffffffff16634f558e79826040518263ffffffff1660e01b81526004016115609190611df7565b602060405180830381865afa15801561157d573d6000803e3d6000fd5b505050506040513d601f19601f820116820180604052508101906115a19190612122565b6115e0576040517f08c379a00000000000000000000000000000000000000000000000000000000081526004016115d7906121ac565b60405180910390fd5b60008086866040516115f39291906121f1565b9081526020016040518091039020549050600181815481106116185761161761220a565b5b906000526020600020906009020160010173__ChangesLibrary________________________637cbb44f99091866040518363ffffffff1660e01b81526004016116639291906124dd565b60006040518083038186803b15801561167b57600080fd5b505af415801561168f573d6000803e3d6000fd5b505050507f718a982b61bc723a0c68281b0eb10e1cff37bd89888841ae545c98cd5493a0568487876040516116c693929190612aa6565b60405180910390a1505050505050565b81818080601f016020809104026020016040519081016040528093929190818152602001838380828437600081840152601f19601f820116905080830192505050505050506000808260405161172c91906120f6565b9081526020016040518091039020549050600260009054906101000a900473ffffffffffffffffffffffffffffffffffffffff1673ffffffffffffffffffffffffffffffffffffffff16634f558e79826040518263ffffffff1660e01b81526004016117989190611df7565b602060405180830381865afa1580156117b5573d6000803e3d6000fd5b505050506040513d601f19601f820116820180604052508101906117d99190612122565b611818576040517f08c379a000000000000000000000000000000000000000000000000000000000815260040161180f906121ac565b60405180910390fd5b600080858560405161182b9291906121f1565b9081526020016040518091039020549050600181815481106118505761184f61220a565b5b906000526020600020906009020160010173__ChangesLibrary________________________636b6b15cc9091886040518363ffffffff1660e01b815260040161189b9291906124dd565b60006040518083038186803b1580156118b357600080fd5b505af41580156118c7573d6000803e3d6000fd5b505050507fa59a33e81abf86b25a561f609013d867f28b3c0cbc2cdf98e852b0c0c041eb6c8585886040516118fe93929190612b64565b60405180910390a1505050505050565b600260009054906101000a900473ffffffffffffffffffffffffffffffffffffffff1681565b828054611940906129e1565b90600052602060002090601f01602090048101928261196257600085556119a9565b82601f1061197b57805160ff19168380011785556119a9565b828001600101855582156119a9579182015b828111156119a857825182559160200191906001019061198d565b5b5090506119b691906119ba565b5090565b5b808211156119d35760008160009055506001016119bb565b5090565b6000604051905090565b600080fd5b600080fd5b600080fd5b600080fd5b600080fd5b60008083601f840112611a1057611a0f6119eb565b5b8235905067ffffffffffffffff811115611a2d57611a2c6119f0565b5b602083019150836001820283011115611a4957611a486119f5565b5b9250929050565b60008115159050919050565b611a6581611a50565b8114611a7057600080fd5b50565b600081359050611a8281611a5c565b92915050565b600080600060408486031215611aa157611aa06119e1565b5b600084013567ffffffffffffffff811115611abf57611abe6119e6565b5b611acb868287016119fa565b93509350506020611ade86828701611a73565b9150509250925092565b600081519050919050565b600082825260208201905092915050565b6000819050602082019050919050565b600081519050919050565b600082825260208201905092915050565b60005b83811015611b4e578082015181840152602081019050611b33565b83811115611b5d576000848401525b50505050565b6000601f19601f8301169050919050565b6000611b7f82611b14565b611b898185611b1f565b9350611b99818560208601611b30565b611ba281611b63565b840191505092915050565b6000611bb98383611b74565b905092915050565b6000602082019050919050565b6000611bd982611ae8565b611be38185611af3565b935083602082028501611bf585611b04565b8060005b85811015611c315784840389528151611c128582611bad565b9450611c1d83611bc1565b925060208a01995050600181019050611bf9565b50829750879550505050505092915050565b60006020820190508181036000830152611c5d8184611bce565b905092915050565b600080fd5b7f4e487b7100000000000000000000000000000000000000000000000000000000600052604160045260246000fd5b611ca282611b63565b810181811067ffffffffffffffff82111715611cc157611cc0611c6a565b5b80604052505050565b6000611cd46119d7565b9050611ce08282611c99565b919050565b600067ffffffffffffffff821115611d0057611cff611c6a565b5b611d0982611b63565b9050602081019050919050565b82818337600083830152505050565b6000611d38611d3384611ce5565b611cca565b905082815260208101848484011115611d5457611d53611c65565b5b611d5f848285611d16565b509392505050565b600082601f830112611d7c57611d7b6119eb565b5b8135611d8c848260208601611d25565b91505092915050565b600060208284031215611dab57611daa6119e1565b5b600082013567ffffffffffffffff811115611dc957611dc86119e6565b5b611dd584828501611d67565b91505092915050565b6000819050919050565b611df181611dde565b82525050565b6000602082019050611e0c6000830184611de8565b92915050565b60008060408385031215611e2957611e286119e1565b5b600083013567ffffffffffffffff811115611e4757611e466119e6565b5b611e5385828601611d67565b925050602083013567ffffffffffffffff811115611e7457611e736119e6565b5b611e8085828601611d67565b9150509250929050565b600080600060408486031215611ea357611ea26119e1565b5b600084013567ffffffffffffffff811115611ec157611ec06119e6565b5b611ecd86828701611d67565b935050602084013567ffffffffffffffff811115611eee57611eed6119e6565b5b611efa868287016119fa565b92509250509250925092565b600073ffffffffffffffffffffffffffffffffffffffff82169050919050565b6000611f3182611f06565b9050919050565b611f4181611f26565b8114611f4c57600080fd5b50565b600081359050611f5e81611f38565b92915050565b600080600060408486031215611f7d57611f7c6119e1565b5b600084013567ffffffffffffffff811115611f9b57611f9a6119e6565b5b611fa7868287016119fa565b93509350506020611fba86828701611f4f565b9150509250925092565b600080600060408486031215611fdd57611fdc6119e1565b5b600084013567ffffffffffffffff811115611ffb57611ffa6119e6565b5b612007868287016119fa565b9350935050602084013567ffffffffffffffff81111561202a576120296119e6565b5b61203686828701611d67565b9150509250925092565b6000819050919050565b600061206561206061205b84611f06565b612040565b611f06565b9050919050565b60006120778261204a565b9050919050565b60006120898261206c565b9050919050565b6120998161207e565b82525050565b60006020820190506120b46000830184612090565b92915050565b600081905092915050565b60006120d082611b14565b6120da81856120ba565b93506120ea818560208601611b30565b80840191505092915050565b600061210282846120c5565b915081905092915050565b60008151905061211c81611a5c565b92915050565b600060208284031215612138576121376119e1565b5b60006121468482850161210d565b91505092915050565b600082825260208201905092915050565b7f50726f6a65637420646f206e6f74206578697374000000000000000000000000600082015250565b600061219660148361214f565b91506121a182612160565b602082019050919050565b600060208201905081810360008301526121c581612189565b9050919050565b60006121d883856120ba565b93506121e5838584611d16565b82840190509392505050565b60006121fe8284866121cc565b91508190509392505050565b7f4e487b7100000000000000000000000000000000000000000000000000000000600052603260045260246000fd5b8082525050565b61224981611a50565b82525050565b60006040820190506122646000830185612239565b6122716020830184612240565b9392505050565b600067ffffffffffffffff82111561229357612292611c6a565b5b602082029050602081019050919050565b60006122b76122b284611ce5565b611cca565b9050828152602081018484840111156122d3576122d2611c65565b5b6122de848285611b30565b509392505050565b600082601f8301126122fb576122fa6119eb565b5b815161230b8482602086016122a4565b91505092915050565b600061232761232284612278565b611cca565b9050808382526020820190506020840283018581111561234a576123496119f5565b5b835b8181101561239157805167ffffffffffffffff81111561236f5761236e6119eb565b5b80860161237c89826122e6565b8552602085019450505060208101905061234c565b5050509392505050565b600082601f8301126123b0576123af6119eb565b5b81516123c0848260208601612314565b91505092915050565b6000602082840312156123df576123de6119e1565b5b600082015167ffffffffffffffff8111156123fd576123fc6119e6565b5b6124098482850161239b565b91505092915050565b61241b81611f26565b82525050565b6000819050919050565b600061244661244161243c84612421565b612040565b611dde565b9050919050565b6124568161242b565b82525050565b60006060820190506124716000830186612412565b61247e6020830185611de8565b61248b604083018461244d565b949350505050565b600082825260208201905092915050565b60006124af82611b14565b6124b98185612493565b93506124c9818560208601611b30565b6124d281611b63565b840191505092915050565b60006040820190506124f26000830185612239565b818103602083015261250481846124a4565b90509392505050565b7f4e65772070726f6a656374206372656174656420776974682049443a00000000600082015250565b6000612543601c8361214f565b915061254e8261250d565b602082019050919050565b600061256482611b14565b61256e818561214f565b935061257e818560208601611b30565b61258781611b63565b840191505092915050565b600060608201905081810360008301526125ab81612536565b905081810360208301526125bf8185612559565b90506125ce6040830184611de8565b9392505050565b7f416c726561647920766f74656400000000000000000000000000000000000000600082015250565b600061260b600d8361214f565b9150612616826125d5565b602082019050919050565b6000602082019050818103600083015261263a816125fe565b9050919050565b60006040820190506126566000830185612412565b6126636020830184611de8565b9392505050565b61267381611dde565b811461267e57600080fd5b50565b6000815190506126908161266a565b92915050565b6000602082840312156126ac576126ab6119e1565b5b60006126ba84828501612681565b91505092915050565b7f566f74696e6720706f77657220697320696e73756666696369656e7400000000600082015250565b60006126f9601c8361214f565b9150612704826126c3565b602082019050919050565b60006020820190508181036000830152612728816126ec565b9050919050565b61273881611dde565b82525050565b60006060820190506127536000830186612239565b818103602083015261276581856124a4565b9050612774604083018461272f565b949350505050565b7f4e657720766f746520666f72206368616e67652070726f706f73616c3a000000600082015250565b60006127b2601d8361214f565b91506127bd8261277c565b602082019050919050565b60006127d4838561214f565b93506127e1838584611d16565b6127ea83611b63565b840190509392505050565b600060a082019050818103600083015261280e816127a5565b905081810360208301526128238187896127c8565b905081810360408301526128378186612559565b90506128466060830185612412565b6128536080830184611de8565b9695505050505050565b7f4e6577206368616e67652070726f706f73616c20746f207468652050726f6a6560008201527f6374207769746820746865206e616d6520616e6420666f6c6c6f77696e67204960208201527f4420616e64204349443a00000000000000000000000000000000000000000000604082015250565b60006128df604a8361214f565b91506128ea8261285d565b606082019050919050565b6000608082019050818103600083015261290e816128d2565b905081810360208301526129238186886127c8565b905081810360408301526129378185612559565b90506129466060830184611de8565b95945050505050565b7f4e487b7100000000000000000000000000000000000000000000000000000000600052601160045260246000fd5b600061298982611dde565b915061299483611dde565b9250828210156129a7576129a661294f565b5b828203905092915050565b7f4e487b7100000000000000000000000000000000000000000000000000000000600052602260045260246000fd5b600060028204905060018216806129f957607f821691505b602082108103612a0c57612a0b6129b2565b5b50919050565b6000612a1d82611dde565b91507fffffffffffffffffffffffffffffffffffffffffffffffffffffffffffffffff8203612a4f57612a4e61294f565b5b600182019050919050565b7f50726f6a656374206368616e67656420746f206368616e67653a200000000000600082015250565b6000612a90601b8361214f565b9150612a9b82612a5a565b602082019050919050565b60006060820190508181036000830152612abf81612a83565b90508181036020830152612ad38186612559565b90508181036040830152612ae88184866127c8565b9050949350505050565b7f41206e6577206368616e676520686173206265656e206d61646520746f20746860008201527f652070726f6a6563743a20000000000000000000000000000000000000000000602082015250565b6000612b4e602b8361214f565b9150612b5982612af2565b604082019050919050565b60006060820190508181036000830152612b7d81612b41565b90508181036020830152612b928185876127c8565b90508181036040830152612ba68184612559565b905094935050505056fea2646970667358221220aa3007767da838362263501330ad5589a2974297e3bc6ed04494bb538a23f2ff64736f6c634300080d0033",
  "immutableReferences": {
    "405": [
      {
        "length": 32,
        "start": 2927
      }
    ]
  },
  "source": "// SPDX-License-Identifier: MIT\npragma solidity ^0.8.2;\n\nimport \"../node_modules/@openzeppelin/contracts/utils/Counters.sol\";\nimport \"./Changes.sol\";\nimport \"./ProjectsToken.sol\";\n\n\ncontract Projects {\n    // initiate all the data structures and constants saved on the smart contract\n    uint public immutable TimeLockInterval = 30 days;\n    using Counters for Counters.Counter;\n    using ChangesLibrary for ChangesLibrary.ChangesStorage;\n\n    \n    // -------------------------------------------------------- Mappings\n    mapping(string => uint) public NameToID;    \n\n    // -------------------------------------------------------- Structs\n\n    struct goBack {\n        string changeCID;\n        address goBackMaker;\n        uint votes;\n    }\n\n    struct Project {\n        string name;\n        ChangesLibrary.ChangesStorage changes;\n        goBack[] goBackProposals;\n\n        // time lock\n        uint lastDistributionTime;\n\n        // distribution\n        mapping(address => uint) pendingTokens;\n        mapping(address => mapping(uint => uint)) TokensSpent; // user => time => tokens spent\n\n        // - ChangeCID => Voter address => Voted?\n        mapping(string => mapping(address => bool)) Voted;\n\n    }\n\n\n    // -------------------------------------------------------- Lists\n    Project[] publicProjects;\n\n    // -------------------------------------------------------- Token\n    ProjectsToken public token;\n\n    // -------------------------------------------------------- Events\n    event NewProjectCreated(string message, string name, uint value);\n    event NewChangeProposalCreated(string message, string Name, string CID, uint indexValue);\n    event NewVoteForChangeProposal(string message, string projectName, string changeProposalCID, address voter, uint votes);\n    event NewChangeIsMadeToProject(string message, string projectName, string changeCID); // Message, Project CID, Message, ChangeCID\n    event ProjectWentBack(string message, string changeCID, string ProjectName);\n    event TokensDisributed(string message, uint lastDistributionTime);\n\n    // -------------------------------------------------------- Modifiers\n    modifier ProjectExist(string memory _Name) {\n        uint idx = NameToID[_Name];\n        require(token.exists(idx), \"Project do not exist\");\n        _;\n    }\n\n\n    // -------------------------------------------------------- Constructor\n    constructor(address tokenAddress) {\n        token = ProjectsToken(tokenAddress);\n    } \n\n    // -------------------------------------------------------- Functions\n\n    // the function create a new project with an inital change\n    function createProject(string memory _CID, string memory projectName) public {\n        uint newProjectID = publicProjects.length;\n        NameToID[projectName] = newProjectID;\n        token.mint(msg.sender, newProjectID, 10);\n        \n        Project storage newProject = publicProjects.push();\n        newProject.name = projectName;\n        newProject.changes.initialize(_CID);\n        newProject.lastDistributionTime = block.timestamp;\n\n        emit NewProjectCreated(\"New project created with ID:\", projectName, newProjectID);\n    }\n\n    // the functions create a change proposal\n    function MakeChangeProposal(\n        string memory _changeCID, \n        string calldata _projectName\n    ) ProjectExist(_projectName) external {\n        uint projectIDX = NameToID[_projectName];\n        publicProjects[projectIDX].changes.createChangeProposal(_changeCID, token.balanceOf(msg.sender, NameToID[_projectName]));\n        publicProjects[projectIDX].Voted[_changeCID][msg.sender] = true;\n        emit NewChangeProposalCreated(\"New change proposal to the Project with the name and following ID and CID:\", _projectName, _changeCID, projectIDX);\n    }\n\n    // the functions make a go back proposal\n    function MakeGoBackProposal(\n        string memory _changeCID, \n        string calldata _projectName\n    ) external {\n        uint projectID = NameToID[_projectName];\n        publicProjects[projectID].goBackProposals.push(goBack(_changeCID, msg.sender, token.balanceOf(msg.sender, NameToID[_projectName])));\n    }\n\n    // the function make a go Back \n    function acceptGoBack(\n        string calldata _projectName, \n        string memory _changeCID\n    ) ProjectExist(_projectName) external {\n        uint projectIDX = NameToID[_projectName];\n        publicProjects[projectIDX].changes.goBack(_changeCID);\n        \n        emit ProjectWentBack(\"Project changed to change: \", _changeCID, _projectName);\n    }\n\n    // the functions accept a change proposal and add it to the list\n    function acceptChangeProposal(\n        string memory _proposedChangeCID, \n        string calldata _projectName\n    ) ProjectExist(_projectName) external {\n        uint projectID = NameToID[_projectName];\n        publicProjects[projectID].changes.acceptChangeProposal(_proposedChangeCID);\n        emit NewChangeIsMadeToProject(\"A new change has been made to the project: \", _projectName, _proposedChangeCID);\n    }\n\n    // the function returns the voting power of a user in a certain project\n    function getBalance(\n        string calldata _projectName, \n        address _UserAddress\n    ) ProjectExist(_projectName) external view returns (uint) {\n        return token.balanceOf(_UserAddress, NameToID[_projectName]);\n    }\n\n    // the function allow user to vote in favor of a change proposal\n    function voteForChangeProposal(\n        string memory _changeProposalCID, \n        string calldata _projectName\n    ) ProjectExist(_projectName) external {\n        uint projectID = NameToID[_projectName];\n\n        require(publicProjects[projectID].Voted[_changeProposalCID][msg.sender] == false, \"Already voted\");\n\n        uint votingPower = token.balanceOf(msg.sender, projectID);\n        \n        if (votingPower <= 0) {\n            revert(\"Voting power is insufficient\");\n        }\n\n        publicProjects[projectID].changes.voteForChangeProposal(_changeProposalCID, votingPower);\n        publicProjects[projectID].Voted[_changeProposalCID][msg.sender] = true;\n        \n        emit NewVoteForChangeProposal(\n            \"New vote for change proposal:\",\n            _projectName,\n            _changeProposalCID,\n            msg.sender,\n            publicProjects[projectID].changes.getChangeProposalVotes(_changeProposalCID)\n        );\n    }\n\n    // the functions returns the changes/change proposals\n    function getChangesOrProposals(\n        string calldata _projectName, \n        bool changesOrChangeProposals\n    ) ProjectExist(_projectName) external view returns (string[] memory) {\n        uint projectID = NameToID[_projectName];\n        return publicProjects[projectID].changes.getChangesOrChangeProposals(changesOrChangeProposals); // true for changes and false for change proposals\n    }\n\n    // TEMP\n    function getLastProjects() external view returns (string[] memory) {\n        uint arr_length = publicProjects.length;\n        uint arr_index = publicProjects.length;\n        if (arr_length > 10) {\n            arr_length = 10;\n        }\n\n        string[] memory lastProjects = new string[](arr_length);\n        if (publicProjects.length > 0) {\n        for (uint256 i = arr_index - arr_length; i < arr_index; i++) {\n            lastProjects[arr_index - 1 - i] = publicProjects[i].name; \n        }}\n        return lastProjects;\n    }\n\n\n\n}\n",
  "sourcePath": "c:\\Users\\User\\Desktop\\\\davidson\\project\\DavidsonProject\\Smart Contract\\contracts\\Projects.sol",
  "compiler": {
    "name": "solc",
    "version": "0.8.13+commit.abaa5c0e.Emscripten.clang"
  },
  "schemaVersion": "3.4.7",
  "updatedAt": "2024-03-06T15:44:12.065Z",
  "networkType": "ethereum",
  "devdoc": {
    "kind": "dev",
    "methods": {},
    "version": 1
  },
  "userdoc": {
    "kind": "user",
    "methods": {},
    "version": 1
  }
}