{
  "contractName": "ProjectsToken",
  "abi": [
    {
      "inputs": [],
      "stateMutability": "nonpayable",
      "type": "constructor"
    },
    {
      "anonymous": false,
      "inputs": [
        {
          "indexed": true,
          "internalType": "address",
          "name": "account",
          "type": "address"
        },
        {
          "indexed": true,
          "internalType": "address",
          "name": "operator",
          "type": "address"
        },
        {
          "indexed": false,
          "internalType": "bool",
          "name": "approved",
          "type": "bool"
        }
      ],
      "name": "ApprovalForAll",
      "type": "event"
    },
    {
      "anonymous": false,
      "inputs": [
        {
          "indexed": true,
          "internalType": "address",
          "name": "previousOwner",
          "type": "address"
        },
        {
          "indexed": true,
          "internalType": "address",
          "name": "newOwner",
          "type": "address"
        }
      ],
      "name": "OwnershipTransferred",
      "type": "event"
    },
    {
      "anonymous": false,
      "inputs": [
        {
          "indexed": true,
          "internalType": "address",
          "name": "operator",
          "type": "address"
        },
        {
          "indexed": true,
          "internalType": "address",
          "name": "from",
          "type": "address"
        },
        {
          "indexed": true,
          "internalType": "address",
          "name": "to",
          "type": "address"
        },
        {
          "indexed": false,
          "internalType": "uint256[]",
          "name": "ids",
          "type": "uint256[]"
        },
        {
          "indexed": false,
          "internalType": "uint256[]",
          "name": "values",
          "type": "uint256[]"
        }
      ],
      "name": "TransferBatch",
      "type": "event"
    },
    {
      "anonymous": false,
      "inputs": [
        {
          "indexed": true,
          "internalType": "address",
          "name": "operator",
          "type": "address"
        },
        {
          "indexed": true,
          "internalType": "address",
          "name": "from",
          "type": "address"
        },
        {
          "indexed": true,
          "internalType": "address",
          "name": "to",
          "type": "address"
        },
        {
          "indexed": false,
          "internalType": "uint256",
          "name": "id",
          "type": "uint256"
        },
        {
          "indexed": false,
          "internalType": "uint256",
          "name": "value",
          "type": "uint256"
        }
      ],
      "name": "TransferSingle",
      "type": "event"
    },
    {
      "anonymous": false,
      "inputs": [
        {
          "indexed": false,
          "internalType": "string",
          "name": "value",
          "type": "string"
        },
        {
          "indexed": true,
          "internalType": "uint256",
          "name": "id",
          "type": "uint256"
        }
      ],
      "name": "URI",
      "type": "event"
    },
    {
      "inputs": [
        {
          "internalType": "address",
          "name": "account",
          "type": "address"
        },
        {
          "internalType": "uint256",
          "name": "id",
          "type": "uint256"
        }
      ],
      "name": "balanceOf",
      "outputs": [
        {
          "internalType": "uint256",
          "name": "",
          "type": "uint256"
        }
      ],
      "stateMutability": "view",
      "type": "function",
      "constant": true
    },
    {
      "inputs": [
        {
          "internalType": "address[]",
          "name": "accounts",
          "type": "address[]"
        },
        {
          "internalType": "uint256[]",
          "name": "ids",
          "type": "uint256[]"
        }
      ],
      "name": "balanceOfBatch",
      "outputs": [
        {
          "internalType": "uint256[]",
          "name": "",
          "type": "uint256[]"
        }
      ],
      "stateMutability": "view",
      "type": "function",
      "constant": true
    },
    {
      "inputs": [
        {
          "internalType": "address",
          "name": "account",
          "type": "address"
        },
        {
          "internalType": "address",
          "name": "operator",
          "type": "address"
        }
      ],
      "name": "isApprovedForAll",
      "outputs": [
        {
          "internalType": "bool",
          "name": "",
          "type": "bool"
        }
      ],
      "stateMutability": "view",
      "type": "function",
      "constant": true
    },
    {
      "inputs": [],
      "name": "owner",
      "outputs": [
        {
          "internalType": "address",
          "name": "",
          "type": "address"
        }
      ],
      "stateMutability": "view",
      "type": "function",
      "constant": true
    },
    {
      "inputs": [],
      "name": "renounceOwnership",
      "outputs": [],
      "stateMutability": "nonpayable",
      "type": "function"
    },
    {
      "inputs": [
        {
          "internalType": "address",
          "name": "from",
          "type": "address"
        },
        {
          "internalType": "address",
          "name": "to",
          "type": "address"
        },
        {
          "internalType": "uint256[]",
          "name": "ids",
          "type": "uint256[]"
        },
        {
          "internalType": "uint256[]",
          "name": "amounts",
          "type": "uint256[]"
        },
        {
          "internalType": "bytes",
          "name": "data",
          "type": "bytes"
        }
      ],
      "name": "safeBatchTransferFrom",
      "outputs": [],
      "stateMutability": "nonpayable",
      "type": "function"
    },
    {
      "inputs": [
        {
          "internalType": "address",
          "name": "from",
          "type": "address"
        },
        {
          "internalType": "address",
          "name": "to",
          "type": "address"
        },
        {
          "internalType": "uint256",
          "name": "id",
          "type": "uint256"
        },
        {
          "internalType": "uint256",
          "name": "amount",
          "type": "uint256"
        },
        {
          "internalType": "bytes",
          "name": "data",
          "type": "bytes"
        }
      ],
      "name": "safeTransferFrom",
      "outputs": [],
      "stateMutability": "nonpayable",
      "type": "function"
    },
    {
      "inputs": [
        {
          "internalType": "address",
          "name": "operator",
          "type": "address"
        },
        {
          "internalType": "bool",
          "name": "approved",
          "type": "bool"
        }
      ],
      "name": "setApprovalForAll",
      "outputs": [],
      "stateMutability": "nonpayable",
      "type": "function"
    },
    {
      "inputs": [
        {
          "internalType": "bytes4",
          "name": "interfaceId",
          "type": "bytes4"
        }
      ],
      "name": "supportsInterface",
      "outputs": [
        {
          "internalType": "bool",
          "name": "",
          "type": "bool"
        }
      ],
      "stateMutability": "view",
      "type": "function",
      "constant": true
    },
    {
      "inputs": [
        {
          "internalType": "address",
          "name": "newOwner",
          "type": "address"
        }
      ],
      "name": "transferOwnership",
      "outputs": [],
      "stateMutability": "nonpayable",
      "type": "function"
    },
    {
      "inputs": [
        {
          "internalType": "uint256",
          "name": "",
          "type": "uint256"
        }
      ],
      "name": "uri",
      "outputs": [
        {
          "internalType": "string",
          "name": "",
          "type": "string"
        }
      ],
      "stateMutability": "view",
      "type": "function",
      "constant": true
    },
    {
      "inputs": [
        {
          "internalType": "address",
          "name": "account",
          "type": "address"
        },
        {
          "internalType": "uint256",
          "name": "id",
          "type": "uint256"
        },
        {
          "internalType": "uint256",
          "name": "amount",
          "type": "uint256"
        }
      ],
      "name": "mint",
      "outputs": [],
      "stateMutability": "nonpayable",
      "type": "function"
    }
  ],
  "bytecode": "0x60806040523480156200001157600080fd5b506040518060400160405280600381526020017f757269000000000000000000000000000000000000000000000000000000000081525062000059816200008060201b60201c565b506200007a6200006e6200009c60201b60201c565b620000a460201b60201c565b6200027e565b8060029080519060200190620000989291906200016a565b5050565b600033905090565b6000600360009054906101000a900473ffffffffffffffffffffffffffffffffffffffff16905081600360006101000a81548173ffffffffffffffffffffffffffffffffffffffff021916908373ffffffffffffffffffffffffffffffffffffffff1602179055508173ffffffffffffffffffffffffffffffffffffffff168173ffffffffffffffffffffffffffffffffffffffff167f8be0079c531659141344cd1fd0a4f28419497f9722a3daafe3b4186f6b6457e060405160405180910390a35050565b828054620001789062000249565b90600052602060002090601f0160209004810192826200019c5760008555620001e8565b82601f10620001b757805160ff1916838001178555620001e8565b82800160010185558215620001e8579182015b82811115620001e7578251825591602001919060010190620001ca565b5b509050620001f79190620001fb565b5090565b5b8082111562000216576000816000905550600101620001fc565b5090565b7f4e487b7100000000000000000000000000000000000000000000000000000000600052602260045260246000fd5b600060028204905060018216806200026257607f821691505b6020821081036200027857620002776200021a565b5b50919050565b612bb6806200028e6000396000f3fe608060405234801561001057600080fd5b50600436106100b35760003560e01c8063715018a611610071578063715018a6146101b05780638da5cb5b146101ba578063a22cb465146101d8578063e985e9c5146101f4578063f242432a14610224578063f2fde38b14610240576100b3565b8062fdd58e146100b857806301ffc9a7146100e85780630e89341c14610118578063156e29f6146101485780632eb2c2d6146101645780634e1273f414610180575b600080fd5b6100d260048036038101906100cd9190611819565b61025c565b6040516100df9190611868565b60405180910390f35b61010260048036038101906100fd91906118db565b610324565b60405161010f9190611923565b60405180910390f35b610132600480360381019061012d919061193e565b610406565b60405161013f9190611a04565b60405180910390f35b610162600480360381019061015d9190611a26565b61049a565b005b61017e60048036038101906101799190611c76565b6104c2565b005b61019a60048036038101906101959190611e08565b610563565b6040516101a79190611f3e565b60405180910390f35b6101b861067c565b005b6101c2610690565b6040516101cf9190611f6f565b60405180910390f35b6101f260048036038101906101ed9190611fb6565b6106ba565b005b61020e60048036038101906102099190611ff6565b6106d0565b60405161021b9190611923565b60405180910390f35b61023e60048036038101906102399190612036565b610764565b005b61025a600480360381019061025591906120cd565b610805565b005b60008073ffffffffffffffffffffffffffffffffffffffff168373ffffffffffffffffffffffffffffffffffffffff16036102cc576040517f08c379a00000000000000000000000000000000000000000000000000000000081526004016102c39061216c565b60405180910390fd5b60008083815260200190815260200160002060008473ffffffffffffffffffffffffffffffffffffffff1673ffffffffffffffffffffffffffffffffffffffff16815260200190815260200160002054905092915050565b60007fd9b67a26000000000000000000000000000000000000000000000000000000007bffffffffffffffffffffffffffffffffffffffffffffffffffffffff1916827bffffffffffffffffffffffffffffffffffffffffffffffffffffffff191614806103ef57507f0e89341c000000000000000000000000000000000000000000000000000000007bffffffffffffffffffffffffffffffffffffffffffffffffffffffff1916827bffffffffffffffffffffffffffffffffffffffffffffffffffffffff1916145b806103ff57506103fe82610888565b5b9050919050565b606060028054610415906121bb565b80601f0160208091040260200160405190810160405280929190818152602001828054610441906121bb565b801561048e5780601f106104635761010080835404028352916020019161048e565b820191906000526020600020905b81548152906001019060200180831161047157829003601f168201915b50505050509050919050565b6104a26108f2565b6104bd83838360405180602001604052806000815250610970565b505050565b6104ca610b20565b73ffffffffffffffffffffffffffffffffffffffff168573ffffffffffffffffffffffffffffffffffffffff161480610510575061050f8561050a610b20565b6106d0565b5b61054f576040517f08c379a00000000000000000000000000000000000000000000000000000000081526004016105469061225e565b60405180910390fd5b61055c8585858585610b28565b5050505050565b606081518351146105a9576040517f08c379a00000000000000000000000000000000000000000000000000000000081526004016105a0906122f0565b60405180910390fd5b6000835167ffffffffffffffff8111156105c6576105c5611a7e565b5b6040519080825280602002602001820160405280156105f45781602001602082028036833780820191505090505b50905060005b84518110156106715761064185828151811061061957610618612310565b5b602002602001015185838151811061063457610633612310565b5b602002602001015161025c565b82828151811061065457610653612310565b5b6020026020010181815250508061066a9061236e565b90506105fa565b508091505092915050565b6106846108f2565b61068e6000610e49565b565b6000600360009054906101000a900473ffffffffffffffffffffffffffffffffffffffff16905090565b6106cc6106c5610b20565b8383610f0f565b5050565b6000600160008473ffffffffffffffffffffffffffffffffffffffff1673ffffffffffffffffffffffffffffffffffffffff16815260200190815260200160002060008373ffffffffffffffffffffffffffffffffffffffff1673ffffffffffffffffffffffffffffffffffffffff16815260200190815260200160002060009054906101000a900460ff16905092915050565b61076c610b20565b73ffffffffffffffffffffffffffffffffffffffff168573ffffffffffffffffffffffffffffffffffffffff1614806107b257506107b1856107ac610b20565b6106d0565b5b6107f1576040517f08c379a00000000000000000000000000000000000000000000000000000000081526004016107e89061225e565b60405180910390fd5b6107fe858585858561107b565b5050505050565b61080d6108f2565b600073ffffffffffffffffffffffffffffffffffffffff168173ffffffffffffffffffffffffffffffffffffffff160361087c576040517f08c379a000000000000000000000000000000000000000000000000000000000815260040161087390612428565b60405180910390fd5b61088581610e49565b50565b60007f01ffc9a7000000000000000000000000000000000000000000000000000000007bffffffffffffffffffffffffffffffffffffffffffffffffffffffff1916827bffffffffffffffffffffffffffffffffffffffffffffffffffffffff1916149050919050565b6108fa610b20565b73ffffffffffffffffffffffffffffffffffffffff16610918610690565b73ffffffffffffffffffffffffffffffffffffffff161461096e576040517f08c379a000000000000000000000000000000000000000000000000000000000815260040161096590612494565b60405180910390fd5b565b600073ffffffffffffffffffffffffffffffffffffffff168473ffffffffffffffffffffffffffffffffffffffff16036109df576040517f08c379a00000000000000000000000000000000000000000000000000000000081526004016109d690612526565b60405180910390fd5b60006109e9610b20565b905060006109f685611316565b90506000610a0385611316565b9050610a1483600089858589611390565b8460008088815260200190815260200160002060008973ffffffffffffffffffffffffffffffffffffffff1673ffffffffffffffffffffffffffffffffffffffff1681526020019081526020016000206000828254610a739190612546565b925050819055508673ffffffffffffffffffffffffffffffffffffffff16600073ffffffffffffffffffffffffffffffffffffffff168473ffffffffffffffffffffffffffffffffffffffff167fc3d58168c5ae7397731d063d5bbf3d657854427343f4c083240f7aacaa2d0f628989604051610af192919061259c565b60405180910390a4610b0883600089858589611398565b610b17836000898989896113a0565b50505050505050565b600033905090565b8151835114610b6c576040517f08c379a0000000000000000000000000000000000000000000000000000000008152600401610b6390612637565b60405180910390fd5b600073ffffffffffffffffffffffffffffffffffffffff168473ffffffffffffffffffffffffffffffffffffffff1603610bdb576040517f08c379a0000000000000000000000000000000000000000000000000000000008152600401610bd2906126c9565b60405180910390fd5b6000610be5610b20565b9050610bf5818787878787611390565b60005b8451811015610da6576000858281518110610c1657610c15612310565b5b602002602001015190506000858381518110610c3557610c34612310565b5b60200260200101519050600080600084815260200190815260200160002060008b73ffffffffffffffffffffffffffffffffffffffff1673ffffffffffffffffffffffffffffffffffffffff16815260200190815260200160002054905081811015610cd6576040517f08c379a0000000000000000000000000000000000000000000000000000000008152600401610ccd9061275b565b60405180910390fd5b81810360008085815260200190815260200160002060008c73ffffffffffffffffffffffffffffffffffffffff1673ffffffffffffffffffffffffffffffffffffffff168152602001908152602001600020819055508160008085815260200190815260200160002060008b73ffffffffffffffffffffffffffffffffffffffff1673ffffffffffffffffffffffffffffffffffffffff1681526020019081526020016000206000828254610d8b9190612546565b9250508190555050505080610d9f9061236e565b9050610bf8565b508473ffffffffffffffffffffffffffffffffffffffff168673ffffffffffffffffffffffffffffffffffffffff168273ffffffffffffffffffffffffffffffffffffffff167f4a39dc06d4c0dbc64b70af90fd698a233a518aa5d07e595d983b8c0526c8f7fb8787604051610e1d92919061277b565b60405180910390a4610e33818787878787611398565b610e41818787878787611577565b505050505050565b6000600360009054906101000a900473ffffffffffffffffffffffffffffffffffffffff16905081600360006101000a81548173ffffffffffffffffffffffffffffffffffffffff021916908373ffffffffffffffffffffffffffffffffffffffff1602179055508173ffffffffffffffffffffffffffffffffffffffff168173ffffffffffffffffffffffffffffffffffffffff167f8be0079c531659141344cd1fd0a4f28419497f9722a3daafe3b4186f6b6457e060405160405180910390a35050565b8173ffffffffffffffffffffffffffffffffffffffff168373ffffffffffffffffffffffffffffffffffffffff1603610f7d576040517f08c379a0000000000000000000000000000000000000000000000000000000008152600401610f7490612824565b60405180910390fd5b80600160008573ffffffffffffffffffffffffffffffffffffffff1673ffffffffffffffffffffffffffffffffffffffff16815260200190815260200160002060008473ffffffffffffffffffffffffffffffffffffffff1673ffffffffffffffffffffffffffffffffffffffff16815260200190815260200160002060006101000a81548160ff0219169083151502179055508173ffffffffffffffffffffffffffffffffffffffff168373ffffffffffffffffffffffffffffffffffffffff167f17307eab39ab6107e8899845ad3d59bd9653f200f220920489ca2b5937696c318360405161106e9190611923565b60405180910390a3505050565b600073ffffffffffffffffffffffffffffffffffffffff168473ffffffffffffffffffffffffffffffffffffffff16036110ea576040517f08c379a00000000000000000000000000000000000000000000000000000000081526004016110e1906126c9565b60405180910390fd5b60006110f4610b20565b9050600061110185611316565b9050600061110e85611316565b905061111e838989858589611390565b600080600088815260200190815260200160002060008a73ffffffffffffffffffffffffffffffffffffffff1673ffffffffffffffffffffffffffffffffffffffff168152602001908152602001600020549050858110156111b5576040517f08c379a00000000000000000000000000000000000000000000000000000000081526004016111ac9061275b565b60405180910390fd5b85810360008089815260200190815260200160002060008b73ffffffffffffffffffffffffffffffffffffffff1673ffffffffffffffffffffffffffffffffffffffff168152602001908152602001600020819055508560008089815260200190815260200160002060008a73ffffffffffffffffffffffffffffffffffffffff1673ffffffffffffffffffffffffffffffffffffffff168152602001908152602001600020600082825461126a9190612546565b925050819055508773ffffffffffffffffffffffffffffffffffffffff168973ffffffffffffffffffffffffffffffffffffffff168573ffffffffffffffffffffffffffffffffffffffff167fc3d58168c5ae7397731d063d5bbf3d657854427343f4c083240f7aacaa2d0f628a8a6040516112e792919061259c565b60405180910390a46112fd848a8a86868a611398565b61130b848a8a8a8a8a6113a0565b505050505050505050565b60606000600167ffffffffffffffff81111561133557611334611a7e565b5b6040519080825280602002602001820160405280156113635781602001602082028036833780820191505090505b509050828160008151811061137b5761137a612310565b5b60200260200101818152505080915050919050565b505050505050565b505050505050565b6113bf8473ffffffffffffffffffffffffffffffffffffffff1661174e565b1561156f578373ffffffffffffffffffffffffffffffffffffffff1663f23a6e6187878686866040518663ffffffff1660e01b8152600401611405959493929190612899565b6020604051808303816000875af192505050801561144157506040513d601f19601f8201168201806040525081019061143e9190612908565b60015b6114e65761144d612942565b806308c379a0036114a95750611461612964565b8061146c57506114ab565b806040517f08c379a00000000000000000000000000000000000000000000000000000000081526004016114a09190611a04565b60405180910390fd5b505b6040517f08c379a00000000000000000000000000000000000000000000000000000000081526004016114dd90612a66565b60405180910390fd5b63f23a6e6160e01b7bffffffffffffffffffffffffffffffffffffffffffffffffffffffff1916817bffffffffffffffffffffffffffffffffffffffffffffffffffffffff19161461156d576040517f08c379a000000000000000000000000000000000000000000000000000000000815260040161156490612af8565b60405180910390fd5b505b505050505050565b6115968473ffffffffffffffffffffffffffffffffffffffff1661174e565b15611746578373ffffffffffffffffffffffffffffffffffffffff1663bc197c8187878686866040518663ffffffff1660e01b81526004016115dc959493929190612b18565b6020604051808303816000875af192505050801561161857506040513d601f19601f820116820180604052508101906116159190612908565b60015b6116bd57611624612942565b806308c379a0036116805750611638612964565b806116435750611682565b806040517f08c379a00000000000000000000000000000000000000000000000000000000081526004016116779190611a04565b60405180910390fd5b505b6040517f08c379a00000000000000000000000000000000000000000000000000000000081526004016116b490612a66565b60405180910390fd5b63bc197c8160e01b7bffffffffffffffffffffffffffffffffffffffffffffffffffffffff1916817bffffffffffffffffffffffffffffffffffffffffffffffffffffffff191614611744576040517f08c379a000000000000000000000000000000000000000000000000000000000815260040161173b90612af8565b60405180910390fd5b505b505050505050565b6000808273ffffffffffffffffffffffffffffffffffffffff163b119050919050565b6000604051905090565b600080fd5b600080fd5b600073ffffffffffffffffffffffffffffffffffffffff82169050919050565b60006117b082611785565b9050919050565b6117c0816117a5565b81146117cb57600080fd5b50565b6000813590506117dd816117b7565b92915050565b6000819050919050565b6117f6816117e3565b811461180157600080fd5b50565b600081359050611813816117ed565b92915050565b600080604083850312156118305761182f61177b565b5b600061183e858286016117ce565b925050602061184f85828601611804565b9150509250929050565b611862816117e3565b82525050565b600060208201905061187d6000830184611859565b92915050565b60007fffffffff0000000000000000000000000000000000000000000000000000000082169050919050565b6118b881611883565b81146118c357600080fd5b50565b6000813590506118d5816118af565b92915050565b6000602082840312156118f1576118f061177b565b5b60006118ff848285016118c6565b91505092915050565b60008115159050919050565b61191d81611908565b82525050565b60006020820190506119386000830184611914565b92915050565b6000602082840312156119545761195361177b565b5b600061196284828501611804565b91505092915050565b600081519050919050565b600082825260208201905092915050565b60005b838110156119a557808201518184015260208101905061198a565b838111156119b4576000848401525b50505050565b6000601f19601f8301169050919050565b60006119d68261196b565b6119e08185611976565b93506119f0818560208601611987565b6119f9816119ba565b840191505092915050565b60006020820190508181036000830152611a1e81846119cb565b905092915050565b600080600060608486031215611a3f57611a3e61177b565b5b6000611a4d868287016117ce565b9350506020611a5e86828701611804565b9250506040611a6f86828701611804565b9150509250925092565b600080fd5b7f4e487b7100000000000000000000000000000000000000000000000000000000600052604160045260246000fd5b611ab6826119ba565b810181811067ffffffffffffffff82111715611ad557611ad4611a7e565b5b80604052505050565b6000611ae8611771565b9050611af48282611aad565b919050565b600067ffffffffffffffff821115611b1457611b13611a7e565b5b602082029050602081019050919050565b600080fd5b6000611b3d611b3884611af9565b611ade565b90508083825260208201905060208402830185811115611b6057611b5f611b25565b5b835b81811015611b895780611b758882611804565b845260208401935050602081019050611b62565b5050509392505050565b600082601f830112611ba857611ba7611a79565b5b8135611bb8848260208601611b2a565b91505092915050565b600080fd5b600067ffffffffffffffff821115611be157611be0611a7e565b5b611bea826119ba565b9050602081019050919050565b82818337600083830152505050565b6000611c19611c1484611bc6565b611ade565b905082815260208101848484011115611c3557611c34611bc1565b5b611c40848285611bf7565b509392505050565b600082601f830112611c5d57611c5c611a79565b5b8135611c6d848260208601611c06565b91505092915050565b600080600080600060a08688031215611c9257611c9161177b565b5b6000611ca0888289016117ce565b9550506020611cb1888289016117ce565b945050604086013567ffffffffffffffff811115611cd257611cd1611780565b5b611cde88828901611b93565b935050606086013567ffffffffffffffff811115611cff57611cfe611780565b5b611d0b88828901611b93565b925050608086013567ffffffffffffffff811115611d2c57611d2b611780565b5b611d3888828901611c48565b9150509295509295909350565b600067ffffffffffffffff821115611d6057611d5f611a7e565b5b602082029050602081019050919050565b6000611d84611d7f84611d45565b611ade565b90508083825260208201905060208402830185811115611da757611da6611b25565b5b835b81811015611dd05780611dbc88826117ce565b845260208401935050602081019050611da9565b5050509392505050565b600082601f830112611def57611dee611a79565b5b8135611dff848260208601611d71565b91505092915050565b60008060408385031215611e1f57611e1e61177b565b5b600083013567ffffffffffffffff811115611e3d57611e3c611780565b5b611e4985828601611dda565b925050602083013567ffffffffffffffff811115611e6a57611e69611780565b5b611e7685828601611b93565b9150509250929050565b600081519050919050565b600082825260208201905092915050565b6000819050602082019050919050565b611eb5816117e3565b82525050565b6000611ec78383611eac565b60208301905092915050565b6000602082019050919050565b6000611eeb82611e80565b611ef58185611e8b565b9350611f0083611e9c565b8060005b83811015611f31578151611f188882611ebb565b9750611f2383611ed3565b925050600181019050611f04565b5085935050505092915050565b60006020820190508181036000830152611f588184611ee0565b905092915050565b611f69816117a5565b82525050565b6000602082019050611f846000830184611f60565b92915050565b611f9381611908565b8114611f9e57600080fd5b50565b600081359050611fb081611f8a565b92915050565b60008060408385031215611fcd57611fcc61177b565b5b6000611fdb858286016117ce565b9250506020611fec85828601611fa1565b9150509250929050565b6000806040838503121561200d5761200c61177b565b5b600061201b858286016117ce565b925050602061202c858286016117ce565b9150509250929050565b600080600080600060a086880312156120525761205161177b565b5b6000612060888289016117ce565b9550506020612071888289016117ce565b945050604061208288828901611804565b935050606061209388828901611804565b925050608086013567ffffffffffffffff8111156120b4576120b3611780565b5b6120c088828901611c48565b9150509295509295909350565b6000602082840312156120e3576120e261177b565b5b60006120f1848285016117ce565b91505092915050565b7f455243313135353a2061646472657373207a65726f206973206e6f742061207660008201527f616c6964206f776e657200000000000000000000000000000000000000000000602082015250565b6000612156602a83611976565b9150612161826120fa565b604082019050919050565b6000602082019050818103600083015261218581612149565b9050919050565b7f4e487b7100000000000000000000000000000000000000000000000000000000600052602260045260246000fd5b600060028204905060018216806121d357607f821691505b6020821081036121e6576121e561218c565b5b50919050565b7f455243313135353a2063616c6c6572206973206e6f7420746f6b656e206f776e60008201527f6572206f7220617070726f766564000000000000000000000000000000000000602082015250565b6000612248602e83611976565b9150612253826121ec565b604082019050919050565b600060208201905081810360008301526122778161223b565b9050919050565b7f455243313135353a206163636f756e747320616e6420696473206c656e67746860008201527f206d69736d617463680000000000000000000000000000000000000000000000602082015250565b60006122da602983611976565b91506122e58261227e565b604082019050919050565b60006020820190508181036000830152612309816122cd565b9050919050565b7f4e487b7100000000000000000000000000000000000000000000000000000000600052603260045260246000fd5b7f4e487b7100000000000000000000000000000000000000000000000000000000600052601160045260246000fd5b6000612379826117e3565b91507fffffffffffffffffffffffffffffffffffffffffffffffffffffffffffffffff82036123ab576123aa61233f565b5b600182019050919050565b7f4f776e61626c653a206e6577206f776e657220697320746865207a65726f206160008201527f6464726573730000000000000000000000000000000000000000000000000000602082015250565b6000612412602683611976565b915061241d826123b6565b604082019050919050565b6000602082019050818103600083015261244181612405565b9050919050565b7f4f776e61626c653a2063616c6c6572206973206e6f7420746865206f776e6572600082015250565b600061247e602083611976565b915061248982612448565b602082019050919050565b600060208201905081810360008301526124ad81612471565b9050919050565b7f455243313135353a206d696e7420746f20746865207a65726f2061646472657360008201527f7300000000000000000000000000000000000000000000000000000000000000602082015250565b6000612510602183611976565b915061251b826124b4565b604082019050919050565b6000602082019050818103600083015261253f81612503565b9050919050565b6000612551826117e3565b915061255c836117e3565b9250827fffffffffffffffffffffffffffffffffffffffffffffffffffffffffffffffff038211156125915761259061233f565b5b828201905092915050565b60006040820190506125b16000830185611859565b6125be6020830184611859565b9392505050565b7f455243313135353a2069647320616e6420616d6f756e7473206c656e6774682060008201527f6d69736d61746368000000000000000000000000000000000000000000000000602082015250565b6000612621602883611976565b915061262c826125c5565b604082019050919050565b6000602082019050818103600083015261265081612614565b9050919050565b7f455243313135353a207472616e7366657220746f20746865207a65726f20616460008201527f6472657373000000000000000000000000000000000000000000000000000000602082015250565b60006126b3602583611976565b91506126be82612657565b604082019050919050565b600060208201905081810360008301526126e2816126a6565b9050919050565b7f455243313135353a20696e73756666696369656e742062616c616e636520666f60008201527f72207472616e7366657200000000000000000000000000000000000000000000602082015250565b6000612745602a83611976565b9150612750826126e9565b604082019050919050565b6000602082019050818103600083015261277481612738565b9050919050565b600060408201905081810360008301526127958185611ee0565b905081810360208301526127a98184611ee0565b90509392505050565b7f455243313135353a2073657474696e6720617070726f76616c2073746174757360008201527f20666f722073656c660000000000000000000000000000000000000000000000602082015250565b600061280e602983611976565b9150612819826127b2565b604082019050919050565b6000602082019050818103600083015261283d81612801565b9050919050565b600081519050919050565b600082825260208201905092915050565b600061286b82612844565b612875818561284f565b9350612885818560208601611987565b61288e816119ba565b840191505092915050565b600060a0820190506128ae6000830188611f60565b6128bb6020830187611f60565b6128c86040830186611859565b6128d56060830185611859565b81810360808301526128e78184612860565b90509695505050505050565b600081519050612902816118af565b92915050565b60006020828403121561291e5761291d61177b565b5b600061292c848285016128f3565b91505092915050565b60008160e01c9050919050565b600060033d11156129615760046000803e61295e600051612935565b90505b90565b600060443d106129f157612976611771565b60043d036004823e80513d602482011167ffffffffffffffff8211171561299e5750506129f1565b808201805167ffffffffffffffff8111156129bc57505050506129f1565b80602083010160043d0385018111156129d95750505050506129f1565b6129e882602001850186611aad565b82955050505050505b90565b7f455243313135353a207472616e7366657220746f206e6f6e2d4552433131353560008201527f526563656976657220696d706c656d656e746572000000000000000000000000602082015250565b6000612a50603483611976565b9150612a5b826129f4565b604082019050919050565b60006020820190508181036000830152612a7f81612a43565b9050919050565b7f455243313135353a204552433131353552656365697665722072656a6563746560008201527f6420746f6b656e73000000000000000000000000000000000000000000000000602082015250565b6000612ae2602883611976565b9150612aed82612a86565b604082019050919050565b60006020820190508181036000830152612b1181612ad5565b9050919050565b600060a082019050612b2d6000830188611f60565b612b3a6020830187611f60565b8181036040830152612b4c8186611ee0565b90508181036060830152612b608185611ee0565b90508181036080830152612b748184612860565b9050969550505050505056fea264697066735822122004c912d26c78252b8d1af83718dd632c491f4e53f4165952a31639919d0dc01064736f6c634300080d0033",
  "immutableReferences": {},
  "source": "// SPDX-License-Identifier: MIT\r\npragma solidity ^0.8.2;\r\n\r\nimport \"../node_modules/@openzeppelin/contracts/token/ERC1155/ERC1155.sol\";\r\nimport \"../node_modules/@openzeppelin/contracts/access/Ownable.sol\";\r\nimport \"../node_modules/@openzeppelin/contracts/token/ERC1155/extensions/ERC1155Supply.sol\";\r\n\r\ncontract ProjectsToken is ERC1155, Ownable {\r\n    constructor() ERC1155(\"uri\") {\r\n\r\n    }\r\n\r\n    function mint(address account, uint256 id, uint256 amount) public onlyOwner {\r\n        _mint(account, id, amount, \"\");\r\n    }\r\n\r\n}\r\n",
  "sourcePath": "c:\\Users\\User\\Desktop\\\\davidson\\project\\DavidsonProject\\Smart Contract\\contracts\\ProjectsToken.sol",
  "compiler": {
    "name": "solc",
    "version": "0.8.13+commit.abaa5c0e.Emscripten.clang"
  },
  "schemaVersion": "3.4.7",
  "updatedAt": "2024-03-05T21:41:31.204Z",
  "networkType": "ethereum",
  "devdoc": {
    "kind": "dev",
    "methods": {
      "balanceOf(address,uint256)": {
        "details": "See {IERC1155-balanceOf}. Requirements: - `account` cannot be the zero address."
      },
      "balanceOfBatch(address[],uint256[])": {
        "details": "See {IERC1155-balanceOfBatch}. Requirements: - `accounts` and `ids` must have the same length."
      },
      "isApprovedForAll(address,address)": {
        "details": "See {IERC1155-isApprovedForAll}."
      },
      "owner()": {
        "details": "Returns the address of the current owner."
      },
      "renounceOwnership()": {
        "details": "Leaves the contract without owner. It will not be possible to call `onlyOwner` functions. Can only be called by the current owner. NOTE: Renouncing ownership will leave the contract without an owner, thereby disabling any functionality that is only available to the owner."
      },
      "safeBatchTransferFrom(address,address,uint256[],uint256[],bytes)": {
        "details": "See {IERC1155-safeBatchTransferFrom}."
      },
      "safeTransferFrom(address,address,uint256,uint256,bytes)": {
        "details": "See {IERC1155-safeTransferFrom}."
      },
      "setApprovalForAll(address,bool)": {
        "details": "See {IERC1155-setApprovalForAll}."
      },
      "supportsInterface(bytes4)": {
        "details": "See {IERC165-supportsInterface}."
      },
      "transferOwnership(address)": {
        "details": "Transfers ownership of the contract to a new account (`newOwner`). Can only be called by the current owner."
      },
      "uri(uint256)": {
        "details": "See {IERC1155MetadataURI-uri}. This implementation returns the same URI for *all* token types. It relies on the token type ID substitution mechanism https://eips.ethereum.org/EIPS/eip-1155#metadata[defined in the EIP]. Clients calling this function must replace the `\\{id\\}` substring with the actual token type ID."
      }
    },
    "version": 1
  },
  "userdoc": {
    "kind": "user",
    "methods": {},
    "version": 1
  }
}