{
  "contractName": "Projects",
  "abi": [
    {
      "inputs": [
        {
          "internalType": "address",
          "name": "tokenAddress",
          "type": "address"
        }
      ],
      "stateMutability": "nonpayable",
      "type": "constructor"
    },
    {
      "anonymous": false,
      "inputs": [
        {
          "indexed": false,
          "internalType": "string",
          "name": "message",
          "type": "string"
        },
        {
          "indexed": false,
          "internalType": "string",
          "name": "projectName",
          "type": "string"
        },
        {
          "indexed": false,
          "internalType": "string",
          "name": "changeCID",
          "type": "string"
        }
      ],
      "name": "NewChangeIsMadeToProject",
      "type": "event"
    },
    {
      "anonymous": false,
      "inputs": [
        {
          "indexed": false,
          "internalType": "string",
          "name": "message",
          "type": "string"
        },
        {
          "indexed": false,
          "internalType": "string",
          "name": "Name",
          "type": "string"
        },
        {
          "indexed": false,
          "internalType": "string",
          "name": "CID",
          "type": "string"
        },
        {
          "indexed": false,
          "internalType": "uint256",
          "name": "indexValue",
          "type": "uint256"
        }
      ],
      "name": "NewChangeProposalCreated",
      "type": "event"
    },
    {
      "anonymous": false,
      "inputs": [
        {
          "indexed": false,
          "internalType": "string",
          "name": "message",
          "type": "string"
        },
        {
          "indexed": false,
          "internalType": "string",
          "name": "name",
          "type": "string"
        },
        {
          "indexed": false,
          "internalType": "uint256",
          "name": "value",
          "type": "uint256"
        }
      ],
      "name": "NewProjectCreated",
      "type": "event"
    },
    {
      "anonymous": false,
      "inputs": [
        {
          "indexed": false,
          "internalType": "string",
          "name": "message",
          "type": "string"
        },
        {
          "indexed": false,
          "internalType": "string",
          "name": "projectName",
          "type": "string"
        },
        {
          "indexed": false,
          "internalType": "string",
          "name": "changeProposalCID",
          "type": "string"
        },
        {
          "indexed": false,
          "internalType": "address",
          "name": "voter",
          "type": "address"
        }
      ],
      "name": "NewVoteForChangeProposal",
      "type": "event"
    },
    {
      "anonymous": false,
      "inputs": [
        {
          "indexed": false,
          "internalType": "string",
          "name": "message",
          "type": "string"
        },
        {
          "indexed": false,
          "internalType": "string",
          "name": "changeCID",
          "type": "string"
        },
        {
          "indexed": false,
          "internalType": "string",
          "name": "ProjectName",
          "type": "string"
        }
      ],
      "name": "ProjectWentBack",
      "type": "event"
    },
    {
      "anonymous": false,
      "inputs": [
        {
          "indexed": false,
          "internalType": "string",
          "name": "message",
          "type": "string"
        },
        {
          "indexed": false,
          "internalType": "uint256",
          "name": "lastDistributionTime",
          "type": "uint256"
        }
      ],
      "name": "TokensDisributed",
      "type": "event"
    },
    {
      "inputs": [],
      "name": "ClaimingInterval",
      "outputs": [
        {
          "internalType": "uint256",
          "name": "",
          "type": "uint256"
        }
      ],
      "stateMutability": "view",
      "type": "function"
    },
    {
      "inputs": [
        {
          "internalType": "string",
          "name": "",
          "type": "string"
        }
      ],
      "name": "NameToID",
      "outputs": [
        {
          "internalType": "uint256",
          "name": "",
          "type": "uint256"
        }
      ],
      "stateMutability": "view",
      "type": "function"
    },
    {
      "inputs": [],
      "name": "TimeLockInterval",
      "outputs": [
        {
          "internalType": "uint256",
          "name": "",
          "type": "uint256"
        }
      ],
      "stateMutability": "view",
      "type": "function"
    },
    {
      "inputs": [],
      "name": "token",
      "outputs": [
        {
          "internalType": "contract ProjectsToken",
          "name": "",
          "type": "address"
        }
      ],
      "stateMutability": "view",
      "type": "function"
    },
    {
      "inputs": [
        {
          "internalType": "string",
          "name": "_CID",
          "type": "string"
        },
        {
          "internalType": "string",
          "name": "projectName",
          "type": "string"
        }
      ],
      "name": "createProject",
      "outputs": [],
      "stateMutability": "nonpayable",
      "type": "function"
    },
    {
      "inputs": [
        {
          "internalType": "string",
          "name": "_changeCID",
          "type": "string"
        },
        {
          "internalType": "string",
          "name": "projectName",
          "type": "string"
        }
      ],
      "name": "MakeChangeProposal",
      "outputs": [],
      "stateMutability": "nonpayable",
      "type": "function"
    },
    {
      "inputs": [
        {
          "internalType": "address",
          "name": "addr",
          "type": "address"
        },
        {
          "internalType": "string",
          "name": "changeProposalCID",
          "type": "string"
        },
        {
          "internalType": "string",
          "name": "projectName",
          "type": "string"
        }
      ],
      "name": "isVoted",
      "outputs": [
        {
          "internalType": "bool",
          "name": "",
          "type": "bool"
        }
      ],
      "stateMutability": "view",
      "type": "function"
    },
    {
      "inputs": [
        {
          "internalType": "string",
          "name": "projectName",
          "type": "string"
        },
        {
          "internalType": "string",
          "name": "changeCID",
          "type": "string"
        }
      ],
      "name": "acceptRemoval",
      "outputs": [],
      "stateMutability": "nonpayable",
      "type": "function"
    },
    {
      "inputs": [
        {
          "internalType": "string",
          "name": "_proposedChangeCID",
          "type": "string"
        },
        {
          "internalType": "string",
          "name": "projectName",
          "type": "string"
        }
      ],
      "name": "acceptChangeProposal",
      "outputs": [],
      "stateMutability": "nonpayable",
      "type": "function"
    },
    {
      "inputs": [
        {
          "internalType": "string",
          "name": "_changeProposalCID",
          "type": "string"
        },
        {
          "internalType": "string",
          "name": "projectName",
          "type": "string"
        }
      ],
      "name": "voteForChangeProposal",
      "outputs": [],
      "stateMutability": "nonpayable",
      "type": "function"
    },
    {
      "inputs": [
        {
          "internalType": "string",
          "name": "changeCID",
          "type": "string"
        },
        {
          "internalType": "string",
          "name": "projectName",
          "type": "string"
        }
      ],
      "name": "getChangeVotes",
      "outputs": [
        {
          "internalType": "uint256",
          "name": "",
          "type": "uint256"
        }
      ],
      "stateMutability": "view",
      "type": "function"
    },
    {
      "inputs": [
        {
          "internalType": "string",
          "name": "changeCID",
          "type": "string"
        },
        {
          "internalType": "string",
          "name": "projectName",
          "type": "string"
        }
      ],
      "name": "getChangeRemovalVotes",
      "outputs": [
        {
          "internalType": "uint256",
          "name": "",
          "type": "uint256"
        }
      ],
      "stateMutability": "view",
      "type": "function"
    },
    {
      "inputs": [
        {
          "internalType": "address",
          "name": "UserAddress",
          "type": "address"
        },
        {
          "internalType": "string",
          "name": "projectName",
          "type": "string"
        }
      ],
      "name": "getBalance",
      "outputs": [
        {
          "internalType": "uint256",
          "name": "",
          "type": "uint256"
        }
      ],
      "stateMutability": "view",
      "type": "function"
    },
    {
      "inputs": [
        {
          "internalType": "string",
          "name": "projectName",
          "type": "string"
        }
      ],
      "name": "getTotalTokens",
      "outputs": [
        {
          "internalType": "uint256",
          "name": "",
          "type": "uint256"
        }
      ],
      "stateMutability": "view",
      "type": "function"
    },
    {
      "inputs": [
        {
          "internalType": "string",
          "name": "projectName",
          "type": "string"
        },
        {
          "internalType": "bool",
          "name": "changesOrChangeProposals",
          "type": "bool"
        }
      ],
      "name": "getChangesOrProposals",
      "outputs": [
        {
          "internalType": "string[]",
          "name": "",
          "type": "string[]"
        }
      ],
      "stateMutability": "view",
      "type": "function"
    },
    {
      "inputs": [
        {
          "internalType": "string",
          "name": "projectName",
          "type": "string"
        }
      ],
      "name": "getAddresses",
      "outputs": [
        {
          "internalType": "address[]",
          "name": "",
          "type": "address[]"
        }
      ],
      "stateMutability": "view",
      "type": "function"
    },
    {
      "inputs": [
        {
          "internalType": "string",
          "name": "projectName",
          "type": "string"
        },
        {
          "internalType": "string",
          "name": "change",
          "type": "string"
        }
      ],
      "name": "getChangeMaker",
      "outputs": [
        {
          "internalType": "address",
          "name": "",
          "type": "address"
        }
      ],
      "stateMutability": "view",
      "type": "function"
    },
    {
      "inputs": [],
      "name": "getLastProjects",
      "outputs": [
        {
          "internalType": "string[]",
          "name": "",
          "type": "string[]"
        }
      ],
      "stateMutability": "view",
      "type": "function"
    }
  ],
  "bytecode": "0x60806040523480156200001157600080fd5b50604051620041fc380380620041fc8339818101604052810190620000379190620000e9565b80600260006101000a81548173ffffffffffffffffffffffffffffffffffffffff021916908373ffffffffffffffffffffffffffffffffffffffff160217905550506200011b565b600080fd5b600073ffffffffffffffffffffffffffffffffffffffff82169050919050565b6000620000b18262000084565b9050919050565b620000c381620000a4565b8114620000cf57600080fd5b50565b600081519050620000e381620000b8565b92915050565b6000602082840312156200010257620001016200007f565b5b60006200011284828501620000d2565b91505092915050565b6140d1806200012b6000396000f3fe608060405234801561001057600080fd5b50600436106101165760003560e01c8063750354d2116100a2578063a54d804d11610071578063a54d804d14610317578063a836361014610335578063a90d00cd14610365578063ed0c2d9014610395578063fc0c546a146103b157610116565b8063750354d2146102915780637a5945da146102ad5780638d1446fc146102cb57806393e5228b146102e757610116565b806339b64c30116100e957806339b64c30146101db57806346ecc9841461020b5780634a5138751461023b57806351e684ba146102575780636bd062041461027557610116565b80631d7147d81461011b5780631dd7cecf1461014b5780631dea7ac41461017b57806333846eba146101ab575b600080fd5b61013560048036038101906101309190612b61565b6103cf565b6040516101429190612d1c565b60405180910390f35b61016560048036038101906101609190612d9c565b6105e8565b6040516101729190612e15565b60405180910390f35b61019560048036038101906101909190612e30565b6107f4565b6040516101a29190612e15565b60405180910390f35b6101c560048036038101906101c09190612fe1565b610b37565b6040516101d29190612e15565b60405180910390f35b6101f560048036038101906101f0919061302a565b610b65565b6040516102029190613135565b60405180910390f35b61022560048036038101906102209190612e30565b610d05565b6040516102329190612e15565b60405180910390f35b61025560048036038101906102509190613157565b611048565b005b61025f6113b3565b60405161026c9190612e15565b60405180910390f35b61028f600480360381019061028a91906131d3565b6113b8565b005b6102ab60048036038101906102a6919061324b565b611596565b005b6102b5611994565b6040516102c29190612e15565b60405180910390f35b6102e560048036038101906102e0919061324b565b611999565b005b61030160048036038101906102fc91906132c7565b611c6c565b60405161030e919061336b565b60405180910390f35b61031f611e73565b60405161032c9190612d1c565b60405180910390f35b61034f600480360381019061034a919061302a565b612011565b60405161035c9190612e15565b60405180910390f35b61037f600480360381019061037a9190612e30565b61221b565b60405161038c9190613395565b60405180910390f35b6103af60048036038101906103aa9190612e30565b612432565b005b6103b961283c565b6040516103c6919061340f565b60405180910390f35b606083838080601f016020809104026020016040519081016040528093929190818152602001838380828437600081840152601f19601f82011690508083019250505050505050600080826040516104279190613466565b9081526020016040518091039020549050600260009054906101000a900473ffffffffffffffffffffffffffffffffffffffff1673ffffffffffffffffffffffffffffffffffffffff16634f558e79826040518263ffffffff1660e01b81526004016104939190612e15565b602060405180830381865afa1580156104b0573d6000803e3d6000fd5b505050506040513d601f19601f820116820180604052508101906104d49190613492565b610513576040517f08c379a000000000000000000000000000000000000000000000000000000000815260040161050a9061351c565b60405180910390fd5b6000808787604051610526929190613561565b90815260200160405180910390205490506001818154811061054b5761054a61357a565b5b906000526020600020906009020160010173__ChangesLibrary________________________6395f4120c9091876040518363ffffffff1660e01b81526004016105969291906135bf565b600060405180830381865af41580156105b3573d6000803e3d6000fd5b505050506040513d6000823e3d601f19601f820116820180604052508101906105dc9190613739565b93505050509392505050565b600082828080601f016020809104026020016040519081016040528093929190818152602001838380828437600081840152601f19601f82011690508083019250505050505050600080826040516106409190613466565b9081526020016040518091039020549050600260009054906101000a900473ffffffffffffffffffffffffffffffffffffffff1673ffffffffffffffffffffffffffffffffffffffff16634f558e79826040518263ffffffff1660e01b81526004016106ac9190612e15565b602060405180830381865afa1580156106c9573d6000803e3d6000fd5b505050506040513d601f19601f820116820180604052508101906106ed9190613492565b61072c576040517f08c379a00000000000000000000000000000000000000000000000000000000081526004016107239061351c565b60405180910390fd5b600260009054906101000a900473ffffffffffffffffffffffffffffffffffffffff1673ffffffffffffffffffffffffffffffffffffffff1662fdd58e876000888860405161077c929190613561565b9081526020016040518091039020546040518363ffffffff1660e01b81526004016107a8929190613782565b602060405180830381865afa1580156107c5573d6000803e3d6000fd5b505050506040513d601f19601f820116820180604052508101906107e991906137d7565b925050509392505050565b600082828080601f016020809104026020016040519081016040528093929190818152602001838380828437600081840152601f19601f820116905080830192505050505050506000808260405161084c9190613466565b9081526020016040518091039020549050600260009054906101000a900473ffffffffffffffffffffffffffffffffffffffff1673ffffffffffffffffffffffffffffffffffffffff16634f558e79826040518263ffffffff1660e01b81526004016108b89190612e15565b602060405180830381865afa1580156108d5573d6000803e3d6000fd5b505050506040513d601f19601f820116820180604052508101906108f99190613492565b610938576040517f08c379a000000000000000000000000000000000000000000000000000000000815260040161092f9061351c565b60405180910390fd5b600080868660405161094b929190613561565b908152602001604051809103902054905060008080600090505b6109926001858154811061097c5761097b61357a565b5b9060005260206000209060090201600201612862565b811015610b26576109d081600186815481106109b1576109b061357a565b5b906000526020600020906009020160020161287790919063ffffffff16565b9150600184815481106109e6576109e561357a565b5b90600052602060002090600902016005018b8b604051610a07929190613561565b908152602001604051809103902060008373ffffffffffffffffffffffffffffffffffffffff1673ffffffffffffffffffffffffffffffffffffffff16815260200190815260200160002060000160009054906101000a900460ff1615610b1357600260009054906101000a900473ffffffffffffffffffffffffffffffffffffffff1673ffffffffffffffffffffffffffffffffffffffff1662fdd58e83866040518363ffffffff1660e01b8152600401610ac4929190613782565b602060405180830381865afa158015610ae1573d6000803e3d6000fd5b505050506040513d601f19601f82011682018060405250810190610b0591906137d7565b83610b109190613833565b92505b8080610b1e90613889565b915050610965565b508195505050505050949350505050565b6000818051602081018201805184825260208301602085012081835280955050505050506000915090505481565b606082828080601f016020809104026020016040519081016040528093929190818152602001838380828437600081840152601f19601f8201169050808301925050505050505060008082604051610bbd9190613466565b9081526020016040518091039020549050600260009054906101000a900473ffffffffffffffffffffffffffffffffffffffff1673ffffffffffffffffffffffffffffffffffffffff16634f558e79826040518263ffffffff1660e01b8152600401610c299190612e15565b602060405180830381865afa158015610c46573d6000803e3d6000fd5b505050506040513d601f19601f82011682018060405250810190610c6a9190613492565b610ca9576040517f08c379a0000000000000000000000000000000000000000000000000000000008152600401610ca09061351c565b60405180910390fd5b6000808686604051610cbc929190613561565b9081526020016040518091039020549050610cfa60018281548110610ce457610ce361357a565b5b9060005260206000209060090201600201612891565b935050505092915050565b600082828080601f016020809104026020016040519081016040528093929190818152602001838380828437600081840152601f19601f8201169050808301925050505050505060008082604051610d5d9190613466565b9081526020016040518091039020549050600260009054906101000a900473ffffffffffffffffffffffffffffffffffffffff1673ffffffffffffffffffffffffffffffffffffffff16634f558e79826040518263ffffffff1660e01b8152600401610dc99190612e15565b602060405180830381865afa158015610de6573d6000803e3d6000fd5b505050506040513d601f19601f82011682018060405250810190610e0a9190613492565b610e49576040517f08c379a0000000000000000000000000000000000000000000000000000000008152600401610e409061351c565b60405180910390fd5b6000808686604051610e5c929190613561565b908152602001604051809103902054905060008080600090505b610ea360018581548110610e8d57610e8c61357a565b5b9060005260206000209060090201600201612862565b81101561103757610ee18160018681548110610ec257610ec161357a565b5b906000526020600020906009020160020161287790919063ffffffff16565b915060018481548110610ef757610ef661357a565b5b90600052602060002090600902016005018b8b604051610f18929190613561565b908152602001604051809103902060008373ffffffffffffffffffffffffffffffffffffffff1673ffffffffffffffffffffffffffffffffffffffff16815260200190815260200160002060000160019054906101000a900460ff161561102457600260009054906101000a900473ffffffffffffffffffffffffffffffffffffffff1673ffffffffffffffffffffffffffffffffffffffff1662fdd58e83866040518363ffffffff1660e01b8152600401610fd5929190613782565b602060405180830381865afa158015610ff2573d6000803e3d6000fd5b505050506040513d601f19601f8201168201806040525081019061101691906137d7565b836110219190613833565b92505b808061102f90613889565b915050610e76565b508195505050505050949350505050565b82828080601f016020809104026020016040519081016040528093929190818152602001838380828437600081840152601f19601f820116905080830192505050505050506000808260405161109e9190613466565b9081526020016040518091039020549050600260009054906101000a900473ffffffffffffffffffffffffffffffffffffffff1673ffffffffffffffffffffffffffffffffffffffff16634f558e79826040518263ffffffff1660e01b815260040161110a9190612e15565b602060405180830381865afa158015611127573d6000803e3d6000fd5b505050506040513d601f19601f8201168201806040525081019061114b9190613492565b61118a576040517f08c379a00000000000000000000000000000000000000000000000000000000081526004016111819061351c565b60405180910390fd5b600080868660405161119d929190613561565b9081526020016040518091039020549050600181815481106111c2576111c161357a565b5b906000526020600020906009020160010173__ChangesLibrary________________________6313680a399091866040518363ffffffff1660e01b815260040161120d92919061391b565b60006040518083038186803b15801561122557600080fd5b505af4158015611239573d6000803e3d6000fd5b50505050600080600090505b6112726001848154811061125c5761125b61357a565b5b9060005260206000209060090201600201612862565b81101561136e576112b081600185815481106112915761129061357a565b5b906000526020600020906009020160020161287790919063ffffffff16565b9150600183815481106112c6576112c561357a565b5b9060005260206000209060090201600501866040516112e59190613466565b908152602001604051809103902060008373ffffffffffffffffffffffffffffffffffffffff1673ffffffffffffffffffffffffffffffffffffffff168152602001908152602001600020600080820160006101000a81549060ff02191690556000820160016101000a81549060ff02191690555050808061136690613889565b915050611245565b507f718a982b61bc723a0c68281b0eb10e1cff37bd89888841ae545c98cd5493a0568588886040516113a2939291906139fd565b60405180910390a150505050505050565b607881565b60006001805490509050806000836040516113d39190613466565b908152602001604051809103902081905550600260009054906101000a900473ffffffffffffffffffffffffffffffffffffffff1673ffffffffffffffffffffffffffffffffffffffff1663156e29f6338360646040518463ffffffff1660e01b815260040161144593929190613a84565b600060405180830381600087803b15801561145f57600080fd5b505af1158015611473573d6000803e3d6000fd5b505050506000600180816001815401808255809150500390600052602060002090600902019050828160000190805190602001906114b2929190612a0d565b508060010173__ChangesLibrary________________________6381659a909091866040518363ffffffff1660e01b81526004016114f192919061391b565b60006040518083038186803b15801561150957600080fd5b505af415801561151d573d6000803e3d6000fd5b505050506064816006018190555060f0426115389190613833565b816004018190555061155633826002016128b290919063ffffffff16565b507fe224389b386caecb8e3b38edc39361c7227e3ef820a8276bc31ac9cf1ba69fcd8383604051611588929190613b07565b60405180910390a150505050565b81818080601f016020809104026020016040519081016040528093929190818152602001838380828437600081840152601f19601f82011690508083019250505050505050600080826040516115ec9190613466565b9081526020016040518091039020549050600260009054906101000a900473ffffffffffffffffffffffffffffffffffffffff1673ffffffffffffffffffffffffffffffffffffffff16634f558e79826040518263ffffffff1660e01b81526004016116589190612e15565b602060405180830381865afa158015611675573d6000803e3d6000fd5b505050506040513d601f19601f820116820180604052508101906116999190613492565b6116d8576040517f08c379a00000000000000000000000000000000000000000000000000000000081526004016116cf9061351c565b60405180910390fd5b60008085856040516116eb929190613561565b908152602001604051809103902054905060001515600182815481106117145761171361357a565b5b9060005260206000209060090201600501876040516117339190613466565b908152602001604051809103902060003373ffffffffffffffffffffffffffffffffffffffff1673ffffffffffffffffffffffffffffffffffffffff16815260200190815260200160002060000160009054906101000a900460ff161515146117d1576040517f08c379a00000000000000000000000000000000000000000000000000000000081526004016117c890613b96565b60405180910390fd5b6000600260009054906101000a900473ffffffffffffffffffffffffffffffffffffffff1673ffffffffffffffffffffffffffffffffffffffff1662fdd58e33846040518363ffffffff1660e01b815260040161182f929190613782565b602060405180830381865afa15801561184c573d6000803e3d6000fd5b505050506040513d601f19601f8201168201806040525081019061187091906137d7565b9050600081116118b5576040517f08c379a00000000000000000000000000000000000000000000000000000000081526004016118ac90613c02565b60405180910390fd5b60018083815481106118ca576118c961357a565b5b9060005260206000209060090201600501886040516118e99190613466565b908152602001604051809103902060003373ffffffffffffffffffffffffffffffffffffffff1673ffffffffffffffffffffffffffffffffffffffff16815260200190815260200160002060000160006101000a81548160ff0219169083151502179055507fb64f8561c8d312f5e6a3dbffda44bbb4d741f23969f1ea178a97d1428ebcaafe868689336040516119839493929190613c6e565b60405180910390a150505050505050565b60f081565b81818080601f016020809104026020016040519081016040528093929190818152602001838380828437600081840152601f19601f82011690508083019250505050505050600080826040516119ef9190613466565b9081526020016040518091039020549050600260009054906101000a900473ffffffffffffffffffffffffffffffffffffffff1673ffffffffffffffffffffffffffffffffffffffff16634f558e79826040518263ffffffff1660e01b8152600401611a5b9190612e15565b602060405180830381865afa158015611a78573d6000803e3d6000fd5b505050506040513d601f19601f82011682018060405250810190611a9c9190613492565b611adb576040517f08c379a0000000000000000000000000000000000000000000000000000000008152600401611ad29061351c565b60405180910390fd5b6000808585604051611aee929190613561565b908152602001604051809103902054905060018181548110611b1357611b1261357a565b5b906000526020600020906009020160010173__ChangesLibrary________________________63ddaee8df9091886040518363ffffffff1660e01b8152600401611b5e92919061391b565b60006040518083038186803b158015611b7657600080fd5b505af4158015611b8a573d6000803e3d6000fd5b505050506001808281548110611ba357611ba261357a565b5b906000526020600020906009020160050187604051611bc29190613466565b908152602001604051809103902060003373ffffffffffffffffffffffffffffffffffffffff1673ffffffffffffffffffffffffffffffffffffffff16815260200190815260200160002060000160006101000a81548160ff0219169083151502179055507f7b7acf540aac5e16ce3dfbd4d106c203a301da603c18502d179f60282962e5c485858884604051611c5c9493929190613d60565b60405180910390a1505050505050565b600082828080601f016020809104026020016040519081016040528093929190818152602001838380828437600081840152601f19601f8201169050808301925050505050505060008082604051611cc49190613466565b9081526020016040518091039020549050600260009054906101000a900473ffffffffffffffffffffffffffffffffffffffff1673ffffffffffffffffffffffffffffffffffffffff16634f558e79826040518263ffffffff1660e01b8152600401611d309190612e15565b602060405180830381865afa158015611d4d573d6000803e3d6000fd5b505050506040513d601f19601f82011682018060405250810190611d719190613492565b611db0576040517f08c379a0000000000000000000000000000000000000000000000000000000008152600401611da79061351c565b60405180910390fd5b6000808686604051611dc3929190613561565b908152602001604051809103902054905060018181548110611de857611de761357a565b5b90600052602060002090600902016005018888604051611e09929190613561565b908152602001604051809103902060008a73ffffffffffffffffffffffffffffffffffffffff1673ffffffffffffffffffffffffffffffffffffffff16815260200190815260200160002060000160009054906101000a900460ff16935050505095945050505050565b60606000600180549050905060006001805490509050600a821115611e9757600a91505b60008267ffffffffffffffff811115611eb357611eb2612eb6565b5b604051908082528060200260200182016040528015611ee657816020015b6060815260200190600190039081611ed15790505b509050600060018054905011156120085760008383611f059190613dba565b90505b828110156120065760018181548110611f2457611f2361357a565b5b90600052602060002090600902016000018054611f4090613e1d565b80601f0160208091040260200160405190810160405280929190818152602001828054611f6c90613e1d565b8015611fb95780601f10611f8e57610100808354040283529160200191611fb9565b820191906000526020600020905b815481529060010190602001808311611f9c57829003601f168201915b50505050508282600186611fcd9190613dba565b611fd79190613dba565b81518110611fe857611fe761357a565b5b60200260200101819052508080611ffe90613889565b915050611f08565b505b80935050505090565b600082828080601f016020809104026020016040519081016040528093929190818152602001838380828437600081840152601f19601f82011690508083019250505050505050600080826040516120699190613466565b9081526020016040518091039020549050600260009054906101000a900473ffffffffffffffffffffffffffffffffffffffff1673ffffffffffffffffffffffffffffffffffffffff16634f558e79826040518263ffffffff1660e01b81526004016120d59190612e15565b602060405180830381865afa1580156120f2573d6000803e3d6000fd5b505050506040513d601f19601f820116820180604052508101906121169190613492565b612155576040517f08c379a000000000000000000000000000000000000000000000000000000000815260040161214c9061351c565b60405180910390fd5b600260009054906101000a900473ffffffffffffffffffffffffffffffffffffffff1673ffffffffffffffffffffffffffffffffffffffff1663bd85b039600087876040516121a5929190613561565b9081526020016040518091039020546040518263ffffffff1660e01b81526004016121d09190612e15565b602060405180830381865afa1580156121ed573d6000803e3d6000fd5b505050506040513d601f19601f8201168201806040525081019061221191906137d7565b9250505092915050565b600084848080601f016020809104026020016040519081016040528093929190818152602001838380828437600081840152601f19601f82011690508083019250505050505050600080826040516122739190613466565b9081526020016040518091039020549050600260009054906101000a900473ffffffffffffffffffffffffffffffffffffffff1673ffffffffffffffffffffffffffffffffffffffff16634f558e79826040518263ffffffff1660e01b81526004016122df9190612e15565b602060405180830381865afa1580156122fc573d6000803e3d6000fd5b505050506040513d601f19601f820116820180604052508101906123209190613492565b61235f576040517f08c379a00000000000000000000000000000000000000000000000000000000081526004016123569061351c565b60405180910390fd5b6000808888604051612372929190613561565b9081526020016040518091039020549050600181815481106123975761239661357a565b5b906000526020600020906009020160010173__ChangesLibrary________________________63681ef9ce909188886040518463ffffffff1660e01b81526004016123e493929190613e7b565b602060405180830381865af4158015612401573d6000803e3d6000fd5b505050506040513d601f19601f820116820180604052508101906124259190613ec2565b9350505050949350505050565b81818080601f016020809104026020016040519081016040528093929190818152602001838380828437600081840152601f19601f82011690508083019250505050505050600080826040516124889190613466565b9081526020016040518091039020549050600260009054906101000a900473ffffffffffffffffffffffffffffffffffffffff1673ffffffffffffffffffffffffffffffffffffffff16634f558e79826040518263ffffffff1660e01b81526004016124f49190612e15565b602060405180830381865afa158015612511573d6000803e3d6000fd5b505050506040513d601f19601f820116820180604052508101906125359190613492565b612574576040517f08c379a000000000000000000000000000000000000000000000000000000000815260040161256b9061351c565b60405180910390fd5b6000808585604051612587929190613561565b90815260200160405180910390205490503373ffffffffffffffffffffffffffffffffffffffff16600182815481106125c3576125c261357a565b5b906000526020600020906009020160010173__ChangesLibrary________________________63681ef9ce90918a8a6040518463ffffffff1660e01b815260040161261093929190613e7b565b602060405180830381865af415801561262d573d6000803e3d6000fd5b505050506040513d601f19601f820116820180604052508101906126519190613ec2565b73ffffffffffffffffffffffffffffffffffffffff16146126a7576040517f08c379a000000000000000000000000000000000000000000000000000000000815260040161269e90613f61565b60405180910390fd5b600260009054906101000a900473ffffffffffffffffffffffffffffffffffffffff1673ffffffffffffffffffffffffffffffffffffffff1663bd85b039826040518263ffffffff1660e01b81526004016127029190612e15565b602060405180830381865afa15801561271f573d6000803e3d6000fd5b505050506040513d601f19601f8201168201806040525081019061274391906137d7565b6002612751898989896107f4565b61275b9190613f81565b1161276557600080fd5b600181815481106127795761277861357a565b5b906000526020600020906009020160010173__ChangesLibrary________________________63c8d84335909189896040518463ffffffff1660e01b81526004016127c693929190613e7b565b60006040518083038186803b1580156127de57600080fd5b505af41580156127f2573d6000803e3d6000fd5b505050507fa59a33e81abf86b25a561f609013d867f28b3c0cbc2cdf98e852b0c0c041eb6c8585898960405161282b949392919061404d565b60405180910390a150505050505050565b600260009054906101000a900473ffffffffffffffffffffffffffffffffffffffff1681565b6000612870826000016128e2565b9050919050565b600061288683600001836128f3565b60001c905092915050565b606060006128a18360000161291e565b905060608190508092505050919050565b60006128da836000018373ffffffffffffffffffffffffffffffffffffffff1660001b61297a565b905092915050565b600081600001805490509050919050565b600082600001828154811061290b5761290a61357a565b5b9060005260206000200154905092915050565b60608160000180548060200260200160405190810160405280929190818152602001828054801561296e57602002820191906000526020600020905b81548152602001906001019080831161295a575b50505050509050919050565b600061298683836129ea565b6129df5782600001829080600181540180825580915050600190039060005260206000200160009091909190915055826000018054905083600101600084815260200190815260200160002081905550600190506129e4565b600090505b92915050565b600080836001016000848152602001908152602001600020541415905092915050565b828054612a1990613e1d565b90600052602060002090601f016020900481019282612a3b5760008555612a82565b82601f10612a5457805160ff1916838001178555612a82565b82800160010185558215612a82579182015b82811115612a81578251825591602001919060010190612a66565b5b509050612a8f9190612a93565b5090565b5b80821115612aac576000816000905550600101612a94565b5090565b6000604051905090565b600080fd5b600080fd5b600080fd5b600080fd5b600080fd5b60008083601f840112612ae957612ae8612ac4565b5b8235905067ffffffffffffffff811115612b0657612b05612ac9565b5b602083019150836001820283011115612b2257612b21612ace565b5b9250929050565b60008115159050919050565b612b3e81612b29565b8114612b4957600080fd5b50565b600081359050612b5b81612b35565b92915050565b600080600060408486031215612b7a57612b79612aba565b5b600084013567ffffffffffffffff811115612b9857612b97612abf565b5b612ba486828701612ad3565b93509350506020612bb786828701612b4c565b9150509250925092565b600081519050919050565b600082825260208201905092915050565b6000819050602082019050919050565b600081519050919050565b600082825260208201905092915050565b60005b83811015612c27578082015181840152602081019050612c0c565b83811115612c36576000848401525b50505050565b6000601f19601f8301169050919050565b6000612c5882612bed565b612c628185612bf8565b9350612c72818560208601612c09565b612c7b81612c3c565b840191505092915050565b6000612c928383612c4d565b905092915050565b6000602082019050919050565b6000612cb282612bc1565b612cbc8185612bcc565b935083602082028501612cce85612bdd565b8060005b85811015612d0a5784840389528151612ceb8582612c86565b9450612cf683612c9a565b925060208a01995050600181019050612cd2565b50829750879550505050505092915050565b60006020820190508181036000830152612d368184612ca7565b905092915050565b600073ffffffffffffffffffffffffffffffffffffffff82169050919050565b6000612d6982612d3e565b9050919050565b612d7981612d5e565b8114612d8457600080fd5b50565b600081359050612d9681612d70565b92915050565b600080600060408486031215612db557612db4612aba565b5b6000612dc386828701612d87565b935050602084013567ffffffffffffffff811115612de457612de3612abf565b5b612df086828701612ad3565b92509250509250925092565b6000819050919050565b612e0f81612dfc565b82525050565b6000602082019050612e2a6000830184612e06565b92915050565b60008060008060408587031215612e4a57612e49612aba565b5b600085013567ffffffffffffffff811115612e6857612e67612abf565b5b612e7487828801612ad3565b9450945050602085013567ffffffffffffffff811115612e9757612e96612abf565b5b612ea387828801612ad3565b925092505092959194509250565b600080fd5b7f4e487b7100000000000000000000000000000000000000000000000000000000600052604160045260246000fd5b612eee82612c3c565b810181811067ffffffffffffffff82111715612f0d57612f0c612eb6565b5b80604052505050565b6000612f20612ab0565b9050612f2c8282612ee5565b919050565b600067ffffffffffffffff821115612f4c57612f4b612eb6565b5b612f5582612c3c565b9050602081019050919050565b82818337600083830152505050565b6000612f84612f7f84612f31565b612f16565b905082815260208101848484011115612fa057612f9f612eb1565b5b612fab848285612f62565b509392505050565b600082601f830112612fc857612fc7612ac4565b5b8135612fd8848260208601612f71565b91505092915050565b600060208284031215612ff757612ff6612aba565b5b600082013567ffffffffffffffff81111561301557613014612abf565b5b61302184828501612fb3565b91505092915050565b6000806020838503121561304157613040612aba565b5b600083013567ffffffffffffffff81111561305f5761305e612abf565b5b61306b85828601612ad3565b92509250509250929050565b600081519050919050565b600082825260208201905092915050565b6000819050602082019050919050565b6130ac81612d5e565b82525050565b60006130be83836130a3565b60208301905092915050565b6000602082019050919050565b60006130e282613077565b6130ec8185613082565b93506130f783613093565b8060005b8381101561312857815161310f88826130b2565b975061311a836130ca565b9250506001810190506130fb565b5085935050505092915050565b6000602082019050818103600083015261314f81846130d7565b905092915050565b6000806000604084860312156131705761316f612aba565b5b600084013567ffffffffffffffff81111561318e5761318d612abf565b5b61319a86828701612ad3565b9350935050602084013567ffffffffffffffff8111156131bd576131bc612abf565b5b6131c986828701612fb3565b9150509250925092565b600080604083850312156131ea576131e9612aba565b5b600083013567ffffffffffffffff81111561320857613207612abf565b5b61321485828601612fb3565b925050602083013567ffffffffffffffff81111561323557613234612abf565b5b61324185828601612fb3565b9150509250929050565b60008060006040848603121561326457613263612aba565b5b600084013567ffffffffffffffff81111561328257613281612abf565b5b61328e86828701612fb3565b935050602084013567ffffffffffffffff8111156132af576132ae612abf565b5b6132bb86828701612ad3565b92509250509250925092565b6000806000806000606086880312156132e3576132e2612aba565b5b60006132f188828901612d87565b955050602086013567ffffffffffffffff81111561331257613311612abf565b5b61331e88828901612ad3565b9450945050604086013567ffffffffffffffff81111561334157613340612abf565b5b61334d88828901612ad3565b92509250509295509295909350565b61336581612b29565b82525050565b6000602082019050613380600083018461335c565b92915050565b61338f81612d5e565b82525050565b60006020820190506133aa6000830184613386565b92915050565b6000819050919050565b60006133d56133d06133cb84612d3e565b6133b0565b612d3e565b9050919050565b60006133e7826133ba565b9050919050565b60006133f9826133dc565b9050919050565b613409816133ee565b82525050565b60006020820190506134246000830184613400565b92915050565b600081905092915050565b600061344082612bed565b61344a818561342a565b935061345a818560208601612c09565b80840191505092915050565b60006134728284613435565b915081905092915050565b60008151905061348c81612b35565b92915050565b6000602082840312156134a8576134a7612aba565b5b60006134b68482850161347d565b91505092915050565b600082825260208201905092915050565b7f50726f6a65637420646f206e6f74206578697374000000000000000000000000600082015250565b60006135066014836134bf565b9150613511826134d0565b602082019050919050565b60006020820190508181036000830152613535816134f9565b9050919050565b6000613548838561342a565b9350613555838584612f62565b82840190509392505050565b600061356e82848661353c565b91508190509392505050565b7f4e487b7100000000000000000000000000000000000000000000000000000000600052603260045260246000fd5b8082525050565b6135b981612b29565b82525050565b60006040820190506135d460008301856135a9565b6135e160208301846135b0565b9392505050565b600067ffffffffffffffff82111561360357613602612eb6565b5b602082029050602081019050919050565b600061362761362284612f31565b612f16565b90508281526020810184848401111561364357613642612eb1565b5b61364e848285612c09565b509392505050565b600082601f83011261366b5761366a612ac4565b5b815161367b848260208601613614565b91505092915050565b6000613697613692846135e8565b612f16565b905080838252602082019050602084028301858111156136ba576136b9612ace565b5b835b8181101561370157805167ffffffffffffffff8111156136df576136de612ac4565b5b8086016136ec8982613656565b855260208501945050506020810190506136bc565b5050509392505050565b600082601f8301126137205761371f612ac4565b5b8151613730848260208601613684565b91505092915050565b60006020828403121561374f5761374e612aba565b5b600082015167ffffffffffffffff81111561376d5761376c612abf565b5b6137798482850161370b565b91505092915050565b60006040820190506137976000830185613386565b6137a46020830184612e06565b9392505050565b6137b481612dfc565b81146137bf57600080fd5b50565b6000815190506137d1816137ab565b92915050565b6000602082840312156137ed576137ec612aba565b5b60006137fb848285016137c2565b91505092915050565b7f4e487b7100000000000000000000000000000000000000000000000000000000600052601160045260246000fd5b600061383e82612dfc565b915061384983612dfc565b9250827fffffffffffffffffffffffffffffffffffffffffffffffffffffffffffffffff0382111561387e5761387d613804565b5b828201905092915050565b600061389482612dfc565b91507fffffffffffffffffffffffffffffffffffffffffffffffffffffffffffffffff82036138c6576138c5613804565b5b600182019050919050565b600082825260208201905092915050565b60006138ed82612bed565b6138f781856138d1565b9350613907818560208601612c09565b61391081612c3c565b840191505092915050565b600060408201905061393060008301856135a9565b818103602083015261394281846138e2565b90509392505050565b7f50726f6a656374206368616e67656420746f206368616e67653a200000000000600082015250565b6000613981601b836134bf565b915061398c8261394b565b602082019050919050565b60006139a282612bed565b6139ac81856134bf565b93506139bc818560208601612c09565b6139c581612c3c565b840191505092915050565b60006139dc83856134bf565b93506139e9838584612f62565b6139f283612c3c565b840190509392505050565b60006060820190508181036000830152613a1681613974565b90508181036020830152613a2a8186613997565b90508181036040830152613a3f8184866139d0565b9050949350505050565b6000819050919050565b6000613a6e613a69613a6484613a49565b6133b0565b612dfc565b9050919050565b613a7e81613a53565b82525050565b6000606082019050613a996000830186613386565b613aa66020830185612e06565b613ab36040830184613a75565b949350505050565b7f4e65772070726f6a656374206372656174656420776974682049443a00000000600082015250565b6000613af1601c836134bf565b9150613afc82613abb565b602082019050919050565b60006060820190508181036000830152613b2081613ae4565b90508181036020830152613b348185613997565b9050613b436040830184612e06565b9392505050565b7f416c726561647920766f74656400000000000000000000000000000000000000600082015250565b6000613b80600d836134bf565b9150613b8b82613b4a565b602082019050919050565b60006020820190508181036000830152613baf81613b73565b9050919050565b7f566f74696e6720706f77657220697320696e73756666696369656e7400000000600082015250565b6000613bec601c836134bf565b9150613bf782613bb6565b602082019050919050565b60006020820190508181036000830152613c1b81613bdf565b9050919050565b7f4e657720766f746520666f72206368616e67652070726f706f73616c3a000000600082015250565b6000613c58601d836134bf565b9150613c6382613c22565b602082019050919050565b60006080820190508181036000830152613c8781613c4b565b90508181036020830152613c9c8186886139d0565b90508181036040830152613cb08185613997565b9050613cbf6060830184613386565b95945050505050565b7f4e6577206368616e67652070726f706f73616c20746f207468652050726f6a6560008201527f6374207769746820746865206e616d6520616e6420666f6c6c6f77696e67204960208201527f4420616e64204349443a00000000000000000000000000000000000000000000604082015250565b6000613d4a604a836134bf565b9150613d5582613cc8565b606082019050919050565b60006080820190508181036000830152613d7981613d3d565b90508181036020830152613d8e8186886139d0565b90508181036040830152613da28185613997565b9050613db16060830184612e06565b95945050505050565b6000613dc582612dfc565b9150613dd083612dfc565b925082821015613de357613de2613804565b5b828203905092915050565b7f4e487b7100000000000000000000000000000000000000000000000000000000600052602260045260246000fd5b60006002820490506001821680613e3557607f821691505b602082108103613e4857613e47613dee565b5b50919050565b6000613e5a83856138d1565b9350613e67838584612f62565b613e7083612c3c565b840190509392505050565b6000604082019050613e9060008301866135a9565b8181036020830152613ea3818486613e4e565b9050949350505050565b600081519050613ebc81612d70565b92915050565b600060208284031215613ed857613ed7612aba565b5b6000613ee684828501613ead565b91505092915050565b7f6f6e6c7920746865206368616e67652070726f706f73616c2063726561746f7260008201527f2063616e20616363657074000000000000000000000000000000000000000000602082015250565b6000613f4b602b836134bf565b9150613f5682613eef565b604082019050919050565b60006020820190508181036000830152613f7a81613f3e565b9050919050565b6000613f8c82612dfc565b9150613f9783612dfc565b9250817fffffffffffffffffffffffffffffffffffffffffffffffffffffffffffffffff0483118215151615613fd057613fcf613804565b5b828202905092915050565b7f41206e6577206368616e676520686173206265656e206d61646520746f20746860008201527f652070726f6a6563743a20000000000000000000000000000000000000000000602082015250565b6000614037602b836134bf565b915061404282613fdb565b604082019050919050565b600060608201905081810360008301526140668161402a565b9050818103602083015261407b8186886139d0565b905081810360408301526140908184866139d0565b90509594505050505056fea2646970667358221220889ef0cfc3327ae5cfb607552efec891ddfd15d71fcad03002991a32f925321a64736f6c634300080d0033",
  "immutableReferences": {},
  "source": "// SPDX-License-Identifier: MIT\npragma solidity ^0.8.13;\n\nimport \"../node_modules/@openzeppelin/contracts/utils/Counters.sol\";\nimport \"../node_modules/@openzeppelin/contracts/utils/structs/EnumerableSet.sol\";\nimport \"./Changes.sol\";\nimport \"./ProjectsToken.sol\";\n\n\ncontract Projects {\n    // initiate all the data structures and constants saved on the smart contract\n    uint public constant TimeLockInterval = 4 minutes;\n    uint public constant ClaimingInterval = 2 minutes;\n\n    using EnumerableSet for EnumerableSet.AddressSet;\n    using Counters for Counters.Counter;\n    using ChangesLibrary for ChangesLibrary.changesMap;\n\n    \n    // -------------------------------------------------------- Mappings\n    mapping(string => uint) public NameToID;    \n\n    // -------------------------------------------------------- Structs\n\n    struct goBack {\n        string changeCID;\n        address goBackMaker;\n        uint votes;\n    }\n\n\n    struct Vote {\n        bool voted;\n        bool removeVoted;\n    }\n\n\n    struct Project {\n        string name;\n        ChangesLibrary.changesMap changes;\n        EnumerableSet.AddressSet participants;\n\n        // time lock\n        uint DistributionTime;\n\n        // - ChangeCID => Voter address => Voted?\n        mapping(string => mapping(address => Vote)) Voted;\n\n        // distribution\n        uint newTokens;\n        mapping(address => uint) pendingTokens;\n        mapping(address => mapping(uint => uint)) TokensSpent; // user => time => tokens spent\n\n    }\n\n\n    // -------------------------------------------------------- Lists\n    Project[] publicProjects;\n\n    // -------------------------------------------------------- Token\n    ProjectsToken public token;\n\n    // -------------------------------------------------------- Events\n    event NewProjectCreated(string message, string name, uint value);\n    event NewChangeProposalCreated(string message, string Name, string CID, uint indexValue);\n    event NewVoteForChangeProposal(string message, string projectName, string changeProposalCID, address voter);\n    event NewChangeIsMadeToProject(string message, string projectName, string changeCID); // Message, Project CID, Message, ChangeCID\n    event ProjectWentBack(string message, string changeCID, string ProjectName);\n    event TokensDisributed(string message, uint lastDistributionTime);\n\n    // -------------------------------------------------------- Modifiers\n    modifier ProjectExist(string memory _Name) {\n        uint idx = NameToID[_Name];\n        require(token.exists(idx), \"Project do not exist\");\n        _;\n    }\n\n\n    // -------------------------------------------------------- Constructor\n    constructor(address tokenAddress) {\n        token = ProjectsToken(tokenAddress);\n    } \n\n    // -------------------------------------------------------- Functions\n\n    // the function create a new project with an inital change\n    function createProject(string memory _CID, string memory projectName) public {\n        uint newProjectID = publicProjects.length;\n        NameToID[projectName] = newProjectID;\n        token.mint(msg.sender, newProjectID, 100);\n        \n        Project storage newProject = publicProjects.push();\n        newProject.name = projectName;\n        newProject.changes.initialize(_CID);\n        newProject.newTokens = 100;\n        newProject.DistributionTime = block.timestamp + TimeLockInterval; \n        newProject.participants.add(msg.sender);\n\n        emit NewProjectCreated(\"New project created with ID:\", projectName, newProjectID);\n    }\n\n\n    // the functions create a change proposal\n    function MakeChangeProposal(\n        string memory _changeCID, \n        string calldata projectName\n    ) ProjectExist(projectName) external {\n        uint projectID = NameToID[projectName];\n        publicProjects[projectID].changes.createChangeProposal(_changeCID);\n        publicProjects[projectID].Voted[_changeCID][msg.sender].voted = true;\n        emit NewChangeProposalCreated(\"New change proposal to the Project with the name and following ID and CID:\", projectName, _changeCID, projectID);\n    }\n\n    \n    function isVoted(\n        address addr,\n        string calldata changeProposalCID,\n        string calldata projectName\n    ) ProjectExist(projectName) view external returns (bool) {\n        uint projectID = NameToID[projectName];\n        return publicProjects[projectID].Voted[changeProposalCID][addr].voted;\n    }\n\n\n    // the function make a go Back \n    function acceptRemoval(\n        string calldata projectName, \n        string memory changeCID\n    ) ProjectExist(projectName) external {\n        uint projectID = NameToID[projectName];\n        publicProjects[projectID].changes.removeChange(changeCID);\n\n        address participant;\n        for (uint index = 0; index < publicProjects[projectID].participants.length(); index++) {\n            participant = publicProjects[projectID].participants.at(index);\n            delete publicProjects[projectID].Voted[changeCID][participant];\n        }\n        \n        emit ProjectWentBack(\"Project changed to change: \", changeCID, projectName);\n    }\n\n\n    // the functions accept a change proposal and add it to the list\n    function acceptChangeProposal(\n        string calldata _proposedChangeCID,\n        string calldata projectName\n    ) ProjectExist(projectName) external {\n        uint projectID = NameToID[projectName];\n        require(publicProjects[projectID].changes.getChangeMaker(_proposedChangeCID) == msg.sender, \"only the change proposal creator can accept\");\n        require(getChangeVotes(_proposedChangeCID, projectName)*2 > token.totalSupply(projectID));\n\n        publicProjects[projectID].changes.acceptChangeProposal(_proposedChangeCID);\n\n        emit NewChangeIsMadeToProject(\"A new change has been made to the project: \", projectName, _proposedChangeCID);\n    }\n\n\n    // the function allow user to vote in favor of a change proposal\n    function voteForChangeProposal(\n        string memory _changeProposalCID, \n        string calldata projectName\n    ) ProjectExist(projectName) external {\n        uint projectID = NameToID[projectName];\n\n        require(publicProjects[projectID].Voted[_changeProposalCID][msg.sender].voted == false, \"Already voted\");\n\n        uint votingPower = token.balanceOf(msg.sender, projectID);\n        if (votingPower <= 0) {\n            revert(\"Voting power is insufficient\");\n        }\n\n        publicProjects[projectID].Voted[_changeProposalCID][msg.sender].voted = true;\n        \n        emit NewVoteForChangeProposal(\n            \"New vote for change proposal:\",\n            projectName,\n            _changeProposalCID,\n            msg.sender\n        );\n    }\n\n \n    function addParticipant(\n        address addr,\n        string calldata projectName\n    ) ProjectExist(projectName) internal returns (bool) {\n        uint projectID = NameToID[projectName];\n        return publicProjects[projectID].participants.add(addr);\n    }\n\n\n    function getChangeVotes(\n        string calldata changeCID,\n        string calldata projectName\n    ) ProjectExist(projectName) public view returns (uint) {\n        uint projectID = NameToID[projectName];\n        uint votes = 0;\n        address participant;\n        for (uint index = 0; index < publicProjects[projectID].participants.length(); index++) {\n            participant = publicProjects[projectID].participants.at(index);\n            if (publicProjects[projectID].Voted[changeCID][participant].voted) {\n                votes += token.balanceOf(participant, projectID);\n            }\n        }\n\n        return votes;\n    }\n\n\n    function getChangeRemovalVotes(\n        string calldata changeCID,\n        string calldata projectName\n    ) ProjectExist(projectName) public view returns (uint) {\n        uint projectID = NameToID[projectName];\n        uint votes = 0;\n        address participant;\n        for (uint index = 0; index < publicProjects[projectID].participants.length(); index++) {\n            participant = publicProjects[projectID].participants.at(index);\n            if (publicProjects[projectID].Voted[changeCID][participant].removeVoted) {\n                votes += token.balanceOf(participant, projectID);\n            }\n        }\n\n        return votes;\n    }\n\n\n    function getBalance(\n        address UserAddress,\n        string calldata projectName\n    ) ProjectExist(projectName) external view returns (uint) {\n        return token.balanceOf(UserAddress, NameToID[projectName]);\n    }\n\n\n    function getTotalTokens(\n        string calldata projectName\n    ) ProjectExist(projectName) external view returns (uint) {\n        return token.totalSupply(NameToID[projectName]);\n    }\n\n\n    // the functions returns the changes/change proposals\n    function getChangesOrProposals(\n        string calldata projectName, \n        bool changesOrChangeProposals\n    ) ProjectExist(projectName) external view returns (string[] memory) {\n        uint projectID = NameToID[projectName];\n        return publicProjects[projectID].changes.getChangesOrChangeProposals(changesOrChangeProposals); // true for changes and false for change proposals\n    }\n\n\n    function getAddresses(\n        string calldata projectName\n    ) ProjectExist(projectName) external view returns (address[] memory) {\n        uint projectID = NameToID[projectName];\n        return publicProjects[projectID].participants.values(); \n    }\n\n\n    function getChangeMaker(\n        string calldata projectName,\n        string calldata change\n    ) ProjectExist(projectName) external view returns (address) {\n        uint projectID = NameToID[projectName];\n        return publicProjects[projectID].changes.getChangeMaker(change);\n    }\n\n\n    // TEMP\n    function getLastProjects() external view returns (string[] memory) {\n        uint arr_length = publicProjects.length;\n        uint arr_index = publicProjects.length;\n        if (arr_length > 10) {\n            arr_length = 10;\n        }\n\n        string[] memory lastProjects = new string[](arr_length);\n        if (publicProjects.length > 0) {\n        for (uint256 i = arr_index - arr_length; i < arr_index; i++) {\n            lastProjects[arr_index - 1 - i] = publicProjects[i].name; \n        }}\n        return lastProjects;\n    }\n}\n",
  "sourcePath": "c:\\Users\\User\\Desktop\\\\davidson\\project\\DavidsonProject\\Smart Contract\\contracts\\Projects.sol",
  "compiler": {
    "name": "solc",
    "version": "0.8.13+commit.abaa5c0e.Emscripten.clang"
  },
  "schemaVersion": "3.4.7",
  "updatedAt": "2024-04-19T22:33:00.873Z",
  "devdoc": {
    "kind": "dev",
    "methods": {},
    "version": 1
  },
  "userdoc": {
    "kind": "user",
    "methods": {},
    "version": 1
  }
}