{
  "contractName": "ProjectsToken",
  "abi": [
    {
      "inputs": [],
      "stateMutability": "nonpayable",
      "type": "constructor"
    },
    {
      "anonymous": false,
      "inputs": [
        {
          "indexed": true,
          "internalType": "address",
          "name": "account",
          "type": "address"
        },
        {
          "indexed": true,
          "internalType": "address",
          "name": "operator",
          "type": "address"
        },
        {
          "indexed": false,
          "internalType": "bool",
          "name": "approved",
          "type": "bool"
        }
      ],
      "name": "ApprovalForAll",
      "type": "event"
    },
    {
      "anonymous": false,
      "inputs": [
        {
          "indexed": true,
          "internalType": "address",
          "name": "previousOwner",
          "type": "address"
        },
        {
          "indexed": true,
          "internalType": "address",
          "name": "newOwner",
          "type": "address"
        }
      ],
      "name": "OwnershipTransferred",
      "type": "event"
    },
    {
      "anonymous": false,
      "inputs": [
        {
          "indexed": true,
          "internalType": "address",
          "name": "operator",
          "type": "address"
        },
        {
          "indexed": true,
          "internalType": "address",
          "name": "from",
          "type": "address"
        },
        {
          "indexed": true,
          "internalType": "address",
          "name": "to",
          "type": "address"
        },
        {
          "indexed": false,
          "internalType": "uint256[]",
          "name": "ids",
          "type": "uint256[]"
        },
        {
          "indexed": false,
          "internalType": "uint256[]",
          "name": "values",
          "type": "uint256[]"
        }
      ],
      "name": "TransferBatch",
      "type": "event"
    },
    {
      "anonymous": false,
      "inputs": [
        {
          "indexed": true,
          "internalType": "address",
          "name": "operator",
          "type": "address"
        },
        {
          "indexed": true,
          "internalType": "address",
          "name": "from",
          "type": "address"
        },
        {
          "indexed": true,
          "internalType": "address",
          "name": "to",
          "type": "address"
        },
        {
          "indexed": false,
          "internalType": "uint256",
          "name": "id",
          "type": "uint256"
        },
        {
          "indexed": false,
          "internalType": "uint256",
          "name": "value",
          "type": "uint256"
        }
      ],
      "name": "TransferSingle",
      "type": "event"
    },
    {
      "anonymous": false,
      "inputs": [
        {
          "indexed": false,
          "internalType": "string",
          "name": "value",
          "type": "string"
        },
        {
          "indexed": true,
          "internalType": "uint256",
          "name": "id",
          "type": "uint256"
        }
      ],
      "name": "URI",
      "type": "event"
    },
    {
      "inputs": [
        {
          "internalType": "address",
          "name": "account",
          "type": "address"
        },
        {
          "internalType": "uint256",
          "name": "id",
          "type": "uint256"
        }
      ],
      "name": "balanceOf",
      "outputs": [
        {
          "internalType": "uint256",
          "name": "",
          "type": "uint256"
        }
      ],
      "stateMutability": "view",
      "type": "function",
      "constant": true
    },
    {
      "inputs": [
        {
          "internalType": "address[]",
          "name": "accounts",
          "type": "address[]"
        },
        {
          "internalType": "uint256[]",
          "name": "ids",
          "type": "uint256[]"
        }
      ],
      "name": "balanceOfBatch",
      "outputs": [
        {
          "internalType": "uint256[]",
          "name": "",
          "type": "uint256[]"
        }
      ],
      "stateMutability": "view",
      "type": "function",
      "constant": true
    },
    {
      "inputs": [
        {
          "internalType": "uint256",
          "name": "id",
          "type": "uint256"
        }
      ],
      "name": "exists",
      "outputs": [
        {
          "internalType": "bool",
          "name": "",
          "type": "bool"
        }
      ],
      "stateMutability": "view",
      "type": "function",
      "constant": true
    },
    {
      "inputs": [
        {
          "internalType": "address",
          "name": "account",
          "type": "address"
        },
        {
          "internalType": "address",
          "name": "operator",
          "type": "address"
        }
      ],
      "name": "isApprovedForAll",
      "outputs": [
        {
          "internalType": "bool",
          "name": "",
          "type": "bool"
        }
      ],
      "stateMutability": "view",
      "type": "function",
      "constant": true
    },
    {
      "inputs": [],
      "name": "owner",
      "outputs": [
        {
          "internalType": "address",
          "name": "",
          "type": "address"
        }
      ],
      "stateMutability": "view",
      "type": "function",
      "constant": true
    },
    {
      "inputs": [],
      "name": "renounceOwnership",
      "outputs": [],
      "stateMutability": "nonpayable",
      "type": "function"
    },
    {
      "inputs": [
        {
          "internalType": "address",
          "name": "from",
          "type": "address"
        },
        {
          "internalType": "address",
          "name": "to",
          "type": "address"
        },
        {
          "internalType": "uint256[]",
          "name": "ids",
          "type": "uint256[]"
        },
        {
          "internalType": "uint256[]",
          "name": "amounts",
          "type": "uint256[]"
        },
        {
          "internalType": "bytes",
          "name": "data",
          "type": "bytes"
        }
      ],
      "name": "safeBatchTransferFrom",
      "outputs": [],
      "stateMutability": "nonpayable",
      "type": "function"
    },
    {
      "inputs": [
        {
          "internalType": "address",
          "name": "from",
          "type": "address"
        },
        {
          "internalType": "address",
          "name": "to",
          "type": "address"
        },
        {
          "internalType": "uint256",
          "name": "id",
          "type": "uint256"
        },
        {
          "internalType": "uint256",
          "name": "amount",
          "type": "uint256"
        },
        {
          "internalType": "bytes",
          "name": "data",
          "type": "bytes"
        }
      ],
      "name": "safeTransferFrom",
      "outputs": [],
      "stateMutability": "nonpayable",
      "type": "function"
    },
    {
      "inputs": [
        {
          "internalType": "address",
          "name": "operator",
          "type": "address"
        },
        {
          "internalType": "bool",
          "name": "approved",
          "type": "bool"
        }
      ],
      "name": "setApprovalForAll",
      "outputs": [],
      "stateMutability": "nonpayable",
      "type": "function"
    },
    {
      "inputs": [
        {
          "internalType": "bytes4",
          "name": "interfaceId",
          "type": "bytes4"
        }
      ],
      "name": "supportsInterface",
      "outputs": [
        {
          "internalType": "bool",
          "name": "",
          "type": "bool"
        }
      ],
      "stateMutability": "view",
      "type": "function",
      "constant": true
    },
    {
      "inputs": [
        {
          "internalType": "uint256",
          "name": "id",
          "type": "uint256"
        }
      ],
      "name": "totalSupply",
      "outputs": [
        {
          "internalType": "uint256",
          "name": "",
          "type": "uint256"
        }
      ],
      "stateMutability": "view",
      "type": "function",
      "constant": true
    },
    {
      "inputs": [
        {
          "internalType": "address",
          "name": "newOwner",
          "type": "address"
        }
      ],
      "name": "transferOwnership",
      "outputs": [],
      "stateMutability": "nonpayable",
      "type": "function"
    },
    {
      "inputs": [
        {
          "internalType": "uint256",
          "name": "",
          "type": "uint256"
        }
      ],
      "name": "uri",
      "outputs": [
        {
          "internalType": "string",
          "name": "",
          "type": "string"
        }
      ],
      "stateMutability": "view",
      "type": "function",
      "constant": true
    },
    {
      "inputs": [
        {
          "internalType": "address",
          "name": "account",
          "type": "address"
        },
        {
          "internalType": "uint256",
          "name": "id",
          "type": "uint256"
        },
        {
          "internalType": "uint256",
          "name": "amount",
          "type": "uint256"
        }
      ],
      "name": "mint",
      "outputs": [],
      "stateMutability": "nonpayable",
      "type": "function"
    }
  ],
  "bytecode": "0x60806040523480156200001157600080fd5b506040518060400160405280600381526020017f757269000000000000000000000000000000000000000000000000000000000081525062000059816200008060201b60201c565b506200007a6200006e6200009c60201b60201c565b620000a460201b60201c565b6200027e565b8060029080519060200190620000989291906200016a565b5050565b600033905090565b6000600460009054906101000a900473ffffffffffffffffffffffffffffffffffffffff16905081600460006101000a81548173ffffffffffffffffffffffffffffffffffffffff021916908373ffffffffffffffffffffffffffffffffffffffff1602179055508173ffffffffffffffffffffffffffffffffffffffff168173ffffffffffffffffffffffffffffffffffffffff167f8be0079c531659141344cd1fd0a4f28419497f9722a3daafe3b4186f6b6457e060405160405180910390a35050565b828054620001789062000249565b90600052602060002090601f0160209004810192826200019c5760008555620001e8565b82601f10620001b757805160ff1916838001178555620001e8565b82800160010185558215620001e8579182015b82811115620001e7578251825591602001919060010190620001ca565b5b509050620001f79190620001fb565b5090565b5b8082111562000216576000816000905550600101620001fc565b5090565b7f4e487b7100000000000000000000000000000000000000000000000000000000600052602260045260246000fd5b600060028204905060018216806200026257607f821691505b6020821081036200027857620002776200021a565b5b50919050565b612eed806200028e6000396000f3fe608060405234801561001057600080fd5b50600436106100e95760003560e01c8063715018a61161008c578063bd85b03911610066578063bd85b0391461025a578063e985e9c51461028a578063f242432a146102ba578063f2fde38b146102d6576100e9565b8063715018a6146102165780638da5cb5b14610220578063a22cb4651461023e576100e9565b8063156e29f6116100c8578063156e29f61461017e5780632eb2c2d61461019a5780634e1273f4146101b65780634f558e79146101e6576100e9565b8062fdd58e146100ee57806301ffc9a71461011e5780630e89341c1461014e575b600080fd5b61010860048036038101906101039190611abe565b6102f2565b6040516101159190611b0d565b60405180910390f35b61013860048036038101906101339190611b80565b6103ba565b6040516101459190611bc8565b60405180910390f35b61016860048036038101906101639190611be3565b61049c565b6040516101759190611ca9565b60405180910390f35b61019860048036038101906101939190611ccb565b610530565b005b6101b460048036038101906101af9190611f1b565b610550565b005b6101d060048036038101906101cb91906120ad565b6105f1565b6040516101dd91906121e3565b60405180910390f35b61020060048036038101906101fb9190611be3565b61070a565b60405161020d9190611bc8565b60405180910390f35b61021e61071e565b005b610228610732565b6040516102359190612214565b60405180910390f35b6102586004803603810190610253919061225b565b61075c565b005b610274600480360381019061026f9190611be3565b610772565b6040516102819190611b0d565b60405180910390f35b6102a4600480360381019061029f919061229b565b61078f565b6040516102b19190611bc8565b60405180910390f35b6102d460048036038101906102cf91906122db565b610823565b005b6102f060048036038101906102eb9190612372565b6108c4565b005b60008073ffffffffffffffffffffffffffffffffffffffff168373ffffffffffffffffffffffffffffffffffffffff1603610362576040517f08c379a000000000000000000000000000000000000000000000000000000000815260040161035990612411565b60405180910390fd5b60008083815260200190815260200160002060008473ffffffffffffffffffffffffffffffffffffffff1673ffffffffffffffffffffffffffffffffffffffff16815260200190815260200160002054905092915050565b60007fd9b67a26000000000000000000000000000000000000000000000000000000007bffffffffffffffffffffffffffffffffffffffffffffffffffffffff1916827bffffffffffffffffffffffffffffffffffffffffffffffffffffffff1916148061048557507f0e89341c000000000000000000000000000000000000000000000000000000007bffffffffffffffffffffffffffffffffffffffffffffffffffffffff1916827bffffffffffffffffffffffffffffffffffffffffffffffffffffffff1916145b80610495575061049482610947565b5b9050919050565b6060600280546104ab90612460565b80601f01602080910402602001604051908101604052809291908181526020018280546104d790612460565b80156105245780601f106104f957610100808354040283529160200191610524565b820191906000526020600020905b81548152906001019060200180831161050757829003601f168201915b50505050509050919050565b61054b838383604051806020016040528060008152506109b1565b505050565b610558610b61565b73ffffffffffffffffffffffffffffffffffffffff168573ffffffffffffffffffffffffffffffffffffffff16148061059e575061059d85610598610b61565b61078f565b5b6105dd576040517f08c379a00000000000000000000000000000000000000000000000000000000081526004016105d490612503565b60405180910390fd5b6105ea8585858585610b69565b5050505050565b60608151835114610637576040517f08c379a000000000000000000000000000000000000000000000000000000000815260040161062e90612595565b60405180910390fd5b6000835167ffffffffffffffff81111561065457610653611d23565b5b6040519080825280602002602001820160405280156106825781602001602082028036833780820191505090505b50905060005b84518110156106ff576106cf8582815181106106a7576106a66125b5565b5b60200260200101518583815181106106c2576106c16125b5565b5b60200260200101516102f2565b8282815181106106e2576106e16125b5565b5b602002602001018181525050806106f890612613565b9050610688565b508091505092915050565b60008061071683610772565b119050919050565b610726610e8a565b6107306000610f08565b565b6000600460009054906101000a900473ffffffffffffffffffffffffffffffffffffffff16905090565b61076e610767610b61565b8383610fce565b5050565b600060036000838152602001908152602001600020549050919050565b6000600160008473ffffffffffffffffffffffffffffffffffffffff1673ffffffffffffffffffffffffffffffffffffffff16815260200190815260200160002060008373ffffffffffffffffffffffffffffffffffffffff1673ffffffffffffffffffffffffffffffffffffffff16815260200190815260200160002060009054906101000a900460ff16905092915050565b61082b610b61565b73ffffffffffffffffffffffffffffffffffffffff168573ffffffffffffffffffffffffffffffffffffffff16148061087157506108708561086b610b61565b61078f565b5b6108b0576040517f08c379a00000000000000000000000000000000000000000000000000000000081526004016108a790612503565b60405180910390fd5b6108bd858585858561113a565b5050505050565b6108cc610e8a565b600073ffffffffffffffffffffffffffffffffffffffff168173ffffffffffffffffffffffffffffffffffffffff160361093b576040517f08c379a0000000000000000000000000000000000000000000000000000000008152600401610932906126cd565b60405180910390fd5b61094481610f08565b50565b60007f01ffc9a7000000000000000000000000000000000000000000000000000000007bffffffffffffffffffffffffffffffffffffffffffffffffffffffff1916827bffffffffffffffffffffffffffffffffffffffffffffffffffffffff1916149050919050565b600073ffffffffffffffffffffffffffffffffffffffff168473ffffffffffffffffffffffffffffffffffffffff1603610a20576040517f08c379a0000000000000000000000000000000000000000000000000000000008152600401610a179061275f565b60405180910390fd5b6000610a2a610b61565b90506000610a37856113d5565b90506000610a44856113d5565b9050610a558360008985858961144f565b8460008088815260200190815260200160002060008973ffffffffffffffffffffffffffffffffffffffff1673ffffffffffffffffffffffffffffffffffffffff1681526020019081526020016000206000828254610ab4919061277f565b925050819055508673ffffffffffffffffffffffffffffffffffffffff16600073ffffffffffffffffffffffffffffffffffffffff168473ffffffffffffffffffffffffffffffffffffffff167fc3d58168c5ae7397731d063d5bbf3d657854427343f4c083240f7aacaa2d0f628989604051610b329291906127d5565b60405180910390a4610b4983600089858589611465565b610b588360008989898961146d565b50505050505050565b600033905090565b8151835114610bad576040517f08c379a0000000000000000000000000000000000000000000000000000000008152600401610ba490612870565b60405180910390fd5b600073ffffffffffffffffffffffffffffffffffffffff168473ffffffffffffffffffffffffffffffffffffffff1603610c1c576040517f08c379a0000000000000000000000000000000000000000000000000000000008152600401610c1390612902565b60405180910390fd5b6000610c26610b61565b9050610c3681878787878761144f565b60005b8451811015610de7576000858281518110610c5757610c566125b5565b5b602002602001015190506000858381518110610c7657610c756125b5565b5b60200260200101519050600080600084815260200190815260200160002060008b73ffffffffffffffffffffffffffffffffffffffff1673ffffffffffffffffffffffffffffffffffffffff16815260200190815260200160002054905081811015610d17576040517f08c379a0000000000000000000000000000000000000000000000000000000008152600401610d0e90612994565b60405180910390fd5b81810360008085815260200190815260200160002060008c73ffffffffffffffffffffffffffffffffffffffff1673ffffffffffffffffffffffffffffffffffffffff168152602001908152602001600020819055508160008085815260200190815260200160002060008b73ffffffffffffffffffffffffffffffffffffffff1673ffffffffffffffffffffffffffffffffffffffff1681526020019081526020016000206000828254610dcc919061277f565b9250508190555050505080610de090612613565b9050610c39565b508473ffffffffffffffffffffffffffffffffffffffff168673ffffffffffffffffffffffffffffffffffffffff168273ffffffffffffffffffffffffffffffffffffffff167f4a39dc06d4c0dbc64b70af90fd698a233a518aa5d07e595d983b8c0526c8f7fb8787604051610e5e9291906129b4565b60405180910390a4610e74818787878787611465565b610e82818787878787611644565b505050505050565b610e92610b61565b73ffffffffffffffffffffffffffffffffffffffff16610eb0610732565b73ffffffffffffffffffffffffffffffffffffffff1614610f06576040517f08c379a0000000000000000000000000000000000000000000000000000000008152600401610efd90612a37565b60405180910390fd5b565b6000600460009054906101000a900473ffffffffffffffffffffffffffffffffffffffff16905081600460006101000a81548173ffffffffffffffffffffffffffffffffffffffff021916908373ffffffffffffffffffffffffffffffffffffffff1602179055508173ffffffffffffffffffffffffffffffffffffffff168173ffffffffffffffffffffffffffffffffffffffff167f8be0079c531659141344cd1fd0a4f28419497f9722a3daafe3b4186f6b6457e060405160405180910390a35050565b8173ffffffffffffffffffffffffffffffffffffffff168373ffffffffffffffffffffffffffffffffffffffff160361103c576040517f08c379a000000000000000000000000000000000000000000000000000000000815260040161103390612ac9565b60405180910390fd5b80600160008573ffffffffffffffffffffffffffffffffffffffff1673ffffffffffffffffffffffffffffffffffffffff16815260200190815260200160002060008473ffffffffffffffffffffffffffffffffffffffff1673ffffffffffffffffffffffffffffffffffffffff16815260200190815260200160002060006101000a81548160ff0219169083151502179055508173ffffffffffffffffffffffffffffffffffffffff168373ffffffffffffffffffffffffffffffffffffffff167f17307eab39ab6107e8899845ad3d59bd9653f200f220920489ca2b5937696c318360405161112d9190611bc8565b60405180910390a3505050565b600073ffffffffffffffffffffffffffffffffffffffff168473ffffffffffffffffffffffffffffffffffffffff16036111a9576040517f08c379a00000000000000000000000000000000000000000000000000000000081526004016111a090612902565b60405180910390fd5b60006111b3610b61565b905060006111c0856113d5565b905060006111cd856113d5565b90506111dd83898985858961144f565b600080600088815260200190815260200160002060008a73ffffffffffffffffffffffffffffffffffffffff1673ffffffffffffffffffffffffffffffffffffffff16815260200190815260200160002054905085811015611274576040517f08c379a000000000000000000000000000000000000000000000000000000000815260040161126b90612994565b60405180910390fd5b85810360008089815260200190815260200160002060008b73ffffffffffffffffffffffffffffffffffffffff1673ffffffffffffffffffffffffffffffffffffffff168152602001908152602001600020819055508560008089815260200190815260200160002060008a73ffffffffffffffffffffffffffffffffffffffff1673ffffffffffffffffffffffffffffffffffffffff1681526020019081526020016000206000828254611329919061277f565b925050819055508773ffffffffffffffffffffffffffffffffffffffff168973ffffffffffffffffffffffffffffffffffffffff168573ffffffffffffffffffffffffffffffffffffffff167fc3d58168c5ae7397731d063d5bbf3d657854427343f4c083240f7aacaa2d0f628a8a6040516113a69291906127d5565b60405180910390a46113bc848a8a86868a611465565b6113ca848a8a8a8a8a61146d565b505050505050505050565b60606000600167ffffffffffffffff8111156113f4576113f3611d23565b5b6040519080825280602002602001820160405280156114225781602001602082028036833780820191505090505b509050828160008151811061143a576114396125b5565b5b60200260200101818152505080915050919050565b61145d86868686868661181b565b505050505050565b505050505050565b61148c8473ffffffffffffffffffffffffffffffffffffffff166119eb565b1561163c578373ffffffffffffffffffffffffffffffffffffffff1663f23a6e6187878686866040518663ffffffff1660e01b81526004016114d2959493929190612b3e565b6020604051808303816000875af192505050801561150e57506040513d601f19601f8201168201806040525081019061150b9190612bad565b60015b6115b35761151a612be7565b806308c379a003611576575061152e612c09565b806115395750611578565b806040517f08c379a000000000000000000000000000000000000000000000000000000000815260040161156d9190611ca9565b60405180910390fd5b505b6040517f08c379a00000000000000000000000000000000000000000000000000000000081526004016115aa90612d0b565b60405180910390fd5b63f23a6e6160e01b7bffffffffffffffffffffffffffffffffffffffffffffffffffffffff1916817bffffffffffffffffffffffffffffffffffffffffffffffffffffffff19161461163a576040517f08c379a000000000000000000000000000000000000000000000000000000000815260040161163190612d9d565b60405180910390fd5b505b505050505050565b6116638473ffffffffffffffffffffffffffffffffffffffff166119eb565b15611813578373ffffffffffffffffffffffffffffffffffffffff1663bc197c8187878686866040518663ffffffff1660e01b81526004016116a9959493929190612dbd565b6020604051808303816000875af19250505080156116e557506040513d601f19601f820116820180604052508101906116e29190612bad565b60015b61178a576116f1612be7565b806308c379a00361174d5750611705612c09565b80611710575061174f565b806040517f08c379a00000000000000000000000000000000000000000000000000000000081526004016117449190611ca9565b60405180910390fd5b505b6040517f08c379a000000000000000000000000000000000000000000000000000000000815260040161178190612d0b565b60405180910390fd5b63bc197c8160e01b7bffffffffffffffffffffffffffffffffffffffffffffffffffffffff1916817bffffffffffffffffffffffffffffffffffffffffffffffffffffffff191614611811576040517f08c379a000000000000000000000000000000000000000000000000000000000815260040161180890612d9d565b60405180910390fd5b505b505050505050565b611829868686868686611a0e565b600073ffffffffffffffffffffffffffffffffffffffff168573ffffffffffffffffffffffffffffffffffffffff16036118da5760005b83518110156118d85782818151811061187c5761187b6125b5565b5b60200260200101516003600086848151811061189b5761189a6125b5565b5b6020026020010151815260200190815260200160002060008282546118c0919061277f565b92505081905550806118d190612613565b9050611860565b505b600073ffffffffffffffffffffffffffffffffffffffff168473ffffffffffffffffffffffffffffffffffffffff16036119e35760005b83518110156119e157600084828151811061192f5761192e6125b5565b5b60200260200101519050600084838151811061194e5761194d6125b5565b5b60200260200101519050600060036000848152602001908152602001600020549050818110156119b3576040517f08c379a00000000000000000000000000000000000000000000000000000000081526004016119aa90612e97565b60405180910390fd5b8181036003600085815260200190815260200160002081905550505050806119da90612613565b9050611911565b505b505050505050565b6000808273ffffffffffffffffffffffffffffffffffffffff163b119050919050565b505050505050565b6000604051905090565b600080fd5b600080fd5b600073ffffffffffffffffffffffffffffffffffffffff82169050919050565b6000611a5582611a2a565b9050919050565b611a6581611a4a565b8114611a7057600080fd5b50565b600081359050611a8281611a5c565b92915050565b6000819050919050565b611a9b81611a88565b8114611aa657600080fd5b50565b600081359050611ab881611a92565b92915050565b60008060408385031215611ad557611ad4611a20565b5b6000611ae385828601611a73565b9250506020611af485828601611aa9565b9150509250929050565b611b0781611a88565b82525050565b6000602082019050611b226000830184611afe565b92915050565b60007fffffffff0000000000000000000000000000000000000000000000000000000082169050919050565b611b5d81611b28565b8114611b6857600080fd5b50565b600081359050611b7a81611b54565b92915050565b600060208284031215611b9657611b95611a20565b5b6000611ba484828501611b6b565b91505092915050565b60008115159050919050565b611bc281611bad565b82525050565b6000602082019050611bdd6000830184611bb9565b92915050565b600060208284031215611bf957611bf8611a20565b5b6000611c0784828501611aa9565b91505092915050565b600081519050919050565b600082825260208201905092915050565b60005b83811015611c4a578082015181840152602081019050611c2f565b83811115611c59576000848401525b50505050565b6000601f19601f8301169050919050565b6000611c7b82611c10565b611c858185611c1b565b9350611c95818560208601611c2c565b611c9e81611c5f565b840191505092915050565b60006020820190508181036000830152611cc38184611c70565b905092915050565b600080600060608486031215611ce457611ce3611a20565b5b6000611cf286828701611a73565b9350506020611d0386828701611aa9565b9250506040611d1486828701611aa9565b9150509250925092565b600080fd5b7f4e487b7100000000000000000000000000000000000000000000000000000000600052604160045260246000fd5b611d5b82611c5f565b810181811067ffffffffffffffff82111715611d7a57611d79611d23565b5b80604052505050565b6000611d8d611a16565b9050611d998282611d52565b919050565b600067ffffffffffffffff821115611db957611db8611d23565b5b602082029050602081019050919050565b600080fd5b6000611de2611ddd84611d9e565b611d83565b90508083825260208201905060208402830185811115611e0557611e04611dca565b5b835b81811015611e2e5780611e1a8882611aa9565b845260208401935050602081019050611e07565b5050509392505050565b600082601f830112611e4d57611e4c611d1e565b5b8135611e5d848260208601611dcf565b91505092915050565b600080fd5b600067ffffffffffffffff821115611e8657611e85611d23565b5b611e8f82611c5f565b9050602081019050919050565b82818337600083830152505050565b6000611ebe611eb984611e6b565b611d83565b905082815260208101848484011115611eda57611ed9611e66565b5b611ee5848285611e9c565b509392505050565b600082601f830112611f0257611f01611d1e565b5b8135611f12848260208601611eab565b91505092915050565b600080600080600060a08688031215611f3757611f36611a20565b5b6000611f4588828901611a73565b9550506020611f5688828901611a73565b945050604086013567ffffffffffffffff811115611f7757611f76611a25565b5b611f8388828901611e38565b935050606086013567ffffffffffffffff811115611fa457611fa3611a25565b5b611fb088828901611e38565b925050608086013567ffffffffffffffff811115611fd157611fd0611a25565b5b611fdd88828901611eed565b9150509295509295909350565b600067ffffffffffffffff82111561200557612004611d23565b5b602082029050602081019050919050565b600061202961202484611fea565b611d83565b9050808382526020820190506020840283018581111561204c5761204b611dca565b5b835b8181101561207557806120618882611a73565b84526020840193505060208101905061204e565b5050509392505050565b600082601f83011261209457612093611d1e565b5b81356120a4848260208601612016565b91505092915050565b600080604083850312156120c4576120c3611a20565b5b600083013567ffffffffffffffff8111156120e2576120e1611a25565b5b6120ee8582860161207f565b925050602083013567ffffffffffffffff81111561210f5761210e611a25565b5b61211b85828601611e38565b9150509250929050565b600081519050919050565b600082825260208201905092915050565b6000819050602082019050919050565b61215a81611a88565b82525050565b600061216c8383612151565b60208301905092915050565b6000602082019050919050565b600061219082612125565b61219a8185612130565b93506121a583612141565b8060005b838110156121d65781516121bd8882612160565b97506121c883612178565b9250506001810190506121a9565b5085935050505092915050565b600060208201905081810360008301526121fd8184612185565b905092915050565b61220e81611a4a565b82525050565b60006020820190506122296000830184612205565b92915050565b61223881611bad565b811461224357600080fd5b50565b6000813590506122558161222f565b92915050565b6000806040838503121561227257612271611a20565b5b600061228085828601611a73565b925050602061229185828601612246565b9150509250929050565b600080604083850312156122b2576122b1611a20565b5b60006122c085828601611a73565b92505060206122d185828601611a73565b9150509250929050565b600080600080600060a086880312156122f7576122f6611a20565b5b600061230588828901611a73565b955050602061231688828901611a73565b945050604061232788828901611aa9565b935050606061233888828901611aa9565b925050608086013567ffffffffffffffff81111561235957612358611a25565b5b61236588828901611eed565b9150509295509295909350565b60006020828403121561238857612387611a20565b5b600061239684828501611a73565b91505092915050565b7f455243313135353a2061646472657373207a65726f206973206e6f742061207660008201527f616c6964206f776e657200000000000000000000000000000000000000000000602082015250565b60006123fb602a83611c1b565b91506124068261239f565b604082019050919050565b6000602082019050818103600083015261242a816123ee565b9050919050565b7f4e487b7100000000000000000000000000000000000000000000000000000000600052602260045260246000fd5b6000600282049050600182168061247857607f821691505b60208210810361248b5761248a612431565b5b50919050565b7f455243313135353a2063616c6c6572206973206e6f7420746f6b656e206f776e60008201527f6572206f7220617070726f766564000000000000000000000000000000000000602082015250565b60006124ed602e83611c1b565b91506124f882612491565b604082019050919050565b6000602082019050818103600083015261251c816124e0565b9050919050565b7f455243313135353a206163636f756e747320616e6420696473206c656e67746860008201527f206d69736d617463680000000000000000000000000000000000000000000000602082015250565b600061257f602983611c1b565b915061258a82612523565b604082019050919050565b600060208201905081810360008301526125ae81612572565b9050919050565b7f4e487b7100000000000000000000000000000000000000000000000000000000600052603260045260246000fd5b7f4e487b7100000000000000000000000000000000000000000000000000000000600052601160045260246000fd5b600061261e82611a88565b91507fffffffffffffffffffffffffffffffffffffffffffffffffffffffffffffffff82036126505761264f6125e4565b5b600182019050919050565b7f4f776e61626c653a206e6577206f776e657220697320746865207a65726f206160008201527f6464726573730000000000000000000000000000000000000000000000000000602082015250565b60006126b7602683611c1b565b91506126c28261265b565b604082019050919050565b600060208201905081810360008301526126e6816126aa565b9050919050565b7f455243313135353a206d696e7420746f20746865207a65726f2061646472657360008201527f7300000000000000000000000000000000000000000000000000000000000000602082015250565b6000612749602183611c1b565b9150612754826126ed565b604082019050919050565b600060208201905081810360008301526127788161273c565b9050919050565b600061278a82611a88565b915061279583611a88565b9250827fffffffffffffffffffffffffffffffffffffffffffffffffffffffffffffffff038211156127ca576127c96125e4565b5b828201905092915050565b60006040820190506127ea6000830185611afe565b6127f76020830184611afe565b9392505050565b7f455243313135353a2069647320616e6420616d6f756e7473206c656e6774682060008201527f6d69736d61746368000000000000000000000000000000000000000000000000602082015250565b600061285a602883611c1b565b9150612865826127fe565b604082019050919050565b600060208201905081810360008301526128898161284d565b9050919050565b7f455243313135353a207472616e7366657220746f20746865207a65726f20616460008201527f6472657373000000000000000000000000000000000000000000000000000000602082015250565b60006128ec602583611c1b565b91506128f782612890565b604082019050919050565b6000602082019050818103600083015261291b816128df565b9050919050565b7f455243313135353a20696e73756666696369656e742062616c616e636520666f60008201527f72207472616e7366657200000000000000000000000000000000000000000000602082015250565b600061297e602a83611c1b565b915061298982612922565b604082019050919050565b600060208201905081810360008301526129ad81612971565b9050919050565b600060408201905081810360008301526129ce8185612185565b905081810360208301526129e28184612185565b90509392505050565b7f4f776e61626c653a2063616c6c6572206973206e6f7420746865206f776e6572600082015250565b6000612a21602083611c1b565b9150612a2c826129eb565b602082019050919050565b60006020820190508181036000830152612a5081612a14565b9050919050565b7f455243313135353a2073657474696e6720617070726f76616c2073746174757360008201527f20666f722073656c660000000000000000000000000000000000000000000000602082015250565b6000612ab3602983611c1b565b9150612abe82612a57565b604082019050919050565b60006020820190508181036000830152612ae281612aa6565b9050919050565b600081519050919050565b600082825260208201905092915050565b6000612b1082612ae9565b612b1a8185612af4565b9350612b2a818560208601611c2c565b612b3381611c5f565b840191505092915050565b600060a082019050612b536000830188612205565b612b606020830187612205565b612b6d6040830186611afe565b612b7a6060830185611afe565b8181036080830152612b8c8184612b05565b90509695505050505050565b600081519050612ba781611b54565b92915050565b600060208284031215612bc357612bc2611a20565b5b6000612bd184828501612b98565b91505092915050565b60008160e01c9050919050565b600060033d1115612c065760046000803e612c03600051612bda565b90505b90565b600060443d10612c9657612c1b611a16565b60043d036004823e80513d602482011167ffffffffffffffff82111715612c43575050612c96565b808201805167ffffffffffffffff811115612c615750505050612c96565b80602083010160043d038501811115612c7e575050505050612c96565b612c8d82602001850186611d52565b82955050505050505b90565b7f455243313135353a207472616e7366657220746f206e6f6e2d4552433131353560008201527f526563656976657220696d706c656d656e746572000000000000000000000000602082015250565b6000612cf5603483611c1b565b9150612d0082612c99565b604082019050919050565b60006020820190508181036000830152612d2481612ce8565b9050919050565b7f455243313135353a204552433131353552656365697665722072656a6563746560008201527f6420746f6b656e73000000000000000000000000000000000000000000000000602082015250565b6000612d87602883611c1b565b9150612d9282612d2b565b604082019050919050565b60006020820190508181036000830152612db681612d7a565b9050919050565b600060a082019050612dd26000830188612205565b612ddf6020830187612205565b8181036040830152612df18186612185565b90508181036060830152612e058185612185565b90508181036080830152612e198184612b05565b90509695505050505050565b7f455243313135353a206275726e20616d6f756e74206578636565647320746f7460008201527f616c537570706c79000000000000000000000000000000000000000000000000602082015250565b6000612e81602883611c1b565b9150612e8c82612e25565b604082019050919050565b60006020820190508181036000830152612eb081612e74565b905091905056fea2646970667358221220b18d9e1c8ef7dc1a5870aea37f9f8443bbcd4a79dbf668f9525114cbb4c838b364736f6c634300080d0033",
  "immutableReferences": {},
  "source": "// SPDX-License-Identifier: MIT\npragma solidity ^0.8.13;\n\nimport \"../node_modules/@openzeppelin/contracts/token/ERC1155/ERC1155.sol\";\nimport \"../node_modules/@openzeppelin/contracts/access/Ownable.sol\";\nimport \"../node_modules/@openzeppelin/contracts/token/ERC1155/extensions/ERC1155Supply.sol\";\n\ncontract ProjectsToken is ERC1155, ERC1155Supply, Ownable {\n    constructor() ERC1155(\"uri\") {\n\n    }\n\n    function _beforeTokenTransfer(address operator, address from, address to, uint256[] memory ids, uint256[] memory amounts, bytes memory data) internal override(ERC1155, ERC1155Supply) {\n        super._beforeTokenTransfer(operator, from, to, ids, amounts, data);\n    }\n\n    function mint(address account, uint256 id, uint256 amount) public {\n        _mint(account, id, amount, \"\");\n    }\n\n}\n",
  "sourcePath": "c:\\Users\\User\\Desktop\\\\davidson\\project\\DavidsonProject\\Smart Contract\\contracts\\ProjectsToken.sol",
  "compiler": {
    "name": "solc",
    "version": "0.8.13+commit.abaa5c0e.Emscripten.clang"
  },
  "schemaVersion": "3.4.7",
  "updatedAt": "2024-03-11T16:24:00.656Z",
  "networkType": "ethereum",
  "devdoc": {
    "kind": "dev",
    "methods": {
      "balanceOf(address,uint256)": {
        "details": "See {IERC1155-balanceOf}. Requirements: - `account` cannot be the zero address."
      },
      "balanceOfBatch(address[],uint256[])": {
        "details": "See {IERC1155-balanceOfBatch}. Requirements: - `accounts` and `ids` must have the same length."
      },
      "exists(uint256)": {
        "details": "Indicates whether any token exist with a given id, or not."
      },
      "isApprovedForAll(address,address)": {
        "details": "See {IERC1155-isApprovedForAll}."
      },
      "owner()": {
        "details": "Returns the address of the current owner."
      },
      "renounceOwnership()": {
        "details": "Leaves the contract without owner. It will not be possible to call `onlyOwner` functions. Can only be called by the current owner. NOTE: Renouncing ownership will leave the contract without an owner, thereby disabling any functionality that is only available to the owner."
      },
      "safeBatchTransferFrom(address,address,uint256[],uint256[],bytes)": {
        "details": "See {IERC1155-safeBatchTransferFrom}."
      },
      "safeTransferFrom(address,address,uint256,uint256,bytes)": {
        "details": "See {IERC1155-safeTransferFrom}."
      },
      "setApprovalForAll(address,bool)": {
        "details": "See {IERC1155-setApprovalForAll}."
      },
      "supportsInterface(bytes4)": {
        "details": "See {IERC165-supportsInterface}."
      },
      "totalSupply(uint256)": {
        "details": "Total amount of tokens in with a given id."
      },
      "transferOwnership(address)": {
        "details": "Transfers ownership of the contract to a new account (`newOwner`). Can only be called by the current owner."
      },
      "uri(uint256)": {
        "details": "See {IERC1155MetadataURI-uri}. This implementation returns the same URI for *all* token types. It relies on the token type ID substitution mechanism https://eips.ethereum.org/EIPS/eip-1155#metadata[defined in the EIP]. Clients calling this function must replace the `\\{id\\}` substring with the actual token type ID."
      }
    },
    "version": 1
  },
  "userdoc": {
    "kind": "user",
    "methods": {},
    "version": 1
  }
}