{
  "contractName": "Projects",
  "abi": [
    {
      "inputs": [
        {
          "internalType": "address",
          "name": "tokenAddress",
          "type": "address"
        }
      ],
      "stateMutability": "nonpayable",
      "type": "constructor"
    },
    {
      "anonymous": false,
      "inputs": [
        {
          "indexed": false,
          "internalType": "string",
          "name": "message",
          "type": "string"
        },
        {
          "indexed": false,
          "internalType": "string",
          "name": "projectName",
          "type": "string"
        },
        {
          "indexed": false,
          "internalType": "string",
          "name": "changeCID",
          "type": "string"
        }
      ],
      "name": "NewChangeIsMadeToProject",
      "type": "event"
    },
    {
      "anonymous": false,
      "inputs": [
        {
          "indexed": false,
          "internalType": "string",
          "name": "message",
          "type": "string"
        },
        {
          "indexed": false,
          "internalType": "string",
          "name": "Name",
          "type": "string"
        },
        {
          "indexed": false,
          "internalType": "string",
          "name": "CID",
          "type": "string"
        },
        {
          "indexed": false,
          "internalType": "uint256",
          "name": "indexValue",
          "type": "uint256"
        }
      ],
      "name": "NewChangeProposalCreated",
      "type": "event"
    },
    {
      "anonymous": false,
      "inputs": [
        {
          "indexed": false,
          "internalType": "string",
          "name": "message",
          "type": "string"
        },
        {
          "indexed": false,
          "internalType": "string",
          "name": "name",
          "type": "string"
        },
        {
          "indexed": false,
          "internalType": "uint256",
          "name": "value",
          "type": "uint256"
        }
      ],
      "name": "NewProjectCreated",
      "type": "event"
    },
    {
      "anonymous": false,
      "inputs": [
        {
          "indexed": false,
          "internalType": "string",
          "name": "message",
          "type": "string"
        },
        {
          "indexed": false,
          "internalType": "string",
          "name": "projectName",
          "type": "string"
        },
        {
          "indexed": false,
          "internalType": "string",
          "name": "changeProposalCID",
          "type": "string"
        },
        {
          "indexed": false,
          "internalType": "address",
          "name": "voter",
          "type": "address"
        },
        {
          "indexed": false,
          "internalType": "uint256",
          "name": "votes",
          "type": "uint256"
        }
      ],
      "name": "NewVoteForChangeProposal",
      "type": "event"
    },
    {
      "anonymous": false,
      "inputs": [
        {
          "indexed": false,
          "internalType": "string",
          "name": "message",
          "type": "string"
        },
        {
          "indexed": false,
          "internalType": "string",
          "name": "changeCID",
          "type": "string"
        },
        {
          "indexed": false,
          "internalType": "string",
          "name": "ProjectName",
          "type": "string"
        }
      ],
      "name": "ProjectWentBack",
      "type": "event"
    },
    {
      "anonymous": false,
      "inputs": [
        {
          "indexed": false,
          "internalType": "string",
          "name": "message",
          "type": "string"
        },
        {
          "indexed": false,
          "internalType": "uint256",
          "name": "lastDistributionTime",
          "type": "uint256"
        }
      ],
      "name": "TokensDisributed",
      "type": "event"
    },
    {
      "inputs": [
        {
          "internalType": "string",
          "name": "",
          "type": "string"
        }
      ],
      "name": "NameToID",
      "outputs": [
        {
          "internalType": "uint256",
          "name": "",
          "type": "uint256"
        }
      ],
      "stateMutability": "view",
      "type": "function",
      "constant": true
    },
    {
      "inputs": [],
      "name": "TimeLockInterval",
      "outputs": [
        {
          "internalType": "uint256",
          "name": "",
          "type": "uint256"
        }
      ],
      "stateMutability": "view",
      "type": "function",
      "constant": true
    },
    {
      "inputs": [],
      "name": "token",
      "outputs": [
        {
          "internalType": "contract ProjectsToken",
          "name": "",
          "type": "address"
        }
      ],
      "stateMutability": "view",
      "type": "function",
      "constant": true
    },
    {
      "inputs": [
        {
          "internalType": "string",
          "name": "_CID",
          "type": "string"
        },
        {
          "internalType": "string",
          "name": "projectName",
          "type": "string"
        }
      ],
      "name": "createProject",
      "outputs": [],
      "stateMutability": "nonpayable",
      "type": "function"
    },
    {
      "inputs": [
        {
          "internalType": "string",
          "name": "_changeCID",
          "type": "string"
        },
        {
          "internalType": "string",
          "name": "_projectName",
          "type": "string"
        }
      ],
      "name": "MakeChangeProposal",
      "outputs": [],
      "stateMutability": "nonpayable",
      "type": "function"
    },
    {
      "inputs": [
        {
          "internalType": "string",
          "name": "_changeCID",
          "type": "string"
        },
        {
          "internalType": "string",
          "name": "_projectName",
          "type": "string"
        }
      ],
      "name": "MakeGoBackProposal",
      "outputs": [],
      "stateMutability": "nonpayable",
      "type": "function"
    },
    {
      "inputs": [
        {
          "internalType": "string",
          "name": "_projectName",
          "type": "string"
        },
        {
          "internalType": "string",
          "name": "_changeCID",
          "type": "string"
        }
      ],
      "name": "acceptGoBack",
      "outputs": [],
      "stateMutability": "nonpayable",
      "type": "function"
    },
    {
      "inputs": [
        {
          "internalType": "string",
          "name": "_proposedChangeCID",
          "type": "string"
        },
        {
          "internalType": "string",
          "name": "_projectName",
          "type": "string"
        }
      ],
      "name": "acceptChangeProposal",
      "outputs": [],
      "stateMutability": "nonpayable",
      "type": "function"
    },
    {
      "inputs": [
        {
          "internalType": "string",
          "name": "_changeProposalCID",
          "type": "string"
        },
        {
          "internalType": "string",
          "name": "_projectName",
          "type": "string"
        }
      ],
      "name": "voteForChangeProposal",
      "outputs": [],
      "stateMutability": "nonpayable",
      "type": "function"
    },
    {
      "inputs": [
        {
          "internalType": "address",
          "name": "_UserAddress",
          "type": "address"
        },
        {
          "internalType": "string",
          "name": "_projectName",
          "type": "string"
        }
      ],
      "name": "getBalance",
      "outputs": [
        {
          "internalType": "uint256",
          "name": "",
          "type": "uint256"
        }
      ],
      "stateMutability": "view",
      "type": "function",
      "constant": true
    },
    {
      "inputs": [
        {
          "internalType": "string",
          "name": "_projectName",
          "type": "string"
        },
        {
          "internalType": "bool",
          "name": "changesOrChangeProposals",
          "type": "bool"
        }
      ],
      "name": "getChangesOrProposals",
      "outputs": [
        {
          "internalType": "string[]",
          "name": "",
          "type": "string[]"
        }
      ],
      "stateMutability": "view",
      "type": "function",
      "constant": true
    },
    {
      "inputs": [
        {
          "internalType": "string",
          "name": "_projectName",
          "type": "string"
        }
      ],
      "name": "getAddresses",
      "outputs": [
        {
          "internalType": "address[]",
          "name": "",
          "type": "address[]"
        }
      ],
      "stateMutability": "view",
      "type": "function",
      "constant": true
    },
    {
      "inputs": [],
      "name": "getLastProjects",
      "outputs": [
        {
          "internalType": "string[]",
          "name": "",
          "type": "string[]"
        }
      ],
      "stateMutability": "view",
      "type": "function",
      "constant": true
    },
    {
      "inputs": [
        {
          "internalType": "string",
          "name": "projectName",
          "type": "string"
        }
      ],
      "name": "getLastDistriubtionTime",
      "outputs": [
        {
          "internalType": "uint256",
          "name": "",
          "type": "uint256"
        }
      ],
      "stateMutability": "view",
      "type": "function",
      "constant": true
    },
    {
      "inputs": [
        {
          "internalType": "address",
          "name": "usr",
          "type": "address"
        },
        {
          "internalType": "string",
          "name": "projectName",
          "type": "string"
        }
      ],
      "name": "getPendingTokens",
      "outputs": [
        {
          "internalType": "uint256",
          "name": "",
          "type": "uint256"
        }
      ],
      "stateMutability": "view",
      "type": "function",
      "constant": true
    }
  ],
  "bytecode": "0x60a060405260f06080908152503480156200001957600080fd5b50604051620035ef380380620035ef83398181016040528101906200003f9190620000f1565b80600260006101000a81548173ffffffffffffffffffffffffffffffffffffffff021916908373ffffffffffffffffffffffffffffffffffffffff1602179055505062000123565b600080fd5b600073ffffffffffffffffffffffffffffffffffffffff82169050919050565b6000620000b9826200008c565b9050919050565b620000cb81620000ac565b8114620000d757600080fd5b50565b600081519050620000eb81620000c0565b92915050565b6000602082840312156200010a576200010962000087565b5b60006200011a84828501620000da565b91505092915050565b6080516134b06200013f60003960006113dc01526134b06000f3fe608060405234801561001057600080fd5b50600436106100f55760003560e01c8063750354d211610097578063a563596311610066578063a5635963146102aa578063c4687fb8146102c6578063ed0c2d90146102e2578063fc0c546a146102fe576100f5565b8063750354d2146102365780637a5945da146102525780638d1446fc14610270578063a54d804d1461028c576100f5565b806339b64c30116100d357806339b64c301461018a57806347d8899a146101ba57806354696993146101ea5780636bd062041461021a576100f5565b80631d7147d8146100fa5780631dd7cecf1461012a57806333846eba1461015a575b600080fd5b610114600480360381019061010f91906120e9565b61031c565b60405161012191906122a4565b60405180910390f35b610144600480360381019061013f9190612324565b610535565b604051610151919061239d565b60405180910390f35b610174600480360381019061016f91906124e8565b610741565b604051610181919061239d565b60405180910390f35b6101a4600480360381019061019f9190612531565b61076f565b6040516101b1919061263c565b60405180910390f35b6101d460048036038101906101cf9190612531565b610985565b6040516101e1919061239d565b60405180910390f35b61020460048036038101906101ff9190612324565b610b1e565b604051610211919061239d565b60405180910390f35b610234600480360381019061022f919061265e565b610cf5565b005b610250600480360381019061024b91906126d6565b610eb0565b005b61025a6113da565b604051610267919061239d565b60405180910390f35b61028a600480360381019061028591906126d6565b6113fe565b005b61029461178c565b6040516102a191906122a4565b60405180910390f35b6102c460048036038101906102bf91906126d6565b61192a565b005b6102e060048036038101906102db9190612752565b611aff565b005b6102fc60048036038101906102f791906126d6565b611d37565b005b610306611f6f565b604051610313919061282d565b60405180910390f35b606083838080601f016020809104026020016040519081016040528093929190818152602001838380828437600081840152601f19601f82011690508083019250505050505050600080826040516103749190612884565b9081526020016040518091039020549050600260009054906101000a900473ffffffffffffffffffffffffffffffffffffffff1673ffffffffffffffffffffffffffffffffffffffff16634f558e79826040518263ffffffff1660e01b81526004016103e0919061239d565b602060405180830381865afa1580156103fd573d6000803e3d6000fd5b505050506040513d601f19601f8201168201806040525081019061042191906128b0565b610460576040517f08c379a00000000000000000000000000000000000000000000000000000000081526004016104579061293a565b60405180910390fd5b600080878760405161047392919061297f565b90815260200160405180910390205490506001818154811061049857610497612998565b5b90600052602060002090600a020160010173__ChangesLibrary________________________63e3e26be89091876040518363ffffffff1660e01b81526004016104e39291906129dd565b600060405180830381865af4158015610500573d6000803e3d6000fd5b505050506040513d6000823e3d601f19601f820116820180604052508101906105299190612b57565b93505050509392505050565b600082828080601f016020809104026020016040519081016040528093929190818152602001838380828437600081840152601f19601f820116905080830192505050505050506000808260405161058d9190612884565b9081526020016040518091039020549050600260009054906101000a900473ffffffffffffffffffffffffffffffffffffffff1673ffffffffffffffffffffffffffffffffffffffff16634f558e79826040518263ffffffff1660e01b81526004016105f9919061239d565b602060405180830381865afa158015610616573d6000803e3d6000fd5b505050506040513d601f19601f8201168201806040525081019061063a91906128b0565b610679576040517f08c379a00000000000000000000000000000000000000000000000000000000081526004016106709061293a565b60405180910390fd5b600260009054906101000a900473ffffffffffffffffffffffffffffffffffffffff1673ffffffffffffffffffffffffffffffffffffffff1662fdd58e87600088886040516106c992919061297f565b9081526020016040518091039020546040518363ffffffff1660e01b81526004016106f5929190612baf565b602060405180830381865afa158015610712573d6000803e3d6000fd5b505050506040513d601f19601f820116820180604052508101906107369190612c04565b925050509392505050565b6000818051602081018201805184825260208301602085012081835280955050505050506000915090505481565b606082828080601f016020809104026020016040519081016040528093929190818152602001838380828437600081840152601f19601f82011690508083019250505050505050600080826040516107c79190612884565b9081526020016040518091039020549050600260009054906101000a900473ffffffffffffffffffffffffffffffffffffffff1673ffffffffffffffffffffffffffffffffffffffff16634f558e79826040518263ffffffff1660e01b8152600401610833919061239d565b602060405180830381865afa158015610850573d6000803e3d6000fd5b505050506040513d601f19601f8201168201806040525081019061087491906128b0565b6108b3576040517f08c379a00000000000000000000000000000000000000000000000000000000081526004016108aa9061293a565b60405180910390fd5b60008086866040516108c692919061297f565b9081526020016040518091039020549050600181815481106108eb576108ea612998565b5b90600052602060002090600a020160010173__ChangesLibrary________________________635a45338590916040518263ffffffff1660e01b81526004016109349190612c31565b600060405180830381865af4158015610951573d6000803e3d6000fd5b505050506040513d6000823e3d601f19601f8201168201806040525081019061097a9190612d24565b935050505092915050565b600082828080601f016020809104026020016040519081016040528093929190818152602001838380828437600081840152601f19601f82011690508083019250505050505050600080826040516109dd9190612884565b9081526020016040518091039020549050600260009054906101000a900473ffffffffffffffffffffffffffffffffffffffff1673ffffffffffffffffffffffffffffffffffffffff16634f558e79826040518263ffffffff1660e01b8152600401610a49919061239d565b602060405180830381865afa158015610a66573d6000803e3d6000fd5b505050506040513d601f19601f82011682018060405250810190610a8a91906128b0565b610ac9576040517f08c379a0000000000000000000000000000000000000000000000000000000008152600401610ac09061293a565b60405180910390fd5b6000808686604051610adc92919061297f565b908152602001604051809103902054905060018181548110610b0157610b00612998565b5b90600052602060002090600a020160050154935050505092915050565b600082828080601f016020809104026020016040519081016040528093929190818152602001838380828437600081840152601f19601f8201169050808301925050505050505060008082604051610b769190612884565b9081526020016040518091039020549050600260009054906101000a900473ffffffffffffffffffffffffffffffffffffffff1673ffffffffffffffffffffffffffffffffffffffff16634f558e79826040518263ffffffff1660e01b8152600401610be2919061239d565b602060405180830381865afa158015610bff573d6000803e3d6000fd5b505050506040513d601f19601f82011682018060405250810190610c2391906128b0565b610c62576040517f08c379a0000000000000000000000000000000000000000000000000000000008152600401610c599061293a565b60405180910390fd5b6000808686604051610c7592919061297f565b908152602001604051809103902054905060018181548110610c9a57610c99612998565b5b90600052602060002090600a020160070160008873ffffffffffffffffffffffffffffffffffffffff1673ffffffffffffffffffffffffffffffffffffffff1681526020019081526020016000205493505050509392505050565b6000600180549050905080600083604051610d109190612884565b908152602001604051809103902081905550600260009054906101000a900473ffffffffffffffffffffffffffffffffffffffff1673ffffffffffffffffffffffffffffffffffffffff1663156e29f6338360646040518463ffffffff1660e01b8152600401610d8293929190612da8565b600060405180830381600087803b158015610d9c57600080fd5b505af1158015610db0573d6000803e3d6000fd5b505050506000600180816001815401808255809150500390600052602060002090600a0201905082816000019080519060200190610def929190611f95565b508060010173__ChangesLibrary________________________63aaff905a9091866040518363ffffffff1660e01b8152600401610e2e929190612e29565b60006040518083038186803b158015610e4657600080fd5b505af4158015610e5a573d6000803e3d6000fd5b50505050606481600601819055504281600501819055507fe224389b386caecb8e3b38edc39361c7227e3ef820a8276bc31ac9cf1ba69fcd8383604051610ea2929190612ede565b60405180910390a150505050565b81818080601f016020809104026020016040519081016040528093929190818152602001838380828437600081840152601f19601f8201169050808301925050505050505060008082604051610f069190612884565b9081526020016040518091039020549050600260009054906101000a900473ffffffffffffffffffffffffffffffffffffffff1673ffffffffffffffffffffffffffffffffffffffff16634f558e79826040518263ffffffff1660e01b8152600401610f72919061239d565b602060405180830381865afa158015610f8f573d6000803e3d6000fd5b505050506040513d601f19601f82011682018060405250810190610fb391906128b0565b610ff2576040517f08c379a0000000000000000000000000000000000000000000000000000000008152600401610fe99061293a565b60405180910390fd5b600080858560405161100592919061297f565b9081526020016040518091039020549050600015156001828154811061102e5761102d612998565b5b90600052602060002090600a02016009018760405161104d9190612884565b908152602001604051809103902060003373ffffffffffffffffffffffffffffffffffffffff1673ffffffffffffffffffffffffffffffffffffffff16815260200190815260200160002060009054906101000a900460ff161515146110e8576040517f08c379a00000000000000000000000000000000000000000000000000000000081526004016110df90612f6d565b60405180910390fd5b6000600260009054906101000a900473ffffffffffffffffffffffffffffffffffffffff1673ffffffffffffffffffffffffffffffffffffffff1662fdd58e33846040518363ffffffff1660e01b8152600401611146929190612baf565b602060405180830381865afa158015611163573d6000803e3d6000fd5b505050506040513d601f19601f820116820180604052508101906111879190612c04565b9050600081116111cc576040517f08c379a00000000000000000000000000000000000000000000000000000000081526004016111c390612fd9565b60405180910390fd5b600182815481106111e0576111df612998565b5b90600052602060002090600a020160010173__ChangesLibrary________________________637dba11cb909189846040518463ffffffff1660e01b815260040161122d93929190613008565b60006040518083038186803b15801561124557600080fd5b505af4158015611259573d6000803e3d6000fd5b50505050600180838154811061127257611271612998565b5b90600052602060002090600a0201600901886040516112919190612884565b908152602001604051809103902060003373ffffffffffffffffffffffffffffffffffffffff1673ffffffffffffffffffffffffffffffffffffffff16815260200190815260200160002060006101000a81548160ff0219169083151502179055507f0defd832aa647eb845ac2ed5e414ba9da1d13d7c3b2028fea20853913891174d868689336001878154811061132c5761132b612998565b5b90600052602060002090600a020160010173__ChangesLibrary________________________63ca5451d290918e6040518363ffffffff1660e01b8152600401611377929190612e29565b602060405180830381865af4158015611394573d6000803e3d6000fd5b505050506040513d601f19601f820116820180604052508101906113b89190612c04565b6040516113c99594939291906130bf565b60405180910390a150505050505050565b7f000000000000000000000000000000000000000000000000000000000000000081565b81818080601f016020809104026020016040519081016040528093929190818152602001838380828437600081840152601f19601f82011690508083019250505050505050600080826040516114549190612884565b9081526020016040518091039020549050600260009054906101000a900473ffffffffffffffffffffffffffffffffffffffff1673ffffffffffffffffffffffffffffffffffffffff16634f558e79826040518263ffffffff1660e01b81526004016114c0919061239d565b602060405180830381865afa1580156114dd573d6000803e3d6000fd5b505050506040513d601f19601f8201168201806040525081019061150191906128b0565b611540576040517f08c379a00000000000000000000000000000000000000000000000000000000081526004016115379061293a565b60405180910390fd5b600080858560405161155392919061297f565b90815260200160405180910390205490506001818154811061157857611577612998565b5b90600052602060002090600a020160010173__ChangesLibrary________________________636de060a8909188600260009054906101000a900473ffffffffffffffffffffffffffffffffffffffff1673ffffffffffffffffffffffffffffffffffffffff1662fdd58e3360008c8c6040516115f692919061297f565b9081526020016040518091039020546040518363ffffffff1660e01b8152600401611622929190612baf565b602060405180830381865afa15801561163f573d6000803e3d6000fd5b505050506040513d601f19601f820116820180604052508101906116639190612c04565b6040518463ffffffff1660e01b815260040161168193929190613008565b60006040518083038186803b15801561169957600080fd5b505af41580156116ad573d6000803e3d6000fd5b5050505060018082815481106116c6576116c5612998565b5b90600052602060002090600a0201600901876040516116e59190612884565b908152602001604051809103902060003373ffffffffffffffffffffffffffffffffffffffff1673ffffffffffffffffffffffffffffffffffffffff16815260200190815260200160002060006101000a81548160ff0219169083151502179055507f7b7acf540aac5e16ce3dfbd4d106c203a301da603c18502d179f60282962e5c48585888460405161177c94939291906131bf565b60405180910390a1505050505050565b60606000600180549050905060006001805490509050600a8211156117b057600a91505b60008267ffffffffffffffff8111156117cc576117cb6123bd565b5b6040519080825280602002602001820160405280156117ff57816020015b60608152602001906001900390816117ea5790505b50905060006001805490501115611921576000838361181e9190613248565b90505b8281101561191f576001818154811061183d5761183c612998565b5b90600052602060002090600a02016000018054611859906132ab565b80601f0160208091040260200160405190810160405280929190818152602001828054611885906132ab565b80156118d25780601f106118a7576101008083540402835291602001916118d2565b820191906000526020600020905b8154815290600101906020018083116118b557829003601f168201915b505050505082826001866118e69190613248565b6118f09190613248565b8151811061190157611900612998565b5b60200260200101819052508080611917906132dc565b915050611821565b505b80935050505090565b600080838360405161193d92919061297f565b90815260200160405180910390205490506001818154811061196257611961612998565b5b90600052602060002090600a020160040160405180606001604052808681526020013373ffffffffffffffffffffffffffffffffffffffff168152602001600260009054906101000a900473ffffffffffffffffffffffffffffffffffffffff1673ffffffffffffffffffffffffffffffffffffffff1662fdd58e33600089896040516119f092919061297f565b9081526020016040518091039020546040518363ffffffff1660e01b8152600401611a1c929190612baf565b602060405180830381865afa158015611a39573d6000803e3d6000fd5b505050506040513d601f19601f82011682018060405250810190611a5d9190612c04565b81525090806001815401808255809150506001900390600052602060002090600302016000909190919091506000820151816000019080519060200190611aa5929190611f95565b5060208201518160010160006101000a81548173ffffffffffffffffffffffffffffffffffffffff021916908373ffffffffffffffffffffffffffffffffffffffff16021790555060408201518160020155505050505050565b82828080601f016020809104026020016040519081016040528093929190818152602001838380828437600081840152601f19601f8201169050808301925050505050505060008082604051611b559190612884565b9081526020016040518091039020549050600260009054906101000a900473ffffffffffffffffffffffffffffffffffffffff1673ffffffffffffffffffffffffffffffffffffffff16634f558e79826040518263ffffffff1660e01b8152600401611bc1919061239d565b602060405180830381865afa158015611bde573d6000803e3d6000fd5b505050506040513d601f19601f82011682018060405250810190611c0291906128b0565b611c41576040517f08c379a0000000000000000000000000000000000000000000000000000000008152600401611c389061293a565b60405180910390fd5b6000808686604051611c5492919061297f565b908152602001604051809103902054905060018181548110611c7957611c78612998565b5b90600052602060002090600a020160010173__ChangesLibrary________________________637cbb44f99091866040518363ffffffff1660e01b8152600401611cc4929190612e29565b60006040518083038186803b158015611cdc57600080fd5b505af4158015611cf0573d6000803e3d6000fd5b505050507f718a982b61bc723a0c68281b0eb10e1cff37bd89888841ae545c98cd5493a056848787604051611d2793929190613370565b60405180910390a1505050505050565b81818080601f016020809104026020016040519081016040528093929190818152602001838380828437600081840152601f19601f8201169050808301925050505050505060008082604051611d8d9190612884565b9081526020016040518091039020549050600260009054906101000a900473ffffffffffffffffffffffffffffffffffffffff1673ffffffffffffffffffffffffffffffffffffffff16634f558e79826040518263ffffffff1660e01b8152600401611df9919061239d565b602060405180830381865afa158015611e16573d6000803e3d6000fd5b505050506040513d601f19601f82011682018060405250810190611e3a91906128b0565b611e79576040517f08c379a0000000000000000000000000000000000000000000000000000000008152600401611e709061293a565b60405180910390fd5b6000808585604051611e8c92919061297f565b908152602001604051809103902054905060018181548110611eb157611eb0612998565b5b90600052602060002090600a020160010173__ChangesLibrary________________________636b6b15cc9091886040518363ffffffff1660e01b8152600401611efc929190612e29565b60006040518083038186803b158015611f1457600080fd5b505af4158015611f28573d6000803e3d6000fd5b505050507fa59a33e81abf86b25a561f609013d867f28b3c0cbc2cdf98e852b0c0c041eb6c858588604051611f5f9392919061342e565b60405180910390a1505050505050565b600260009054906101000a900473ffffffffffffffffffffffffffffffffffffffff1681565b828054611fa1906132ab565b90600052602060002090601f016020900481019282611fc3576000855561200a565b82601f10611fdc57805160ff191683800117855561200a565b8280016001018555821561200a579182015b82811115612009578251825591602001919060010190611fee565b5b509050612017919061201b565b5090565b5b8082111561203457600081600090555060010161201c565b5090565b6000604051905090565b600080fd5b600080fd5b600080fd5b600080fd5b600080fd5b60008083601f8401126120715761207061204c565b5b8235905067ffffffffffffffff81111561208e5761208d612051565b5b6020830191508360018202830111156120aa576120a9612056565b5b9250929050565b60008115159050919050565b6120c6816120b1565b81146120d157600080fd5b50565b6000813590506120e3816120bd565b92915050565b60008060006040848603121561210257612101612042565b5b600084013567ffffffffffffffff8111156121205761211f612047565b5b61212c8682870161205b565b9350935050602061213f868287016120d4565b9150509250925092565b600081519050919050565b600082825260208201905092915050565b6000819050602082019050919050565b600081519050919050565b600082825260208201905092915050565b60005b838110156121af578082015181840152602081019050612194565b838111156121be576000848401525b50505050565b6000601f19601f8301169050919050565b60006121e082612175565b6121ea8185612180565b93506121fa818560208601612191565b612203816121c4565b840191505092915050565b600061221a83836121d5565b905092915050565b6000602082019050919050565b600061223a82612149565b6122448185612154565b93508360208202850161225685612165565b8060005b858110156122925784840389528151612273858261220e565b945061227e83612222565b925060208a0199505060018101905061225a565b50829750879550505050505092915050565b600060208201905081810360008301526122be818461222f565b905092915050565b600073ffffffffffffffffffffffffffffffffffffffff82169050919050565b60006122f1826122c6565b9050919050565b612301816122e6565b811461230c57600080fd5b50565b60008135905061231e816122f8565b92915050565b60008060006040848603121561233d5761233c612042565b5b600061234b8682870161230f565b935050602084013567ffffffffffffffff81111561236c5761236b612047565b5b6123788682870161205b565b92509250509250925092565b6000819050919050565b61239781612384565b82525050565b60006020820190506123b2600083018461238e565b92915050565b600080fd5b7f4e487b7100000000000000000000000000000000000000000000000000000000600052604160045260246000fd5b6123f5826121c4565b810181811067ffffffffffffffff82111715612414576124136123bd565b5b80604052505050565b6000612427612038565b905061243382826123ec565b919050565b600067ffffffffffffffff821115612453576124526123bd565b5b61245c826121c4565b9050602081019050919050565b82818337600083830152505050565b600061248b61248684612438565b61241d565b9050828152602081018484840111156124a7576124a66123b8565b5b6124b2848285612469565b509392505050565b600082601f8301126124cf576124ce61204c565b5b81356124df848260208601612478565b91505092915050565b6000602082840312156124fe576124fd612042565b5b600082013567ffffffffffffffff81111561251c5761251b612047565b5b612528848285016124ba565b91505092915050565b6000806020838503121561254857612547612042565b5b600083013567ffffffffffffffff81111561256657612565612047565b5b6125728582860161205b565b92509250509250929050565b600081519050919050565b600082825260208201905092915050565b6000819050602082019050919050565b6125b3816122e6565b82525050565b60006125c583836125aa565b60208301905092915050565b6000602082019050919050565b60006125e98261257e565b6125f38185612589565b93506125fe8361259a565b8060005b8381101561262f57815161261688826125b9565b9750612621836125d1565b925050600181019050612602565b5085935050505092915050565b6000602082019050818103600083015261265681846125de565b905092915050565b6000806040838503121561267557612674612042565b5b600083013567ffffffffffffffff81111561269357612692612047565b5b61269f858286016124ba565b925050602083013567ffffffffffffffff8111156126c0576126bf612047565b5b6126cc858286016124ba565b9150509250929050565b6000806000604084860312156126ef576126ee612042565b5b600084013567ffffffffffffffff81111561270d5761270c612047565b5b612719868287016124ba565b935050602084013567ffffffffffffffff81111561273a57612739612047565b5b6127468682870161205b565b92509250509250925092565b60008060006040848603121561276b5761276a612042565b5b600084013567ffffffffffffffff81111561278957612788612047565b5b6127958682870161205b565b9350935050602084013567ffffffffffffffff8111156127b8576127b7612047565b5b6127c4868287016124ba565b9150509250925092565b6000819050919050565b60006127f36127ee6127e9846122c6565b6127ce565b6122c6565b9050919050565b6000612805826127d8565b9050919050565b6000612817826127fa565b9050919050565b6128278161280c565b82525050565b6000602082019050612842600083018461281e565b92915050565b600081905092915050565b600061285e82612175565b6128688185612848565b9350612878818560208601612191565b80840191505092915050565b60006128908284612853565b915081905092915050565b6000815190506128aa816120bd565b92915050565b6000602082840312156128c6576128c5612042565b5b60006128d48482850161289b565b91505092915050565b600082825260208201905092915050565b7f50726f6a65637420646f206e6f74206578697374000000000000000000000000600082015250565b60006129246014836128dd565b915061292f826128ee565b602082019050919050565b6000602082019050818103600083015261295381612917565b9050919050565b60006129668385612848565b9350612973838584612469565b82840190509392505050565b600061298c82848661295a565b91508190509392505050565b7f4e487b7100000000000000000000000000000000000000000000000000000000600052603260045260246000fd5b8082525050565b6129d7816120b1565b82525050565b60006040820190506129f260008301856129c7565b6129ff60208301846129ce565b9392505050565b600067ffffffffffffffff821115612a2157612a206123bd565b5b602082029050602081019050919050565b6000612a45612a4084612438565b61241d565b905082815260208101848484011115612a6157612a606123b8565b5b612a6c848285612191565b509392505050565b600082601f830112612a8957612a8861204c565b5b8151612a99848260208601612a32565b91505092915050565b6000612ab5612ab084612a06565b61241d565b90508083825260208201905060208402830185811115612ad857612ad7612056565b5b835b81811015612b1f57805167ffffffffffffffff811115612afd57612afc61204c565b5b808601612b0a8982612a74565b85526020850194505050602081019050612ada565b5050509392505050565b600082601f830112612b3e57612b3d61204c565b5b8151612b4e848260208601612aa2565b91505092915050565b600060208284031215612b6d57612b6c612042565b5b600082015167ffffffffffffffff811115612b8b57612b8a612047565b5b612b9784828501612b29565b91505092915050565b612ba9816122e6565b82525050565b6000604082019050612bc46000830185612ba0565b612bd1602083018461238e565b9392505050565b612be181612384565b8114612bec57600080fd5b50565b600081519050612bfe81612bd8565b92915050565b600060208284031215612c1a57612c19612042565b5b6000612c2884828501612bef565b91505092915050565b6000602082019050612c4660008301846129c7565b92915050565b600067ffffffffffffffff821115612c6757612c666123bd565b5b602082029050602081019050919050565b600081519050612c87816122f8565b92915050565b6000612ca0612c9b84612c4c565b61241d565b90508083825260208201905060208402830185811115612cc357612cc2612056565b5b835b81811015612cec5780612cd88882612c78565b845260208401935050602081019050612cc5565b5050509392505050565b600082601f830112612d0b57612d0a61204c565b5b8151612d1b848260208601612c8d565b91505092915050565b600060208284031215612d3a57612d39612042565b5b600082015167ffffffffffffffff811115612d5857612d57612047565b5b612d6484828501612cf6565b91505092915050565b6000819050919050565b6000612d92612d8d612d8884612d6d565b6127ce565b612384565b9050919050565b612da281612d77565b82525050565b6000606082019050612dbd6000830186612ba0565b612dca602083018561238e565b612dd76040830184612d99565b949350505050565b600082825260208201905092915050565b6000612dfb82612175565b612e058185612ddf565b9350612e15818560208601612191565b612e1e816121c4565b840191505092915050565b6000604082019050612e3e60008301856129c7565b8181036020830152612e508184612df0565b90509392505050565b7f4e65772070726f6a656374206372656174656420776974682049443a00000000600082015250565b6000612e8f601c836128dd565b9150612e9a82612e59565b602082019050919050565b6000612eb082612175565b612eba81856128dd565b9350612eca818560208601612191565b612ed3816121c4565b840191505092915050565b60006060820190508181036000830152612ef781612e82565b90508181036020830152612f0b8185612ea5565b9050612f1a604083018461238e565b9392505050565b7f416c726561647920766f74656400000000000000000000000000000000000000600082015250565b6000612f57600d836128dd565b9150612f6282612f21565b602082019050919050565b60006020820190508181036000830152612f8681612f4a565b9050919050565b7f566f74696e6720706f77657220697320696e73756666696369656e7400000000600082015250565b6000612fc3601c836128dd565b9150612fce82612f8d565b602082019050919050565b60006020820190508181036000830152612ff281612fb6565b9050919050565b61300281612384565b82525050565b600060608201905061301d60008301866129c7565b818103602083015261302f8185612df0565b905061303e6040830184612ff9565b949350505050565b7f4e657720766f746520666f72206368616e67652070726f706f73616c3a000000600082015250565b600061307c601d836128dd565b915061308782613046565b602082019050919050565b600061309e83856128dd565b93506130ab838584612469565b6130b4836121c4565b840190509392505050565b600060a08201905081810360008301526130d88161306f565b905081810360208301526130ed818789613092565b905081810360408301526131018186612ea5565b90506131106060830185612ba0565b61311d608083018461238e565b9695505050505050565b7f4e6577206368616e67652070726f706f73616c20746f207468652050726f6a6560008201527f6374207769746820746865206e616d6520616e6420666f6c6c6f77696e67204960208201527f4420616e64204349443a00000000000000000000000000000000000000000000604082015250565b60006131a9604a836128dd565b91506131b482613127565b606082019050919050565b600060808201905081810360008301526131d88161319c565b905081810360208301526131ed818688613092565b905081810360408301526132018185612ea5565b9050613210606083018461238e565b95945050505050565b7f4e487b7100000000000000000000000000000000000000000000000000000000600052601160045260246000fd5b600061325382612384565b915061325e83612384565b92508282101561327157613270613219565b5b828203905092915050565b7f4e487b7100000000000000000000000000000000000000000000000000000000600052602260045260246000fd5b600060028204905060018216806132c357607f821691505b6020821081036132d6576132d561327c565b5b50919050565b60006132e782612384565b91507fffffffffffffffffffffffffffffffffffffffffffffffffffffffffffffffff820361331957613318613219565b5b600182019050919050565b7f50726f6a656374206368616e67656420746f206368616e67653a200000000000600082015250565b600061335a601b836128dd565b915061336582613324565b602082019050919050565b600060608201905081810360008301526133898161334d565b9050818103602083015261339d8186612ea5565b905081810360408301526133b2818486613092565b9050949350505050565b7f41206e6577206368616e676520686173206265656e206d61646520746f20746860008201527f652070726f6a6563743a20000000000000000000000000000000000000000000602082015250565b6000613418602b836128dd565b9150613423826133bc565b604082019050919050565b600060608201905081810360008301526134478161340b565b9050818103602083015261345c818587613092565b905081810360408301526134708184612ea5565b905094935050505056fea2646970667358221220ae42356a239cc7fd6b927c4cc9b60e73e1cdfaeb93a23a92604202d3dba4e38c64736f6c634300080d0033",
  "immutableReferences": {
    "520": [
      {
        "length": 32,
        "start": 5084
      }
    ]
  },
  "source": "// SPDX-License-Identifier: MIT\npragma solidity ^0.8.2;\n\nimport \"../node_modules/@openzeppelin/contracts/utils/Counters.sol\";\nimport \"./Changes.sol\";\nimport \"./ProjectsToken.sol\";\n\n\ncontract Projects {\n    // initiate all the data structures and constants saved on the smart contract\n    uint public immutable TimeLockInterval = 4 minutes;\n    using Counters for Counters.Counter;\n    using ChangesLibrary for ChangesLibrary.ChangesStorage;\n\n    \n    // -------------------------------------------------------- Mappings\n    mapping(string => uint) public NameToID;    \n\n    // -------------------------------------------------------- Structs\n\n    struct goBack {\n        string changeCID;\n        address goBackMaker;\n        uint votes;\n    }\n\n    struct Project {\n        string name;\n        ChangesLibrary.ChangesStorage changes;\n        goBack[] goBackProposals;\n\n        // time lock\n        uint lastDistributionTime;\n\n        // distribution\n        uint newTokens;\n        mapping(address => uint) pendingTokens;\n        mapping(address => mapping(uint => uint)) TokensSpent; // user => time => tokens spent\n\n        // - ChangeCID => Voter address => Voted?\n        mapping(string => mapping(address => bool)) Voted;\n\n    }\n\n\n    // -------------------------------------------------------- Lists\n    Project[] publicProjects;\n\n    // -------------------------------------------------------- Token\n    ProjectsToken public token;\n\n    // -------------------------------------------------------- Events\n    event NewProjectCreated(string message, string name, uint value);\n    event NewChangeProposalCreated(string message, string Name, string CID, uint indexValue);\n    event NewVoteForChangeProposal(string message, string projectName, string changeProposalCID, address voter, uint votes);\n    event NewChangeIsMadeToProject(string message, string projectName, string changeCID); // Message, Project CID, Message, ChangeCID\n    event ProjectWentBack(string message, string changeCID, string ProjectName);\n    event TokensDisributed(string message, uint lastDistributionTime);\n\n    // -------------------------------------------------------- Modifiers\n    modifier ProjectExist(string memory _Name) {\n        uint idx = NameToID[_Name];\n        require(token.exists(idx), \"Project do not exist\");\n        _;\n    }\n\n\n    // -------------------------------------------------------- Constructor\n    constructor(address tokenAddress) {\n        token = ProjectsToken(tokenAddress);\n    } \n\n    // -------------------------------------------------------- Functions\n\n    // the function create a new project with an inital change\n    function createProject(string memory _CID, string memory projectName) public {\n        uint newProjectID = publicProjects.length;\n        NameToID[projectName] = newProjectID;\n        token.mint(msg.sender, newProjectID, 100);\n        \n        Project storage newProject = publicProjects.push();\n        newProject.name = projectName;\n        newProject.changes.initialize(_CID);\n        newProject.newTokens = 100;\n        newProject.lastDistributionTime = block.timestamp; \n\n        emit NewProjectCreated(\"New project created with ID:\", projectName, newProjectID);\n    }\n\n    // the functions create a change proposal\n    function MakeChangeProposal(\n        string memory _changeCID, \n        string calldata _projectName\n    ) ProjectExist(_projectName) external {\n        uint projectIDX = NameToID[_projectName];\n        publicProjects[projectIDX].changes.createChangeProposal(_changeCID, token.balanceOf(msg.sender, NameToID[_projectName]));\n        publicProjects[projectIDX].Voted[_changeCID][msg.sender] = true;\n        emit NewChangeProposalCreated(\"New change proposal to the Project with the name and following ID and CID:\", _projectName, _changeCID, projectIDX);\n    }\n\n    // the functions make a go back proposal\n    function MakeGoBackProposal(\n        string memory _changeCID, \n        string calldata _projectName\n    ) external {\n        uint projectID = NameToID[_projectName];\n        publicProjects[projectID].goBackProposals.push(goBack(_changeCID, msg.sender, token.balanceOf(msg.sender, NameToID[_projectName])));\n    }\n\n    // the function make a go Back \n    function acceptGoBack(\n        string calldata _projectName, \n        string memory _changeCID\n    ) ProjectExist(_projectName) external {\n        uint projectIDX = NameToID[_projectName];\n        publicProjects[projectIDX].changes.goBack(_changeCID);\n        \n        emit ProjectWentBack(\"Project changed to change: \", _changeCID, _projectName);\n    }\n\n    // the functions accept a change proposal and add it to the list\n    function acceptChangeProposal(\n        string memory _proposedChangeCID, \n        string calldata _projectName\n    ) ProjectExist(_projectName) external {\n        uint projectID = NameToID[_projectName];\n        publicProjects[projectID].changes.acceptChangeProposal(_proposedChangeCID);\n        emit NewChangeIsMadeToProject(\"A new change has been made to the project: \", _projectName, _proposedChangeCID);\n    }\n\n    // the function allow user to vote in favor of a change proposal\n    function voteForChangeProposal(\n        string memory _changeProposalCID, \n        string calldata _projectName\n    ) ProjectExist(_projectName) external {\n        uint projectID = NameToID[_projectName];\n\n        require(publicProjects[projectID].Voted[_changeProposalCID][msg.sender] == false, \"Already voted\");\n\n        uint votingPower = token.balanceOf(msg.sender, projectID);\n        \n        if (votingPower <= 0) {\n            revert(\"Voting power is insufficient\");\n        }\n\n        publicProjects[projectID].changes.voteForChangeProposal(_changeProposalCID, votingPower);\n        publicProjects[projectID].Voted[_changeProposalCID][msg.sender] = true;\n        \n        emit NewVoteForChangeProposal(\n            \"New vote for change proposal:\",\n            _projectName,\n            _changeProposalCID,\n            msg.sender,\n            publicProjects[projectID].changes.getChangeProposalVotes(_changeProposalCID)\n        );\n    }\n\n    function getBalance(\n        address _UserAddress,\n        string calldata _projectName\n    ) ProjectExist(_projectName) external view returns (uint) {\n        return token.balanceOf(_UserAddress, NameToID[_projectName]);\n    }\n\n    // the functions returns the changes/change proposals\n    function getChangesOrProposals(\n        string calldata _projectName, \n        bool changesOrChangeProposals\n    ) ProjectExist(_projectName) external view returns (string[] memory) {\n        uint projectID = NameToID[_projectName];\n        return publicProjects[projectID].changes.getChangesOrChangeProposals(changesOrChangeProposals); // true for changes and false for change proposals\n    }\n\n    function getAddresses(\n        string calldata _projectName\n    ) ProjectExist(_projectName) external view returns (address[] memory) {\n        uint projectID = NameToID[_projectName];\n        return publicProjects[projectID].changes.getAddresses(); // true for changes and false for change proposals\n    }\n\n    // TEMP\n    function getLastProjects() external view returns (string[] memory) {\n        uint arr_length = publicProjects.length;\n        uint arr_index = publicProjects.length;\n        if (arr_length > 10) {\n            arr_length = 10;\n        }\n\n        string[] memory lastProjects = new string[](arr_length);\n        if (publicProjects.length > 0) {\n        for (uint256 i = arr_index - arr_length; i < arr_index; i++) {\n            lastProjects[arr_index - 1 - i] = publicProjects[i].name; \n        }}\n        return lastProjects;\n    }\n\n    function getLastDistriubtionTime(string calldata projectName) external view ProjectExist(projectName) returns (uint)  {\n        uint projectID = NameToID[projectName];\n        return publicProjects[projectID].lastDistributionTime;\n    }\n\n    function getPendingTokens(address usr, string calldata projectName) ProjectExist(projectName) external view returns (uint) {\n        uint projectID = NameToID[projectName];\n        return publicProjects[projectID].pendingTokens[usr];\n    }\n}\n",
  "sourcePath": "c:\\Users\\User\\Desktop\\\\davidson\\project\\DavidsonProject\\Smart Contract\\contracts\\Projects.sol",
  "compiler": {
    "name": "solc",
    "version": "0.8.13+commit.abaa5c0e.Emscripten.clang"
  },
  "schemaVersion": "3.4.7",
  "updatedAt": "2024-03-10T22:05:56.722Z",
  "networkType": "ethereum",
  "devdoc": {
    "kind": "dev",
    "methods": {},
    "version": 1
  },
  "userdoc": {
    "kind": "user",
    "methods": {},
    "version": 1
  }
}