{
  "contractName": "Projects",
  "abi": [
    {
      "inputs": [
        {
          "internalType": "address",
          "name": "tokenAddress",
          "type": "address"
        }
      ],
      "stateMutability": "nonpayable",
      "type": "constructor"
    },
    {
      "anonymous": false,
      "inputs": [
        {
          "indexed": false,
          "internalType": "string",
          "name": "message",
          "type": "string"
        },
        {
          "indexed": false,
          "internalType": "string",
          "name": "projectName",
          "type": "string"
        },
        {
          "indexed": false,
          "internalType": "string",
          "name": "changeCID",
          "type": "string"
        }
      ],
      "name": "NewChangeIsMadeToProject",
      "type": "event"
    },
    {
      "anonymous": false,
      "inputs": [
        {
          "indexed": false,
          "internalType": "string",
          "name": "message",
          "type": "string"
        },
        {
          "indexed": false,
          "internalType": "string",
          "name": "Name",
          "type": "string"
        },
        {
          "indexed": false,
          "internalType": "string",
          "name": "CID",
          "type": "string"
        },
        {
          "indexed": false,
          "internalType": "uint256",
          "name": "indexValue",
          "type": "uint256"
        }
      ],
      "name": "NewChangeProposalCreated",
      "type": "event"
    },
    {
      "anonymous": false,
      "inputs": [
        {
          "indexed": false,
          "internalType": "string",
          "name": "message",
          "type": "string"
        },
        {
          "indexed": false,
          "internalType": "string",
          "name": "name",
          "type": "string"
        },
        {
          "indexed": false,
          "internalType": "uint256",
          "name": "value",
          "type": "uint256"
        }
      ],
      "name": "NewProjectCreated",
      "type": "event"
    },
    {
      "anonymous": false,
      "inputs": [
        {
          "indexed": false,
          "internalType": "string",
          "name": "message",
          "type": "string"
        },
        {
          "indexed": false,
          "internalType": "string",
          "name": "projectName",
          "type": "string"
        },
        {
          "indexed": false,
          "internalType": "string",
          "name": "changeProposalCID",
          "type": "string"
        },
        {
          "indexed": false,
          "internalType": "address",
          "name": "voter",
          "type": "address"
        },
        {
          "indexed": false,
          "internalType": "uint256",
          "name": "votes",
          "type": "uint256"
        }
      ],
      "name": "NewVoteForChangeProposal",
      "type": "event"
    },
    {
      "anonymous": false,
      "inputs": [
        {
          "indexed": false,
          "internalType": "string",
          "name": "message",
          "type": "string"
        },
        {
          "indexed": false,
          "internalType": "string",
          "name": "changeCID",
          "type": "string"
        },
        {
          "indexed": false,
          "internalType": "string",
          "name": "ProjectName",
          "type": "string"
        }
      ],
      "name": "ProjectWentBack",
      "type": "event"
    },
    {
      "anonymous": false,
      "inputs": [
        {
          "indexed": false,
          "internalType": "string",
          "name": "message",
          "type": "string"
        },
        {
          "indexed": false,
          "internalType": "uint256",
          "name": "lastDistributionTime",
          "type": "uint256"
        }
      ],
      "name": "TokensDisributed",
      "type": "event"
    },
    {
      "inputs": [
        {
          "internalType": "string",
          "name": "",
          "type": "string"
        }
      ],
      "name": "NameToID",
      "outputs": [
        {
          "internalType": "uint256",
          "name": "",
          "type": "uint256"
        }
      ],
      "stateMutability": "view",
      "type": "function",
      "constant": true
    },
    {
      "inputs": [],
      "name": "TimeLockInterval",
      "outputs": [
        {
          "internalType": "uint256",
          "name": "",
          "type": "uint256"
        }
      ],
      "stateMutability": "view",
      "type": "function",
      "constant": true
    },
    {
      "inputs": [],
      "name": "token",
      "outputs": [
        {
          "internalType": "contract ProjectsToken",
          "name": "",
          "type": "address"
        }
      ],
      "stateMutability": "view",
      "type": "function",
      "constant": true
    },
    {
      "inputs": [
        {
          "internalType": "string",
          "name": "_CID",
          "type": "string"
        },
        {
          "internalType": "string",
          "name": "projectName",
          "type": "string"
        }
      ],
      "name": "createProject",
      "outputs": [],
      "stateMutability": "nonpayable",
      "type": "function"
    },
    {
      "inputs": [
        {
          "internalType": "string",
          "name": "_changeCID",
          "type": "string"
        },
        {
          "internalType": "string",
          "name": "_projectName",
          "type": "string"
        }
      ],
      "name": "MakeChangeProposal",
      "outputs": [],
      "stateMutability": "nonpayable",
      "type": "function"
    },
    {
      "inputs": [
        {
          "internalType": "string",
          "name": "_changeCID",
          "type": "string"
        },
        {
          "internalType": "string",
          "name": "_projectName",
          "type": "string"
        }
      ],
      "name": "MakeGoBackProposal",
      "outputs": [],
      "stateMutability": "nonpayable",
      "type": "function"
    },
    {
      "inputs": [
        {
          "internalType": "string",
          "name": "_projectName",
          "type": "string"
        },
        {
          "internalType": "string",
          "name": "_changeCID",
          "type": "string"
        }
      ],
      "name": "acceptGoBack",
      "outputs": [],
      "stateMutability": "nonpayable",
      "type": "function"
    },
    {
      "inputs": [
        {
          "internalType": "string",
          "name": "_proposedChangeCID",
          "type": "string"
        },
        {
          "internalType": "string",
          "name": "_projectName",
          "type": "string"
        }
      ],
      "name": "acceptChangeProposal",
      "outputs": [],
      "stateMutability": "nonpayable",
      "type": "function"
    },
    {
      "inputs": [
        {
          "internalType": "string",
          "name": "_changeProposalCID",
          "type": "string"
        },
        {
          "internalType": "string",
          "name": "_projectName",
          "type": "string"
        }
      ],
      "name": "voteForChangeProposal",
      "outputs": [],
      "stateMutability": "nonpayable",
      "type": "function"
    },
    {
      "inputs": [
        {
          "internalType": "address",
          "name": "_UserAddress",
          "type": "address"
        },
        {
          "internalType": "string",
          "name": "_projectName",
          "type": "string"
        }
      ],
      "name": "getBalance",
      "outputs": [
        {
          "internalType": "uint256",
          "name": "",
          "type": "uint256"
        }
      ],
      "stateMutability": "view",
      "type": "function",
      "constant": true
    },
    {
      "inputs": [
        {
          "internalType": "string",
          "name": "_projectName",
          "type": "string"
        },
        {
          "internalType": "bool",
          "name": "changesOrChangeProposals",
          "type": "bool"
        }
      ],
      "name": "getChangesOrProposals",
      "outputs": [
        {
          "internalType": "string[]",
          "name": "",
          "type": "string[]"
        }
      ],
      "stateMutability": "view",
      "type": "function",
      "constant": true
    },
    {
      "inputs": [
        {
          "internalType": "string",
          "name": "_projectName",
          "type": "string"
        }
      ],
      "name": "getAddresses",
      "outputs": [
        {
          "internalType": "address[]",
          "name": "",
          "type": "address[]"
        }
      ],
      "stateMutability": "view",
      "type": "function",
      "constant": true
    },
    {
      "inputs": [],
      "name": "getLastProjects",
      "outputs": [
        {
          "internalType": "string[]",
          "name": "",
          "type": "string[]"
        }
      ],
      "stateMutability": "view",
      "type": "function",
      "constant": true
    },
    {
      "inputs": [
        {
          "internalType": "string",
          "name": "projectName",
          "type": "string"
        }
      ],
      "name": "getLastDistriubtionTime",
      "outputs": [
        {
          "internalType": "uint256",
          "name": "",
          "type": "uint256"
        }
      ],
      "stateMutability": "view",
      "type": "function",
      "constant": true
    }
  ],
  "bytecode": "0x60a060405262278d006080908152503480156200001b57600080fd5b50604051620033df380380620033df8339818101604052810190620000419190620000f3565b80600260006101000a81548173ffffffffffffffffffffffffffffffffffffffff021916908373ffffffffffffffffffffffffffffffffffffffff1602179055505062000125565b600080fd5b600073ffffffffffffffffffffffffffffffffffffffff82169050919050565b6000620000bb826200008e565b9050919050565b620000cd81620000ae565b8114620000d957600080fd5b50565b600081519050620000ed81620000c2565b92915050565b6000602082840312156200010c576200010b62000089565b5b60006200011c84828501620000dc565b91505092915050565b60805161329e6200014160003960006111ca015261329e6000f3fe608060405234801561001057600080fd5b50600436106100ea5760003560e01c80637a5945da1161008c578063a563596311610066578063a56359631461026f578063c4687fb81461028b578063ed0c2d90146102a7578063fc0c546a146102c3576100ea565b80637a5945da146102175780638d1446fc14610235578063a54d804d14610251576100ea565b806339b64c30116100c857806339b64c301461017f57806347d8899a146101af5780636bd06204146101df578063750354d2146101fb576100ea565b80631d7147d8146100ef5780631dd7cecf1461011f57806333846eba1461014f575b600080fd5b61010960048036038101906101049190611ed7565b6102e1565b6040516101169190612092565b60405180910390f35b61013960048036038101906101349190612112565b6104fa565b604051610146919061218b565b60405180910390f35b610169600480360381019061016491906122d6565b610706565b604051610176919061218b565b60405180910390f35b6101996004803603810190610194919061231f565b610734565b6040516101a6919061242a565b60405180910390f35b6101c960048036038101906101c4919061231f565b61094a565b6040516101d6919061218b565b60405180910390f35b6101f960048036038101906101f4919061244c565b610ae3565b005b610215600480360381019061021091906124c4565b610c9e565b005b61021f6111c8565b60405161022c919061218b565b60405180910390f35b61024f600480360381019061024a91906124c4565b6111ec565b005b61025961157a565b6040516102669190612092565b60405180910390f35b610289600480360381019061028491906124c4565b611718565b005b6102a560048036038101906102a09190612540565b6118ed565b005b6102c160048036038101906102bc91906124c4565b611b25565b005b6102cb611d5d565b6040516102d8919061261b565b60405180910390f35b606083838080601f016020809104026020016040519081016040528093929190818152602001838380828437600081840152601f19601f82011690508083019250505050505050600080826040516103399190612672565b9081526020016040518091039020549050600260009054906101000a900473ffffffffffffffffffffffffffffffffffffffff1673ffffffffffffffffffffffffffffffffffffffff16634f558e79826040518263ffffffff1660e01b81526004016103a5919061218b565b602060405180830381865afa1580156103c2573d6000803e3d6000fd5b505050506040513d601f19601f820116820180604052508101906103e6919061269e565b610425576040517f08c379a000000000000000000000000000000000000000000000000000000000815260040161041c90612728565b60405180910390fd5b600080878760405161043892919061276d565b90815260200160405180910390205490506001818154811061045d5761045c612786565b5b90600052602060002090600a020160010173__ChangesLibrary________________________63e3e26be89091876040518363ffffffff1660e01b81526004016104a89291906127cb565b600060405180830381865af41580156104c5573d6000803e3d6000fd5b505050506040513d6000823e3d601f19601f820116820180604052508101906104ee9190612945565b93505050509392505050565b600082828080601f016020809104026020016040519081016040528093929190818152602001838380828437600081840152601f19601f82011690508083019250505050505050600080826040516105529190612672565b9081526020016040518091039020549050600260009054906101000a900473ffffffffffffffffffffffffffffffffffffffff1673ffffffffffffffffffffffffffffffffffffffff16634f558e79826040518263ffffffff1660e01b81526004016105be919061218b565b602060405180830381865afa1580156105db573d6000803e3d6000fd5b505050506040513d601f19601f820116820180604052508101906105ff919061269e565b61063e576040517f08c379a000000000000000000000000000000000000000000000000000000000815260040161063590612728565b60405180910390fd5b600260009054906101000a900473ffffffffffffffffffffffffffffffffffffffff1673ffffffffffffffffffffffffffffffffffffffff1662fdd58e876000888860405161068e92919061276d565b9081526020016040518091039020546040518363ffffffff1660e01b81526004016106ba92919061299d565b602060405180830381865afa1580156106d7573d6000803e3d6000fd5b505050506040513d601f19601f820116820180604052508101906106fb91906129f2565b925050509392505050565b6000818051602081018201805184825260208301602085012081835280955050505050506000915090505481565b606082828080601f016020809104026020016040519081016040528093929190818152602001838380828437600081840152601f19601f820116905080830192505050505050506000808260405161078c9190612672565b9081526020016040518091039020549050600260009054906101000a900473ffffffffffffffffffffffffffffffffffffffff1673ffffffffffffffffffffffffffffffffffffffff16634f558e79826040518263ffffffff1660e01b81526004016107f8919061218b565b602060405180830381865afa158015610815573d6000803e3d6000fd5b505050506040513d601f19601f82011682018060405250810190610839919061269e565b610878576040517f08c379a000000000000000000000000000000000000000000000000000000000815260040161086f90612728565b60405180910390fd5b600080868660405161088b92919061276d565b9081526020016040518091039020549050600181815481106108b0576108af612786565b5b90600052602060002090600a020160010173__ChangesLibrary________________________635a45338590916040518263ffffffff1660e01b81526004016108f99190612a1f565b600060405180830381865af4158015610916573d6000803e3d6000fd5b505050506040513d6000823e3d601f19601f8201168201806040525081019061093f9190612b12565b935050505092915050565b600082828080601f016020809104026020016040519081016040528093929190818152602001838380828437600081840152601f19601f82011690508083019250505050505050600080826040516109a29190612672565b9081526020016040518091039020549050600260009054906101000a900473ffffffffffffffffffffffffffffffffffffffff1673ffffffffffffffffffffffffffffffffffffffff16634f558e79826040518263ffffffff1660e01b8152600401610a0e919061218b565b602060405180830381865afa158015610a2b573d6000803e3d6000fd5b505050506040513d601f19601f82011682018060405250810190610a4f919061269e565b610a8e576040517f08c379a0000000000000000000000000000000000000000000000000000000008152600401610a8590612728565b60405180910390fd5b6000808686604051610aa192919061276d565b908152602001604051809103902054905060018181548110610ac657610ac5612786565b5b90600052602060002090600a020160050154935050505092915050565b6000600180549050905080600083604051610afe9190612672565b908152602001604051809103902081905550600260009054906101000a900473ffffffffffffffffffffffffffffffffffffffff1673ffffffffffffffffffffffffffffffffffffffff1663156e29f6338360646040518463ffffffff1660e01b8152600401610b7093929190612b96565b600060405180830381600087803b158015610b8a57600080fd5b505af1158015610b9e573d6000803e3d6000fd5b505050506000600180816001815401808255809150500390600052602060002090600a0201905082816000019080519060200190610bdd929190611d83565b508060010173__ChangesLibrary________________________63aaff905a9091866040518363ffffffff1660e01b8152600401610c1c929190612c17565b60006040518083038186803b158015610c3457600080fd5b505af4158015610c48573d6000803e3d6000fd5b50505050606481600601819055504281600501819055507fe224389b386caecb8e3b38edc39361c7227e3ef820a8276bc31ac9cf1ba69fcd8383604051610c90929190612ccc565b60405180910390a150505050565b81818080601f016020809104026020016040519081016040528093929190818152602001838380828437600081840152601f19601f8201169050808301925050505050505060008082604051610cf49190612672565b9081526020016040518091039020549050600260009054906101000a900473ffffffffffffffffffffffffffffffffffffffff1673ffffffffffffffffffffffffffffffffffffffff16634f558e79826040518263ffffffff1660e01b8152600401610d60919061218b565b602060405180830381865afa158015610d7d573d6000803e3d6000fd5b505050506040513d601f19601f82011682018060405250810190610da1919061269e565b610de0576040517f08c379a0000000000000000000000000000000000000000000000000000000008152600401610dd790612728565b60405180910390fd5b6000808585604051610df392919061276d565b90815260200160405180910390205490506000151560018281548110610e1c57610e1b612786565b5b90600052602060002090600a020160090187604051610e3b9190612672565b908152602001604051809103902060003373ffffffffffffffffffffffffffffffffffffffff1673ffffffffffffffffffffffffffffffffffffffff16815260200190815260200160002060009054906101000a900460ff16151514610ed6576040517f08c379a0000000000000000000000000000000000000000000000000000000008152600401610ecd90612d5b565b60405180910390fd5b6000600260009054906101000a900473ffffffffffffffffffffffffffffffffffffffff1673ffffffffffffffffffffffffffffffffffffffff1662fdd58e33846040518363ffffffff1660e01b8152600401610f3492919061299d565b602060405180830381865afa158015610f51573d6000803e3d6000fd5b505050506040513d601f19601f82011682018060405250810190610f7591906129f2565b905060008111610fba576040517f08c379a0000000000000000000000000000000000000000000000000000000008152600401610fb190612dc7565b60405180910390fd5b60018281548110610fce57610fcd612786565b5b90600052602060002090600a020160010173__ChangesLibrary________________________637dba11cb909189846040518463ffffffff1660e01b815260040161101b93929190612df6565b60006040518083038186803b15801561103357600080fd5b505af4158015611047573d6000803e3d6000fd5b5050505060018083815481106110605761105f612786565b5b90600052602060002090600a02016009018860405161107f9190612672565b908152602001604051809103902060003373ffffffffffffffffffffffffffffffffffffffff1673ffffffffffffffffffffffffffffffffffffffff16815260200190815260200160002060006101000a81548160ff0219169083151502179055507f0defd832aa647eb845ac2ed5e414ba9da1d13d7c3b2028fea20853913891174d868689336001878154811061111a57611119612786565b5b90600052602060002090600a020160010173__ChangesLibrary________________________63ca5451d290918e6040518363ffffffff1660e01b8152600401611165929190612c17565b602060405180830381865af4158015611182573d6000803e3d6000fd5b505050506040513d601f19601f820116820180604052508101906111a691906129f2565b6040516111b7959493929190612ead565b60405180910390a150505050505050565b7f000000000000000000000000000000000000000000000000000000000000000081565b81818080601f016020809104026020016040519081016040528093929190818152602001838380828437600081840152601f19601f82011690508083019250505050505050600080826040516112429190612672565b9081526020016040518091039020549050600260009054906101000a900473ffffffffffffffffffffffffffffffffffffffff1673ffffffffffffffffffffffffffffffffffffffff16634f558e79826040518263ffffffff1660e01b81526004016112ae919061218b565b602060405180830381865afa1580156112cb573d6000803e3d6000fd5b505050506040513d601f19601f820116820180604052508101906112ef919061269e565b61132e576040517f08c379a000000000000000000000000000000000000000000000000000000000815260040161132590612728565b60405180910390fd5b600080858560405161134192919061276d565b90815260200160405180910390205490506001818154811061136657611365612786565b5b90600052602060002090600a020160010173__ChangesLibrary________________________636de060a8909188600260009054906101000a900473ffffffffffffffffffffffffffffffffffffffff1673ffffffffffffffffffffffffffffffffffffffff1662fdd58e3360008c8c6040516113e492919061276d565b9081526020016040518091039020546040518363ffffffff1660e01b815260040161141092919061299d565b602060405180830381865afa15801561142d573d6000803e3d6000fd5b505050506040513d601f19601f8201168201806040525081019061145191906129f2565b6040518463ffffffff1660e01b815260040161146f93929190612df6565b60006040518083038186803b15801561148757600080fd5b505af415801561149b573d6000803e3d6000fd5b5050505060018082815481106114b4576114b3612786565b5b90600052602060002090600a0201600901876040516114d39190612672565b908152602001604051809103902060003373ffffffffffffffffffffffffffffffffffffffff1673ffffffffffffffffffffffffffffffffffffffff16815260200190815260200160002060006101000a81548160ff0219169083151502179055507f7b7acf540aac5e16ce3dfbd4d106c203a301da603c18502d179f60282962e5c48585888460405161156a9493929190612fad565b60405180910390a1505050505050565b60606000600180549050905060006001805490509050600a82111561159e57600a91505b60008267ffffffffffffffff8111156115ba576115b96121ab565b5b6040519080825280602002602001820160405280156115ed57816020015b60608152602001906001900390816115d85790505b5090506000600180549050111561170f576000838361160c9190613036565b90505b8281101561170d576001818154811061162b5761162a612786565b5b90600052602060002090600a0201600001805461164790613099565b80601f016020809104026020016040519081016040528092919081815260200182805461167390613099565b80156116c05780601f10611695576101008083540402835291602001916116c0565b820191906000526020600020905b8154815290600101906020018083116116a357829003601f168201915b505050505082826001866116d49190613036565b6116de9190613036565b815181106116ef576116ee612786565b5b60200260200101819052508080611705906130ca565b91505061160f565b505b80935050505090565b600080838360405161172b92919061276d565b9081526020016040518091039020549050600181815481106117505761174f612786565b5b90600052602060002090600a020160040160405180606001604052808681526020013373ffffffffffffffffffffffffffffffffffffffff168152602001600260009054906101000a900473ffffffffffffffffffffffffffffffffffffffff1673ffffffffffffffffffffffffffffffffffffffff1662fdd58e33600089896040516117de92919061276d565b9081526020016040518091039020546040518363ffffffff1660e01b815260040161180a92919061299d565b602060405180830381865afa158015611827573d6000803e3d6000fd5b505050506040513d601f19601f8201168201806040525081019061184b91906129f2565b81525090806001815401808255809150506001900390600052602060002090600302016000909190919091506000820151816000019080519060200190611893929190611d83565b5060208201518160010160006101000a81548173ffffffffffffffffffffffffffffffffffffffff021916908373ffffffffffffffffffffffffffffffffffffffff16021790555060408201518160020155505050505050565b82828080601f016020809104026020016040519081016040528093929190818152602001838380828437600081840152601f19601f82011690508083019250505050505050600080826040516119439190612672565b9081526020016040518091039020549050600260009054906101000a900473ffffffffffffffffffffffffffffffffffffffff1673ffffffffffffffffffffffffffffffffffffffff16634f558e79826040518263ffffffff1660e01b81526004016119af919061218b565b602060405180830381865afa1580156119cc573d6000803e3d6000fd5b505050506040513d601f19601f820116820180604052508101906119f0919061269e565b611a2f576040517f08c379a0000000000000000000000000000000000000000000000000000000008152600401611a2690612728565b60405180910390fd5b6000808686604051611a4292919061276d565b908152602001604051809103902054905060018181548110611a6757611a66612786565b5b90600052602060002090600a020160010173__ChangesLibrary________________________637cbb44f99091866040518363ffffffff1660e01b8152600401611ab2929190612c17565b60006040518083038186803b158015611aca57600080fd5b505af4158015611ade573d6000803e3d6000fd5b505050507f718a982b61bc723a0c68281b0eb10e1cff37bd89888841ae545c98cd5493a056848787604051611b159392919061315e565b60405180910390a1505050505050565b81818080601f016020809104026020016040519081016040528093929190818152602001838380828437600081840152601f19601f8201169050808301925050505050505060008082604051611b7b9190612672565b9081526020016040518091039020549050600260009054906101000a900473ffffffffffffffffffffffffffffffffffffffff1673ffffffffffffffffffffffffffffffffffffffff16634f558e79826040518263ffffffff1660e01b8152600401611be7919061218b565b602060405180830381865afa158015611c04573d6000803e3d6000fd5b505050506040513d601f19601f82011682018060405250810190611c28919061269e565b611c67576040517f08c379a0000000000000000000000000000000000000000000000000000000008152600401611c5e90612728565b60405180910390fd5b6000808585604051611c7a92919061276d565b908152602001604051809103902054905060018181548110611c9f57611c9e612786565b5b90600052602060002090600a020160010173__ChangesLibrary________________________636b6b15cc9091886040518363ffffffff1660e01b8152600401611cea929190612c17565b60006040518083038186803b158015611d0257600080fd5b505af4158015611d16573d6000803e3d6000fd5b505050507fa59a33e81abf86b25a561f609013d867f28b3c0cbc2cdf98e852b0c0c041eb6c858588604051611d4d9392919061321c565b60405180910390a1505050505050565b600260009054906101000a900473ffffffffffffffffffffffffffffffffffffffff1681565b828054611d8f90613099565b90600052602060002090601f016020900481019282611db15760008555611df8565b82601f10611dca57805160ff1916838001178555611df8565b82800160010185558215611df8579182015b82811115611df7578251825591602001919060010190611ddc565b5b509050611e059190611e09565b5090565b5b80821115611e22576000816000905550600101611e0a565b5090565b6000604051905090565b600080fd5b600080fd5b600080fd5b600080fd5b600080fd5b60008083601f840112611e5f57611e5e611e3a565b5b8235905067ffffffffffffffff811115611e7c57611e7b611e3f565b5b602083019150836001820283011115611e9857611e97611e44565b5b9250929050565b60008115159050919050565b611eb481611e9f565b8114611ebf57600080fd5b50565b600081359050611ed181611eab565b92915050565b600080600060408486031215611ef057611eef611e30565b5b600084013567ffffffffffffffff811115611f0e57611f0d611e35565b5b611f1a86828701611e49565b93509350506020611f2d86828701611ec2565b9150509250925092565b600081519050919050565b600082825260208201905092915050565b6000819050602082019050919050565b600081519050919050565b600082825260208201905092915050565b60005b83811015611f9d578082015181840152602081019050611f82565b83811115611fac576000848401525b50505050565b6000601f19601f8301169050919050565b6000611fce82611f63565b611fd88185611f6e565b9350611fe8818560208601611f7f565b611ff181611fb2565b840191505092915050565b60006120088383611fc3565b905092915050565b6000602082019050919050565b600061202882611f37565b6120328185611f42565b93508360208202850161204485611f53565b8060005b8581101561208057848403895281516120618582611ffc565b945061206c83612010565b925060208a01995050600181019050612048565b50829750879550505050505092915050565b600060208201905081810360008301526120ac818461201d565b905092915050565b600073ffffffffffffffffffffffffffffffffffffffff82169050919050565b60006120df826120b4565b9050919050565b6120ef816120d4565b81146120fa57600080fd5b50565b60008135905061210c816120e6565b92915050565b60008060006040848603121561212b5761212a611e30565b5b6000612139868287016120fd565b935050602084013567ffffffffffffffff81111561215a57612159611e35565b5b61216686828701611e49565b92509250509250925092565b6000819050919050565b61218581612172565b82525050565b60006020820190506121a0600083018461217c565b92915050565b600080fd5b7f4e487b7100000000000000000000000000000000000000000000000000000000600052604160045260246000fd5b6121e382611fb2565b810181811067ffffffffffffffff82111715612202576122016121ab565b5b80604052505050565b6000612215611e26565b905061222182826121da565b919050565b600067ffffffffffffffff821115612241576122406121ab565b5b61224a82611fb2565b9050602081019050919050565b82818337600083830152505050565b600061227961227484612226565b61220b565b905082815260208101848484011115612295576122946121a6565b5b6122a0848285612257565b509392505050565b600082601f8301126122bd576122bc611e3a565b5b81356122cd848260208601612266565b91505092915050565b6000602082840312156122ec576122eb611e30565b5b600082013567ffffffffffffffff81111561230a57612309611e35565b5b612316848285016122a8565b91505092915050565b6000806020838503121561233657612335611e30565b5b600083013567ffffffffffffffff81111561235457612353611e35565b5b61236085828601611e49565b92509250509250929050565b600081519050919050565b600082825260208201905092915050565b6000819050602082019050919050565b6123a1816120d4565b82525050565b60006123b38383612398565b60208301905092915050565b6000602082019050919050565b60006123d78261236c565b6123e18185612377565b93506123ec83612388565b8060005b8381101561241d57815161240488826123a7565b975061240f836123bf565b9250506001810190506123f0565b5085935050505092915050565b6000602082019050818103600083015261244481846123cc565b905092915050565b6000806040838503121561246357612462611e30565b5b600083013567ffffffffffffffff81111561248157612480611e35565b5b61248d858286016122a8565b925050602083013567ffffffffffffffff8111156124ae576124ad611e35565b5b6124ba858286016122a8565b9150509250929050565b6000806000604084860312156124dd576124dc611e30565b5b600084013567ffffffffffffffff8111156124fb576124fa611e35565b5b612507868287016122a8565b935050602084013567ffffffffffffffff81111561252857612527611e35565b5b61253486828701611e49565b92509250509250925092565b60008060006040848603121561255957612558611e30565b5b600084013567ffffffffffffffff81111561257757612576611e35565b5b61258386828701611e49565b9350935050602084013567ffffffffffffffff8111156125a6576125a5611e35565b5b6125b2868287016122a8565b9150509250925092565b6000819050919050565b60006125e16125dc6125d7846120b4565b6125bc565b6120b4565b9050919050565b60006125f3826125c6565b9050919050565b6000612605826125e8565b9050919050565b612615816125fa565b82525050565b6000602082019050612630600083018461260c565b92915050565b600081905092915050565b600061264c82611f63565b6126568185612636565b9350612666818560208601611f7f565b80840191505092915050565b600061267e8284612641565b915081905092915050565b60008151905061269881611eab565b92915050565b6000602082840312156126b4576126b3611e30565b5b60006126c284828501612689565b91505092915050565b600082825260208201905092915050565b7f50726f6a65637420646f206e6f74206578697374000000000000000000000000600082015250565b60006127126014836126cb565b915061271d826126dc565b602082019050919050565b6000602082019050818103600083015261274181612705565b9050919050565b60006127548385612636565b9350612761838584612257565b82840190509392505050565b600061277a828486612748565b91508190509392505050565b7f4e487b7100000000000000000000000000000000000000000000000000000000600052603260045260246000fd5b8082525050565b6127c581611e9f565b82525050565b60006040820190506127e060008301856127b5565b6127ed60208301846127bc565b9392505050565b600067ffffffffffffffff82111561280f5761280e6121ab565b5b602082029050602081019050919050565b600061283361282e84612226565b61220b565b90508281526020810184848401111561284f5761284e6121a6565b5b61285a848285611f7f565b509392505050565b600082601f83011261287757612876611e3a565b5b8151612887848260208601612820565b91505092915050565b60006128a361289e846127f4565b61220b565b905080838252602082019050602084028301858111156128c6576128c5611e44565b5b835b8181101561290d57805167ffffffffffffffff8111156128eb576128ea611e3a565b5b8086016128f88982612862565b855260208501945050506020810190506128c8565b5050509392505050565b600082601f83011261292c5761292b611e3a565b5b815161293c848260208601612890565b91505092915050565b60006020828403121561295b5761295a611e30565b5b600082015167ffffffffffffffff81111561297957612978611e35565b5b61298584828501612917565b91505092915050565b612997816120d4565b82525050565b60006040820190506129b2600083018561298e565b6129bf602083018461217c565b9392505050565b6129cf81612172565b81146129da57600080fd5b50565b6000815190506129ec816129c6565b92915050565b600060208284031215612a0857612a07611e30565b5b6000612a16848285016129dd565b91505092915050565b6000602082019050612a3460008301846127b5565b92915050565b600067ffffffffffffffff821115612a5557612a546121ab565b5b602082029050602081019050919050565b600081519050612a75816120e6565b92915050565b6000612a8e612a8984612a3a565b61220b565b90508083825260208201905060208402830185811115612ab157612ab0611e44565b5b835b81811015612ada5780612ac68882612a66565b845260208401935050602081019050612ab3565b5050509392505050565b600082601f830112612af957612af8611e3a565b5b8151612b09848260208601612a7b565b91505092915050565b600060208284031215612b2857612b27611e30565b5b600082015167ffffffffffffffff811115612b4657612b45611e35565b5b612b5284828501612ae4565b91505092915050565b6000819050919050565b6000612b80612b7b612b7684612b5b565b6125bc565b612172565b9050919050565b612b9081612b65565b82525050565b6000606082019050612bab600083018661298e565b612bb8602083018561217c565b612bc56040830184612b87565b949350505050565b600082825260208201905092915050565b6000612be982611f63565b612bf38185612bcd565b9350612c03818560208601611f7f565b612c0c81611fb2565b840191505092915050565b6000604082019050612c2c60008301856127b5565b8181036020830152612c3e8184612bde565b90509392505050565b7f4e65772070726f6a656374206372656174656420776974682049443a00000000600082015250565b6000612c7d601c836126cb565b9150612c8882612c47565b602082019050919050565b6000612c9e82611f63565b612ca881856126cb565b9350612cb8818560208601611f7f565b612cc181611fb2565b840191505092915050565b60006060820190508181036000830152612ce581612c70565b90508181036020830152612cf98185612c93565b9050612d08604083018461217c565b9392505050565b7f416c726561647920766f74656400000000000000000000000000000000000000600082015250565b6000612d45600d836126cb565b9150612d5082612d0f565b602082019050919050565b60006020820190508181036000830152612d7481612d38565b9050919050565b7f566f74696e6720706f77657220697320696e73756666696369656e7400000000600082015250565b6000612db1601c836126cb565b9150612dbc82612d7b565b602082019050919050565b60006020820190508181036000830152612de081612da4565b9050919050565b612df081612172565b82525050565b6000606082019050612e0b60008301866127b5565b8181036020830152612e1d8185612bde565b9050612e2c6040830184612de7565b949350505050565b7f4e657720766f746520666f72206368616e67652070726f706f73616c3a000000600082015250565b6000612e6a601d836126cb565b9150612e7582612e34565b602082019050919050565b6000612e8c83856126cb565b9350612e99838584612257565b612ea283611fb2565b840190509392505050565b600060a0820190508181036000830152612ec681612e5d565b90508181036020830152612edb818789612e80565b90508181036040830152612eef8186612c93565b9050612efe606083018561298e565b612f0b608083018461217c565b9695505050505050565b7f4e6577206368616e67652070726f706f73616c20746f207468652050726f6a6560008201527f6374207769746820746865206e616d6520616e6420666f6c6c6f77696e67204960208201527f4420616e64204349443a00000000000000000000000000000000000000000000604082015250565b6000612f97604a836126cb565b9150612fa282612f15565b606082019050919050565b60006080820190508181036000830152612fc681612f8a565b90508181036020830152612fdb818688612e80565b90508181036040830152612fef8185612c93565b9050612ffe606083018461217c565b95945050505050565b7f4e487b7100000000000000000000000000000000000000000000000000000000600052601160045260246000fd5b600061304182612172565b915061304c83612172565b92508282101561305f5761305e613007565b5b828203905092915050565b7f4e487b7100000000000000000000000000000000000000000000000000000000600052602260045260246000fd5b600060028204905060018216806130b157607f821691505b6020821081036130c4576130c361306a565b5b50919050565b60006130d582612172565b91507fffffffffffffffffffffffffffffffffffffffffffffffffffffffffffffffff820361310757613106613007565b5b600182019050919050565b7f50726f6a656374206368616e67656420746f206368616e67653a200000000000600082015250565b6000613148601b836126cb565b915061315382613112565b602082019050919050565b600060608201905081810360008301526131778161313b565b9050818103602083015261318b8186612c93565b905081810360408301526131a0818486612e80565b9050949350505050565b7f41206e6577206368616e676520686173206265656e206d61646520746f20746860008201527f652070726f6a6563743a20000000000000000000000000000000000000000000602082015250565b6000613206602b836126cb565b9150613211826131aa565b604082019050919050565b60006060820190508181036000830152613235816131f9565b9050818103602083015261324a818587612e80565b9050818103604083015261325e8184612c93565b905094935050505056fea26469706673582212201ef5abf06477c86d10a7ca41380fcb9df69199639256ffe0c39289ca383ea25764736f6c634300080d0033",
  "immutableReferences": {
    "520": [
      {
        "length": 32,
        "start": 4554
      }
    ]
  },
  "source": "// SPDX-License-Identifier: MIT\npragma solidity ^0.8.2;\n\nimport \"../node_modules/@openzeppelin/contracts/utils/Counters.sol\";\nimport \"./Changes.sol\";\nimport \"./ProjectsToken.sol\";\n\n\ncontract Projects {\n    // initiate all the data structures and constants saved on the smart contract\n    uint public immutable TimeLockInterval = 30 days;\n    using Counters for Counters.Counter;\n    using ChangesLibrary for ChangesLibrary.ChangesStorage;\n\n    \n    // -------------------------------------------------------- Mappings\n    mapping(string => uint) public NameToID;    \n\n    // -------------------------------------------------------- Structs\n\n    struct goBack {\n        string changeCID;\n        address goBackMaker;\n        uint votes;\n    }\n\n    struct Project {\n        string name;\n        ChangesLibrary.ChangesStorage changes;\n        goBack[] goBackProposals;\n\n        // time lock\n        uint lastDistributionTime;\n\n        // distribution\n        uint newTokens;\n        mapping(address => uint) pendingTokens;\n        mapping(address => mapping(uint => uint)) TokensSpent; // user => time => tokens spent\n\n        // - ChangeCID => Voter address => Voted?\n        mapping(string => mapping(address => bool)) Voted;\n\n    }\n\n\n    // -------------------------------------------------------- Lists\n    Project[] publicProjects;\n\n    // -------------------------------------------------------- Token\n    ProjectsToken public token;\n\n    // -------------------------------------------------------- Events\n    event NewProjectCreated(string message, string name, uint value);\n    event NewChangeProposalCreated(string message, string Name, string CID, uint indexValue);\n    event NewVoteForChangeProposal(string message, string projectName, string changeProposalCID, address voter, uint votes);\n    event NewChangeIsMadeToProject(string message, string projectName, string changeCID); // Message, Project CID, Message, ChangeCID\n    event ProjectWentBack(string message, string changeCID, string ProjectName);\n    event TokensDisributed(string message, uint lastDistributionTime);\n\n    // -------------------------------------------------------- Modifiers\n    modifier ProjectExist(string memory _Name) {\n        uint idx = NameToID[_Name];\n        require(token.exists(idx), \"Project do not exist\");\n        _;\n    }\n\n\n    // -------------------------------------------------------- Constructor\n    constructor(address tokenAddress) {\n        token = ProjectsToken(tokenAddress);\n    } \n\n    // -------------------------------------------------------- Functions\n\n    // the function create a new project with an inital change\n    function createProject(string memory _CID, string memory projectName) public {\n        uint newProjectID = publicProjects.length;\n        NameToID[projectName] = newProjectID;\n        token.mint(msg.sender, newProjectID, 100);\n        \n        Project storage newProject = publicProjects.push();\n        newProject.name = projectName;\n        newProject.changes.initialize(_CID);\n        newProject.newTokens = 100;\n        newProject.lastDistributionTime = block.timestamp;\n\n        emit NewProjectCreated(\"New project created with ID:\", projectName, newProjectID);\n    }\n\n    // the functions create a change proposal\n    function MakeChangeProposal(\n        string memory _changeCID, \n        string calldata _projectName\n    ) ProjectExist(_projectName) external {\n        uint projectIDX = NameToID[_projectName];\n        publicProjects[projectIDX].changes.createChangeProposal(_changeCID, token.balanceOf(msg.sender, NameToID[_projectName]));\n        publicProjects[projectIDX].Voted[_changeCID][msg.sender] = true;\n        emit NewChangeProposalCreated(\"New change proposal to the Project with the name and following ID and CID:\", _projectName, _changeCID, projectIDX);\n    }\n\n    // the functions make a go back proposal\n    function MakeGoBackProposal(\n        string memory _changeCID, \n        string calldata _projectName\n    ) external {\n        uint projectID = NameToID[_projectName];\n        publicProjects[projectID].goBackProposals.push(goBack(_changeCID, msg.sender, token.balanceOf(msg.sender, NameToID[_projectName])));\n    }\n\n    // the function make a go Back \n    function acceptGoBack(\n        string calldata _projectName, \n        string memory _changeCID\n    ) ProjectExist(_projectName) external {\n        uint projectIDX = NameToID[_projectName];\n        publicProjects[projectIDX].changes.goBack(_changeCID);\n        \n        emit ProjectWentBack(\"Project changed to change: \", _changeCID, _projectName);\n    }\n\n    // the functions accept a change proposal and add it to the list\n    function acceptChangeProposal(\n        string memory _proposedChangeCID, \n        string calldata _projectName\n    ) ProjectExist(_projectName) external {\n        uint projectID = NameToID[_projectName];\n        publicProjects[projectID].changes.acceptChangeProposal(_proposedChangeCID);\n        emit NewChangeIsMadeToProject(\"A new change has been made to the project: \", _projectName, _proposedChangeCID);\n    }\n\n    // the function allow user to vote in favor of a change proposal\n    function voteForChangeProposal(\n        string memory _changeProposalCID, \n        string calldata _projectName\n    ) ProjectExist(_projectName) external {\n        uint projectID = NameToID[_projectName];\n\n        require(publicProjects[projectID].Voted[_changeProposalCID][msg.sender] == false, \"Already voted\");\n\n        uint votingPower = token.balanceOf(msg.sender, projectID);\n        \n        if (votingPower <= 0) {\n            revert(\"Voting power is insufficient\");\n        }\n\n        publicProjects[projectID].changes.voteForChangeProposal(_changeProposalCID, votingPower);\n        publicProjects[projectID].Voted[_changeProposalCID][msg.sender] = true;\n        \n        emit NewVoteForChangeProposal(\n            \"New vote for change proposal:\",\n            _projectName,\n            _changeProposalCID,\n            msg.sender,\n            publicProjects[projectID].changes.getChangeProposalVotes(_changeProposalCID)\n        );\n    }\n\n    function getBalance(\n        address _UserAddress,\n        string calldata _projectName\n    ) ProjectExist(_projectName) external view returns (uint) {\n        return token.balanceOf(_UserAddress, NameToID[_projectName]);\n    }\n\n    // the functions returns the changes/change proposals\n    function getChangesOrProposals(\n        string calldata _projectName, \n        bool changesOrChangeProposals\n    ) ProjectExist(_projectName) external view returns (string[] memory) {\n        uint projectID = NameToID[_projectName];\n        return publicProjects[projectID].changes.getChangesOrChangeProposals(changesOrChangeProposals); // true for changes and false for change proposals\n    }\n\n    function getAddresses(\n        string calldata _projectName\n    ) ProjectExist(_projectName) external view returns (address[] memory) {\n        uint projectID = NameToID[_projectName];\n        return publicProjects[projectID].changes.getAddresses(); // true for changes and false for change proposals\n    }\n\n    // TEMP\n    function getLastProjects() external view returns (string[] memory) {\n        uint arr_length = publicProjects.length;\n        uint arr_index = publicProjects.length;\n        if (arr_length > 10) {\n            arr_length = 10;\n        }\n\n        string[] memory lastProjects = new string[](arr_length);\n        if (publicProjects.length > 0) {\n        for (uint256 i = arr_index - arr_length; i < arr_index; i++) {\n            lastProjects[arr_index - 1 - i] = publicProjects[i].name; \n        }}\n        return lastProjects;\n    }\n\n    function getLastDistriubtionTime(string calldata projectName) external view ProjectExist(projectName) returns (uint)  {\n        uint projectID = NameToID[projectName];\n        return publicProjects[projectID].lastDistributionTime;\n    }\n\n\n\n}\n",
  "sourcePath": "c:\\Users\\User\\Desktop\\\\davidson\\project\\DavidsonProject\\Smart Contract\\contracts\\Projects.sol",
  "compiler": {
    "name": "solc",
    "version": "0.8.13+commit.abaa5c0e.Emscripten.clang"
  },
  "schemaVersion": "3.4.7",
  "updatedAt": "2024-03-09T15:11:37.308Z",
  "networkType": "ethereum",
  "devdoc": {
    "kind": "dev",
    "methods": {},
    "version": 1
  },
  "userdoc": {
    "kind": "user",
    "methods": {},
    "version": 1
  }
}