{
  "contractName": "Projects",
  "abi": [
    {
      "inputs": [
        {
          "internalType": "address",
          "name": "tokenAddress",
          "type": "address"
        }
      ],
      "stateMutability": "nonpayable",
      "type": "constructor"
    },
    {
      "anonymous": false,
      "inputs": [
        {
          "indexed": false,
          "internalType": "string",
          "name": "message",
          "type": "string"
        },
        {
          "indexed": false,
          "internalType": "string",
          "name": "projectName",
          "type": "string"
        },
        {
          "indexed": false,
          "internalType": "string",
          "name": "changeCID",
          "type": "string"
        }
      ],
      "name": "NewChangeIsMadeToProject",
      "type": "event"
    },
    {
      "anonymous": false,
      "inputs": [
        {
          "indexed": false,
          "internalType": "string",
          "name": "message",
          "type": "string"
        },
        {
          "indexed": false,
          "internalType": "string",
          "name": "Name",
          "type": "string"
        },
        {
          "indexed": false,
          "internalType": "string",
          "name": "CID",
          "type": "string"
        },
        {
          "indexed": false,
          "internalType": "uint256",
          "name": "indexValue",
          "type": "uint256"
        }
      ],
      "name": "NewChangeProposalCreated",
      "type": "event"
    },
    {
      "anonymous": false,
      "inputs": [
        {
          "indexed": false,
          "internalType": "string",
          "name": "message",
          "type": "string"
        },
        {
          "indexed": false,
          "internalType": "string",
          "name": "name",
          "type": "string"
        },
        {
          "indexed": false,
          "internalType": "uint256",
          "name": "value",
          "type": "uint256"
        }
      ],
      "name": "NewProjectCreated",
      "type": "event"
    },
    {
      "anonymous": false,
      "inputs": [
        {
          "indexed": false,
          "internalType": "string",
          "name": "message",
          "type": "string"
        },
        {
          "indexed": false,
          "internalType": "string",
          "name": "projectName",
          "type": "string"
        },
        {
          "indexed": false,
          "internalType": "string",
          "name": "changeProposalCID",
          "type": "string"
        },
        {
          "indexed": false,
          "internalType": "address",
          "name": "voter",
          "type": "address"
        },
        {
          "indexed": false,
          "internalType": "uint256",
          "name": "votes",
          "type": "uint256"
        }
      ],
      "name": "NewVoteForChangeProposal",
      "type": "event"
    },
    {
      "anonymous": false,
      "inputs": [
        {
          "indexed": false,
          "internalType": "string",
          "name": "message",
          "type": "string"
        },
        {
          "indexed": false,
          "internalType": "string",
          "name": "changeCID",
          "type": "string"
        },
        {
          "indexed": false,
          "internalType": "string",
          "name": "ProjectName",
          "type": "string"
        }
      ],
      "name": "ProjectWentBack",
      "type": "event"
    },
    {
      "anonymous": false,
      "inputs": [
        {
          "indexed": false,
          "internalType": "string",
          "name": "message",
          "type": "string"
        },
        {
          "indexed": false,
          "internalType": "uint256",
          "name": "lastDistributionTime",
          "type": "uint256"
        }
      ],
      "name": "TokensDisributed",
      "type": "event"
    },
    {
      "inputs": [],
      "name": "ClaimingInterval",
      "outputs": [
        {
          "internalType": "uint256",
          "name": "",
          "type": "uint256"
        }
      ],
      "stateMutability": "view",
      "type": "function"
    },
    {
      "inputs": [
        {
          "internalType": "string",
          "name": "",
          "type": "string"
        }
      ],
      "name": "NameToID",
      "outputs": [
        {
          "internalType": "uint256",
          "name": "",
          "type": "uint256"
        }
      ],
      "stateMutability": "view",
      "type": "function"
    },
    {
      "inputs": [],
      "name": "TimeLockInterval",
      "outputs": [
        {
          "internalType": "uint256",
          "name": "",
          "type": "uint256"
        }
      ],
      "stateMutability": "view",
      "type": "function"
    },
    {
      "inputs": [],
      "name": "token",
      "outputs": [
        {
          "internalType": "contract ProjectsToken",
          "name": "",
          "type": "address"
        }
      ],
      "stateMutability": "view",
      "type": "function"
    },
    {
      "inputs": [
        {
          "internalType": "string",
          "name": "_CID",
          "type": "string"
        },
        {
          "internalType": "string",
          "name": "projectName",
          "type": "string"
        }
      ],
      "name": "createProject",
      "outputs": [],
      "stateMutability": "nonpayable",
      "type": "function"
    },
    {
      "inputs": [
        {
          "internalType": "string",
          "name": "_changeCID",
          "type": "string"
        },
        {
          "internalType": "string",
          "name": "_projectName",
          "type": "string"
        }
      ],
      "name": "MakeChangeProposal",
      "outputs": [],
      "stateMutability": "nonpayable",
      "type": "function"
    },
    {
      "inputs": [
        {
          "internalType": "string",
          "name": "_changeCID",
          "type": "string"
        },
        {
          "internalType": "string",
          "name": "_projectName",
          "type": "string"
        }
      ],
      "name": "MakeGoBackProposal",
      "outputs": [],
      "stateMutability": "nonpayable",
      "type": "function"
    },
    {
      "inputs": [
        {
          "internalType": "string",
          "name": "_projectName",
          "type": "string"
        },
        {
          "internalType": "string",
          "name": "_changeCID",
          "type": "string"
        }
      ],
      "name": "acceptGoBack",
      "outputs": [],
      "stateMutability": "nonpayable",
      "type": "function"
    },
    {
      "inputs": [
        {
          "internalType": "string",
          "name": "_proposedChangeCID",
          "type": "string"
        },
        {
          "internalType": "string",
          "name": "_projectName",
          "type": "string"
        }
      ],
      "name": "acceptChangeProposal",
      "outputs": [],
      "stateMutability": "nonpayable",
      "type": "function"
    },
    {
      "inputs": [
        {
          "internalType": "string",
          "name": "_changeProposalCID",
          "type": "string"
        },
        {
          "internalType": "string",
          "name": "_projectName",
          "type": "string"
        }
      ],
      "name": "voteForChangeProposal",
      "outputs": [],
      "stateMutability": "nonpayable",
      "type": "function"
    },
    {
      "inputs": [
        {
          "internalType": "address",
          "name": "_UserAddress",
          "type": "address"
        },
        {
          "internalType": "string",
          "name": "_projectName",
          "type": "string"
        }
      ],
      "name": "getBalance",
      "outputs": [
        {
          "internalType": "uint256",
          "name": "",
          "type": "uint256"
        }
      ],
      "stateMutability": "view",
      "type": "function"
    },
    {
      "inputs": [
        {
          "internalType": "string",
          "name": "_projectName",
          "type": "string"
        },
        {
          "internalType": "bool",
          "name": "changesOrChangeProposals",
          "type": "bool"
        }
      ],
      "name": "getChangesOrProposals",
      "outputs": [
        {
          "internalType": "string[]",
          "name": "",
          "type": "string[]"
        }
      ],
      "stateMutability": "view",
      "type": "function"
    },
    {
      "inputs": [
        {
          "internalType": "string",
          "name": "_projectName",
          "type": "string"
        }
      ],
      "name": "getAddresses",
      "outputs": [
        {
          "internalType": "address[]",
          "name": "",
          "type": "address[]"
        }
      ],
      "stateMutability": "view",
      "type": "function"
    },
    {
      "inputs": [
        {
          "internalType": "string",
          "name": "_projectName",
          "type": "string"
        },
        {
          "internalType": "string",
          "name": "change",
          "type": "string"
        }
      ],
      "name": "getChangeMaker",
      "outputs": [
        {
          "internalType": "address",
          "name": "",
          "type": "address"
        }
      ],
      "stateMutability": "view",
      "type": "function"
    },
    {
      "inputs": [],
      "name": "getLastProjects",
      "outputs": [
        {
          "internalType": "string[]",
          "name": "",
          "type": "string[]"
        }
      ],
      "stateMutability": "view",
      "type": "function"
    },
    {
      "inputs": [
        {
          "internalType": "string",
          "name": "projectName",
          "type": "string"
        }
      ],
      "name": "getLastDistriubtionTime",
      "outputs": [
        {
          "internalType": "uint256",
          "name": "",
          "type": "uint256"
        }
      ],
      "stateMutability": "view",
      "type": "function"
    },
    {
      "inputs": [
        {
          "internalType": "address",
          "name": "usr",
          "type": "address"
        },
        {
          "internalType": "string",
          "name": "projectName",
          "type": "string"
        }
      ],
      "name": "getPendingTokens",
      "outputs": [
        {
          "internalType": "uint256",
          "name": "",
          "type": "uint256"
        }
      ],
      "stateMutability": "view",
      "type": "function"
    }
  ],
  "bytecode": "0x60806040523480156200001157600080fd5b50604051620039c8380380620039c88339818101604052810190620000379190620000e9565b80600260006101000a81548173ffffffffffffffffffffffffffffffffffffffff021916908373ffffffffffffffffffffffffffffffffffffffff160217905550506200011b565b600080fd5b600073ffffffffffffffffffffffffffffffffffffffff82169050919050565b6000620000b18262000084565b9050919050565b620000c381620000a4565b8114620000cf57600080fd5b50565b600081519050620000e381620000b8565b92915050565b6000602082840312156200010257620001016200007f565b5b60006200011284828501620000d2565b91505092915050565b61389d806200012b6000396000f3fe608060405234801561001057600080fd5b506004361061010b5760003560e01c8063750354d2116100a2578063a563596311610071578063a5635963146102de578063a90d00cd146102fa578063c4687fb81461032a578063ed0c2d9014610346578063fc0c546a146103625761010b565b8063750354d21461026a5780637a5945da146102865780638d1446fc146102a4578063a54d804d146102c05761010b565b806347d8899a116100de57806347d8899a146101d057806351e684ba14610200578063546969931461021e5780636bd062041461024e5761010b565b80631d7147d8146101105780631dd7cecf1461014057806333846eba1461017057806339b64c30146101a0575b600080fd5b61012a60048036038101906101259190612358565b610380565b6040516101379190612513565b60405180910390f35b61015a60048036038101906101559190612593565b610599565b604051610167919061260c565b60405180910390f35b61018a60048036038101906101859190612757565b6107a5565b604051610197919061260c565b60405180910390f35b6101ba60048036038101906101b591906127a0565b6107d3565b6040516101c791906128ab565b60405180910390f35b6101ea60048036038101906101e591906127a0565b6109e9565b6040516101f7919061260c565b60405180910390f35b610208610b82565b604051610215919061260c565b60405180910390f35b61023860048036038101906102339190612593565b610b87565b604051610245919061260c565b60405180910390f35b610268600480360381019061026391906128cd565b610d5e565b005b610284600480360381019061027f9190612945565b610f26565b005b61028e611450565b60405161029b919061260c565b60405180910390f35b6102be60048036038101906102b99190612945565b611456565b005b6102c86117e4565b6040516102d59190612513565b60405180910390f35b6102f860048036038101906102f39190612945565b611982565b005b610314600480360381019061030f91906129c1565b611b57565b6040516103219190612a51565b60405180910390f35b610344600480360381019061033f9190612a6c565b611d6e565b005b610360600480360381019061035b9190612945565b611fa6565b005b61036a6121de565b6040516103779190612b47565b60405180910390f35b606083838080601f016020809104026020016040519081016040528093929190818152602001838380828437600081840152601f19601f82011690508083019250505050505050600080826040516103d89190612b9e565b9081526020016040518091039020549050600260009054906101000a900473ffffffffffffffffffffffffffffffffffffffff1673ffffffffffffffffffffffffffffffffffffffff16634f558e79826040518263ffffffff1660e01b8152600401610444919061260c565b602060405180830381865afa158015610461573d6000803e3d6000fd5b505050506040513d601f19601f820116820180604052508101906104859190612bca565b6104c4576040517f08c379a00000000000000000000000000000000000000000000000000000000081526004016104bb90612c54565b60405180910390fd5b60008087876040516104d7929190612c99565b9081526020016040518091039020549050600181815481106104fc576104fb612cb2565b5b90600052602060002090600a020160010173__ChangesLibrary________________________63e3e26be89091876040518363ffffffff1660e01b8152600401610547929190612cf7565b600060405180830381865af4158015610564573d6000803e3d6000fd5b505050506040513d6000823e3d601f19601f8201168201806040525081019061058d9190612e71565b93505050509392505050565b600082828080601f016020809104026020016040519081016040528093929190818152602001838380828437600081840152601f19601f82011690508083019250505050505050600080826040516105f19190612b9e565b9081526020016040518091039020549050600260009054906101000a900473ffffffffffffffffffffffffffffffffffffffff1673ffffffffffffffffffffffffffffffffffffffff16634f558e79826040518263ffffffff1660e01b815260040161065d919061260c565b602060405180830381865afa15801561067a573d6000803e3d6000fd5b505050506040513d601f19601f8201168201806040525081019061069e9190612bca565b6106dd576040517f08c379a00000000000000000000000000000000000000000000000000000000081526004016106d490612c54565b60405180910390fd5b600260009054906101000a900473ffffffffffffffffffffffffffffffffffffffff1673ffffffffffffffffffffffffffffffffffffffff1662fdd58e876000888860405161072d929190612c99565b9081526020016040518091039020546040518363ffffffff1660e01b8152600401610759929190612eba565b602060405180830381865afa158015610776573d6000803e3d6000fd5b505050506040513d601f19601f8201168201806040525081019061079a9190612f0f565b925050509392505050565b6000818051602081018201805184825260208301602085012081835280955050505050506000915090505481565b606082828080601f016020809104026020016040519081016040528093929190818152602001838380828437600081840152601f19601f820116905080830192505050505050506000808260405161082b9190612b9e565b9081526020016040518091039020549050600260009054906101000a900473ffffffffffffffffffffffffffffffffffffffff1673ffffffffffffffffffffffffffffffffffffffff16634f558e79826040518263ffffffff1660e01b8152600401610897919061260c565b602060405180830381865afa1580156108b4573d6000803e3d6000fd5b505050506040513d601f19601f820116820180604052508101906108d89190612bca565b610917576040517f08c379a000000000000000000000000000000000000000000000000000000000815260040161090e90612c54565b60405180910390fd5b600080868660405161092a929190612c99565b90815260200160405180910390205490506001818154811061094f5761094e612cb2565b5b90600052602060002090600a020160010173__ChangesLibrary________________________635a45338590916040518263ffffffff1660e01b81526004016109989190612f3c565b600060405180830381865af41580156109b5573d6000803e3d6000fd5b505050506040513d6000823e3d601f19601f820116820180604052508101906109de919061302f565b935050505092915050565b600082828080601f016020809104026020016040519081016040528093929190818152602001838380828437600081840152601f19601f8201169050808301925050505050505060008082604051610a419190612b9e565b9081526020016040518091039020549050600260009054906101000a900473ffffffffffffffffffffffffffffffffffffffff1673ffffffffffffffffffffffffffffffffffffffff16634f558e79826040518263ffffffff1660e01b8152600401610aad919061260c565b602060405180830381865afa158015610aca573d6000803e3d6000fd5b505050506040513d601f19601f82011682018060405250810190610aee9190612bca565b610b2d576040517f08c379a0000000000000000000000000000000000000000000000000000000008152600401610b2490612c54565b60405180910390fd5b6000808686604051610b40929190612c99565b908152602001604051809103902054905060018181548110610b6557610b64612cb2565b5b90600052602060002090600a020160050154935050505092915050565b607881565b600082828080601f016020809104026020016040519081016040528093929190818152602001838380828437600081840152601f19601f8201169050808301925050505050505060008082604051610bdf9190612b9e565b9081526020016040518091039020549050600260009054906101000a900473ffffffffffffffffffffffffffffffffffffffff1673ffffffffffffffffffffffffffffffffffffffff16634f558e79826040518263ffffffff1660e01b8152600401610c4b919061260c565b602060405180830381865afa158015610c68573d6000803e3d6000fd5b505050506040513d601f19601f82011682018060405250810190610c8c9190612bca565b610ccb576040517f08c379a0000000000000000000000000000000000000000000000000000000008152600401610cc290612c54565b60405180910390fd5b6000808686604051610cde929190612c99565b908152602001604051809103902054905060018181548110610d0357610d02612cb2565b5b90600052602060002090600a020160070160008873ffffffffffffffffffffffffffffffffffffffff1673ffffffffffffffffffffffffffffffffffffffff1681526020019081526020016000205493505050509392505050565b6000600180549050905080600083604051610d799190612b9e565b908152602001604051809103902081905550600260009054906101000a900473ffffffffffffffffffffffffffffffffffffffff1673ffffffffffffffffffffffffffffffffffffffff1663156e29f6338360646040518463ffffffff1660e01b8152600401610deb939291906130b3565b600060405180830381600087803b158015610e0557600080fd5b505af1158015610e19573d6000803e3d6000fd5b505050506000600180816001815401808255809150500390600052602060002090600a0201905082816000019080519060200190610e58929190612204565b508060010173__ChangesLibrary________________________63aaff905a9091866040518363ffffffff1660e01b8152600401610e97929190613134565b60006040518083038186803b158015610eaf57600080fd5b505af4158015610ec3573d6000803e3d6000fd5b505050506064816006018190555061025842610edf9190613193565b81600501819055507fe224389b386caecb8e3b38edc39361c7227e3ef820a8276bc31ac9cf1ba69fcd8383604051610f1892919061326e565b60405180910390a150505050565b81818080601f016020809104026020016040519081016040528093929190818152602001838380828437600081840152601f19601f8201169050808301925050505050505060008082604051610f7c9190612b9e565b9081526020016040518091039020549050600260009054906101000a900473ffffffffffffffffffffffffffffffffffffffff1673ffffffffffffffffffffffffffffffffffffffff16634f558e79826040518263ffffffff1660e01b8152600401610fe8919061260c565b602060405180830381865afa158015611005573d6000803e3d6000fd5b505050506040513d601f19601f820116820180604052508101906110299190612bca565b611068576040517f08c379a000000000000000000000000000000000000000000000000000000000815260040161105f90612c54565b60405180910390fd5b600080858560405161107b929190612c99565b908152602001604051809103902054905060001515600182815481106110a4576110a3612cb2565b5b90600052602060002090600a0201600901876040516110c39190612b9e565b908152602001604051809103902060003373ffffffffffffffffffffffffffffffffffffffff1673ffffffffffffffffffffffffffffffffffffffff16815260200190815260200160002060009054906101000a900460ff1615151461115e576040517f08c379a0000000000000000000000000000000000000000000000000000000008152600401611155906132fd565b60405180910390fd5b6000600260009054906101000a900473ffffffffffffffffffffffffffffffffffffffff1673ffffffffffffffffffffffffffffffffffffffff1662fdd58e33846040518363ffffffff1660e01b81526004016111bc929190612eba565b602060405180830381865afa1580156111d9573d6000803e3d6000fd5b505050506040513d601f19601f820116820180604052508101906111fd9190612f0f565b905060008111611242576040517f08c379a000000000000000000000000000000000000000000000000000000000815260040161123990613369565b60405180910390fd5b6001828154811061125657611255612cb2565b5b90600052602060002090600a020160010173__ChangesLibrary________________________637dba11cb909189846040518463ffffffff1660e01b81526004016112a393929190613398565b60006040518083038186803b1580156112bb57600080fd5b505af41580156112cf573d6000803e3d6000fd5b5050505060018083815481106112e8576112e7612cb2565b5b90600052602060002090600a0201600901886040516113079190612b9e565b908152602001604051809103902060003373ffffffffffffffffffffffffffffffffffffffff1673ffffffffffffffffffffffffffffffffffffffff16815260200190815260200160002060006101000a81548160ff0219169083151502179055507f0defd832aa647eb845ac2ed5e414ba9da1d13d7c3b2028fea20853913891174d86868933600187815481106113a2576113a1612cb2565b5b90600052602060002090600a020160010173__ChangesLibrary________________________63ca5451d290918e6040518363ffffffff1660e01b81526004016113ed929190613134565b602060405180830381865af415801561140a573d6000803e3d6000fd5b505050506040513d601f19601f8201168201806040525081019061142e9190612f0f565b60405161143f95949392919061344f565b60405180910390a150505050505050565b61025881565b81818080601f016020809104026020016040519081016040528093929190818152602001838380828437600081840152601f19601f82011690508083019250505050505050600080826040516114ac9190612b9e565b9081526020016040518091039020549050600260009054906101000a900473ffffffffffffffffffffffffffffffffffffffff1673ffffffffffffffffffffffffffffffffffffffff16634f558e79826040518263ffffffff1660e01b8152600401611518919061260c565b602060405180830381865afa158015611535573d6000803e3d6000fd5b505050506040513d601f19601f820116820180604052508101906115599190612bca565b611598576040517f08c379a000000000000000000000000000000000000000000000000000000000815260040161158f90612c54565b60405180910390fd5b60008085856040516115ab929190612c99565b9081526020016040518091039020549050600181815481106115d0576115cf612cb2565b5b90600052602060002090600a020160010173__ChangesLibrary________________________636de060a8909188600260009054906101000a900473ffffffffffffffffffffffffffffffffffffffff1673ffffffffffffffffffffffffffffffffffffffff1662fdd58e3360008c8c60405161164e929190612c99565b9081526020016040518091039020546040518363ffffffff1660e01b815260040161167a929190612eba565b602060405180830381865afa158015611697573d6000803e3d6000fd5b505050506040513d601f19601f820116820180604052508101906116bb9190612f0f565b6040518463ffffffff1660e01b81526004016116d993929190613398565b60006040518083038186803b1580156116f157600080fd5b505af4158015611705573d6000803e3d6000fd5b50505050600180828154811061171e5761171d612cb2565b5b90600052602060002090600a02016009018760405161173d9190612b9e565b908152602001604051809103902060003373ffffffffffffffffffffffffffffffffffffffff1673ffffffffffffffffffffffffffffffffffffffff16815260200190815260200160002060006101000a81548160ff0219169083151502179055507f7b7acf540aac5e16ce3dfbd4d106c203a301da603c18502d179f60282962e5c4858588846040516117d4949392919061354f565b60405180910390a1505050505050565b60606000600180549050905060006001805490509050600a82111561180857600a91505b60008267ffffffffffffffff8111156118245761182361262c565b5b60405190808252806020026020018201604052801561185757816020015b60608152602001906001900390816118425790505b50905060006001805490501115611979576000838361187691906135a9565b90505b82811015611977576001818154811061189557611894612cb2565b5b90600052602060002090600a020160000180546118b19061360c565b80601f01602080910402602001604051908101604052809291908181526020018280546118dd9061360c565b801561192a5780601f106118ff5761010080835404028352916020019161192a565b820191906000526020600020905b81548152906001019060200180831161190d57829003601f168201915b5050505050828260018661193e91906135a9565b61194891906135a9565b8151811061195957611958612cb2565b5b6020026020010181905250808061196f9061363d565b915050611879565b505b80935050505090565b6000808383604051611995929190612c99565b9081526020016040518091039020549050600181815481106119ba576119b9612cb2565b5b90600052602060002090600a020160040160405180606001604052808681526020013373ffffffffffffffffffffffffffffffffffffffff168152602001600260009054906101000a900473ffffffffffffffffffffffffffffffffffffffff1673ffffffffffffffffffffffffffffffffffffffff1662fdd58e3360008989604051611a48929190612c99565b9081526020016040518091039020546040518363ffffffff1660e01b8152600401611a74929190612eba565b602060405180830381865afa158015611a91573d6000803e3d6000fd5b505050506040513d601f19601f82011682018060405250810190611ab59190612f0f565b81525090806001815401808255809150506001900390600052602060002090600302016000909190919091506000820151816000019080519060200190611afd929190612204565b5060208201518160010160006101000a81548173ffffffffffffffffffffffffffffffffffffffff021916908373ffffffffffffffffffffffffffffffffffffffff16021790555060408201518160020155505050505050565b600084848080601f016020809104026020016040519081016040528093929190818152602001838380828437600081840152601f19601f8201169050808301925050505050505060008082604051611baf9190612b9e565b9081526020016040518091039020549050600260009054906101000a900473ffffffffffffffffffffffffffffffffffffffff1673ffffffffffffffffffffffffffffffffffffffff16634f558e79826040518263ffffffff1660e01b8152600401611c1b919061260c565b602060405180830381865afa158015611c38573d6000803e3d6000fd5b505050506040513d601f19601f82011682018060405250810190611c5c9190612bca565b611c9b576040517f08c379a0000000000000000000000000000000000000000000000000000000008152600401611c9290612c54565b60405180910390fd5b6000808888604051611cae929190612c99565b908152602001604051809103902054905060018181548110611cd357611cd2612cb2565b5b90600052602060002090600a020160010173__ChangesLibrary________________________631ecd7085909188886040518463ffffffff1660e01b8152600401611d20939291906136b2565b602060405180830381865af4158015611d3d573d6000803e3d6000fd5b505050506040513d601f19601f82011682018060405250810190611d6191906136e4565b9350505050949350505050565b82828080601f016020809104026020016040519081016040528093929190818152602001838380828437600081840152601f19601f8201169050808301925050505050505060008082604051611dc49190612b9e565b9081526020016040518091039020549050600260009054906101000a900473ffffffffffffffffffffffffffffffffffffffff1673ffffffffffffffffffffffffffffffffffffffff16634f558e79826040518263ffffffff1660e01b8152600401611e30919061260c565b602060405180830381865afa158015611e4d573d6000803e3d6000fd5b505050506040513d601f19601f82011682018060405250810190611e719190612bca565b611eb0576040517f08c379a0000000000000000000000000000000000000000000000000000000008152600401611ea790612c54565b60405180910390fd5b6000808686604051611ec3929190612c99565b908152602001604051809103902054905060018181548110611ee857611ee7612cb2565b5b90600052602060002090600a020160010173__ChangesLibrary________________________637cbb44f99091866040518363ffffffff1660e01b8152600401611f33929190613134565b60006040518083038186803b158015611f4b57600080fd5b505af4158015611f5f573d6000803e3d6000fd5b505050507f718a982b61bc723a0c68281b0eb10e1cff37bd89888841ae545c98cd5493a056848787604051611f969392919061375d565b60405180910390a1505050505050565b81818080601f016020809104026020016040519081016040528093929190818152602001838380828437600081840152601f19601f8201169050808301925050505050505060008082604051611ffc9190612b9e565b9081526020016040518091039020549050600260009054906101000a900473ffffffffffffffffffffffffffffffffffffffff1673ffffffffffffffffffffffffffffffffffffffff16634f558e79826040518263ffffffff1660e01b8152600401612068919061260c565b602060405180830381865afa158015612085573d6000803e3d6000fd5b505050506040513d601f19601f820116820180604052508101906120a99190612bca565b6120e8576040517f08c379a00000000000000000000000000000000000000000000000000000000081526004016120df90612c54565b60405180910390fd5b60008085856040516120fb929190612c99565b9081526020016040518091039020549050600181815481106121205761211f612cb2565b5b90600052602060002090600a020160010173__ChangesLibrary________________________636b6b15cc9091886040518363ffffffff1660e01b815260040161216b929190613134565b60006040518083038186803b15801561218357600080fd5b505af4158015612197573d6000803e3d6000fd5b505050507fa59a33e81abf86b25a561f609013d867f28b3c0cbc2cdf98e852b0c0c041eb6c8585886040516121ce9392919061381b565b60405180910390a1505050505050565b600260009054906101000a900473ffffffffffffffffffffffffffffffffffffffff1681565b8280546122109061360c565b90600052602060002090601f0160209004810192826122325760008555612279565b82601f1061224b57805160ff1916838001178555612279565b82800160010185558215612279579182015b8281111561227857825182559160200191906001019061225d565b5b509050612286919061228a565b5090565b5b808211156122a357600081600090555060010161228b565b5090565b6000604051905090565b600080fd5b600080fd5b600080fd5b600080fd5b600080fd5b60008083601f8401126122e0576122df6122bb565b5b8235905067ffffffffffffffff8111156122fd576122fc6122c0565b5b602083019150836001820283011115612319576123186122c5565b5b9250929050565b60008115159050919050565b61233581612320565b811461234057600080fd5b50565b6000813590506123528161232c565b92915050565b600080600060408486031215612371576123706122b1565b5b600084013567ffffffffffffffff81111561238f5761238e6122b6565b5b61239b868287016122ca565b935093505060206123ae86828701612343565b9150509250925092565b600081519050919050565b600082825260208201905092915050565b6000819050602082019050919050565b600081519050919050565b600082825260208201905092915050565b60005b8381101561241e578082015181840152602081019050612403565b8381111561242d576000848401525b50505050565b6000601f19601f8301169050919050565b600061244f826123e4565b61245981856123ef565b9350612469818560208601612400565b61247281612433565b840191505092915050565b60006124898383612444565b905092915050565b6000602082019050919050565b60006124a9826123b8565b6124b381856123c3565b9350836020820285016124c5856123d4565b8060005b8581101561250157848403895281516124e2858261247d565b94506124ed83612491565b925060208a019950506001810190506124c9565b50829750879550505050505092915050565b6000602082019050818103600083015261252d818461249e565b905092915050565b600073ffffffffffffffffffffffffffffffffffffffff82169050919050565b600061256082612535565b9050919050565b61257081612555565b811461257b57600080fd5b50565b60008135905061258d81612567565b92915050565b6000806000604084860312156125ac576125ab6122b1565b5b60006125ba8682870161257e565b935050602084013567ffffffffffffffff8111156125db576125da6122b6565b5b6125e7868287016122ca565b92509250509250925092565b6000819050919050565b612606816125f3565b82525050565b600060208201905061262160008301846125fd565b92915050565b600080fd5b7f4e487b7100000000000000000000000000000000000000000000000000000000600052604160045260246000fd5b61266482612433565b810181811067ffffffffffffffff821117156126835761268261262c565b5b80604052505050565b60006126966122a7565b90506126a2828261265b565b919050565b600067ffffffffffffffff8211156126c2576126c161262c565b5b6126cb82612433565b9050602081019050919050565b82818337600083830152505050565b60006126fa6126f5846126a7565b61268c565b90508281526020810184848401111561271657612715612627565b5b6127218482856126d8565b509392505050565b600082601f83011261273e5761273d6122bb565b5b813561274e8482602086016126e7565b91505092915050565b60006020828403121561276d5761276c6122b1565b5b600082013567ffffffffffffffff81111561278b5761278a6122b6565b5b61279784828501612729565b91505092915050565b600080602083850312156127b7576127b66122b1565b5b600083013567ffffffffffffffff8111156127d5576127d46122b6565b5b6127e1858286016122ca565b92509250509250929050565b600081519050919050565b600082825260208201905092915050565b6000819050602082019050919050565b61282281612555565b82525050565b60006128348383612819565b60208301905092915050565b6000602082019050919050565b6000612858826127ed565b61286281856127f8565b935061286d83612809565b8060005b8381101561289e5781516128858882612828565b975061289083612840565b925050600181019050612871565b5085935050505092915050565b600060208201905081810360008301526128c5818461284d565b905092915050565b600080604083850312156128e4576128e36122b1565b5b600083013567ffffffffffffffff811115612902576129016122b6565b5b61290e85828601612729565b925050602083013567ffffffffffffffff81111561292f5761292e6122b6565b5b61293b85828601612729565b9150509250929050565b60008060006040848603121561295e5761295d6122b1565b5b600084013567ffffffffffffffff81111561297c5761297b6122b6565b5b61298886828701612729565b935050602084013567ffffffffffffffff8111156129a9576129a86122b6565b5b6129b5868287016122ca565b92509250509250925092565b600080600080604085870312156129db576129da6122b1565b5b600085013567ffffffffffffffff8111156129f9576129f86122b6565b5b612a05878288016122ca565b9450945050602085013567ffffffffffffffff811115612a2857612a276122b6565b5b612a34878288016122ca565b925092505092959194509250565b612a4b81612555565b82525050565b6000602082019050612a666000830184612a42565b92915050565b600080600060408486031215612a8557612a846122b1565b5b600084013567ffffffffffffffff811115612aa357612aa26122b6565b5b612aaf868287016122ca565b9350935050602084013567ffffffffffffffff811115612ad257612ad16122b6565b5b612ade86828701612729565b9150509250925092565b6000819050919050565b6000612b0d612b08612b0384612535565b612ae8565b612535565b9050919050565b6000612b1f82612af2565b9050919050565b6000612b3182612b14565b9050919050565b612b4181612b26565b82525050565b6000602082019050612b5c6000830184612b38565b92915050565b600081905092915050565b6000612b78826123e4565b612b828185612b62565b9350612b92818560208601612400565b80840191505092915050565b6000612baa8284612b6d565b915081905092915050565b600081519050612bc48161232c565b92915050565b600060208284031215612be057612bdf6122b1565b5b6000612bee84828501612bb5565b91505092915050565b600082825260208201905092915050565b7f50726f6a65637420646f206e6f74206578697374000000000000000000000000600082015250565b6000612c3e601483612bf7565b9150612c4982612c08565b602082019050919050565b60006020820190508181036000830152612c6d81612c31565b9050919050565b6000612c808385612b62565b9350612c8d8385846126d8565b82840190509392505050565b6000612ca6828486612c74565b91508190509392505050565b7f4e487b7100000000000000000000000000000000000000000000000000000000600052603260045260246000fd5b8082525050565b612cf181612320565b82525050565b6000604082019050612d0c6000830185612ce1565b612d196020830184612ce8565b9392505050565b600067ffffffffffffffff821115612d3b57612d3a61262c565b5b602082029050602081019050919050565b6000612d5f612d5a846126a7565b61268c565b905082815260208101848484011115612d7b57612d7a612627565b5b612d86848285612400565b509392505050565b600082601f830112612da357612da26122bb565b5b8151612db3848260208601612d4c565b91505092915050565b6000612dcf612dca84612d20565b61268c565b90508083825260208201905060208402830185811115612df257612df16122c5565b5b835b81811015612e3957805167ffffffffffffffff811115612e1757612e166122bb565b5b808601612e248982612d8e565b85526020850194505050602081019050612df4565b5050509392505050565b600082601f830112612e5857612e576122bb565b5b8151612e68848260208601612dbc565b91505092915050565b600060208284031215612e8757612e866122b1565b5b600082015167ffffffffffffffff811115612ea557612ea46122b6565b5b612eb184828501612e43565b91505092915050565b6000604082019050612ecf6000830185612a42565b612edc60208301846125fd565b9392505050565b612eec816125f3565b8114612ef757600080fd5b50565b600081519050612f0981612ee3565b92915050565b600060208284031215612f2557612f246122b1565b5b6000612f3384828501612efa565b91505092915050565b6000602082019050612f516000830184612ce1565b92915050565b600067ffffffffffffffff821115612f7257612f7161262c565b5b602082029050602081019050919050565b600081519050612f9281612567565b92915050565b6000612fab612fa684612f57565b61268c565b90508083825260208201905060208402830185811115612fce57612fcd6122c5565b5b835b81811015612ff75780612fe38882612f83565b845260208401935050602081019050612fd0565b5050509392505050565b600082601f830112613016576130156122bb565b5b8151613026848260208601612f98565b91505092915050565b600060208284031215613045576130446122b1565b5b600082015167ffffffffffffffff811115613063576130626122b6565b5b61306f84828501613001565b91505092915050565b6000819050919050565b600061309d61309861309384613078565b612ae8565b6125f3565b9050919050565b6130ad81613082565b82525050565b60006060820190506130c86000830186612a42565b6130d560208301856125fd565b6130e260408301846130a4565b949350505050565b600082825260208201905092915050565b6000613106826123e4565b61311081856130ea565b9350613120818560208601612400565b61312981612433565b840191505092915050565b60006040820190506131496000830185612ce1565b818103602083015261315b81846130fb565b90509392505050565b7f4e487b7100000000000000000000000000000000000000000000000000000000600052601160045260246000fd5b600061319e826125f3565b91506131a9836125f3565b9250827fffffffffffffffffffffffffffffffffffffffffffffffffffffffffffffffff038211156131de576131dd613164565b5b828201905092915050565b7f4e65772070726f6a656374206372656174656420776974682049443a00000000600082015250565b600061321f601c83612bf7565b915061322a826131e9565b602082019050919050565b6000613240826123e4565b61324a8185612bf7565b935061325a818560208601612400565b61326381612433565b840191505092915050565b6000606082019050818103600083015261328781613212565b9050818103602083015261329b8185613235565b90506132aa60408301846125fd565b9392505050565b7f416c726561647920766f74656400000000000000000000000000000000000000600082015250565b60006132e7600d83612bf7565b91506132f2826132b1565b602082019050919050565b60006020820190508181036000830152613316816132da565b9050919050565b7f566f74696e6720706f77657220697320696e73756666696369656e7400000000600082015250565b6000613353601c83612bf7565b915061335e8261331d565b602082019050919050565b6000602082019050818103600083015261338281613346565b9050919050565b613392816125f3565b82525050565b60006060820190506133ad6000830186612ce1565b81810360208301526133bf81856130fb565b90506133ce6040830184613389565b949350505050565b7f4e657720766f746520666f72206368616e67652070726f706f73616c3a000000600082015250565b600061340c601d83612bf7565b9150613417826133d6565b602082019050919050565b600061342e8385612bf7565b935061343b8385846126d8565b61344483612433565b840190509392505050565b600060a0820190508181036000830152613468816133ff565b9050818103602083015261347d818789613422565b905081810360408301526134918186613235565b90506134a06060830185612a42565b6134ad60808301846125fd565b9695505050505050565b7f4e6577206368616e67652070726f706f73616c20746f207468652050726f6a6560008201527f6374207769746820746865206e616d6520616e6420666f6c6c6f77696e67204960208201527f4420616e64204349443a00000000000000000000000000000000000000000000604082015250565b6000613539604a83612bf7565b9150613544826134b7565b606082019050919050565b600060808201905081810360008301526135688161352c565b9050818103602083015261357d818688613422565b905081810360408301526135918185613235565b90506135a060608301846125fd565b95945050505050565b60006135b4826125f3565b91506135bf836125f3565b9250828210156135d2576135d1613164565b5b828203905092915050565b7f4e487b7100000000000000000000000000000000000000000000000000000000600052602260045260246000fd5b6000600282049050600182168061362457607f821691505b602082108103613637576136366135dd565b5b50919050565b6000613648826125f3565b91507fffffffffffffffffffffffffffffffffffffffffffffffffffffffffffffffff820361367a57613679613164565b5b600182019050919050565b600061369183856130ea565b935061369e8385846126d8565b6136a783612433565b840190509392505050565b60006040820190506136c76000830186612ce1565b81810360208301526136da818486613685565b9050949350505050565b6000602082840312156136fa576136f96122b1565b5b600061370884828501612f83565b91505092915050565b7f50726f6a656374206368616e67656420746f206368616e67653a200000000000600082015250565b6000613747601b83612bf7565b915061375282613711565b602082019050919050565b600060608201905081810360008301526137768161373a565b9050818103602083015261378a8186613235565b9050818103604083015261379f818486613422565b9050949350505050565b7f41206e6577206368616e676520686173206265656e206d61646520746f20746860008201527f652070726f6a6563743a20000000000000000000000000000000000000000000602082015250565b6000613805602b83612bf7565b9150613810826137a9565b604082019050919050565b60006060820190508181036000830152613834816137f8565b90508181036020830152613849818587613422565b9050818103604083015261385d8184613235565b905094935050505056fea26469706673582212204087c900a5e91ed9f94ecd36930667851ddce5f3b0026e3940fb19b5c7c62b0164736f6c634300080d0033",
  "immutableReferences": {},
  "source": "// SPDX-License-Identifier: MIT\npragma solidity ^0.8.13;\n\nimport \"../node_modules/@openzeppelin/contracts/utils/Counters.sol\";\nimport \"./Changes.sol\";\nimport \"./ProjectsToken.sol\";\n\n\ncontract Projects {\n    // initiate all the data structures and constants saved on the smart contract\n    uint public constant TimeLockInterval = 10 minutes;\n    uint public constant ClaimingInterval = 2 minutes;\n\n    using Counters for Counters.Counter;\n    using ChangesLibrary for ChangesLibrary.ChangesStorage;\n\n    \n    // -------------------------------------------------------- Mappings\n    mapping(string => uint) public NameToID;    \n\n    // -------------------------------------------------------- Structs\n\n    struct goBack {\n        string changeCID;\n        address goBackMaker;\n        uint votes;\n    }\n\n    struct Project {\n        string name;\n        ChangesLibrary.ChangesStorage changes;\n        goBack[] goBackProposals;\n\n        // time lock\n        uint DistributionTime;\n\n        // distribution\n        uint newTokens;\n        mapping(address => uint) pendingTokens;\n        mapping(address => mapping(uint => uint)) TokensSpent; // user => time => tokens spent\n\n        // - ChangeCID => Voter address => Voted?\n        mapping(string => mapping(address => bool)) Voted;\n\n    }\n\n\n    // -------------------------------------------------------- Lists\n    Project[] publicProjects;\n\n    // -------------------------------------------------------- Token\n    ProjectsToken public token;\n\n    // -------------------------------------------------------- Events\n    event NewProjectCreated(string message, string name, uint value);\n    event NewChangeProposalCreated(string message, string Name, string CID, uint indexValue);\n    event NewVoteForChangeProposal(string message, string projectName, string changeProposalCID, address voter, uint votes);\n    event NewChangeIsMadeToProject(string message, string projectName, string changeCID); // Message, Project CID, Message, ChangeCID\n    event ProjectWentBack(string message, string changeCID, string ProjectName);\n    event TokensDisributed(string message, uint lastDistributionTime);\n\n    // -------------------------------------------------------- Modifiers\n    modifier ProjectExist(string memory _Name) {\n        uint idx = NameToID[_Name];\n        require(token.exists(idx), \"Project do not exist\");\n        _;\n    }\n\n\n    // -------------------------------------------------------- Constructor\n    constructor(address tokenAddress) {\n        token = ProjectsToken(tokenAddress);\n    } \n\n    // -------------------------------------------------------- Functions\n\n    // the function create a new project with an inital change\n    function createProject(string memory _CID, string memory projectName) public {\n        uint newProjectID = publicProjects.length;\n        NameToID[projectName] = newProjectID;\n        token.mint(msg.sender, newProjectID, 100);\n        \n        Project storage newProject = publicProjects.push();\n        newProject.name = projectName;\n        newProject.changes.initialize(_CID);\n        newProject.newTokens = 100;\n        newProject.DistributionTime = block.timestamp + TimeLockInterval; \n\n        emit NewProjectCreated(\"New project created with ID:\", projectName, newProjectID);\n    }\n\n\n    // the functions create a change proposal\n    function MakeChangeProposal(\n        string memory _changeCID, \n        string calldata _projectName\n    ) ProjectExist(_projectName) external {\n        uint projectIDX = NameToID[_projectName];\n        publicProjects[projectIDX].changes.createChangeProposal(_changeCID, token.balanceOf(msg.sender, NameToID[_projectName]));\n        publicProjects[projectIDX].Voted[_changeCID][msg.sender] = true;\n        emit NewChangeProposalCreated(\"New change proposal to the Project with the name and following ID and CID:\", _projectName, _changeCID, projectIDX);\n    }\n\n\n    // the functions make a go back proposal\n    function MakeGoBackProposal(\n        string memory _changeCID, \n        string calldata _projectName\n    ) external {\n        uint projectID = NameToID[_projectName];\n        publicProjects[projectID].goBackProposals.push(goBack(_changeCID, msg.sender, token.balanceOf(msg.sender, NameToID[_projectName])));\n    }\n\n\n    // the function make a go Back \n    function acceptGoBack(\n        string calldata _projectName, \n        string memory _changeCID\n    ) ProjectExist(_projectName) external {\n        uint projectIDX = NameToID[_projectName];\n        publicProjects[projectIDX].changes.goBack(_changeCID);\n        \n        emit ProjectWentBack(\"Project changed to change: \", _changeCID, _projectName);\n    }\n\n\n    // the functions accept a change proposal and add it to the list\n    function acceptChangeProposal(\n        string memory _proposedChangeCID, \n        string calldata _projectName\n    ) ProjectExist(_projectName) external {\n        uint projectID = NameToID[_projectName];\n        publicProjects[projectID].changes.acceptChangeProposal(_proposedChangeCID);\n        emit NewChangeIsMadeToProject(\"A new change has been made to the project: \", _projectName, _proposedChangeCID);\n    }\n\n\n    // the function allow user to vote in favor of a change proposal\n    function voteForChangeProposal(\n        string memory _changeProposalCID, \n        string calldata _projectName\n    ) ProjectExist(_projectName) external {\n        uint projectID = NameToID[_projectName];\n\n        require(publicProjects[projectID].Voted[_changeProposalCID][msg.sender] == false, \"Already voted\");\n\n        uint votingPower = token.balanceOf(msg.sender, projectID);\n        \n        if (votingPower <= 0) {\n            revert(\"Voting power is insufficient\");\n        }\n\n        publicProjects[projectID].changes.voteForChangeProposal(_changeProposalCID, votingPower);\n        publicProjects[projectID].Voted[_changeProposalCID][msg.sender] = true;\n        \n        emit NewVoteForChangeProposal(\n            \"New vote for change proposal:\",\n            _projectName,\n            _changeProposalCID,\n            msg.sender,\n            publicProjects[projectID].changes.getChangeProposalVotes(_changeProposalCID)\n        );\n    }\n\n\n    function getBalance(\n        address _UserAddress,\n        string calldata _projectName\n    ) ProjectExist(_projectName) external view returns (uint) {\n        return token.balanceOf(_UserAddress, NameToID[_projectName]);\n    }\n\n\n    // the functions returns the changes/change proposals\n    function getChangesOrProposals(\n        string calldata _projectName, \n        bool changesOrChangeProposals\n    ) ProjectExist(_projectName) external view returns (string[] memory) {\n        uint projectID = NameToID[_projectName];\n        return publicProjects[projectID].changes.getChangesOrChangeProposals(changesOrChangeProposals); // true for changes and false for change proposals\n    }\n\n\n    function getAddresses(\n        string calldata _projectName\n    ) ProjectExist(_projectName) external view returns (address[] memory) {\n        uint projectID = NameToID[_projectName];\n        return publicProjects[projectID].changes.getAddresses(); // true for changes and false for change proposals\n    }\n\n\n    function getChangeMaker(\n        string calldata _projectName,\n        string calldata change\n    ) ProjectExist(_projectName) external view returns (address) {\n        uint projectID = NameToID[_projectName];\n        return publicProjects[projectID].changes.getChangeMaker(change);\n    }\n\n\n    // TEMP\n    function getLastProjects() external view returns (string[] memory) {\n        uint arr_length = publicProjects.length;\n        uint arr_index = publicProjects.length;\n        if (arr_length > 10) {\n            arr_length = 10;\n        }\n\n        string[] memory lastProjects = new string[](arr_length);\n        if (publicProjects.length > 0) {\n        for (uint256 i = arr_index - arr_length; i < arr_index; i++) {\n            lastProjects[arr_index - 1 - i] = publicProjects[i].name; \n        }}\n        return lastProjects;\n    }\n\n\n    function getLastDistriubtionTime(string calldata projectName) external view ProjectExist(projectName) returns (uint)  {\n        uint projectID = NameToID[projectName];\n        return publicProjects[projectID].DistributionTime;\n    }\n\n\n    function getPendingTokens(address usr, string calldata projectName) ProjectExist(projectName) external view returns (uint) {\n        uint projectID = NameToID[projectName];\n        return publicProjects[projectID].pendingTokens[usr];\n    }\n}\n",
  "sourcePath": "c:\\Users\\User\\Desktop\\\\davidson\\project\\DavidsonProject\\Smart Contract\\contracts\\Projects.sol",
  "compiler": {
    "name": "solc",
    "version": "0.8.13+commit.abaa5c0e.Emscripten.clang"
  },
  "schemaVersion": "3.4.7",
  "updatedAt": "2024-04-11T16:15:25.909Z",
  "networkType": "ethereum",
  "devdoc": {
    "kind": "dev",
    "methods": {},
    "version": 1
  },
  "userdoc": {
    "kind": "user",
    "methods": {},
    "version": 1
  }
}