{
  "contractName": "Projects",
  "abi": [
    {
      "inputs": [
        {
          "internalType": "address",
          "name": "tokenAddress",
          "type": "address"
        }
      ],
      "stateMutability": "nonpayable",
      "type": "constructor"
    },
    {
      "anonymous": false,
      "inputs": [
        {
          "indexed": false,
          "internalType": "string",
          "name": "message",
          "type": "string"
        },
        {
          "indexed": false,
          "internalType": "string",
          "name": "projectName",
          "type": "string"
        },
        {
          "indexed": false,
          "internalType": "string",
          "name": "changeCID",
          "type": "string"
        }
      ],
      "name": "NewChangeIsMadeToProject",
      "type": "event"
    },
    {
      "anonymous": false,
      "inputs": [
        {
          "indexed": false,
          "internalType": "string",
          "name": "message",
          "type": "string"
        },
        {
          "indexed": false,
          "internalType": "string",
          "name": "Name",
          "type": "string"
        },
        {
          "indexed": false,
          "internalType": "string",
          "name": "CID",
          "type": "string"
        },
        {
          "indexed": false,
          "internalType": "uint256",
          "name": "indexValue",
          "type": "uint256"
        }
      ],
      "name": "NewChangeProposalCreated",
      "type": "event"
    },
    {
      "anonymous": false,
      "inputs": [
        {
          "indexed": false,
          "internalType": "string",
          "name": "message",
          "type": "string"
        },
        {
          "indexed": false,
          "internalType": "string",
          "name": "name",
          "type": "string"
        },
        {
          "indexed": false,
          "internalType": "uint256",
          "name": "value",
          "type": "uint256"
        }
      ],
      "name": "NewProjectCreated",
      "type": "event"
    },
    {
      "anonymous": false,
      "inputs": [
        {
          "indexed": false,
          "internalType": "string",
          "name": "message",
          "type": "string"
        },
        {
          "indexed": false,
          "internalType": "string",
          "name": "projectName",
          "type": "string"
        },
        {
          "indexed": false,
          "internalType": "string",
          "name": "changeProposalCID",
          "type": "string"
        },
        {
          "indexed": false,
          "internalType": "address",
          "name": "voter",
          "type": "address"
        },
        {
          "indexed": false,
          "internalType": "uint256",
          "name": "votes",
          "type": "uint256"
        }
      ],
      "name": "NewVoteForChangeProposal",
      "type": "event"
    },
    {
      "anonymous": false,
      "inputs": [
        {
          "indexed": false,
          "internalType": "string",
          "name": "message",
          "type": "string"
        },
        {
          "indexed": false,
          "internalType": "string",
          "name": "changeCID",
          "type": "string"
        },
        {
          "indexed": false,
          "internalType": "string",
          "name": "ProjectName",
          "type": "string"
        }
      ],
      "name": "ProjectWentBack",
      "type": "event"
    },
    {
      "anonymous": false,
      "inputs": [
        {
          "indexed": false,
          "internalType": "string",
          "name": "message",
          "type": "string"
        },
        {
          "indexed": false,
          "internalType": "uint256",
          "name": "lastDistributionTime",
          "type": "uint256"
        }
      ],
      "name": "TokensDisributed",
      "type": "event"
    },
    {
      "inputs": [
        {
          "internalType": "string",
          "name": "",
          "type": "string"
        }
      ],
      "name": "NameToID",
      "outputs": [
        {
          "internalType": "uint256",
          "name": "",
          "type": "uint256"
        }
      ],
      "stateMutability": "view",
      "type": "function"
    },
    {
      "inputs": [],
      "name": "TimeLockInterval",
      "outputs": [
        {
          "internalType": "uint256",
          "name": "",
          "type": "uint256"
        }
      ],
      "stateMutability": "view",
      "type": "function"
    },
    {
      "inputs": [],
      "name": "token",
      "outputs": [
        {
          "internalType": "contract ProjectsToken",
          "name": "",
          "type": "address"
        }
      ],
      "stateMutability": "view",
      "type": "function"
    },
    {
      "inputs": [
        {
          "internalType": "string",
          "name": "_CID",
          "type": "string"
        },
        {
          "internalType": "string",
          "name": "projectName",
          "type": "string"
        }
      ],
      "name": "createProject",
      "outputs": [],
      "stateMutability": "nonpayable",
      "type": "function"
    },
    {
      "inputs": [
        {
          "internalType": "string",
          "name": "_changeCID",
          "type": "string"
        },
        {
          "internalType": "string",
          "name": "_projectName",
          "type": "string"
        }
      ],
      "name": "MakeChangeProposal",
      "outputs": [],
      "stateMutability": "nonpayable",
      "type": "function"
    },
    {
      "inputs": [
        {
          "internalType": "string",
          "name": "_changeCID",
          "type": "string"
        },
        {
          "internalType": "string",
          "name": "_projectName",
          "type": "string"
        }
      ],
      "name": "MakeGoBackProposal",
      "outputs": [],
      "stateMutability": "nonpayable",
      "type": "function"
    },
    {
      "inputs": [
        {
          "internalType": "string",
          "name": "_projectName",
          "type": "string"
        },
        {
          "internalType": "string",
          "name": "_changeCID",
          "type": "string"
        }
      ],
      "name": "acceptGoBack",
      "outputs": [],
      "stateMutability": "nonpayable",
      "type": "function"
    },
    {
      "inputs": [
        {
          "internalType": "string",
          "name": "_proposedChangeCID",
          "type": "string"
        },
        {
          "internalType": "string",
          "name": "_projectName",
          "type": "string"
        }
      ],
      "name": "acceptChangeProposal",
      "outputs": [],
      "stateMutability": "nonpayable",
      "type": "function"
    },
    {
      "inputs": [
        {
          "internalType": "string",
          "name": "_changeProposalCID",
          "type": "string"
        },
        {
          "internalType": "string",
          "name": "_projectName",
          "type": "string"
        }
      ],
      "name": "voteForChangeProposal",
      "outputs": [],
      "stateMutability": "nonpayable",
      "type": "function"
    },
    {
      "inputs": [
        {
          "internalType": "address",
          "name": "_UserAddress",
          "type": "address"
        },
        {
          "internalType": "string",
          "name": "_projectName",
          "type": "string"
        }
      ],
      "name": "getBalance",
      "outputs": [
        {
          "internalType": "uint256",
          "name": "",
          "type": "uint256"
        }
      ],
      "stateMutability": "view",
      "type": "function"
    },
    {
      "inputs": [
        {
          "internalType": "string",
          "name": "_projectName",
          "type": "string"
        },
        {
          "internalType": "bool",
          "name": "changesOrChangeProposals",
          "type": "bool"
        }
      ],
      "name": "getChangesOrProposals",
      "outputs": [
        {
          "internalType": "string[]",
          "name": "",
          "type": "string[]"
        }
      ],
      "stateMutability": "view",
      "type": "function"
    },
    {
      "inputs": [
        {
          "internalType": "string",
          "name": "_projectName",
          "type": "string"
        }
      ],
      "name": "getAddresses",
      "outputs": [
        {
          "internalType": "address[]",
          "name": "",
          "type": "address[]"
        }
      ],
      "stateMutability": "view",
      "type": "function"
    },
    {
      "inputs": [],
      "name": "getLastProjects",
      "outputs": [
        {
          "internalType": "string[]",
          "name": "",
          "type": "string[]"
        }
      ],
      "stateMutability": "view",
      "type": "function"
    },
    {
      "inputs": [
        {
          "internalType": "string",
          "name": "projectName",
          "type": "string"
        }
      ],
      "name": "getLastDistriubtionTime",
      "outputs": [
        {
          "internalType": "uint256",
          "name": "",
          "type": "uint256"
        }
      ],
      "stateMutability": "view",
      "type": "function"
    },
    {
      "inputs": [
        {
          "internalType": "address",
          "name": "usr",
          "type": "address"
        },
        {
          "internalType": "string",
          "name": "projectName",
          "type": "string"
        }
      ],
      "name": "getPendingTokens",
      "outputs": [
        {
          "internalType": "uint256",
          "name": "",
          "type": "uint256"
        }
      ],
      "stateMutability": "view",
      "type": "function"
    }
  ],
  "bytecode": "0x60806040523480156200001157600080fd5b506040516200361e3803806200361e8339818101604052810190620000379190620000e9565b80600260006101000a81548173ffffffffffffffffffffffffffffffffffffffff021916908373ffffffffffffffffffffffffffffffffffffffff160217905550506200011b565b600080fd5b600073ffffffffffffffffffffffffffffffffffffffff82169050919050565b6000620000b18262000084565b9050919050565b620000c381620000a4565b8114620000cf57600080fd5b50565b600081519050620000e381620000b8565b92915050565b6000602082840312156200010257620001016200007f565b5b60006200011284828501620000d2565b91505092915050565b6134f3806200012b6000396000f3fe608060405234801561001057600080fd5b50600436106100f55760003560e01c8063750354d211610097578063a563596311610066578063a5635963146102aa578063c4687fb8146102c6578063ed0c2d90146102e2578063fc0c546a146102fe576100f5565b8063750354d2146102365780637a5945da146102525780638d1446fc14610270578063a54d804d1461028c576100f5565b806339b64c30116100d357806339b64c301461018a57806347d8899a146101ba57806354696993146101ea5780636bd062041461021a576100f5565b80631d7147d8146100fa5780631dd7cecf1461012a57806333846eba1461015a575b600080fd5b610114600480360381019061010f91906120d6565b61031c565b6040516101219190612291565b60405180910390f35b610144600480360381019061013f9190612311565b610535565b604051610151919061238a565b60405180910390f35b610174600480360381019061016f91906124d5565b610741565b604051610181919061238a565b60405180910390f35b6101a4600480360381019061019f919061251e565b61076f565b6040516101b19190612629565b60405180910390f35b6101d460048036038101906101cf919061251e565b610985565b6040516101e1919061238a565b60405180910390f35b61020460048036038101906101ff9190612311565b610b1e565b604051610211919061238a565b60405180910390f35b610234600480360381019061022f919061264b565b610cf5565b005b610250600480360381019061024b91906126c3565b610ebc565b005b61025a6113e6565b604051610267919061238a565b60405180910390f35b61028a600480360381019061028591906126c3565b6113eb565b005b610294611779565b6040516102a19190612291565b60405180910390f35b6102c460048036038101906102bf91906126c3565b611917565b005b6102e060048036038101906102db919061273f565b611aec565b005b6102fc60048036038101906102f791906126c3565b611d24565b005b610306611f5c565b604051610313919061281a565b60405180910390f35b606083838080601f016020809104026020016040519081016040528093929190818152602001838380828437600081840152601f19601f82011690508083019250505050505050600080826040516103749190612871565b9081526020016040518091039020549050600260009054906101000a900473ffffffffffffffffffffffffffffffffffffffff1673ffffffffffffffffffffffffffffffffffffffff16634f558e79826040518263ffffffff1660e01b81526004016103e0919061238a565b602060405180830381865afa1580156103fd573d6000803e3d6000fd5b505050506040513d601f19601f82011682018060405250810190610421919061289d565b610460576040517f08c379a000000000000000000000000000000000000000000000000000000000815260040161045790612927565b60405180910390fd5b600080878760405161047392919061296c565b90815260200160405180910390205490506001818154811061049857610497612985565b5b90600052602060002090600a020160010173__ChangesLibrary________________________63e3e26be89091876040518363ffffffff1660e01b81526004016104e39291906129ca565b600060405180830381865af4158015610500573d6000803e3d6000fd5b505050506040513d6000823e3d601f19601f820116820180604052508101906105299190612b44565b93505050509392505050565b600082828080601f016020809104026020016040519081016040528093929190818152602001838380828437600081840152601f19601f820116905080830192505050505050506000808260405161058d9190612871565b9081526020016040518091039020549050600260009054906101000a900473ffffffffffffffffffffffffffffffffffffffff1673ffffffffffffffffffffffffffffffffffffffff16634f558e79826040518263ffffffff1660e01b81526004016105f9919061238a565b602060405180830381865afa158015610616573d6000803e3d6000fd5b505050506040513d601f19601f8201168201806040525081019061063a919061289d565b610679576040517f08c379a000000000000000000000000000000000000000000000000000000000815260040161067090612927565b60405180910390fd5b600260009054906101000a900473ffffffffffffffffffffffffffffffffffffffff1673ffffffffffffffffffffffffffffffffffffffff1662fdd58e87600088886040516106c992919061296c565b9081526020016040518091039020546040518363ffffffff1660e01b81526004016106f5929190612b9c565b602060405180830381865afa158015610712573d6000803e3d6000fd5b505050506040513d601f19601f820116820180604052508101906107369190612bf1565b925050509392505050565b6000818051602081018201805184825260208301602085012081835280955050505050506000915090505481565b606082828080601f016020809104026020016040519081016040528093929190818152602001838380828437600081840152601f19601f82011690508083019250505050505050600080826040516107c79190612871565b9081526020016040518091039020549050600260009054906101000a900473ffffffffffffffffffffffffffffffffffffffff1673ffffffffffffffffffffffffffffffffffffffff16634f558e79826040518263ffffffff1660e01b8152600401610833919061238a565b602060405180830381865afa158015610850573d6000803e3d6000fd5b505050506040513d601f19601f82011682018060405250810190610874919061289d565b6108b3576040517f08c379a00000000000000000000000000000000000000000000000000000000081526004016108aa90612927565b60405180910390fd5b60008086866040516108c692919061296c565b9081526020016040518091039020549050600181815481106108eb576108ea612985565b5b90600052602060002090600a020160010173__ChangesLibrary________________________635a45338590916040518263ffffffff1660e01b81526004016109349190612c1e565b600060405180830381865af4158015610951573d6000803e3d6000fd5b505050506040513d6000823e3d601f19601f8201168201806040525081019061097a9190612d11565b935050505092915050565b600082828080601f016020809104026020016040519081016040528093929190818152602001838380828437600081840152601f19601f82011690508083019250505050505050600080826040516109dd9190612871565b9081526020016040518091039020549050600260009054906101000a900473ffffffffffffffffffffffffffffffffffffffff1673ffffffffffffffffffffffffffffffffffffffff16634f558e79826040518263ffffffff1660e01b8152600401610a49919061238a565b602060405180830381865afa158015610a66573d6000803e3d6000fd5b505050506040513d601f19601f82011682018060405250810190610a8a919061289d565b610ac9576040517f08c379a0000000000000000000000000000000000000000000000000000000008152600401610ac090612927565b60405180910390fd5b6000808686604051610adc92919061296c565b908152602001604051809103902054905060018181548110610b0157610b00612985565b5b90600052602060002090600a020160050154935050505092915050565b600082828080601f016020809104026020016040519081016040528093929190818152602001838380828437600081840152601f19601f8201169050808301925050505050505060008082604051610b769190612871565b9081526020016040518091039020549050600260009054906101000a900473ffffffffffffffffffffffffffffffffffffffff1673ffffffffffffffffffffffffffffffffffffffff16634f558e79826040518263ffffffff1660e01b8152600401610be2919061238a565b602060405180830381865afa158015610bff573d6000803e3d6000fd5b505050506040513d601f19601f82011682018060405250810190610c23919061289d565b610c62576040517f08c379a0000000000000000000000000000000000000000000000000000000008152600401610c5990612927565b60405180910390fd5b6000808686604051610c7592919061296c565b908152602001604051809103902054905060018181548110610c9a57610c99612985565b5b90600052602060002090600a020160070160008873ffffffffffffffffffffffffffffffffffffffff1673ffffffffffffffffffffffffffffffffffffffff1681526020019081526020016000205493505050509392505050565b6000600180549050905080600083604051610d109190612871565b908152602001604051809103902081905550600260009054906101000a900473ffffffffffffffffffffffffffffffffffffffff1673ffffffffffffffffffffffffffffffffffffffff1663156e29f6338360646040518463ffffffff1660e01b8152600401610d8293929190612d95565b600060405180830381600087803b158015610d9c57600080fd5b505af1158015610db0573d6000803e3d6000fd5b505050506000600180816001815401808255809150500390600052602060002090600a0201905082816000019080519060200190610def929190611f82565b508060010173__ChangesLibrary________________________63aaff905a9091866040518363ffffffff1660e01b8152600401610e2e929190612e16565b60006040518083038186803b158015610e4657600080fd5b505af4158015610e5a573d6000803e3d6000fd5b5050505060648160060181905550607842610e759190612e75565b81600501819055507fe224389b386caecb8e3b38edc39361c7227e3ef820a8276bc31ac9cf1ba69fcd8383604051610eae929190612f50565b60405180910390a150505050565b81818080601f016020809104026020016040519081016040528093929190818152602001838380828437600081840152601f19601f8201169050808301925050505050505060008082604051610f129190612871565b9081526020016040518091039020549050600260009054906101000a900473ffffffffffffffffffffffffffffffffffffffff1673ffffffffffffffffffffffffffffffffffffffff16634f558e79826040518263ffffffff1660e01b8152600401610f7e919061238a565b602060405180830381865afa158015610f9b573d6000803e3d6000fd5b505050506040513d601f19601f82011682018060405250810190610fbf919061289d565b610ffe576040517f08c379a0000000000000000000000000000000000000000000000000000000008152600401610ff590612927565b60405180910390fd5b600080858560405161101192919061296c565b9081526020016040518091039020549050600015156001828154811061103a57611039612985565b5b90600052602060002090600a0201600901876040516110599190612871565b908152602001604051809103902060003373ffffffffffffffffffffffffffffffffffffffff1673ffffffffffffffffffffffffffffffffffffffff16815260200190815260200160002060009054906101000a900460ff161515146110f4576040517f08c379a00000000000000000000000000000000000000000000000000000000081526004016110eb90612fdf565b60405180910390fd5b6000600260009054906101000a900473ffffffffffffffffffffffffffffffffffffffff1673ffffffffffffffffffffffffffffffffffffffff1662fdd58e33846040518363ffffffff1660e01b8152600401611152929190612b9c565b602060405180830381865afa15801561116f573d6000803e3d6000fd5b505050506040513d601f19601f820116820180604052508101906111939190612bf1565b9050600081116111d8576040517f08c379a00000000000000000000000000000000000000000000000000000000081526004016111cf9061304b565b60405180910390fd5b600182815481106111ec576111eb612985565b5b90600052602060002090600a020160010173__ChangesLibrary________________________637dba11cb909189846040518463ffffffff1660e01b81526004016112399392919061307a565b60006040518083038186803b15801561125157600080fd5b505af4158015611265573d6000803e3d6000fd5b50505050600180838154811061127e5761127d612985565b5b90600052602060002090600a02016009018860405161129d9190612871565b908152602001604051809103902060003373ffffffffffffffffffffffffffffffffffffffff1673ffffffffffffffffffffffffffffffffffffffff16815260200190815260200160002060006101000a81548160ff0219169083151502179055507f0defd832aa647eb845ac2ed5e414ba9da1d13d7c3b2028fea20853913891174d868689336001878154811061133857611337612985565b5b90600052602060002090600a020160010173__ChangesLibrary________________________63ca5451d290918e6040518363ffffffff1660e01b8152600401611383929190612e16565b602060405180830381865af41580156113a0573d6000803e3d6000fd5b505050506040513d601f19601f820116820180604052508101906113c49190612bf1565b6040516113d5959493929190613131565b60405180910390a150505050505050565b607881565b81818080601f016020809104026020016040519081016040528093929190818152602001838380828437600081840152601f19601f82011690508083019250505050505050600080826040516114419190612871565b9081526020016040518091039020549050600260009054906101000a900473ffffffffffffffffffffffffffffffffffffffff1673ffffffffffffffffffffffffffffffffffffffff16634f558e79826040518263ffffffff1660e01b81526004016114ad919061238a565b602060405180830381865afa1580156114ca573d6000803e3d6000fd5b505050506040513d601f19601f820116820180604052508101906114ee919061289d565b61152d576040517f08c379a000000000000000000000000000000000000000000000000000000000815260040161152490612927565b60405180910390fd5b600080858560405161154092919061296c565b90815260200160405180910390205490506001818154811061156557611564612985565b5b90600052602060002090600a020160010173__ChangesLibrary________________________636de060a8909188600260009054906101000a900473ffffffffffffffffffffffffffffffffffffffff1673ffffffffffffffffffffffffffffffffffffffff1662fdd58e3360008c8c6040516115e392919061296c565b9081526020016040518091039020546040518363ffffffff1660e01b815260040161160f929190612b9c565b602060405180830381865afa15801561162c573d6000803e3d6000fd5b505050506040513d601f19601f820116820180604052508101906116509190612bf1565b6040518463ffffffff1660e01b815260040161166e9392919061307a565b60006040518083038186803b15801561168657600080fd5b505af415801561169a573d6000803e3d6000fd5b5050505060018082815481106116b3576116b2612985565b5b90600052602060002090600a0201600901876040516116d29190612871565b908152602001604051809103902060003373ffffffffffffffffffffffffffffffffffffffff1673ffffffffffffffffffffffffffffffffffffffff16815260200190815260200160002060006101000a81548160ff0219169083151502179055507f7b7acf540aac5e16ce3dfbd4d106c203a301da603c18502d179f60282962e5c4858588846040516117699493929190613231565b60405180910390a1505050505050565b60606000600180549050905060006001805490509050600a82111561179d57600a91505b60008267ffffffffffffffff8111156117b9576117b86123aa565b5b6040519080825280602002602001820160405280156117ec57816020015b60608152602001906001900390816117d75790505b5090506000600180549050111561190e576000838361180b919061328b565b90505b8281101561190c576001818154811061182a57611829612985565b5b90600052602060002090600a02016000018054611846906132ee565b80601f0160208091040260200160405190810160405280929190818152602001828054611872906132ee565b80156118bf5780601f10611894576101008083540402835291602001916118bf565b820191906000526020600020905b8154815290600101906020018083116118a257829003601f168201915b505050505082826001866118d3919061328b565b6118dd919061328b565b815181106118ee576118ed612985565b5b602002602001018190525080806119049061331f565b91505061180e565b505b80935050505090565b600080838360405161192a92919061296c565b90815260200160405180910390205490506001818154811061194f5761194e612985565b5b90600052602060002090600a020160040160405180606001604052808681526020013373ffffffffffffffffffffffffffffffffffffffff168152602001600260009054906101000a900473ffffffffffffffffffffffffffffffffffffffff1673ffffffffffffffffffffffffffffffffffffffff1662fdd58e33600089896040516119dd92919061296c565b9081526020016040518091039020546040518363ffffffff1660e01b8152600401611a09929190612b9c565b602060405180830381865afa158015611a26573d6000803e3d6000fd5b505050506040513d601f19601f82011682018060405250810190611a4a9190612bf1565b81525090806001815401808255809150506001900390600052602060002090600302016000909190919091506000820151816000019080519060200190611a92929190611f82565b5060208201518160010160006101000a81548173ffffffffffffffffffffffffffffffffffffffff021916908373ffffffffffffffffffffffffffffffffffffffff16021790555060408201518160020155505050505050565b82828080601f016020809104026020016040519081016040528093929190818152602001838380828437600081840152601f19601f8201169050808301925050505050505060008082604051611b429190612871565b9081526020016040518091039020549050600260009054906101000a900473ffffffffffffffffffffffffffffffffffffffff1673ffffffffffffffffffffffffffffffffffffffff16634f558e79826040518263ffffffff1660e01b8152600401611bae919061238a565b602060405180830381865afa158015611bcb573d6000803e3d6000fd5b505050506040513d601f19601f82011682018060405250810190611bef919061289d565b611c2e576040517f08c379a0000000000000000000000000000000000000000000000000000000008152600401611c2590612927565b60405180910390fd5b6000808686604051611c4192919061296c565b908152602001604051809103902054905060018181548110611c6657611c65612985565b5b90600052602060002090600a020160010173__ChangesLibrary________________________637cbb44f99091866040518363ffffffff1660e01b8152600401611cb1929190612e16565b60006040518083038186803b158015611cc957600080fd5b505af4158015611cdd573d6000803e3d6000fd5b505050507f718a982b61bc723a0c68281b0eb10e1cff37bd89888841ae545c98cd5493a056848787604051611d14939291906133b3565b60405180910390a1505050505050565b81818080601f016020809104026020016040519081016040528093929190818152602001838380828437600081840152601f19601f8201169050808301925050505050505060008082604051611d7a9190612871565b9081526020016040518091039020549050600260009054906101000a900473ffffffffffffffffffffffffffffffffffffffff1673ffffffffffffffffffffffffffffffffffffffff16634f558e79826040518263ffffffff1660e01b8152600401611de6919061238a565b602060405180830381865afa158015611e03573d6000803e3d6000fd5b505050506040513d601f19601f82011682018060405250810190611e27919061289d565b611e66576040517f08c379a0000000000000000000000000000000000000000000000000000000008152600401611e5d90612927565b60405180910390fd5b6000808585604051611e7992919061296c565b908152602001604051809103902054905060018181548110611e9e57611e9d612985565b5b90600052602060002090600a020160010173__ChangesLibrary________________________636b6b15cc9091886040518363ffffffff1660e01b8152600401611ee9929190612e16565b60006040518083038186803b158015611f0157600080fd5b505af4158015611f15573d6000803e3d6000fd5b505050507fa59a33e81abf86b25a561f609013d867f28b3c0cbc2cdf98e852b0c0c041eb6c858588604051611f4c93929190613471565b60405180910390a1505050505050565b600260009054906101000a900473ffffffffffffffffffffffffffffffffffffffff1681565b828054611f8e906132ee565b90600052602060002090601f016020900481019282611fb05760008555611ff7565b82601f10611fc957805160ff1916838001178555611ff7565b82800160010185558215611ff7579182015b82811115611ff6578251825591602001919060010190611fdb565b5b5090506120049190612008565b5090565b5b80821115612021576000816000905550600101612009565b5090565b6000604051905090565b600080fd5b600080fd5b600080fd5b600080fd5b600080fd5b60008083601f84011261205e5761205d612039565b5b8235905067ffffffffffffffff81111561207b5761207a61203e565b5b60208301915083600182028301111561209757612096612043565b5b9250929050565b60008115159050919050565b6120b38161209e565b81146120be57600080fd5b50565b6000813590506120d0816120aa565b92915050565b6000806000604084860312156120ef576120ee61202f565b5b600084013567ffffffffffffffff81111561210d5761210c612034565b5b61211986828701612048565b9350935050602061212c868287016120c1565b9150509250925092565b600081519050919050565b600082825260208201905092915050565b6000819050602082019050919050565b600081519050919050565b600082825260208201905092915050565b60005b8381101561219c578082015181840152602081019050612181565b838111156121ab576000848401525b50505050565b6000601f19601f8301169050919050565b60006121cd82612162565b6121d7818561216d565b93506121e781856020860161217e565b6121f0816121b1565b840191505092915050565b600061220783836121c2565b905092915050565b6000602082019050919050565b600061222782612136565b6122318185612141565b93508360208202850161224385612152565b8060005b8581101561227f578484038952815161226085826121fb565b945061226b8361220f565b925060208a01995050600181019050612247565b50829750879550505050505092915050565b600060208201905081810360008301526122ab818461221c565b905092915050565b600073ffffffffffffffffffffffffffffffffffffffff82169050919050565b60006122de826122b3565b9050919050565b6122ee816122d3565b81146122f957600080fd5b50565b60008135905061230b816122e5565b92915050565b60008060006040848603121561232a5761232961202f565b5b6000612338868287016122fc565b935050602084013567ffffffffffffffff81111561235957612358612034565b5b61236586828701612048565b92509250509250925092565b6000819050919050565b61238481612371565b82525050565b600060208201905061239f600083018461237b565b92915050565b600080fd5b7f4e487b7100000000000000000000000000000000000000000000000000000000600052604160045260246000fd5b6123e2826121b1565b810181811067ffffffffffffffff82111715612401576124006123aa565b5b80604052505050565b6000612414612025565b905061242082826123d9565b919050565b600067ffffffffffffffff8211156124405761243f6123aa565b5b612449826121b1565b9050602081019050919050565b82818337600083830152505050565b600061247861247384612425565b61240a565b905082815260208101848484011115612494576124936123a5565b5b61249f848285612456565b509392505050565b600082601f8301126124bc576124bb612039565b5b81356124cc848260208601612465565b91505092915050565b6000602082840312156124eb576124ea61202f565b5b600082013567ffffffffffffffff81111561250957612508612034565b5b612515848285016124a7565b91505092915050565b600080602083850312156125355761253461202f565b5b600083013567ffffffffffffffff81111561255357612552612034565b5b61255f85828601612048565b92509250509250929050565b600081519050919050565b600082825260208201905092915050565b6000819050602082019050919050565b6125a0816122d3565b82525050565b60006125b28383612597565b60208301905092915050565b6000602082019050919050565b60006125d68261256b565b6125e08185612576565b93506125eb83612587565b8060005b8381101561261c57815161260388826125a6565b975061260e836125be565b9250506001810190506125ef565b5085935050505092915050565b6000602082019050818103600083015261264381846125cb565b905092915050565b600080604083850312156126625761266161202f565b5b600083013567ffffffffffffffff8111156126805761267f612034565b5b61268c858286016124a7565b925050602083013567ffffffffffffffff8111156126ad576126ac612034565b5b6126b9858286016124a7565b9150509250929050565b6000806000604084860312156126dc576126db61202f565b5b600084013567ffffffffffffffff8111156126fa576126f9612034565b5b612706868287016124a7565b935050602084013567ffffffffffffffff81111561272757612726612034565b5b61273386828701612048565b92509250509250925092565b6000806000604084860312156127585761275761202f565b5b600084013567ffffffffffffffff81111561277657612775612034565b5b61278286828701612048565b9350935050602084013567ffffffffffffffff8111156127a5576127a4612034565b5b6127b1868287016124a7565b9150509250925092565b6000819050919050565b60006127e06127db6127d6846122b3565b6127bb565b6122b3565b9050919050565b60006127f2826127c5565b9050919050565b6000612804826127e7565b9050919050565b612814816127f9565b82525050565b600060208201905061282f600083018461280b565b92915050565b600081905092915050565b600061284b82612162565b6128558185612835565b935061286581856020860161217e565b80840191505092915050565b600061287d8284612840565b915081905092915050565b600081519050612897816120aa565b92915050565b6000602082840312156128b3576128b261202f565b5b60006128c184828501612888565b91505092915050565b600082825260208201905092915050565b7f50726f6a65637420646f206e6f74206578697374000000000000000000000000600082015250565b60006129116014836128ca565b915061291c826128db565b602082019050919050565b6000602082019050818103600083015261294081612904565b9050919050565b60006129538385612835565b9350612960838584612456565b82840190509392505050565b6000612979828486612947565b91508190509392505050565b7f4e487b7100000000000000000000000000000000000000000000000000000000600052603260045260246000fd5b8082525050565b6129c48161209e565b82525050565b60006040820190506129df60008301856129b4565b6129ec60208301846129bb565b9392505050565b600067ffffffffffffffff821115612a0e57612a0d6123aa565b5b602082029050602081019050919050565b6000612a32612a2d84612425565b61240a565b905082815260208101848484011115612a4e57612a4d6123a5565b5b612a5984828561217e565b509392505050565b600082601f830112612a7657612a75612039565b5b8151612a86848260208601612a1f565b91505092915050565b6000612aa2612a9d846129f3565b61240a565b90508083825260208201905060208402830185811115612ac557612ac4612043565b5b835b81811015612b0c57805167ffffffffffffffff811115612aea57612ae9612039565b5b808601612af78982612a61565b85526020850194505050602081019050612ac7565b5050509392505050565b600082601f830112612b2b57612b2a612039565b5b8151612b3b848260208601612a8f565b91505092915050565b600060208284031215612b5a57612b5961202f565b5b600082015167ffffffffffffffff811115612b7857612b77612034565b5b612b8484828501612b16565b91505092915050565b612b96816122d3565b82525050565b6000604082019050612bb16000830185612b8d565b612bbe602083018461237b565b9392505050565b612bce81612371565b8114612bd957600080fd5b50565b600081519050612beb81612bc5565b92915050565b600060208284031215612c0757612c0661202f565b5b6000612c1584828501612bdc565b91505092915050565b6000602082019050612c3360008301846129b4565b92915050565b600067ffffffffffffffff821115612c5457612c536123aa565b5b602082029050602081019050919050565b600081519050612c74816122e5565b92915050565b6000612c8d612c8884612c39565b61240a565b90508083825260208201905060208402830185811115612cb057612caf612043565b5b835b81811015612cd95780612cc58882612c65565b845260208401935050602081019050612cb2565b5050509392505050565b600082601f830112612cf857612cf7612039565b5b8151612d08848260208601612c7a565b91505092915050565b600060208284031215612d2757612d2661202f565b5b600082015167ffffffffffffffff811115612d4557612d44612034565b5b612d5184828501612ce3565b91505092915050565b6000819050919050565b6000612d7f612d7a612d7584612d5a565b6127bb565b612371565b9050919050565b612d8f81612d64565b82525050565b6000606082019050612daa6000830186612b8d565b612db7602083018561237b565b612dc46040830184612d86565b949350505050565b600082825260208201905092915050565b6000612de882612162565b612df28185612dcc565b9350612e0281856020860161217e565b612e0b816121b1565b840191505092915050565b6000604082019050612e2b60008301856129b4565b8181036020830152612e3d8184612ddd565b90509392505050565b7f4e487b7100000000000000000000000000000000000000000000000000000000600052601160045260246000fd5b6000612e8082612371565b9150612e8b83612371565b9250827fffffffffffffffffffffffffffffffffffffffffffffffffffffffffffffffff03821115612ec057612ebf612e46565b5b828201905092915050565b7f4e65772070726f6a656374206372656174656420776974682049443a00000000600082015250565b6000612f01601c836128ca565b9150612f0c82612ecb565b602082019050919050565b6000612f2282612162565b612f2c81856128ca565b9350612f3c81856020860161217e565b612f45816121b1565b840191505092915050565b60006060820190508181036000830152612f6981612ef4565b90508181036020830152612f7d8185612f17565b9050612f8c604083018461237b565b9392505050565b7f416c726561647920766f74656400000000000000000000000000000000000000600082015250565b6000612fc9600d836128ca565b9150612fd482612f93565b602082019050919050565b60006020820190508181036000830152612ff881612fbc565b9050919050565b7f566f74696e6720706f77657220697320696e73756666696369656e7400000000600082015250565b6000613035601c836128ca565b915061304082612fff565b602082019050919050565b6000602082019050818103600083015261306481613028565b9050919050565b61307481612371565b82525050565b600060608201905061308f60008301866129b4565b81810360208301526130a18185612ddd565b90506130b0604083018461306b565b949350505050565b7f4e657720766f746520666f72206368616e67652070726f706f73616c3a000000600082015250565b60006130ee601d836128ca565b91506130f9826130b8565b602082019050919050565b600061311083856128ca565b935061311d838584612456565b613126836121b1565b840190509392505050565b600060a082019050818103600083015261314a816130e1565b9050818103602083015261315f818789613104565b905081810360408301526131738186612f17565b90506131826060830185612b8d565b61318f608083018461237b565b9695505050505050565b7f4e6577206368616e67652070726f706f73616c20746f207468652050726f6a6560008201527f6374207769746820746865206e616d6520616e6420666f6c6c6f77696e67204960208201527f4420616e64204349443a00000000000000000000000000000000000000000000604082015250565b600061321b604a836128ca565b915061322682613199565b606082019050919050565b6000608082019050818103600083015261324a8161320e565b9050818103602083015261325f818688613104565b905081810360408301526132738185612f17565b9050613282606083018461237b565b95945050505050565b600061329682612371565b91506132a183612371565b9250828210156132b4576132b3612e46565b5b828203905092915050565b7f4e487b7100000000000000000000000000000000000000000000000000000000600052602260045260246000fd5b6000600282049050600182168061330657607f821691505b602082108103613319576133186132bf565b5b50919050565b600061332a82612371565b91507fffffffffffffffffffffffffffffffffffffffffffffffffffffffffffffffff820361335c5761335b612e46565b5b600182019050919050565b7f50726f6a656374206368616e67656420746f206368616e67653a200000000000600082015250565b600061339d601b836128ca565b91506133a882613367565b602082019050919050565b600060608201905081810360008301526133cc81613390565b905081810360208301526133e08186612f17565b905081810360408301526133f5818486613104565b9050949350505050565b7f41206e6577206368616e676520686173206265656e206d61646520746f20746860008201527f652070726f6a6563743a20000000000000000000000000000000000000000000602082015250565b600061345b602b836128ca565b9150613466826133ff565b604082019050919050565b6000606082019050818103600083015261348a8161344e565b9050818103602083015261349f818587613104565b905081810360408301526134b38184612f17565b905094935050505056fea26469706673582212201c5daf5d8dff96f831f5dae31417f2de94c5540a12e45c780253b5b4511b5abd64736f6c634300080d0033",
  "immutableReferences": {},
  "source": "// SPDX-License-Identifier: MIT\npragma solidity ^0.8.13;\n\nimport \"../node_modules/@openzeppelin/contracts/utils/Counters.sol\";\nimport \"./Changes.sol\";\nimport \"./ProjectsToken.sol\";\n\n\ncontract Projects {\n    // initiate all the data structures and constants saved on the smart contract\n    uint public constant TimeLockInterval = 2 minutes;\n\n    using Counters for Counters.Counter;\n    using ChangesLibrary for ChangesLibrary.ChangesStorage;\n\n    \n    // -------------------------------------------------------- Mappings\n    mapping(string => uint) public NameToID;    \n\n    // -------------------------------------------------------- Structs\n\n    struct goBack {\n        string changeCID;\n        address goBackMaker;\n        uint votes;\n    }\n\n    struct Project {\n        string name;\n        ChangesLibrary.ChangesStorage changes;\n        goBack[] goBackProposals;\n\n        // time lock\n        uint DistributionTime;\n\n        // distribution\n        uint newTokens;\n        mapping(address => uint) pendingTokens;\n        mapping(address => mapping(uint => uint)) TokensSpent; // user => time => tokens spent\n\n        // - ChangeCID => Voter address => Voted?\n        mapping(string => mapping(address => bool)) Voted;\n\n    }\n\n\n    // -------------------------------------------------------- Lists\n    Project[] publicProjects;\n\n    // -------------------------------------------------------- Token\n    ProjectsToken public token;\n\n    // -------------------------------------------------------- Events\n    event NewProjectCreated(string message, string name, uint value);\n    event NewChangeProposalCreated(string message, string Name, string CID, uint indexValue);\n    event NewVoteForChangeProposal(string message, string projectName, string changeProposalCID, address voter, uint votes);\n    event NewChangeIsMadeToProject(string message, string projectName, string changeCID); // Message, Project CID, Message, ChangeCID\n    event ProjectWentBack(string message, string changeCID, string ProjectName);\n    event TokensDisributed(string message, uint lastDistributionTime);\n\n    // -------------------------------------------------------- Modifiers\n    modifier ProjectExist(string memory _Name) {\n        uint idx = NameToID[_Name];\n        require(token.exists(idx), \"Project do not exist\");\n        _;\n    }\n\n\n    // -------------------------------------------------------- Constructor\n    constructor(address tokenAddress) {\n        token = ProjectsToken(tokenAddress);\n    } \n\n    // -------------------------------------------------------- Functions\n\n    // the function create a new project with an inital change\n    function createProject(string memory _CID, string memory projectName) public {\n        uint newProjectID = publicProjects.length;\n        NameToID[projectName] = newProjectID;\n        token.mint(msg.sender, newProjectID, 100);\n        \n        Project storage newProject = publicProjects.push();\n        newProject.name = projectName;\n        newProject.changes.initialize(_CID);\n        newProject.newTokens = 100;\n        newProject.DistributionTime = block.timestamp + TimeLockInterval; \n\n        emit NewProjectCreated(\"New project created with ID:\", projectName, newProjectID);\n    }\n\n    // the functions create a change proposal\n    function MakeChangeProposal(\n        string memory _changeCID, \n        string calldata _projectName\n    ) ProjectExist(_projectName) external {\n        uint projectIDX = NameToID[_projectName];\n        publicProjects[projectIDX].changes.createChangeProposal(_changeCID, token.balanceOf(msg.sender, NameToID[_projectName]));\n        publicProjects[projectIDX].Voted[_changeCID][msg.sender] = true;\n        emit NewChangeProposalCreated(\"New change proposal to the Project with the name and following ID and CID:\", _projectName, _changeCID, projectIDX);\n    }\n\n    // the functions make a go back proposal\n    function MakeGoBackProposal(\n        string memory _changeCID, \n        string calldata _projectName\n    ) external {\n        uint projectID = NameToID[_projectName];\n        publicProjects[projectID].goBackProposals.push(goBack(_changeCID, msg.sender, token.balanceOf(msg.sender, NameToID[_projectName])));\n    }\n\n    // the function make a go Back \n    function acceptGoBack(\n        string calldata _projectName, \n        string memory _changeCID\n    ) ProjectExist(_projectName) external {\n        uint projectIDX = NameToID[_projectName];\n        publicProjects[projectIDX].changes.goBack(_changeCID);\n        \n        emit ProjectWentBack(\"Project changed to change: \", _changeCID, _projectName);\n    }\n\n    // the functions accept a change proposal and add it to the list\n    function acceptChangeProposal(\n        string memory _proposedChangeCID, \n        string calldata _projectName\n    ) ProjectExist(_projectName) external {\n        uint projectID = NameToID[_projectName];\n        publicProjects[projectID].changes.acceptChangeProposal(_proposedChangeCID);\n        emit NewChangeIsMadeToProject(\"A new change has been made to the project: \", _projectName, _proposedChangeCID);\n    }\n\n    // the function allow user to vote in favor of a change proposal\n    function voteForChangeProposal(\n        string memory _changeProposalCID, \n        string calldata _projectName\n    ) ProjectExist(_projectName) external {\n        uint projectID = NameToID[_projectName];\n\n        require(publicProjects[projectID].Voted[_changeProposalCID][msg.sender] == false, \"Already voted\");\n\n        uint votingPower = token.balanceOf(msg.sender, projectID);\n        \n        if (votingPower <= 0) {\n            revert(\"Voting power is insufficient\");\n        }\n\n        publicProjects[projectID].changes.voteForChangeProposal(_changeProposalCID, votingPower);\n        publicProjects[projectID].Voted[_changeProposalCID][msg.sender] = true;\n        \n        emit NewVoteForChangeProposal(\n            \"New vote for change proposal:\",\n            _projectName,\n            _changeProposalCID,\n            msg.sender,\n            publicProjects[projectID].changes.getChangeProposalVotes(_changeProposalCID)\n        );\n    }\n\n    function getBalance(\n        address _UserAddress,\n        string calldata _projectName\n    ) ProjectExist(_projectName) external view returns (uint) {\n        return token.balanceOf(_UserAddress, NameToID[_projectName]);\n    }\n\n    // the functions returns the changes/change proposals\n    function getChangesOrProposals(\n        string calldata _projectName, \n        bool changesOrChangeProposals\n    ) ProjectExist(_projectName) external view returns (string[] memory) {\n        uint projectID = NameToID[_projectName];\n        return publicProjects[projectID].changes.getChangesOrChangeProposals(changesOrChangeProposals); // true for changes and false for change proposals\n    }\n\n    function getAddresses(\n        string calldata _projectName\n    ) ProjectExist(_projectName) external view returns (address[] memory) {\n        uint projectID = NameToID[_projectName];\n        return publicProjects[projectID].changes.getAddresses(); // true for changes and false for change proposals\n    }\n\n    // TEMP\n    function getLastProjects() external view returns (string[] memory) {\n        uint arr_length = publicProjects.length;\n        uint arr_index = publicProjects.length;\n        if (arr_length > 10) {\n            arr_length = 10;\n        }\n\n        string[] memory lastProjects = new string[](arr_length);\n        if (publicProjects.length > 0) {\n        for (uint256 i = arr_index - arr_length; i < arr_index; i++) {\n            lastProjects[arr_index - 1 - i] = publicProjects[i].name; \n        }}\n        return lastProjects;\n    }\n\n    function getLastDistriubtionTime(string calldata projectName) external view ProjectExist(projectName) returns (uint)  {\n        uint projectID = NameToID[projectName];\n        return publicProjects[projectID].DistributionTime;\n    }\n\n    function getPendingTokens(address usr, string calldata projectName) ProjectExist(projectName) external view returns (uint) {\n        uint projectID = NameToID[projectName];\n        return publicProjects[projectID].pendingTokens[usr];\n    }\n}\n",
  "sourcePath": "c:\\Users\\User\\Desktop\\\\davidson\\project\\DavidsonProject\\Smart Contract\\contracts\\Projects.sol",
  "compiler": {
    "name": "solc",
    "version": "0.8.13+commit.abaa5c0e.Emscripten.clang"
  },
  "schemaVersion": "3.4.7",
  "updatedAt": "2024-03-11T16:24:00.639Z",
  "networkType": "ethereum",
  "devdoc": {
    "kind": "dev",
    "methods": {},
    "version": 1
  },
  "userdoc": {
    "kind": "user",
    "methods": {},
    "version": 1
  }
}