{
  "contractName": "Steps",
  "abi": [
    {
      "inputs": [],
      "stateMutability": "nonpayable",
      "type": "constructor"
    },
    {
      "anonymous": false,
      "inputs": [
        {
          "indexed": true,
          "internalType": "address",
          "name": "account",
          "type": "address"
        },
        {
          "indexed": true,
          "internalType": "address",
          "name": "operator",
          "type": "address"
        },
        {
          "indexed": false,
          "internalType": "bool",
          "name": "approved",
          "type": "bool"
        }
      ],
      "name": "ApprovalForAll",
      "type": "event"
    },
    {
      "anonymous": false,
      "inputs": [
        {
          "indexed": false,
          "internalType": "string",
          "name": "message",
          "type": "string"
        },
        {
          "indexed": false,
          "internalType": "string",
          "name": "projectName",
          "type": "string"
        },
        {
          "indexed": false,
          "internalType": "string",
          "name": "changeCID",
          "type": "string"
        }
      ],
      "name": "NewChangeIsMadeToProject",
      "type": "event"
    },
    {
      "anonymous": false,
      "inputs": [
        {
          "indexed": false,
          "internalType": "string",
          "name": "message",
          "type": "string"
        },
        {
          "indexed": false,
          "internalType": "string",
          "name": "Name",
          "type": "string"
        },
        {
          "indexed": false,
          "internalType": "string",
          "name": "CID",
          "type": "string"
        },
        {
          "indexed": false,
          "internalType": "uint256",
          "name": "indexValue",
          "type": "uint256"
        }
      ],
      "name": "NewChangeProposalCreated",
      "type": "event"
    },
    {
      "anonymous": false,
      "inputs": [
        {
          "indexed": false,
          "internalType": "string",
          "name": "message",
          "type": "string"
        },
        {
          "indexed": false,
          "internalType": "string",
          "name": "name",
          "type": "string"
        },
        {
          "indexed": false,
          "internalType": "uint256",
          "name": "value",
          "type": "uint256"
        }
      ],
      "name": "NewProjectCreated",
      "type": "event"
    },
    {
      "anonymous": false,
      "inputs": [
        {
          "indexed": false,
          "internalType": "string",
          "name": "message",
          "type": "string"
        },
        {
          "indexed": false,
          "internalType": "string",
          "name": "projectName",
          "type": "string"
        },
        {
          "indexed": false,
          "internalType": "string",
          "name": "changeProposalCID",
          "type": "string"
        },
        {
          "indexed": false,
          "internalType": "address",
          "name": "voter",
          "type": "address"
        },
        {
          "indexed": false,
          "internalType": "uint256",
          "name": "votes",
          "type": "uint256"
        }
      ],
      "name": "NewVoteForChangeProposal",
      "type": "event"
    },
    {
      "anonymous": false,
      "inputs": [
        {
          "indexed": true,
          "internalType": "address",
          "name": "previousOwner",
          "type": "address"
        },
        {
          "indexed": true,
          "internalType": "address",
          "name": "newOwner",
          "type": "address"
        }
      ],
      "name": "OwnershipTransferred",
      "type": "event"
    },
    {
      "anonymous": false,
      "inputs": [
        {
          "indexed": false,
          "internalType": "string",
          "name": "message",
          "type": "string"
        },
        {
          "indexed": false,
          "internalType": "string",
          "name": "changeCID",
          "type": "string"
        },
        {
          "indexed": false,
          "internalType": "string",
          "name": "ProjectName",
          "type": "string"
        }
      ],
      "name": "ProjectWentBack",
      "type": "event"
    },
    {
      "anonymous": false,
      "inputs": [
        {
          "indexed": true,
          "internalType": "address",
          "name": "operator",
          "type": "address"
        },
        {
          "indexed": true,
          "internalType": "address",
          "name": "from",
          "type": "address"
        },
        {
          "indexed": true,
          "internalType": "address",
          "name": "to",
          "type": "address"
        },
        {
          "indexed": false,
          "internalType": "uint256[]",
          "name": "ids",
          "type": "uint256[]"
        },
        {
          "indexed": false,
          "internalType": "uint256[]",
          "name": "values",
          "type": "uint256[]"
        }
      ],
      "name": "TransferBatch",
      "type": "event"
    },
    {
      "anonymous": false,
      "inputs": [
        {
          "indexed": true,
          "internalType": "address",
          "name": "operator",
          "type": "address"
        },
        {
          "indexed": true,
          "internalType": "address",
          "name": "from",
          "type": "address"
        },
        {
          "indexed": true,
          "internalType": "address",
          "name": "to",
          "type": "address"
        },
        {
          "indexed": false,
          "internalType": "uint256",
          "name": "id",
          "type": "uint256"
        },
        {
          "indexed": false,
          "internalType": "uint256",
          "name": "value",
          "type": "uint256"
        }
      ],
      "name": "TransferSingle",
      "type": "event"
    },
    {
      "anonymous": false,
      "inputs": [
        {
          "indexed": false,
          "internalType": "string",
          "name": "value",
          "type": "string"
        },
        {
          "indexed": true,
          "internalType": "uint256",
          "name": "id",
          "type": "uint256"
        }
      ],
      "name": "URI",
      "type": "event"
    },
    {
      "inputs": [
        {
          "internalType": "string",
          "name": "",
          "type": "string"
        }
      ],
      "name": "NameToID",
      "outputs": [
        {
          "internalType": "uint256",
          "name": "",
          "type": "uint256"
        }
      ],
      "stateMutability": "view",
      "type": "function",
      "constant": true
    },
    {
      "inputs": [
        {
          "internalType": "address",
          "name": "account",
          "type": "address"
        },
        {
          "internalType": "uint256",
          "name": "id",
          "type": "uint256"
        }
      ],
      "name": "balanceOf",
      "outputs": [
        {
          "internalType": "uint256",
          "name": "",
          "type": "uint256"
        }
      ],
      "stateMutability": "view",
      "type": "function",
      "constant": true
    },
    {
      "inputs": [
        {
          "internalType": "address[]",
          "name": "accounts",
          "type": "address[]"
        },
        {
          "internalType": "uint256[]",
          "name": "ids",
          "type": "uint256[]"
        }
      ],
      "name": "balanceOfBatch",
      "outputs": [
        {
          "internalType": "uint256[]",
          "name": "",
          "type": "uint256[]"
        }
      ],
      "stateMutability": "view",
      "type": "function",
      "constant": true
    },
    {
      "inputs": [
        {
          "internalType": "uint256",
          "name": "id",
          "type": "uint256"
        }
      ],
      "name": "exists",
      "outputs": [
        {
          "internalType": "bool",
          "name": "",
          "type": "bool"
        }
      ],
      "stateMutability": "view",
      "type": "function",
      "constant": true
    },
    {
      "inputs": [
        {
          "internalType": "address",
          "name": "account",
          "type": "address"
        },
        {
          "internalType": "address",
          "name": "operator",
          "type": "address"
        }
      ],
      "name": "isApprovedForAll",
      "outputs": [
        {
          "internalType": "bool",
          "name": "",
          "type": "bool"
        }
      ],
      "stateMutability": "view",
      "type": "function",
      "constant": true
    },
    {
      "inputs": [],
      "name": "owner",
      "outputs": [
        {
          "internalType": "address",
          "name": "",
          "type": "address"
        }
      ],
      "stateMutability": "view",
      "type": "function",
      "constant": true
    },
    {
      "inputs": [],
      "name": "renounceOwnership",
      "outputs": [],
      "stateMutability": "nonpayable",
      "type": "function"
    },
    {
      "inputs": [
        {
          "internalType": "address",
          "name": "from",
          "type": "address"
        },
        {
          "internalType": "address",
          "name": "to",
          "type": "address"
        },
        {
          "internalType": "uint256[]",
          "name": "ids",
          "type": "uint256[]"
        },
        {
          "internalType": "uint256[]",
          "name": "amounts",
          "type": "uint256[]"
        },
        {
          "internalType": "bytes",
          "name": "data",
          "type": "bytes"
        }
      ],
      "name": "safeBatchTransferFrom",
      "outputs": [],
      "stateMutability": "nonpayable",
      "type": "function"
    },
    {
      "inputs": [
        {
          "internalType": "address",
          "name": "from",
          "type": "address"
        },
        {
          "internalType": "address",
          "name": "to",
          "type": "address"
        },
        {
          "internalType": "uint256",
          "name": "id",
          "type": "uint256"
        },
        {
          "internalType": "uint256",
          "name": "amount",
          "type": "uint256"
        },
        {
          "internalType": "bytes",
          "name": "data",
          "type": "bytes"
        }
      ],
      "name": "safeTransferFrom",
      "outputs": [],
      "stateMutability": "nonpayable",
      "type": "function"
    },
    {
      "inputs": [
        {
          "internalType": "address",
          "name": "operator",
          "type": "address"
        },
        {
          "internalType": "bool",
          "name": "approved",
          "type": "bool"
        }
      ],
      "name": "setApprovalForAll",
      "outputs": [],
      "stateMutability": "nonpayable",
      "type": "function"
    },
    {
      "inputs": [
        {
          "internalType": "bytes4",
          "name": "interfaceId",
          "type": "bytes4"
        }
      ],
      "name": "supportsInterface",
      "outputs": [
        {
          "internalType": "bool",
          "name": "",
          "type": "bool"
        }
      ],
      "stateMutability": "view",
      "type": "function",
      "constant": true
    },
    {
      "inputs": [
        {
          "internalType": "uint256",
          "name": "id",
          "type": "uint256"
        }
      ],
      "name": "totalSupply",
      "outputs": [
        {
          "internalType": "uint256",
          "name": "",
          "type": "uint256"
        }
      ],
      "stateMutability": "view",
      "type": "function",
      "constant": true
    },
    {
      "inputs": [
        {
          "internalType": "address",
          "name": "newOwner",
          "type": "address"
        }
      ],
      "name": "transferOwnership",
      "outputs": [],
      "stateMutability": "nonpayable",
      "type": "function"
    },
    {
      "inputs": [
        {
          "internalType": "uint256",
          "name": "",
          "type": "uint256"
        }
      ],
      "name": "uri",
      "outputs": [
        {
          "internalType": "string",
          "name": "",
          "type": "string"
        }
      ],
      "stateMutability": "view",
      "type": "function",
      "constant": true
    },
    {
      "inputs": [
        {
          "internalType": "string",
          "name": "_CID",
          "type": "string"
        },
        {
          "internalType": "string",
          "name": "projectName",
          "type": "string"
        }
      ],
      "name": "createProject",
      "outputs": [],
      "stateMutability": "nonpayable",
      "type": "function"
    },
    {
      "inputs": [
        {
          "internalType": "string",
          "name": "_changeCID",
          "type": "string"
        },
        {
          "internalType": "string",
          "name": "_projectName",
          "type": "string"
        }
      ],
      "name": "MakeChangeProposal",
      "outputs": [],
      "stateMutability": "nonpayable",
      "type": "function"
    },
    {
      "inputs": [
        {
          "internalType": "string",
          "name": "_changeCID",
          "type": "string"
        },
        {
          "internalType": "string",
          "name": "_projectName",
          "type": "string"
        }
      ],
      "name": "MakeGoBackProposal",
      "outputs": [],
      "stateMutability": "nonpayable",
      "type": "function"
    },
    {
      "inputs": [
        {
          "internalType": "string",
          "name": "_projectName",
          "type": "string"
        },
        {
          "internalType": "string",
          "name": "_changeCID",
          "type": "string"
        }
      ],
      "name": "acceptGoBack",
      "outputs": [],
      "stateMutability": "nonpayable",
      "type": "function"
    },
    {
      "inputs": [
        {
          "internalType": "string",
          "name": "_proposedChangeCID",
          "type": "string"
        },
        {
          "internalType": "string",
          "name": "_projectName",
          "type": "string"
        }
      ],
      "name": "acceptChangeProposal",
      "outputs": [],
      "stateMutability": "nonpayable",
      "type": "function"
    },
    {
      "inputs": [
        {
          "internalType": "string",
          "name": "_projectName",
          "type": "string"
        }
      ],
      "name": "getBalance",
      "outputs": [
        {
          "internalType": "uint256",
          "name": "",
          "type": "uint256"
        }
      ],
      "stateMutability": "view",
      "type": "function",
      "constant": true
    },
    {
      "inputs": [
        {
          "internalType": "string",
          "name": "_changeProposalCID",
          "type": "string"
        },
        {
          "internalType": "string",
          "name": "_projectName",
          "type": "string"
        }
      ],
      "name": "voteForChangeProposal",
      "outputs": [],
      "stateMutability": "nonpayable",
      "type": "function"
    },
    {
      "inputs": [
        {
          "internalType": "string",
          "name": "_projectName",
          "type": "string"
        }
      ],
      "name": "getProjectChanges",
      "outputs": [
        {
          "internalType": "string[]",
          "name": "",
          "type": "string[]"
        }
      ],
      "stateMutability": "view",
      "type": "function",
      "constant": true
    },
    {
      "inputs": [
        {
          "internalType": "string",
          "name": "_projectName",
          "type": "string"
        }
      ],
      "name": "getProjectChangeProposals",
      "outputs": [
        {
          "internalType": "string[]",
          "name": "",
          "type": "string[]"
        }
      ],
      "stateMutability": "view",
      "type": "function",
      "constant": true
    },
    {
      "inputs": [],
      "name": "getLastProjects",
      "outputs": [
        {
          "internalType": "string[]",
          "name": "",
          "type": "string[]"
        }
      ],
      "stateMutability": "view",
      "type": "function",
      "constant": true
    }
  ],
  "bytecode": "0x60806040523480156200001157600080fd5b506040518060400160405280600381526020017f555249000000000000000000000000000000000000000000000000000000000081525062000059816200009e60201b60201c565b506200007a6200006e620000ba60201b60201c565b620000c260201b60201c565b6006600181600181540180825580915050039060005260206000209050506200029c565b8060029080519060200190620000b692919062000188565b5050565b600033905090565b6000600360009054906101000a900473ffffffffffffffffffffffffffffffffffffffff16905081600360006101000a81548173ffffffffffffffffffffffffffffffffffffffff021916908373ffffffffffffffffffffffffffffffffffffffff1602179055508173ffffffffffffffffffffffffffffffffffffffff168173ffffffffffffffffffffffffffffffffffffffff167f8be0079c531659141344cd1fd0a4f28419497f9722a3daafe3b4186f6b6457e060405160405180910390a35050565b828054620001969062000267565b90600052602060002090601f016020900481019282620001ba576000855562000206565b82601f10620001d557805160ff191683800117855562000206565b8280016001018555821562000206579182015b8281111562000205578251825591602001919060010190620001e8565b5b50905062000215919062000219565b5090565b5b80821115620002345760008160009055506001016200021a565b5090565b7f4e487b7100000000000000000000000000000000000000000000000000000000600052602260045260246000fd5b600060028204905060018216806200028057607f821691505b60208210810362000296576200029562000238565b5b50919050565b61554b80620002ac6000396000f3fe608060405234801561001057600080fd5b50600436106101575760003560e01c8063750354d2116100c3578063bd85b0391161007c578063bd85b039146103fa578063c4687fb81461042a578063e985e9c514610446578063ed0c2d9014610476578063f242432a14610492578063f2fde38b146104ae57610157565b8063750354d21461034e5780638d1446fc1461036a5780638da5cb5b14610386578063a22cb465146103a4578063a54d804d146103c0578063a5635963146103de57610157565b80633a51d246116101155780633a51d246146102685780634e1273f4146102985780634f558e79146102c857806355da398c146102f85780636bd0620414610328578063715018a61461034457610157565b8062fdd58e1461015c57806301ffc9a71461018c5780630e89341c146101bc57806321e11fcc146101ec5780632eb2c2d61461021c57806333846eba14610238575b600080fd5b610176600480360381019061017191906138cd565b6104ca565b604051610183919061391c565b60405180910390f35b6101a660048036038101906101a1919061398f565b610592565b6040516101b391906139d7565b60405180910390f35b6101d660048036038101906101d191906139f2565b610674565b6040516101e39190613ab8565b60405180910390f35b61020660048036038101906102019190613c0f565b610708565b6040516102139190613d64565b60405180910390f35b61023660048036038101906102319190613eef565b610932565b005b610252600480360381019061024d9190613c0f565b6109d3565b60405161025f919061391c565b60405180910390f35b610282600480360381019061027d9190613c0f565b610a01565b60405161028f919061391c565b60405180910390f35b6102b260048036038101906102ad9190614081565b610a9f565b6040516102bf91906141b7565b60405180910390f35b6102e260048036038101906102dd91906139f2565b610bb8565b6040516102ef91906139d7565b60405180910390f35b610312600480360381019061030d9190613c0f565b610bcc565b60405161031f9190613d64565b60405180910390f35b610342600480360381019061033d91906141d9565b610df6565b005b61034c610f92565b005b610368600480360381019061036391906141d9565b610fa6565b005b610384600480360381019061037f91906141d9565b6112e9565b005b61038e611566565b60405161039b9190614260565b60405180910390f35b6103be60048036038101906103b991906142a7565b611590565b005b6103c86115a6565b6040516103d59190613d64565b60405180910390f35b6103f860048036038101906103f391906141d9565b611744565b005b610414600480360381019061040f91906139f2565b61185c565b604051610421919061391c565b60405180910390f35b610444600480360381019061043f91906141d9565b611879565b005b610460600480360381019061045b91906142e7565b611b5f565b60405161046d91906139d7565b60405180910390f35b610490600480360381019061048b91906141d9565b611bf3565b005b6104ac60048036038101906104a79190614327565b6122bc565b005b6104c860048036038101906104c391906143be565b61235d565b005b60008073ffffffffffffffffffffffffffffffffffffffff168373ffffffffffffffffffffffffffffffffffffffff160361053a576040517f08c379a00000000000000000000000000000000000000000000000000000000081526004016105319061445d565b60405180910390fd5b60008083815260200190815260200160002060008473ffffffffffffffffffffffffffffffffffffffff1673ffffffffffffffffffffffffffffffffffffffff16815260200190815260200160002054905092915050565b60007fd9b67a26000000000000000000000000000000000000000000000000000000007bffffffffffffffffffffffffffffffffffffffffffffffffffffffff1916827bffffffffffffffffffffffffffffffffffffffffffffffffffffffff1916148061065d57507f0e89341c000000000000000000000000000000000000000000000000000000007bffffffffffffffffffffffffffffffffffffffffffffffffffffffff1916827bffffffffffffffffffffffffffffffffffffffffffffffffffffffff1916145b8061066d575061066c826123e0565b5b9050919050565b606060028054610683906144ac565b80601f01602080910402602001604051908101604052809291908181526020018280546106af906144ac565b80156106fc5780601f106106d1576101008083540402835291602001916106fc565b820191906000526020600020905b8154815290600101906020018083116106df57829003601f168201915b50505050509050919050565b606081600060058260405161071d9190614519565b90815260200160405180910390205490506006805490508110610775576040517f08c379a000000000000000000000000000000000000000000000000000000000815260040161076c9061457c565b60405180910390fd5b60006005856040516107879190614519565b90815260200160405180910390205490506000600682815481106107ae576107ad61459c565b5b906000526020600020906005020160010180549050905060008167ffffffffffffffff8111156107e1576107e0613ae4565b5b60405190808252806020026020018201604052801561081457816020015b60608152602001906001900390816107ff5790505b50905060005b8281101561092457600684815481106108365761083561459c565b5b906000526020600020906005020160010181815481106108595761085861459c565b5b90600052602060002090600302016000018054610875906144ac565b80601f01602080910402602001604051908101604052809291908181526020018280546108a1906144ac565b80156108ee5780601f106108c3576101008083540402835291602001916108ee565b820191906000526020600020905b8154815290600101906020018083116108d157829003601f168201915b50505050508282815181106109065761090561459c565b5b6020026020010181905250808061091c906145fa565b91505061081a565b508095505050505050919050565b61093a61244a565b73ffffffffffffffffffffffffffffffffffffffff168573ffffffffffffffffffffffffffffffffffffffff161480610980575061097f8561097a61244a565b611b5f565b5b6109bf576040517f08c379a00000000000000000000000000000000000000000000000000000000081526004016109b6906146b4565b60405180910390fd5b6109cc8585858585612452565b5050505050565b6005818051602081018201805184825260208301602085012081835280955050505050506000915090505481565b6000816000600582604051610a169190614519565b90815260200160405180910390205490506006805490508110610a6e576040517f08c379a0000000000000000000000000000000000000000000000000000000008152600401610a659061457c565b60405180910390fd5b610a9633600586604051610a829190614519565b9081526020016040518091039020546104ca565b92505050919050565b60608151835114610ae5576040517f08c379a0000000000000000000000000000000000000000000000000000000008152600401610adc90614746565b60405180910390fd5b6000835167ffffffffffffffff811115610b0257610b01613ae4565b5b604051908082528060200260200182016040528015610b305781602001602082028036833780820191505090505b50905060005b8451811015610bad57610b7d858281518110610b5557610b5461459c565b5b6020026020010151858381518110610b7057610b6f61459c565b5b60200260200101516104ca565b828281518110610b9057610b8f61459c565b5b60200260200101818152505080610ba6906145fa565b9050610b36565b508091505092915050565b600080610bc48361185c565b119050919050565b6060816000600582604051610be19190614519565b90815260200160405180910390205490506006805490508110610c39576040517f08c379a0000000000000000000000000000000000000000000000000000000008152600401610c309061457c565b60405180910390fd5b6000600585604051610c4b9190614519565b9081526020016040518091039020549050600060068281548110610c7257610c7161459c565b5b906000526020600020906005020160020180549050905060008167ffffffffffffffff811115610ca557610ca4613ae4565b5b604051908082528060200260200182016040528015610cd857816020015b6060815260200190600190039081610cc35790505b50905060005b82811015610de85760068481548110610cfa57610cf961459c565b5b90600052602060002090600502016002018181548110610d1d57610d1c61459c565b5b90600052602060002090600302016000018054610d39906144ac565b80601f0160208091040260200160405190810160405280929190818152602001828054610d65906144ac565b8015610db25780601f10610d8757610100808354040283529160200191610db2565b820191906000526020600020905b815481529060010190602001808311610d9557829003601f168201915b5050505050828281518110610dca57610dc961459c565b5b60200260200101819052508080610de0906145fa565b915050610cde565b508095505050505050919050565b6000600680549050905080600583604051610e119190614519565b908152602001604051809103902081905550610e413382620f424060405180602001604052806000815250612773565b60006006600181600181540180825580915050039060005260206000209060050201905082816000019080519060200190610e7d9291906136b5565b50600060405180606001604052808681526020013373ffffffffffffffffffffffffffffffffffffffff16815260200160018152509050816001018190806001815401808255809150506001900390600052602060002090600302016000909190919091506000820151816000019080519060200190610efe9291906136b5565b5060208201518160010160006101000a81548173ffffffffffffffffffffffffffffffffffffffff021916908373ffffffffffffffffffffffffffffffffffffffff1602179055506040820151816002015550507fe224389b386caecb8e3b38edc39361c7227e3ef820a8276bc31ac9cf1ba69fcd8484604051610f839291906147b2565b60405180910390a15050505050565b610f9a612923565b610fa460006129a1565b565b806000600582604051610fb99190614519565b90815260200160405180910390205490506006805490508110611011576040517f08c379a00000000000000000000000000000000000000000000000000000000081526004016110089061457c565b60405180910390fd5b60006005846040516110239190614519565b9081526020016040518091039020549050600015156006828154811061104c5761104b61459c565b5b90600052602060002090600502016004018660405161106b9190614519565b908152602001604051809103902060003373ffffffffffffffffffffffffffffffffffffffff1673ffffffffffffffffffffffffffffffffffffffff16815260200190815260200160002060009054906101000a900460ff16151514611106576040517f08c379a00000000000000000000000000000000000000000000000000000000081526004016110fd90614841565b60405180910390fd5b600061111233836104ca565b905060008111611157576040517f08c379a000000000000000000000000000000000000000000000000000000000815260040161114e906148ad565b60405180910390fd5b60006111638787612a67565b9050816006848154811061117a5761117961459c565b5b9060005260206000209060050201600201828154811061119d5761119c61459c565b5b906000526020600020906003020160020160008282546111bd91906148cd565b925050819055506001600684815481106111da576111d961459c565b5b9060005260206000209060050201600401886040516111f99190614519565b908152602001604051809103902060003373ffffffffffffffffffffffffffffffffffffffff1673ffffffffffffffffffffffffffffffffffffffff16815260200190815260200160002060006101000a81548160ff0219169083151502179055507f0defd832aa647eb845ac2ed5e414ba9da1d13d7c3b2028fea20853913891174d868833600687815481106112935761129261459c565b5b906000526020600020906005020160020185815481106112b6576112b561459c565b5b9060005260206000209060030201600201546040516112d8949392919061496f565b60405180910390a150505050505050565b8060006005826040516112fc9190614519565b90815260200160405180910390205490506006805490508110611354576040517f08c379a000000000000000000000000000000000000000000000000000000000815260040161134b9061457c565b60405180910390fd5b60006005846040516113669190614519565b90815260200160405180910390205490506006818154811061138b5761138a61459c565b5b906000526020600020906005020160020160405180606001604052808781526020013373ffffffffffffffffffffffffffffffffffffffff1681526020016113f1336005896040516113dd9190614519565b9081526020016040518091039020546104ca565b815250908060018154018082558091505060019003906000526020600020906003020160009091909190915060008201518160000190805190602001906114399291906136b5565b5060208201518160010160006101000a81548173ffffffffffffffffffffffffffffffffffffffff021916908373ffffffffffffffffffffffffffffffffffffffff1602179055506040820151816002015550506001600682815481106114a3576114a261459c565b5b9060005260206000209060050201600401866040516114c29190614519565b908152602001604051809103902060003373ffffffffffffffffffffffffffffffffffffffff1673ffffffffffffffffffffffffffffffffffffffff16815260200190815260200160002060006101000a81548160ff0219169083151502179055507f7b7acf540aac5e16ce3dfbd4d106c203a301da603c18502d179f60282962e5c484868360405161155793929190614a6d565b60405180910390a15050505050565b6000600360009054906101000a900473ffffffffffffffffffffffffffffffffffffffff16905090565b6115a261159b61244a565b8383612c6d565b5050565b60606000600680549050905060006006805490509050600a8211156115ca57600a91505b60008267ffffffffffffffff8111156115e6576115e5613ae4565b5b60405190808252806020026020018201604052801561161957816020015b60608152602001906001900390816116045790505b5090506000600680549050111561173b57600083836116389190614ac5565b90505b8281101561173957600681815481106116575761165661459c565b5b90600052602060002090600502016000018054611673906144ac565b80601f016020809104026020016040519081016040528092919081815260200182805461169f906144ac565b80156116ec5780601f106116c1576101008083540402835291602001916116ec565b820191906000526020600020905b8154815290600101906020018083116116cf57829003601f168201915b505050505082826001866117009190614ac5565b61170a9190614ac5565b8151811061171b5761171a61459c565b5b60200260200101819052508080611731906145fa565b91505061163b565b505b80935050505090565b60006005826040516117569190614519565b90815260200160405180910390205490506006818154811061177b5761177a61459c565b5b90600052602060002090600502016003016040518060600160405280600081526020018581526020013373ffffffffffffffffffffffffffffffffffffffff16815250908060018154018082558091505060019003906000526020600020906003020160009091909190915060008201518160000155602082015181600101908051906020019061180d9291906136b5565b5060408201518160020160006101000a81548173ffffffffffffffffffffffffffffffffffffffff021916908373ffffffffffffffffffffffffffffffffffffffff1602179055505050505050565b600060046000838152602001908152602001600020549050919050565b81600060058260405161188c9190614519565b908152602001604051809103902054905060068054905081106118e4576040517f08c379a00000000000000000000000000000000000000000000000000000000081526004016118db9061457c565b60405180910390fd5b60006005856040516118f69190614519565b908152602001604051809103902054905060006119138587612a67565b905060006006838154811061192b5761192a61459c565b5b90600052602060002090600502016001018054905090505b81811115611b1d576006838154811061195f5761195e61459c565b5b9060005260206000209060050201600201600684815481106119845761198361459c565b5b90600052602060002090600502016001016001836119a29190614ac5565b815481106119b3576119b261459c565b5b9060005260206000209060030201908060018154018082558091505060019003906000526020600020906003020160009091909190915060008201816000019080546119fe906144ac565b611a0992919061373b565b506001820160009054906101000a900473ffffffffffffffffffffffffffffffffffffffff168160010160006101000a81548173ffffffffffffffffffffffffffffffffffffffff021916908373ffffffffffffffffffffffffffffffffffffffff16021790555060028201548160020155505060068381548110611a9157611a9061459c565b5b9060005260206000209060050201600101805480611ab257611ab1614af9565b5b600190038181906000526020600020906003020160008082016000611ad791906137c8565b6001820160006101000a81549073ffffffffffffffffffffffffffffffffffffffff02191690556002820160009055505090558080611b1590614b28565b915050611943565b507f718a982b61bc723a0c68281b0eb10e1cff37bd89888841ae545c98cd5493a0568587604051611b4f929190614b9d565b60405180910390a1505050505050565b6000600160008473ffffffffffffffffffffffffffffffffffffffff1673ffffffffffffffffffffffffffffffffffffffff16815260200190815260200160002060008373ffffffffffffffffffffffffffffffffffffffff1673ffffffffffffffffffffffffffffffffffffffff16815260200190815260200160002060009054906101000a900460ff16905092915050565b806000600582604051611c069190614519565b90815260200160405180910390205490506006805490508110611c5e576040517f08c379a0000000000000000000000000000000000000000000000000000000008152600401611c559061457c565b60405180910390fd5b6000611c6a8585612a67565b90506000600585604051611c7e9190614519565b9081526020016040518091039020549050600060068281548110611ca557611ca461459c565b5b90600052602060002090600502016002018381548110611cc857611cc761459c565b5b9060005260206000209060030201604051806060016040529081600082018054611cf1906144ac565b80601f0160208091040260200160405190810160405280929190818152602001828054611d1d906144ac565b8015611d6a5780601f10611d3f57610100808354040283529160200191611d6a565b820191906000526020600020905b815481529060010190602001808311611d4d57829003601f168201915b505050505081526020016001820160009054906101000a900473ffffffffffffffffffffffffffffffffffffffff1673ffffffffffffffffffffffffffffffffffffffff1673ffffffffffffffffffffffffffffffffffffffff1681526020016002820154815250509050600060068381548110611deb57611dea61459c565b5b9060005260206000209060050201600201600160068581548110611e1257611e1161459c565b5b906000526020600020906005020160020180549050611e319190614ac5565b81548110611e4257611e4161459c565b5b9060005260206000209060030201604051806060016040529081600082018054611e6b906144ac565b80601f0160208091040260200160405190810160405280929190818152602001828054611e97906144ac565b8015611ee45780601f10611eb957610100808354040283529160200191611ee4565b820191906000526020600020905b815481529060010190602001808311611ec757829003601f168201915b505050505081526020016001820160009054906101000a900473ffffffffffffffffffffffffffffffffffffffff1673ffffffffffffffffffffffffffffffffffffffff1673ffffffffffffffffffffffffffffffffffffffff16815260200160028201548152505090508160068481548110611f6457611f6361459c565b5b9060005260206000209060050201600201600160068681548110611f8b57611f8a61459c565b5b906000526020600020906005020160020180549050611faa9190614ac5565b81548110611fbb57611fba61459c565b5b90600052602060002090600302016000820151816000019080519060200190611fe59291906136b5565b5060208201518160010160006101000a81548173ffffffffffffffffffffffffffffffffffffffff021916908373ffffffffffffffffffffffffffffffffffffffff16021790555060408201518160020155905050806006848154811061204f5761204e61459c565b5b906000526020600020906005020160020185815481106120725761207161459c565b5b9060005260206000209060030201600082015181600001908051906020019061209c9291906136b5565b5060208201518160010160006101000a81548173ffffffffffffffffffffffffffffffffffffffff021916908373ffffffffffffffffffffffffffffffffffffffff16021790555060408201518160020155905050600683815481106121055761210461459c565b5b906000526020600020906005020160020180548061212657612125614af9565b5b60019003818190600052602060002090600302016000808201600061214b91906137c8565b6001820160006101000a81549073ffffffffffffffffffffffffffffffffffffffff0219169055600282016000905550509055600683815481106121925761219161459c565b5b9060005260206000209060050201600101604051806060016040528084600001518152602001846020015173ffffffffffffffffffffffffffffffffffffffff1681526020018460400151815250908060018154018082558091505060019003906000526020600020906003020160009091909190915060008201518160000190805190602001906122259291906136b5565b5060208201518160010160006101000a81548173ffffffffffffffffffffffffffffffffffffffff021916908373ffffffffffffffffffffffffffffffffffffffff1602179055506040820151816002015550507fa59a33e81abf86b25a561f609013d867f28b3c0cbc2cdf98e852b0c0c041eb6c87896040516122aa929190614c59565b60405180910390a15050505050505050565b6122c461244a565b73ffffffffffffffffffffffffffffffffffffffff168573ffffffffffffffffffffffffffffffffffffffff16148061230a57506123098561230461244a565b611b5f565b5b612349576040517f08c379a0000000000000000000000000000000000000000000000000000000008152600401612340906146b4565b60405180910390fd5b6123568585858585612dd9565b5050505050565b612365612923565b600073ffffffffffffffffffffffffffffffffffffffff168173ffffffffffffffffffffffffffffffffffffffff16036123d4576040517f08c379a00000000000000000000000000000000000000000000000000000000081526004016123cb90614d15565b60405180910390fd5b6123dd816129a1565b50565b60007f01ffc9a7000000000000000000000000000000000000000000000000000000007bffffffffffffffffffffffffffffffffffffffffffffffffffffffff1916827bffffffffffffffffffffffffffffffffffffffffffffffffffffffff1916149050919050565b600033905090565b8151835114612496576040517f08c379a000000000000000000000000000000000000000000000000000000000815260040161248d90614da7565b60405180910390fd5b600073ffffffffffffffffffffffffffffffffffffffff168473ffffffffffffffffffffffffffffffffffffffff1603612505576040517f08c379a00000000000000000000000000000000000000000000000000000000081526004016124fc90614e39565b60405180910390fd5b600061250f61244a565b905061251f818787878787613074565b60005b84518110156126d05760008582815181106125405761253f61459c565b5b60200260200101519050600085838151811061255f5761255e61459c565b5b60200260200101519050600080600084815260200190815260200160002060008b73ffffffffffffffffffffffffffffffffffffffff1673ffffffffffffffffffffffffffffffffffffffff16815260200190815260200160002054905081811015612600576040517f08c379a00000000000000000000000000000000000000000000000000000000081526004016125f790614ecb565b60405180910390fd5b81810360008085815260200190815260200160002060008c73ffffffffffffffffffffffffffffffffffffffff1673ffffffffffffffffffffffffffffffffffffffff168152602001908152602001600020819055508160008085815260200190815260200160002060008b73ffffffffffffffffffffffffffffffffffffffff1673ffffffffffffffffffffffffffffffffffffffff16815260200190815260200160002060008282546126b591906148cd565b92505081905550505050806126c9906145fa565b9050612522565b508473ffffffffffffffffffffffffffffffffffffffff168673ffffffffffffffffffffffffffffffffffffffff168273ffffffffffffffffffffffffffffffffffffffff167f4a39dc06d4c0dbc64b70af90fd698a233a518aa5d07e595d983b8c0526c8f7fb8787604051612747929190614eeb565b60405180910390a461275d81878787878761308a565b61276b818787878787613092565b505050505050565b600073ffffffffffffffffffffffffffffffffffffffff168473ffffffffffffffffffffffffffffffffffffffff16036127e2576040517f08c379a00000000000000000000000000000000000000000000000000000000081526004016127d990614f94565b60405180910390fd5b60006127ec61244a565b905060006127f985613269565b9050600061280685613269565b905061281783600089858589613074565b8460008088815260200190815260200160002060008973ffffffffffffffffffffffffffffffffffffffff1673ffffffffffffffffffffffffffffffffffffffff168152602001908152602001600020600082825461287691906148cd565b925050819055508673ffffffffffffffffffffffffffffffffffffffff16600073ffffffffffffffffffffffffffffffffffffffff168473ffffffffffffffffffffffffffffffffffffffff167fc3d58168c5ae7397731d063d5bbf3d657854427343f4c083240f7aacaa2d0f6289896040516128f4929190614fb4565b60405180910390a461290b8360008985858961308a565b61291a836000898989896132e3565b50505050505050565b61292b61244a565b73ffffffffffffffffffffffffffffffffffffffff16612949611566565b73ffffffffffffffffffffffffffffffffffffffff161461299f576040517f08c379a000000000000000000000000000000000000000000000000000000000815260040161299690615029565b60405180910390fd5b565b6000600360009054906101000a900473ffffffffffffffffffffffffffffffffffffffff16905081600360006101000a81548173ffffffffffffffffffffffffffffffffffffffff021916908373ffffffffffffffffffffffffffffffffffffffff1602179055508173ffffffffffffffffffffffffffffffffffffffff168173ffffffffffffffffffffffffffffffffffffffff167f8be0079c531659141344cd1fd0a4f28419497f9722a3daafe3b4186f6b6457e060405160405180910390a35050565b600080600080600585604051612a7d9190614519565b90815260200160405180910390205490506000600160068381548110612aa657612aa561459c565b5b906000526020600020906005020160020180549050612ac59190614ac5565b90505b60008110612c1957600060068381548110612ae657612ae561459c565b5b90600052602060002090600502016002018281548110612b0957612b0861459c565b5b90600052602060002090600302016000018054612b25906144ac565b80601f0160208091040260200160405190810160405280929190818152602001828054612b51906144ac565b8015612b9e5780601f10612b7357610100808354040283529160200191612b9e565b820191906000526020600020905b815481529060010190602001808311612b8157829003601f168201915b5050505050905087604051602001612bb69190614519565b6040516020818303038152906040528051906020012081604051602001612bdd9190614519565b6040516020818303038152906040528051906020012003612c05578194506001935050612c19565b508080612c1190614b28565b915050612ac8565b506001151582151514612c61576040517f08c379a0000000000000000000000000000000000000000000000000000000008152600401612c5890615095565b60405180910390fd5b82935050505092915050565b8173ffffffffffffffffffffffffffffffffffffffff168373ffffffffffffffffffffffffffffffffffffffff1603612cdb576040517f08c379a0000000000000000000000000000000000000000000000000000000008152600401612cd290615127565b60405180910390fd5b80600160008573ffffffffffffffffffffffffffffffffffffffff1673ffffffffffffffffffffffffffffffffffffffff16815260200190815260200160002060008473ffffffffffffffffffffffffffffffffffffffff1673ffffffffffffffffffffffffffffffffffffffff16815260200190815260200160002060006101000a81548160ff0219169083151502179055508173ffffffffffffffffffffffffffffffffffffffff168373ffffffffffffffffffffffffffffffffffffffff167f17307eab39ab6107e8899845ad3d59bd9653f200f220920489ca2b5937696c3183604051612dcc91906139d7565b60405180910390a3505050565b600073ffffffffffffffffffffffffffffffffffffffff168473ffffffffffffffffffffffffffffffffffffffff1603612e48576040517f08c379a0000000000000000000000000000000000000000000000000000000008152600401612e3f90614e39565b60405180910390fd5b6000612e5261244a565b90506000612e5f85613269565b90506000612e6c85613269565b9050612e7c838989858589613074565b600080600088815260200190815260200160002060008a73ffffffffffffffffffffffffffffffffffffffff1673ffffffffffffffffffffffffffffffffffffffff16815260200190815260200160002054905085811015612f13576040517f08c379a0000000000000000000000000000000000000000000000000000000008152600401612f0a90614ecb565b60405180910390fd5b85810360008089815260200190815260200160002060008b73ffffffffffffffffffffffffffffffffffffffff1673ffffffffffffffffffffffffffffffffffffffff168152602001908152602001600020819055508560008089815260200190815260200160002060008a73ffffffffffffffffffffffffffffffffffffffff1673ffffffffffffffffffffffffffffffffffffffff1681526020019081526020016000206000828254612fc891906148cd565b925050819055508773ffffffffffffffffffffffffffffffffffffffff168973ffffffffffffffffffffffffffffffffffffffff168573ffffffffffffffffffffffffffffffffffffffff167fc3d58168c5ae7397731d063d5bbf3d657854427343f4c083240f7aacaa2d0f628a8a604051613045929190614fb4565b60405180910390a461305b848a8a86868a61308a565b613069848a8a8a8a8a6132e3565b505050505050505050565b6130828686868686866134ba565b505050505050565b505050505050565b6130b18473ffffffffffffffffffffffffffffffffffffffff1661368a565b15613261578373ffffffffffffffffffffffffffffffffffffffff1663bc197c8187878686866040518663ffffffff1660e01b81526004016130f795949392919061519c565b6020604051808303816000875af192505050801561313357506040513d601f19601f820116820180604052508101906131309190615219565b60015b6131d85761313f615253565b806308c379a00361319b5750613153615275565b8061315e575061319d565b806040517f08c379a00000000000000000000000000000000000000000000000000000000081526004016131929190613ab8565b60405180910390fd5b505b6040517f08c379a00000000000000000000000000000000000000000000000000000000081526004016131cf90615377565b60405180910390fd5b63bc197c8160e01b7bffffffffffffffffffffffffffffffffffffffffffffffffffffffff1916817bffffffffffffffffffffffffffffffffffffffffffffffffffffffff19161461325f576040517f08c379a000000000000000000000000000000000000000000000000000000000815260040161325690615409565b60405180910390fd5b505b505050505050565b60606000600167ffffffffffffffff81111561328857613287613ae4565b5b6040519080825280602002602001820160405280156132b65781602001602082028036833780820191505090505b50905082816000815181106132ce576132cd61459c565b5b60200260200101818152505080915050919050565b6133028473ffffffffffffffffffffffffffffffffffffffff1661368a565b156134b2578373ffffffffffffffffffffffffffffffffffffffff1663f23a6e6187878686866040518663ffffffff1660e01b8152600401613348959493929190615429565b6020604051808303816000875af192505050801561338457506040513d601f19601f820116820180604052508101906133819190615219565b60015b61342957613390615253565b806308c379a0036133ec57506133a4615275565b806133af57506133ee565b806040517f08c379a00000000000000000000000000000000000000000000000000000000081526004016133e39190613ab8565b60405180910390fd5b505b6040517f08c379a000000000000000000000000000000000000000000000000000000000815260040161342090615377565b60405180910390fd5b63f23a6e6160e01b7bffffffffffffffffffffffffffffffffffffffffffffffffffffffff1916817bffffffffffffffffffffffffffffffffffffffffffffffffffffffff1916146134b0576040517f08c379a00000000000000000000000000000000000000000000000000000000081526004016134a790615409565b60405180910390fd5b505b505050505050565b6134c88686868686866136ad565b600073ffffffffffffffffffffffffffffffffffffffff168573ffffffffffffffffffffffffffffffffffffffff16036135795760005b83518110156135775782818151811061351b5761351a61459c565b5b60200260200101516004600086848151811061353a5761353961459c565b5b60200260200101518152602001908152602001600020600082825461355f91906148cd565b9250508190555080613570906145fa565b90506134ff565b505b600073ffffffffffffffffffffffffffffffffffffffff168473ffffffffffffffffffffffffffffffffffffffff16036136825760005b83518110156136805760008482815181106135ce576135cd61459c565b5b6020026020010151905060008483815181106135ed576135ec61459c565b5b6020026020010151905060006004600084815260200190815260200160002054905081811015613652576040517f08c379a0000000000000000000000000000000000000000000000000000000008152600401613649906154f5565b60405180910390fd5b818103600460008581526020019081526020016000208190555050505080613679906145fa565b90506135b0565b505b505050505050565b6000808273ffffffffffffffffffffffffffffffffffffffff163b119050919050565b505050505050565b8280546136c1906144ac565b90600052602060002090601f0160209004810192826136e3576000855561372a565b82601f106136fc57805160ff191683800117855561372a565b8280016001018555821561372a579182015b8281111561372957825182559160200191906001019061370e565b5b5090506137379190613808565b5090565b828054613747906144ac565b90600052602060002090601f01602090048101928261376957600085556137b7565b82601f1061377a57805485556137b7565b828001600101855582156137b757600052602060002091601f016020900482015b828111156137b657825482559160010191906001019061379b565b5b5090506137c49190613808565b5090565b5080546137d4906144ac565b6000825580601f106137e65750613805565b601f0160209004906000526020600020908101906138049190613808565b5b50565b5b80821115613821576000816000905550600101613809565b5090565b6000604051905090565b600080fd5b600080fd5b600073ffffffffffffffffffffffffffffffffffffffff82169050919050565b600061386482613839565b9050919050565b61387481613859565b811461387f57600080fd5b50565b6000813590506138918161386b565b92915050565b6000819050919050565b6138aa81613897565b81146138b557600080fd5b50565b6000813590506138c7816138a1565b92915050565b600080604083850312156138e4576138e361382f565b5b60006138f285828601613882565b9250506020613903858286016138b8565b9150509250929050565b61391681613897565b82525050565b6000602082019050613931600083018461390d565b92915050565b60007fffffffff0000000000000000000000000000000000000000000000000000000082169050919050565b61396c81613937565b811461397757600080fd5b50565b60008135905061398981613963565b92915050565b6000602082840312156139a5576139a461382f565b5b60006139b38482850161397a565b91505092915050565b60008115159050919050565b6139d1816139bc565b82525050565b60006020820190506139ec60008301846139c8565b92915050565b600060208284031215613a0857613a0761382f565b5b6000613a16848285016138b8565b91505092915050565b600081519050919050565b600082825260208201905092915050565b60005b83811015613a59578082015181840152602081019050613a3e565b83811115613a68576000848401525b50505050565b6000601f19601f8301169050919050565b6000613a8a82613a1f565b613a948185613a2a565b9350613aa4818560208601613a3b565b613aad81613a6e565b840191505092915050565b60006020820190508181036000830152613ad28184613a7f565b905092915050565b600080fd5b600080fd5b7f4e487b7100000000000000000000000000000000000000000000000000000000600052604160045260246000fd5b613b1c82613a6e565b810181811067ffffffffffffffff82111715613b3b57613b3a613ae4565b5b80604052505050565b6000613b4e613825565b9050613b5a8282613b13565b919050565b600067ffffffffffffffff821115613b7a57613b79613ae4565b5b613b8382613a6e565b9050602081019050919050565b82818337600083830152505050565b6000613bb2613bad84613b5f565b613b44565b905082815260208101848484011115613bce57613bcd613adf565b5b613bd9848285613b90565b509392505050565b600082601f830112613bf657613bf5613ada565b5b8135613c06848260208601613b9f565b91505092915050565b600060208284031215613c2557613c2461382f565b5b600082013567ffffffffffffffff811115613c4357613c42613834565b5b613c4f84828501613be1565b91505092915050565b600081519050919050565b600082825260208201905092915050565b6000819050602082019050919050565b600082825260208201905092915050565b6000613ca082613a1f565b613caa8185613c84565b9350613cba818560208601613a3b565b613cc381613a6e565b840191505092915050565b6000613cda8383613c95565b905092915050565b6000602082019050919050565b6000613cfa82613c58565b613d048185613c63565b935083602082028501613d1685613c74565b8060005b85811015613d525784840389528151613d338582613cce565b9450613d3e83613ce2565b925060208a01995050600181019050613d1a565b50829750879550505050505092915050565b60006020820190508181036000830152613d7e8184613cef565b905092915050565b600067ffffffffffffffff821115613da157613da0613ae4565b5b602082029050602081019050919050565b600080fd5b6000613dca613dc584613d86565b613b44565b90508083825260208201905060208402830185811115613ded57613dec613db2565b5b835b81811015613e165780613e0288826138b8565b845260208401935050602081019050613def565b5050509392505050565b600082601f830112613e3557613e34613ada565b5b8135613e45848260208601613db7565b91505092915050565b600067ffffffffffffffff821115613e6957613e68613ae4565b5b613e7282613a6e565b9050602081019050919050565b6000613e92613e8d84613e4e565b613b44565b905082815260208101848484011115613eae57613ead613adf565b5b613eb9848285613b90565b509392505050565b600082601f830112613ed657613ed5613ada565b5b8135613ee6848260208601613e7f565b91505092915050565b600080600080600060a08688031215613f0b57613f0a61382f565b5b6000613f1988828901613882565b9550506020613f2a88828901613882565b945050604086013567ffffffffffffffff811115613f4b57613f4a613834565b5b613f5788828901613e20565b935050606086013567ffffffffffffffff811115613f7857613f77613834565b5b613f8488828901613e20565b925050608086013567ffffffffffffffff811115613fa557613fa4613834565b5b613fb188828901613ec1565b9150509295509295909350565b600067ffffffffffffffff821115613fd957613fd8613ae4565b5b602082029050602081019050919050565b6000613ffd613ff884613fbe565b613b44565b905080838252602082019050602084028301858111156140205761401f613db2565b5b835b8181101561404957806140358882613882565b845260208401935050602081019050614022565b5050509392505050565b600082601f83011261406857614067613ada565b5b8135614078848260208601613fea565b91505092915050565b600080604083850312156140985761409761382f565b5b600083013567ffffffffffffffff8111156140b6576140b5613834565b5b6140c285828601614053565b925050602083013567ffffffffffffffff8111156140e3576140e2613834565b5b6140ef85828601613e20565b9150509250929050565b600081519050919050565b600082825260208201905092915050565b6000819050602082019050919050565b61412e81613897565b82525050565b60006141408383614125565b60208301905092915050565b6000602082019050919050565b6000614164826140f9565b61416e8185614104565b935061417983614115565b8060005b838110156141aa5781516141918882614134565b975061419c8361414c565b92505060018101905061417d565b5085935050505092915050565b600060208201905081810360008301526141d18184614159565b905092915050565b600080604083850312156141f0576141ef61382f565b5b600083013567ffffffffffffffff81111561420e5761420d613834565b5b61421a85828601613be1565b925050602083013567ffffffffffffffff81111561423b5761423a613834565b5b61424785828601613be1565b9150509250929050565b61425a81613859565b82525050565b60006020820190506142756000830184614251565b92915050565b614284816139bc565b811461428f57600080fd5b50565b6000813590506142a18161427b565b92915050565b600080604083850312156142be576142bd61382f565b5b60006142cc85828601613882565b92505060206142dd85828601614292565b9150509250929050565b600080604083850312156142fe576142fd61382f565b5b600061430c85828601613882565b925050602061431d85828601613882565b9150509250929050565b600080600080600060a086880312156143435761434261382f565b5b600061435188828901613882565b955050602061436288828901613882565b9450506040614373888289016138b8565b9350506060614384888289016138b8565b925050608086013567ffffffffffffffff8111156143a5576143a4613834565b5b6143b188828901613ec1565b9150509295509295909350565b6000602082840312156143d4576143d361382f565b5b60006143e284828501613882565b91505092915050565b7f455243313135353a2061646472657373207a65726f206973206e6f742061207660008201527f616c6964206f776e657200000000000000000000000000000000000000000000602082015250565b6000614447602a83613a2a565b9150614452826143eb565b604082019050919050565b600060208201905081810360008301526144768161443a565b9050919050565b7f4e487b7100000000000000000000000000000000000000000000000000000000600052602260045260246000fd5b600060028204905060018216806144c457607f821691505b6020821081036144d7576144d661447d565b5b50919050565b600081905092915050565b60006144f382613a1f565b6144fd81856144dd565b935061450d818560208601613a3b565b80840191505092915050565b600061452582846144e8565b915081905092915050565b7f50726f6a65637420646f206e6f74206578697374000000000000000000000000600082015250565b6000614566601483613a2a565b915061457182614530565b602082019050919050565b6000602082019050818103600083015261459581614559565b9050919050565b7f4e487b7100000000000000000000000000000000000000000000000000000000600052603260045260246000fd5b7f4e487b7100000000000000000000000000000000000000000000000000000000600052601160045260246000fd5b600061460582613897565b91507fffffffffffffffffffffffffffffffffffffffffffffffffffffffffffffffff8203614637576146366145cb565b5b600182019050919050565b7f455243313135353a2063616c6c6572206973206e6f7420746f6b656e206f776e60008201527f6572206f7220617070726f766564000000000000000000000000000000000000602082015250565b600061469e602e83613a2a565b91506146a982614642565b604082019050919050565b600060208201905081810360008301526146cd81614691565b9050919050565b7f455243313135353a206163636f756e747320616e6420696473206c656e67746860008201527f206d69736d617463680000000000000000000000000000000000000000000000602082015250565b6000614730602983613a2a565b915061473b826146d4565b604082019050919050565b6000602082019050818103600083015261475f81614723565b9050919050565b7f4e65772070726f6a656374206372656174656420776974682049443a00000000600082015250565b600061479c601c83613a2a565b91506147a782614766565b602082019050919050565b600060608201905081810360008301526147cb8161478f565b905081810360208301526147df8185613a7f565b90506147ee604083018461390d565b9392505050565b7f416c726561647920766f74656400000000000000000000000000000000000000600082015250565b600061482b600d83613a2a565b9150614836826147f5565b602082019050919050565b6000602082019050818103600083015261485a8161481e565b9050919050565b7f566f74696e6720706f77657220697320696e73756666696369656e7400000000600082015250565b6000614897601c83613a2a565b91506148a282614861565b602082019050919050565b600060208201905081810360008301526148c68161488a565b9050919050565b60006148d882613897565b91506148e383613897565b9250827fffffffffffffffffffffffffffffffffffffffffffffffffffffffffffffffff03821115614918576149176145cb565b5b828201905092915050565b7f4e657720766f746520666f72206368616e67652070726f706f73616c3a000000600082015250565b6000614959601d83613a2a565b915061496482614923565b602082019050919050565b600060a08201905081810360008301526149888161494c565b9050818103602083015261499c8187613a7f565b905081810360408301526149b08186613a7f565b90506149bf6060830185614251565b6149cc608083018461390d565b95945050505050565b7f4e6577206368616e67652070726f706f73616c20746f207468652050726f6a6560008201527f6374207769746820746865206e616d6520616e6420666f6c6c6f77696e67204960208201527f4420616e64204349443a00000000000000000000000000000000000000000000604082015250565b6000614a57604a83613a2a565b9150614a62826149d5565b606082019050919050565b60006080820190508181036000830152614a8681614a4a565b90508181036020830152614a9a8186613a7f565b90508181036040830152614aae8185613a7f565b9050614abd606083018461390d565b949350505050565b6000614ad082613897565b9150614adb83613897565b925082821015614aee57614aed6145cb565b5b828203905092915050565b7f4e487b7100000000000000000000000000000000000000000000000000000000600052603160045260246000fd5b6000614b3382613897565b915060008203614b4657614b456145cb565b5b600182039050919050565b7f50726f6a656374206368616e67656420746f206368616e67653a200000000000600082015250565b6000614b87601b83613a2a565b9150614b9282614b51565b602082019050919050565b60006060820190508181036000830152614bb681614b7a565b90508181036020830152614bca8185613a7f565b90508181036040830152614bde8184613a7f565b90509392505050565b7f41206e6577206368616e676520686173206265656e206d61646520746f20746860008201527f652070726f6a6563743a20000000000000000000000000000000000000000000602082015250565b6000614c43602b83613a2a565b9150614c4e82614be7565b604082019050919050565b60006060820190508181036000830152614c7281614c36565b90508181036020830152614c868185613a7f565b90508181036040830152614c9a8184613a7f565b90509392505050565b7f4f776e61626c653a206e6577206f776e657220697320746865207a65726f206160008201527f6464726573730000000000000000000000000000000000000000000000000000602082015250565b6000614cff602683613a2a565b9150614d0a82614ca3565b604082019050919050565b60006020820190508181036000830152614d2e81614cf2565b9050919050565b7f455243313135353a2069647320616e6420616d6f756e7473206c656e6774682060008201527f6d69736d61746368000000000000000000000000000000000000000000000000602082015250565b6000614d91602883613a2a565b9150614d9c82614d35565b604082019050919050565b60006020820190508181036000830152614dc081614d84565b9050919050565b7f455243313135353a207472616e7366657220746f20746865207a65726f20616460008201527f6472657373000000000000000000000000000000000000000000000000000000602082015250565b6000614e23602583613a2a565b9150614e2e82614dc7565b604082019050919050565b60006020820190508181036000830152614e5281614e16565b9050919050565b7f455243313135353a20696e73756666696369656e742062616c616e636520666f60008201527f72207472616e7366657200000000000000000000000000000000000000000000602082015250565b6000614eb5602a83613a2a565b9150614ec082614e59565b604082019050919050565b60006020820190508181036000830152614ee481614ea8565b9050919050565b60006040820190508181036000830152614f058185614159565b90508181036020830152614f198184614159565b90509392505050565b7f455243313135353a206d696e7420746f20746865207a65726f2061646472657360008201527f7300000000000000000000000000000000000000000000000000000000000000602082015250565b6000614f7e602183613a2a565b9150614f8982614f22565b604082019050919050565b60006020820190508181036000830152614fad81614f71565b9050919050565b6000604082019050614fc9600083018561390d565b614fd6602083018461390d565b9392505050565b7f4f776e61626c653a2063616c6c6572206973206e6f7420746865206f776e6572600082015250565b6000615013602083613a2a565b915061501e82614fdd565b602082019050919050565b6000602082019050818103600083015261504281615006565b9050919050565b7f50726f706f736564206368616e676520646f65736e2774206578697374000000600082015250565b600061507f601d83613a2a565b915061508a82615049565b602082019050919050565b600060208201905081810360008301526150ae81615072565b9050919050565b7f455243313135353a2073657474696e6720617070726f76616c2073746174757360008201527f20666f722073656c660000000000000000000000000000000000000000000000602082015250565b6000615111602983613a2a565b915061511c826150b5565b604082019050919050565b6000602082019050818103600083015261514081615104565b9050919050565b600081519050919050565b600082825260208201905092915050565b600061516e82615147565b6151788185615152565b9350615188818560208601613a3b565b61519181613a6e565b840191505092915050565b600060a0820190506151b16000830188614251565b6151be6020830187614251565b81810360408301526151d08186614159565b905081810360608301526151e48185614159565b905081810360808301526151f88184615163565b90509695505050505050565b60008151905061521381613963565b92915050565b60006020828403121561522f5761522e61382f565b5b600061523d84828501615204565b91505092915050565b60008160e01c9050919050565b600060033d11156152725760046000803e61526f600051615246565b90505b90565b600060443d1061530257615287613825565b60043d036004823e80513d602482011167ffffffffffffffff821117156152af575050615302565b808201805167ffffffffffffffff8111156152cd5750505050615302565b80602083010160043d0385018111156152ea575050505050615302565b6152f982602001850186613b13565b82955050505050505b90565b7f455243313135353a207472616e7366657220746f206e6f6e2d4552433131353560008201527f526563656976657220696d706c656d656e746572000000000000000000000000602082015250565b6000615361603483613a2a565b915061536c82615305565b604082019050919050565b6000602082019050818103600083015261539081615354565b9050919050565b7f455243313135353a204552433131353552656365697665722072656a6563746560008201527f6420746f6b656e73000000000000000000000000000000000000000000000000602082015250565b60006153f3602883613a2a565b91506153fe82615397565b604082019050919050565b60006020820190508181036000830152615422816153e6565b9050919050565b600060a08201905061543e6000830188614251565b61544b6020830187614251565b615458604083018661390d565b615465606083018561390d565b81810360808301526154778184615163565b90509695505050505050565b7f455243313135353a206275726e20616d6f756e74206578636565647320746f7460008201527f616c537570706c79000000000000000000000000000000000000000000000000602082015250565b60006154df602883613a2a565b91506154ea82615483565b604082019050919050565b6000602082019050818103600083015261550e816154d2565b905091905056fea2646970667358221220b9a81f52d3bffdbf322553011baf06205e5a9a5795f8e114bf72611ada2bdcb564736f6c634300080d0033",
  "immutableReferences": {},
  "source": "// SPDX-License-Identifier: MIT\npragma solidity ^0.8.2;\n\nimport \"../node_modules/@openzeppelin/contracts/token/ERC1155/ERC1155.sol\";\nimport \"../node_modules/@openzeppelin/contracts/access/Ownable.sol\";\nimport \"../node_modules/@openzeppelin/contracts/utils/Counters.sol\";\nimport \"../node_modules/@openzeppelin/contracts/token/ERC1155/extensions/ERC1155Supply.sol\";\n\ncontract Steps is ERC1155, Ownable, ERC1155Supply {\n    using Counters for Counters.Counter;\n\n    // -------------------------------------------------------- Mappings\n    mapping(string => uint) public NameToID;    \n\n    // -------------------------------------------------------- Structs\n    struct Change {\n        string changeCID;\n        address changeMaker;\n        uint votes;\n    }\n\n    struct goBack {\n        uint votes;\n        string changeCID;\n        address goBackMaker;\n    }\n\n    struct Project {\n        string name;\n        Change[] changes;\n        Change[] changeProposals;\n        goBack[] goBackProposals;\n\n        // - ChangeCID => Voter address => Voted?\n        mapping(string => mapping(address => bool)) Voted;\n\n    }\n\n\n    // -------------------------------------------------------- Lists\n    Project[] publicProjects;\n\n    // -------------------------------------------------------- Events\n    event NewProjectCreated(string message, string name, uint value);\n    event NewChangeProposalCreated(string message, string Name, string CID, uint indexValue);\n    event NewVoteForChangeProposal(string message, string projectName, string changeProposalCID, address voter, uint votes);\n    event NewChangeIsMadeToProject(string message, string projectName, string changeCID); // Message, Project CID, Message, ChangeCID\n    event ProjectWentBack(string message, string changeCID, string ProjectName);\n\n    // -------------------------------------------------------- Modifiers\n    modifier ProjectExist(string memory _Name) {\n        uint id = NameToID[_Name];\n        require(id < publicProjects.length, \"Project do not exist\");\n        _;\n    }\n\n    // -------------------------------------------------------- Constructor\n    constructor() ERC1155(\"URI\") {\n        publicProjects.push();\n    } // change URI to the website's one\n\n    // -------------------------------------------------------- Functions\n    function _beforeTokenTransfer(address operator, address from, address to, uint256[] memory ids, uint256[] memory amounts, bytes memory data) internal override(ERC1155, ERC1155Supply) {\n        super._beforeTokenTransfer(operator, from, to, ids, amounts, data);\n    }\n\n    function createProject(string memory _CID, string memory projectName) public {\n        // Create Project's Token and Mint\n        uint newProjectID = publicProjects.length;\n        NameToID[projectName] = newProjectID;\n        _mint(msg.sender, newProjectID, 1000000, \"\");\n        \n        // Create New Project\n        Project storage newProject = publicProjects.push();\n        newProject.name = projectName;\n        Change memory newChange = Change(_CID, msg.sender, 1);\n        newProject.changes.push(newChange);\n        emit NewProjectCreated(\"New project created with ID:\", projectName, newProjectID);\n    }\n\n\n    function MakeChangeProposal(string memory _changeCID, string memory _projectName) ProjectExist(_projectName) public {\n        uint projectIDX = NameToID[_projectName];\n        publicProjects[projectIDX].changeProposals.push(Change(_changeCID, msg.sender, balanceOf(msg.sender, NameToID[_projectName])));\n        publicProjects[projectIDX].Voted[_changeCID][msg.sender] = true;\n        emit NewChangeProposalCreated(\"New change proposal to the Project with the name and following ID and CID:\", _projectName, _changeCID, projectIDX);\n    }\n\n    function getChangeProposalIndex(string memory _ChangeCID, string memory _projectName) internal view returns (uint)  {\n        uint _proposedChangeIdx;\n        bool found;\n\n        uint idx = NameToID[_projectName];\n        for (uint index = publicProjects[idx].changeProposals.length - 1; index >= 0; index--) {\n            string memory changeCIDcheck = publicProjects[idx].changeProposals[index].changeCID;\n            if (keccak256(abi.encodePacked(changeCIDcheck)) == keccak256(abi.encodePacked(_ChangeCID))) {\n                _proposedChangeIdx = index;\n                found = true;\n                break;\n            }\n        }\n\n        require(found == true, \"Proposed change doesn't exist\");\n        return _proposedChangeIdx;\n    }\n\n    function MakeGoBackProposal(string memory _changeCID, string memory _projectName) public {\n        uint projectID = NameToID[_projectName];\n        publicProjects[projectID].goBackProposals.push(goBack(0, _changeCID, msg.sender));\n    }\n\n    function acceptGoBack(string memory _projectName, string memory _changeCID) ProjectExist(_projectName) public {\n        uint projectIDX = NameToID[_projectName];\n        uint _proposedChangeIdx = getChangeProposalIndex(_changeCID, _projectName);\n        for (uint index = publicProjects[projectIDX].changes.length; index > _proposedChangeIdx; index--) {\n            publicProjects[projectIDX].changeProposals.push(publicProjects[projectIDX].changes[index - 1]);\n            publicProjects[projectIDX].changes.pop();\n        }\n\n        emit ProjectWentBack(\"Project changed to change: \", _changeCID, _projectName);\n    }\n\n    function acceptChangeProposal(string memory _proposedChangeCID, string memory _projectName) ProjectExist(_projectName) public {\n        uint _proposedChangeIdx = getChangeProposalIndex(_proposedChangeCID, _projectName);\n        uint projectID = NameToID[_projectName];\n\n        Change memory proposedChange = publicProjects[projectID].changeProposals[_proposedChangeIdx];\n        Change memory LastProposedChange = publicProjects[projectID].changeProposals[publicProjects[projectID].changeProposals.length - 1];\n        publicProjects[projectID].changeProposals[publicProjects[projectID].changeProposals.length - 1] = proposedChange;\n        publicProjects[projectID].changeProposals[_proposedChangeIdx] = LastProposedChange;\n        publicProjects[projectID].changeProposals.pop();\n\n        publicProjects[projectID].changes.push(Change(proposedChange.changeCID, proposedChange.changeMaker, proposedChange.votes));\n\n        emit NewChangeIsMadeToProject(\"A new change has been made to the project: \", _projectName, _proposedChangeCID);\n    }\n\n    function getBalance(string memory _projectName) ProjectExist(_projectName) external view returns (uint) {\n        return balanceOf(msg.sender, NameToID[_projectName]);\n    }\n\n    function voteForChangeProposal(string memory _changeProposalCID, string memory _projectName) ProjectExist(_projectName) public {\n        uint projectID = NameToID[_projectName];\n        require(publicProjects[projectID].Voted[_changeProposalCID][msg.sender] == false, \"Already voted\");\n        uint votingPower = balanceOf(msg.sender, projectID);\n        require(votingPower > 0, \"Voting power is insufficient\");\n        uint _proposedChangeIdx = getChangeProposalIndex(_changeProposalCID, _projectName);\n\n        publicProjects[projectID].changeProposals[_proposedChangeIdx].votes += votingPower;\n        publicProjects[projectID].Voted[_changeProposalCID][msg.sender] = true;\n        \n        // New vote for change proposal: project name, changeCID, sender, votes\n        emit NewVoteForChangeProposal(\n            \"New vote for change proposal:\",\n            _projectName,\n            _changeProposalCID,\n            msg.sender,\n            publicProjects[projectID].changeProposals[_proposedChangeIdx].votes\n        );\n    }\n\n    function getProjectChanges(string memory _projectName) ProjectExist(_projectName) external view returns (string[] memory) {\n        uint projectIDX = NameToID[_projectName];\n        uint arr_length = publicProjects[projectIDX].changes.length;\n        string[] memory allChanges = new string[](arr_length);\n\n        for (uint256 i = 0; i < arr_length; i++) {\n            allChanges[i] = publicProjects[projectIDX].changes[i].changeCID;\n        }\n\n        return allChanges;\n    }\n\n    function getProjectChangeProposals(string memory _projectName) ProjectExist(_projectName) external view returns (string[] memory) {\n        uint projectID = NameToID[_projectName];\n        uint arr_length = publicProjects[projectID].changeProposals.length;\n        string[] memory allChanges = new string[](arr_length);\n\n        for (uint256 i = 0; i < arr_length; i++) {\n            allChanges[i] = publicProjects[projectID].changeProposals[i].changeCID;\n        }\n\n        return allChanges;\n    }\n\n    function getLastProjects() external view returns (string[] memory) {\n        uint arr_length = publicProjects.length;\n        uint arr_index = publicProjects.length;\n        if (arr_length > 10) {\n            arr_length = 10;\n        }\n\n        string[] memory lastProjects = new string[](arr_length);\n        if (publicProjects.length > 0) {\n        for (uint256 i = arr_index - arr_length; i < arr_index; i++) {\n            lastProjects[arr_index - 1 - i] = publicProjects[i].name; \n        }}\n        return lastProjects;\n    }\n}\n",
  "sourcePath": "c:\\Users\\User\\Desktop\\\\davidson\\project\\DavidsonProject\\Smart Contract\\contracts\\Steps.sol",
  "compiler": {
    "name": "solc",
    "version": "0.8.13+commit.abaa5c0e.Emscripten.clang"
  },
  "schemaVersion": "3.4.7",
  "updatedAt": "2024-01-16T20:55:46.568Z",
  "networkType": "ethereum",
  "devdoc": {
    "kind": "dev",
    "methods": {
      "balanceOf(address,uint256)": {
        "details": "See {IERC1155-balanceOf}. Requirements: - `account` cannot be the zero address."
      },
      "balanceOfBatch(address[],uint256[])": {
        "details": "See {IERC1155-balanceOfBatch}. Requirements: - `accounts` and `ids` must have the same length."
      },
      "exists(uint256)": {
        "details": "Indicates whether any token exist with a given id, or not."
      },
      "isApprovedForAll(address,address)": {
        "details": "See {IERC1155-isApprovedForAll}."
      },
      "owner()": {
        "details": "Returns the address of the current owner."
      },
      "renounceOwnership()": {
        "details": "Leaves the contract without owner. It will not be possible to call `onlyOwner` functions. Can only be called by the current owner. NOTE: Renouncing ownership will leave the contract without an owner, thereby disabling any functionality that is only available to the owner."
      },
      "safeBatchTransferFrom(address,address,uint256[],uint256[],bytes)": {
        "details": "See {IERC1155-safeBatchTransferFrom}."
      },
      "safeTransferFrom(address,address,uint256,uint256,bytes)": {
        "details": "See {IERC1155-safeTransferFrom}."
      },
      "setApprovalForAll(address,bool)": {
        "details": "See {IERC1155-setApprovalForAll}."
      },
      "supportsInterface(bytes4)": {
        "details": "See {IERC165-supportsInterface}."
      },
      "totalSupply(uint256)": {
        "details": "Total amount of tokens in with a given id."
      },
      "transferOwnership(address)": {
        "details": "Transfers ownership of the contract to a new account (`newOwner`). Can only be called by the current owner."
      },
      "uri(uint256)": {
        "details": "See {IERC1155MetadataURI-uri}. This implementation returns the same URI for *all* token types. It relies on the token type ID substitution mechanism https://eips.ethereum.org/EIPS/eip-1155#metadata[defined in the EIP]. Clients calling this function must replace the `\\{id\\}` substring with the actual token type ID."
      }
    },
    "version": 1
  },
  "userdoc": {
    "kind": "user",
    "methods": {},
    "version": 1
  }
}