{
  "contractName": "Steps",
  "abi": [
    {
      "inputs": [],
      "stateMutability": "nonpayable",
      "type": "constructor"
    },
    {
      "anonymous": false,
      "inputs": [
        {
          "indexed": true,
          "internalType": "address",
          "name": "account",
          "type": "address"
        },
        {
          "indexed": true,
          "internalType": "address",
          "name": "operator",
          "type": "address"
        },
        {
          "indexed": false,
          "internalType": "bool",
          "name": "approved",
          "type": "bool"
        }
      ],
      "name": "ApprovalForAll",
      "type": "event"
    },
    {
      "anonymous": false,
      "inputs": [
        {
          "indexed": false,
          "internalType": "string",
          "name": "message",
          "type": "string"
        },
        {
          "indexed": false,
          "internalType": "string",
          "name": "projectName",
          "type": "string"
        },
        {
          "indexed": false,
          "internalType": "string",
          "name": "changeCID",
          "type": "string"
        }
      ],
      "name": "NewChangeIsMadeToProject",
      "type": "event"
    },
    {
      "anonymous": false,
      "inputs": [
        {
          "indexed": false,
          "internalType": "string",
          "name": "message",
          "type": "string"
        },
        {
          "indexed": false,
          "internalType": "string",
          "name": "Name",
          "type": "string"
        },
        {
          "indexed": false,
          "internalType": "string",
          "name": "CID",
          "type": "string"
        },
        {
          "indexed": false,
          "internalType": "uint256",
          "name": "indexValue",
          "type": "uint256"
        }
      ],
      "name": "NewChangeProposalCreated",
      "type": "event"
    },
    {
      "anonymous": false,
      "inputs": [
        {
          "indexed": false,
          "internalType": "string",
          "name": "message",
          "type": "string"
        },
        {
          "indexed": false,
          "internalType": "string",
          "name": "name",
          "type": "string"
        },
        {
          "indexed": false,
          "internalType": "uint256",
          "name": "value",
          "type": "uint256"
        }
      ],
      "name": "NewProjectCreated",
      "type": "event"
    },
    {
      "anonymous": false,
      "inputs": [
        {
          "indexed": false,
          "internalType": "string",
          "name": "message",
          "type": "string"
        },
        {
          "indexed": false,
          "internalType": "string",
          "name": "projectName",
          "type": "string"
        },
        {
          "indexed": false,
          "internalType": "string",
          "name": "changeProposalCID",
          "type": "string"
        },
        {
          "indexed": false,
          "internalType": "address",
          "name": "voter",
          "type": "address"
        },
        {
          "indexed": false,
          "internalType": "uint256",
          "name": "votes",
          "type": "uint256"
        }
      ],
      "name": "NewVoteForChangeProposal",
      "type": "event"
    },
    {
      "anonymous": false,
      "inputs": [
        {
          "indexed": true,
          "internalType": "address",
          "name": "previousOwner",
          "type": "address"
        },
        {
          "indexed": true,
          "internalType": "address",
          "name": "newOwner",
          "type": "address"
        }
      ],
      "name": "OwnershipTransferred",
      "type": "event"
    },
    {
      "anonymous": false,
      "inputs": [
        {
          "indexed": false,
          "internalType": "string",
          "name": "message",
          "type": "string"
        },
        {
          "indexed": false,
          "internalType": "string",
          "name": "changeCID",
          "type": "string"
        },
        {
          "indexed": false,
          "internalType": "string",
          "name": "ProjectName",
          "type": "string"
        }
      ],
      "name": "ProjectWentBack",
      "type": "event"
    },
    {
      "anonymous": false,
      "inputs": [
        {
          "indexed": false,
          "internalType": "string",
          "name": "message",
          "type": "string"
        },
        {
          "indexed": false,
          "internalType": "uint256",
          "name": "lastDistributionTime",
          "type": "uint256"
        }
      ],
      "name": "TokensDisributed",
      "type": "event"
    },
    {
      "anonymous": false,
      "inputs": [
        {
          "indexed": true,
          "internalType": "address",
          "name": "operator",
          "type": "address"
        },
        {
          "indexed": true,
          "internalType": "address",
          "name": "from",
          "type": "address"
        },
        {
          "indexed": true,
          "internalType": "address",
          "name": "to",
          "type": "address"
        },
        {
          "indexed": false,
          "internalType": "uint256[]",
          "name": "ids",
          "type": "uint256[]"
        },
        {
          "indexed": false,
          "internalType": "uint256[]",
          "name": "values",
          "type": "uint256[]"
        }
      ],
      "name": "TransferBatch",
      "type": "event"
    },
    {
      "anonymous": false,
      "inputs": [
        {
          "indexed": true,
          "internalType": "address",
          "name": "operator",
          "type": "address"
        },
        {
          "indexed": true,
          "internalType": "address",
          "name": "from",
          "type": "address"
        },
        {
          "indexed": true,
          "internalType": "address",
          "name": "to",
          "type": "address"
        },
        {
          "indexed": false,
          "internalType": "uint256",
          "name": "id",
          "type": "uint256"
        },
        {
          "indexed": false,
          "internalType": "uint256",
          "name": "value",
          "type": "uint256"
        }
      ],
      "name": "TransferSingle",
      "type": "event"
    },
    {
      "anonymous": false,
      "inputs": [
        {
          "indexed": false,
          "internalType": "string",
          "name": "value",
          "type": "string"
        },
        {
          "indexed": true,
          "internalType": "uint256",
          "name": "id",
          "type": "uint256"
        }
      ],
      "name": "URI",
      "type": "event"
    },
    {
      "inputs": [
        {
          "internalType": "string",
          "name": "",
          "type": "string"
        }
      ],
      "name": "NameToID",
      "outputs": [
        {
          "internalType": "uint256",
          "name": "",
          "type": "uint256"
        }
      ],
      "stateMutability": "view",
      "type": "function",
      "constant": true
    },
    {
      "inputs": [],
      "name": "TimeLockInterval",
      "outputs": [
        {
          "internalType": "uint256",
          "name": "",
          "type": "uint256"
        }
      ],
      "stateMutability": "view",
      "type": "function",
      "constant": true
    },
    {
      "inputs": [
        {
          "internalType": "address",
          "name": "account",
          "type": "address"
        },
        {
          "internalType": "uint256",
          "name": "id",
          "type": "uint256"
        }
      ],
      "name": "balanceOf",
      "outputs": [
        {
          "internalType": "uint256",
          "name": "",
          "type": "uint256"
        }
      ],
      "stateMutability": "view",
      "type": "function",
      "constant": true
    },
    {
      "inputs": [
        {
          "internalType": "address[]",
          "name": "accounts",
          "type": "address[]"
        },
        {
          "internalType": "uint256[]",
          "name": "ids",
          "type": "uint256[]"
        }
      ],
      "name": "balanceOfBatch",
      "outputs": [
        {
          "internalType": "uint256[]",
          "name": "",
          "type": "uint256[]"
        }
      ],
      "stateMutability": "view",
      "type": "function",
      "constant": true
    },
    {
      "inputs": [
        {
          "internalType": "uint256",
          "name": "id",
          "type": "uint256"
        }
      ],
      "name": "exists",
      "outputs": [
        {
          "internalType": "bool",
          "name": "",
          "type": "bool"
        }
      ],
      "stateMutability": "view",
      "type": "function",
      "constant": true
    },
    {
      "inputs": [
        {
          "internalType": "address",
          "name": "account",
          "type": "address"
        },
        {
          "internalType": "address",
          "name": "operator",
          "type": "address"
        }
      ],
      "name": "isApprovedForAll",
      "outputs": [
        {
          "internalType": "bool",
          "name": "",
          "type": "bool"
        }
      ],
      "stateMutability": "view",
      "type": "function",
      "constant": true
    },
    {
      "inputs": [],
      "name": "owner",
      "outputs": [
        {
          "internalType": "address",
          "name": "",
          "type": "address"
        }
      ],
      "stateMutability": "view",
      "type": "function",
      "constant": true
    },
    {
      "inputs": [],
      "name": "renounceOwnership",
      "outputs": [],
      "stateMutability": "nonpayable",
      "type": "function"
    },
    {
      "inputs": [
        {
          "internalType": "address",
          "name": "from",
          "type": "address"
        },
        {
          "internalType": "address",
          "name": "to",
          "type": "address"
        },
        {
          "internalType": "uint256[]",
          "name": "ids",
          "type": "uint256[]"
        },
        {
          "internalType": "uint256[]",
          "name": "amounts",
          "type": "uint256[]"
        },
        {
          "internalType": "bytes",
          "name": "data",
          "type": "bytes"
        }
      ],
      "name": "safeBatchTransferFrom",
      "outputs": [],
      "stateMutability": "nonpayable",
      "type": "function"
    },
    {
      "inputs": [
        {
          "internalType": "address",
          "name": "from",
          "type": "address"
        },
        {
          "internalType": "address",
          "name": "to",
          "type": "address"
        },
        {
          "internalType": "uint256",
          "name": "id",
          "type": "uint256"
        },
        {
          "internalType": "uint256",
          "name": "amount",
          "type": "uint256"
        },
        {
          "internalType": "bytes",
          "name": "data",
          "type": "bytes"
        }
      ],
      "name": "safeTransferFrom",
      "outputs": [],
      "stateMutability": "nonpayable",
      "type": "function"
    },
    {
      "inputs": [
        {
          "internalType": "address",
          "name": "operator",
          "type": "address"
        },
        {
          "internalType": "bool",
          "name": "approved",
          "type": "bool"
        }
      ],
      "name": "setApprovalForAll",
      "outputs": [],
      "stateMutability": "nonpayable",
      "type": "function"
    },
    {
      "inputs": [
        {
          "internalType": "bytes4",
          "name": "interfaceId",
          "type": "bytes4"
        }
      ],
      "name": "supportsInterface",
      "outputs": [
        {
          "internalType": "bool",
          "name": "",
          "type": "bool"
        }
      ],
      "stateMutability": "view",
      "type": "function",
      "constant": true
    },
    {
      "inputs": [
        {
          "internalType": "uint256",
          "name": "id",
          "type": "uint256"
        }
      ],
      "name": "totalSupply",
      "outputs": [
        {
          "internalType": "uint256",
          "name": "",
          "type": "uint256"
        }
      ],
      "stateMutability": "view",
      "type": "function",
      "constant": true
    },
    {
      "inputs": [
        {
          "internalType": "address",
          "name": "newOwner",
          "type": "address"
        }
      ],
      "name": "transferOwnership",
      "outputs": [],
      "stateMutability": "nonpayable",
      "type": "function"
    },
    {
      "inputs": [
        {
          "internalType": "uint256",
          "name": "",
          "type": "uint256"
        }
      ],
      "name": "uri",
      "outputs": [
        {
          "internalType": "string",
          "name": "",
          "type": "string"
        }
      ],
      "stateMutability": "view",
      "type": "function",
      "constant": true
    },
    {
      "inputs": [
        {
          "internalType": "string",
          "name": "_CID",
          "type": "string"
        },
        {
          "internalType": "string",
          "name": "projectName",
          "type": "string"
        }
      ],
      "name": "createProject",
      "outputs": [],
      "stateMutability": "nonpayable",
      "type": "function"
    },
    {
      "inputs": [
        {
          "internalType": "string",
          "name": "_changeCID",
          "type": "string"
        },
        {
          "internalType": "string",
          "name": "_projectName",
          "type": "string"
        }
      ],
      "name": "MakeChangeProposal",
      "outputs": [],
      "stateMutability": "nonpayable",
      "type": "function"
    },
    {
      "inputs": [
        {
          "internalType": "string",
          "name": "_changeCID",
          "type": "string"
        },
        {
          "internalType": "string",
          "name": "_projectName",
          "type": "string"
        }
      ],
      "name": "MakeGoBackProposal",
      "outputs": [],
      "stateMutability": "nonpayable",
      "type": "function"
    },
    {
      "inputs": [
        {
          "internalType": "string",
          "name": "_projectName",
          "type": "string"
        },
        {
          "internalType": "string",
          "name": "_changeCID",
          "type": "string"
        }
      ],
      "name": "acceptGoBack",
      "outputs": [],
      "stateMutability": "nonpayable",
      "type": "function"
    },
    {
      "inputs": [
        {
          "internalType": "string",
          "name": "_proposedChangeCID",
          "type": "string"
        },
        {
          "internalType": "string",
          "name": "_projectName",
          "type": "string"
        }
      ],
      "name": "acceptChangeProposal",
      "outputs": [],
      "stateMutability": "nonpayable",
      "type": "function"
    },
    {
      "inputs": [
        {
          "internalType": "string",
          "name": "_projectName",
          "type": "string"
        },
        {
          "internalType": "address",
          "name": "_UserAddress",
          "type": "address"
        }
      ],
      "name": "getBalance",
      "outputs": [
        {
          "internalType": "uint256",
          "name": "",
          "type": "uint256"
        }
      ],
      "stateMutability": "view",
      "type": "function",
      "constant": true
    },
    {
      "inputs": [
        {
          "internalType": "string",
          "name": "_changeProposalCID",
          "type": "string"
        },
        {
          "internalType": "string",
          "name": "_projectName",
          "type": "string"
        }
      ],
      "name": "voteForChangeProposal",
      "outputs": [],
      "stateMutability": "nonpayable",
      "type": "function"
    },
    {
      "inputs": [
        {
          "internalType": "string",
          "name": "_projectName",
          "type": "string"
        },
        {
          "internalType": "bool",
          "name": "changesOrChangeProposals",
          "type": "bool"
        }
      ],
      "name": "getChangesOrProposals",
      "outputs": [
        {
          "internalType": "string[]",
          "name": "",
          "type": "string[]"
        }
      ],
      "stateMutability": "view",
      "type": "function",
      "constant": true
    },
    {
      "inputs": [],
      "name": "getLastProjects",
      "outputs": [
        {
          "internalType": "string[]",
          "name": "",
          "type": "string[]"
        }
      ],
      "stateMutability": "view",
      "type": "function",
      "constant": true
    },
    {
      "inputs": [
        {
          "internalType": "string",
          "name": "_projectName",
          "type": "string"
        }
      ],
      "name": "distributeTokens",
      "outputs": [],
      "stateMutability": "nonpayable",
      "type": "function"
    }
  ],
  "bytecode": "0x60a060405262278d006080908152503480156200001b57600080fd5b506040518060400160405280600381526020017f555249000000000000000000000000000000000000000000000000000000000081525062000063816200008a60201b60201c565b506200008462000078620000a660201b60201c565b620000ae60201b60201c565b62000288565b8060029080519060200190620000a292919062000174565b5050565b600033905090565b6000600360009054906101000a900473ffffffffffffffffffffffffffffffffffffffff16905081600360006101000a81548173ffffffffffffffffffffffffffffffffffffffff021916908373ffffffffffffffffffffffffffffffffffffffff1602179055508173ffffffffffffffffffffffffffffffffffffffff168173ffffffffffffffffffffffffffffffffffffffff167f8be0079c531659141344cd1fd0a4f28419497f9722a3daafe3b4186f6b6457e060405160405180910390a35050565b828054620001829062000253565b90600052602060002090601f016020900481019282620001a65760008555620001f2565b82601f10620001c157805160ff1916838001178555620001f2565b82800160010185558215620001f2579182015b82811115620001f1578251825591602001919060010190620001d4565b5b50905062000201919062000205565b5090565b5b808211156200022057600081600090555060010162000206565b5090565b7f4e487b7100000000000000000000000000000000000000000000000000000000600052602260045260246000fd5b600060028204905060018216806200026c57607f821691505b60208210810362000282576200028162000224565b5b50919050565b608051615415620002ab600039600081816110f80152611eaf01526154156000f3fe608060405234801561001057600080fd5b50600436106101725760003560e01c806389f4b317116100de578063bd85b03911610097578063ed0c2d9011610071578063ed0c2d901461047f578063ee9c3aa31461049b578063f242432a146104b7578063f2fde38b146104d357610172565b8063bd85b03914610403578063c4687fb814610433578063e985e9c51461044f57610172565b806389f4b317146103435780638d1446fc146103735780638da5cb5b1461038f578063a22cb465146103ad578063a54d804d146103c9578063a5635963146103e757610172565b80634e1273f4116101305780634e1273f4146102835780634f558e79146102b35780636bd06204146102e3578063715018a6146102ff578063750354d2146103095780637a5945da1461032557610172565b8062fdd58e1461017757806301ffc9a7146101a75780630e89341c146101d75780631d7147d8146102075780632eb2c2d61461023757806333846eba14610253575b600080fd5b610191600480360381019061018c919061330a565b6104ef565b60405161019e9190613359565b60405180910390f35b6101c160048036038101906101bc91906133cc565b6105b7565b6040516101ce9190613414565b60405180910390f35b6101f160048036038101906101ec919061342f565b610699565b6040516101fe91906134f5565b60405180910390f35b610221600480360381019061021c9190613678565b61072d565b60405161022e91906137e0565b60405180910390f35b610251600480360381019061024c919061396b565b61092d565b005b61026d60048036038101906102689190613a3a565b6109ce565b60405161027a9190613359565b60405180910390f35b61029d60048036038101906102989190613b46565b6109fc565b6040516102aa9190613c7c565b60405180910390f35b6102cd60048036038101906102c8919061342f565b610b15565b6040516102da9190613414565b60405180910390f35b6102fd60048036038101906102f89190613c9e565b610b29565b005b610307610c65565b005b610323600480360381019061031e9190613c9e565b610c79565b005b61032d6110f6565b60405161033a9190613359565b60405180910390f35b61035d60048036038101906103589190613d16565b61111a565b60405161036a9190613359565b60405180910390f35b61038d60048036038101906103889190613c9e565b611279565b005b610397611558565b6040516103a49190613d81565b60405180910390f35b6103c760048036038101906103c29190613d9c565b611582565b005b6103d1611598565b6040516103de91906137e0565b60405180910390f35b61040160048036038101906103fc9190613c9e565b611736565b005b61041d6004803603810190610418919061342f565b611874565b60405161042a9190613359565b60405180910390f35b61044d60048036038101906104489190613c9e565b611891565b005b61046960048036038101906104649190613ddc565b611aae565b6040516104769190613414565b60405180910390f35b61049960048036038101906104949190613c9e565b611b42565b005b6104b560048036038101906104b09190613a3a565b611d5f565b005b6104d160048036038101906104cc9190613e1c565b611fcc565b005b6104ed60048036038101906104e89190613eb3565b61206d565b005b60008073ffffffffffffffffffffffffffffffffffffffff168373ffffffffffffffffffffffffffffffffffffffff160361055f576040517f08c379a000000000000000000000000000000000000000000000000000000000815260040161055690613f52565b60405180910390fd5b60008083815260200190815260200160002060008473ffffffffffffffffffffffffffffffffffffffff1673ffffffffffffffffffffffffffffffffffffffff16815260200190815260200160002054905092915050565b60007fd9b67a26000000000000000000000000000000000000000000000000000000007bffffffffffffffffffffffffffffffffffffffffffffffffffffffff1916827bffffffffffffffffffffffffffffffffffffffffffffffffffffffff1916148061068257507f0e89341c000000000000000000000000000000000000000000000000000000007bffffffffffffffffffffffffffffffffffffffffffffffffffffffff1916827bffffffffffffffffffffffffffffffffffffffffffffffffffffffff1916145b806106925750610691826120f0565b5b9050919050565b6060600280546106a890613fa1565b80601f01602080910402602001604051908101604052809291908181526020018280546106d490613fa1565b80156107215780601f106106f657610100808354040283529160200191610721565b820191906000526020600020905b81548152906001019060200180831161070457829003601f168201915b50505050509050919050565b6060826000600582604051610742919061400e565b908152602001604051809103902054905060008103610812578160405160200161076c919061400e565b604051602081830303815290604052805190602001206006828154811061079657610795614025565b5b90600052602060002090600702016000016040516020016107b791906140e8565b604051602081830303815290604052805190602001201461080d576040517f08c379a00000000000000000000000000000000000000000000000000000000081526004016108049061414b565b60405180910390fd5b61085a565b6006805490508110610859576040517f08c379a00000000000000000000000000000000000000000000000000000000081526004016108509061414b565b60405180910390fd5b5b600060058660405161086c919061400e565b90815260200160405180910390205490506006818154811061089157610890614025565b5b906000526020600020906007020160010173__ChangesLibrary________________________63e3e26be89091876040518363ffffffff1660e01b81526004016108dc929190614181565b600060405180830381865af41580156108f9573d6000803e3d6000fd5b505050506040513d6000823e3d601f19601f8201168201806040525081019061092291906142fb565b935050505092915050565b61093561215a565b73ffffffffffffffffffffffffffffffffffffffff168573ffffffffffffffffffffffffffffffffffffffff16148061097b575061097a8561097561215a565b611aae565b5b6109ba576040517f08c379a00000000000000000000000000000000000000000000000000000000081526004016109b1906143b6565b60405180910390fd5b6109c78585858585612162565b5050505050565b6005818051602081018201805184825260208301602085012081835280955050505050506000915090505481565b60608151835114610a42576040517f08c379a0000000000000000000000000000000000000000000000000000000008152600401610a3990614448565b60405180910390fd5b6000835167ffffffffffffffff811115610a5f57610a5e613521565b5b604051908082528060200260200182016040528015610a8d5781602001602082028036833780820191505090505b50905060005b8451811015610b0a57610ada858281518110610ab257610ab1614025565b5b6020026020010151858381518110610acd57610acc614025565b5b60200260200101516104ef565b828281518110610aed57610aec614025565b5b60200260200101818152505080610b0390614497565b9050610a93565b508091505092915050565b600080610b2183611874565b119050919050565b6000600680549050905080600583604051610b44919061400e565b908152602001604051809103902081905550610b723382600a60405180602001604052806000815250612483565b60006006600181600181540180825580915050039060005260206000209060070201905082816000019080519060200190610bae9291906131bf565b508060010173__ChangesLibrary________________________63aaff905a9091866040518363ffffffff1660e01b8152600401610bed929190614529565b60006040518083038186803b158015610c0557600080fd5b505af4158015610c19573d6000803e3d6000fd5b505050504281600501819055507fe224389b386caecb8e3b38edc39361c7227e3ef820a8276bc31ac9cf1ba69fcd8383604051610c579291906145a5565b60405180910390a150505050565b610c6d612633565b610c7760006126b1565b565b806000600582604051610c8c919061400e565b908152602001604051809103902054905060008103610d5c5781604051602001610cb6919061400e565b6040516020818303038152906040528051906020012060068281548110610ce057610cdf614025565b5b9060005260206000209060070201600001604051602001610d0191906140e8565b6040516020818303038152906040528051906020012014610d57576040517f08c379a0000000000000000000000000000000000000000000000000000000008152600401610d4e9061414b565b60405180910390fd5b610da4565b6006805490508110610da3576040517f08c379a0000000000000000000000000000000000000000000000000000000008152600401610d9a9061414b565b60405180910390fd5b5b6000600584604051610db6919061400e565b90815260200160405180910390205490506000151560068281548110610ddf57610dde614025565b5b906000526020600020906007020160060186604051610dfe919061400e565b908152602001604051809103902060003373ffffffffffffffffffffffffffffffffffffffff1673ffffffffffffffffffffffffffffffffffffffff16815260200190815260200160002060009054906101000a900460ff16151514610e99576040517f08c379a0000000000000000000000000000000000000000000000000000000008152600401610e9090614634565b60405180910390fd5b6000610ea533836104ef565b905060008111610eea576040517f08c379a0000000000000000000000000000000000000000000000000000000008152600401610ee1906146a0565b60405180910390fd5b60068281548110610efe57610efd614025565b5b906000526020600020906007020160010173__ChangesLibrary________________________637dba11cb909188846040518463ffffffff1660e01b8152600401610f4b939291906146cf565b60006040518083038186803b158015610f6357600080fd5b505af4158015610f77573d6000803e3d6000fd5b50505050600160068381548110610f9157610f90614025565b5b906000526020600020906007020160060187604051610fb0919061400e565b908152602001604051809103902060003373ffffffffffffffffffffffffffffffffffffffff1673ffffffffffffffffffffffffffffffffffffffff16815260200190815260200160002060006101000a81548160ff0219169083151502179055507f0defd832aa647eb845ac2ed5e414ba9da1d13d7c3b2028fea20853913891174d8587336006868154811061104a57611049614025565b5b906000526020600020906007020160010173__ChangesLibrary________________________63ca5451d290918c6040518363ffffffff1660e01b8152600401611095929190614529565b602060405180830381865af41580156110b2573d6000803e3d6000fd5b505050506040513d601f19601f820116820180604052508101906110d69190614722565b6040516110e6949392919061479b565b60405180910390a1505050505050565b7f000000000000000000000000000000000000000000000000000000000000000081565b600082600060058260405161112f919061400e565b9081526020016040518091039020549050600081036111ff5781604051602001611159919061400e565b604051602081830303815290604052805190602001206006828154811061118357611182614025565b5b90600052602060002090600702016000016040516020016111a491906140e8565b60405160208183030381529060405280519060200120146111fa576040517f08c379a00000000000000000000000000000000000000000000000000000000081526004016111f19061414b565b60405180910390fd5b611247565b6006805490508110611246576040517f08c379a000000000000000000000000000000000000000000000000000000000815260040161123d9061414b565b60405180910390fd5b5b61126f8460058760405161125b919061400e565b9081526020016040518091039020546104ef565b9250505092915050565b80600060058260405161128c919061400e565b90815260200160405180910390205490506000810361135c57816040516020016112b6919061400e565b60405160208183030381529060405280519060200120600682815481106112e0576112df614025565b5b906000526020600020906007020160000160405160200161130191906140e8565b6040516020818303038152906040528051906020012014611357576040517f08c379a000000000000000000000000000000000000000000000000000000000815260040161134e9061414b565b60405180910390fd5b6113a4565b60068054905081106113a3576040517f08c379a000000000000000000000000000000000000000000000000000000000815260040161139a9061414b565b60405180910390fd5b5b60006005846040516113b6919061400e565b9081526020016040518091039020549050600681815481106113db576113da614025565b5b906000526020600020906007020160010173__ChangesLibrary________________________636de060a89091876114313360058a60405161141d919061400e565b9081526020016040518091039020546104ef565b6040518463ffffffff1660e01b815260040161144f939291906146cf565b60006040518083038186803b15801561146757600080fd5b505af415801561147b573d6000803e3d6000fd5b5050505060016006828154811061149557611494614025565b5b9060005260206000209060070201600601866040516114b4919061400e565b908152602001604051809103902060003373ffffffffffffffffffffffffffffffffffffffff1673ffffffffffffffffffffffffffffffffffffffff16815260200190815260200160002060006101000a81548160ff0219169083151502179055507f7b7acf540aac5e16ce3dfbd4d106c203a301da603c18502d179f60282962e5c484868360405161154993929190614899565b60405180910390a15050505050565b6000600360009054906101000a900473ffffffffffffffffffffffffffffffffffffffff16905090565b61159461158d61215a565b8383612777565b5050565b60606000600680549050905060006006805490509050600a8211156115bc57600a91505b60008267ffffffffffffffff8111156115d8576115d7613521565b5b60405190808252806020026020018201604052801561160b57816020015b60608152602001906001900390816115f65790505b5090506000600680549050111561172d576000838361162a91906148f1565b90505b8281101561172b576006818154811061164957611648614025565b5b9060005260206000209060070201600001805461166590613fa1565b80601f016020809104026020016040519081016040528092919081815260200182805461169190613fa1565b80156116de5780601f106116b3576101008083540402835291602001916116de565b820191906000526020600020905b8154815290600101906020018083116116c157829003601f168201915b505050505082826001866116f291906148f1565b6116fc91906148f1565b8151811061170d5761170c614025565b5b6020026020010181905250808061172390614497565b91505061162d565b505b80935050505090565b6000600582604051611748919061400e565b90815260200160405180910390205490506006818154811061176d5761176c614025565b5b906000526020600020906007020160040160405180606001604052808581526020013373ffffffffffffffffffffffffffffffffffffffff1681526020016117d3336005876040516117bf919061400e565b9081526020016040518091039020546104ef565b8152509080600181540180825580915050600190039060005260206000209060030201600090919091909150600082015181600001908051906020019061181b9291906131bf565b5060208201518160010160006101000a81548173ffffffffffffffffffffffffffffffffffffffff021916908373ffffffffffffffffffffffffffffffffffffffff160217905550604082015181600201555050505050565b600060046000838152602001908152602001600020549050919050565b8160006005826040516118a4919061400e565b90815260200160405180910390205490506000810361197457816040516020016118ce919061400e565b60405160208183030381529060405280519060200120600682815481106118f8576118f7614025565b5b906000526020600020906007020160000160405160200161191991906140e8565b604051602081830303815290604052805190602001201461196f576040517f08c379a00000000000000000000000000000000000000000000000000000000081526004016119669061414b565b60405180910390fd5b6119bc565b60068054905081106119bb576040517f08c379a00000000000000000000000000000000000000000000000000000000081526004016119b29061414b565b60405180910390fd5b5b60006005856040516119ce919061400e565b9081526020016040518091039020549050600681815481106119f3576119f2614025565b5b906000526020600020906007020160010173__ChangesLibrary________________________637cbb44f99091866040518363ffffffff1660e01b8152600401611a3e929190614529565b60006040518083038186803b158015611a5657600080fd5b505af4158015611a6a573d6000803e3d6000fd5b505050507f718a982b61bc723a0c68281b0eb10e1cff37bd89888841ae545c98cd5493a0568486604051611a9f929190614971565b60405180910390a15050505050565b6000600160008473ffffffffffffffffffffffffffffffffffffffff1673ffffffffffffffffffffffffffffffffffffffff16815260200190815260200160002060008373ffffffffffffffffffffffffffffffffffffffff1673ffffffffffffffffffffffffffffffffffffffff16815260200190815260200160002060009054906101000a900460ff16905092915050565b806000600582604051611b55919061400e565b908152602001604051809103902054905060008103611c255781604051602001611b7f919061400e565b6040516020818303038152906040528051906020012060068281548110611ba957611ba8614025565b5b9060005260206000209060070201600001604051602001611bca91906140e8565b6040516020818303038152906040528051906020012014611c20576040517f08c379a0000000000000000000000000000000000000000000000000000000008152600401611c179061414b565b60405180910390fd5b611c6d565b6006805490508110611c6c576040517f08c379a0000000000000000000000000000000000000000000000000000000008152600401611c639061414b565b60405180910390fd5b5b6000600584604051611c7f919061400e565b908152602001604051809103902054905060068181548110611ca457611ca3614025565b5b906000526020600020906007020160010173__ChangesLibrary________________________636b6b15cc9091876040518363ffffffff1660e01b8152600401611cef929190614529565b60006040518083038186803b158015611d0757600080fd5b505af4158015611d1b573d6000803e3d6000fd5b505050507fa59a33e81abf86b25a561f609013d867f28b3c0cbc2cdf98e852b0c0c041eb6c8486604051611d50929190614a2d565b60405180910390a15050505050565b806000600582604051611d72919061400e565b908152602001604051809103902054905060008103611e425781604051602001611d9c919061400e565b6040516020818303038152906040528051906020012060068281548110611dc657611dc5614025565b5b9060005260206000209060070201600001604051602001611de791906140e8565b6040516020818303038152906040528051906020012014611e3d576040517f08c379a0000000000000000000000000000000000000000000000000000000008152600401611e349061414b565b60405180910390fd5b611e8a565b6006805490508110611e89576040517f08c379a0000000000000000000000000000000000000000000000000000000008152600401611e809061414b565b60405180910390fd5b5b6000600584604051611e9c919061400e565b90815260200160405180910390205490507f000000000000000000000000000000000000000000000000000000000000000060068281548110611ee257611ee1614025565b5b906000526020600020906007020160050154611efe9190614a77565b421015611f40576040517f08c379a0000000000000000000000000000000000000000000000000000000008152600401611f3790614b3f565b60405180910390fd5b4260068281548110611f5557611f54614025565b5b9060005260206000209060070201600501819055507f7288f707ccc9ad8e6342e2220545e85e8971083cf158175f547d9567688b65ff60068281548110611f9f57611f9e614025565b5b906000526020600020906007020160050154604051611fbe9190614bab565b60405180910390a150505050565b611fd461215a565b73ffffffffffffffffffffffffffffffffffffffff168573ffffffffffffffffffffffffffffffffffffffff16148061201a57506120198561201461215a565b611aae565b5b612059576040517f08c379a0000000000000000000000000000000000000000000000000000000008152600401612050906143b6565b60405180910390fd5b61206685858585856128e3565b5050505050565b612075612633565b600073ffffffffffffffffffffffffffffffffffffffff168173ffffffffffffffffffffffffffffffffffffffff16036120e4576040517f08c379a00000000000000000000000000000000000000000000000000000000081526004016120db90614c4b565b60405180910390fd5b6120ed816126b1565b50565b60007f01ffc9a7000000000000000000000000000000000000000000000000000000007bffffffffffffffffffffffffffffffffffffffffffffffffffffffff1916827bffffffffffffffffffffffffffffffffffffffffffffffffffffffff1916149050919050565b600033905090565b81518351146121a6576040517f08c379a000000000000000000000000000000000000000000000000000000000815260040161219d90614cdd565b60405180910390fd5b600073ffffffffffffffffffffffffffffffffffffffff168473ffffffffffffffffffffffffffffffffffffffff1603612215576040517f08c379a000000000000000000000000000000000000000000000000000000000815260040161220c90614d6f565b60405180910390fd5b600061221f61215a565b905061222f818787878787612b7e565b60005b84518110156123e05760008582815181106122505761224f614025565b5b60200260200101519050600085838151811061226f5761226e614025565b5b60200260200101519050600080600084815260200190815260200160002060008b73ffffffffffffffffffffffffffffffffffffffff1673ffffffffffffffffffffffffffffffffffffffff16815260200190815260200160002054905081811015612310576040517f08c379a000000000000000000000000000000000000000000000000000000000815260040161230790614e01565b60405180910390fd5b81810360008085815260200190815260200160002060008c73ffffffffffffffffffffffffffffffffffffffff1673ffffffffffffffffffffffffffffffffffffffff168152602001908152602001600020819055508160008085815260200190815260200160002060008b73ffffffffffffffffffffffffffffffffffffffff1673ffffffffffffffffffffffffffffffffffffffff16815260200190815260200160002060008282546123c59190614a77565b92505081905550505050806123d990614497565b9050612232565b508473ffffffffffffffffffffffffffffffffffffffff168673ffffffffffffffffffffffffffffffffffffffff168273ffffffffffffffffffffffffffffffffffffffff167f4a39dc06d4c0dbc64b70af90fd698a233a518aa5d07e595d983b8c0526c8f7fb8787604051612457929190614e21565b60405180910390a461246d818787878787612b94565b61247b818787878787612b9c565b505050505050565b600073ffffffffffffffffffffffffffffffffffffffff168473ffffffffffffffffffffffffffffffffffffffff16036124f2576040517f08c379a00000000000000000000000000000000000000000000000000000000081526004016124e990614eca565b60405180910390fd5b60006124fc61215a565b9050600061250985612d73565b9050600061251685612d73565b905061252783600089858589612b7e565b8460008088815260200190815260200160002060008973ffffffffffffffffffffffffffffffffffffffff1673ffffffffffffffffffffffffffffffffffffffff16815260200190815260200160002060008282546125869190614a77565b925050819055508673ffffffffffffffffffffffffffffffffffffffff16600073ffffffffffffffffffffffffffffffffffffffff168473ffffffffffffffffffffffffffffffffffffffff167fc3d58168c5ae7397731d063d5bbf3d657854427343f4c083240f7aacaa2d0f628989604051612604929190614eea565b60405180910390a461261b83600089858589612b94565b61262a83600089898989612ded565b50505050505050565b61263b61215a565b73ffffffffffffffffffffffffffffffffffffffff16612659611558565b73ffffffffffffffffffffffffffffffffffffffff16146126af576040517f08c379a00000000000000000000000000000000000000000000000000000000081526004016126a690614f5f565b60405180910390fd5b565b6000600360009054906101000a900473ffffffffffffffffffffffffffffffffffffffff16905081600360006101000a81548173ffffffffffffffffffffffffffffffffffffffff021916908373ffffffffffffffffffffffffffffffffffffffff1602179055508173ffffffffffffffffffffffffffffffffffffffff168173ffffffffffffffffffffffffffffffffffffffff167f8be0079c531659141344cd1fd0a4f28419497f9722a3daafe3b4186f6b6457e060405160405180910390a35050565b8173ffffffffffffffffffffffffffffffffffffffff168373ffffffffffffffffffffffffffffffffffffffff16036127e5576040517f08c379a00000000000000000000000000000000000000000000000000000000081526004016127dc90614ff1565b60405180910390fd5b80600160008573ffffffffffffffffffffffffffffffffffffffff1673ffffffffffffffffffffffffffffffffffffffff16815260200190815260200160002060008473ffffffffffffffffffffffffffffffffffffffff1673ffffffffffffffffffffffffffffffffffffffff16815260200190815260200160002060006101000a81548160ff0219169083151502179055508173ffffffffffffffffffffffffffffffffffffffff168373ffffffffffffffffffffffffffffffffffffffff167f17307eab39ab6107e8899845ad3d59bd9653f200f220920489ca2b5937696c31836040516128d69190613414565b60405180910390a3505050565b600073ffffffffffffffffffffffffffffffffffffffff168473ffffffffffffffffffffffffffffffffffffffff1603612952576040517f08c379a000000000000000000000000000000000000000000000000000000000815260040161294990614d6f565b60405180910390fd5b600061295c61215a565b9050600061296985612d73565b9050600061297685612d73565b9050612986838989858589612b7e565b600080600088815260200190815260200160002060008a73ffffffffffffffffffffffffffffffffffffffff1673ffffffffffffffffffffffffffffffffffffffff16815260200190815260200160002054905085811015612a1d576040517f08c379a0000000000000000000000000000000000000000000000000000000008152600401612a1490614e01565b60405180910390fd5b85810360008089815260200190815260200160002060008b73ffffffffffffffffffffffffffffffffffffffff1673ffffffffffffffffffffffffffffffffffffffff168152602001908152602001600020819055508560008089815260200190815260200160002060008a73ffffffffffffffffffffffffffffffffffffffff1673ffffffffffffffffffffffffffffffffffffffff1681526020019081526020016000206000828254612ad29190614a77565b925050819055508773ffffffffffffffffffffffffffffffffffffffff168973ffffffffffffffffffffffffffffffffffffffff168573ffffffffffffffffffffffffffffffffffffffff167fc3d58168c5ae7397731d063d5bbf3d657854427343f4c083240f7aacaa2d0f628a8a604051612b4f929190614eea565b60405180910390a4612b65848a8a86868a612b94565b612b73848a8a8a8a8a612ded565b505050505050505050565b612b8c868686868686612fc4565b505050505050565b505050505050565b612bbb8473ffffffffffffffffffffffffffffffffffffffff16613194565b15612d6b578373ffffffffffffffffffffffffffffffffffffffff1663bc197c8187878686866040518663ffffffff1660e01b8152600401612c01959493929190615066565b6020604051808303816000875af1925050508015612c3d57506040513d601f19601f82011682018060405250810190612c3a91906150e3565b60015b612ce257612c4961511d565b806308c379a003612ca55750612c5d61513f565b80612c685750612ca7565b806040517f08c379a0000000000000000000000000000000000000000000000000000000008152600401612c9c91906134f5565b60405180910390fd5b505b6040517f08c379a0000000000000000000000000000000000000000000000000000000008152600401612cd990615241565b60405180910390fd5b63bc197c8160e01b7bffffffffffffffffffffffffffffffffffffffffffffffffffffffff1916817bffffffffffffffffffffffffffffffffffffffffffffffffffffffff191614612d69576040517f08c379a0000000000000000000000000000000000000000000000000000000008152600401612d60906152d3565b60405180910390fd5b505b505050505050565b60606000600167ffffffffffffffff811115612d9257612d91613521565b5b604051908082528060200260200182016040528015612dc05781602001602082028036833780820191505090505b5090508281600081518110612dd857612dd7614025565b5b60200260200101818152505080915050919050565b612e0c8473ffffffffffffffffffffffffffffffffffffffff16613194565b15612fbc578373ffffffffffffffffffffffffffffffffffffffff1663f23a6e6187878686866040518663ffffffff1660e01b8152600401612e529594939291906152f3565b6020604051808303816000875af1925050508015612e8e57506040513d601f19601f82011682018060405250810190612e8b91906150e3565b60015b612f3357612e9a61511d565b806308c379a003612ef65750612eae61513f565b80612eb95750612ef8565b806040517f08c379a0000000000000000000000000000000000000000000000000000000008152600401612eed91906134f5565b60405180910390fd5b505b6040517f08c379a0000000000000000000000000000000000000000000000000000000008152600401612f2a90615241565b60405180910390fd5b63f23a6e6160e01b7bffffffffffffffffffffffffffffffffffffffffffffffffffffffff1916817bffffffffffffffffffffffffffffffffffffffffffffffffffffffff191614612fba576040517f08c379a0000000000000000000000000000000000000000000000000000000008152600401612fb1906152d3565b60405180910390fd5b505b505050505050565b612fd28686868686866131b7565b600073ffffffffffffffffffffffffffffffffffffffff168573ffffffffffffffffffffffffffffffffffffffff16036130835760005b83518110156130815782818151811061302557613024614025565b5b60200260200101516004600086848151811061304457613043614025565b5b6020026020010151815260200190815260200160002060008282546130699190614a77565b925050819055508061307a90614497565b9050613009565b505b600073ffffffffffffffffffffffffffffffffffffffff168473ffffffffffffffffffffffffffffffffffffffff160361318c5760005b835181101561318a5760008482815181106130d8576130d7614025565b5b6020026020010151905060008483815181106130f7576130f6614025565b5b602002602001015190506000600460008481526020019081526020016000205490508181101561315c576040517f08c379a0000000000000000000000000000000000000000000000000000000008152600401613153906153bf565b60405180910390fd5b81810360046000858152602001908152602001600020819055505050508061318390614497565b90506130ba565b505b505050505050565b6000808273ffffffffffffffffffffffffffffffffffffffff163b119050919050565b505050505050565b8280546131cb90613fa1565b90600052602060002090601f0160209004810192826131ed5760008555613234565b82601f1061320657805160ff1916838001178555613234565b82800160010185558215613234579182015b82811115613233578251825591602001919060010190613218565b5b5090506132419190613245565b5090565b5b8082111561325e576000816000905550600101613246565b5090565b6000604051905090565b600080fd5b600080fd5b600073ffffffffffffffffffffffffffffffffffffffff82169050919050565b60006132a182613276565b9050919050565b6132b181613296565b81146132bc57600080fd5b50565b6000813590506132ce816132a8565b92915050565b6000819050919050565b6132e7816132d4565b81146132f257600080fd5b50565b600081359050613304816132de565b92915050565b600080604083850312156133215761332061326c565b5b600061332f858286016132bf565b9250506020613340858286016132f5565b9150509250929050565b613353816132d4565b82525050565b600060208201905061336e600083018461334a565b92915050565b60007fffffffff0000000000000000000000000000000000000000000000000000000082169050919050565b6133a981613374565b81146133b457600080fd5b50565b6000813590506133c6816133a0565b92915050565b6000602082840312156133e2576133e161326c565b5b60006133f0848285016133b7565b91505092915050565b60008115159050919050565b61340e816133f9565b82525050565b60006020820190506134296000830184613405565b92915050565b6000602082840312156134455761344461326c565b5b6000613453848285016132f5565b91505092915050565b600081519050919050565b600082825260208201905092915050565b60005b8381101561349657808201518184015260208101905061347b565b838111156134a5576000848401525b50505050565b6000601f19601f8301169050919050565b60006134c78261345c565b6134d18185613467565b93506134e1818560208601613478565b6134ea816134ab565b840191505092915050565b6000602082019050818103600083015261350f81846134bc565b905092915050565b600080fd5b600080fd5b7f4e487b7100000000000000000000000000000000000000000000000000000000600052604160045260246000fd5b613559826134ab565b810181811067ffffffffffffffff8211171561357857613577613521565b5b80604052505050565b600061358b613262565b90506135978282613550565b919050565b600067ffffffffffffffff8211156135b7576135b6613521565b5b6135c0826134ab565b9050602081019050919050565b82818337600083830152505050565b60006135ef6135ea8461359c565b613581565b90508281526020810184848401111561360b5761360a61351c565b5b6136168482856135cd565b509392505050565b600082601f83011261363357613632613517565b5b81356136438482602086016135dc565b91505092915050565b613655816133f9565b811461366057600080fd5b50565b6000813590506136728161364c565b92915050565b6000806040838503121561368f5761368e61326c565b5b600083013567ffffffffffffffff8111156136ad576136ac613271565b5b6136b98582860161361e565b92505060206136ca85828601613663565b9150509250929050565b600081519050919050565b600082825260208201905092915050565b6000819050602082019050919050565b600082825260208201905092915050565b600061371c8261345c565b6137268185613700565b9350613736818560208601613478565b61373f816134ab565b840191505092915050565b60006137568383613711565b905092915050565b6000602082019050919050565b6000613776826136d4565b61378081856136df565b935083602082028501613792856136f0565b8060005b858110156137ce57848403895281516137af858261374a565b94506137ba8361375e565b925060208a01995050600181019050613796565b50829750879550505050505092915050565b600060208201905081810360008301526137fa818461376b565b905092915050565b600067ffffffffffffffff82111561381d5761381c613521565b5b602082029050602081019050919050565b600080fd5b600061384661384184613802565b613581565b905080838252602082019050602084028301858111156138695761386861382e565b5b835b81811015613892578061387e88826132f5565b84526020840193505060208101905061386b565b5050509392505050565b600082601f8301126138b1576138b0613517565b5b81356138c1848260208601613833565b91505092915050565b600067ffffffffffffffff8211156138e5576138e4613521565b5b6138ee826134ab565b9050602081019050919050565b600061390e613909846138ca565b613581565b90508281526020810184848401111561392a5761392961351c565b5b6139358482856135cd565b509392505050565b600082601f83011261395257613951613517565b5b81356139628482602086016138fb565b91505092915050565b600080600080600060a086880312156139875761398661326c565b5b6000613995888289016132bf565b95505060206139a6888289016132bf565b945050604086013567ffffffffffffffff8111156139c7576139c6613271565b5b6139d38882890161389c565b935050606086013567ffffffffffffffff8111156139f4576139f3613271565b5b613a008882890161389c565b925050608086013567ffffffffffffffff811115613a2157613a20613271565b5b613a2d8882890161393d565b9150509295509295909350565b600060208284031215613a5057613a4f61326c565b5b600082013567ffffffffffffffff811115613a6e57613a6d613271565b5b613a7a8482850161361e565b91505092915050565b600067ffffffffffffffff821115613a9e57613a9d613521565b5b602082029050602081019050919050565b6000613ac2613abd84613a83565b613581565b90508083825260208201905060208402830185811115613ae557613ae461382e565b5b835b81811015613b0e5780613afa88826132bf565b845260208401935050602081019050613ae7565b5050509392505050565b600082601f830112613b2d57613b2c613517565b5b8135613b3d848260208601613aaf565b91505092915050565b60008060408385031215613b5d57613b5c61326c565b5b600083013567ffffffffffffffff811115613b7b57613b7a613271565b5b613b8785828601613b18565b925050602083013567ffffffffffffffff811115613ba857613ba7613271565b5b613bb48582860161389c565b9150509250929050565b600081519050919050565b600082825260208201905092915050565b6000819050602082019050919050565b613bf3816132d4565b82525050565b6000613c058383613bea565b60208301905092915050565b6000602082019050919050565b6000613c2982613bbe565b613c338185613bc9565b9350613c3e83613bda565b8060005b83811015613c6f578151613c568882613bf9565b9750613c6183613c11565b925050600181019050613c42565b5085935050505092915050565b60006020820190508181036000830152613c968184613c1e565b905092915050565b60008060408385031215613cb557613cb461326c565b5b600083013567ffffffffffffffff811115613cd357613cd2613271565b5b613cdf8582860161361e565b925050602083013567ffffffffffffffff811115613d0057613cff613271565b5b613d0c8582860161361e565b9150509250929050565b60008060408385031215613d2d57613d2c61326c565b5b600083013567ffffffffffffffff811115613d4b57613d4a613271565b5b613d578582860161361e565b9250506020613d68858286016132bf565b9150509250929050565b613d7b81613296565b82525050565b6000602082019050613d966000830184613d72565b92915050565b60008060408385031215613db357613db261326c565b5b6000613dc1858286016132bf565b9250506020613dd285828601613663565b9150509250929050565b60008060408385031215613df357613df261326c565b5b6000613e01858286016132bf565b9250506020613e12858286016132bf565b9150509250929050565b600080600080600060a08688031215613e3857613e3761326c565b5b6000613e46888289016132bf565b9550506020613e57888289016132bf565b9450506040613e68888289016132f5565b9350506060613e79888289016132f5565b925050608086013567ffffffffffffffff811115613e9a57613e99613271565b5b613ea68882890161393d565b9150509295509295909350565b600060208284031215613ec957613ec861326c565b5b6000613ed7848285016132bf565b91505092915050565b7f455243313135353a2061646472657373207a65726f206973206e6f742061207660008201527f616c6964206f776e657200000000000000000000000000000000000000000000602082015250565b6000613f3c602a83613467565b9150613f4782613ee0565b604082019050919050565b60006020820190508181036000830152613f6b81613f2f565b9050919050565b7f4e487b7100000000000000000000000000000000000000000000000000000000600052602260045260246000fd5b60006002820490506001821680613fb957607f821691505b602082108103613fcc57613fcb613f72565b5b50919050565b600081905092915050565b6000613fe88261345c565b613ff28185613fd2565b9350614002818560208601613478565b80840191505092915050565b600061401a8284613fdd565b915081905092915050565b7f4e487b7100000000000000000000000000000000000000000000000000000000600052603260045260246000fd5b60008190508160005260206000209050919050565b6000815461407681613fa1565b6140808186613fd2565b9450600182166000811461409b57600181146140ac576140df565b60ff198316865281860193506140df565b6140b585614054565b60005b838110156140d7578154818901526001820191506020810190506140b8565b838801955050505b50505092915050565b60006140f48284614069565b915081905092915050565b7f50726f6a65637420646f206e6f74206578697374000000000000000000000000600082015250565b6000614135601483613467565b9150614140826140ff565b602082019050919050565b6000602082019050818103600083015261416481614128565b9050919050565b8082525050565b61417b816133f9565b82525050565b6000604082019050614196600083018561416b565b6141a36020830184614172565b9392505050565b600067ffffffffffffffff8211156141c5576141c4613521565b5b602082029050602081019050919050565b60006141e96141e48461359c565b613581565b9050828152602081018484840111156142055761420461351c565b5b614210848285613478565b509392505050565b600082601f83011261422d5761422c613517565b5b815161423d8482602086016141d6565b91505092915050565b6000614259614254846141aa565b613581565b9050808382526020820190506020840283018581111561427c5761427b61382e565b5b835b818110156142c357805167ffffffffffffffff8111156142a1576142a0613517565b5b8086016142ae8982614218565b8552602085019450505060208101905061427e565b5050509392505050565b600082601f8301126142e2576142e1613517565b5b81516142f2848260208601614246565b91505092915050565b6000602082840312156143115761431061326c565b5b600082015167ffffffffffffffff81111561432f5761432e613271565b5b61433b848285016142cd565b91505092915050565b7f455243313135353a2063616c6c6572206973206e6f7420746f6b656e206f776e60008201527f6572206f7220617070726f766564000000000000000000000000000000000000602082015250565b60006143a0602e83613467565b91506143ab82614344565b604082019050919050565b600060208201905081810360008301526143cf81614393565b9050919050565b7f455243313135353a206163636f756e747320616e6420696473206c656e67746860008201527f206d69736d617463680000000000000000000000000000000000000000000000602082015250565b6000614432602983613467565b915061443d826143d6565b604082019050919050565b6000602082019050818103600083015261446181614425565b9050919050565b7f4e487b7100000000000000000000000000000000000000000000000000000000600052601160045260246000fd5b60006144a2826132d4565b91507fffffffffffffffffffffffffffffffffffffffffffffffffffffffffffffffff82036144d4576144d3614468565b5b600182019050919050565b600082825260208201905092915050565b60006144fb8261345c565b61450581856144df565b9350614515818560208601613478565b61451e816134ab565b840191505092915050565b600060408201905061453e600083018561416b565b818103602083015261455081846144f0565b90509392505050565b7f4e65772070726f6a656374206372656174656420776974682049443a00000000600082015250565b600061458f601c83613467565b915061459a82614559565b602082019050919050565b600060608201905081810360008301526145be81614582565b905081810360208301526145d281856134bc565b90506145e1604083018461334a565b9392505050565b7f416c726561647920766f74656400000000000000000000000000000000000000600082015250565b600061461e600d83613467565b9150614629826145e8565b602082019050919050565b6000602082019050818103600083015261464d81614611565b9050919050565b7f566f74696e6720706f77657220697320696e73756666696369656e7400000000600082015250565b600061468a601c83613467565b915061469582614654565b602082019050919050565b600060208201905081810360008301526146b98161467d565b9050919050565b6146c9816132d4565b82525050565b60006060820190506146e4600083018661416b565b81810360208301526146f681856144f0565b905061470560408301846146c0565b949350505050565b60008151905061471c816132de565b92915050565b6000602082840312156147385761473761326c565b5b60006147468482850161470d565b91505092915050565b7f4e657720766f746520666f72206368616e67652070726f706f73616c3a000000600082015250565b6000614785601d83613467565b91506147908261474f565b602082019050919050565b600060a08201905081810360008301526147b481614778565b905081810360208301526147c881876134bc565b905081810360408301526147dc81866134bc565b90506147eb6060830185613d72565b6147f8608083018461334a565b95945050505050565b7f4e6577206368616e67652070726f706f73616c20746f207468652050726f6a6560008201527f6374207769746820746865206e616d6520616e6420666f6c6c6f77696e67204960208201527f4420616e64204349443a00000000000000000000000000000000000000000000604082015250565b6000614883604a83613467565b915061488e82614801565b606082019050919050565b600060808201905081810360008301526148b281614876565b905081810360208301526148c681866134bc565b905081810360408301526148da81856134bc565b90506148e9606083018461334a565b949350505050565b60006148fc826132d4565b9150614907836132d4565b92508282101561491a57614919614468565b5b828203905092915050565b7f50726f6a656374206368616e67656420746f206368616e67653a200000000000600082015250565b600061495b601b83613467565b915061496682614925565b602082019050919050565b6000606082019050818103600083015261498a8161494e565b9050818103602083015261499e81856134bc565b905081810360408301526149b281846134bc565b90509392505050565b7f41206e6577206368616e676520686173206265656e206d61646520746f20746860008201527f652070726f6a6563743a20000000000000000000000000000000000000000000602082015250565b6000614a17602b83613467565b9150614a22826149bb565b604082019050919050565b60006060820190508181036000830152614a4681614a0a565b90508181036020830152614a5a81856134bc565b90508181036040830152614a6e81846134bc565b90509392505050565b6000614a82826132d4565b9150614a8d836132d4565b9250827fffffffffffffffffffffffffffffffffffffffffffffffffffffffffffffffff03821115614ac257614ac1614468565b5b828201905092915050565b7f5468657265206973207374696c6c2074696d6520756e74696c20746865206e6560008201527f787420646973747269627574696f6e0000000000000000000000000000000000602082015250565b6000614b29602f83613467565b9150614b3482614acd565b604082019050919050565b60006020820190508181036000830152614b5881614b1c565b9050919050565b7f546f6b656e732064697374726962757465640000000000000000000000000000600082015250565b6000614b95601283613467565b9150614ba082614b5f565b602082019050919050565b60006040820190508181036000830152614bc481614b88565b9050614bd3602083018461334a565b92915050565b7f4f776e61626c653a206e6577206f776e657220697320746865207a65726f206160008201527f6464726573730000000000000000000000000000000000000000000000000000602082015250565b6000614c35602683613467565b9150614c4082614bd9565b604082019050919050565b60006020820190508181036000830152614c6481614c28565b9050919050565b7f455243313135353a2069647320616e6420616d6f756e7473206c656e6774682060008201527f6d69736d61746368000000000000000000000000000000000000000000000000602082015250565b6000614cc7602883613467565b9150614cd282614c6b565b604082019050919050565b60006020820190508181036000830152614cf681614cba565b9050919050565b7f455243313135353a207472616e7366657220746f20746865207a65726f20616460008201527f6472657373000000000000000000000000000000000000000000000000000000602082015250565b6000614d59602583613467565b9150614d6482614cfd565b604082019050919050565b60006020820190508181036000830152614d8881614d4c565b9050919050565b7f455243313135353a20696e73756666696369656e742062616c616e636520666f60008201527f72207472616e7366657200000000000000000000000000000000000000000000602082015250565b6000614deb602a83613467565b9150614df682614d8f565b604082019050919050565b60006020820190508181036000830152614e1a81614dde565b9050919050565b60006040820190508181036000830152614e3b8185613c1e565b90508181036020830152614e4f8184613c1e565b90509392505050565b7f455243313135353a206d696e7420746f20746865207a65726f2061646472657360008201527f7300000000000000000000000000000000000000000000000000000000000000602082015250565b6000614eb4602183613467565b9150614ebf82614e58565b604082019050919050565b60006020820190508181036000830152614ee381614ea7565b9050919050565b6000604082019050614eff600083018561334a565b614f0c602083018461334a565b9392505050565b7f4f776e61626c653a2063616c6c6572206973206e6f7420746865206f776e6572600082015250565b6000614f49602083613467565b9150614f5482614f13565b602082019050919050565b60006020820190508181036000830152614f7881614f3c565b9050919050565b7f455243313135353a2073657474696e6720617070726f76616c2073746174757360008201527f20666f722073656c660000000000000000000000000000000000000000000000602082015250565b6000614fdb602983613467565b9150614fe682614f7f565b604082019050919050565b6000602082019050818103600083015261500a81614fce565b9050919050565b600081519050919050565b600082825260208201905092915050565b600061503882615011565b615042818561501c565b9350615052818560208601613478565b61505b816134ab565b840191505092915050565b600060a08201905061507b6000830188613d72565b6150886020830187613d72565b818103604083015261509a8186613c1e565b905081810360608301526150ae8185613c1e565b905081810360808301526150c2818461502d565b90509695505050505050565b6000815190506150dd816133a0565b92915050565b6000602082840312156150f9576150f861326c565b5b6000615107848285016150ce565b91505092915050565b60008160e01c9050919050565b600060033d111561513c5760046000803e615139600051615110565b90505b90565b600060443d106151cc57615151613262565b60043d036004823e80513d602482011167ffffffffffffffff821117156151795750506151cc565b808201805167ffffffffffffffff81111561519757505050506151cc565b80602083010160043d0385018111156151b45750505050506151cc565b6151c382602001850186613550565b82955050505050505b90565b7f455243313135353a207472616e7366657220746f206e6f6e2d4552433131353560008201527f526563656976657220696d706c656d656e746572000000000000000000000000602082015250565b600061522b603483613467565b9150615236826151cf565b604082019050919050565b6000602082019050818103600083015261525a8161521e565b9050919050565b7f455243313135353a204552433131353552656365697665722072656a6563746560008201527f6420746f6b656e73000000000000000000000000000000000000000000000000602082015250565b60006152bd602883613467565b91506152c882615261565b604082019050919050565b600060208201905081810360008301526152ec816152b0565b9050919050565b600060a0820190506153086000830188613d72565b6153156020830187613d72565b615322604083018661334a565b61532f606083018561334a565b8181036080830152615341818461502d565b90509695505050505050565b7f455243313135353a206275726e20616d6f756e74206578636565647320746f7460008201527f616c537570706c79000000000000000000000000000000000000000000000000602082015250565b60006153a9602883613467565b91506153b48261534d565b604082019050919050565b600060208201905081810360008301526153d88161539c565b905091905056fea2646970667358221220865fb714628c2b69de4eda03050762ea57a8dcc605630b4f7a1316d090a4f12664736f6c634300080d0033",
  "immutableReferences": {
    "419": [
      {
        "length": 32,
        "start": 4344
      },
      {
        "length": 32,
        "start": 7855
      }
    ]
  },
  "source": "// SPDX-License-Identifier: MIT\npragma solidity ^0.8.2;\n\nimport \"../node_modules/@openzeppelin/contracts/token/ERC1155/ERC1155.sol\";\nimport \"../node_modules/@openzeppelin/contracts/access/Ownable.sol\";\nimport \"../node_modules/@openzeppelin/contracts/utils/Counters.sol\";\nimport \"../node_modules/@openzeppelin/contracts/token/ERC1155/extensions/ERC1155Supply.sol\";\nimport \"./Changes.sol\";\n\n\n\ncontract Steps is ERC1155, Ownable, ERC1155Supply {\n    // initiate all the data structures and constants saved on the smart contract\n    uint public immutable TimeLockInterval = 60 * 60 * 24 * 30; // One Week\n    using Counters for Counters.Counter;\n    using ChangesLibrary for ChangesLibrary.ChangesStorage;\n\n    \n    // -------------------------------------------------------- Mappings\n    mapping(string => uint) public NameToID;    \n\n    // -------------------------------------------------------- Structs\n\n    struct goBack {\n        string changeCID;\n        address goBackMaker;\n        uint votes;\n    }\n\n    struct Project {\n        string name;\n        ChangesLibrary.ChangesStorage changes;\n        goBack[] goBackProposals;\n\n        // time lock\n        uint lastDistributionTime;\n\n        // - ChangeCID => Voter address => Voted?\n        mapping(string => mapping(address => bool)) Voted;\n\n    }\n\n\n    // -------------------------------------------------------- Lists\n    Project[] publicProjects;\n\n    // -------------------------------------------------------- Events\n    event NewProjectCreated(string message, string name, uint value);\n    event NewChangeProposalCreated(string message, string Name, string CID, uint indexValue);\n    event NewVoteForChangeProposal(string message, string projectName, string changeProposalCID, address voter, uint votes);\n    event NewChangeIsMadeToProject(string message, string projectName, string changeCID); // Message, Project CID, Message, ChangeCID\n    event ProjectWentBack(string message, string changeCID, string ProjectName);\n    event TokensDisributed(string message, uint lastDistributionTime);\n\n    // -------------------------------------------------------- Modifiers\n    modifier ProjectExist(string memory _Name) {\n        uint id = NameToID[_Name];\n        if (id == 0) {\n            require(keccak256(abi.encodePacked(publicProjects[id].name)) == keccak256(abi.encodePacked(_Name)), \"Project do not exist\");\n        } else {\n            require(id < publicProjects.length, \"Project do not exist\");\n        }\n        _;\n    }\n\n\n    // -------------------------------------------------------- Constructor\n    constructor() ERC1155(\"URI\") {\n\n    } // change URI to the website's one\n\n    // -------------------------------------------------------- Functions\n    function _beforeTokenTransfer(address operator, address from, address to, uint256[] memory ids, uint256[] memory amounts, bytes memory data) internal override(ERC1155, ERC1155Supply) {\n        super._beforeTokenTransfer(operator, from, to, ids, amounts, data);\n    }\n\n    // the function create a new project with an inital change\n    function createProject(string memory _CID, string memory projectName) public {\n        uint newProjectID = publicProjects.length;\n        NameToID[projectName] = newProjectID;\n        _mint(msg.sender, newProjectID, 10, \"\");\n        \n        Project storage newProject = publicProjects.push();\n        newProject.name = projectName;\n        newProject.changes.initialize(_CID);\n        newProject.lastDistributionTime = block.timestamp;\n\n        emit NewProjectCreated(\"New project created with ID:\", projectName, newProjectID);\n    }\n\n    // the functions create a change proposal\n    function MakeChangeProposal(string memory _changeCID, string memory _projectName) ProjectExist(_projectName) external {\n        uint projectIDX = NameToID[_projectName];\n        publicProjects[projectIDX].changes.createChangeProposal(_changeCID, balanceOf(msg.sender, NameToID[_projectName]));\n        publicProjects[projectIDX].Voted[_changeCID][msg.sender] = true;\n        emit NewChangeProposalCreated(\"New change proposal to the Project with the name and following ID and CID:\", _projectName, _changeCID, projectIDX);\n    }\n\n    // the functions make a go back proposal\n    function MakeGoBackProposal(string memory _changeCID, string memory _projectName) external {\n        uint projectID = NameToID[_projectName];\n        publicProjects[projectID].goBackProposals.push(goBack(_changeCID, msg.sender, balanceOf(msg.sender, NameToID[_projectName])));\n    }\n\n    // the function make a go Back \n    function acceptGoBack(string memory _projectName, string memory _changeCID) ProjectExist(_projectName) external {\n        uint projectIDX = NameToID[_projectName];\n        publicProjects[projectIDX].changes.goBack(_changeCID);\n        \n        emit ProjectWentBack(\"Project changed to change: \", _changeCID, _projectName);\n    }\n\n    // the functions accept a change proposal and add it to the list\n    function acceptChangeProposal(string memory _proposedChangeCID, string memory _projectName) ProjectExist(_projectName) external {\n        uint projectID = NameToID[_projectName];\n        publicProjects[projectID].changes.acceptChangeProposal(_proposedChangeCID);\n        emit NewChangeIsMadeToProject(\"A new change has been made to the project: \", _projectName, _proposedChangeCID);\n    }\n\n    // the function returns the voting power of a user in a certain project\n    function getBalance(string memory _projectName, address _UserAddress) ProjectExist(_projectName) external view returns (uint) {\n        return balanceOf(_UserAddress, NameToID[_projectName]);\n    }\n\n    // the function allow user to vote in favor of a change proposal\n    function voteForChangeProposal(string memory _changeProposalCID, string memory _projectName) ProjectExist(_projectName) external {\n        uint projectID = NameToID[_projectName];\n\n        require(publicProjects[projectID].Voted[_changeProposalCID][msg.sender] == false, \"Already voted\");\n\n        uint votingPower = balanceOf(msg.sender, projectID);\n        \n        if (votingPower <= 0) {\n            revert(\"Voting power is insufficient\");\n        }\n\n        publicProjects[projectID].changes.voteForChangeProposal(_changeProposalCID, votingPower);\n        publicProjects[projectID].Voted[_changeProposalCID][msg.sender] = true;\n        \n        emit NewVoteForChangeProposal(\n            \"New vote for change proposal:\",\n            _projectName,\n            _changeProposalCID,\n            msg.sender,\n            publicProjects[projectID].changes.getChangeProposalVotes(_changeProposalCID)\n        );\n    }\n\n    // the functions returns the changes/change proposals\n    function getChangesOrProposals(string memory _projectName, bool changesOrChangeProposals) ProjectExist(_projectName) external view returns (string[] memory) {\n        uint projectID = NameToID[_projectName];\n        return publicProjects[projectID].changes.getChangesOrChangeProposals(changesOrChangeProposals); // true for changes and false for change proposals\n    }\n\n    // TEMP\n    function getLastProjects() external view returns (string[] memory) {\n        uint arr_length = publicProjects.length;\n        uint arr_index = publicProjects.length;\n        if (arr_length > 10) {\n            arr_length = 10;\n        }\n\n        string[] memory lastProjects = new string[](arr_length);\n        if (publicProjects.length > 0) {\n        for (uint256 i = arr_index - arr_length; i < arr_index; i++) {\n            lastProjects[arr_index - 1 - i] = publicProjects[i].name; \n        }}\n        return lastProjects;\n    }\n\n    // the functions allow the token distribution when the timelock ends\n    function distributeTokens(string memory _projectName) ProjectExist(_projectName) external {\n        uint projectID = NameToID[_projectName];\n                \n        require(block.timestamp >= publicProjects[projectID].lastDistributionTime + TimeLockInterval, \"There is still time until the next distribution\");\n\n        // <token distribution>\n        // ...\n        // <token distribution/>\n\n        publicProjects[projectID].lastDistributionTime = block.timestamp;\n\n        emit TokensDisributed(\n            \"Tokens distributed\",\n            publicProjects[projectID].lastDistributionTime\n        );\n    }\n\n}\n",
  "sourcePath": "c:\\Users\\User\\Desktop\\\\davidson\\project\\DavidsonProject\\Smart Contract\\contracts\\Steps.sol",
  "compiler": {
    "name": "solc",
    "version": "0.8.13+commit.abaa5c0e.Emscripten.clang"
  },
  "schemaVersion": "3.4.7",
  "updatedAt": "2024-02-10T20:08:52.474Z",
  "networkType": "ethereum",
  "devdoc": {
    "kind": "dev",
    "methods": {
      "balanceOf(address,uint256)": {
        "details": "See {IERC1155-balanceOf}. Requirements: - `account` cannot be the zero address."
      },
      "balanceOfBatch(address[],uint256[])": {
        "details": "See {IERC1155-balanceOfBatch}. Requirements: - `accounts` and `ids` must have the same length."
      },
      "exists(uint256)": {
        "details": "Indicates whether any token exist with a given id, or not."
      },
      "isApprovedForAll(address,address)": {
        "details": "See {IERC1155-isApprovedForAll}."
      },
      "owner()": {
        "details": "Returns the address of the current owner."
      },
      "renounceOwnership()": {
        "details": "Leaves the contract without owner. It will not be possible to call `onlyOwner` functions. Can only be called by the current owner. NOTE: Renouncing ownership will leave the contract without an owner, thereby disabling any functionality that is only available to the owner."
      },
      "safeBatchTransferFrom(address,address,uint256[],uint256[],bytes)": {
        "details": "See {IERC1155-safeBatchTransferFrom}."
      },
      "safeTransferFrom(address,address,uint256,uint256,bytes)": {
        "details": "See {IERC1155-safeTransferFrom}."
      },
      "setApprovalForAll(address,bool)": {
        "details": "See {IERC1155-setApprovalForAll}."
      },
      "supportsInterface(bytes4)": {
        "details": "See {IERC165-supportsInterface}."
      },
      "totalSupply(uint256)": {
        "details": "Total amount of tokens in with a given id."
      },
      "transferOwnership(address)": {
        "details": "Transfers ownership of the contract to a new account (`newOwner`). Can only be called by the current owner."
      },
      "uri(uint256)": {
        "details": "See {IERC1155MetadataURI-uri}. This implementation returns the same URI for *all* token types. It relies on the token type ID substitution mechanism https://eips.ethereum.org/EIPS/eip-1155#metadata[defined in the EIP]. Clients calling this function must replace the `\\{id\\}` substring with the actual token type ID."
      }
    },
    "version": 1
  },
  "userdoc": {
    "kind": "user",
    "methods": {},
    "version": 1
  }
}