{
  "contractName": "Steps",
  "abi": [
    {
      "inputs": [
        {
          "internalType": "address",
          "name": "tokenAddress",
          "type": "address"
        }
      ],
      "stateMutability": "nonpayable",
      "type": "constructor"
    },
    {
      "anonymous": false,
      "inputs": [
        {
          "indexed": false,
          "internalType": "string",
          "name": "message",
          "type": "string"
        },
        {
          "indexed": false,
          "internalType": "string",
          "name": "projectName",
          "type": "string"
        },
        {
          "indexed": false,
          "internalType": "string",
          "name": "changeCID",
          "type": "string"
        }
      ],
      "name": "NewChangeIsMadeToProject",
      "type": "event"
    },
    {
      "anonymous": false,
      "inputs": [
        {
          "indexed": false,
          "internalType": "string",
          "name": "message",
          "type": "string"
        },
        {
          "indexed": false,
          "internalType": "string",
          "name": "Name",
          "type": "string"
        },
        {
          "indexed": false,
          "internalType": "string",
          "name": "CID",
          "type": "string"
        },
        {
          "indexed": false,
          "internalType": "uint256",
          "name": "indexValue",
          "type": "uint256"
        }
      ],
      "name": "NewChangeProposalCreated",
      "type": "event"
    },
    {
      "anonymous": false,
      "inputs": [
        {
          "indexed": false,
          "internalType": "string",
          "name": "message",
          "type": "string"
        },
        {
          "indexed": false,
          "internalType": "string",
          "name": "name",
          "type": "string"
        },
        {
          "indexed": false,
          "internalType": "uint256",
          "name": "value",
          "type": "uint256"
        }
      ],
      "name": "NewProjectCreated",
      "type": "event"
    },
    {
      "anonymous": false,
      "inputs": [
        {
          "indexed": false,
          "internalType": "string",
          "name": "message",
          "type": "string"
        },
        {
          "indexed": false,
          "internalType": "string",
          "name": "projectName",
          "type": "string"
        },
        {
          "indexed": false,
          "internalType": "string",
          "name": "changeProposalCID",
          "type": "string"
        },
        {
          "indexed": false,
          "internalType": "address",
          "name": "voter",
          "type": "address"
        },
        {
          "indexed": false,
          "internalType": "uint256",
          "name": "votes",
          "type": "uint256"
        }
      ],
      "name": "NewVoteForChangeProposal",
      "type": "event"
    },
    {
      "anonymous": false,
      "inputs": [
        {
          "indexed": false,
          "internalType": "string",
          "name": "message",
          "type": "string"
        },
        {
          "indexed": false,
          "internalType": "string",
          "name": "changeCID",
          "type": "string"
        },
        {
          "indexed": false,
          "internalType": "string",
          "name": "ProjectName",
          "type": "string"
        }
      ],
      "name": "ProjectWentBack",
      "type": "event"
    },
    {
      "anonymous": false,
      "inputs": [
        {
          "indexed": false,
          "internalType": "string",
          "name": "message",
          "type": "string"
        },
        {
          "indexed": false,
          "internalType": "uint256",
          "name": "lastDistributionTime",
          "type": "uint256"
        }
      ],
      "name": "TokensDisributed",
      "type": "event"
    },
    {
      "inputs": [
        {
          "internalType": "string",
          "name": "",
          "type": "string"
        }
      ],
      "name": "NameToID",
      "outputs": [
        {
          "internalType": "uint256",
          "name": "",
          "type": "uint256"
        }
      ],
      "stateMutability": "view",
      "type": "function",
      "constant": true
    },
    {
      "inputs": [],
      "name": "TimeLockInterval",
      "outputs": [
        {
          "internalType": "uint256",
          "name": "",
          "type": "uint256"
        }
      ],
      "stateMutability": "view",
      "type": "function",
      "constant": true
    },
    {
      "inputs": [],
      "name": "token",
      "outputs": [
        {
          "internalType": "contract ProjectsToken",
          "name": "",
          "type": "address"
        }
      ],
      "stateMutability": "view",
      "type": "function",
      "constant": true
    },
    {
      "inputs": [
        {
          "internalType": "string",
          "name": "_CID",
          "type": "string"
        },
        {
          "internalType": "string",
          "name": "projectName",
          "type": "string"
        }
      ],
      "name": "createProject",
      "outputs": [],
      "stateMutability": "nonpayable",
      "type": "function"
    },
    {
      "inputs": [
        {
          "internalType": "string",
          "name": "_changeCID",
          "type": "string"
        },
        {
          "internalType": "string",
          "name": "_projectName",
          "type": "string"
        }
      ],
      "name": "MakeChangeProposal",
      "outputs": [],
      "stateMutability": "nonpayable",
      "type": "function"
    },
    {
      "inputs": [
        {
          "internalType": "string",
          "name": "_changeCID",
          "type": "string"
        },
        {
          "internalType": "string",
          "name": "_projectName",
          "type": "string"
        }
      ],
      "name": "MakeGoBackProposal",
      "outputs": [],
      "stateMutability": "nonpayable",
      "type": "function"
    },
    {
      "inputs": [
        {
          "internalType": "string",
          "name": "_projectName",
          "type": "string"
        },
        {
          "internalType": "string",
          "name": "_changeCID",
          "type": "string"
        }
      ],
      "name": "acceptGoBack",
      "outputs": [],
      "stateMutability": "nonpayable",
      "type": "function"
    },
    {
      "inputs": [
        {
          "internalType": "string",
          "name": "_proposedChangeCID",
          "type": "string"
        },
        {
          "internalType": "string",
          "name": "_projectName",
          "type": "string"
        }
      ],
      "name": "acceptChangeProposal",
      "outputs": [],
      "stateMutability": "nonpayable",
      "type": "function"
    },
    {
      "inputs": [
        {
          "internalType": "string",
          "name": "_projectName",
          "type": "string"
        },
        {
          "internalType": "address",
          "name": "_UserAddress",
          "type": "address"
        }
      ],
      "name": "getBalance",
      "outputs": [
        {
          "internalType": "uint256",
          "name": "",
          "type": "uint256"
        }
      ],
      "stateMutability": "view",
      "type": "function",
      "constant": true
    },
    {
      "inputs": [
        {
          "internalType": "string",
          "name": "_changeProposalCID",
          "type": "string"
        },
        {
          "internalType": "string",
          "name": "_projectName",
          "type": "string"
        }
      ],
      "name": "voteForChangeProposal",
      "outputs": [],
      "stateMutability": "nonpayable",
      "type": "function"
    },
    {
      "inputs": [
        {
          "internalType": "string",
          "name": "_projectName",
          "type": "string"
        },
        {
          "internalType": "bool",
          "name": "changesOrChangeProposals",
          "type": "bool"
        }
      ],
      "name": "getChangesOrProposals",
      "outputs": [
        {
          "internalType": "string[]",
          "name": "",
          "type": "string[]"
        }
      ],
      "stateMutability": "view",
      "type": "function",
      "constant": true
    },
    {
      "inputs": [],
      "name": "getLastProjects",
      "outputs": [
        {
          "internalType": "string[]",
          "name": "",
          "type": "string[]"
        }
      ],
      "stateMutability": "view",
      "type": "function",
      "constant": true
    },
    {
      "inputs": [
        {
          "internalType": "string",
          "name": "_projectName",
          "type": "string"
        }
      ],
      "name": "distributeTokens",
      "outputs": [],
      "stateMutability": "nonpayable",
      "type": "function"
    }
  ],
  "bytecode": "0x60a060405262278d006080908152503480156200001b57600080fd5b5060405162003311380380620033118339818101604052810190620000419190620000f3565b80600260006101000a81548173ffffffffffffffffffffffffffffffffffffffff021916908373ffffffffffffffffffffffffffffffffffffffff1602179055505062000125565b600080fd5b600073ffffffffffffffffffffffffffffffffffffffff82169050919050565b6000620000bb826200008e565b9050919050565b620000cd81620000ae565b8114620000d957600080fd5b50565b600081519050620000ed81620000c2565b92915050565b6000602082840312156200010c576200010b62000089565b5b60006200011c84828501620000dc565b91505092915050565b6080516131c96200014860003960008181610bfe0152611be101526131c96000f3fe608060405234801561001057600080fd5b50600436106100cf5760003560e01c80638d1446fc1161008c578063c4687fb811610066578063c4687fb814610210578063ed0c2d901461022c578063ee9c3aa314610248578063fc0c546a14610264576100cf565b80638d1446fc146101ba578063a54d804d146101d6578063a5635963146101f4576100cf565b80631d7147d8146100d457806333846eba146101045780636bd0620414610134578063750354d2146101505780637a5945da1461016c57806389f4b3171461018a575b600080fd5b6100ee60048036038101906100e99190611e79565b610282565b6040516100fb9190612034565b60405180910390f35b61011e60048036038101906101199190612186565b6104c7565b60405161012b91906121e8565b60405180910390f35b61014e60048036038101906101499190612203565b6104f5565b005b61016a6004803603810190610165919061227b565b6106a6565b005b610174610bfc565b60405161018191906121e8565b60405180910390f35b6101a4600480360381019061019f9190612355565b610c20565b6040516101b191906121e8565b60405180910390f35b6101d460048036038101906101cf919061227b565b610e58565b005b6101de611212565b6040516101eb9190612034565b60405180910390f35b61020e6004803603810190610209919061227b565b6113b0565b005b61022a600480360381019061022591906123b5565b611585565b005b6102466004803603810190610241919061227b565b6117e9565b005b610262600480360381019061025d9190612431565b611a4d565b005b61026c611cff565b60405161027991906124dd565b60405180910390f35b606083838080601f016020809104026020016040519081016040528093929190818152602001838380828437600081840152601f19601f82011690508083019250505050505050600080826040516102da9190612534565b9081526020016040518091039020549050600081036103aa57816040516020016103049190612534565b604051602081830303815290604052805190602001206001828154811061032e5761032d61254b565b5b906000526020600020906008020160000160405160200161034f919061266e565b60405160208183030381529060405280519060200120146103a5576040517f08c379a000000000000000000000000000000000000000000000000000000000815260040161039c906126e2565b60405180910390fd5b6103f2565b60018054905081106103f1576040517f08c379a00000000000000000000000000000000000000000000000000000000081526004016103e8906126e2565b60405180910390fd5b5b6000808787604051610405929190612727565b90815260200160405180910390205490506001818154811061042a5761042961254b565b5b906000526020600020906008020160010173__ChangesLibrary________________________63e3e26be89091876040518363ffffffff1660e01b8152600401610475929190612756565b600060405180830381865af4158015610492573d6000803e3d6000fd5b505050506040513d6000823e3d601f19601f820116820180604052508101906104bb91906128d0565b93505050509392505050565b6000818051602081018201805184825260208301602085012081835280955050505050506000915090505481565b60006001805490509050806000836040516105109190612534565b908152602001604051809103902081905550600260009054906101000a900473ffffffffffffffffffffffffffffffffffffffff1673ffffffffffffffffffffffffffffffffffffffff1663156e29f63383600a6040518463ffffffff1660e01b815260040161058293929190612963565b600060405180830381600087803b15801561059c57600080fd5b505af11580156105b0573d6000803e3d6000fd5b505050506000600180816001815401808255809150500390600052602060002090600802019050828160000190805190602001906105ef929190611d25565b508060010173__ChangesLibrary________________________63aaff905a9091866040518363ffffffff1660e01b815260040161062e9291906129e4565b60006040518083038186803b15801561064657600080fd5b505af415801561065a573d6000803e3d6000fd5b505050504281600501819055507fe224389b386caecb8e3b38edc39361c7227e3ef820a8276bc31ac9cf1ba69fcd8383604051610698929190612a99565b60405180910390a150505050565b81818080601f016020809104026020016040519081016040528093929190818152602001838380828437600081840152601f19601f82011690508083019250505050505050600080826040516106fc9190612534565b9081526020016040518091039020549050600081036107cc57816040516020016107269190612534565b60405160208183030381529060405280519060200120600182815481106107505761074f61254b565b5b9060005260206000209060080201600001604051602001610771919061266e565b60405160208183030381529060405280519060200120146107c7576040517f08c379a00000000000000000000000000000000000000000000000000000000081526004016107be906126e2565b60405180910390fd5b610814565b6001805490508110610813576040517f08c379a000000000000000000000000000000000000000000000000000000000815260040161080a906126e2565b60405180910390fd5b5b6000808585604051610827929190612727565b908152602001604051809103902054905060001515600182815481106108505761084f61254b565b5b90600052602060002090600802016007018760405161086f9190612534565b908152602001604051809103902060003373ffffffffffffffffffffffffffffffffffffffff1673ffffffffffffffffffffffffffffffffffffffff16815260200190815260200160002060009054906101000a900460ff1615151461090a576040517f08c379a000000000000000000000000000000000000000000000000000000000815260040161090190612b28565b60405180910390fd5b6000600260009054906101000a900473ffffffffffffffffffffffffffffffffffffffff1673ffffffffffffffffffffffffffffffffffffffff1662fdd58e33846040518363ffffffff1660e01b8152600401610968929190612b48565b602060405180830381865afa158015610985573d6000803e3d6000fd5b505050506040513d601f19601f820116820180604052508101906109a99190612b9d565b9050600081116109ee576040517f08c379a00000000000000000000000000000000000000000000000000000000081526004016109e590612c16565b60405180910390fd5b60018281548110610a0257610a0161254b565b5b906000526020600020906008020160010173__ChangesLibrary________________________637dba11cb909189846040518463ffffffff1660e01b8152600401610a4f93929190612c45565b60006040518083038186803b158015610a6757600080fd5b505af4158015610a7b573d6000803e3d6000fd5b505050506001808381548110610a9457610a9361254b565b5b906000526020600020906008020160070188604051610ab39190612534565b908152602001604051809103902060003373ffffffffffffffffffffffffffffffffffffffff1673ffffffffffffffffffffffffffffffffffffffff16815260200190815260200160002060006101000a81548160ff0219169083151502179055507f0defd832aa647eb845ac2ed5e414ba9da1d13d7c3b2028fea20853913891174d8686893360018781548110610b4e57610b4d61254b565b5b906000526020600020906008020160010173__ChangesLibrary________________________63ca5451d290918e6040518363ffffffff1660e01b8152600401610b999291906129e4565b602060405180830381865af4158015610bb6573d6000803e3d6000fd5b505050506040513d601f19601f82011682018060405250810190610bda9190612b9d565b604051610beb959493929190612cfc565b60405180910390a150505050505050565b7f000000000000000000000000000000000000000000000000000000000000000081565b600083838080601f016020809104026020016040519081016040528093929190818152602001838380828437600081840152601f19601f8201169050808301925050505050505060008082604051610c789190612534565b908152602001604051809103902054905060008103610d485781604051602001610ca29190612534565b6040516020818303038152906040528051906020012060018281548110610ccc57610ccb61254b565b5b9060005260206000209060080201600001604051602001610ced919061266e565b6040516020818303038152906040528051906020012014610d43576040517f08c379a0000000000000000000000000000000000000000000000000000000008152600401610d3a906126e2565b60405180910390fd5b610d90565b6001805490508110610d8f576040517f08c379a0000000000000000000000000000000000000000000000000000000008152600401610d86906126e2565b60405180910390fd5b5b600260009054906101000a900473ffffffffffffffffffffffffffffffffffffffff1673ffffffffffffffffffffffffffffffffffffffff1662fdd58e8560008989604051610de0929190612727565b9081526020016040518091039020546040518363ffffffff1660e01b8152600401610e0c929190612b48565b602060405180830381865afa158015610e29573d6000803e3d6000fd5b505050506040513d601f19601f82011682018060405250810190610e4d9190612b9d565b925050509392505050565b81818080601f016020809104026020016040519081016040528093929190818152602001838380828437600081840152601f19601f8201169050808301925050505050505060008082604051610eae9190612534565b908152602001604051809103902054905060008103610f7e5781604051602001610ed89190612534565b6040516020818303038152906040528051906020012060018281548110610f0257610f0161254b565b5b9060005260206000209060080201600001604051602001610f23919061266e565b6040516020818303038152906040528051906020012014610f79576040517f08c379a0000000000000000000000000000000000000000000000000000000008152600401610f70906126e2565b60405180910390fd5b610fc6565b6001805490508110610fc5576040517f08c379a0000000000000000000000000000000000000000000000000000000008152600401610fbc906126e2565b60405180910390fd5b5b6000808585604051610fd9929190612727565b908152602001604051809103902054905060018181548110610ffe57610ffd61254b565b5b906000526020600020906008020160010173__ChangesLibrary________________________636de060a8909188600260009054906101000a900473ffffffffffffffffffffffffffffffffffffffff1673ffffffffffffffffffffffffffffffffffffffff1662fdd58e3360008c8c60405161107c929190612727565b9081526020016040518091039020546040518363ffffffff1660e01b81526004016110a8929190612b48565b602060405180830381865afa1580156110c5573d6000803e3d6000fd5b505050506040513d601f19601f820116820180604052508101906110e99190612b9d565b6040518463ffffffff1660e01b815260040161110793929190612c45565b60006040518083038186803b15801561111f57600080fd5b505af4158015611133573d6000803e3d6000fd5b50505050600180828154811061114c5761114b61254b565b5b90600052602060002090600802016007018760405161116b9190612534565b908152602001604051809103902060003373ffffffffffffffffffffffffffffffffffffffff1673ffffffffffffffffffffffffffffffffffffffff16815260200190815260200160002060006101000a81548160ff0219169083151502179055507f7b7acf540aac5e16ce3dfbd4d106c203a301da603c18502d179f60282962e5c4858588846040516112029493929190612dfc565b60405180910390a1505050505050565b60606000600180549050905060006001805490509050600a82111561123657600a91505b60008267ffffffffffffffff8111156112525761125161205b565b5b60405190808252806020026020018201604052801561128557816020015b60608152602001906001900390816112705790505b509050600060018054905011156113a757600083836112a49190612e85565b90505b828110156113a557600181815481106112c3576112c261254b565b5b906000526020600020906008020160000180546112df906125a9565b80601f016020809104026020016040519081016040528092919081815260200182805461130b906125a9565b80156113585780601f1061132d57610100808354040283529160200191611358565b820191906000526020600020905b81548152906001019060200180831161133b57829003601f168201915b5050505050828260018661136c9190612e85565b6113769190612e85565b815181106113875761138661254b565b5b6020026020010181905250808061139d90612eb9565b9150506112a7565b505b80935050505090565b60008083836040516113c3929190612727565b9081526020016040518091039020549050600181815481106113e8576113e761254b565b5b906000526020600020906008020160040160405180606001604052808681526020013373ffffffffffffffffffffffffffffffffffffffff168152602001600260009054906101000a900473ffffffffffffffffffffffffffffffffffffffff1673ffffffffffffffffffffffffffffffffffffffff1662fdd58e3360008989604051611476929190612727565b9081526020016040518091039020546040518363ffffffff1660e01b81526004016114a2929190612b48565b602060405180830381865afa1580156114bf573d6000803e3d6000fd5b505050506040513d601f19601f820116820180604052508101906114e39190612b9d565b8152509080600181540180825580915050600190039060005260206000209060030201600090919091909150600082015181600001908051906020019061152b929190611d25565b5060208201518160010160006101000a81548173ffffffffffffffffffffffffffffffffffffffff021916908373ffffffffffffffffffffffffffffffffffffffff16021790555060408201518160020155505050505050565b82828080601f016020809104026020016040519081016040528093929190818152602001838380828437600081840152601f19601f82011690508083019250505050505050600080826040516115db9190612534565b9081526020016040518091039020549050600081036116ab57816040516020016116059190612534565b604051602081830303815290604052805190602001206001828154811061162f5761162e61254b565b5b9060005260206000209060080201600001604051602001611650919061266e565b60405160208183030381529060405280519060200120146116a6576040517f08c379a000000000000000000000000000000000000000000000000000000000815260040161169d906126e2565b60405180910390fd5b6116f3565b60018054905081106116f2576040517f08c379a00000000000000000000000000000000000000000000000000000000081526004016116e9906126e2565b60405180910390fd5b5b6000808686604051611706929190612727565b90815260200160405180910390205490506001818154811061172b5761172a61254b565b5b906000526020600020906008020160010173__ChangesLibrary________________________637cbb44f99091866040518363ffffffff1660e01b81526004016117769291906129e4565b60006040518083038186803b15801561178e57600080fd5b505af41580156117a2573d6000803e3d6000fd5b505050507f718a982b61bc723a0c68281b0eb10e1cff37bd89888841ae545c98cd5493a0568487876040516117d993929190612f4d565b60405180910390a1505050505050565b81818080601f016020809104026020016040519081016040528093929190818152602001838380828437600081840152601f19601f820116905080830192505050505050506000808260405161183f9190612534565b90815260200160405180910390205490506000810361190f57816040516020016118699190612534565b60405160208183030381529060405280519060200120600182815481106118935761189261254b565b5b90600052602060002090600802016000016040516020016118b4919061266e565b604051602081830303815290604052805190602001201461190a576040517f08c379a0000000000000000000000000000000000000000000000000000000008152600401611901906126e2565b60405180910390fd5b611957565b6001805490508110611956576040517f08c379a000000000000000000000000000000000000000000000000000000000815260040161194d906126e2565b60405180910390fd5b5b600080858560405161196a929190612727565b90815260200160405180910390205490506001818154811061198f5761198e61254b565b5b906000526020600020906008020160010173__ChangesLibrary________________________636b6b15cc9091886040518363ffffffff1660e01b81526004016119da9291906129e4565b60006040518083038186803b1580156119f257600080fd5b505af4158015611a06573d6000803e3d6000fd5b505050507fa59a33e81abf86b25a561f609013d867f28b3c0cbc2cdf98e852b0c0c041eb6c858588604051611a3d9392919061300b565b60405180910390a1505050505050565b81818080601f016020809104026020016040519081016040528093929190818152602001838380828437600081840152601f19601f8201169050808301925050505050505060008082604051611aa39190612534565b908152602001604051809103902054905060008103611b735781604051602001611acd9190612534565b6040516020818303038152906040528051906020012060018281548110611af757611af661254b565b5b9060005260206000209060080201600001604051602001611b18919061266e565b6040516020818303038152906040528051906020012014611b6e576040517f08c379a0000000000000000000000000000000000000000000000000000000008152600401611b65906126e2565b60405180910390fd5b611bbb565b6001805490508110611bba576040517f08c379a0000000000000000000000000000000000000000000000000000000008152600401611bb1906126e2565b60405180910390fd5b5b6000808585604051611bce929190612727565b90815260200160405180910390205490507f000000000000000000000000000000000000000000000000000000000000000060018281548110611c1457611c1361254b565b5b906000526020600020906008020160050154611c309190613057565b421015611c72576040517f08c379a0000000000000000000000000000000000000000000000000000000008152600401611c69906130f9565b60405180910390fd5b4260018281548110611c8757611c8661254b565b5b9060005260206000209060080201600501819055507f7288f707ccc9ad8e6342e2220545e85e8971083cf158175f547d9567688b65ff60018281548110611cd157611cd061254b565b5b906000526020600020906008020160050154604051611cf09190613165565b60405180910390a15050505050565b600260009054906101000a900473ffffffffffffffffffffffffffffffffffffffff1681565b828054611d31906125a9565b90600052602060002090601f016020900481019282611d535760008555611d9a565b82601f10611d6c57805160ff1916838001178555611d9a565b82800160010185558215611d9a579182015b82811115611d99578251825591602001919060010190611d7e565b5b509050611da79190611dab565b5090565b5b80821115611dc4576000816000905550600101611dac565b5090565b6000604051905090565b600080fd5b600080fd5b600080fd5b600080fd5b600080fd5b60008083601f840112611e0157611e00611ddc565b5b8235905067ffffffffffffffff811115611e1e57611e1d611de1565b5b602083019150836001820283011115611e3a57611e39611de6565b5b9250929050565b60008115159050919050565b611e5681611e41565b8114611e6157600080fd5b50565b600081359050611e7381611e4d565b92915050565b600080600060408486031215611e9257611e91611dd2565b5b600084013567ffffffffffffffff811115611eb057611eaf611dd7565b5b611ebc86828701611deb565b93509350506020611ecf86828701611e64565b9150509250925092565b600081519050919050565b600082825260208201905092915050565b6000819050602082019050919050565b600081519050919050565b600082825260208201905092915050565b60005b83811015611f3f578082015181840152602081019050611f24565b83811115611f4e576000848401525b50505050565b6000601f19601f8301169050919050565b6000611f7082611f05565b611f7a8185611f10565b9350611f8a818560208601611f21565b611f9381611f54565b840191505092915050565b6000611faa8383611f65565b905092915050565b6000602082019050919050565b6000611fca82611ed9565b611fd48185611ee4565b935083602082028501611fe685611ef5565b8060005b8581101561202257848403895281516120038582611f9e565b945061200e83611fb2565b925060208a01995050600181019050611fea565b50829750879550505050505092915050565b6000602082019050818103600083015261204e8184611fbf565b905092915050565b600080fd5b7f4e487b7100000000000000000000000000000000000000000000000000000000600052604160045260246000fd5b61209382611f54565b810181811067ffffffffffffffff821117156120b2576120b161205b565b5b80604052505050565b60006120c5611dc8565b90506120d1828261208a565b919050565b600067ffffffffffffffff8211156120f1576120f061205b565b5b6120fa82611f54565b9050602081019050919050565b82818337600083830152505050565b6000612129612124846120d6565b6120bb565b90508281526020810184848401111561214557612144612056565b5b612150848285612107565b509392505050565b600082601f83011261216d5761216c611ddc565b5b813561217d848260208601612116565b91505092915050565b60006020828403121561219c5761219b611dd2565b5b600082013567ffffffffffffffff8111156121ba576121b9611dd7565b5b6121c684828501612158565b91505092915050565b6000819050919050565b6121e2816121cf565b82525050565b60006020820190506121fd60008301846121d9565b92915050565b6000806040838503121561221a57612219611dd2565b5b600083013567ffffffffffffffff81111561223857612237611dd7565b5b61224485828601612158565b925050602083013567ffffffffffffffff81111561226557612264611dd7565b5b61227185828601612158565b9150509250929050565b60008060006040848603121561229457612293611dd2565b5b600084013567ffffffffffffffff8111156122b2576122b1611dd7565b5b6122be86828701612158565b935050602084013567ffffffffffffffff8111156122df576122de611dd7565b5b6122eb86828701611deb565b92509250509250925092565b600073ffffffffffffffffffffffffffffffffffffffff82169050919050565b6000612322826122f7565b9050919050565b61233281612317565b811461233d57600080fd5b50565b60008135905061234f81612329565b92915050565b60008060006040848603121561236e5761236d611dd2565b5b600084013567ffffffffffffffff81111561238c5761238b611dd7565b5b61239886828701611deb565b935093505060206123ab86828701612340565b9150509250925092565b6000806000604084860312156123ce576123cd611dd2565b5b600084013567ffffffffffffffff8111156123ec576123eb611dd7565b5b6123f886828701611deb565b9350935050602084013567ffffffffffffffff81111561241b5761241a611dd7565b5b61242786828701612158565b9150509250925092565b6000806020838503121561244857612447611dd2565b5b600083013567ffffffffffffffff81111561246657612465611dd7565b5b61247285828601611deb565b92509250509250929050565b6000819050919050565b60006124a361249e612499846122f7565b61247e565b6122f7565b9050919050565b60006124b582612488565b9050919050565b60006124c7826124aa565b9050919050565b6124d7816124bc565b82525050565b60006020820190506124f260008301846124ce565b92915050565b600081905092915050565b600061250e82611f05565b61251881856124f8565b9350612528818560208601611f21565b80840191505092915050565b60006125408284612503565b915081905092915050565b7f4e487b7100000000000000000000000000000000000000000000000000000000600052603260045260246000fd5b7f4e487b7100000000000000000000000000000000000000000000000000000000600052602260045260246000fd5b600060028204905060018216806125c157607f821691505b6020821081036125d4576125d361257a565b5b50919050565b60008190508160005260206000209050919050565b600081546125fc816125a9565b61260681866124f8565b94506001821660008114612621576001811461263257612665565b60ff19831686528186019350612665565b61263b856125da565b60005b8381101561265d5781548189015260018201915060208101905061263e565b838801955050505b50505092915050565b600061267a82846125ef565b915081905092915050565b600082825260208201905092915050565b7f50726f6a65637420646f206e6f74206578697374000000000000000000000000600082015250565b60006126cc601483612685565b91506126d782612696565b602082019050919050565b600060208201905081810360008301526126fb816126bf565b9050919050565b600061270e83856124f8565b935061271b838584612107565b82840190509392505050565b6000612734828486612702565b91508190509392505050565b8082525050565b61275081611e41565b82525050565b600060408201905061276b6000830185612740565b6127786020830184612747565b9392505050565b600067ffffffffffffffff82111561279a5761279961205b565b5b602082029050602081019050919050565b60006127be6127b9846120d6565b6120bb565b9050828152602081018484840111156127da576127d9612056565b5b6127e5848285611f21565b509392505050565b600082601f83011261280257612801611ddc565b5b81516128128482602086016127ab565b91505092915050565b600061282e6128298461277f565b6120bb565b9050808382526020820190506020840283018581111561285157612850611de6565b5b835b8181101561289857805167ffffffffffffffff81111561287657612875611ddc565b5b80860161288389826127ed565b85526020850194505050602081019050612853565b5050509392505050565b600082601f8301126128b7576128b6611ddc565b5b81516128c784826020860161281b565b91505092915050565b6000602082840312156128e6576128e5611dd2565b5b600082015167ffffffffffffffff81111561290457612903611dd7565b5b612910848285016128a2565b91505092915050565b61292281612317565b82525050565b6000819050919050565b600061294d61294861294384612928565b61247e565b6121cf565b9050919050565b61295d81612932565b82525050565b60006060820190506129786000830186612919565b61298560208301856121d9565b6129926040830184612954565b949350505050565b600082825260208201905092915050565b60006129b682611f05565b6129c0818561299a565b93506129d0818560208601611f21565b6129d981611f54565b840191505092915050565b60006040820190506129f96000830185612740565b8181036020830152612a0b81846129ab565b90509392505050565b7f4e65772070726f6a656374206372656174656420776974682049443a00000000600082015250565b6000612a4a601c83612685565b9150612a5582612a14565b602082019050919050565b6000612a6b82611f05565b612a758185612685565b9350612a85818560208601611f21565b612a8e81611f54565b840191505092915050565b60006060820190508181036000830152612ab281612a3d565b90508181036020830152612ac68185612a60565b9050612ad560408301846121d9565b9392505050565b7f416c726561647920766f74656400000000000000000000000000000000000000600082015250565b6000612b12600d83612685565b9150612b1d82612adc565b602082019050919050565b60006020820190508181036000830152612b4181612b05565b9050919050565b6000604082019050612b5d6000830185612919565b612b6a60208301846121d9565b9392505050565b612b7a816121cf565b8114612b8557600080fd5b50565b600081519050612b9781612b71565b92915050565b600060208284031215612bb357612bb2611dd2565b5b6000612bc184828501612b88565b91505092915050565b7f566f74696e6720706f77657220697320696e73756666696369656e7400000000600082015250565b6000612c00601c83612685565b9150612c0b82612bca565b602082019050919050565b60006020820190508181036000830152612c2f81612bf3565b9050919050565b612c3f816121cf565b82525050565b6000606082019050612c5a6000830186612740565b8181036020830152612c6c81856129ab565b9050612c7b6040830184612c36565b949350505050565b7f4e657720766f746520666f72206368616e67652070726f706f73616c3a000000600082015250565b6000612cb9601d83612685565b9150612cc482612c83565b602082019050919050565b6000612cdb8385612685565b9350612ce8838584612107565b612cf183611f54565b840190509392505050565b600060a0820190508181036000830152612d1581612cac565b90508181036020830152612d2a818789612ccf565b90508181036040830152612d3e8186612a60565b9050612d4d6060830185612919565b612d5a60808301846121d9565b9695505050505050565b7f4e6577206368616e67652070726f706f73616c20746f207468652050726f6a6560008201527f6374207769746820746865206e616d6520616e6420666f6c6c6f77696e67204960208201527f4420616e64204349443a00000000000000000000000000000000000000000000604082015250565b6000612de6604a83612685565b9150612df182612d64565b606082019050919050565b60006080820190508181036000830152612e1581612dd9565b90508181036020830152612e2a818688612ccf565b90508181036040830152612e3e8185612a60565b9050612e4d60608301846121d9565b95945050505050565b7f4e487b7100000000000000000000000000000000000000000000000000000000600052601160045260246000fd5b6000612e90826121cf565b9150612e9b836121cf565b925082821015612eae57612ead612e56565b5b828203905092915050565b6000612ec4826121cf565b91507fffffffffffffffffffffffffffffffffffffffffffffffffffffffffffffffff8203612ef657612ef5612e56565b5b600182019050919050565b7f50726f6a656374206368616e67656420746f206368616e67653a200000000000600082015250565b6000612f37601b83612685565b9150612f4282612f01565b602082019050919050565b60006060820190508181036000830152612f6681612f2a565b90508181036020830152612f7a8186612a60565b90508181036040830152612f8f818486612ccf565b9050949350505050565b7f41206e6577206368616e676520686173206265656e206d61646520746f20746860008201527f652070726f6a6563743a20000000000000000000000000000000000000000000602082015250565b6000612ff5602b83612685565b915061300082612f99565b604082019050919050565b6000606082019050818103600083015261302481612fe8565b90508181036020830152613039818587612ccf565b9050818103604083015261304d8184612a60565b9050949350505050565b6000613062826121cf565b915061306d836121cf565b9250827fffffffffffffffffffffffffffffffffffffffffffffffffffffffffffffffff038211156130a2576130a1612e56565b5b828201905092915050565b7f6e6f7420646973747269627574696f6e2074696d650000000000000000000000600082015250565b60006130e3601583612685565b91506130ee826130ad565b602082019050919050565b60006020820190508181036000830152613112816130d6565b9050919050565b7f546f6b656e7320646973747269627574696f6e20537461727400000000000000600082015250565b600061314f601983612685565b915061315a82613119565b602082019050919050565b6000604082019050818103600083015261317e81613142565b905061318d60208301846121d9565b9291505056fea2646970667358221220e568f45128212cd2f864c3c130f56b450cc3a280300a1ef0878c301f8f2a7fca64736f6c634300080d0033",
  "immutableReferences": {
    "445": [
      {
        "length": 32,
        "start": 3070
      },
      {
        "length": 32,
        "start": 7137
      }
    ]
  },
  "source": "// SPDX-License-Identifier: MIT\npragma solidity ^0.8.2;\n\nimport \"../node_modules/@openzeppelin/contracts/utils/Counters.sol\";\nimport \"./Changes.sol\";\nimport \"./ProjectsToken.sol\";\n\n\ncontract Steps {\n    // initiate all the data structures and constants saved on the smart contract\n    uint public immutable TimeLockInterval = 60 * 60 * 24 * 30; // One Month\n    using Counters for Counters.Counter;\n    using ChangesLibrary for ChangesLibrary.ChangesStorage;\n\n    \n    // -------------------------------------------------------- Mappings\n    mapping(string => uint) public NameToID;    \n\n    // -------------------------------------------------------- Structs\n\n    struct goBack {\n        string changeCID;\n        address goBackMaker;\n        uint votes;\n    }\n\n    struct Project {\n        string name;\n        ChangesLibrary.ChangesStorage changes;\n        goBack[] goBackProposals;\n\n        // time lock\n        uint lastDistributionTime;\n\n        // distribution\n        mapping(address => uint) pendingTokens;\n\n        // - ChangeCID => Voter address => Voted?\n        mapping(string => mapping(address => bool)) Voted;\n\n    }\n\n\n    // -------------------------------------------------------- Lists\n    Project[] publicProjects;\n\n    // -------------------------------------------------------- Token\n    ProjectsToken public token;\n\n    // -------------------------------------------------------- Events\n    event NewProjectCreated(string message, string name, uint value);\n    event NewChangeProposalCreated(string message, string Name, string CID, uint indexValue);\n    event NewVoteForChangeProposal(string message, string projectName, string changeProposalCID, address voter, uint votes);\n    event NewChangeIsMadeToProject(string message, string projectName, string changeCID); // Message, Project CID, Message, ChangeCID\n    event ProjectWentBack(string message, string changeCID, string ProjectName);\n    event TokensDisributed(string message, uint lastDistributionTime);\n\n    // -------------------------------------------------------- Modifiers\n    modifier ProjectExist(string memory _Name) {\n        uint id = NameToID[_Name];\n        if (id == 0) {\n            require(keccak256(abi.encodePacked(publicProjects[id].name)) == keccak256(abi.encodePacked(_Name)), \"Project do not exist\");\n        } else {\n            require(id < publicProjects.length, \"Project do not exist\");\n        }\n        _;\n    }\n\n\n    // -------------------------------------------------------- Constructor\n    constructor(address tokenAddress) {\n        token = ProjectsToken(tokenAddress);\n    } \n\n    // -------------------------------------------------------- Functions\n\n    // the function create a new project with an inital change\n    function createProject(string memory _CID, string memory projectName) public {\n        uint newProjectID = publicProjects.length;\n        NameToID[projectName] = newProjectID;\n        token.mint(msg.sender, newProjectID, 10);\n        \n        Project storage newProject = publicProjects.push();\n        newProject.name = projectName;\n        newProject.changes.initialize(_CID);\n        newProject.lastDistributionTime = block.timestamp;\n\n        emit NewProjectCreated(\"New project created with ID:\", projectName, newProjectID);\n    }\n\n    // the functions create a change proposal\n    function MakeChangeProposal(\n        string memory _changeCID, \n        string calldata _projectName\n    ) ProjectExist(_projectName) external {\n        uint projectIDX = NameToID[_projectName];\n        publicProjects[projectIDX].changes.createChangeProposal(_changeCID, token.balanceOf(msg.sender, NameToID[_projectName]));\n        publicProjects[projectIDX].Voted[_changeCID][msg.sender] = true;\n        emit NewChangeProposalCreated(\"New change proposal to the Project with the name and following ID and CID:\", _projectName, _changeCID, projectIDX);\n    }\n\n    // the functions make a go back proposal\n    function MakeGoBackProposal(\n        string memory _changeCID, \n        string calldata _projectName\n    ) external {\n        uint projectID = NameToID[_projectName];\n        publicProjects[projectID].goBackProposals.push(goBack(_changeCID, msg.sender, token.balanceOf(msg.sender, NameToID[_projectName])));\n    }\n\n    // the function make a go Back \n    function acceptGoBack(\n        string calldata _projectName, \n        string memory _changeCID\n    ) ProjectExist(_projectName) external {\n        uint projectIDX = NameToID[_projectName];\n        publicProjects[projectIDX].changes.goBack(_changeCID);\n        \n        emit ProjectWentBack(\"Project changed to change: \", _changeCID, _projectName);\n    }\n\n    // the functions accept a change proposal and add it to the list\n    function acceptChangeProposal(\n        string memory _proposedChangeCID, \n        string calldata _projectName\n    ) ProjectExist(_projectName) external {\n        uint projectID = NameToID[_projectName];\n        publicProjects[projectID].changes.acceptChangeProposal(_proposedChangeCID);\n        emit NewChangeIsMadeToProject(\"A new change has been made to the project: \", _projectName, _proposedChangeCID);\n    }\n\n    // the function returns the voting power of a user in a certain project\n    function getBalance(\n        string calldata _projectName, \n        address _UserAddress\n    ) ProjectExist(_projectName) external view returns (uint) {\n        return token.balanceOf(_UserAddress, NameToID[_projectName]);\n    }\n\n    // the function allow user to vote in favor of a change proposal\n    function voteForChangeProposal(\n        string memory _changeProposalCID, \n        string calldata _projectName\n    ) ProjectExist(_projectName) external {\n        uint projectID = NameToID[_projectName];\n\n        require(publicProjects[projectID].Voted[_changeProposalCID][msg.sender] == false, \"Already voted\");\n\n        uint votingPower = token.balanceOf(msg.sender, projectID);\n        \n        if (votingPower <= 0) {\n            revert(\"Voting power is insufficient\");\n        }\n\n        publicProjects[projectID].changes.voteForChangeProposal(_changeProposalCID, votingPower);\n        publicProjects[projectID].Voted[_changeProposalCID][msg.sender] = true;\n        \n        emit NewVoteForChangeProposal(\n            \"New vote for change proposal:\",\n            _projectName,\n            _changeProposalCID,\n            msg.sender,\n            publicProjects[projectID].changes.getChangeProposalVotes(_changeProposalCID)\n        );\n    }\n\n    // the functions returns the changes/change proposals\n    function getChangesOrProposals(\n        string calldata _projectName, \n        bool changesOrChangeProposals\n    ) ProjectExist(_projectName) external view returns (string[] memory) {\n        uint projectID = NameToID[_projectName];\n        return publicProjects[projectID].changes.getChangesOrChangeProposals(changesOrChangeProposals); // true for changes and false for change proposals\n    }\n\n    // TEMP\n    function getLastProjects() external view returns (string[] memory) {\n        uint arr_length = publicProjects.length;\n        uint arr_index = publicProjects.length;\n        if (arr_length > 10) {\n            arr_length = 10;\n        }\n\n        string[] memory lastProjects = new string[](arr_length);\n        if (publicProjects.length > 0) {\n        for (uint256 i = arr_index - arr_length; i < arr_index; i++) {\n            lastProjects[arr_index - 1 - i] = publicProjects[i].name; \n        }}\n        return lastProjects;\n    }\n\n    // the functions allow the token distribution when the timelock ends\n    function distributeTokens(\n        string calldata _projectName\n    ) ProjectExist(_projectName) external {\n        uint projectID = NameToID[_projectName];\n                \n        require(block.timestamp >= publicProjects[projectID].lastDistributionTime + TimeLockInterval, \"not distribution time\");\n\n        // <token distribution>\n        // ...\n        // <token distribution/>\n\n        publicProjects[projectID].lastDistributionTime = block.timestamp;\n\n        emit TokensDisributed(\n            \"Tokens distribution Start\",\n            publicProjects[projectID].lastDistributionTime\n        );\n    }\n\n}\n",
  "sourcePath": "c:\\Users\\User\\Desktop\\\\davidson\\project\\DavidsonProject\\Smart Contract\\contracts\\Steps.sol",
  "compiler": {
    "name": "solc",
    "version": "0.8.13+commit.abaa5c0e.Emscripten.clang"
  },
  "schemaVersion": "3.4.7",
  "updatedAt": "2024-03-03T22:01:15.516Z",
  "networkType": "ethereum",
  "devdoc": {
    "kind": "dev",
    "methods": {},
    "version": 1
  },
  "userdoc": {
    "kind": "user",
    "methods": {},
    "version": 1
  }
}