{
  "contractName": "Steps",
  "abi": [
    {
      "inputs": [],
      "stateMutability": "nonpayable",
      "type": "constructor"
    },
    {
      "anonymous": false,
      "inputs": [
        {
          "indexed": true,
          "internalType": "address",
          "name": "account",
          "type": "address"
        },
        {
          "indexed": true,
          "internalType": "address",
          "name": "operator",
          "type": "address"
        },
        {
          "indexed": false,
          "internalType": "bool",
          "name": "approved",
          "type": "bool"
        }
      ],
      "name": "ApprovalForAll",
      "type": "event"
    },
    {
      "anonymous": false,
      "inputs": [
        {
          "indexed": false,
          "internalType": "string",
          "name": "message",
          "type": "string"
        },
        {
          "indexed": false,
          "internalType": "uint256",
          "name": "projectCID",
          "type": "uint256"
        },
        {
          "indexed": false,
          "internalType": "string",
          "name": "changeCID",
          "type": "string"
        }
      ],
      "name": "NewChangeIsMadeToProject",
      "type": "event"
    },
    {
      "anonymous": false,
      "inputs": [
        {
          "indexed": false,
          "internalType": "string",
          "name": "message",
          "type": "string"
        },
        {
          "indexed": false,
          "internalType": "string",
          "name": "Name",
          "type": "string"
        },
        {
          "indexed": false,
          "internalType": "string",
          "name": "CID",
          "type": "string"
        },
        {
          "indexed": false,
          "internalType": "uint256",
          "name": "indexValue",
          "type": "uint256"
        }
      ],
      "name": "NewChangeProposalCreated",
      "type": "event"
    },
    {
      "anonymous": false,
      "inputs": [
        {
          "indexed": false,
          "internalType": "string",
          "name": "message",
          "type": "string"
        },
        {
          "indexed": false,
          "internalType": "string",
          "name": "name",
          "type": "string"
        },
        {
          "indexed": false,
          "internalType": "uint256",
          "name": "value",
          "type": "uint256"
        }
      ],
      "name": "NewProjectCreated",
      "type": "event"
    },
    {
      "anonymous": false,
      "inputs": [
        {
          "indexed": false,
          "internalType": "string",
          "name": "message",
          "type": "string"
        },
        {
          "indexed": false,
          "internalType": "uint256",
          "name": "projectCID",
          "type": "uint256"
        },
        {
          "indexed": false,
          "internalType": "string",
          "name": "proposedChangeCID",
          "type": "string"
        },
        {
          "indexed": false,
          "internalType": "address",
          "name": "voter",
          "type": "address"
        },
        {
          "indexed": false,
          "internalType": "uint256",
          "name": "votes",
          "type": "uint256"
        }
      ],
      "name": "NewVoteForChangeProposal",
      "type": "event"
    },
    {
      "anonymous": false,
      "inputs": [
        {
          "indexed": true,
          "internalType": "address",
          "name": "previousOwner",
          "type": "address"
        },
        {
          "indexed": true,
          "internalType": "address",
          "name": "newOwner",
          "type": "address"
        }
      ],
      "name": "OwnershipTransferred",
      "type": "event"
    },
    {
      "anonymous": false,
      "inputs": [
        {
          "indexed": false,
          "internalType": "string",
          "name": "message",
          "type": "string"
        },
        {
          "indexed": false,
          "internalType": "uint256",
          "name": "step",
          "type": "uint256"
        },
        {
          "indexed": false,
          "internalType": "string",
          "name": "changeCID",
          "type": "string"
        }
      ],
      "name": "ProjectGoBack",
      "type": "event"
    },
    {
      "anonymous": false,
      "inputs": [
        {
          "indexed": true,
          "internalType": "address",
          "name": "operator",
          "type": "address"
        },
        {
          "indexed": true,
          "internalType": "address",
          "name": "from",
          "type": "address"
        },
        {
          "indexed": true,
          "internalType": "address",
          "name": "to",
          "type": "address"
        },
        {
          "indexed": false,
          "internalType": "uint256[]",
          "name": "ids",
          "type": "uint256[]"
        },
        {
          "indexed": false,
          "internalType": "uint256[]",
          "name": "values",
          "type": "uint256[]"
        }
      ],
      "name": "TransferBatch",
      "type": "event"
    },
    {
      "anonymous": false,
      "inputs": [
        {
          "indexed": true,
          "internalType": "address",
          "name": "operator",
          "type": "address"
        },
        {
          "indexed": true,
          "internalType": "address",
          "name": "from",
          "type": "address"
        },
        {
          "indexed": true,
          "internalType": "address",
          "name": "to",
          "type": "address"
        },
        {
          "indexed": false,
          "internalType": "uint256",
          "name": "id",
          "type": "uint256"
        },
        {
          "indexed": false,
          "internalType": "uint256",
          "name": "value",
          "type": "uint256"
        }
      ],
      "name": "TransferSingle",
      "type": "event"
    },
    {
      "anonymous": false,
      "inputs": [
        {
          "indexed": false,
          "internalType": "string",
          "name": "value",
          "type": "string"
        },
        {
          "indexed": true,
          "internalType": "uint256",
          "name": "id",
          "type": "uint256"
        }
      ],
      "name": "URI",
      "type": "event"
    },
    {
      "inputs": [
        {
          "internalType": "string",
          "name": "",
          "type": "string"
        }
      ],
      "name": "NameToID",
      "outputs": [
        {
          "internalType": "uint256",
          "name": "",
          "type": "uint256"
        }
      ],
      "stateMutability": "view",
      "type": "function",
      "constant": true
    },
    {
      "inputs": [
        {
          "internalType": "address",
          "name": "account",
          "type": "address"
        },
        {
          "internalType": "uint256",
          "name": "id",
          "type": "uint256"
        }
      ],
      "name": "balanceOf",
      "outputs": [
        {
          "internalType": "uint256",
          "name": "",
          "type": "uint256"
        }
      ],
      "stateMutability": "view",
      "type": "function",
      "constant": true
    },
    {
      "inputs": [
        {
          "internalType": "address[]",
          "name": "accounts",
          "type": "address[]"
        },
        {
          "internalType": "uint256[]",
          "name": "ids",
          "type": "uint256[]"
        }
      ],
      "name": "balanceOfBatch",
      "outputs": [
        {
          "internalType": "uint256[]",
          "name": "",
          "type": "uint256[]"
        }
      ],
      "stateMutability": "view",
      "type": "function",
      "constant": true
    },
    {
      "inputs": [
        {
          "internalType": "uint256",
          "name": "id",
          "type": "uint256"
        }
      ],
      "name": "exists",
      "outputs": [
        {
          "internalType": "bool",
          "name": "",
          "type": "bool"
        }
      ],
      "stateMutability": "view",
      "type": "function",
      "constant": true
    },
    {
      "inputs": [
        {
          "internalType": "address",
          "name": "account",
          "type": "address"
        },
        {
          "internalType": "address",
          "name": "operator",
          "type": "address"
        }
      ],
      "name": "isApprovedForAll",
      "outputs": [
        {
          "internalType": "bool",
          "name": "",
          "type": "bool"
        }
      ],
      "stateMutability": "view",
      "type": "function",
      "constant": true
    },
    {
      "inputs": [],
      "name": "owner",
      "outputs": [
        {
          "internalType": "address",
          "name": "",
          "type": "address"
        }
      ],
      "stateMutability": "view",
      "type": "function",
      "constant": true
    },
    {
      "inputs": [],
      "name": "renounceOwnership",
      "outputs": [],
      "stateMutability": "nonpayable",
      "type": "function"
    },
    {
      "inputs": [
        {
          "internalType": "address",
          "name": "from",
          "type": "address"
        },
        {
          "internalType": "address",
          "name": "to",
          "type": "address"
        },
        {
          "internalType": "uint256[]",
          "name": "ids",
          "type": "uint256[]"
        },
        {
          "internalType": "uint256[]",
          "name": "amounts",
          "type": "uint256[]"
        },
        {
          "internalType": "bytes",
          "name": "data",
          "type": "bytes"
        }
      ],
      "name": "safeBatchTransferFrom",
      "outputs": [],
      "stateMutability": "nonpayable",
      "type": "function"
    },
    {
      "inputs": [
        {
          "internalType": "address",
          "name": "from",
          "type": "address"
        },
        {
          "internalType": "address",
          "name": "to",
          "type": "address"
        },
        {
          "internalType": "uint256",
          "name": "id",
          "type": "uint256"
        },
        {
          "internalType": "uint256",
          "name": "amount",
          "type": "uint256"
        },
        {
          "internalType": "bytes",
          "name": "data",
          "type": "bytes"
        }
      ],
      "name": "safeTransferFrom",
      "outputs": [],
      "stateMutability": "nonpayable",
      "type": "function"
    },
    {
      "inputs": [
        {
          "internalType": "address",
          "name": "operator",
          "type": "address"
        },
        {
          "internalType": "bool",
          "name": "approved",
          "type": "bool"
        }
      ],
      "name": "setApprovalForAll",
      "outputs": [],
      "stateMutability": "nonpayable",
      "type": "function"
    },
    {
      "inputs": [
        {
          "internalType": "bytes4",
          "name": "interfaceId",
          "type": "bytes4"
        }
      ],
      "name": "supportsInterface",
      "outputs": [
        {
          "internalType": "bool",
          "name": "",
          "type": "bool"
        }
      ],
      "stateMutability": "view",
      "type": "function",
      "constant": true
    },
    {
      "inputs": [
        {
          "internalType": "uint256",
          "name": "id",
          "type": "uint256"
        }
      ],
      "name": "totalSupply",
      "outputs": [
        {
          "internalType": "uint256",
          "name": "",
          "type": "uint256"
        }
      ],
      "stateMutability": "view",
      "type": "function",
      "constant": true
    },
    {
      "inputs": [
        {
          "internalType": "address",
          "name": "newOwner",
          "type": "address"
        }
      ],
      "name": "transferOwnership",
      "outputs": [],
      "stateMutability": "nonpayable",
      "type": "function"
    },
    {
      "inputs": [
        {
          "internalType": "uint256",
          "name": "",
          "type": "uint256"
        }
      ],
      "name": "uri",
      "outputs": [
        {
          "internalType": "string",
          "name": "",
          "type": "string"
        }
      ],
      "stateMutability": "view",
      "type": "function",
      "constant": true
    },
    {
      "inputs": [
        {
          "internalType": "string",
          "name": "_CID",
          "type": "string"
        },
        {
          "internalType": "string",
          "name": "projectName",
          "type": "string"
        }
      ],
      "name": "createProject",
      "outputs": [],
      "stateMutability": "nonpayable",
      "type": "function"
    },
    {
      "inputs": [
        {
          "internalType": "string",
          "name": "_changeCID",
          "type": "string"
        },
        {
          "internalType": "string",
          "name": "_ProjectName",
          "type": "string"
        }
      ],
      "name": "changeProposal",
      "outputs": [],
      "stateMutability": "nonpayable",
      "type": "function"
    },
    {
      "inputs": [
        {
          "internalType": "string",
          "name": "_ProjectName",
          "type": "string"
        },
        {
          "internalType": "uint256",
          "name": "_step",
          "type": "uint256"
        }
      ],
      "name": "goBack",
      "outputs": [],
      "stateMutability": "nonpayable",
      "type": "function"
    },
    {
      "inputs": [
        {
          "internalType": "string",
          "name": "_proposedChangeCID",
          "type": "string"
        },
        {
          "internalType": "string",
          "name": "_projectName",
          "type": "string"
        }
      ],
      "name": "accept",
      "outputs": [],
      "stateMutability": "nonpayable",
      "type": "function"
    },
    {
      "inputs": [
        {
          "internalType": "address",
          "name": "_address",
          "type": "address"
        },
        {
          "internalType": "string",
          "name": "_projectName",
          "type": "string"
        }
      ],
      "name": "getBalance",
      "outputs": [
        {
          "internalType": "uint256",
          "name": "",
          "type": "uint256"
        }
      ],
      "stateMutability": "view",
      "type": "function",
      "constant": true
    },
    {
      "inputs": [
        {
          "internalType": "string",
          "name": "_projectName",
          "type": "string"
        },
        {
          "internalType": "string",
          "name": "_proposedChangeCID",
          "type": "string"
        }
      ],
      "name": "voteToProposedChange",
      "outputs": [],
      "stateMutability": "nonpayable",
      "type": "function"
    },
    {
      "inputs": [
        {
          "internalType": "string",
          "name": "_projectName",
          "type": "string"
        }
      ],
      "name": "getProjectChanges",
      "outputs": [
        {
          "internalType": "string[]",
          "name": "",
          "type": "string[]"
        }
      ],
      "stateMutability": "view",
      "type": "function",
      "constant": true
    },
    {
      "inputs": [
        {
          "internalType": "string",
          "name": "_projectName",
          "type": "string"
        }
      ],
      "name": "getProjectChangeProposals",
      "outputs": [
        {
          "internalType": "string[]",
          "name": "",
          "type": "string[]"
        }
      ],
      "stateMutability": "view",
      "type": "function",
      "constant": true
    },
    {
      "inputs": [],
      "name": "getLastProjects",
      "outputs": [
        {
          "internalType": "string[]",
          "name": "",
          "type": "string[]"
        }
      ],
      "stateMutability": "view",
      "type": "function",
      "constant": true
    }
  ],
  "bytecode": "0x60806040523480156200001157600080fd5b506040518060400160405280600381526020017f555249000000000000000000000000000000000000000000000000000000000081525062000059816200008060201b60201c565b506200007a6200006e6200009c60201b60201c565b620000a460201b60201c565b6200027e565b8060029080519060200190620000989291906200016a565b5050565b600033905090565b6000600360009054906101000a900473ffffffffffffffffffffffffffffffffffffffff16905081600360006101000a81548173ffffffffffffffffffffffffffffffffffffffff021916908373ffffffffffffffffffffffffffffffffffffffff1602179055508173ffffffffffffffffffffffffffffffffffffffff168173ffffffffffffffffffffffffffffffffffffffff167f8be0079c531659141344cd1fd0a4f28419497f9722a3daafe3b4186f6b6457e060405160405180910390a35050565b828054620001789062000249565b90600052602060002090601f0160209004810192826200019c5760008555620001e8565b82601f10620001b757805160ff1916838001178555620001e8565b82800160010185558215620001e8579182015b82811115620001e7578251825591602001919060010190620001ca565b5b509050620001f79190620001fb565b5090565b5b8082111562000216576000816000905550600101620001fc565b5090565b7f4e487b7100000000000000000000000000000000000000000000000000000000600052602260045260246000fd5b600060028204905060018216806200026257607f821691505b6020821081036200027857620002776200021a565b5b50919050565b615941806200028e6000396000f3fe608060405234801561001057600080fd5b506004361061014c5760003560e01c8063715018a6116100c3578063bdee1c6e1161007c578063bdee1c6e146103e7578063d6cb24c214610403578063e985e9c51461041f578063f242432a1461044f578063f2fde38b1461046b578063fe55533e146104875761014c565b8063715018a61461033957806378dc6c50146103435780638da5cb5b1461035f578063a22cb4651461037d578063a54d804d14610399578063bd85b039146103b75761014c565b80632eb2c2d6116101155780632eb2c2d61461024157806333846eba1461025d5780634e1273f41461028d5780634f558e79146102bd57806355da398c146102ed5780636bd062041461031d5761014c565b8062fdd58e1461015157806301ffc9a7146101815780630e89341c146101b15780631dd7cecf146101e157806321e11fcc14610211575b600080fd5b61016b60048036038101906101669190613b3b565b6104a3565b6040516101789190613b8a565b60405180910390f35b61019b60048036038101906101969190613bfd565b61056b565b6040516101a89190613c45565b60405180910390f35b6101cb60048036038101906101c69190613c60565b61064d565b6040516101d89190613d26565b60405180910390f35b6101fb60048036038101906101f69190613e7d565b6106e1565b6040516102089190613b8a565b60405180910390f35b61022b60048036038101906102269190613ed9565b610840565b604051610238919061402e565b60405180910390f35b61025b600480360381019061025691906141b9565b610b2a565b005b61027760048036038101906102729190613ed9565b610bcb565b6040516102849190613b8a565b60405180910390f35b6102a760048036038101906102a2919061434b565b610bf9565b6040516102b49190614481565b60405180910390f35b6102d760048036038101906102d29190613c60565b610d12565b6040516102e49190613c45565b60405180910390f35b61030760048036038101906103029190613ed9565b610d26565b604051610314919061402e565b60405180910390f35b610337600480360381019061033291906144a3565b611010565b005b6103416111ac565b005b61035d6004803603810190610358919061451b565b6111c0565b005b6103676115d2565b6040516103749190614586565b60405180910390f35b610397600480360381019061039291906145cd565b6115fc565b005b6103a1611612565b6040516103ae919061402e565b60405180910390f35b6103d160048036038101906103cc9190613c60565b6117b0565b6040516103de9190613b8a565b60405180910390f35b61040160048036038101906103fc91906144a3565b6117cd565b005b61041d600480360381019061041891906144a3565b611f56565b005b6104396004803603810190610434919061460d565b6121fc565b6040516104469190613c45565b60405180910390f35b6104696004803603810190610464919061464d565b612290565b005b610485600480360381019061048091906146e4565b612331565b005b6104a1600480360381019061049c91906144a3565b6123b4565b005b60008073ffffffffffffffffffffffffffffffffffffffff168373ffffffffffffffffffffffffffffffffffffffff1603610513576040517f08c379a000000000000000000000000000000000000000000000000000000000815260040161050a90614783565b60405180910390fd5b60008083815260200190815260200160002060008473ffffffffffffffffffffffffffffffffffffffff1673ffffffffffffffffffffffffffffffffffffffff16815260200190815260200160002054905092915050565b60007fd9b67a26000000000000000000000000000000000000000000000000000000007bffffffffffffffffffffffffffffffffffffffffffffffffffffffff1916827bffffffffffffffffffffffffffffffffffffffffffffffffffffffff1916148061063657507f0e89341c000000000000000000000000000000000000000000000000000000007bffffffffffffffffffffffffffffffffffffffffffffffffffffffff1916827bffffffffffffffffffffffffffffffffffffffffffffffffffffffff1916145b8061064657506106458261264e565b5b9050919050565b60606002805461065c906147d2565b80601f0160208091040260200160405190810160405280929190818152602001828054610688906147d2565b80156106d55780601f106106aa576101008083540402835291602001916106d5565b820191906000526020600020905b8154815290600101906020018083116106b857829003601f168201915b50505050509050919050565b60008160006005826040516106f6919061483f565b9081526020016040518091039020549050600081036107c65781604051602001610720919061483f565b604051602081830303815290604052805190602001206006828154811061074a57610749614856565b5b906000526020600020906003020160000160405160200161076b9190614919565b60405160208183030381529060405280519060200120146107c1576040517f08c379a00000000000000000000000000000000000000000000000000000000081526004016107b89061497c565b60405180910390fd5b61080e565b600680549050811061080d576040517f08c379a00000000000000000000000000000000000000000000000000000000081526004016108049061497c565b60405180910390fd5b5b61083685600586604051610822919061483f565b9081526020016040518091039020546104a3565b9250505092915050565b6060816000600582604051610855919061483f565b908152602001604051809103902054905060008103610925578160405160200161087f919061483f565b60405160208183030381529060405280519060200120600682815481106108a9576108a8614856565b5b90600052602060002090600302016000016040516020016108ca9190614919565b6040516020818303038152906040528051906020012014610920576040517f08c379a00000000000000000000000000000000000000000000000000000000081526004016109179061497c565b60405180910390fd5b61096d565b600680549050811061096c576040517f08c379a00000000000000000000000000000000000000000000000000000000081526004016109639061497c565b60405180910390fd5b5b600060058560405161097f919061483f565b90815260200160405180910390205490506000600682815481106109a6576109a5614856565b5b906000526020600020906003020160010180549050905060008167ffffffffffffffff8111156109d9576109d8613d52565b5b604051908082528060200260200182016040528015610a0c57816020015b60608152602001906001900390816109f75790505b50905060005b82811015610b1c5760068481548110610a2e57610a2d614856565b5b90600052602060002090600302016001018181548110610a5157610a50614856565b5b90600052602060002090600302016000018054610a6d906147d2565b80601f0160208091040260200160405190810160405280929190818152602001828054610a99906147d2565b8015610ae65780601f10610abb57610100808354040283529160200191610ae6565b820191906000526020600020905b815481529060010190602001808311610ac957829003601f168201915b5050505050828281518110610afe57610afd614856565b5b60200260200101819052508080610b14906149cb565b915050610a12565b508095505050505050919050565b610b326126b8565b73ffffffffffffffffffffffffffffffffffffffff168573ffffffffffffffffffffffffffffffffffffffff161480610b785750610b7785610b726126b8565b6121fc565b5b610bb7576040517f08c379a0000000000000000000000000000000000000000000000000000000008152600401610bae90614a85565b60405180910390fd5b610bc485858585856126c0565b5050505050565b6005818051602081018201805184825260208301602085012081835280955050505050506000915090505481565b60608151835114610c3f576040517f08c379a0000000000000000000000000000000000000000000000000000000008152600401610c3690614b17565b60405180910390fd5b6000835167ffffffffffffffff811115610c5c57610c5b613d52565b5b604051908082528060200260200182016040528015610c8a5781602001602082028036833780820191505090505b50905060005b8451811015610d0757610cd7858281518110610caf57610cae614856565b5b6020026020010151858381518110610cca57610cc9614856565b5b60200260200101516104a3565b828281518110610cea57610ce9614856565b5b60200260200101818152505080610d00906149cb565b9050610c90565b508091505092915050565b600080610d1e836117b0565b119050919050565b6060816000600582604051610d3b919061483f565b908152602001604051809103902054905060008103610e0b5781604051602001610d65919061483f565b6040516020818303038152906040528051906020012060068281548110610d8f57610d8e614856565b5b9060005260206000209060030201600001604051602001610db09190614919565b6040516020818303038152906040528051906020012014610e06576040517f08c379a0000000000000000000000000000000000000000000000000000000008152600401610dfd9061497c565b60405180910390fd5b610e53565b6006805490508110610e52576040517f08c379a0000000000000000000000000000000000000000000000000000000008152600401610e499061497c565b60405180910390fd5b5b6000600585604051610e65919061483f565b9081526020016040518091039020549050600060068281548110610e8c57610e8b614856565b5b906000526020600020906003020160020180549050905060008167ffffffffffffffff811115610ebf57610ebe613d52565b5b604051908082528060200260200182016040528015610ef257816020015b6060815260200190600190039081610edd5790505b50905060005b828110156110025760068481548110610f1457610f13614856565b5b90600052602060002090600302016002018181548110610f3757610f36614856565b5b90600052602060002090600302016000018054610f53906147d2565b80601f0160208091040260200160405190810160405280929190818152602001828054610f7f906147d2565b8015610fcc5780601f10610fa157610100808354040283529160200191610fcc565b820191906000526020600020905b815481529060010190602001808311610faf57829003601f168201915b5050505050828281518110610fe457610fe3614856565b5b60200260200101819052508080610ffa906149cb565b915050610ef8565b508095505050505050919050565b600060068054905090508060058360405161102b919061483f565b90815260200160405180910390208190555061105b3382620f4240604051806020016040528060008152506129e1565b60006006600181600181540180825580915050039060005260206000209060030201905082816000019080519060200190611097929190613923565b50600060405180606001604052808681526020013373ffffffffffffffffffffffffffffffffffffffff16815260200160018152509050816001018190806001815401808255809150506001900390600052602060002090600302016000909190919091506000820151816000019080519060200190611118929190613923565b5060208201518160010160006101000a81548173ffffffffffffffffffffffffffffffffffffffff021916908373ffffffffffffffffffffffffffffffffffffffff1602179055506040820151816002015550507fe224389b386caecb8e3b38edc39361c7227e3ef820a8276bc31ac9cf1ba69fcd848460405161119d929190614b83565b60405180910390a15050505050565b6111b4612b91565b6111be6000612c0f565b565b8160006005826040516111d3919061483f565b9081526020016040518091039020549050600081036112a357816040516020016111fd919061483f565b604051602081830303815290604052805190602001206006828154811061122757611226614856565b5b90600052602060002090600302016000016040516020016112489190614919565b604051602081830303815290604052805190602001201461129e576040517f08c379a00000000000000000000000000000000000000000000000000000000081526004016112959061497c565b60405180910390fd5b6112eb565b60068054905081106112ea576040517f08c379a00000000000000000000000000000000000000000000000000000000081526004016112e19061497c565b60405180910390fd5b5b60006005856040516112fd919061483f565b908152602001604051809103902054905060006006828154811061132457611323614856565b5b90600052602060002090600302016001018054905090505b84811115611516576006828154811061135857611357614856565b5b90600052602060002090600302016002016006838154811061137d5761137c614856565b5b906000526020600020906003020160010160018361139b9190614bc6565b815481106113ac576113ab614856565b5b9060005260206000209060030201908060018154018082558091505060019003906000526020600020906003020160009091909190915060008201816000019080546113f7906147d2565b6114029291906139a9565b506001820160009054906101000a900473ffffffffffffffffffffffffffffffffffffffff168160010160006101000a81548173ffffffffffffffffffffffffffffffffffffffff021916908373ffffffffffffffffffffffffffffffffffffffff1602179055506002820154816002015550506006828154811061148a57611489614856565b5b90600052602060002090600302016001018054806114ab576114aa614bfa565b5b6001900381819060005260206000209060030201600080820160006114d09190613a36565b6001820160006101000a81549073ffffffffffffffffffffffffffffffffffffffff0219169055600282016000905550509055808061150e90614c29565b91505061133c565b507f674bbe46246d28a8263673ba0c9811db27c78ae2be0d9e93fec1b5ba0961b927846006838154811061154d5761154c614856565b5b906000526020600020906003020160010160016006858154811061157457611573614856565b5b9060005260206000209060030201600101805490506115939190614bc6565b815481106115a4576115a3614856565b5b90600052602060002090600302016000016040516115c3929190614d1e565b60405180910390a15050505050565b6000600360009054906101000a900473ffffffffffffffffffffffffffffffffffffffff16905090565b61160e6116076126b8565b8383612cd5565b5050565b60606000600680549050905060006006805490509050600a82111561163657600a91505b60008267ffffffffffffffff81111561165257611651613d52565b5b60405190808252806020026020018201604052801561168557816020015b60608152602001906001900390816116705790505b509050600060068054905011156117a757600083836116a49190614bc6565b90505b828110156117a557600681815481106116c3576116c2614856565b5b906000526020600020906003020160000180546116df906147d2565b80601f016020809104026020016040519081016040528092919081815260200182805461170b906147d2565b80156117585780601f1061172d57610100808354040283529160200191611758565b820191906000526020600020905b81548152906001019060200180831161173b57829003601f168201915b5050505050828260018661176c9190614bc6565b6117769190614bc6565b8151811061178757611786614856565b5b6020026020010181905250808061179d906149cb565b9150506116a7565b505b80935050505090565b600060046000838152602001908152602001600020549050919050565b8060006005826040516117e0919061483f565b9081526020016040518091039020549050600081036118b0578160405160200161180a919061483f565b604051602081830303815290604052805190602001206006828154811061183457611833614856565b5b90600052602060002090600302016000016040516020016118559190614919565b60405160208183030381529060405280519060200120146118ab576040517f08c379a00000000000000000000000000000000000000000000000000000000081526004016118a29061497c565b60405180910390fd5b6118f8565b60068054905081106118f7576040517f08c379a00000000000000000000000000000000000000000000000000000000081526004016118ee9061497c565b60405180910390fd5b5b60006119048585612e41565b90506000600585604051611918919061483f565b908152602001604051809103902054905060006006828154811061193f5761193e614856565b5b9060005260206000209060030201600201838154811061196257611961614856565b5b906000526020600020906003020160405180606001604052908160008201805461198b906147d2565b80601f01602080910402602001604051908101604052809291908181526020018280546119b7906147d2565b8015611a045780601f106119d957610100808354040283529160200191611a04565b820191906000526020600020905b8154815290600101906020018083116119e757829003601f168201915b505050505081526020016001820160009054906101000a900473ffffffffffffffffffffffffffffffffffffffff1673ffffffffffffffffffffffffffffffffffffffff1673ffffffffffffffffffffffffffffffffffffffff1681526020016002820154815250509050600060068381548110611a8557611a84614856565b5b9060005260206000209060030201600201600160068581548110611aac57611aab614856565b5b906000526020600020906003020160020180549050611acb9190614bc6565b81548110611adc57611adb614856565b5b9060005260206000209060030201604051806060016040529081600082018054611b05906147d2565b80601f0160208091040260200160405190810160405280929190818152602001828054611b31906147d2565b8015611b7e5780601f10611b5357610100808354040283529160200191611b7e565b820191906000526020600020905b815481529060010190602001808311611b6157829003601f168201915b505050505081526020016001820160009054906101000a900473ffffffffffffffffffffffffffffffffffffffff1673ffffffffffffffffffffffffffffffffffffffff1673ffffffffffffffffffffffffffffffffffffffff16815260200160028201548152505090508160068481548110611bfe57611bfd614856565b5b9060005260206000209060030201600201600160068681548110611c2557611c24614856565b5b906000526020600020906003020160020180549050611c449190614bc6565b81548110611c5557611c54614856565b5b90600052602060002090600302016000820151816000019080519060200190611c7f929190613923565b5060208201518160010160006101000a81548173ffffffffffffffffffffffffffffffffffffffff021916908373ffffffffffffffffffffffffffffffffffffffff160217905550604082015181600201559050508060068481548110611ce957611ce8614856565b5b90600052602060002090600302016002018581548110611d0c57611d0b614856565b5b90600052602060002090600302016000820151816000019080519060200190611d36929190613923565b5060208201518160010160006101000a81548173ffffffffffffffffffffffffffffffffffffffff021916908373ffffffffffffffffffffffffffffffffffffffff1602179055506040820151816002015590505060068381548110611d9f57611d9e614856565b5b9060005260206000209060030201600201805480611dc057611dbf614bfa565b5b600190038181906000526020600020906003020160008082016000611de59190613a36565b6001820160006101000a81549073ffffffffffffffffffffffffffffffffffffffff021916905560028201600090555050905560068381548110611e2c57611e2b614856565b5b9060005260206000209060030201600101604051806060016040528084600001518152602001846020015173ffffffffffffffffffffffffffffffffffffffff168152602001846040015181525090806001815401808255809150506001900390600052602060002090600302016000909190919091506000820151816000019080519060200190611ebf929190613923565b5060208201518160010160006101000a81548173ffffffffffffffffffffffffffffffffffffffff021916908373ffffffffffffffffffffffffffffffffffffffff1602179055506040820151816002015550507fb7d6a3b17c92b01c02a50ba3addc403c6c617c4b786465a271a98e07208346988389604051611f44929190614dd3565b60405180910390a15050505050505050565b806000600582604051611f69919061483f565b9081526020016040518091039020549050600081036120395781604051602001611f93919061483f565b6040516020818303038152906040528051906020012060068281548110611fbd57611fbc614856565b5b9060005260206000209060030201600001604051602001611fde9190614919565b6040516020818303038152906040528051906020012014612034576040517f08c379a000000000000000000000000000000000000000000000000000000000815260040161202b9061497c565b60405180910390fd5b612081565b6006805490508110612080576040517f08c379a00000000000000000000000000000000000000000000000000000000081526004016120779061497c565b60405180910390fd5b5b6000600584604051612093919061483f565b9081526020016040518091039020549050600681815481106120b8576120b7614856565b5b906000526020600020906003020160020160405180606001604052808781526020013373ffffffffffffffffffffffffffffffffffffffff16815260200161211e3360058960405161210a919061483f565b9081526020016040518091039020546104a3565b81525090806001815401808255809150506001900390600052602060002090600302016000909190919091506000820151816000019080519060200190612166929190613923565b5060208201518160010160006101000a81548173ffffffffffffffffffffffffffffffffffffffff021916908373ffffffffffffffffffffffffffffffffffffffff1602179055506040820151816002015550507f7b7acf540aac5e16ce3dfbd4d106c203a301da603c18502d179f60282962e5c48486836040516121ed93929190614eae565b60405180910390a15050505050565b6000600160008473ffffffffffffffffffffffffffffffffffffffff1673ffffffffffffffffffffffffffffffffffffffff16815260200190815260200160002060008373ffffffffffffffffffffffffffffffffffffffff1673ffffffffffffffffffffffffffffffffffffffff16815260200190815260200160002060009054906101000a900460ff16905092915050565b6122986126b8565b73ffffffffffffffffffffffffffffffffffffffff168573ffffffffffffffffffffffffffffffffffffffff1614806122de57506122dd856122d86126b8565b6121fc565b5b61231d576040517f08c379a000000000000000000000000000000000000000000000000000000000815260040161231490614a85565b60405180910390fd5b61232a8585858585613047565b5050505050565b612339612b91565b600073ffffffffffffffffffffffffffffffffffffffff168173ffffffffffffffffffffffffffffffffffffffff16036123a8576040517f08c379a000000000000000000000000000000000000000000000000000000000815260040161239f90614f78565b60405180910390fd5b6123b181612c0f565b50565b8160006005826040516123c7919061483f565b90815260200160405180910390205490506000810361249757816040516020016123f1919061483f565b604051602081830303815290604052805190602001206006828154811061241b5761241a614856565b5b906000526020600020906003020160000160405160200161243c9190614919565b6040516020818303038152906040528051906020012014612492576040517f08c379a00000000000000000000000000000000000000000000000000000000081526004016124899061497c565b60405180910390fd5b6124df565b60068054905081106124de576040517f08c379a00000000000000000000000000000000000000000000000000000000081526004016124d59061497c565b60405180910390fd5b5b60006005856040516124f1919061483f565b9081526020016040518091039020549050600061250e33836104a3565b905060008111612553576040517f08c379a000000000000000000000000000000000000000000000000000000000815260040161254a9061500a565b60405180910390fd5b600061255f8688612e41565b9050816006848154811061257657612575614856565b5b9060005260206000209060030201600201828154811061259957612598614856565b5b906000526020600020906003020160020160008282546125b9919061502a565b925050819055507f743c16c267e2d28a35aaac11b4df7b5e852f06043534befa9bbc8026b58c4d40838733600687815481106125f8576125f7614856565b5b9060005260206000209060030201600201858154811061261b5761261a614856565b5b90600052602060002090600302016002015460405161263d94939291906150cc565b60405180910390a150505050505050565b60007f01ffc9a7000000000000000000000000000000000000000000000000000000007bffffffffffffffffffffffffffffffffffffffffffffffffffffffff1916827bffffffffffffffffffffffffffffffffffffffffffffffffffffffff1916149050919050565b600033905090565b8151835114612704576040517f08c379a00000000000000000000000000000000000000000000000000000000081526004016126fb9061519d565b60405180910390fd5b600073ffffffffffffffffffffffffffffffffffffffff168473ffffffffffffffffffffffffffffffffffffffff1603612773576040517f08c379a000000000000000000000000000000000000000000000000000000000815260040161276a9061522f565b60405180910390fd5b600061277d6126b8565b905061278d8187878787876132e2565b60005b845181101561293e5760008582815181106127ae576127ad614856565b5b6020026020010151905060008583815181106127cd576127cc614856565b5b60200260200101519050600080600084815260200190815260200160002060008b73ffffffffffffffffffffffffffffffffffffffff1673ffffffffffffffffffffffffffffffffffffffff1681526020019081526020016000205490508181101561286e576040517f08c379a0000000000000000000000000000000000000000000000000000000008152600401612865906152c1565b60405180910390fd5b81810360008085815260200190815260200160002060008c73ffffffffffffffffffffffffffffffffffffffff1673ffffffffffffffffffffffffffffffffffffffff168152602001908152602001600020819055508160008085815260200190815260200160002060008b73ffffffffffffffffffffffffffffffffffffffff1673ffffffffffffffffffffffffffffffffffffffff1681526020019081526020016000206000828254612923919061502a565b9250508190555050505080612937906149cb565b9050612790565b508473ffffffffffffffffffffffffffffffffffffffff168673ffffffffffffffffffffffffffffffffffffffff168273ffffffffffffffffffffffffffffffffffffffff167f4a39dc06d4c0dbc64b70af90fd698a233a518aa5d07e595d983b8c0526c8f7fb87876040516129b59291906152e1565b60405180910390a46129cb8187878787876132f8565b6129d9818787878787613300565b505050505050565b600073ffffffffffffffffffffffffffffffffffffffff168473ffffffffffffffffffffffffffffffffffffffff1603612a50576040517f08c379a0000000000000000000000000000000000000000000000000000000008152600401612a479061538a565b60405180910390fd5b6000612a5a6126b8565b90506000612a67856134d7565b90506000612a74856134d7565b9050612a85836000898585896132e2565b8460008088815260200190815260200160002060008973ffffffffffffffffffffffffffffffffffffffff1673ffffffffffffffffffffffffffffffffffffffff1681526020019081526020016000206000828254612ae4919061502a565b925050819055508673ffffffffffffffffffffffffffffffffffffffff16600073ffffffffffffffffffffffffffffffffffffffff168473ffffffffffffffffffffffffffffffffffffffff167fc3d58168c5ae7397731d063d5bbf3d657854427343f4c083240f7aacaa2d0f628989604051612b629291906153aa565b60405180910390a4612b79836000898585896132f8565b612b8883600089898989613551565b50505050505050565b612b996126b8565b73ffffffffffffffffffffffffffffffffffffffff16612bb76115d2565b73ffffffffffffffffffffffffffffffffffffffff1614612c0d576040517f08c379a0000000000000000000000000000000000000000000000000000000008152600401612c049061541f565b60405180910390fd5b565b6000600360009054906101000a900473ffffffffffffffffffffffffffffffffffffffff16905081600360006101000a81548173ffffffffffffffffffffffffffffffffffffffff021916908373ffffffffffffffffffffffffffffffffffffffff1602179055508173ffffffffffffffffffffffffffffffffffffffff168173ffffffffffffffffffffffffffffffffffffffff167f8be0079c531659141344cd1fd0a4f28419497f9722a3daafe3b4186f6b6457e060405160405180910390a35050565b8173ffffffffffffffffffffffffffffffffffffffff168373ffffffffffffffffffffffffffffffffffffffff1603612d43576040517f08c379a0000000000000000000000000000000000000000000000000000000008152600401612d3a906154b1565b60405180910390fd5b80600160008573ffffffffffffffffffffffffffffffffffffffff1673ffffffffffffffffffffffffffffffffffffffff16815260200190815260200160002060008473ffffffffffffffffffffffffffffffffffffffff1673ffffffffffffffffffffffffffffffffffffffff16815260200190815260200160002060006101000a81548160ff0219169083151502179055508173ffffffffffffffffffffffffffffffffffffffff168373ffffffffffffffffffffffffffffffffffffffff167f17307eab39ab6107e8899845ad3d59bd9653f200f220920489ca2b5937696c3183604051612e349190613c45565b60405180910390a3505050565b600080600080600585604051612e57919061483f565b90815260200160405180910390205490506000600160068381548110612e8057612e7f614856565b5b906000526020600020906003020160020180549050612e9f9190614bc6565b90505b60008110612ff357600060068381548110612ec057612ebf614856565b5b90600052602060002090600302016002018281548110612ee357612ee2614856565b5b90600052602060002090600302016000018054612eff906147d2565b80601f0160208091040260200160405190810160405280929190818152602001828054612f2b906147d2565b8015612f785780601f10612f4d57610100808354040283529160200191612f78565b820191906000526020600020905b815481529060010190602001808311612f5b57829003601f168201915b5050505050905087604051602001612f90919061483f565b6040516020818303038152906040528051906020012081604051602001612fb7919061483f565b6040516020818303038152906040528051906020012003612fdf578194506001935050612ff3565b508080612feb90614c29565b915050612ea2565b50600115158215151461303b576040517f08c379a00000000000000000000000000000000000000000000000000000000081526004016130329061551d565b60405180910390fd5b82935050505092915050565b600073ffffffffffffffffffffffffffffffffffffffff168473ffffffffffffffffffffffffffffffffffffffff16036130b6576040517f08c379a00000000000000000000000000000000000000000000000000000000081526004016130ad9061522f565b60405180910390fd5b60006130c06126b8565b905060006130cd856134d7565b905060006130da856134d7565b90506130ea8389898585896132e2565b600080600088815260200190815260200160002060008a73ffffffffffffffffffffffffffffffffffffffff1673ffffffffffffffffffffffffffffffffffffffff16815260200190815260200160002054905085811015613181576040517f08c379a0000000000000000000000000000000000000000000000000000000008152600401613178906152c1565b60405180910390fd5b85810360008089815260200190815260200160002060008b73ffffffffffffffffffffffffffffffffffffffff1673ffffffffffffffffffffffffffffffffffffffff168152602001908152602001600020819055508560008089815260200190815260200160002060008a73ffffffffffffffffffffffffffffffffffffffff1673ffffffffffffffffffffffffffffffffffffffff1681526020019081526020016000206000828254613236919061502a565b925050819055508773ffffffffffffffffffffffffffffffffffffffff168973ffffffffffffffffffffffffffffffffffffffff168573ffffffffffffffffffffffffffffffffffffffff167fc3d58168c5ae7397731d063d5bbf3d657854427343f4c083240f7aacaa2d0f628a8a6040516132b39291906153aa565b60405180910390a46132c9848a8a86868a6132f8565b6132d7848a8a8a8a8a613551565b505050505050505050565b6132f0868686868686613728565b505050505050565b505050505050565b61331f8473ffffffffffffffffffffffffffffffffffffffff166138f8565b156134cf578373ffffffffffffffffffffffffffffffffffffffff1663bc197c8187878686866040518663ffffffff1660e01b8152600401613365959493929190615592565b6020604051808303816000875af19250505080156133a157506040513d601f19601f8201168201806040525081019061339e919061560f565b60015b613446576133ad615649565b806308c379a00361340957506133c161566b565b806133cc575061340b565b806040517f08c379a00000000000000000000000000000000000000000000000000000000081526004016134009190613d26565b60405180910390fd5b505b6040517f08c379a000000000000000000000000000000000000000000000000000000000815260040161343d9061576d565b60405180910390fd5b63bc197c8160e01b7bffffffffffffffffffffffffffffffffffffffffffffffffffffffff1916817bffffffffffffffffffffffffffffffffffffffffffffffffffffffff1916146134cd576040517f08c379a00000000000000000000000000000000000000000000000000000000081526004016134c4906157ff565b60405180910390fd5b505b505050505050565b60606000600167ffffffffffffffff8111156134f6576134f5613d52565b5b6040519080825280602002602001820160405280156135245781602001602082028036833780820191505090505b509050828160008151811061353c5761353b614856565b5b60200260200101818152505080915050919050565b6135708473ffffffffffffffffffffffffffffffffffffffff166138f8565b15613720578373ffffffffffffffffffffffffffffffffffffffff1663f23a6e6187878686866040518663ffffffff1660e01b81526004016135b695949392919061581f565b6020604051808303816000875af19250505080156135f257506040513d601f19601f820116820180604052508101906135ef919061560f565b60015b613697576135fe615649565b806308c379a00361365a575061361261566b565b8061361d575061365c565b806040517f08c379a00000000000000000000000000000000000000000000000000000000081526004016136519190613d26565b60405180910390fd5b505b6040517f08c379a000000000000000000000000000000000000000000000000000000000815260040161368e9061576d565b60405180910390fd5b63f23a6e6160e01b7bffffffffffffffffffffffffffffffffffffffffffffffffffffffff1916817bffffffffffffffffffffffffffffffffffffffffffffffffffffffff19161461371e576040517f08c379a0000000000000000000000000000000000000000000000000000000008152600401613715906157ff565b60405180910390fd5b505b505050505050565b61373686868686868661391b565b600073ffffffffffffffffffffffffffffffffffffffff168573ffffffffffffffffffffffffffffffffffffffff16036137e75760005b83518110156137e55782818151811061378957613788614856565b5b6020026020010151600460008684815181106137a8576137a7614856565b5b6020026020010151815260200190815260200160002060008282546137cd919061502a565b92505081905550806137de906149cb565b905061376d565b505b600073ffffffffffffffffffffffffffffffffffffffff168473ffffffffffffffffffffffffffffffffffffffff16036138f05760005b83518110156138ee57600084828151811061383c5761383b614856565b5b60200260200101519050600084838151811061385b5761385a614856565b5b60200260200101519050600060046000848152602001908152602001600020549050818110156138c0576040517f08c379a00000000000000000000000000000000000000000000000000000000081526004016138b7906158eb565b60405180910390fd5b8181036004600085815260200190815260200160002081905550505050806138e7906149cb565b905061381e565b505b505050505050565b6000808273ffffffffffffffffffffffffffffffffffffffff163b119050919050565b505050505050565b82805461392f906147d2565b90600052602060002090601f0160209004810192826139515760008555613998565b82601f1061396a57805160ff1916838001178555613998565b82800160010185558215613998579182015b8281111561399757825182559160200191906001019061397c565b5b5090506139a59190613a76565b5090565b8280546139b5906147d2565b90600052602060002090601f0160209004810192826139d75760008555613a25565b82601f106139e85780548555613a25565b82800160010185558215613a2557600052602060002091601f016020900482015b82811115613a24578254825591600101919060010190613a09565b5b509050613a329190613a76565b5090565b508054613a42906147d2565b6000825580601f10613a545750613a73565b601f016020900490600052602060002090810190613a729190613a76565b5b50565b5b80821115613a8f576000816000905550600101613a77565b5090565b6000604051905090565b600080fd5b600080fd5b600073ffffffffffffffffffffffffffffffffffffffff82169050919050565b6000613ad282613aa7565b9050919050565b613ae281613ac7565b8114613aed57600080fd5b50565b600081359050613aff81613ad9565b92915050565b6000819050919050565b613b1881613b05565b8114613b2357600080fd5b50565b600081359050613b3581613b0f565b92915050565b60008060408385031215613b5257613b51613a9d565b5b6000613b6085828601613af0565b9250506020613b7185828601613b26565b9150509250929050565b613b8481613b05565b82525050565b6000602082019050613b9f6000830184613b7b565b92915050565b60007fffffffff0000000000000000000000000000000000000000000000000000000082169050919050565b613bda81613ba5565b8114613be557600080fd5b50565b600081359050613bf781613bd1565b92915050565b600060208284031215613c1357613c12613a9d565b5b6000613c2184828501613be8565b91505092915050565b60008115159050919050565b613c3f81613c2a565b82525050565b6000602082019050613c5a6000830184613c36565b92915050565b600060208284031215613c7657613c75613a9d565b5b6000613c8484828501613b26565b91505092915050565b600081519050919050565b600082825260208201905092915050565b60005b83811015613cc7578082015181840152602081019050613cac565b83811115613cd6576000848401525b50505050565b6000601f19601f8301169050919050565b6000613cf882613c8d565b613d028185613c98565b9350613d12818560208601613ca9565b613d1b81613cdc565b840191505092915050565b60006020820190508181036000830152613d408184613ced565b905092915050565b600080fd5b600080fd5b7f4e487b7100000000000000000000000000000000000000000000000000000000600052604160045260246000fd5b613d8a82613cdc565b810181811067ffffffffffffffff82111715613da957613da8613d52565b5b80604052505050565b6000613dbc613a93565b9050613dc88282613d81565b919050565b600067ffffffffffffffff821115613de857613de7613d52565b5b613df182613cdc565b9050602081019050919050565b82818337600083830152505050565b6000613e20613e1b84613dcd565b613db2565b905082815260208101848484011115613e3c57613e3b613d4d565b5b613e47848285613dfe565b509392505050565b600082601f830112613e6457613e63613d48565b5b8135613e74848260208601613e0d565b91505092915050565b60008060408385031215613e9457613e93613a9d565b5b6000613ea285828601613af0565b925050602083013567ffffffffffffffff811115613ec357613ec2613aa2565b5b613ecf85828601613e4f565b9150509250929050565b600060208284031215613eef57613eee613a9d565b5b600082013567ffffffffffffffff811115613f0d57613f0c613aa2565b5b613f1984828501613e4f565b91505092915050565b600081519050919050565b600082825260208201905092915050565b6000819050602082019050919050565b600082825260208201905092915050565b6000613f6a82613c8d565b613f748185613f4e565b9350613f84818560208601613ca9565b613f8d81613cdc565b840191505092915050565b6000613fa48383613f5f565b905092915050565b6000602082019050919050565b6000613fc482613f22565b613fce8185613f2d565b935083602082028501613fe085613f3e565b8060005b8581101561401c5784840389528151613ffd8582613f98565b945061400883613fac565b925060208a01995050600181019050613fe4565b50829750879550505050505092915050565b600060208201905081810360008301526140488184613fb9565b905092915050565b600067ffffffffffffffff82111561406b5761406a613d52565b5b602082029050602081019050919050565b600080fd5b600061409461408f84614050565b613db2565b905080838252602082019050602084028301858111156140b7576140b661407c565b5b835b818110156140e057806140cc8882613b26565b8452602084019350506020810190506140b9565b5050509392505050565b600082601f8301126140ff576140fe613d48565b5b813561410f848260208601614081565b91505092915050565b600067ffffffffffffffff82111561413357614132613d52565b5b61413c82613cdc565b9050602081019050919050565b600061415c61415784614118565b613db2565b90508281526020810184848401111561417857614177613d4d565b5b614183848285613dfe565b509392505050565b600082601f8301126141a05761419f613d48565b5b81356141b0848260208601614149565b91505092915050565b600080600080600060a086880312156141d5576141d4613a9d565b5b60006141e388828901613af0565b95505060206141f488828901613af0565b945050604086013567ffffffffffffffff81111561421557614214613aa2565b5b614221888289016140ea565b935050606086013567ffffffffffffffff81111561424257614241613aa2565b5b61424e888289016140ea565b925050608086013567ffffffffffffffff81111561426f5761426e613aa2565b5b61427b8882890161418b565b9150509295509295909350565b600067ffffffffffffffff8211156142a3576142a2613d52565b5b602082029050602081019050919050565b60006142c76142c284614288565b613db2565b905080838252602082019050602084028301858111156142ea576142e961407c565b5b835b8181101561431357806142ff8882613af0565b8452602084019350506020810190506142ec565b5050509392505050565b600082601f83011261433257614331613d48565b5b81356143428482602086016142b4565b91505092915050565b6000806040838503121561436257614361613a9d565b5b600083013567ffffffffffffffff8111156143805761437f613aa2565b5b61438c8582860161431d565b925050602083013567ffffffffffffffff8111156143ad576143ac613aa2565b5b6143b9858286016140ea565b9150509250929050565b600081519050919050565b600082825260208201905092915050565b6000819050602082019050919050565b6143f881613b05565b82525050565b600061440a83836143ef565b60208301905092915050565b6000602082019050919050565b600061442e826143c3565b61443881856143ce565b9350614443836143df565b8060005b8381101561447457815161445b88826143fe565b975061446683614416565b925050600181019050614447565b5085935050505092915050565b6000602082019050818103600083015261449b8184614423565b905092915050565b600080604083850312156144ba576144b9613a9d565b5b600083013567ffffffffffffffff8111156144d8576144d7613aa2565b5b6144e485828601613e4f565b925050602083013567ffffffffffffffff81111561450557614504613aa2565b5b61451185828601613e4f565b9150509250929050565b6000806040838503121561453257614531613a9d565b5b600083013567ffffffffffffffff8111156145505761454f613aa2565b5b61455c85828601613e4f565b925050602061456d85828601613b26565b9150509250929050565b61458081613ac7565b82525050565b600060208201905061459b6000830184614577565b92915050565b6145aa81613c2a565b81146145b557600080fd5b50565b6000813590506145c7816145a1565b92915050565b600080604083850312156145e4576145e3613a9d565b5b60006145f285828601613af0565b9250506020614603858286016145b8565b9150509250929050565b6000806040838503121561462457614623613a9d565b5b600061463285828601613af0565b925050602061464385828601613af0565b9150509250929050565b600080600080600060a0868803121561466957614668613a9d565b5b600061467788828901613af0565b955050602061468888828901613af0565b945050604061469988828901613b26565b93505060606146aa88828901613b26565b925050608086013567ffffffffffffffff8111156146cb576146ca613aa2565b5b6146d78882890161418b565b9150509295509295909350565b6000602082840312156146fa576146f9613a9d565b5b600061470884828501613af0565b91505092915050565b7f455243313135353a2061646472657373207a65726f206973206e6f742061207660008201527f616c6964206f776e657200000000000000000000000000000000000000000000602082015250565b600061476d602a83613c98565b915061477882614711565b604082019050919050565b6000602082019050818103600083015261479c81614760565b9050919050565b7f4e487b7100000000000000000000000000000000000000000000000000000000600052602260045260246000fd5b600060028204905060018216806147ea57607f821691505b6020821081036147fd576147fc6147a3565b5b50919050565b600081905092915050565b600061481982613c8d565b6148238185614803565b9350614833818560208601613ca9565b80840191505092915050565b600061484b828461480e565b915081905092915050565b7f4e487b7100000000000000000000000000000000000000000000000000000000600052603260045260246000fd5b60008190508160005260206000209050919050565b600081546148a7816147d2565b6148b18186614803565b945060018216600081146148cc57600181146148dd57614910565b60ff19831686528186019350614910565b6148e685614885565b60005b83811015614908578154818901526001820191506020810190506148e9565b838801955050505b50505092915050565b6000614925828461489a565b915081905092915050565b7f50726f6a65637420646f206e6f74206578697374000000000000000000000000600082015250565b6000614966601483613c98565b915061497182614930565b602082019050919050565b6000602082019050818103600083015261499581614959565b9050919050565b7f4e487b7100000000000000000000000000000000000000000000000000000000600052601160045260246000fd5b60006149d682613b05565b91507fffffffffffffffffffffffffffffffffffffffffffffffffffffffffffffffff8203614a0857614a0761499c565b5b600182019050919050565b7f455243313135353a2063616c6c6572206973206e6f7420746f6b656e206f776e60008201527f6572206f7220617070726f766564000000000000000000000000000000000000602082015250565b6000614a6f602e83613c98565b9150614a7a82614a13565b604082019050919050565b60006020820190508181036000830152614a9e81614a62565b9050919050565b7f455243313135353a206163636f756e747320616e6420696473206c656e67746860008201527f206d69736d617463680000000000000000000000000000000000000000000000602082015250565b6000614b01602983613c98565b9150614b0c82614aa5565b604082019050919050565b60006020820190508181036000830152614b3081614af4565b9050919050565b7f4e65772070726f6a656374206372656174656420776974682049443a00000000600082015250565b6000614b6d601c83613c98565b9150614b7882614b37565b602082019050919050565b60006060820190508181036000830152614b9c81614b60565b90508181036020830152614bb08185613ced565b9050614bbf6040830184613b7b565b9392505050565b6000614bd182613b05565b9150614bdc83613b05565b925082821015614bef57614bee61499c565b5b828203905092915050565b7f4e487b7100000000000000000000000000000000000000000000000000000000600052603160045260246000fd5b6000614c3482613b05565b915060008203614c4757614c4661499c565b5b600182039050919050565b7f50726f6a656374206368616e67656420746f20737465703a2000000000000000600082015250565b6000614c88601983613c98565b9150614c9382614c52565b602082019050919050565b60008154614cab816147d2565b614cb58186613c98565b94506001821660008114614cd05760018114614ce257614d15565b60ff1983168652602086019350614d15565b614ceb85614885565b60005b83811015614d0d57815481890152600182019150602081019050614cee565b808801955050505b50505092915050565b60006060820190508181036000830152614d3781614c7b565b9050614d466020830185613b7b565b8181036040830152614d588184614c9e565b90509392505050565b7f41206e6577206368616e676520686173206265656e206d61646520746f20707260008201527f6f6a65637420776974682049443a200000000000000000000000000000000000602082015250565b6000614dbd602f83613c98565b9150614dc882614d61565b604082019050919050565b60006060820190508181036000830152614dec81614db0565b9050614dfb6020830185613b7b565b8181036040830152614e0d8184613ced565b90509392505050565b7f4e6577206368616e67652070726f706f73616c20746f207468652050726f6a6560008201527f6374207769746820746865206e616d6520616e6420666f6c6c6f77696e67204960208201527f4420616e64204349443a00000000000000000000000000000000000000000000604082015250565b6000614e98604a83613c98565b9150614ea382614e16565b606082019050919050565b60006080820190508181036000830152614ec781614e8b565b90508181036020830152614edb8186613ced565b90508181036040830152614eef8185613ced565b9050614efe6060830184613b7b565b949350505050565b7f4f776e61626c653a206e6577206f776e657220697320746865207a65726f206160008201527f6464726573730000000000000000000000000000000000000000000000000000602082015250565b6000614f62602683613c98565b9150614f6d82614f06565b604082019050919050565b60006020820190508181036000830152614f9181614f55565b9050919050565b7f596f7520646f6e2774206861766520656e6f75676820756e7573656420746f6b60008201527f656e730000000000000000000000000000000000000000000000000000000000602082015250565b6000614ff4602383613c98565b9150614fff82614f98565b604082019050919050565b6000602082019050818103600083015261502381614fe7565b9050919050565b600061503582613b05565b915061504083613b05565b9250827fffffffffffffffffffffffffffffffffffffffffffffffffffffffffffffffff038211156150755761507461499c565b5b828201905092915050565b7f4e657720766f746520666f722070726f706f73616c206368616e67653a000000600082015250565b60006150b6601d83613c98565b91506150c182615080565b602082019050919050565b600060a08201905081810360008301526150e5816150a9565b90506150f46020830187613b7b565b81810360408301526151068186613ced565b90506151156060830185614577565b6151226080830184613b7b565b95945050505050565b7f455243313135353a2069647320616e6420616d6f756e7473206c656e6774682060008201527f6d69736d61746368000000000000000000000000000000000000000000000000602082015250565b6000615187602883613c98565b91506151928261512b565b604082019050919050565b600060208201905081810360008301526151b68161517a565b9050919050565b7f455243313135353a207472616e7366657220746f20746865207a65726f20616460008201527f6472657373000000000000000000000000000000000000000000000000000000602082015250565b6000615219602583613c98565b9150615224826151bd565b604082019050919050565b600060208201905081810360008301526152488161520c565b9050919050565b7f455243313135353a20696e73756666696369656e742062616c616e636520666f60008201527f72207472616e7366657200000000000000000000000000000000000000000000602082015250565b60006152ab602a83613c98565b91506152b68261524f565b604082019050919050565b600060208201905081810360008301526152da8161529e565b9050919050565b600060408201905081810360008301526152fb8185614423565b9050818103602083015261530f8184614423565b90509392505050565b7f455243313135353a206d696e7420746f20746865207a65726f2061646472657360008201527f7300000000000000000000000000000000000000000000000000000000000000602082015250565b6000615374602183613c98565b915061537f82615318565b604082019050919050565b600060208201905081810360008301526153a381615367565b9050919050565b60006040820190506153bf6000830185613b7b565b6153cc6020830184613b7b565b9392505050565b7f4f776e61626c653a2063616c6c6572206973206e6f7420746865206f776e6572600082015250565b6000615409602083613c98565b9150615414826153d3565b602082019050919050565b60006020820190508181036000830152615438816153fc565b9050919050565b7f455243313135353a2073657474696e6720617070726f76616c2073746174757360008201527f20666f722073656c660000000000000000000000000000000000000000000000602082015250565b600061549b602983613c98565b91506154a68261543f565b604082019050919050565b600060208201905081810360008301526154ca8161548e565b9050919050565b7f50726f706f736564206368616e676520646f65736e2774206578697374000000600082015250565b6000615507601d83613c98565b9150615512826154d1565b602082019050919050565b60006020820190508181036000830152615536816154fa565b9050919050565b600081519050919050565b600082825260208201905092915050565b60006155648261553d565b61556e8185615548565b935061557e818560208601613ca9565b61558781613cdc565b840191505092915050565b600060a0820190506155a76000830188614577565b6155b46020830187614577565b81810360408301526155c68186614423565b905081810360608301526155da8185614423565b905081810360808301526155ee8184615559565b90509695505050505050565b60008151905061560981613bd1565b92915050565b60006020828403121561562557615624613a9d565b5b6000615633848285016155fa565b91505092915050565b60008160e01c9050919050565b600060033d11156156685760046000803e61566560005161563c565b90505b90565b600060443d106156f85761567d613a93565b60043d036004823e80513d602482011167ffffffffffffffff821117156156a55750506156f8565b808201805167ffffffffffffffff8111156156c357505050506156f8565b80602083010160043d0385018111156156e05750505050506156f8565b6156ef82602001850186613d81565b82955050505050505b90565b7f455243313135353a207472616e7366657220746f206e6f6e2d4552433131353560008201527f526563656976657220696d706c656d656e746572000000000000000000000000602082015250565b6000615757603483613c98565b9150615762826156fb565b604082019050919050565b600060208201905081810360008301526157868161574a565b9050919050565b7f455243313135353a204552433131353552656365697665722072656a6563746560008201527f6420746f6b656e73000000000000000000000000000000000000000000000000602082015250565b60006157e9602883613c98565b91506157f48261578d565b604082019050919050565b60006020820190508181036000830152615818816157dc565b9050919050565b600060a0820190506158346000830188614577565b6158416020830187614577565b61584e6040830186613b7b565b61585b6060830185613b7b565b818103608083015261586d8184615559565b90509695505050505050565b7f455243313135353a206275726e20616d6f756e74206578636565647320746f7460008201527f616c537570706c79000000000000000000000000000000000000000000000000602082015250565b60006158d5602883613c98565b91506158e082615879565b604082019050919050565b60006020820190508181036000830152615904816158c8565b905091905056fea26469706673582212204e3606567847d8fa178eaa4638df2214e51589b89e736c4c147d9529282e306264736f6c634300080d0033",
  "immutableReferences": {},
  "source": "// SPDX-License-Identifier: MIT\npragma solidity ^0.8.2;\n\nimport \"../node_modules/@openzeppelin/contracts/token/ERC1155/ERC1155.sol\";\nimport \"../node_modules/@openzeppelin/contracts/access/Ownable.sol\";\nimport \"../node_modules/@openzeppelin/contracts/utils/Counters.sol\";\nimport \"../node_modules/@openzeppelin/contracts/token/ERC1155/extensions/ERC1155Supply.sol\";\n\ncontract Steps is ERC1155, Ownable, ERC1155Supply {\n    using Counters for Counters.Counter;\n\n    // -------------------------------------------------------- Mappings\n    mapping(string => uint) public NameToID;\n\n    // -------------------------------------------------------- Structs\n    struct Change {\n        string changeCID;\n        address changeMaker;\n        uint votes;\n    }\n\n    struct Project {\n        string name;\n        Change[] changes;\n        Change[] changeProposals;\n    }\n\n\n    // -------------------------------------------------------- Lists\n    Project[] publicProjects;\n\n    // -------------------------------------------------------- Events\n    event NewProjectCreated(string message, string name, uint value);\n    event NewChangeProposalCreated(string message, string Name, string CID, uint indexValue);\n    event NewVoteForChangeProposal(string message, uint projectCID, string proposedChangeCID, address voter, uint votes);\n    event NewChangeIsMadeToProject(string message, uint projectCID, string changeCID); // Message, Project CID, Message, ChangeCID\n    event ProjectGoBack(string message, uint step, string changeCID);\n\n    // -------------------------------------------------------- Modifiers\n    modifier ProjectExist(string memory _Name) {\n        uint id = NameToID[_Name];\n        if (id == 0) {\n            require(keccak256(abi.encodePacked(publicProjects[id].name)) == keccak256(abi.encodePacked(_Name)), \"Project do not exist\");\n        } else {\n            require(id < publicProjects.length, \"Project do not exist\");\n        }\n        _;\n    }\n\n    // -------------------------------------------------------- Constructor\n    constructor() ERC1155(\"URI\") {\n\n    } // change URI to the website\n\n    // -------------------------------------------------------- Functions\n    function _beforeTokenTransfer(address operator, address from, address to, uint256[] memory ids, uint256[] memory amounts, bytes memory data) internal override(ERC1155, ERC1155Supply) {\n        super._beforeTokenTransfer(operator, from, to, ids, amounts, data);\n    }\n\n    function createProject(string memory _CID, string memory projectName) public {\n        // Create Project's Token and Mint\n        uint newProjectID = publicProjects.length;\n        NameToID[projectName] = newProjectID;\n        _mint(msg.sender, newProjectID, 1000000, \"\");\n        \n        // Create New Project\n        Project storage newProject = publicProjects.push();\n        newProject.name = projectName;\n        Change memory newChange = Change(_CID, msg.sender, 1);\n        newProject.changes.push(newChange);\n        emit NewProjectCreated(\"New project created with ID:\", projectName, newProjectID);\n    }\n\n\n    function changeProposal(string memory _changeCID, string memory _ProjectName) ProjectExist(_ProjectName) public {\n        uint projectIDX = NameToID[_ProjectName];\n        publicProjects[projectIDX].changeProposals.push(Change(_changeCID, msg.sender, balanceOf(msg.sender, NameToID[_ProjectName])));\n        emit NewChangeProposalCreated(\"New change proposal to the Project with the name and following ID and CID:\", _ProjectName, _changeCID, projectIDX);\n    }\n\n\n    function goBack(string memory _ProjectName, uint _step) ProjectExist(_ProjectName) public {\n        uint projectIDX = NameToID[_ProjectName];\n        for (uint index = publicProjects[projectIDX].changes.length; index > _step; index--) {\n            publicProjects[projectIDX].changeProposals.push(publicProjects[projectIDX].changes[index - 1]);\n            publicProjects[projectIDX].changes.pop();\n        }\n\n        emit ProjectGoBack(\"Project changed to step: \", _step, publicProjects[projectIDX].changes[publicProjects[projectIDX].changes.length - 1].changeCID);\n    }\n\n    function getChangeProposalIndex(string memory _ChangeCID, string memory _projectName) internal view returns (uint)  {\n        uint _proposedChangeIdx;\n        bool found;\n\n        uint idx = NameToID[_projectName];\n        for (uint index = publicProjects[idx].changeProposals.length - 1; index >= 0; index--) {\n            string memory changeCIDcheck = publicProjects[idx].changeProposals[index].changeCID;\n            if (keccak256(abi.encodePacked(changeCIDcheck)) == keccak256(abi.encodePacked(_ChangeCID))) {\n                _proposedChangeIdx = index;\n                found = true;\n                break;\n            }\n        }\n\n        require(found == true, \"Proposed change doesn't exist\");\n        return _proposedChangeIdx;\n    }\n\n    function accept(string memory _proposedChangeCID, string memory _projectName) ProjectExist(_projectName) public {\n        uint _proposedChangeIdx = getChangeProposalIndex(_proposedChangeCID, _projectName);\n        uint projectID = NameToID[_projectName];\n\n        Change memory proposedChange = publicProjects[projectID].changeProposals[_proposedChangeIdx];\n        Change memory LastProposedChange = publicProjects[projectID].changeProposals[publicProjects[projectID].changeProposals.length - 1];\n        publicProjects[projectID].changeProposals[publicProjects[projectID].changeProposals.length - 1] = proposedChange;\n        publicProjects[projectID].changeProposals[_proposedChangeIdx] = LastProposedChange;\n        publicProjects[projectID].changeProposals.pop();\n        \n        publicProjects[projectID].changes.push(Change(proposedChange.changeCID, proposedChange.changeMaker, proposedChange.votes));\n\n        emit NewChangeIsMadeToProject(\"A new change has been made to project with ID: \", projectID, _proposedChangeCID);\n    }\n\n    function getBalance(address _address, string memory _projectName) ProjectExist(_projectName) external view returns (uint) {\n        return balanceOf(_address, NameToID[_projectName]);\n    }\n\n    function voteToProposedChange(string memory _projectName, string memory _proposedChangeCID) ProjectExist(_projectName) public {\n        uint projectID = NameToID[_projectName];\n        uint votingPower = balanceOf(msg.sender, projectID);\n        require(votingPower > 0, \"You don't have enough unused tokens\");\n        uint _proposedChangeIdx = getChangeProposalIndex(_proposedChangeCID, _projectName);\n\n        publicProjects[projectID].changeProposals[_proposedChangeIdx].votes += votingPower;\n        \n        emit NewVoteForChangeProposal(\n            \"New vote for proposal change:\",\n            projectID,\n            _proposedChangeCID,\n            msg.sender,\n            publicProjects[projectID].changeProposals[_proposedChangeIdx].votes\n        );\n    }\n\n    function getProjectChanges(string memory _projectName) ProjectExist(_projectName) external view returns (string[] memory) {\n        uint projectIDX = NameToID[_projectName];\n        uint arr_length = publicProjects[projectIDX].changes.length;\n        string[] memory allChanges = new string[](arr_length);\n\n        for (uint256 i = 0; i < arr_length; i++) {\n            allChanges[i] = publicProjects[projectIDX].changes[i].changeCID;\n        }\n\n        return allChanges;\n    }\n\n    function getProjectChangeProposals(string memory _projectName) ProjectExist(_projectName) external view returns (string[] memory) {\n        uint projectIDX = NameToID[_projectName];\n        uint arr_length = publicProjects[projectIDX].changeProposals.length;\n        string[] memory allChanges = new string[](arr_length);\n\n        for (uint256 i = 0; i < arr_length; i++) {\n            allChanges[i] = publicProjects[projectIDX].changeProposals[i].changeCID;\n        }\n\n        return allChanges;\n    }\n\n    function getLastProjects() external view returns (string[] memory) {\n        uint arr_length = publicProjects.length;\n        uint arr_index = publicProjects.length;\n        if (arr_length > 10) {\n            arr_length = 10;\n        }\n\n        string[] memory lastProjects = new string[](arr_length);\n        if (publicProjects.length > 0) {\n        for (uint256 i = arr_index - arr_length; i < arr_index; i++) {\n            lastProjects[arr_index - 1 - i] = publicProjects[i].name; \n        }}\n        return lastProjects;\n    }\n}\n",
  "sourcePath": "c:\\Users\\User\\Desktop\\\\davidson\\project\\DavidsonProject\\Smart Contract\\contracts\\Steps.sol",
  "compiler": {
    "name": "solc",
    "version": "0.8.13+commit.abaa5c0e.Emscripten.clang"
  },
  "schemaVersion": "3.4.16",
  "updatedAt": "2024-01-07T18:57:41.384Z",
  "networkType": "ethereum",
  "devdoc": {
    "kind": "dev",
    "methods": {
      "balanceOf(address,uint256)": {
        "details": "See {IERC1155-balanceOf}. Requirements: - `account` cannot be the zero address."
      },
      "balanceOfBatch(address[],uint256[])": {
        "details": "See {IERC1155-balanceOfBatch}. Requirements: - `accounts` and `ids` must have the same length."
      },
      "exists(uint256)": {
        "details": "Indicates whether any token exist with a given id, or not."
      },
      "isApprovedForAll(address,address)": {
        "details": "See {IERC1155-isApprovedForAll}."
      },
      "owner()": {
        "details": "Returns the address of the current owner."
      },
      "renounceOwnership()": {
        "details": "Leaves the contract without owner. It will not be possible to call `onlyOwner` functions. Can only be called by the current owner. NOTE: Renouncing ownership will leave the contract without an owner, thereby disabling any functionality that is only available to the owner."
      },
      "safeBatchTransferFrom(address,address,uint256[],uint256[],bytes)": {
        "details": "See {IERC1155-safeBatchTransferFrom}."
      },
      "safeTransferFrom(address,address,uint256,uint256,bytes)": {
        "details": "See {IERC1155-safeTransferFrom}."
      },
      "setApprovalForAll(address,bool)": {
        "details": "See {IERC1155-setApprovalForAll}."
      },
      "supportsInterface(bytes4)": {
        "details": "See {IERC165-supportsInterface}."
      },
      "totalSupply(uint256)": {
        "details": "Total amount of tokens in with a given id."
      },
      "transferOwnership(address)": {
        "details": "Transfers ownership of the contract to a new account (`newOwner`). Can only be called by the current owner."
      },
      "uri(uint256)": {
        "details": "See {IERC1155MetadataURI-uri}. This implementation returns the same URI for *all* token types. It relies on the token type ID substitution mechanism https://eips.ethereum.org/EIPS/eip-1155#metadata[defined in the EIP]. Clients calling this function must replace the `\\{id\\}` substring with the actual token type ID."
      }
    },
    "version": 1
  },
  "userdoc": {
    "kind": "user",
    "methods": {},
    "version": 1
  }
}