{
  "contractName": "Steps",
  "abi": [
    {
      "inputs": [],
      "stateMutability": "nonpayable",
      "type": "constructor"
    },
    {
      "anonymous": false,
      "inputs": [
        {
          "indexed": true,
          "internalType": "address",
          "name": "account",
          "type": "address"
        },
        {
          "indexed": true,
          "internalType": "address",
          "name": "operator",
          "type": "address"
        },
        {
          "indexed": false,
          "internalType": "bool",
          "name": "approved",
          "type": "bool"
        }
      ],
      "name": "ApprovalForAll",
      "type": "event"
    },
    {
      "anonymous": false,
      "inputs": [
        {
          "indexed": false,
          "internalType": "string",
          "name": "message",
          "type": "string"
        },
        {
          "indexed": false,
          "internalType": "string",
          "name": "projectName",
          "type": "string"
        },
        {
          "indexed": false,
          "internalType": "string",
          "name": "changeCID",
          "type": "string"
        }
      ],
      "name": "NewChangeIsMadeToProject",
      "type": "event"
    },
    {
      "anonymous": false,
      "inputs": [
        {
          "indexed": false,
          "internalType": "string",
          "name": "message",
          "type": "string"
        },
        {
          "indexed": false,
          "internalType": "string",
          "name": "Name",
          "type": "string"
        },
        {
          "indexed": false,
          "internalType": "string",
          "name": "CID",
          "type": "string"
        },
        {
          "indexed": false,
          "internalType": "uint256",
          "name": "indexValue",
          "type": "uint256"
        }
      ],
      "name": "NewChangeProposalCreated",
      "type": "event"
    },
    {
      "anonymous": false,
      "inputs": [
        {
          "indexed": false,
          "internalType": "string",
          "name": "message",
          "type": "string"
        },
        {
          "indexed": false,
          "internalType": "string",
          "name": "name",
          "type": "string"
        },
        {
          "indexed": false,
          "internalType": "uint256",
          "name": "value",
          "type": "uint256"
        }
      ],
      "name": "NewProjectCreated",
      "type": "event"
    },
    {
      "anonymous": false,
      "inputs": [
        {
          "indexed": false,
          "internalType": "string",
          "name": "message",
          "type": "string"
        },
        {
          "indexed": false,
          "internalType": "string",
          "name": "projectName",
          "type": "string"
        },
        {
          "indexed": false,
          "internalType": "string",
          "name": "changeProposalCID",
          "type": "string"
        },
        {
          "indexed": false,
          "internalType": "address",
          "name": "voter",
          "type": "address"
        },
        {
          "indexed": false,
          "internalType": "uint256",
          "name": "votes",
          "type": "uint256"
        }
      ],
      "name": "NewVoteForChangeProposal",
      "type": "event"
    },
    {
      "anonymous": false,
      "inputs": [
        {
          "indexed": true,
          "internalType": "address",
          "name": "previousOwner",
          "type": "address"
        },
        {
          "indexed": true,
          "internalType": "address",
          "name": "newOwner",
          "type": "address"
        }
      ],
      "name": "OwnershipTransferred",
      "type": "event"
    },
    {
      "anonymous": false,
      "inputs": [
        {
          "indexed": false,
          "internalType": "string",
          "name": "message",
          "type": "string"
        },
        {
          "indexed": false,
          "internalType": "string",
          "name": "changeCID",
          "type": "string"
        },
        {
          "indexed": false,
          "internalType": "string",
          "name": "ProjectName",
          "type": "string"
        }
      ],
      "name": "ProjectWentBack",
      "type": "event"
    },
    {
      "anonymous": false,
      "inputs": [
        {
          "indexed": false,
          "internalType": "string",
          "name": "message",
          "type": "string"
        },
        {
          "indexed": false,
          "internalType": "uint256",
          "name": "lastDistributionTime",
          "type": "uint256"
        }
      ],
      "name": "TokensDisributed",
      "type": "event"
    },
    {
      "anonymous": false,
      "inputs": [
        {
          "indexed": true,
          "internalType": "address",
          "name": "operator",
          "type": "address"
        },
        {
          "indexed": true,
          "internalType": "address",
          "name": "from",
          "type": "address"
        },
        {
          "indexed": true,
          "internalType": "address",
          "name": "to",
          "type": "address"
        },
        {
          "indexed": false,
          "internalType": "uint256[]",
          "name": "ids",
          "type": "uint256[]"
        },
        {
          "indexed": false,
          "internalType": "uint256[]",
          "name": "values",
          "type": "uint256[]"
        }
      ],
      "name": "TransferBatch",
      "type": "event"
    },
    {
      "anonymous": false,
      "inputs": [
        {
          "indexed": true,
          "internalType": "address",
          "name": "operator",
          "type": "address"
        },
        {
          "indexed": true,
          "internalType": "address",
          "name": "from",
          "type": "address"
        },
        {
          "indexed": true,
          "internalType": "address",
          "name": "to",
          "type": "address"
        },
        {
          "indexed": false,
          "internalType": "uint256",
          "name": "id",
          "type": "uint256"
        },
        {
          "indexed": false,
          "internalType": "uint256",
          "name": "value",
          "type": "uint256"
        }
      ],
      "name": "TransferSingle",
      "type": "event"
    },
    {
      "anonymous": false,
      "inputs": [
        {
          "indexed": false,
          "internalType": "string",
          "name": "value",
          "type": "string"
        },
        {
          "indexed": true,
          "internalType": "uint256",
          "name": "id",
          "type": "uint256"
        }
      ],
      "name": "URI",
      "type": "event"
    },
    {
      "inputs": [
        {
          "internalType": "string",
          "name": "",
          "type": "string"
        }
      ],
      "name": "NameToID",
      "outputs": [
        {
          "internalType": "uint256",
          "name": "",
          "type": "uint256"
        }
      ],
      "stateMutability": "view",
      "type": "function",
      "constant": true
    },
    {
      "inputs": [],
      "name": "TimeLockInterval",
      "outputs": [
        {
          "internalType": "uint256",
          "name": "",
          "type": "uint256"
        }
      ],
      "stateMutability": "view",
      "type": "function",
      "constant": true
    },
    {
      "inputs": [
        {
          "internalType": "address",
          "name": "account",
          "type": "address"
        },
        {
          "internalType": "uint256",
          "name": "id",
          "type": "uint256"
        }
      ],
      "name": "balanceOf",
      "outputs": [
        {
          "internalType": "uint256",
          "name": "",
          "type": "uint256"
        }
      ],
      "stateMutability": "view",
      "type": "function",
      "constant": true
    },
    {
      "inputs": [
        {
          "internalType": "address[]",
          "name": "accounts",
          "type": "address[]"
        },
        {
          "internalType": "uint256[]",
          "name": "ids",
          "type": "uint256[]"
        }
      ],
      "name": "balanceOfBatch",
      "outputs": [
        {
          "internalType": "uint256[]",
          "name": "",
          "type": "uint256[]"
        }
      ],
      "stateMutability": "view",
      "type": "function",
      "constant": true
    },
    {
      "inputs": [
        {
          "internalType": "uint256",
          "name": "id",
          "type": "uint256"
        }
      ],
      "name": "exists",
      "outputs": [
        {
          "internalType": "bool",
          "name": "",
          "type": "bool"
        }
      ],
      "stateMutability": "view",
      "type": "function",
      "constant": true
    },
    {
      "inputs": [
        {
          "internalType": "address",
          "name": "account",
          "type": "address"
        },
        {
          "internalType": "address",
          "name": "operator",
          "type": "address"
        }
      ],
      "name": "isApprovedForAll",
      "outputs": [
        {
          "internalType": "bool",
          "name": "",
          "type": "bool"
        }
      ],
      "stateMutability": "view",
      "type": "function",
      "constant": true
    },
    {
      "inputs": [],
      "name": "owner",
      "outputs": [
        {
          "internalType": "address",
          "name": "",
          "type": "address"
        }
      ],
      "stateMutability": "view",
      "type": "function",
      "constant": true
    },
    {
      "inputs": [],
      "name": "renounceOwnership",
      "outputs": [],
      "stateMutability": "nonpayable",
      "type": "function"
    },
    {
      "inputs": [
        {
          "internalType": "address",
          "name": "from",
          "type": "address"
        },
        {
          "internalType": "address",
          "name": "to",
          "type": "address"
        },
        {
          "internalType": "uint256[]",
          "name": "ids",
          "type": "uint256[]"
        },
        {
          "internalType": "uint256[]",
          "name": "amounts",
          "type": "uint256[]"
        },
        {
          "internalType": "bytes",
          "name": "data",
          "type": "bytes"
        }
      ],
      "name": "safeBatchTransferFrom",
      "outputs": [],
      "stateMutability": "nonpayable",
      "type": "function"
    },
    {
      "inputs": [
        {
          "internalType": "address",
          "name": "from",
          "type": "address"
        },
        {
          "internalType": "address",
          "name": "to",
          "type": "address"
        },
        {
          "internalType": "uint256",
          "name": "id",
          "type": "uint256"
        },
        {
          "internalType": "uint256",
          "name": "amount",
          "type": "uint256"
        },
        {
          "internalType": "bytes",
          "name": "data",
          "type": "bytes"
        }
      ],
      "name": "safeTransferFrom",
      "outputs": [],
      "stateMutability": "nonpayable",
      "type": "function"
    },
    {
      "inputs": [
        {
          "internalType": "address",
          "name": "operator",
          "type": "address"
        },
        {
          "internalType": "bool",
          "name": "approved",
          "type": "bool"
        }
      ],
      "name": "setApprovalForAll",
      "outputs": [],
      "stateMutability": "nonpayable",
      "type": "function"
    },
    {
      "inputs": [
        {
          "internalType": "bytes4",
          "name": "interfaceId",
          "type": "bytes4"
        }
      ],
      "name": "supportsInterface",
      "outputs": [
        {
          "internalType": "bool",
          "name": "",
          "type": "bool"
        }
      ],
      "stateMutability": "view",
      "type": "function",
      "constant": true
    },
    {
      "inputs": [
        {
          "internalType": "uint256",
          "name": "id",
          "type": "uint256"
        }
      ],
      "name": "totalSupply",
      "outputs": [
        {
          "internalType": "uint256",
          "name": "",
          "type": "uint256"
        }
      ],
      "stateMutability": "view",
      "type": "function",
      "constant": true
    },
    {
      "inputs": [
        {
          "internalType": "address",
          "name": "newOwner",
          "type": "address"
        }
      ],
      "name": "transferOwnership",
      "outputs": [],
      "stateMutability": "nonpayable",
      "type": "function"
    },
    {
      "inputs": [
        {
          "internalType": "uint256",
          "name": "",
          "type": "uint256"
        }
      ],
      "name": "uri",
      "outputs": [
        {
          "internalType": "string",
          "name": "",
          "type": "string"
        }
      ],
      "stateMutability": "view",
      "type": "function",
      "constant": true
    },
    {
      "inputs": [
        {
          "internalType": "string",
          "name": "_CID",
          "type": "string"
        },
        {
          "internalType": "string",
          "name": "projectName",
          "type": "string"
        }
      ],
      "name": "createProject",
      "outputs": [],
      "stateMutability": "nonpayable",
      "type": "function"
    },
    {
      "inputs": [
        {
          "internalType": "string",
          "name": "_changeCID",
          "type": "string"
        },
        {
          "internalType": "string",
          "name": "_projectName",
          "type": "string"
        }
      ],
      "name": "MakeChangeProposal",
      "outputs": [],
      "stateMutability": "nonpayable",
      "type": "function"
    },
    {
      "inputs": [
        {
          "internalType": "string",
          "name": "_changeCID",
          "type": "string"
        },
        {
          "internalType": "string",
          "name": "_projectName",
          "type": "string"
        }
      ],
      "name": "MakeGoBackProposal",
      "outputs": [],
      "stateMutability": "nonpayable",
      "type": "function"
    },
    {
      "inputs": [
        {
          "internalType": "string",
          "name": "_projectName",
          "type": "string"
        },
        {
          "internalType": "string",
          "name": "_changeCID",
          "type": "string"
        }
      ],
      "name": "acceptGoBack",
      "outputs": [],
      "stateMutability": "nonpayable",
      "type": "function"
    },
    {
      "inputs": [
        {
          "internalType": "string",
          "name": "_proposedChangeCID",
          "type": "string"
        },
        {
          "internalType": "string",
          "name": "_projectName",
          "type": "string"
        }
      ],
      "name": "acceptChangeProposal",
      "outputs": [],
      "stateMutability": "nonpayable",
      "type": "function"
    },
    {
      "inputs": [
        {
          "internalType": "string",
          "name": "_projectName",
          "type": "string"
        },
        {
          "internalType": "address",
          "name": "_UserAddress",
          "type": "address"
        }
      ],
      "name": "getBalance",
      "outputs": [
        {
          "internalType": "uint256",
          "name": "",
          "type": "uint256"
        }
      ],
      "stateMutability": "view",
      "type": "function",
      "constant": true
    },
    {
      "inputs": [
        {
          "internalType": "string",
          "name": "_changeProposalCID",
          "type": "string"
        },
        {
          "internalType": "string",
          "name": "_projectName",
          "type": "string"
        }
      ],
      "name": "voteForChangeProposal",
      "outputs": [],
      "stateMutability": "nonpayable",
      "type": "function"
    },
    {
      "inputs": [
        {
          "internalType": "string",
          "name": "_projectName",
          "type": "string"
        },
        {
          "internalType": "bool",
          "name": "changesOrChangeProposals",
          "type": "bool"
        }
      ],
      "name": "getChangesOrProposals",
      "outputs": [
        {
          "internalType": "string[]",
          "name": "",
          "type": "string[]"
        }
      ],
      "stateMutability": "view",
      "type": "function",
      "constant": true
    },
    {
      "inputs": [],
      "name": "getLastProjects",
      "outputs": [
        {
          "internalType": "string[]",
          "name": "",
          "type": "string[]"
        }
      ],
      "stateMutability": "view",
      "type": "function",
      "constant": true
    },
    {
      "inputs": [
        {
          "internalType": "string",
          "name": "_projectName",
          "type": "string"
        }
      ],
      "name": "distributeTokens",
      "outputs": [],
      "stateMutability": "nonpayable",
      "type": "function"
    }
  ],
  "bytecode": "0x60a060405262278d006080908152503480156200001b57600080fd5b506040518060400160405280600381526020017f555249000000000000000000000000000000000000000000000000000000000081525062000063816200008a60201b60201c565b506200008462000078620000a660201b60201c565b620000ae60201b60201c565b62000288565b8060029080519060200190620000a292919062000174565b5050565b600033905090565b6000600360009054906101000a900473ffffffffffffffffffffffffffffffffffffffff16905081600360006101000a81548173ffffffffffffffffffffffffffffffffffffffff021916908373ffffffffffffffffffffffffffffffffffffffff1602179055508173ffffffffffffffffffffffffffffffffffffffff168173ffffffffffffffffffffffffffffffffffffffff167f8be0079c531659141344cd1fd0a4f28419497f9722a3daafe3b4186f6b6457e060405160405180910390a35050565b828054620001829062000253565b90600052602060002090601f016020900481019282620001a65760008555620001f2565b82601f10620001c157805160ff1916838001178555620001f2565b82800160010185558215620001f2579182015b82811115620001f1578251825591602001919060010190620001d4565b5b50905062000201919062000205565b5090565b5b808211156200022057600081600090555060010162000206565b5090565b7f4e487b7100000000000000000000000000000000000000000000000000000000600052602260045260246000fd5b600060028204905060018216806200026c57607f821691505b60208210810362000282576200028162000224565b5b50919050565b608051615776620002ab60003960008181611188015261206801526157766000f3fe608060405234801561001057600080fd5b50600436106101725760003560e01c806389f4b317116100de578063bd85b03911610097578063ed0c2d9011610071578063ed0c2d901461047f578063ee9c3aa31461049b578063f242432a146104b7578063f2fde38b146104d357610172565b8063bd85b03914610403578063c4687fb814610433578063e985e9c51461044f57610172565b806389f4b317146103435780638d1446fc146103735780638da5cb5b1461038f578063a22cb465146103ad578063a54d804d146103c9578063a5635963146103e757610172565b80634e1273f4116101305780634e1273f4146102835780634f558e79146102b35780636bd06204146102e3578063715018a6146102ff578063750354d2146103095780637a5945da1461032557610172565b8062fdd58e1461017757806301ffc9a7146101a75780630e89341c146101d75780631d7147d8146102075780632eb2c2d61461023757806333846eba14610253575b600080fd5b610191600480360381019061018c91906134c3565b6104ef565b60405161019e9190613512565b60405180910390f35b6101c160048036038101906101bc9190613585565b6105b7565b6040516101ce91906135cd565b60405180910390f35b6101f160048036038101906101ec91906135e8565b610699565b6040516101fe91906136ae565b60405180910390f35b610221600480360381019061021c9190613761565b61072d565b60405161022e91906138cd565b60405180910390f35b610251600480360381019061024c9190613ae2565b610974565b005b61026d60048036038101906102689190613c52565b610a15565b60405161027a9190613512565b60405180910390f35b61029d60048036038101906102989190613d5e565b610a43565b6040516102aa9190613e94565b60405180910390f35b6102cd60048036038101906102c891906135e8565b610b5c565b6040516102da91906135cd565b60405180910390f35b6102fd60048036038101906102f89190613eb6565b610b70565b005b610307610cac565b005b610323600480360381019061031e9190613f2e565b610cc0565b005b61032d611186565b60405161033a9190613512565b60405180910390f35b61035d60048036038101906103589190613faa565b6111aa565b60405161036a9190613512565b60405180910390f35b61038d60048036038101906103889190613f2e565b611350565b005b61039761167a565b6040516103a49190614019565b60405180910390f35b6103c760048036038101906103c29190614034565b6116a4565b005b6103d16116ba565b6040516103de91906138cd565b60405180910390f35b61040160048036038101906103fc9190613f2e565b611858565b005b61041d600480360381019061041891906135e8565b61199b565b60405161042a9190613512565b60405180910390f35b61044d60048036038101906104489190614074565b6119b8565b005b610469600480360381019061046491906140f0565b611c1e565b60405161047691906135cd565b60405180910390f35b61049960048036038101906104949190613f2e565b611cb2565b005b6104b560048036038101906104b09190613c52565b611f18565b005b6104d160048036038101906104cc9190614130565b612185565b005b6104ed60048036038101906104e891906141c7565b612226565b005b60008073ffffffffffffffffffffffffffffffffffffffff168373ffffffffffffffffffffffffffffffffffffffff160361055f576040517f08c379a000000000000000000000000000000000000000000000000000000000815260040161055690614266565b60405180910390fd5b60008083815260200190815260200160002060008473ffffffffffffffffffffffffffffffffffffffff1673ffffffffffffffffffffffffffffffffffffffff16815260200190815260200160002054905092915050565b60007fd9b67a26000000000000000000000000000000000000000000000000000000007bffffffffffffffffffffffffffffffffffffffffffffffffffffffff1916827bffffffffffffffffffffffffffffffffffffffffffffffffffffffff1916148061068257507f0e89341c000000000000000000000000000000000000000000000000000000007bffffffffffffffffffffffffffffffffffffffffffffffffffffffff1916827bffffffffffffffffffffffffffffffffffffffffffffffffffffffff1916145b806106925750610691826122a9565b5b9050919050565b6060600280546106a8906142b5565b80601f01602080910402602001604051908101604052809291908181526020018280546106d4906142b5565b80156107215780601f106106f657610100808354040283529160200191610721565b820191906000526020600020905b81548152906001019060200180831161070457829003601f168201915b50505050509050919050565b606083838080601f016020809104026020016040519081016040528093929190818152602001838380828437600081840152601f19601f8201169050808301925050505050505060006005826040516107869190614322565b90815260200160405180910390205490506000810361085657816040516020016107b09190614322565b60405160208183030381529060405280519060200120600682815481106107da576107d9614339565b5b90600052602060002090600702016000016040516020016107fb91906143fc565b6040516020818303038152906040528051906020012014610851576040517f08c379a00000000000000000000000000000000000000000000000000000000081526004016108489061445f565b60405180910390fd5b61089e565b600680549050811061089d576040517f08c379a00000000000000000000000000000000000000000000000000000000081526004016108949061445f565b60405180910390fd5b5b6000600587876040516108b29291906144a4565b9081526020016040518091039020549050600681815481106108d7576108d6614339565b5b906000526020600020906007020160010173__ChangesLibrary________________________63e3e26be89091876040518363ffffffff1660e01b81526004016109229291906144d3565b600060405180830381865af415801561093f573d6000803e3d6000fd5b505050506040513d6000823e3d601f19601f82011682018060405250810190610968919061464d565b93505050509392505050565b61097c612313565b73ffffffffffffffffffffffffffffffffffffffff168573ffffffffffffffffffffffffffffffffffffffff1614806109c257506109c1856109bc612313565b611c1e565b5b610a01576040517f08c379a00000000000000000000000000000000000000000000000000000000081526004016109f890614708565b60405180910390fd5b610a0e858585858561231b565b5050505050565b6005818051602081018201805184825260208301602085012081835280955050505050506000915090505481565b60608151835114610a89576040517f08c379a0000000000000000000000000000000000000000000000000000000008152600401610a809061479a565b60405180910390fd5b6000835167ffffffffffffffff811115610aa657610aa56138ef565b5b604051908082528060200260200182016040528015610ad45781602001602082028036833780820191505090505b50905060005b8451811015610b5157610b21858281518110610af957610af8614339565b5b6020026020010151858381518110610b1457610b13614339565b5b60200260200101516104ef565b828281518110610b3457610b33614339565b5b60200260200101818152505080610b4a906147e9565b9050610ada565b508091505092915050565b600080610b688361199b565b119050919050565b6000600680549050905080600583604051610b8b9190614322565b908152602001604051809103902081905550610bb93382600a6040518060200160405280600081525061263c565b60006006600181600181540180825580915050039060005260206000209060070201905082816000019080519060200190610bf5929190613378565b508060010173__ChangesLibrary________________________63aaff905a9091866040518363ffffffff1660e01b8152600401610c3492919061487b565b60006040518083038186803b158015610c4c57600080fd5b505af4158015610c60573d6000803e3d6000fd5b505050504281600501819055507fe224389b386caecb8e3b38edc39361c7227e3ef820a8276bc31ac9cf1ba69fcd8383604051610c9e9291906148f7565b60405180910390a150505050565b610cb46127ec565b610cbe600061286a565b565b81818080601f016020809104026020016040519081016040528093929190818152602001838380828437600081840152601f19601f820116905080830192505050505050506000600582604051610d179190614322565b908152602001604051809103902054905060008103610de75781604051602001610d419190614322565b6040516020818303038152906040528051906020012060068281548110610d6b57610d6a614339565b5b9060005260206000209060070201600001604051602001610d8c91906143fc565b6040516020818303038152906040528051906020012014610de2576040517f08c379a0000000000000000000000000000000000000000000000000000000008152600401610dd99061445f565b60405180910390fd5b610e2f565b6006805490508110610e2e576040517f08c379a0000000000000000000000000000000000000000000000000000000008152600401610e259061445f565b60405180910390fd5b5b600060058585604051610e439291906144a4565b90815260200160405180910390205490506000151560068281548110610e6c57610e6b614339565b5b906000526020600020906007020160060187604051610e8b9190614322565b908152602001604051809103902060003373ffffffffffffffffffffffffffffffffffffffff1673ffffffffffffffffffffffffffffffffffffffff16815260200190815260200160002060009054906101000a900460ff16151514610f26576040517f08c379a0000000000000000000000000000000000000000000000000000000008152600401610f1d90614986565b60405180910390fd5b6000610f3233836104ef565b905060008111610f77576040517f08c379a0000000000000000000000000000000000000000000000000000000008152600401610f6e906149f2565b60405180910390fd5b60068281548110610f8b57610f8a614339565b5b906000526020600020906007020160010173__ChangesLibrary________________________637dba11cb909189846040518463ffffffff1660e01b8152600401610fd893929190614a21565b60006040518083038186803b158015610ff057600080fd5b505af4158015611004573d6000803e3d6000fd5b5050505060016006838154811061101e5761101d614339565b5b90600052602060002090600702016006018860405161103d9190614322565b908152602001604051809103902060003373ffffffffffffffffffffffffffffffffffffffff1673ffffffffffffffffffffffffffffffffffffffff16815260200190815260200160002060006101000a81548160ff0219169083151502179055507f0defd832aa647eb845ac2ed5e414ba9da1d13d7c3b2028fea20853913891174d86868933600687815481106110d8576110d7614339565b5b906000526020600020906007020160010173__ChangesLibrary________________________63ca5451d290918e6040518363ffffffff1660e01b815260040161112392919061487b565b602060405180830381865af4158015611140573d6000803e3d6000fd5b505050506040513d601f19601f820116820180604052508101906111649190614a74565b604051611175959493929190614b1a565b60405180910390a150505050505050565b7f000000000000000000000000000000000000000000000000000000000000000081565b600083838080601f016020809104026020016040519081016040528093929190818152602001838380828437600081840152601f19601f8201169050808301925050505050505060006005826040516112039190614322565b9081526020016040518091039020549050600081036112d3578160405160200161122d9190614322565b604051602081830303815290604052805190602001206006828154811061125757611256614339565b5b906000526020600020906007020160000160405160200161127891906143fc565b60405160208183030381529060405280519060200120146112ce576040517f08c379a00000000000000000000000000000000000000000000000000000000081526004016112c59061445f565b60405180910390fd5b61131b565b600680549050811061131a576040517f08c379a00000000000000000000000000000000000000000000000000000000081526004016113119061445f565b60405180910390fd5b5b61134584600588886040516113319291906144a4565b9081526020016040518091039020546104ef565b925050509392505050565b81818080601f016020809104026020016040519081016040528093929190818152602001838380828437600081840152601f19601f8201169050808301925050505050505060006005826040516113a79190614322565b90815260200160405180910390205490506000810361147757816040516020016113d19190614322565b60405160208183030381529060405280519060200120600682815481106113fb576113fa614339565b5b906000526020600020906007020160000160405160200161141c91906143fc565b6040516020818303038152906040528051906020012014611472576040517f08c379a00000000000000000000000000000000000000000000000000000000081526004016114699061445f565b60405180910390fd5b6114bf565b60068054905081106114be576040517f08c379a00000000000000000000000000000000000000000000000000000000081526004016114b59061445f565b60405180910390fd5b5b6000600585856040516114d39291906144a4565b9081526020016040518091039020549050600681815481106114f8576114f7614339565b5b906000526020600020906007020160010173__ChangesLibrary________________________636de060a89091886115503360058b8b60405161153c9291906144a4565b9081526020016040518091039020546104ef565b6040518463ffffffff1660e01b815260040161156e93929190614a21565b60006040518083038186803b15801561158657600080fd5b505af415801561159a573d6000803e3d6000fd5b505050506001600682815481106115b4576115b3614339565b5b9060005260206000209060070201600601876040516115d39190614322565b908152602001604051809103902060003373ffffffffffffffffffffffffffffffffffffffff1673ffffffffffffffffffffffffffffffffffffffff16815260200190815260200160002060006101000a81548160ff0219169083151502179055507f7b7acf540aac5e16ce3dfbd4d106c203a301da603c18502d179f60282962e5c48585888460405161166a9493929190614c1a565b60405180910390a1505050505050565b6000600360009054906101000a900473ffffffffffffffffffffffffffffffffffffffff16905090565b6116b66116af612313565b8383612930565b5050565b60606000600680549050905060006006805490509050600a8211156116de57600a91505b60008267ffffffffffffffff8111156116fa576116f96138ef565b5b60405190808252806020026020018201604052801561172d57816020015b60608152602001906001900390816117185790505b5090506000600680549050111561184f576000838361174c9190614c74565b90505b8281101561184d576006818154811061176b5761176a614339565b5b90600052602060002090600702016000018054611787906142b5565b80601f01602080910402602001604051908101604052809291908181526020018280546117b3906142b5565b80156118005780601f106117d557610100808354040283529160200191611800565b820191906000526020600020905b8154815290600101906020018083116117e357829003601f168201915b505050505082826001866118149190614c74565b61181e9190614c74565b8151811061182f5761182e614339565b5b60200260200101819052508080611845906147e9565b91505061174f565b505b80935050505090565b60006005838360405161186c9291906144a4565b90815260200160405180910390205490506006818154811061189157611890614339565b5b906000526020600020906007020160040160405180606001604052808681526020013373ffffffffffffffffffffffffffffffffffffffff1681526020016118f933600588886040516118e59291906144a4565b9081526020016040518091039020546104ef565b81525090806001815401808255809150506001900390600052602060002090600302016000909190919091506000820151816000019080519060200190611941929190613378565b5060208201518160010160006101000a81548173ffffffffffffffffffffffffffffffffffffffff021916908373ffffffffffffffffffffffffffffffffffffffff16021790555060408201518160020155505050505050565b600060046000838152602001908152602001600020549050919050565b82828080601f016020809104026020016040519081016040528093929190818152602001838380828437600081840152601f19601f820116905080830192505050505050506000600582604051611a0f9190614322565b908152602001604051809103902054905060008103611adf5781604051602001611a399190614322565b6040516020818303038152906040528051906020012060068281548110611a6357611a62614339565b5b9060005260206000209060070201600001604051602001611a8491906143fc565b6040516020818303038152906040528051906020012014611ada576040517f08c379a0000000000000000000000000000000000000000000000000000000008152600401611ad19061445f565b60405180910390fd5b611b27565b6006805490508110611b26576040517f08c379a0000000000000000000000000000000000000000000000000000000008152600401611b1d9061445f565b60405180910390fd5b5b600060058686604051611b3b9291906144a4565b908152602001604051809103902054905060068181548110611b6057611b5f614339565b5b906000526020600020906007020160010173__ChangesLibrary________________________637cbb44f99091866040518363ffffffff1660e01b8152600401611bab92919061487b565b60006040518083038186803b158015611bc357600080fd5b505af4158015611bd7573d6000803e3d6000fd5b505050507f718a982b61bc723a0c68281b0eb10e1cff37bd89888841ae545c98cd5493a056848787604051611c0e93929190614cf4565b60405180910390a1505050505050565b6000600160008473ffffffffffffffffffffffffffffffffffffffff1673ffffffffffffffffffffffffffffffffffffffff16815260200190815260200160002060008373ffffffffffffffffffffffffffffffffffffffff1673ffffffffffffffffffffffffffffffffffffffff16815260200190815260200160002060009054906101000a900460ff16905092915050565b81818080601f016020809104026020016040519081016040528093929190818152602001838380828437600081840152601f19601f820116905080830192505050505050506000600582604051611d099190614322565b908152602001604051809103902054905060008103611dd95781604051602001611d339190614322565b6040516020818303038152906040528051906020012060068281548110611d5d57611d5c614339565b5b9060005260206000209060070201600001604051602001611d7e91906143fc565b6040516020818303038152906040528051906020012014611dd4576040517f08c379a0000000000000000000000000000000000000000000000000000000008152600401611dcb9061445f565b60405180910390fd5b611e21565b6006805490508110611e20576040517f08c379a0000000000000000000000000000000000000000000000000000000008152600401611e179061445f565b60405180910390fd5b5b600060058585604051611e359291906144a4565b908152602001604051809103902054905060068181548110611e5a57611e59614339565b5b906000526020600020906007020160010173__ChangesLibrary________________________636b6b15cc9091886040518363ffffffff1660e01b8152600401611ea592919061487b565b60006040518083038186803b158015611ebd57600080fd5b505af4158015611ed1573d6000803e3d6000fd5b505050507fa59a33e81abf86b25a561f609013d867f28b3c0cbc2cdf98e852b0c0c041eb6c858588604051611f0893929190614db2565b60405180910390a1505050505050565b806000600582604051611f2b9190614322565b908152602001604051809103902054905060008103611ffb5781604051602001611f559190614322565b6040516020818303038152906040528051906020012060068281548110611f7f57611f7e614339565b5b9060005260206000209060070201600001604051602001611fa091906143fc565b6040516020818303038152906040528051906020012014611ff6576040517f08c379a0000000000000000000000000000000000000000000000000000000008152600401611fed9061445f565b60405180910390fd5b612043565b6006805490508110612042576040517f08c379a00000000000000000000000000000000000000000000000000000000081526004016120399061445f565b60405180910390fd5b5b60006005846040516120559190614322565b90815260200160405180910390205490507f00000000000000000000000000000000000000000000000000000000000000006006828154811061209b5761209a614339565b5b9060005260206000209060070201600501546120b79190614dfe565b4210156120f9576040517f08c379a00000000000000000000000000000000000000000000000000000000081526004016120f090614ea0565b60405180910390fd5b426006828154811061210e5761210d614339565b5b9060005260206000209060070201600501819055507f7288f707ccc9ad8e6342e2220545e85e8971083cf158175f547d9567688b65ff6006828154811061215857612157614339565b5b9060005260206000209060070201600501546040516121779190614f0c565b60405180910390a150505050565b61218d612313565b73ffffffffffffffffffffffffffffffffffffffff168573ffffffffffffffffffffffffffffffffffffffff1614806121d357506121d2856121cd612313565b611c1e565b5b612212576040517f08c379a000000000000000000000000000000000000000000000000000000000815260040161220990614708565b60405180910390fd5b61221f8585858585612a9c565b5050505050565b61222e6127ec565b600073ffffffffffffffffffffffffffffffffffffffff168173ffffffffffffffffffffffffffffffffffffffff160361229d576040517f08c379a000000000000000000000000000000000000000000000000000000000815260040161229490614fac565b60405180910390fd5b6122a68161286a565b50565b60007f01ffc9a7000000000000000000000000000000000000000000000000000000007bffffffffffffffffffffffffffffffffffffffffffffffffffffffff1916827bffffffffffffffffffffffffffffffffffffffffffffffffffffffff1916149050919050565b600033905090565b815183511461235f576040517f08c379a00000000000000000000000000000000000000000000000000000000081526004016123569061503e565b60405180910390fd5b600073ffffffffffffffffffffffffffffffffffffffff168473ffffffffffffffffffffffffffffffffffffffff16036123ce576040517f08c379a00000000000000000000000000000000000000000000000000000000081526004016123c5906150d0565b60405180910390fd5b60006123d8612313565b90506123e8818787878787612d37565b60005b845181101561259957600085828151811061240957612408614339565b5b60200260200101519050600085838151811061242857612427614339565b5b60200260200101519050600080600084815260200190815260200160002060008b73ffffffffffffffffffffffffffffffffffffffff1673ffffffffffffffffffffffffffffffffffffffff168152602001908152602001600020549050818110156124c9576040517f08c379a00000000000000000000000000000000000000000000000000000000081526004016124c090615162565b60405180910390fd5b81810360008085815260200190815260200160002060008c73ffffffffffffffffffffffffffffffffffffffff1673ffffffffffffffffffffffffffffffffffffffff168152602001908152602001600020819055508160008085815260200190815260200160002060008b73ffffffffffffffffffffffffffffffffffffffff1673ffffffffffffffffffffffffffffffffffffffff168152602001908152602001600020600082825461257e9190614dfe565b9250508190555050505080612592906147e9565b90506123eb565b508473ffffffffffffffffffffffffffffffffffffffff168673ffffffffffffffffffffffffffffffffffffffff168273ffffffffffffffffffffffffffffffffffffffff167f4a39dc06d4c0dbc64b70af90fd698a233a518aa5d07e595d983b8c0526c8f7fb8787604051612610929190615182565b60405180910390a4612626818787878787612d4d565b612634818787878787612d55565b505050505050565b600073ffffffffffffffffffffffffffffffffffffffff168473ffffffffffffffffffffffffffffffffffffffff16036126ab576040517f08c379a00000000000000000000000000000000000000000000000000000000081526004016126a29061522b565b60405180910390fd5b60006126b5612313565b905060006126c285612f2c565b905060006126cf85612f2c565b90506126e083600089858589612d37565b8460008088815260200190815260200160002060008973ffffffffffffffffffffffffffffffffffffffff1673ffffffffffffffffffffffffffffffffffffffff168152602001908152602001600020600082825461273f9190614dfe565b925050819055508673ffffffffffffffffffffffffffffffffffffffff16600073ffffffffffffffffffffffffffffffffffffffff168473ffffffffffffffffffffffffffffffffffffffff167fc3d58168c5ae7397731d063d5bbf3d657854427343f4c083240f7aacaa2d0f6289896040516127bd92919061524b565b60405180910390a46127d483600089858589612d4d565b6127e383600089898989612fa6565b50505050505050565b6127f4612313565b73ffffffffffffffffffffffffffffffffffffffff1661281261167a565b73ffffffffffffffffffffffffffffffffffffffff1614612868576040517f08c379a000000000000000000000000000000000000000000000000000000000815260040161285f906152c0565b60405180910390fd5b565b6000600360009054906101000a900473ffffffffffffffffffffffffffffffffffffffff16905081600360006101000a81548173ffffffffffffffffffffffffffffffffffffffff021916908373ffffffffffffffffffffffffffffffffffffffff1602179055508173ffffffffffffffffffffffffffffffffffffffff168173ffffffffffffffffffffffffffffffffffffffff167f8be0079c531659141344cd1fd0a4f28419497f9722a3daafe3b4186f6b6457e060405160405180910390a35050565b8173ffffffffffffffffffffffffffffffffffffffff168373ffffffffffffffffffffffffffffffffffffffff160361299e576040517f08c379a000000000000000000000000000000000000000000000000000000000815260040161299590615352565b60405180910390fd5b80600160008573ffffffffffffffffffffffffffffffffffffffff1673ffffffffffffffffffffffffffffffffffffffff16815260200190815260200160002060008473ffffffffffffffffffffffffffffffffffffffff1673ffffffffffffffffffffffffffffffffffffffff16815260200190815260200160002060006101000a81548160ff0219169083151502179055508173ffffffffffffffffffffffffffffffffffffffff168373ffffffffffffffffffffffffffffffffffffffff167f17307eab39ab6107e8899845ad3d59bd9653f200f220920489ca2b5937696c3183604051612a8f91906135cd565b60405180910390a3505050565b600073ffffffffffffffffffffffffffffffffffffffff168473ffffffffffffffffffffffffffffffffffffffff1603612b0b576040517f08c379a0000000000000000000000000000000000000000000000000000000008152600401612b02906150d0565b60405180910390fd5b6000612b15612313565b90506000612b2285612f2c565b90506000612b2f85612f2c565b9050612b3f838989858589612d37565b600080600088815260200190815260200160002060008a73ffffffffffffffffffffffffffffffffffffffff1673ffffffffffffffffffffffffffffffffffffffff16815260200190815260200160002054905085811015612bd6576040517f08c379a0000000000000000000000000000000000000000000000000000000008152600401612bcd90615162565b60405180910390fd5b85810360008089815260200190815260200160002060008b73ffffffffffffffffffffffffffffffffffffffff1673ffffffffffffffffffffffffffffffffffffffff168152602001908152602001600020819055508560008089815260200190815260200160002060008a73ffffffffffffffffffffffffffffffffffffffff1673ffffffffffffffffffffffffffffffffffffffff1681526020019081526020016000206000828254612c8b9190614dfe565b925050819055508773ffffffffffffffffffffffffffffffffffffffff168973ffffffffffffffffffffffffffffffffffffffff168573ffffffffffffffffffffffffffffffffffffffff167fc3d58168c5ae7397731d063d5bbf3d657854427343f4c083240f7aacaa2d0f628a8a604051612d0892919061524b565b60405180910390a4612d1e848a8a86868a612d4d565b612d2c848a8a8a8a8a612fa6565b505050505050505050565b612d4586868686868661317d565b505050505050565b505050505050565b612d748473ffffffffffffffffffffffffffffffffffffffff1661334d565b15612f24578373ffffffffffffffffffffffffffffffffffffffff1663bc197c8187878686866040518663ffffffff1660e01b8152600401612dba9594939291906153c7565b6020604051808303816000875af1925050508015612df657506040513d601f19601f82011682018060405250810190612df39190615444565b60015b612e9b57612e0261547e565b806308c379a003612e5e5750612e166154a0565b80612e215750612e60565b806040517f08c379a0000000000000000000000000000000000000000000000000000000008152600401612e5591906136ae565b60405180910390fd5b505b6040517f08c379a0000000000000000000000000000000000000000000000000000000008152600401612e92906155a2565b60405180910390fd5b63bc197c8160e01b7bffffffffffffffffffffffffffffffffffffffffffffffffffffffff1916817bffffffffffffffffffffffffffffffffffffffffffffffffffffffff191614612f22576040517f08c379a0000000000000000000000000000000000000000000000000000000008152600401612f1990615634565b60405180910390fd5b505b505050505050565b60606000600167ffffffffffffffff811115612f4b57612f4a6138ef565b5b604051908082528060200260200182016040528015612f795781602001602082028036833780820191505090505b5090508281600081518110612f9157612f90614339565b5b60200260200101818152505080915050919050565b612fc58473ffffffffffffffffffffffffffffffffffffffff1661334d565b15613175578373ffffffffffffffffffffffffffffffffffffffff1663f23a6e6187878686866040518663ffffffff1660e01b815260040161300b959493929190615654565b6020604051808303816000875af192505050801561304757506040513d601f19601f820116820180604052508101906130449190615444565b60015b6130ec5761305361547e565b806308c379a0036130af57506130676154a0565b8061307257506130b1565b806040517f08c379a00000000000000000000000000000000000000000000000000000000081526004016130a691906136ae565b60405180910390fd5b505b6040517f08c379a00000000000000000000000000000000000000000000000000000000081526004016130e3906155a2565b60405180910390fd5b63f23a6e6160e01b7bffffffffffffffffffffffffffffffffffffffffffffffffffffffff1916817bffffffffffffffffffffffffffffffffffffffffffffffffffffffff191614613173576040517f08c379a000000000000000000000000000000000000000000000000000000000815260040161316a90615634565b60405180910390fd5b505b505050505050565b61318b868686868686613370565b600073ffffffffffffffffffffffffffffffffffffffff168573ffffffffffffffffffffffffffffffffffffffff160361323c5760005b835181101561323a578281815181106131de576131dd614339565b5b6020026020010151600460008684815181106131fd576131fc614339565b5b6020026020010151815260200190815260200160002060008282546132229190614dfe565b9250508190555080613233906147e9565b90506131c2565b505b600073ffffffffffffffffffffffffffffffffffffffff168473ffffffffffffffffffffffffffffffffffffffff16036133455760005b835181101561334357600084828151811061329157613290614339565b5b6020026020010151905060008483815181106132b0576132af614339565b5b6020026020010151905060006004600084815260200190815260200160002054905081811015613315576040517f08c379a000000000000000000000000000000000000000000000000000000000815260040161330c90615720565b60405180910390fd5b81810360046000858152602001908152602001600020819055505050508061333c906147e9565b9050613273565b505b505050505050565b6000808273ffffffffffffffffffffffffffffffffffffffff163b119050919050565b505050505050565b828054613384906142b5565b90600052602060002090601f0160209004810192826133a657600085556133ed565b82601f106133bf57805160ff19168380011785556133ed565b828001600101855582156133ed579182015b828111156133ec5782518255916020019190600101906133d1565b5b5090506133fa91906133fe565b5090565b5b808211156134175760008160009055506001016133ff565b5090565b6000604051905090565b600080fd5b600080fd5b600073ffffffffffffffffffffffffffffffffffffffff82169050919050565b600061345a8261342f565b9050919050565b61346a8161344f565b811461347557600080fd5b50565b60008135905061348781613461565b92915050565b6000819050919050565b6134a08161348d565b81146134ab57600080fd5b50565b6000813590506134bd81613497565b92915050565b600080604083850312156134da576134d9613425565b5b60006134e885828601613478565b92505060206134f9858286016134ae565b9150509250929050565b61350c8161348d565b82525050565b60006020820190506135276000830184613503565b92915050565b60007fffffffff0000000000000000000000000000000000000000000000000000000082169050919050565b6135628161352d565b811461356d57600080fd5b50565b60008135905061357f81613559565b92915050565b60006020828403121561359b5761359a613425565b5b60006135a984828501613570565b91505092915050565b60008115159050919050565b6135c7816135b2565b82525050565b60006020820190506135e260008301846135be565b92915050565b6000602082840312156135fe576135fd613425565b5b600061360c848285016134ae565b91505092915050565b600081519050919050565b600082825260208201905092915050565b60005b8381101561364f578082015181840152602081019050613634565b8381111561365e576000848401525b50505050565b6000601f19601f8301169050919050565b600061368082613615565b61368a8185613620565b935061369a818560208601613631565b6136a381613664565b840191505092915050565b600060208201905081810360008301526136c88184613675565b905092915050565b600080fd5b600080fd5b600080fd5b60008083601f8401126136f5576136f46136d0565b5b8235905067ffffffffffffffff811115613712576137116136d5565b5b60208301915083600182028301111561372e5761372d6136da565b5b9250929050565b61373e816135b2565b811461374957600080fd5b50565b60008135905061375b81613735565b92915050565b60008060006040848603121561377a57613779613425565b5b600084013567ffffffffffffffff8111156137985761379761342a565b5b6137a4868287016136df565b935093505060206137b78682870161374c565b9150509250925092565b600081519050919050565b600082825260208201905092915050565b6000819050602082019050919050565b600082825260208201905092915050565b600061380982613615565b61381381856137ed565b9350613823818560208601613631565b61382c81613664565b840191505092915050565b600061384383836137fe565b905092915050565b6000602082019050919050565b6000613863826137c1565b61386d81856137cc565b93508360208202850161387f856137dd565b8060005b858110156138bb578484038952815161389c8582613837565b94506138a78361384b565b925060208a01995050600181019050613883565b50829750879550505050505092915050565b600060208201905081810360008301526138e78184613858565b905092915050565b7f4e487b7100000000000000000000000000000000000000000000000000000000600052604160045260246000fd5b61392782613664565b810181811067ffffffffffffffff82111715613946576139456138ef565b5b80604052505050565b600061395961341b565b9050613965828261391e565b919050565b600067ffffffffffffffff821115613985576139846138ef565b5b602082029050602081019050919050565b60006139a96139a48461396a565b61394f565b905080838252602082019050602084028301858111156139cc576139cb6136da565b5b835b818110156139f557806139e188826134ae565b8452602084019350506020810190506139ce565b5050509392505050565b600082601f830112613a1457613a136136d0565b5b8135613a24848260208601613996565b91505092915050565b600080fd5b600067ffffffffffffffff821115613a4d57613a4c6138ef565b5b613a5682613664565b9050602081019050919050565b82818337600083830152505050565b6000613a85613a8084613a32565b61394f565b905082815260208101848484011115613aa157613aa0613a2d565b5b613aac848285613a63565b509392505050565b600082601f830112613ac957613ac86136d0565b5b8135613ad9848260208601613a72565b91505092915050565b600080600080600060a08688031215613afe57613afd613425565b5b6000613b0c88828901613478565b9550506020613b1d88828901613478565b945050604086013567ffffffffffffffff811115613b3e57613b3d61342a565b5b613b4a888289016139ff565b935050606086013567ffffffffffffffff811115613b6b57613b6a61342a565b5b613b77888289016139ff565b925050608086013567ffffffffffffffff811115613b9857613b9761342a565b5b613ba488828901613ab4565b9150509295509295909350565b600067ffffffffffffffff821115613bcc57613bcb6138ef565b5b613bd582613664565b9050602081019050919050565b6000613bf5613bf084613bb1565b61394f565b905082815260208101848484011115613c1157613c10613a2d565b5b613c1c848285613a63565b509392505050565b600082601f830112613c3957613c386136d0565b5b8135613c49848260208601613be2565b91505092915050565b600060208284031215613c6857613c67613425565b5b600082013567ffffffffffffffff811115613c8657613c8561342a565b5b613c9284828501613c24565b91505092915050565b600067ffffffffffffffff821115613cb657613cb56138ef565b5b602082029050602081019050919050565b6000613cda613cd584613c9b565b61394f565b90508083825260208201905060208402830185811115613cfd57613cfc6136da565b5b835b81811015613d265780613d128882613478565b845260208401935050602081019050613cff565b5050509392505050565b600082601f830112613d4557613d446136d0565b5b8135613d55848260208601613cc7565b91505092915050565b60008060408385031215613d7557613d74613425565b5b600083013567ffffffffffffffff811115613d9357613d9261342a565b5b613d9f85828601613d30565b925050602083013567ffffffffffffffff811115613dc057613dbf61342a565b5b613dcc858286016139ff565b9150509250929050565b600081519050919050565b600082825260208201905092915050565b6000819050602082019050919050565b613e0b8161348d565b82525050565b6000613e1d8383613e02565b60208301905092915050565b6000602082019050919050565b6000613e4182613dd6565b613e4b8185613de1565b9350613e5683613df2565b8060005b83811015613e87578151613e6e8882613e11565b9750613e7983613e29565b925050600181019050613e5a565b5085935050505092915050565b60006020820190508181036000830152613eae8184613e36565b905092915050565b60008060408385031215613ecd57613ecc613425565b5b600083013567ffffffffffffffff811115613eeb57613eea61342a565b5b613ef785828601613c24565b925050602083013567ffffffffffffffff811115613f1857613f1761342a565b5b613f2485828601613c24565b9150509250929050565b600080600060408486031215613f4757613f46613425565b5b600084013567ffffffffffffffff811115613f6557613f6461342a565b5b613f7186828701613c24565b935050602084013567ffffffffffffffff811115613f9257613f9161342a565b5b613f9e868287016136df565b92509250509250925092565b600080600060408486031215613fc357613fc2613425565b5b600084013567ffffffffffffffff811115613fe157613fe061342a565b5b613fed868287016136df565b9350935050602061400086828701613478565b9150509250925092565b6140138161344f565b82525050565b600060208201905061402e600083018461400a565b92915050565b6000806040838503121561404b5761404a613425565b5b600061405985828601613478565b925050602061406a8582860161374c565b9150509250929050565b60008060006040848603121561408d5761408c613425565b5b600084013567ffffffffffffffff8111156140ab576140aa61342a565b5b6140b7868287016136df565b9350935050602084013567ffffffffffffffff8111156140da576140d961342a565b5b6140e686828701613c24565b9150509250925092565b6000806040838503121561410757614106613425565b5b600061411585828601613478565b925050602061412685828601613478565b9150509250929050565b600080600080600060a0868803121561414c5761414b613425565b5b600061415a88828901613478565b955050602061416b88828901613478565b945050604061417c888289016134ae565b935050606061418d888289016134ae565b925050608086013567ffffffffffffffff8111156141ae576141ad61342a565b5b6141ba88828901613ab4565b9150509295509295909350565b6000602082840312156141dd576141dc613425565b5b60006141eb84828501613478565b91505092915050565b7f455243313135353a2061646472657373207a65726f206973206e6f742061207660008201527f616c6964206f776e657200000000000000000000000000000000000000000000602082015250565b6000614250602a83613620565b915061425b826141f4565b604082019050919050565b6000602082019050818103600083015261427f81614243565b9050919050565b7f4e487b7100000000000000000000000000000000000000000000000000000000600052602260045260246000fd5b600060028204905060018216806142cd57607f821691505b6020821081036142e0576142df614286565b5b50919050565b600081905092915050565b60006142fc82613615565b61430681856142e6565b9350614316818560208601613631565b80840191505092915050565b600061432e82846142f1565b915081905092915050565b7f4e487b7100000000000000000000000000000000000000000000000000000000600052603260045260246000fd5b60008190508160005260206000209050919050565b6000815461438a816142b5565b61439481866142e6565b945060018216600081146143af57600181146143c0576143f3565b60ff198316865281860193506143f3565b6143c985614368565b60005b838110156143eb578154818901526001820191506020810190506143cc565b838801955050505b50505092915050565b6000614408828461437d565b915081905092915050565b7f50726f6a65637420646f206e6f74206578697374000000000000000000000000600082015250565b6000614449601483613620565b915061445482614413565b602082019050919050565b600060208201905081810360008301526144788161443c565b9050919050565b600061448b83856142e6565b9350614498838584613a63565b82840190509392505050565b60006144b182848661447f565b91508190509392505050565b8082525050565b6144cd816135b2565b82525050565b60006040820190506144e860008301856144bd565b6144f560208301846144c4565b9392505050565b600067ffffffffffffffff821115614517576145166138ef565b5b602082029050602081019050919050565b600061453b61453684613bb1565b61394f565b90508281526020810184848401111561455757614556613a2d565b5b614562848285613631565b509392505050565b600082601f83011261457f5761457e6136d0565b5b815161458f848260208601614528565b91505092915050565b60006145ab6145a6846144fc565b61394f565b905080838252602082019050602084028301858111156145ce576145cd6136da565b5b835b8181101561461557805167ffffffffffffffff8111156145f3576145f26136d0565b5b808601614600898261456a565b855260208501945050506020810190506145d0565b5050509392505050565b600082601f830112614634576146336136d0565b5b8151614644848260208601614598565b91505092915050565b60006020828403121561466357614662613425565b5b600082015167ffffffffffffffff8111156146815761468061342a565b5b61468d8482850161461f565b91505092915050565b7f455243313135353a2063616c6c6572206973206e6f7420746f6b656e206f776e60008201527f6572206f7220617070726f766564000000000000000000000000000000000000602082015250565b60006146f2602e83613620565b91506146fd82614696565b604082019050919050565b60006020820190508181036000830152614721816146e5565b9050919050565b7f455243313135353a206163636f756e747320616e6420696473206c656e67746860008201527f206d69736d617463680000000000000000000000000000000000000000000000602082015250565b6000614784602983613620565b915061478f82614728565b604082019050919050565b600060208201905081810360008301526147b381614777565b9050919050565b7f4e487b7100000000000000000000000000000000000000000000000000000000600052601160045260246000fd5b60006147f48261348d565b91507fffffffffffffffffffffffffffffffffffffffffffffffffffffffffffffffff8203614826576148256147ba565b5b600182019050919050565b600082825260208201905092915050565b600061484d82613615565b6148578185614831565b9350614867818560208601613631565b61487081613664565b840191505092915050565b600060408201905061489060008301856144bd565b81810360208301526148a28184614842565b90509392505050565b7f4e65772070726f6a656374206372656174656420776974682049443a00000000600082015250565b60006148e1601c83613620565b91506148ec826148ab565b602082019050919050565b60006060820190508181036000830152614910816148d4565b905081810360208301526149248185613675565b90506149336040830184613503565b9392505050565b7f416c726561647920766f74656400000000000000000000000000000000000000600082015250565b6000614970600d83613620565b915061497b8261493a565b602082019050919050565b6000602082019050818103600083015261499f81614963565b9050919050565b7f566f74696e6720706f77657220697320696e73756666696369656e7400000000600082015250565b60006149dc601c83613620565b91506149e7826149a6565b602082019050919050565b60006020820190508181036000830152614a0b816149cf565b9050919050565b614a1b8161348d565b82525050565b6000606082019050614a3660008301866144bd565b8181036020830152614a488185614842565b9050614a576040830184614a12565b949350505050565b600081519050614a6e81613497565b92915050565b600060208284031215614a8a57614a89613425565b5b6000614a9884828501614a5f565b91505092915050565b7f4e657720766f746520666f72206368616e67652070726f706f73616c3a000000600082015250565b6000614ad7601d83613620565b9150614ae282614aa1565b602082019050919050565b6000614af98385613620565b9350614b06838584613a63565b614b0f83613664565b840190509392505050565b600060a0820190508181036000830152614b3381614aca565b90508181036020830152614b48818789614aed565b90508181036040830152614b5c8186613675565b9050614b6b606083018561400a565b614b786080830184613503565b9695505050505050565b7f4e6577206368616e67652070726f706f73616c20746f207468652050726f6a6560008201527f6374207769746820746865206e616d6520616e6420666f6c6c6f77696e67204960208201527f4420616e64204349443a00000000000000000000000000000000000000000000604082015250565b6000614c04604a83613620565b9150614c0f82614b82565b606082019050919050565b60006080820190508181036000830152614c3381614bf7565b90508181036020830152614c48818688614aed565b90508181036040830152614c5c8185613675565b9050614c6b6060830184613503565b95945050505050565b6000614c7f8261348d565b9150614c8a8361348d565b925082821015614c9d57614c9c6147ba565b5b828203905092915050565b7f50726f6a656374206368616e67656420746f206368616e67653a200000000000600082015250565b6000614cde601b83613620565b9150614ce982614ca8565b602082019050919050565b60006060820190508181036000830152614d0d81614cd1565b90508181036020830152614d218186613675565b90508181036040830152614d36818486614aed565b9050949350505050565b7f41206e6577206368616e676520686173206265656e206d61646520746f20746860008201527f652070726f6a6563743a20000000000000000000000000000000000000000000602082015250565b6000614d9c602b83613620565b9150614da782614d40565b604082019050919050565b60006060820190508181036000830152614dcb81614d8f565b90508181036020830152614de0818587614aed565b90508181036040830152614df48184613675565b9050949350505050565b6000614e098261348d565b9150614e148361348d565b9250827fffffffffffffffffffffffffffffffffffffffffffffffffffffffffffffffff03821115614e4957614e486147ba565b5b828201905092915050565b7f6e6f7420646973747269627574696f6e2074696d650000000000000000000000600082015250565b6000614e8a601583613620565b9150614e9582614e54565b602082019050919050565b60006020820190508181036000830152614eb981614e7d565b9050919050565b7f546f6b656e7320646973747269627574696f6e20537461727400000000000000600082015250565b6000614ef6601983613620565b9150614f0182614ec0565b602082019050919050565b60006040820190508181036000830152614f2581614ee9565b9050614f346020830184613503565b92915050565b7f4f776e61626c653a206e6577206f776e657220697320746865207a65726f206160008201527f6464726573730000000000000000000000000000000000000000000000000000602082015250565b6000614f96602683613620565b9150614fa182614f3a565b604082019050919050565b60006020820190508181036000830152614fc581614f89565b9050919050565b7f455243313135353a2069647320616e6420616d6f756e7473206c656e6774682060008201527f6d69736d61746368000000000000000000000000000000000000000000000000602082015250565b6000615028602883613620565b915061503382614fcc565b604082019050919050565b600060208201905081810360008301526150578161501b565b9050919050565b7f455243313135353a207472616e7366657220746f20746865207a65726f20616460008201527f6472657373000000000000000000000000000000000000000000000000000000602082015250565b60006150ba602583613620565b91506150c58261505e565b604082019050919050565b600060208201905081810360008301526150e9816150ad565b9050919050565b7f455243313135353a20696e73756666696369656e742062616c616e636520666f60008201527f72207472616e7366657200000000000000000000000000000000000000000000602082015250565b600061514c602a83613620565b9150615157826150f0565b604082019050919050565b6000602082019050818103600083015261517b8161513f565b9050919050565b6000604082019050818103600083015261519c8185613e36565b905081810360208301526151b08184613e36565b90509392505050565b7f455243313135353a206d696e7420746f20746865207a65726f2061646472657360008201527f7300000000000000000000000000000000000000000000000000000000000000602082015250565b6000615215602183613620565b9150615220826151b9565b604082019050919050565b6000602082019050818103600083015261524481615208565b9050919050565b60006040820190506152606000830185613503565b61526d6020830184613503565b9392505050565b7f4f776e61626c653a2063616c6c6572206973206e6f7420746865206f776e6572600082015250565b60006152aa602083613620565b91506152b582615274565b602082019050919050565b600060208201905081810360008301526152d98161529d565b9050919050565b7f455243313135353a2073657474696e6720617070726f76616c2073746174757360008201527f20666f722073656c660000000000000000000000000000000000000000000000602082015250565b600061533c602983613620565b9150615347826152e0565b604082019050919050565b6000602082019050818103600083015261536b8161532f565b9050919050565b600081519050919050565b600082825260208201905092915050565b600061539982615372565b6153a3818561537d565b93506153b3818560208601613631565b6153bc81613664565b840191505092915050565b600060a0820190506153dc600083018861400a565b6153e9602083018761400a565b81810360408301526153fb8186613e36565b9050818103606083015261540f8185613e36565b90508181036080830152615423818461538e565b90509695505050505050565b60008151905061543e81613559565b92915050565b60006020828403121561545a57615459613425565b5b60006154688482850161542f565b91505092915050565b60008160e01c9050919050565b600060033d111561549d5760046000803e61549a600051615471565b90505b90565b600060443d1061552d576154b261341b565b60043d036004823e80513d602482011167ffffffffffffffff821117156154da57505061552d565b808201805167ffffffffffffffff8111156154f8575050505061552d565b80602083010160043d03850181111561551557505050505061552d565b6155248260200185018661391e565b82955050505050505b90565b7f455243313135353a207472616e7366657220746f206e6f6e2d4552433131353560008201527f526563656976657220696d706c656d656e746572000000000000000000000000602082015250565b600061558c603483613620565b915061559782615530565b604082019050919050565b600060208201905081810360008301526155bb8161557f565b9050919050565b7f455243313135353a204552433131353552656365697665722072656a6563746560008201527f6420746f6b656e73000000000000000000000000000000000000000000000000602082015250565b600061561e602883613620565b9150615629826155c2565b604082019050919050565b6000602082019050818103600083015261564d81615611565b9050919050565b600060a082019050615669600083018861400a565b615676602083018761400a565b6156836040830186613503565b6156906060830185613503565b81810360808301526156a2818461538e565b90509695505050505050565b7f455243313135353a206275726e20616d6f756e74206578636565647320746f7460008201527f616c537570706c79000000000000000000000000000000000000000000000000602082015250565b600061570a602883613620565b9150615715826156ae565b604082019050919050565b60006020820190508181036000830152615739816156fd565b905091905056fea26469706673582212202236561b2370e61ce5a9131e6aa34b02b97ee6d3fefd16b02b012495583bf19864736f6c634300080d0033",
  "immutableReferences": {
    "419": [
      {
        "length": 32,
        "start": 4488
      },
      {
        "length": 32,
        "start": 8296
      }
    ]
  },
  "source": "// SPDX-License-Identifier: MIT\npragma solidity ^0.8.2;\n\nimport \"../node_modules/@openzeppelin/contracts/token/ERC1155/ERC1155.sol\";\nimport \"../node_modules/@openzeppelin/contracts/access/Ownable.sol\";\nimport \"../node_modules/@openzeppelin/contracts/utils/Counters.sol\";\nimport \"../node_modules/@openzeppelin/contracts/token/ERC1155/extensions/ERC1155Supply.sol\";\nimport \"./Changes.sol\";\n\n\n\ncontract Steps is ERC1155, Ownable, ERC1155Supply {\n    // initiate all the data structures and constants saved on the smart contract\n    uint public immutable TimeLockInterval = 60 * 60 * 24 * 30; // One Week\n    using Counters for Counters.Counter;\n    using ChangesLibrary for ChangesLibrary.ChangesStorage;\n\n    \n    // -------------------------------------------------------- Mappings\n    mapping(string => uint) public NameToID;    \n\n    // -------------------------------------------------------- Structs\n\n    struct goBack {\n        string changeCID;\n        address goBackMaker;\n        uint votes;\n    }\n\n    struct Project {\n        string name;\n        ChangesLibrary.ChangesStorage changes;\n        goBack[] goBackProposals;\n\n        // time lock\n        uint lastDistributionTime;\n\n        // - ChangeCID => Voter address => Voted?\n        mapping(string => mapping(address => bool)) Voted;\n\n    }\n\n\n    // -------------------------------------------------------- Lists\n    Project[] publicProjects;\n\n    // -------------------------------------------------------- Events\n    event NewProjectCreated(string message, string name, uint value);\n    event NewChangeProposalCreated(string message, string Name, string CID, uint indexValue);\n    event NewVoteForChangeProposal(string message, string projectName, string changeProposalCID, address voter, uint votes);\n    event NewChangeIsMadeToProject(string message, string projectName, string changeCID); // Message, Project CID, Message, ChangeCID\n    event ProjectWentBack(string message, string changeCID, string ProjectName);\n    event TokensDisributed(string message, uint lastDistributionTime);\n\n    // -------------------------------------------------------- Modifiers\n    modifier ProjectExist(string memory _Name) {\n        uint id = NameToID[_Name];\n        if (id == 0) {\n            require(keccak256(abi.encodePacked(publicProjects[id].name)) == keccak256(abi.encodePacked(_Name)), \"Project do not exist\");\n        } else {\n            require(id < publicProjects.length, \"Project do not exist\");\n        }\n        _;\n    }\n\n\n    // -------------------------------------------------------- Constructor\n    constructor() ERC1155(\"URI\") {\n\n    } \n\n    // -------------------------------------------------------- Functions\n    function _beforeTokenTransfer(address operator, address from, address to, uint256[] memory ids, uint256[] memory amounts, bytes memory data) internal override(ERC1155, ERC1155Supply) {\n        super._beforeTokenTransfer(operator, from, to, ids, amounts, data);\n    }\n\n    // the function create a new project with an inital change\n    function createProject(string memory _CID, string memory projectName) public {\n        uint newProjectID = publicProjects.length;\n        NameToID[projectName] = newProjectID;\n        _mint(msg.sender, newProjectID, 10, \"\");\n        \n        Project storage newProject = publicProjects.push();\n        newProject.name = projectName;\n        newProject.changes.initialize(_CID);\n        newProject.lastDistributionTime = block.timestamp;\n\n        emit NewProjectCreated(\"New project created with ID:\", projectName, newProjectID);\n    }\n\n    // the functions create a change proposal\n    function MakeChangeProposal(\n        string memory _changeCID, \n        string calldata _projectName\n    ) ProjectExist(_projectName) external {\n        uint projectIDX = NameToID[_projectName];\n        publicProjects[projectIDX].changes.createChangeProposal(_changeCID, balanceOf(msg.sender, NameToID[_projectName]));\n        publicProjects[projectIDX].Voted[_changeCID][msg.sender] = true;\n        emit NewChangeProposalCreated(\"New change proposal to the Project with the name and following ID and CID:\", _projectName, _changeCID, projectIDX);\n    }\n\n    // the functions make a go back proposal\n    function MakeGoBackProposal(\n        string memory _changeCID, \n        string calldata _projectName\n    ) external {\n        uint projectID = NameToID[_projectName];\n        publicProjects[projectID].goBackProposals.push(goBack(_changeCID, msg.sender, balanceOf(msg.sender, NameToID[_projectName])));\n    }\n\n    // the function make a go Back \n    function acceptGoBack(\n        string calldata _projectName, \n        string memory _changeCID\n    ) ProjectExist(_projectName) external {\n        uint projectIDX = NameToID[_projectName];\n        publicProjects[projectIDX].changes.goBack(_changeCID);\n        \n        emit ProjectWentBack(\"Project changed to change: \", _changeCID, _projectName);\n    }\n\n    // the functions accept a change proposal and add it to the list\n    function acceptChangeProposal(\n        string memory _proposedChangeCID, \n        string calldata _projectName\n    ) ProjectExist(_projectName) external {\n        uint projectID = NameToID[_projectName];\n        publicProjects[projectID].changes.acceptChangeProposal(_proposedChangeCID);\n        emit NewChangeIsMadeToProject(\"A new change has been made to the project: \", _projectName, _proposedChangeCID);\n    }\n\n    // the function returns the voting power of a user in a certain project\n    function getBalance(\n        string calldata _projectName, \n        address _UserAddress\n    ) ProjectExist(_projectName) external view returns (uint) {\n        return balanceOf(_UserAddress, NameToID[_projectName]);\n    }\n\n    // the function allow user to vote in favor of a change proposal\n    function voteForChangeProposal(\n        string memory _changeProposalCID, \n        string calldata _projectName\n    ) ProjectExist(_projectName) external {\n        uint projectID = NameToID[_projectName];\n\n        require(publicProjects[projectID].Voted[_changeProposalCID][msg.sender] == false, \"Already voted\");\n\n        uint votingPower = balanceOf(msg.sender, projectID);\n        \n        if (votingPower <= 0) {\n            revert(\"Voting power is insufficient\");\n        }\n\n        publicProjects[projectID].changes.voteForChangeProposal(_changeProposalCID, votingPower);\n        publicProjects[projectID].Voted[_changeProposalCID][msg.sender] = true;\n        \n        emit NewVoteForChangeProposal(\n            \"New vote for change proposal:\",\n            _projectName,\n            _changeProposalCID,\n            msg.sender,\n            publicProjects[projectID].changes.getChangeProposalVotes(_changeProposalCID)\n        );\n    }\n\n    // the functions returns the changes/change proposals\n    function getChangesOrProposals(\n        string calldata _projectName, \n        bool changesOrChangeProposals\n    ) ProjectExist(_projectName) external view returns (string[] memory) {\n        uint projectID = NameToID[_projectName];\n        return publicProjects[projectID].changes.getChangesOrChangeProposals(changesOrChangeProposals); // true for changes and false for change proposals\n    }\n\n    // TEMP\n    function getLastProjects() external view returns (string[] memory) {\n        uint arr_length = publicProjects.length;\n        uint arr_index = publicProjects.length;\n        if (arr_length > 10) {\n            arr_length = 10;\n        }\n\n        string[] memory lastProjects = new string[](arr_length);\n        if (publicProjects.length > 0) {\n        for (uint256 i = arr_index - arr_length; i < arr_index; i++) {\n            lastProjects[arr_index - 1 - i] = publicProjects[i].name; \n        }}\n        return lastProjects;\n    }\n\n    // the functions allow the token distribution when the timelock ends\n    function distributeTokens(\n        string memory _projectName\n    ) ProjectExist(_projectName) external {\n        uint projectID = NameToID[_projectName];\n                \n        require(block.timestamp >= publicProjects[projectID].lastDistributionTime + TimeLockInterval, \"not distribution time\");\n\n        // <token distribution>\n        // ...\n        // <token distribution/>\n\n        publicProjects[projectID].lastDistributionTime = block.timestamp;\n\n        emit TokensDisributed(\n            \"Tokens distribution Start\",\n            publicProjects[projectID].lastDistributionTime\n        );\n    }\n\n}\n",
  "sourcePath": "c:\\Users\\User\\Desktop\\\\davidson\\project\\DavidsonProject\\Smart Contract\\contracts\\Steps.sol",
  "compiler": {
    "name": "solc",
    "version": "0.8.13+commit.abaa5c0e.Emscripten.clang"
  },
  "schemaVersion": "3.4.7",
  "updatedAt": "2024-03-01T08:32:40.771Z",
  "networkType": "ethereum",
  "devdoc": {
    "kind": "dev",
    "methods": {
      "balanceOf(address,uint256)": {
        "details": "See {IERC1155-balanceOf}. Requirements: - `account` cannot be the zero address."
      },
      "balanceOfBatch(address[],uint256[])": {
        "details": "See {IERC1155-balanceOfBatch}. Requirements: - `accounts` and `ids` must have the same length."
      },
      "exists(uint256)": {
        "details": "Indicates whether any token exist with a given id, or not."
      },
      "isApprovedForAll(address,address)": {
        "details": "See {IERC1155-isApprovedForAll}."
      },
      "owner()": {
        "details": "Returns the address of the current owner."
      },
      "renounceOwnership()": {
        "details": "Leaves the contract without owner. It will not be possible to call `onlyOwner` functions. Can only be called by the current owner. NOTE: Renouncing ownership will leave the contract without an owner, thereby disabling any functionality that is only available to the owner."
      },
      "safeBatchTransferFrom(address,address,uint256[],uint256[],bytes)": {
        "details": "See {IERC1155-safeBatchTransferFrom}."
      },
      "safeTransferFrom(address,address,uint256,uint256,bytes)": {
        "details": "See {IERC1155-safeTransferFrom}."
      },
      "setApprovalForAll(address,bool)": {
        "details": "See {IERC1155-setApprovalForAll}."
      },
      "supportsInterface(bytes4)": {
        "details": "See {IERC165-supportsInterface}."
      },
      "totalSupply(uint256)": {
        "details": "Total amount of tokens in with a given id."
      },
      "transferOwnership(address)": {
        "details": "Transfers ownership of the contract to a new account (`newOwner`). Can only be called by the current owner."
      },
      "uri(uint256)": {
        "details": "See {IERC1155MetadataURI-uri}. This implementation returns the same URI for *all* token types. It relies on the token type ID substitution mechanism https://eips.ethereum.org/EIPS/eip-1155#metadata[defined in the EIP]. Clients calling this function must replace the `\\{id\\}` substring with the actual token type ID."
      }
    },
    "version": 1
  },
  "userdoc": {
    "kind": "user",
    "methods": {},
    "version": 1
  }
}