{
  "contractName": "Steps",
  "abi": [
    {
      "inputs": [],
      "stateMutability": "nonpayable",
      "type": "constructor"
    },
    {
      "anonymous": false,
      "inputs": [
        {
          "indexed": true,
          "internalType": "address",
          "name": "account",
          "type": "address"
        },
        {
          "indexed": true,
          "internalType": "address",
          "name": "operator",
          "type": "address"
        },
        {
          "indexed": false,
          "internalType": "bool",
          "name": "approved",
          "type": "bool"
        }
      ],
      "name": "ApprovalForAll",
      "type": "event"
    },
    {
      "anonymous": false,
      "inputs": [
        {
          "indexed": false,
          "internalType": "string",
          "name": "message",
          "type": "string"
        },
        {
          "indexed": false,
          "internalType": "string",
          "name": "projectName",
          "type": "string"
        },
        {
          "indexed": false,
          "internalType": "string",
          "name": "changeCID",
          "type": "string"
        }
      ],
      "name": "NewChangeIsMadeToProject",
      "type": "event"
    },
    {
      "anonymous": false,
      "inputs": [
        {
          "indexed": false,
          "internalType": "string",
          "name": "message",
          "type": "string"
        },
        {
          "indexed": false,
          "internalType": "string",
          "name": "Name",
          "type": "string"
        },
        {
          "indexed": false,
          "internalType": "string",
          "name": "CID",
          "type": "string"
        },
        {
          "indexed": false,
          "internalType": "uint256",
          "name": "indexValue",
          "type": "uint256"
        }
      ],
      "name": "NewChangeProposalCreated",
      "type": "event"
    },
    {
      "anonymous": false,
      "inputs": [
        {
          "indexed": false,
          "internalType": "string",
          "name": "message",
          "type": "string"
        },
        {
          "indexed": false,
          "internalType": "string",
          "name": "name",
          "type": "string"
        },
        {
          "indexed": false,
          "internalType": "uint256",
          "name": "value",
          "type": "uint256"
        }
      ],
      "name": "NewProjectCreated",
      "type": "event"
    },
    {
      "anonymous": false,
      "inputs": [
        {
          "indexed": false,
          "internalType": "string",
          "name": "message",
          "type": "string"
        },
        {
          "indexed": false,
          "internalType": "string",
          "name": "projectName",
          "type": "string"
        },
        {
          "indexed": false,
          "internalType": "string",
          "name": "changeProposalCID",
          "type": "string"
        },
        {
          "indexed": false,
          "internalType": "address",
          "name": "voter",
          "type": "address"
        },
        {
          "indexed": false,
          "internalType": "uint256",
          "name": "votes",
          "type": "uint256"
        }
      ],
      "name": "NewVoteForChangeProposal",
      "type": "event"
    },
    {
      "anonymous": false,
      "inputs": [
        {
          "indexed": true,
          "internalType": "address",
          "name": "previousOwner",
          "type": "address"
        },
        {
          "indexed": true,
          "internalType": "address",
          "name": "newOwner",
          "type": "address"
        }
      ],
      "name": "OwnershipTransferred",
      "type": "event"
    },
    {
      "anonymous": false,
      "inputs": [
        {
          "indexed": false,
          "internalType": "string",
          "name": "message",
          "type": "string"
        },
        {
          "indexed": false,
          "internalType": "string",
          "name": "changeCID",
          "type": "string"
        },
        {
          "indexed": false,
          "internalType": "string",
          "name": "ProjectName",
          "type": "string"
        }
      ],
      "name": "ProjectWentBack",
      "type": "event"
    },
    {
      "anonymous": false,
      "inputs": [
        {
          "indexed": false,
          "internalType": "string",
          "name": "message",
          "type": "string"
        },
        {
          "indexed": false,
          "internalType": "uint256",
          "name": "lastDistributionTime",
          "type": "uint256"
        },
        {
          "indexed": false,
          "internalType": "uint256",
          "name": "newLastDistributionTimeIndexChanges",
          "type": "uint256"
        },
        {
          "indexed": false,
          "internalType": "uint256",
          "name": "newLastDistributionTimeIndexChangeProposals",
          "type": "uint256"
        }
      ],
      "name": "TokensDisributed",
      "type": "event"
    },
    {
      "anonymous": false,
      "inputs": [
        {
          "indexed": true,
          "internalType": "address",
          "name": "operator",
          "type": "address"
        },
        {
          "indexed": true,
          "internalType": "address",
          "name": "from",
          "type": "address"
        },
        {
          "indexed": true,
          "internalType": "address",
          "name": "to",
          "type": "address"
        },
        {
          "indexed": false,
          "internalType": "uint256[]",
          "name": "ids",
          "type": "uint256[]"
        },
        {
          "indexed": false,
          "internalType": "uint256[]",
          "name": "values",
          "type": "uint256[]"
        }
      ],
      "name": "TransferBatch",
      "type": "event"
    },
    {
      "anonymous": false,
      "inputs": [
        {
          "indexed": true,
          "internalType": "address",
          "name": "operator",
          "type": "address"
        },
        {
          "indexed": true,
          "internalType": "address",
          "name": "from",
          "type": "address"
        },
        {
          "indexed": true,
          "internalType": "address",
          "name": "to",
          "type": "address"
        },
        {
          "indexed": false,
          "internalType": "uint256",
          "name": "id",
          "type": "uint256"
        },
        {
          "indexed": false,
          "internalType": "uint256",
          "name": "value",
          "type": "uint256"
        }
      ],
      "name": "TransferSingle",
      "type": "event"
    },
    {
      "anonymous": false,
      "inputs": [
        {
          "indexed": false,
          "internalType": "string",
          "name": "value",
          "type": "string"
        },
        {
          "indexed": true,
          "internalType": "uint256",
          "name": "id",
          "type": "uint256"
        }
      ],
      "name": "URI",
      "type": "event"
    },
    {
      "inputs": [
        {
          "internalType": "string",
          "name": "",
          "type": "string"
        }
      ],
      "name": "NameToID",
      "outputs": [
        {
          "internalType": "uint256",
          "name": "",
          "type": "uint256"
        }
      ],
      "stateMutability": "view",
      "type": "function"
    },
    {
      "inputs": [],
      "name": "TimeLockInterval",
      "outputs": [
        {
          "internalType": "uint256",
          "name": "",
          "type": "uint256"
        }
      ],
      "stateMutability": "view",
      "type": "function"
    },
    {
      "inputs": [
        {
          "internalType": "address",
          "name": "account",
          "type": "address"
        },
        {
          "internalType": "uint256",
          "name": "id",
          "type": "uint256"
        }
      ],
      "name": "balanceOf",
      "outputs": [
        {
          "internalType": "uint256",
          "name": "",
          "type": "uint256"
        }
      ],
      "stateMutability": "view",
      "type": "function"
    },
    {
      "inputs": [
        {
          "internalType": "address[]",
          "name": "accounts",
          "type": "address[]"
        },
        {
          "internalType": "uint256[]",
          "name": "ids",
          "type": "uint256[]"
        }
      ],
      "name": "balanceOfBatch",
      "outputs": [
        {
          "internalType": "uint256[]",
          "name": "",
          "type": "uint256[]"
        }
      ],
      "stateMutability": "view",
      "type": "function"
    },
    {
      "inputs": [
        {
          "internalType": "uint256",
          "name": "id",
          "type": "uint256"
        }
      ],
      "name": "exists",
      "outputs": [
        {
          "internalType": "bool",
          "name": "",
          "type": "bool"
        }
      ],
      "stateMutability": "view",
      "type": "function"
    },
    {
      "inputs": [
        {
          "internalType": "address",
          "name": "account",
          "type": "address"
        },
        {
          "internalType": "address",
          "name": "operator",
          "type": "address"
        }
      ],
      "name": "isApprovedForAll",
      "outputs": [
        {
          "internalType": "bool",
          "name": "",
          "type": "bool"
        }
      ],
      "stateMutability": "view",
      "type": "function"
    },
    {
      "inputs": [],
      "name": "owner",
      "outputs": [
        {
          "internalType": "address",
          "name": "",
          "type": "address"
        }
      ],
      "stateMutability": "view",
      "type": "function"
    },
    {
      "inputs": [],
      "name": "renounceOwnership",
      "outputs": [],
      "stateMutability": "nonpayable",
      "type": "function"
    },
    {
      "inputs": [
        {
          "internalType": "address",
          "name": "from",
          "type": "address"
        },
        {
          "internalType": "address",
          "name": "to",
          "type": "address"
        },
        {
          "internalType": "uint256[]",
          "name": "ids",
          "type": "uint256[]"
        },
        {
          "internalType": "uint256[]",
          "name": "amounts",
          "type": "uint256[]"
        },
        {
          "internalType": "bytes",
          "name": "data",
          "type": "bytes"
        }
      ],
      "name": "safeBatchTransferFrom",
      "outputs": [],
      "stateMutability": "nonpayable",
      "type": "function"
    },
    {
      "inputs": [
        {
          "internalType": "address",
          "name": "from",
          "type": "address"
        },
        {
          "internalType": "address",
          "name": "to",
          "type": "address"
        },
        {
          "internalType": "uint256",
          "name": "id",
          "type": "uint256"
        },
        {
          "internalType": "uint256",
          "name": "amount",
          "type": "uint256"
        },
        {
          "internalType": "bytes",
          "name": "data",
          "type": "bytes"
        }
      ],
      "name": "safeTransferFrom",
      "outputs": [],
      "stateMutability": "nonpayable",
      "type": "function"
    },
    {
      "inputs": [
        {
          "internalType": "address",
          "name": "operator",
          "type": "address"
        },
        {
          "internalType": "bool",
          "name": "approved",
          "type": "bool"
        }
      ],
      "name": "setApprovalForAll",
      "outputs": [],
      "stateMutability": "nonpayable",
      "type": "function"
    },
    {
      "inputs": [
        {
          "internalType": "bytes4",
          "name": "interfaceId",
          "type": "bytes4"
        }
      ],
      "name": "supportsInterface",
      "outputs": [
        {
          "internalType": "bool",
          "name": "",
          "type": "bool"
        }
      ],
      "stateMutability": "view",
      "type": "function"
    },
    {
      "inputs": [
        {
          "internalType": "uint256",
          "name": "id",
          "type": "uint256"
        }
      ],
      "name": "totalSupply",
      "outputs": [
        {
          "internalType": "uint256",
          "name": "",
          "type": "uint256"
        }
      ],
      "stateMutability": "view",
      "type": "function"
    },
    {
      "inputs": [
        {
          "internalType": "address",
          "name": "newOwner",
          "type": "address"
        }
      ],
      "name": "transferOwnership",
      "outputs": [],
      "stateMutability": "nonpayable",
      "type": "function"
    },
    {
      "inputs": [
        {
          "internalType": "uint256",
          "name": "",
          "type": "uint256"
        }
      ],
      "name": "uri",
      "outputs": [
        {
          "internalType": "string",
          "name": "",
          "type": "string"
        }
      ],
      "stateMutability": "view",
      "type": "function"
    },
    {
      "inputs": [
        {
          "internalType": "string",
          "name": "_CID",
          "type": "string"
        },
        {
          "internalType": "string",
          "name": "projectName",
          "type": "string"
        }
      ],
      "name": "createProject",
      "outputs": [],
      "stateMutability": "nonpayable",
      "type": "function"
    },
    {
      "inputs": [
        {
          "internalType": "string",
          "name": "_changeCID",
          "type": "string"
        },
        {
          "internalType": "string",
          "name": "_projectName",
          "type": "string"
        }
      ],
      "name": "MakeChangeProposal",
      "outputs": [],
      "stateMutability": "nonpayable",
      "type": "function"
    },
    {
      "inputs": [
        {
          "internalType": "string",
          "name": "_changeCID",
          "type": "string"
        },
        {
          "internalType": "string",
          "name": "_projectName",
          "type": "string"
        }
      ],
      "name": "MakeGoBackProposal",
      "outputs": [],
      "stateMutability": "nonpayable",
      "type": "function"
    },
    {
      "inputs": [
        {
          "internalType": "string",
          "name": "_projectName",
          "type": "string"
        },
        {
          "internalType": "string",
          "name": "_changeCID",
          "type": "string"
        }
      ],
      "name": "acceptGoBack",
      "outputs": [],
      "stateMutability": "nonpayable",
      "type": "function"
    },
    {
      "inputs": [
        {
          "internalType": "string",
          "name": "_proposedChangeCID",
          "type": "string"
        },
        {
          "internalType": "string",
          "name": "_projectName",
          "type": "string"
        }
      ],
      "name": "acceptChangeProposal",
      "outputs": [],
      "stateMutability": "nonpayable",
      "type": "function"
    },
    {
      "inputs": [
        {
          "internalType": "string",
          "name": "_projectName",
          "type": "string"
        }
      ],
      "name": "getBalance",
      "outputs": [
        {
          "internalType": "uint256",
          "name": "",
          "type": "uint256"
        }
      ],
      "stateMutability": "view",
      "type": "function"
    },
    {
      "inputs": [
        {
          "internalType": "string",
          "name": "_changeProposalCID",
          "type": "string"
        },
        {
          "internalType": "string",
          "name": "_projectName",
          "type": "string"
        }
      ],
      "name": "voteForChangeProposal",
      "outputs": [],
      "stateMutability": "nonpayable",
      "type": "function"
    },
    {
      "inputs": [
        {
          "internalType": "string",
          "name": "_projectName",
          "type": "string"
        }
      ],
      "name": "getProjectChanges",
      "outputs": [
        {
          "internalType": "string[]",
          "name": "",
          "type": "string[]"
        }
      ],
      "stateMutability": "view",
      "type": "function"
    },
    {
      "inputs": [
        {
          "internalType": "string",
          "name": "_projectName",
          "type": "string"
        }
      ],
      "name": "getProjectChangeProposals",
      "outputs": [
        {
          "internalType": "string[]",
          "name": "",
          "type": "string[]"
        }
      ],
      "stateMutability": "view",
      "type": "function"
    },
    {
      "inputs": [],
      "name": "getLastProjects",
      "outputs": [
        {
          "internalType": "string[]",
          "name": "",
          "type": "string[]"
        }
      ],
      "stateMutability": "view",
      "type": "function"
    },
    {
      "inputs": [
        {
          "internalType": "string",
          "name": "_projectName",
          "type": "string"
        }
      ],
      "name": "distributeTokens",
      "outputs": [],
      "stateMutability": "nonpayable",
      "type": "function"
    }
  ],
  "bytecode": "0x60a060405262093a806080908152503480156200001b57600080fd5b506040518060400160405280600381526020017f55524900000000000000000000000000000000000000000000000000000000008152506200006381620000a860201b60201c565b506200008462000078620000c460201b60201c565b620000cc60201b60201c565b600660018160018154018082558091505003906000526020600020905050620002a6565b8060029080519060200190620000c092919062000192565b5050565b600033905090565b6000600360009054906101000a900473ffffffffffffffffffffffffffffffffffffffff16905081600360006101000a81548173ffffffffffffffffffffffffffffffffffffffff021916908373ffffffffffffffffffffffffffffffffffffffff1602179055508173ffffffffffffffffffffffffffffffffffffffff168173ffffffffffffffffffffffffffffffffffffffff167f8be0079c531659141344cd1fd0a4f28419497f9722a3daafe3b4186f6b6457e060405160405180910390a35050565b828054620001a09062000271565b90600052602060002090601f016020900481019282620001c4576000855562000210565b82601f10620001df57805160ff191683800117855562000210565b8280016001018555821562000210579182015b828111156200020f578251825591602001919060010190620001f2565b5b5090506200021f919062000223565b5090565b5b808211156200023e57600081600090555060010162000224565b5090565b7f4e487b7100000000000000000000000000000000000000000000000000000000600052602260045260246000fd5b600060028204905060018216806200028a57607f821691505b602082108103620002a0576200029f62000242565b5b50919050565b6080516159c5620002c96000396000818161136201526124a301526159c56000f3fe608060405234801561001057600080fd5b506004361061018d5760003560e01c80637a5945da116100de578063bd85b03911610097578063ed0c2d9011610071578063ed0c2d90146104ca578063ee9c3aa3146104e6578063f242432a14610502578063f2fde38b1461051e5761018d565b8063bd85b0391461044e578063c4687fb81461047e578063e985e9c51461049a5761018d565b80637a5945da146103a05780638d1446fc146103be5780638da5cb5b146103da578063a22cb465146103f8578063a54d804d14610414578063a5635963146104325761018d565b80633a51d2461161014b57806355da398c1161012557806355da398c1461032e5780636bd062041461035e578063715018a61461037a578063750354d2146103845761018d565b80633a51d2461461029e5780634e1273f4146102ce5780634f558e79146102fe5761018d565b8062fdd58e1461019257806301ffc9a7146101c25780630e89341c146101f257806321e11fcc146102225780632eb2c2d61461025257806333846eba1461026e575b600080fd5b6101ac60048036038101906101a79190613c1f565b61053a565b6040516101b99190613c6e565b60405180910390f35b6101dc60048036038101906101d79190613ce1565b610602565b6040516101e99190613d29565b60405180910390f35b61020c60048036038101906102079190613d44565b6106e4565b6040516102199190613e0a565b60405180910390f35b61023c60048036038101906102379190613f61565b610778565b60405161024991906140b6565b60405180910390f35b61026c60048036038101906102679190614241565b6109a2565b005b61028860048036038101906102839190613f61565b610a43565b6040516102959190613c6e565b60405180910390f35b6102b860048036038101906102b39190613f61565b610a71565b6040516102c59190613c6e565b60405180910390f35b6102e860048036038101906102e391906143d3565b610b0f565b6040516102f59190614509565b60405180910390f35b61031860048036038101906103139190613d44565b610c28565b6040516103259190613d29565b60405180910390f35b61034860048036038101906103439190613f61565b610c3c565b60405161035591906140b6565b60405180910390f35b6103786004803603810190610373919061452b565b610e66565b005b610382611009565b005b61039e6004803603810190610399919061452b565b61101d565b005b6103a8611360565b6040516103b59190613c6e565b60405180910390f35b6103d860048036038101906103d3919061452b565b611384565b005b6103e2611601565b6040516103ef91906145b2565b60405180910390f35b610412600480360381019061040d91906145f9565b61162b565b005b61041c611641565b60405161042991906140b6565b60405180910390f35b61044c6004803603810190610447919061452b565b6117df565b005b61046860048036038101906104639190613d44565b6118f7565b6040516104759190613c6e565b60405180910390f35b6104986004803603810190610493919061452b565b611914565b005b6104b460048036038101906104af9190614639565b611bfa565b6040516104c19190613d29565b60405180910390f35b6104e460048036038101906104df919061452b565b611c8e565b005b61050060048036038101906104fb9190613f61565b612357565b005b61051c60048036038101906105179190614679565b61260e565b005b61053860048036038101906105339190614710565b6126af565b005b60008073ffffffffffffffffffffffffffffffffffffffff168373ffffffffffffffffffffffffffffffffffffffff16036105aa576040517f08c379a00000000000000000000000000000000000000000000000000000000081526004016105a1906147af565b60405180910390fd5b60008083815260200190815260200160002060008473ffffffffffffffffffffffffffffffffffffffff1673ffffffffffffffffffffffffffffffffffffffff16815260200190815260200160002054905092915050565b60007fd9b67a26000000000000000000000000000000000000000000000000000000007bffffffffffffffffffffffffffffffffffffffffffffffffffffffff1916827bffffffffffffffffffffffffffffffffffffffffffffffffffffffff191614806106cd57507f0e89341c000000000000000000000000000000000000000000000000000000007bffffffffffffffffffffffffffffffffffffffffffffffffffffffff1916827bffffffffffffffffffffffffffffffffffffffffffffffffffffffff1916145b806106dd57506106dc82612732565b5b9050919050565b6060600280546106f3906147fe565b80601f016020809104026020016040519081016040528092919081815260200182805461071f906147fe565b801561076c5780601f106107415761010080835404028352916020019161076c565b820191906000526020600020905b81548152906001019060200180831161074f57829003601f168201915b50505050509050919050565b606081600060058260405161078d919061486b565b908152602001604051809103902054905060068054905081106107e5576040517f08c379a00000000000000000000000000000000000000000000000000000000081526004016107dc906148ce565b60405180910390fd5b60006005856040516107f7919061486b565b908152602001604051809103902054905060006006828154811061081e5761081d6148ee565b5b906000526020600020906008020160010180549050905060008167ffffffffffffffff81111561085157610850613e36565b5b60405190808252806020026020018201604052801561088457816020015b606081526020019060019003908161086f5790505b50905060005b8281101561099457600684815481106108a6576108a56148ee565b5b906000526020600020906008020160010181815481106108c9576108c86148ee565b5b906000526020600020906003020160000180546108e5906147fe565b80601f0160208091040260200160405190810160405280929190818152602001828054610911906147fe565b801561095e5780601f106109335761010080835404028352916020019161095e565b820191906000526020600020905b81548152906001019060200180831161094157829003601f168201915b5050505050828281518110610976576109756148ee565b5b6020026020010181905250808061098c9061494c565b91505061088a565b508095505050505050919050565b6109aa61279c565b73ffffffffffffffffffffffffffffffffffffffff168573ffffffffffffffffffffffffffffffffffffffff1614806109f057506109ef856109ea61279c565b611bfa565b5b610a2f576040517f08c379a0000000000000000000000000000000000000000000000000000000008152600401610a2690614a06565b60405180910390fd5b610a3c85858585856127a4565b5050505050565b6005818051602081018201805184825260208301602085012081835280955050505050506000915090505481565b6000816000600582604051610a86919061486b565b90815260200160405180910390205490506006805490508110610ade576040517f08c379a0000000000000000000000000000000000000000000000000000000008152600401610ad5906148ce565b60405180910390fd5b610b0633600586604051610af2919061486b565b90815260200160405180910390205461053a565b92505050919050565b60608151835114610b55576040517f08c379a0000000000000000000000000000000000000000000000000000000008152600401610b4c90614a98565b60405180910390fd5b6000835167ffffffffffffffff811115610b7257610b71613e36565b5b604051908082528060200260200182016040528015610ba05781602001602082028036833780820191505090505b50905060005b8451811015610c1d57610bed858281518110610bc557610bc46148ee565b5b6020026020010151858381518110610be057610bdf6148ee565b5b602002602001015161053a565b828281518110610c0057610bff6148ee565b5b60200260200101818152505080610c169061494c565b9050610ba6565b508091505092915050565b600080610c34836118f7565b119050919050565b6060816000600582604051610c51919061486b565b90815260200160405180910390205490506006805490508110610ca9576040517f08c379a0000000000000000000000000000000000000000000000000000000008152600401610ca0906148ce565b60405180910390fd5b6000600585604051610cbb919061486b565b9081526020016040518091039020549050600060068281548110610ce257610ce16148ee565b5b906000526020600020906008020160020180549050905060008167ffffffffffffffff811115610d1557610d14613e36565b5b604051908082528060200260200182016040528015610d4857816020015b6060815260200190600190039081610d335790505b50905060005b82811015610e585760068481548110610d6a57610d696148ee565b5b90600052602060002090600802016002018181548110610d8d57610d8c6148ee565b5b90600052602060002090600302016000018054610da9906147fe565b80601f0160208091040260200160405190810160405280929190818152602001828054610dd5906147fe565b8015610e225780601f10610df757610100808354040283529160200191610e22565b820191906000526020600020905b815481529060010190602001808311610e0557829003601f168201915b5050505050828281518110610e3a57610e396148ee565b5b60200260200101819052508080610e509061494c565b915050610d4e565b508095505050505050919050565b6000600680549050905080600583604051610e81919061486b565b908152602001604051809103902081905550610eaf3382600a60405180602001604052806000815250612ac5565b60006006600181600181540180825580915050039060005260206000209060080201905082816000019080519060200190610eeb929190613a07565b50600060405180606001604052808681526020013373ffffffffffffffffffffffffffffffffffffffff16815260200160018152509050816001018190806001815401808255809150506001900390600052602060002090600302016000909190919091506000820151816000019080519060200190610f6c929190613a07565b5060208201518160010160006101000a81548173ffffffffffffffffffffffffffffffffffffffff021916908373ffffffffffffffffffffffffffffffffffffffff1602179055506040820151816002015550504282600401819055507fe224389b386caecb8e3b38edc39361c7227e3ef820a8276bc31ac9cf1ba69fcd8484604051610ffa929190614b04565b60405180910390a15050505050565b611011612c75565b61101b6000612cf3565b565b806000600582604051611030919061486b565b90815260200160405180910390205490506006805490508110611088576040517f08c379a000000000000000000000000000000000000000000000000000000000815260040161107f906148ce565b60405180910390fd5b600060058460405161109a919061486b565b908152602001604051809103902054905060001515600682815481106110c3576110c26148ee565b5b9060005260206000209060080201600701866040516110e2919061486b565b908152602001604051809103902060003373ffffffffffffffffffffffffffffffffffffffff1673ffffffffffffffffffffffffffffffffffffffff16815260200190815260200160002060009054906101000a900460ff1615151461117d576040517f08c379a000000000000000000000000000000000000000000000000000000000815260040161117490614b93565b60405180910390fd5b6000611189338361053a565b9050600081116111ce576040517f08c379a00000000000000000000000000000000000000000000000000000000081526004016111c590614bff565b60405180910390fd5b60006111da8787612db9565b905081600684815481106111f1576111f06148ee565b5b90600052602060002090600802016002018281548110611214576112136148ee565b5b906000526020600020906003020160020160008282546112349190614c1f565b92505081905550600160068481548110611251576112506148ee565b5b906000526020600020906008020160070188604051611270919061486b565b908152602001604051809103902060003373ffffffffffffffffffffffffffffffffffffffff1673ffffffffffffffffffffffffffffffffffffffff16815260200190815260200160002060006101000a81548160ff0219169083151502179055507f0defd832aa647eb845ac2ed5e414ba9da1d13d7c3b2028fea20853913891174d8688336006878154811061130a576113096148ee565b5b9060005260206000209060080201600201858154811061132d5761132c6148ee565b5b90600052602060002090600302016002015460405161134f9493929190614cc1565b60405180910390a150505050505050565b7f000000000000000000000000000000000000000000000000000000000000000081565b806000600582604051611397919061486b565b908152602001604051809103902054905060068054905081106113ef576040517f08c379a00000000000000000000000000000000000000000000000000000000081526004016113e6906148ce565b60405180910390fd5b6000600584604051611401919061486b565b908152602001604051809103902054905060068181548110611426576114256148ee565b5b906000526020600020906008020160020160405180606001604052808781526020013373ffffffffffffffffffffffffffffffffffffffff16815260200161148c33600589604051611478919061486b565b90815260200160405180910390205461053a565b815250908060018154018082558091505060019003906000526020600020906003020160009091909190915060008201518160000190805190602001906114d4929190613a07565b5060208201518160010160006101000a81548173ffffffffffffffffffffffffffffffffffffffff021916908373ffffffffffffffffffffffffffffffffffffffff16021790555060408201518160020155505060016006828154811061153e5761153d6148ee565b5b90600052602060002090600802016007018660405161155d919061486b565b908152602001604051809103902060003373ffffffffffffffffffffffffffffffffffffffff1673ffffffffffffffffffffffffffffffffffffffff16815260200190815260200160002060006101000a81548160ff0219169083151502179055507f7b7acf540aac5e16ce3dfbd4d106c203a301da603c18502d179f60282962e5c48486836040516115f293929190614dbf565b60405180910390a15050505050565b6000600360009054906101000a900473ffffffffffffffffffffffffffffffffffffffff16905090565b61163d61163661279c565b8383612fbf565b5050565b60606000600680549050905060006006805490509050600a82111561166557600a91505b60008267ffffffffffffffff81111561168157611680613e36565b5b6040519080825280602002602001820160405280156116b457816020015b606081526020019060019003908161169f5790505b509050600060068054905011156117d657600083836116d39190614e17565b90505b828110156117d457600681815481106116f2576116f16148ee565b5b9060005260206000209060080201600001805461170e906147fe565b80601f016020809104026020016040519081016040528092919081815260200182805461173a906147fe565b80156117875780601f1061175c57610100808354040283529160200191611787565b820191906000526020600020905b81548152906001019060200180831161176a57829003601f168201915b5050505050828260018661179b9190614e17565b6117a59190614e17565b815181106117b6576117b56148ee565b5b602002602001018190525080806117cc9061494c565b9150506116d6565b505b80935050505090565b60006005826040516117f1919061486b565b908152602001604051809103902054905060068181548110611816576118156148ee565b5b906000526020600020906008020160030160405180606001604052808581526020013373ffffffffffffffffffffffffffffffffffffffff16815260200160008152509080600181540180825580915050600190039060005260206000209060030201600090919091909150600082015181600001908051906020019061189e929190613a07565b5060208201518160010160006101000a81548173ffffffffffffffffffffffffffffffffffffffff021916908373ffffffffffffffffffffffffffffffffffffffff160217905550604082015181600201555050505050565b600060046000838152602001908152602001600020549050919050565b816000600582604051611927919061486b565b9081526020016040518091039020549050600680549050811061197f576040517f08c379a0000000000000000000000000000000000000000000000000000000008152600401611976906148ce565b60405180910390fd5b6000600585604051611991919061486b565b908152602001604051809103902054905060006119ae8587612db9565b90506000600683815481106119c6576119c56148ee565b5b90600052602060002090600802016001018054905090505b81811115611bb857600683815481106119fa576119f96148ee565b5b906000526020600020906008020160020160068481548110611a1f57611a1e6148ee565b5b9060005260206000209060080201600101600183611a3d9190614e17565b81548110611a4e57611a4d6148ee565b5b906000526020600020906003020190806001815401808255809150506001900390600052602060002090600302016000909190919091506000820181600001908054611a99906147fe565b611aa4929190613a8d565b506001820160009054906101000a900473ffffffffffffffffffffffffffffffffffffffff168160010160006101000a81548173ffffffffffffffffffffffffffffffffffffffff021916908373ffffffffffffffffffffffffffffffffffffffff16021790555060028201548160020155505060068381548110611b2c57611b2b6148ee565b5b9060005260206000209060080201600101805480611b4d57611b4c614e4b565b5b600190038181906000526020600020906003020160008082016000611b729190613b1a565b6001820160006101000a81549073ffffffffffffffffffffffffffffffffffffffff02191690556002820160009055505090558080611bb090614e7a565b9150506119de565b507f718a982b61bc723a0c68281b0eb10e1cff37bd89888841ae545c98cd5493a0568587604051611bea929190614eef565b60405180910390a1505050505050565b6000600160008473ffffffffffffffffffffffffffffffffffffffff1673ffffffffffffffffffffffffffffffffffffffff16815260200190815260200160002060008373ffffffffffffffffffffffffffffffffffffffff1673ffffffffffffffffffffffffffffffffffffffff16815260200190815260200160002060009054906101000a900460ff16905092915050565b806000600582604051611ca1919061486b565b90815260200160405180910390205490506006805490508110611cf9576040517f08c379a0000000000000000000000000000000000000000000000000000000008152600401611cf0906148ce565b60405180910390fd5b6000611d058585612db9565b90506000600585604051611d19919061486b565b9081526020016040518091039020549050600060068281548110611d4057611d3f6148ee565b5b90600052602060002090600802016002018381548110611d6357611d626148ee565b5b9060005260206000209060030201604051806060016040529081600082018054611d8c906147fe565b80601f0160208091040260200160405190810160405280929190818152602001828054611db8906147fe565b8015611e055780601f10611dda57610100808354040283529160200191611e05565b820191906000526020600020905b815481529060010190602001808311611de857829003601f168201915b505050505081526020016001820160009054906101000a900473ffffffffffffffffffffffffffffffffffffffff1673ffffffffffffffffffffffffffffffffffffffff1673ffffffffffffffffffffffffffffffffffffffff1681526020016002820154815250509050600060068381548110611e8657611e856148ee565b5b9060005260206000209060080201600201600160068581548110611ead57611eac6148ee565b5b906000526020600020906008020160020180549050611ecc9190614e17565b81548110611edd57611edc6148ee565b5b9060005260206000209060030201604051806060016040529081600082018054611f06906147fe565b80601f0160208091040260200160405190810160405280929190818152602001828054611f32906147fe565b8015611f7f5780601f10611f5457610100808354040283529160200191611f7f565b820191906000526020600020905b815481529060010190602001808311611f6257829003601f168201915b505050505081526020016001820160009054906101000a900473ffffffffffffffffffffffffffffffffffffffff1673ffffffffffffffffffffffffffffffffffffffff1673ffffffffffffffffffffffffffffffffffffffff16815260200160028201548152505090508160068481548110611fff57611ffe6148ee565b5b9060005260206000209060080201600201600160068681548110612026576120256148ee565b5b9060005260206000209060080201600201805490506120459190614e17565b81548110612056576120556148ee565b5b90600052602060002090600302016000820151816000019080519060200190612080929190613a07565b5060208201518160010160006101000a81548173ffffffffffffffffffffffffffffffffffffffff021916908373ffffffffffffffffffffffffffffffffffffffff1602179055506040820151816002015590505080600684815481106120ea576120e96148ee565b5b9060005260206000209060080201600201858154811061210d5761210c6148ee565b5b90600052602060002090600302016000820151816000019080519060200190612137929190613a07565b5060208201518160010160006101000a81548173ffffffffffffffffffffffffffffffffffffffff021916908373ffffffffffffffffffffffffffffffffffffffff16021790555060408201518160020155905050600683815481106121a05761219f6148ee565b5b90600052602060002090600802016002018054806121c1576121c0614e4b565b5b6001900381819060005260206000209060030201600080820160006121e69190613b1a565b6001820160006101000a81549073ffffffffffffffffffffffffffffffffffffffff02191690556002820160009055505090556006838154811061222d5761222c6148ee565b5b9060005260206000209060080201600101604051806060016040528084600001518152602001846020015173ffffffffffffffffffffffffffffffffffffffff1681526020018460400151815250908060018154018082558091505060019003906000526020600020906003020160009091909190915060008201518160000190805190602001906122c0929190613a07565b5060208201518160010160006101000a81548173ffffffffffffffffffffffffffffffffffffffff021916908373ffffffffffffffffffffffffffffffffffffffff1602179055506040820151816002015550507fa59a33e81abf86b25a561f609013d867f28b3c0cbc2cdf98e852b0c0c041eb6c8789604051612345929190614fab565b60405180910390a15050505050505050565b80600060058260405161236a919061486b565b908152602001604051809103902054905060068054905081106123c2576040517f08c379a00000000000000000000000000000000000000000000000000000000081526004016123b9906148ce565b60405180910390fd5b60006005846040516123d4919061486b565b90815260200160405180910390205490506001600682815481106123fb576123fa6148ee565b5b90600052602060002090600802016001018054905061241a9190614e17565b6006828154811061242e5761242d6148ee565b5b906000526020600020906008020160050181905550600160068281548110612459576124586148ee565b5b9060005260206000209060080201600201805490506124789190614e17565b6006828154811061248c5761248b6148ee565b5b9060005260206000209060080201600601819055507f0000000000000000000000000000000000000000000000000000000000000000600682815481106124d6576124d56148ee565b5b9060005260206000209060080201600401546124f29190614c1f565b421015612534576040517f08c379a000000000000000000000000000000000000000000000000000000000815260040161252b90615067565b60405180910390fd5b4260068281548110612549576125486148ee565b5b9060005260206000209060080201600401819055507f5dbe5dda3cc532c25b23ae6f87a5c7620a06db39e8a58c5805e48c817304f39f60068281548110612593576125926148ee565b5b906000526020600020906008020160040154600683815481106125b9576125b86148ee565b5b906000526020600020906008020160050154600684815481106125df576125de6148ee565b5b906000526020600020906008020160060154604051612600939291906150d3565b60405180910390a150505050565b61261661279c565b73ffffffffffffffffffffffffffffffffffffffff168573ffffffffffffffffffffffffffffffffffffffff16148061265c575061265b8561265661279c565b611bfa565b5b61269b576040517f08c379a000000000000000000000000000000000000000000000000000000000815260040161269290614a06565b60405180910390fd5b6126a8858585858561312b565b5050505050565b6126b7612c75565b600073ffffffffffffffffffffffffffffffffffffffff168173ffffffffffffffffffffffffffffffffffffffff1603612726576040517f08c379a000000000000000000000000000000000000000000000000000000000815260040161271d9061518f565b60405180910390fd5b61272f81612cf3565b50565b60007f01ffc9a7000000000000000000000000000000000000000000000000000000007bffffffffffffffffffffffffffffffffffffffffffffffffffffffff1916827bffffffffffffffffffffffffffffffffffffffffffffffffffffffff1916149050919050565b600033905090565b81518351146127e8576040517f08c379a00000000000000000000000000000000000000000000000000000000081526004016127df90615221565b60405180910390fd5b600073ffffffffffffffffffffffffffffffffffffffff168473ffffffffffffffffffffffffffffffffffffffff1603612857576040517f08c379a000000000000000000000000000000000000000000000000000000000815260040161284e906152b3565b60405180910390fd5b600061286161279c565b90506128718187878787876133c6565b60005b8451811015612a22576000858281518110612892576128916148ee565b5b6020026020010151905060008583815181106128b1576128b06148ee565b5b60200260200101519050600080600084815260200190815260200160002060008b73ffffffffffffffffffffffffffffffffffffffff1673ffffffffffffffffffffffffffffffffffffffff16815260200190815260200160002054905081811015612952576040517f08c379a000000000000000000000000000000000000000000000000000000000815260040161294990615345565b60405180910390fd5b81810360008085815260200190815260200160002060008c73ffffffffffffffffffffffffffffffffffffffff1673ffffffffffffffffffffffffffffffffffffffff168152602001908152602001600020819055508160008085815260200190815260200160002060008b73ffffffffffffffffffffffffffffffffffffffff1673ffffffffffffffffffffffffffffffffffffffff1681526020019081526020016000206000828254612a079190614c1f565b9250508190555050505080612a1b9061494c565b9050612874565b508473ffffffffffffffffffffffffffffffffffffffff168673ffffffffffffffffffffffffffffffffffffffff168273ffffffffffffffffffffffffffffffffffffffff167f4a39dc06d4c0dbc64b70af90fd698a233a518aa5d07e595d983b8c0526c8f7fb8787604051612a99929190615365565b60405180910390a4612aaf8187878787876133dc565b612abd8187878787876133e4565b505050505050565b600073ffffffffffffffffffffffffffffffffffffffff168473ffffffffffffffffffffffffffffffffffffffff1603612b34576040517f08c379a0000000000000000000000000000000000000000000000000000000008152600401612b2b9061540e565b60405180910390fd5b6000612b3e61279c565b90506000612b4b856135bb565b90506000612b58856135bb565b9050612b69836000898585896133c6565b8460008088815260200190815260200160002060008973ffffffffffffffffffffffffffffffffffffffff1673ffffffffffffffffffffffffffffffffffffffff1681526020019081526020016000206000828254612bc89190614c1f565b925050819055508673ffffffffffffffffffffffffffffffffffffffff16600073ffffffffffffffffffffffffffffffffffffffff168473ffffffffffffffffffffffffffffffffffffffff167fc3d58168c5ae7397731d063d5bbf3d657854427343f4c083240f7aacaa2d0f628989604051612c4692919061542e565b60405180910390a4612c5d836000898585896133dc565b612c6c83600089898989613635565b50505050505050565b612c7d61279c565b73ffffffffffffffffffffffffffffffffffffffff16612c9b611601565b73ffffffffffffffffffffffffffffffffffffffff1614612cf1576040517f08c379a0000000000000000000000000000000000000000000000000000000008152600401612ce8906154a3565b60405180910390fd5b565b6000600360009054906101000a900473ffffffffffffffffffffffffffffffffffffffff16905081600360006101000a81548173ffffffffffffffffffffffffffffffffffffffff021916908373ffffffffffffffffffffffffffffffffffffffff1602179055508173ffffffffffffffffffffffffffffffffffffffff168173ffffffffffffffffffffffffffffffffffffffff167f8be0079c531659141344cd1fd0a4f28419497f9722a3daafe3b4186f6b6457e060405160405180910390a35050565b600080600080600585604051612dcf919061486b565b90815260200160405180910390205490506000600160068381548110612df857612df76148ee565b5b906000526020600020906008020160020180549050612e179190614e17565b90505b60008110612f6b57600060068381548110612e3857612e376148ee565b5b90600052602060002090600802016002018281548110612e5b57612e5a6148ee565b5b90600052602060002090600302016000018054612e77906147fe565b80601f0160208091040260200160405190810160405280929190818152602001828054612ea3906147fe565b8015612ef05780601f10612ec557610100808354040283529160200191612ef0565b820191906000526020600020905b815481529060010190602001808311612ed357829003601f168201915b5050505050905087604051602001612f08919061486b565b6040516020818303038152906040528051906020012081604051602001612f2f919061486b565b6040516020818303038152906040528051906020012003612f57578194506001935050612f6b565b508080612f6390614e7a565b915050612e1a565b506001151582151514612fb3576040517f08c379a0000000000000000000000000000000000000000000000000000000008152600401612faa9061550f565b60405180910390fd5b82935050505092915050565b8173ffffffffffffffffffffffffffffffffffffffff168373ffffffffffffffffffffffffffffffffffffffff160361302d576040517f08c379a0000000000000000000000000000000000000000000000000000000008152600401613024906155a1565b60405180910390fd5b80600160008573ffffffffffffffffffffffffffffffffffffffff1673ffffffffffffffffffffffffffffffffffffffff16815260200190815260200160002060008473ffffffffffffffffffffffffffffffffffffffff1673ffffffffffffffffffffffffffffffffffffffff16815260200190815260200160002060006101000a81548160ff0219169083151502179055508173ffffffffffffffffffffffffffffffffffffffff168373ffffffffffffffffffffffffffffffffffffffff167f17307eab39ab6107e8899845ad3d59bd9653f200f220920489ca2b5937696c318360405161311e9190613d29565b60405180910390a3505050565b600073ffffffffffffffffffffffffffffffffffffffff168473ffffffffffffffffffffffffffffffffffffffff160361319a576040517f08c379a0000000000000000000000000000000000000000000000000000000008152600401613191906152b3565b60405180910390fd5b60006131a461279c565b905060006131b1856135bb565b905060006131be856135bb565b90506131ce8389898585896133c6565b600080600088815260200190815260200160002060008a73ffffffffffffffffffffffffffffffffffffffff1673ffffffffffffffffffffffffffffffffffffffff16815260200190815260200160002054905085811015613265576040517f08c379a000000000000000000000000000000000000000000000000000000000815260040161325c90615345565b60405180910390fd5b85810360008089815260200190815260200160002060008b73ffffffffffffffffffffffffffffffffffffffff1673ffffffffffffffffffffffffffffffffffffffff168152602001908152602001600020819055508560008089815260200190815260200160002060008a73ffffffffffffffffffffffffffffffffffffffff1673ffffffffffffffffffffffffffffffffffffffff168152602001908152602001600020600082825461331a9190614c1f565b925050819055508773ffffffffffffffffffffffffffffffffffffffff168973ffffffffffffffffffffffffffffffffffffffff168573ffffffffffffffffffffffffffffffffffffffff167fc3d58168c5ae7397731d063d5bbf3d657854427343f4c083240f7aacaa2d0f628a8a60405161339792919061542e565b60405180910390a46133ad848a8a86868a6133dc565b6133bb848a8a8a8a8a613635565b505050505050505050565b6133d486868686868661380c565b505050505050565b505050505050565b6134038473ffffffffffffffffffffffffffffffffffffffff166139dc565b156135b3578373ffffffffffffffffffffffffffffffffffffffff1663bc197c8187878686866040518663ffffffff1660e01b8152600401613449959493929190615616565b6020604051808303816000875af192505050801561348557506040513d601f19601f820116820180604052508101906134829190615693565b60015b61352a576134916156cd565b806308c379a0036134ed57506134a56156ef565b806134b057506134ef565b806040517f08c379a00000000000000000000000000000000000000000000000000000000081526004016134e49190613e0a565b60405180910390fd5b505b6040517f08c379a0000000000000000000000000000000000000000000000000000000008152600401613521906157f1565b60405180910390fd5b63bc197c8160e01b7bffffffffffffffffffffffffffffffffffffffffffffffffffffffff1916817bffffffffffffffffffffffffffffffffffffffffffffffffffffffff1916146135b1576040517f08c379a00000000000000000000000000000000000000000000000000000000081526004016135a890615883565b60405180910390fd5b505b505050505050565b60606000600167ffffffffffffffff8111156135da576135d9613e36565b5b6040519080825280602002602001820160405280156136085781602001602082028036833780820191505090505b50905082816000815181106136205761361f6148ee565b5b60200260200101818152505080915050919050565b6136548473ffffffffffffffffffffffffffffffffffffffff166139dc565b15613804578373ffffffffffffffffffffffffffffffffffffffff1663f23a6e6187878686866040518663ffffffff1660e01b815260040161369a9594939291906158a3565b6020604051808303816000875af19250505080156136d657506040513d601f19601f820116820180604052508101906136d39190615693565b60015b61377b576136e26156cd565b806308c379a00361373e57506136f66156ef565b806137015750613740565b806040517f08c379a00000000000000000000000000000000000000000000000000000000081526004016137359190613e0a565b60405180910390fd5b505b6040517f08c379a0000000000000000000000000000000000000000000000000000000008152600401613772906157f1565b60405180910390fd5b63f23a6e6160e01b7bffffffffffffffffffffffffffffffffffffffffffffffffffffffff1916817bffffffffffffffffffffffffffffffffffffffffffffffffffffffff191614613802576040517f08c379a00000000000000000000000000000000000000000000000000000000081526004016137f990615883565b60405180910390fd5b505b505050505050565b61381a8686868686866139ff565b600073ffffffffffffffffffffffffffffffffffffffff168573ffffffffffffffffffffffffffffffffffffffff16036138cb5760005b83518110156138c95782818151811061386d5761386c6148ee565b5b60200260200101516004600086848151811061388c5761388b6148ee565b5b6020026020010151815260200190815260200160002060008282546138b19190614c1f565b92505081905550806138c29061494c565b9050613851565b505b600073ffffffffffffffffffffffffffffffffffffffff168473ffffffffffffffffffffffffffffffffffffffff16036139d45760005b83518110156139d25760008482815181106139205761391f6148ee565b5b60200260200101519050600084838151811061393f5761393e6148ee565b5b60200260200101519050600060046000848152602001908152602001600020549050818110156139a4576040517f08c379a000000000000000000000000000000000000000000000000000000000815260040161399b9061596f565b60405180910390fd5b8181036004600085815260200190815260200160002081905550505050806139cb9061494c565b9050613902565b505b505050505050565b6000808273ffffffffffffffffffffffffffffffffffffffff163b119050919050565b505050505050565b828054613a13906147fe565b90600052602060002090601f016020900481019282613a355760008555613a7c565b82601f10613a4e57805160ff1916838001178555613a7c565b82800160010185558215613a7c579182015b82811115613a7b578251825591602001919060010190613a60565b5b509050613a899190613b5a565b5090565b828054613a99906147fe565b90600052602060002090601f016020900481019282613abb5760008555613b09565b82601f10613acc5780548555613b09565b82800160010185558215613b0957600052602060002091601f016020900482015b82811115613b08578254825591600101919060010190613aed565b5b509050613b169190613b5a565b5090565b508054613b26906147fe565b6000825580601f10613b385750613b57565b601f016020900490600052602060002090810190613b569190613b5a565b5b50565b5b80821115613b73576000816000905550600101613b5b565b5090565b6000604051905090565b600080fd5b600080fd5b600073ffffffffffffffffffffffffffffffffffffffff82169050919050565b6000613bb682613b8b565b9050919050565b613bc681613bab565b8114613bd157600080fd5b50565b600081359050613be381613bbd565b92915050565b6000819050919050565b613bfc81613be9565b8114613c0757600080fd5b50565b600081359050613c1981613bf3565b92915050565b60008060408385031215613c3657613c35613b81565b5b6000613c4485828601613bd4565b9250506020613c5585828601613c0a565b9150509250929050565b613c6881613be9565b82525050565b6000602082019050613c836000830184613c5f565b92915050565b60007fffffffff0000000000000000000000000000000000000000000000000000000082169050919050565b613cbe81613c89565b8114613cc957600080fd5b50565b600081359050613cdb81613cb5565b92915050565b600060208284031215613cf757613cf6613b81565b5b6000613d0584828501613ccc565b91505092915050565b60008115159050919050565b613d2381613d0e565b82525050565b6000602082019050613d3e6000830184613d1a565b92915050565b600060208284031215613d5a57613d59613b81565b5b6000613d6884828501613c0a565b91505092915050565b600081519050919050565b600082825260208201905092915050565b60005b83811015613dab578082015181840152602081019050613d90565b83811115613dba576000848401525b50505050565b6000601f19601f8301169050919050565b6000613ddc82613d71565b613de68185613d7c565b9350613df6818560208601613d8d565b613dff81613dc0565b840191505092915050565b60006020820190508181036000830152613e248184613dd1565b905092915050565b600080fd5b600080fd5b7f4e487b7100000000000000000000000000000000000000000000000000000000600052604160045260246000fd5b613e6e82613dc0565b810181811067ffffffffffffffff82111715613e8d57613e8c613e36565b5b80604052505050565b6000613ea0613b77565b9050613eac8282613e65565b919050565b600067ffffffffffffffff821115613ecc57613ecb613e36565b5b613ed582613dc0565b9050602081019050919050565b82818337600083830152505050565b6000613f04613eff84613eb1565b613e96565b905082815260208101848484011115613f2057613f1f613e31565b5b613f2b848285613ee2565b509392505050565b600082601f830112613f4857613f47613e2c565b5b8135613f58848260208601613ef1565b91505092915050565b600060208284031215613f7757613f76613b81565b5b600082013567ffffffffffffffff811115613f9557613f94613b86565b5b613fa184828501613f33565b91505092915050565b600081519050919050565b600082825260208201905092915050565b6000819050602082019050919050565b600082825260208201905092915050565b6000613ff282613d71565b613ffc8185613fd6565b935061400c818560208601613d8d565b61401581613dc0565b840191505092915050565b600061402c8383613fe7565b905092915050565b6000602082019050919050565b600061404c82613faa565b6140568185613fb5565b93508360208202850161406885613fc6565b8060005b858110156140a457848403895281516140858582614020565b945061409083614034565b925060208a0199505060018101905061406c565b50829750879550505050505092915050565b600060208201905081810360008301526140d08184614041565b905092915050565b600067ffffffffffffffff8211156140f3576140f2613e36565b5b602082029050602081019050919050565b600080fd5b600061411c614117846140d8565b613e96565b9050808382526020820190506020840283018581111561413f5761413e614104565b5b835b8181101561416857806141548882613c0a565b845260208401935050602081019050614141565b5050509392505050565b600082601f83011261418757614186613e2c565b5b8135614197848260208601614109565b91505092915050565b600067ffffffffffffffff8211156141bb576141ba613e36565b5b6141c482613dc0565b9050602081019050919050565b60006141e46141df846141a0565b613e96565b905082815260208101848484011115614200576141ff613e31565b5b61420b848285613ee2565b509392505050565b600082601f83011261422857614227613e2c565b5b81356142388482602086016141d1565b91505092915050565b600080600080600060a0868803121561425d5761425c613b81565b5b600061426b88828901613bd4565b955050602061427c88828901613bd4565b945050604086013567ffffffffffffffff81111561429d5761429c613b86565b5b6142a988828901614172565b935050606086013567ffffffffffffffff8111156142ca576142c9613b86565b5b6142d688828901614172565b925050608086013567ffffffffffffffff8111156142f7576142f6613b86565b5b61430388828901614213565b9150509295509295909350565b600067ffffffffffffffff82111561432b5761432a613e36565b5b602082029050602081019050919050565b600061434f61434a84614310565b613e96565b9050808382526020820190506020840283018581111561437257614371614104565b5b835b8181101561439b57806143878882613bd4565b845260208401935050602081019050614374565b5050509392505050565b600082601f8301126143ba576143b9613e2c565b5b81356143ca84826020860161433c565b91505092915050565b600080604083850312156143ea576143e9613b81565b5b600083013567ffffffffffffffff81111561440857614407613b86565b5b614414858286016143a5565b925050602083013567ffffffffffffffff81111561443557614434613b86565b5b61444185828601614172565b9150509250929050565b600081519050919050565b600082825260208201905092915050565b6000819050602082019050919050565b61448081613be9565b82525050565b60006144928383614477565b60208301905092915050565b6000602082019050919050565b60006144b68261444b565b6144c08185614456565b93506144cb83614467565b8060005b838110156144fc5781516144e38882614486565b97506144ee8361449e565b9250506001810190506144cf565b5085935050505092915050565b6000602082019050818103600083015261452381846144ab565b905092915050565b6000806040838503121561454257614541613b81565b5b600083013567ffffffffffffffff8111156145605761455f613b86565b5b61456c85828601613f33565b925050602083013567ffffffffffffffff81111561458d5761458c613b86565b5b61459985828601613f33565b9150509250929050565b6145ac81613bab565b82525050565b60006020820190506145c760008301846145a3565b92915050565b6145d681613d0e565b81146145e157600080fd5b50565b6000813590506145f3816145cd565b92915050565b600080604083850312156146105761460f613b81565b5b600061461e85828601613bd4565b925050602061462f858286016145e4565b9150509250929050565b600080604083850312156146505761464f613b81565b5b600061465e85828601613bd4565b925050602061466f85828601613bd4565b9150509250929050565b600080600080600060a0868803121561469557614694613b81565b5b60006146a388828901613bd4565b95505060206146b488828901613bd4565b94505060406146c588828901613c0a565b93505060606146d688828901613c0a565b925050608086013567ffffffffffffffff8111156146f7576146f6613b86565b5b61470388828901614213565b9150509295509295909350565b60006020828403121561472657614725613b81565b5b600061473484828501613bd4565b91505092915050565b7f455243313135353a2061646472657373207a65726f206973206e6f742061207660008201527f616c6964206f776e657200000000000000000000000000000000000000000000602082015250565b6000614799602a83613d7c565b91506147a48261473d565b604082019050919050565b600060208201905081810360008301526147c88161478c565b9050919050565b7f4e487b7100000000000000000000000000000000000000000000000000000000600052602260045260246000fd5b6000600282049050600182168061481657607f821691505b602082108103614829576148286147cf565b5b50919050565b600081905092915050565b600061484582613d71565b61484f818561482f565b935061485f818560208601613d8d565b80840191505092915050565b6000614877828461483a565b915081905092915050565b7f50726f6a65637420646f206e6f74206578697374000000000000000000000000600082015250565b60006148b8601483613d7c565b91506148c382614882565b602082019050919050565b600060208201905081810360008301526148e7816148ab565b9050919050565b7f4e487b7100000000000000000000000000000000000000000000000000000000600052603260045260246000fd5b7f4e487b7100000000000000000000000000000000000000000000000000000000600052601160045260246000fd5b600061495782613be9565b91507fffffffffffffffffffffffffffffffffffffffffffffffffffffffffffffffff82036149895761498861491d565b5b600182019050919050565b7f455243313135353a2063616c6c6572206973206e6f7420746f6b656e206f776e60008201527f6572206f7220617070726f766564000000000000000000000000000000000000602082015250565b60006149f0602e83613d7c565b91506149fb82614994565b604082019050919050565b60006020820190508181036000830152614a1f816149e3565b9050919050565b7f455243313135353a206163636f756e747320616e6420696473206c656e67746860008201527f206d69736d617463680000000000000000000000000000000000000000000000602082015250565b6000614a82602983613d7c565b9150614a8d82614a26565b604082019050919050565b60006020820190508181036000830152614ab181614a75565b9050919050565b7f4e65772070726f6a656374206372656174656420776974682049443a00000000600082015250565b6000614aee601c83613d7c565b9150614af982614ab8565b602082019050919050565b60006060820190508181036000830152614b1d81614ae1565b90508181036020830152614b318185613dd1565b9050614b406040830184613c5f565b9392505050565b7f416c726561647920766f74656400000000000000000000000000000000000000600082015250565b6000614b7d600d83613d7c565b9150614b8882614b47565b602082019050919050565b60006020820190508181036000830152614bac81614b70565b9050919050565b7f566f74696e6720706f77657220697320696e73756666696369656e7400000000600082015250565b6000614be9601c83613d7c565b9150614bf482614bb3565b602082019050919050565b60006020820190508181036000830152614c1881614bdc565b9050919050565b6000614c2a82613be9565b9150614c3583613be9565b9250827fffffffffffffffffffffffffffffffffffffffffffffffffffffffffffffffff03821115614c6a57614c6961491d565b5b828201905092915050565b7f4e657720766f746520666f72206368616e67652070726f706f73616c3a000000600082015250565b6000614cab601d83613d7c565b9150614cb682614c75565b602082019050919050565b600060a0820190508181036000830152614cda81614c9e565b90508181036020830152614cee8187613dd1565b90508181036040830152614d028186613dd1565b9050614d1160608301856145a3565b614d1e6080830184613c5f565b95945050505050565b7f4e6577206368616e67652070726f706f73616c20746f207468652050726f6a6560008201527f6374207769746820746865206e616d6520616e6420666f6c6c6f77696e67204960208201527f4420616e64204349443a00000000000000000000000000000000000000000000604082015250565b6000614da9604a83613d7c565b9150614db482614d27565b606082019050919050565b60006080820190508181036000830152614dd881614d9c565b90508181036020830152614dec8186613dd1565b90508181036040830152614e008185613dd1565b9050614e0f6060830184613c5f565b949350505050565b6000614e2282613be9565b9150614e2d83613be9565b925082821015614e4057614e3f61491d565b5b828203905092915050565b7f4e487b7100000000000000000000000000000000000000000000000000000000600052603160045260246000fd5b6000614e8582613be9565b915060008203614e9857614e9761491d565b5b600182039050919050565b7f50726f6a656374206368616e67656420746f206368616e67653a200000000000600082015250565b6000614ed9601b83613d7c565b9150614ee482614ea3565b602082019050919050565b60006060820190508181036000830152614f0881614ecc565b90508181036020830152614f1c8185613dd1565b90508181036040830152614f308184613dd1565b90509392505050565b7f41206e6577206368616e676520686173206265656e206d61646520746f20746860008201527f652070726f6a6563743a20000000000000000000000000000000000000000000602082015250565b6000614f95602b83613d7c565b9150614fa082614f39565b604082019050919050565b60006060820190508181036000830152614fc481614f88565b90508181036020830152614fd88185613dd1565b90508181036040830152614fec8184613dd1565b90509392505050565b7f5468657265206973207374696c6c2074696d6520756e74696c20746865206e6560008201527f787420646973747269627574696f6e0000000000000000000000000000000000602082015250565b6000615051602f83613d7c565b915061505c82614ff5565b604082019050919050565b6000602082019050818103600083015261508081615044565b9050919050565b7f546f6b656e732064697374726962757465640000000000000000000000000000600082015250565b60006150bd601283613d7c565b91506150c882615087565b602082019050919050565b600060808201905081810360008301526150ec816150b0565b90506150fb6020830186613c5f565b6151086040830185613c5f565b6151156060830184613c5f565b949350505050565b7f4f776e61626c653a206e6577206f776e657220697320746865207a65726f206160008201527f6464726573730000000000000000000000000000000000000000000000000000602082015250565b6000615179602683613d7c565b91506151848261511d565b604082019050919050565b600060208201905081810360008301526151a88161516c565b9050919050565b7f455243313135353a2069647320616e6420616d6f756e7473206c656e6774682060008201527f6d69736d61746368000000000000000000000000000000000000000000000000602082015250565b600061520b602883613d7c565b9150615216826151af565b604082019050919050565b6000602082019050818103600083015261523a816151fe565b9050919050565b7f455243313135353a207472616e7366657220746f20746865207a65726f20616460008201527f6472657373000000000000000000000000000000000000000000000000000000602082015250565b600061529d602583613d7c565b91506152a882615241565b604082019050919050565b600060208201905081810360008301526152cc81615290565b9050919050565b7f455243313135353a20696e73756666696369656e742062616c616e636520666f60008201527f72207472616e7366657200000000000000000000000000000000000000000000602082015250565b600061532f602a83613d7c565b915061533a826152d3565b604082019050919050565b6000602082019050818103600083015261535e81615322565b9050919050565b6000604082019050818103600083015261537f81856144ab565b9050818103602083015261539381846144ab565b90509392505050565b7f455243313135353a206d696e7420746f20746865207a65726f2061646472657360008201527f7300000000000000000000000000000000000000000000000000000000000000602082015250565b60006153f8602183613d7c565b91506154038261539c565b604082019050919050565b60006020820190508181036000830152615427816153eb565b9050919050565b60006040820190506154436000830185613c5f565b6154506020830184613c5f565b9392505050565b7f4f776e61626c653a2063616c6c6572206973206e6f7420746865206f776e6572600082015250565b600061548d602083613d7c565b915061549882615457565b602082019050919050565b600060208201905081810360008301526154bc81615480565b9050919050565b7f50726f706f736564206368616e676520646f65736e2774206578697374000000600082015250565b60006154f9601d83613d7c565b9150615504826154c3565b602082019050919050565b60006020820190508181036000830152615528816154ec565b9050919050565b7f455243313135353a2073657474696e6720617070726f76616c2073746174757360008201527f20666f722073656c660000000000000000000000000000000000000000000000602082015250565b600061558b602983613d7c565b91506155968261552f565b604082019050919050565b600060208201905081810360008301526155ba8161557e565b9050919050565b600081519050919050565b600082825260208201905092915050565b60006155e8826155c1565b6155f281856155cc565b9350615602818560208601613d8d565b61560b81613dc0565b840191505092915050565b600060a08201905061562b60008301886145a3565b61563860208301876145a3565b818103604083015261564a81866144ab565b9050818103606083015261565e81856144ab565b9050818103608083015261567281846155dd565b90509695505050505050565b60008151905061568d81613cb5565b92915050565b6000602082840312156156a9576156a8613b81565b5b60006156b78482850161567e565b91505092915050565b60008160e01c9050919050565b600060033d11156156ec5760046000803e6156e96000516156c0565b90505b90565b600060443d1061577c57615701613b77565b60043d036004823e80513d602482011167ffffffffffffffff8211171561572957505061577c565b808201805167ffffffffffffffff811115615747575050505061577c565b80602083010160043d03850181111561576457505050505061577c565b61577382602001850186613e65565b82955050505050505b90565b7f455243313135353a207472616e7366657220746f206e6f6e2d4552433131353560008201527f526563656976657220696d706c656d656e746572000000000000000000000000602082015250565b60006157db603483613d7c565b91506157e68261577f565b604082019050919050565b6000602082019050818103600083015261580a816157ce565b9050919050565b7f455243313135353a204552433131353552656365697665722072656a6563746560008201527f6420746f6b656e73000000000000000000000000000000000000000000000000602082015250565b600061586d602883613d7c565b915061587882615811565b604082019050919050565b6000602082019050818103600083015261589c81615860565b9050919050565b600060a0820190506158b860008301886145a3565b6158c560208301876145a3565b6158d26040830186613c5f565b6158df6060830185613c5f565b81810360808301526158f181846155dd565b90509695505050505050565b7f455243313135353a206275726e20616d6f756e74206578636565647320746f7460008201527f616c537570706c79000000000000000000000000000000000000000000000000602082015250565b6000615959602883613d7c565b9150615964826158fd565b604082019050919050565b600060208201905081810360008301526159888161594c565b905091905056fea2646970667358221220d4604c88e85882e49d6db91bf79fff03865dd9027cdef9226ef3f2676887fe4464736f6c634300080d0033",
  "immutableReferences": {
    "20": [
      {
        "length": 32,
        "start": 4962
      },
      {
        "length": 32,
        "start": 9379
      }
    ]
  },
  "source": "// SPDX-License-Identifier: MIT\npragma solidity ^0.8.2;\n\nimport \"../node_modules/@openzeppelin/contracts/token/ERC1155/ERC1155.sol\";\nimport \"../node_modules/@openzeppelin/contracts/access/Ownable.sol\";\nimport \"../node_modules/@openzeppelin/contracts/utils/Counters.sol\";\nimport \"../node_modules/@openzeppelin/contracts/token/ERC1155/extensions/ERC1155Supply.sol\";\n\n\ncontract Steps is ERC1155, Ownable, ERC1155Supply {\n    uint public immutable TimeLockInterval = 60 * 60 * 24 * 7; // One Week\n    using Counters for Counters.Counter;\n\n    // -------------------------------------------------------- Mappings\n    mapping(string => uint) public NameToID;    \n\n    // -------------------------------------------------------- Structs\n    struct Change {\n        string changeCID;\n        address changeMaker;\n        uint votes;\n    }\n\n    struct goBack {\n        string changeCID;\n        address goBackMaker;\n        uint votes;\n    }\n\n    struct Project {\n        string name;\n        Change[] changes;\n        Change[] changeProposals;\n        goBack[] goBackProposals;\n\n        // time lock\n        uint lastDistributionTime;\n\n        // last distribution time index in changes and changeProposals\n        uint lastDistributionTimeIndexChanges;\n        uint lastDistributionTimeIndexChangeProposals;\n\n        // - ChangeCID => Voter address => Voted?\n        mapping(string => mapping(address => bool)) Voted;\n    }\n\n\n    // -------------------------------------------------------- Lists\n    Project[] publicProjects;\n\n    // -------------------------------------------------------- Events\n    event NewProjectCreated(string message, string name, uint value);\n    event NewChangeProposalCreated(string message, string Name, string CID, uint indexValue);\n    event NewVoteForChangeProposal(string message, string projectName, string changeProposalCID, address voter, uint votes);\n    event NewChangeIsMadeToProject(string message, string projectName, string changeCID); // Message, Project CID, Message, ChangeCID\n    event ProjectWentBack(string message, string changeCID, string ProjectName);\n    event TokensDisributed(string message, uint lastDistributionTime , uint newLastDistributionTimeIndexChanges, uint newLastDistributionTimeIndexChangeProposals);\n\n    // -------------------------------------------------------- Modifiers\n    modifier ProjectExist(string memory _Name) {\n        uint id = NameToID[_Name];\n        require(id < publicProjects.length, \"Project do not exist\");\n        _;\n    }\n\n    // -------------------------------------------------------- Constructor\n    constructor() ERC1155(\"URI\") {\n        publicProjects.push();\n    } // change URI to the website's one\n\n    // -------------------------------------------------------- Functions\n    function _beforeTokenTransfer(address operator, address from, address to, uint256[] memory ids, uint256[] memory amounts, bytes memory data) internal override(ERC1155, ERC1155Supply) {\n        super._beforeTokenTransfer(operator, from, to, ids, amounts, data);\n    }\n\n    function createProject(string memory _CID, string memory projectName) public {\n        // Create Project's Token and Mint\n        uint newProjectID = publicProjects.length;\n        NameToID[projectName] = newProjectID;\n        _mint(msg.sender, newProjectID, 10, \"\");\n        \n        // Create New Project\n        Project storage newProject = publicProjects.push();\n        newProject.name = projectName;\n        Change memory newChange = Change(_CID, msg.sender, 1);\n        newProject.changes.push(newChange);\n        newProject.lastDistributionTime = block.timestamp;\n\n        emit NewProjectCreated(\"New project created with ID:\", projectName, newProjectID);\n    }\n\n\n    function MakeChangeProposal(string memory _changeCID, string memory _projectName) ProjectExist(_projectName) external {\n        uint projectIDX = NameToID[_projectName];\n        publicProjects[projectIDX].changeProposals.push(Change(_changeCID, msg.sender, balanceOf(msg.sender, NameToID[_projectName])));\n        publicProjects[projectIDX].Voted[_changeCID][msg.sender] = true;\n        emit NewChangeProposalCreated(\"New change proposal to the Project with the name and following ID and CID:\", _projectName, _changeCID, projectIDX);\n    }\n\n    function getChangeProposalIndex(string memory _ChangeCID, string memory _projectName) internal view returns (uint)  {\n        uint _proposedChangeIdx;\n        bool found;\n\n        uint idx = NameToID[_projectName];\n        for (uint index = publicProjects[idx].changeProposals.length - 1; index >= 0; index--) {\n            string memory changeCIDcheck = publicProjects[idx].changeProposals[index].changeCID;\n            if (keccak256(abi.encodePacked(changeCIDcheck)) == keccak256(abi.encodePacked(_ChangeCID))) {\n                _proposedChangeIdx = index;\n                found = true;\n                break;\n            }\n        }\n\n        require(found == true, \"Proposed change doesn't exist\");\n        return _proposedChangeIdx;\n    }\n\n    function MakeGoBackProposal(string memory _changeCID, string memory _projectName) external {\n        uint projectID = NameToID[_projectName];\n        publicProjects[projectID].goBackProposals.push(goBack(_changeCID, msg.sender, 0));\n    }\n\n    function acceptGoBack(string memory _projectName, string memory _changeCID) ProjectExist(_projectName) external {\n        uint projectIDX = NameToID[_projectName];\n        uint _proposedChangeIdx = getChangeProposalIndex(_changeCID, _projectName);\n        for (uint index = publicProjects[projectIDX].changes.length; index > _proposedChangeIdx; index--) {\n            publicProjects[projectIDX].changeProposals.push(publicProjects[projectIDX].changes[index - 1]);\n            publicProjects[projectIDX].changes.pop();\n        }\n\n        emit ProjectWentBack(\"Project changed to change: \", _changeCID, _projectName);\n    }\n\n    function acceptChangeProposal(string memory _proposedChangeCID, string memory _projectName) ProjectExist(_projectName) external {\n        uint _proposedChangeIdx = getChangeProposalIndex(_proposedChangeCID, _projectName);\n        uint projectID = NameToID[_projectName];\n\n        Change memory proposedChange = publicProjects[projectID].changeProposals[_proposedChangeIdx];\n        Change memory LastProposedChange = publicProjects[projectID].changeProposals[publicProjects[projectID].changeProposals.length - 1];\n        publicProjects[projectID].changeProposals[publicProjects[projectID].changeProposals.length - 1] = proposedChange;\n        publicProjects[projectID].changeProposals[_proposedChangeIdx] = LastProposedChange;\n        publicProjects[projectID].changeProposals.pop();\n\n        publicProjects[projectID].changes.push(Change(proposedChange.changeCID, proposedChange.changeMaker, proposedChange.votes));\n\n        emit NewChangeIsMadeToProject(\"A new change has been made to the project: \", _projectName, _proposedChangeCID);\n    }\n\n    function getBalance(string memory _projectName) ProjectExist(_projectName) external view returns (uint) {\n        return balanceOf(msg.sender, NameToID[_projectName]);\n    }\n\n    function voteForChangeProposal(string memory _changeProposalCID, string memory _projectName) ProjectExist(_projectName) external {\n        uint projectID = NameToID[_projectName];\n        require(publicProjects[projectID].Voted[_changeProposalCID][msg.sender] == false, \"Already voted\");\n        uint votingPower = balanceOf(msg.sender, projectID);\n        require(votingPower > 0, \"Voting power is insufficient\");\n        uint _proposedChangeIdx = getChangeProposalIndex(_changeProposalCID, _projectName);\n\n        publicProjects[projectID].changeProposals[_proposedChangeIdx].votes += votingPower;\n        publicProjects[projectID].Voted[_changeProposalCID][msg.sender] = true;\n        \n        // New vote for change proposal: project name, changeCID, sender, votes\n        emit NewVoteForChangeProposal(\n            \"New vote for change proposal:\",\n            _projectName,\n            _changeProposalCID,\n            msg.sender,\n            publicProjects[projectID].changeProposals[_proposedChangeIdx].votes\n        );\n    }\n\n    function getProjectChanges(string memory _projectName) ProjectExist(_projectName) external view returns (string[] memory) {\n        uint projectID = NameToID[_projectName];\n        uint arr_length = publicProjects[projectID].changes.length;\n        string[] memory allChanges = new string[](arr_length);\n\n        for (uint256 i = 0; i < arr_length; i++) {\n            allChanges[i] = publicProjects[projectID].changes[i].changeCID;\n        }\n\n        return allChanges;\n    }\n\n    function getProjectChangeProposals(string memory _projectName) ProjectExist(_projectName) external view returns (string[] memory) {\n        uint projectID = NameToID[_projectName];\n        uint arr_length = publicProjects[projectID].changeProposals.length;\n        string[] memory allChanges = new string[](arr_length);\n\n        for (uint256 i = 0; i < arr_length; i++) {\n            allChanges[i] = publicProjects[projectID].changeProposals[i].changeCID;\n        }\n\n        return allChanges;\n    }\n\n    function getLastProjects() external view returns (string[] memory) {\n        uint arr_length = publicProjects.length;\n        uint arr_index = publicProjects.length;\n        if (arr_length > 10) {\n            arr_length = 10;\n        }\n\n        string[] memory lastProjects = new string[](arr_length);\n        if (publicProjects.length > 0) {\n        for (uint256 i = arr_index - arr_length; i < arr_index; i++) {\n            lastProjects[arr_index - 1 - i] = publicProjects[i].name; \n        }}\n        return lastProjects;\n    }\n\n    function distributeTokens(string memory _projectName) ProjectExist(_projectName) external {\n        uint projectID = NameToID[_projectName];\n        \n        publicProjects[projectID].lastDistributionTimeIndexChanges = publicProjects[projectID].changes.length - 1;\n        publicProjects[projectID].lastDistributionTimeIndexChangeProposals = publicProjects[projectID].changeProposals.length - 1;\n        \n        require(block.timestamp >= publicProjects[projectID].lastDistributionTime + TimeLockInterval, \"There is still time until the next distribution\");\n\n        // <token distribution>\n        // ...\n        // <token distribution/>\n\n        publicProjects[projectID].lastDistributionTime = block.timestamp;\n\n        emit TokensDisributed(\n            \"Tokens distributed\",\n            publicProjects[projectID].lastDistributionTime,\n            publicProjects[projectID].lastDistributionTimeIndexChanges,\n            publicProjects[projectID].lastDistributionTimeIndexChangeProposals\n        );\n    }\n\n}\n",
  "sourcePath": "c:\\Users\\User\\Desktop\\\\davidson\\project\\DavidsonProject\\Smart Contract\\contracts\\Steps.sol",
  "compiler": {
    "name": "solc",
    "version": "0.8.13+commit.abaa5c0e.Emscripten.clang"
  },
  "schemaVersion": "3.4.7",
  "updatedAt": "2024-01-18T17:51:16.499Z",
  "devdoc": {
    "kind": "dev",
    "methods": {
      "balanceOf(address,uint256)": {
        "details": "See {IERC1155-balanceOf}. Requirements: - `account` cannot be the zero address."
      },
      "balanceOfBatch(address[],uint256[])": {
        "details": "See {IERC1155-balanceOfBatch}. Requirements: - `accounts` and `ids` must have the same length."
      },
      "exists(uint256)": {
        "details": "Indicates whether any token exist with a given id, or not."
      },
      "isApprovedForAll(address,address)": {
        "details": "See {IERC1155-isApprovedForAll}."
      },
      "owner()": {
        "details": "Returns the address of the current owner."
      },
      "renounceOwnership()": {
        "details": "Leaves the contract without owner. It will not be possible to call `onlyOwner` functions. Can only be called by the current owner. NOTE: Renouncing ownership will leave the contract without an owner, thereby disabling any functionality that is only available to the owner."
      },
      "safeBatchTransferFrom(address,address,uint256[],uint256[],bytes)": {
        "details": "See {IERC1155-safeBatchTransferFrom}."
      },
      "safeTransferFrom(address,address,uint256,uint256,bytes)": {
        "details": "See {IERC1155-safeTransferFrom}."
      },
      "setApprovalForAll(address,bool)": {
        "details": "See {IERC1155-setApprovalForAll}."
      },
      "supportsInterface(bytes4)": {
        "details": "See {IERC165-supportsInterface}."
      },
      "totalSupply(uint256)": {
        "details": "Total amount of tokens in with a given id."
      },
      "transferOwnership(address)": {
        "details": "Transfers ownership of the contract to a new account (`newOwner`). Can only be called by the current owner."
      },
      "uri(uint256)": {
        "details": "See {IERC1155MetadataURI-uri}. This implementation returns the same URI for *all* token types. It relies on the token type ID substitution mechanism https://eips.ethereum.org/EIPS/eip-1155#metadata[defined in the EIP]. Clients calling this function must replace the `\\{id\\}` substring with the actual token type ID."
      }
    },
    "version": 1
  },
  "userdoc": {
    "kind": "user",
    "methods": {},
    "version": 1
  }
}