{
  "contractName": "Steps",
  "abi": [
    {
      "inputs": [],
      "stateMutability": "nonpayable",
      "type": "constructor"
    },
    {
      "anonymous": false,
      "inputs": [
        {
          "indexed": true,
          "internalType": "address",
          "name": "account",
          "type": "address"
        },
        {
          "indexed": true,
          "internalType": "address",
          "name": "operator",
          "type": "address"
        },
        {
          "indexed": false,
          "internalType": "bool",
          "name": "approved",
          "type": "bool"
        }
      ],
      "name": "ApprovalForAll",
      "type": "event"
    },
    {
      "anonymous": false,
      "inputs": [
        {
          "indexed": false,
          "internalType": "string",
          "name": "message",
          "type": "string"
        },
        {
          "indexed": false,
          "internalType": "string",
          "name": "projectName",
          "type": "string"
        },
        {
          "indexed": false,
          "internalType": "string",
          "name": "changeCID",
          "type": "string"
        }
      ],
      "name": "NewChangeIsMadeToProject",
      "type": "event"
    },
    {
      "anonymous": false,
      "inputs": [
        {
          "indexed": false,
          "internalType": "string",
          "name": "message",
          "type": "string"
        },
        {
          "indexed": false,
          "internalType": "string",
          "name": "Name",
          "type": "string"
        },
        {
          "indexed": false,
          "internalType": "string",
          "name": "CID",
          "type": "string"
        },
        {
          "indexed": false,
          "internalType": "uint256",
          "name": "indexValue",
          "type": "uint256"
        }
      ],
      "name": "NewChangeProposalCreated",
      "type": "event"
    },
    {
      "anonymous": false,
      "inputs": [
        {
          "indexed": false,
          "internalType": "string",
          "name": "message",
          "type": "string"
        },
        {
          "indexed": false,
          "internalType": "string",
          "name": "name",
          "type": "string"
        },
        {
          "indexed": false,
          "internalType": "uint256",
          "name": "value",
          "type": "uint256"
        }
      ],
      "name": "NewProjectCreated",
      "type": "event"
    },
    {
      "anonymous": false,
      "inputs": [
        {
          "indexed": false,
          "internalType": "string",
          "name": "message",
          "type": "string"
        },
        {
          "indexed": false,
          "internalType": "string",
          "name": "projectName",
          "type": "string"
        },
        {
          "indexed": false,
          "internalType": "string",
          "name": "changeProposalCID",
          "type": "string"
        },
        {
          "indexed": false,
          "internalType": "address",
          "name": "voter",
          "type": "address"
        },
        {
          "indexed": false,
          "internalType": "uint256",
          "name": "votes",
          "type": "uint256"
        }
      ],
      "name": "NewVoteForChangeProposal",
      "type": "event"
    },
    {
      "anonymous": false,
      "inputs": [
        {
          "indexed": true,
          "internalType": "address",
          "name": "previousOwner",
          "type": "address"
        },
        {
          "indexed": true,
          "internalType": "address",
          "name": "newOwner",
          "type": "address"
        }
      ],
      "name": "OwnershipTransferred",
      "type": "event"
    },
    {
      "anonymous": false,
      "inputs": [
        {
          "indexed": false,
          "internalType": "string",
          "name": "message",
          "type": "string"
        },
        {
          "indexed": false,
          "internalType": "string",
          "name": "changeCID",
          "type": "string"
        },
        {
          "indexed": false,
          "internalType": "string",
          "name": "ProjectName",
          "type": "string"
        }
      ],
      "name": "ProjectWentBack",
      "type": "event"
    },
    {
      "anonymous": false,
      "inputs": [
        {
          "indexed": false,
          "internalType": "string",
          "name": "message",
          "type": "string"
        },
        {
          "indexed": false,
          "internalType": "uint256",
          "name": "lastDistributionTime",
          "type": "uint256"
        }
      ],
      "name": "TokensDisributed",
      "type": "event"
    },
    {
      "anonymous": false,
      "inputs": [
        {
          "indexed": true,
          "internalType": "address",
          "name": "operator",
          "type": "address"
        },
        {
          "indexed": true,
          "internalType": "address",
          "name": "from",
          "type": "address"
        },
        {
          "indexed": true,
          "internalType": "address",
          "name": "to",
          "type": "address"
        },
        {
          "indexed": false,
          "internalType": "uint256[]",
          "name": "ids",
          "type": "uint256[]"
        },
        {
          "indexed": false,
          "internalType": "uint256[]",
          "name": "values",
          "type": "uint256[]"
        }
      ],
      "name": "TransferBatch",
      "type": "event"
    },
    {
      "anonymous": false,
      "inputs": [
        {
          "indexed": true,
          "internalType": "address",
          "name": "operator",
          "type": "address"
        },
        {
          "indexed": true,
          "internalType": "address",
          "name": "from",
          "type": "address"
        },
        {
          "indexed": true,
          "internalType": "address",
          "name": "to",
          "type": "address"
        },
        {
          "indexed": false,
          "internalType": "uint256",
          "name": "id",
          "type": "uint256"
        },
        {
          "indexed": false,
          "internalType": "uint256",
          "name": "value",
          "type": "uint256"
        }
      ],
      "name": "TransferSingle",
      "type": "event"
    },
    {
      "anonymous": false,
      "inputs": [
        {
          "indexed": false,
          "internalType": "string",
          "name": "value",
          "type": "string"
        },
        {
          "indexed": true,
          "internalType": "uint256",
          "name": "id",
          "type": "uint256"
        }
      ],
      "name": "URI",
      "type": "event"
    },
    {
      "inputs": [
        {
          "internalType": "string",
          "name": "",
          "type": "string"
        }
      ],
      "name": "NameToID",
      "outputs": [
        {
          "internalType": "uint256",
          "name": "",
          "type": "uint256"
        }
      ],
      "stateMutability": "view",
      "type": "function",
      "constant": true
    },
    {
      "inputs": [],
      "name": "TimeLockInterval",
      "outputs": [
        {
          "internalType": "uint256",
          "name": "",
          "type": "uint256"
        }
      ],
      "stateMutability": "view",
      "type": "function",
      "constant": true
    },
    {
      "inputs": [
        {
          "internalType": "address",
          "name": "account",
          "type": "address"
        },
        {
          "internalType": "uint256",
          "name": "id",
          "type": "uint256"
        }
      ],
      "name": "balanceOf",
      "outputs": [
        {
          "internalType": "uint256",
          "name": "",
          "type": "uint256"
        }
      ],
      "stateMutability": "view",
      "type": "function",
      "constant": true
    },
    {
      "inputs": [
        {
          "internalType": "address[]",
          "name": "accounts",
          "type": "address[]"
        },
        {
          "internalType": "uint256[]",
          "name": "ids",
          "type": "uint256[]"
        }
      ],
      "name": "balanceOfBatch",
      "outputs": [
        {
          "internalType": "uint256[]",
          "name": "",
          "type": "uint256[]"
        }
      ],
      "stateMutability": "view",
      "type": "function",
      "constant": true
    },
    {
      "inputs": [
        {
          "internalType": "uint256",
          "name": "id",
          "type": "uint256"
        }
      ],
      "name": "exists",
      "outputs": [
        {
          "internalType": "bool",
          "name": "",
          "type": "bool"
        }
      ],
      "stateMutability": "view",
      "type": "function",
      "constant": true
    },
    {
      "inputs": [
        {
          "internalType": "address",
          "name": "account",
          "type": "address"
        },
        {
          "internalType": "address",
          "name": "operator",
          "type": "address"
        }
      ],
      "name": "isApprovedForAll",
      "outputs": [
        {
          "internalType": "bool",
          "name": "",
          "type": "bool"
        }
      ],
      "stateMutability": "view",
      "type": "function",
      "constant": true
    },
    {
      "inputs": [],
      "name": "owner",
      "outputs": [
        {
          "internalType": "address",
          "name": "",
          "type": "address"
        }
      ],
      "stateMutability": "view",
      "type": "function",
      "constant": true
    },
    {
      "inputs": [],
      "name": "renounceOwnership",
      "outputs": [],
      "stateMutability": "nonpayable",
      "type": "function"
    },
    {
      "inputs": [
        {
          "internalType": "address",
          "name": "from",
          "type": "address"
        },
        {
          "internalType": "address",
          "name": "to",
          "type": "address"
        },
        {
          "internalType": "uint256[]",
          "name": "ids",
          "type": "uint256[]"
        },
        {
          "internalType": "uint256[]",
          "name": "amounts",
          "type": "uint256[]"
        },
        {
          "internalType": "bytes",
          "name": "data",
          "type": "bytes"
        }
      ],
      "name": "safeBatchTransferFrom",
      "outputs": [],
      "stateMutability": "nonpayable",
      "type": "function"
    },
    {
      "inputs": [
        {
          "internalType": "address",
          "name": "from",
          "type": "address"
        },
        {
          "internalType": "address",
          "name": "to",
          "type": "address"
        },
        {
          "internalType": "uint256",
          "name": "id",
          "type": "uint256"
        },
        {
          "internalType": "uint256",
          "name": "amount",
          "type": "uint256"
        },
        {
          "internalType": "bytes",
          "name": "data",
          "type": "bytes"
        }
      ],
      "name": "safeTransferFrom",
      "outputs": [],
      "stateMutability": "nonpayable",
      "type": "function"
    },
    {
      "inputs": [
        {
          "internalType": "address",
          "name": "operator",
          "type": "address"
        },
        {
          "internalType": "bool",
          "name": "approved",
          "type": "bool"
        }
      ],
      "name": "setApprovalForAll",
      "outputs": [],
      "stateMutability": "nonpayable",
      "type": "function"
    },
    {
      "inputs": [
        {
          "internalType": "bytes4",
          "name": "interfaceId",
          "type": "bytes4"
        }
      ],
      "name": "supportsInterface",
      "outputs": [
        {
          "internalType": "bool",
          "name": "",
          "type": "bool"
        }
      ],
      "stateMutability": "view",
      "type": "function",
      "constant": true
    },
    {
      "inputs": [
        {
          "internalType": "uint256",
          "name": "id",
          "type": "uint256"
        }
      ],
      "name": "totalSupply",
      "outputs": [
        {
          "internalType": "uint256",
          "name": "",
          "type": "uint256"
        }
      ],
      "stateMutability": "view",
      "type": "function",
      "constant": true
    },
    {
      "inputs": [
        {
          "internalType": "address",
          "name": "newOwner",
          "type": "address"
        }
      ],
      "name": "transferOwnership",
      "outputs": [],
      "stateMutability": "nonpayable",
      "type": "function"
    },
    {
      "inputs": [
        {
          "internalType": "uint256",
          "name": "",
          "type": "uint256"
        }
      ],
      "name": "uri",
      "outputs": [
        {
          "internalType": "string",
          "name": "",
          "type": "string"
        }
      ],
      "stateMutability": "view",
      "type": "function",
      "constant": true
    },
    {
      "inputs": [
        {
          "internalType": "string",
          "name": "_CID",
          "type": "string"
        },
        {
          "internalType": "string",
          "name": "projectName",
          "type": "string"
        }
      ],
      "name": "createProject",
      "outputs": [],
      "stateMutability": "nonpayable",
      "type": "function"
    },
    {
      "inputs": [
        {
          "internalType": "string",
          "name": "_changeCID",
          "type": "string"
        },
        {
          "internalType": "string",
          "name": "_projectName",
          "type": "string"
        }
      ],
      "name": "MakeChangeProposal",
      "outputs": [],
      "stateMutability": "nonpayable",
      "type": "function"
    },
    {
      "inputs": [
        {
          "internalType": "string",
          "name": "_changeCID",
          "type": "string"
        },
        {
          "internalType": "string",
          "name": "_projectName",
          "type": "string"
        }
      ],
      "name": "MakeGoBackProposal",
      "outputs": [],
      "stateMutability": "nonpayable",
      "type": "function"
    },
    {
      "inputs": [
        {
          "internalType": "string",
          "name": "_projectName",
          "type": "string"
        },
        {
          "internalType": "string",
          "name": "_changeCID",
          "type": "string"
        }
      ],
      "name": "acceptGoBack",
      "outputs": [],
      "stateMutability": "nonpayable",
      "type": "function"
    },
    {
      "inputs": [
        {
          "internalType": "string",
          "name": "_proposedChangeCID",
          "type": "string"
        },
        {
          "internalType": "string",
          "name": "_projectName",
          "type": "string"
        }
      ],
      "name": "acceptChangeProposal",
      "outputs": [],
      "stateMutability": "nonpayable",
      "type": "function"
    },
    {
      "inputs": [
        {
          "internalType": "string",
          "name": "_projectName",
          "type": "string"
        }
      ],
      "name": "getBalance",
      "outputs": [
        {
          "internalType": "uint256",
          "name": "",
          "type": "uint256"
        }
      ],
      "stateMutability": "view",
      "type": "function",
      "constant": true
    },
    {
      "inputs": [
        {
          "internalType": "string",
          "name": "_changeProposalCID",
          "type": "string"
        },
        {
          "internalType": "string",
          "name": "_projectName",
          "type": "string"
        }
      ],
      "name": "voteForChangeProposal",
      "outputs": [],
      "stateMutability": "nonpayable",
      "type": "function"
    },
    {
      "inputs": [
        {
          "internalType": "string",
          "name": "_projectName",
          "type": "string"
        },
        {
          "internalType": "bool",
          "name": "changesOrChangeProposals",
          "type": "bool"
        }
      ],
      "name": "getProjectChangesOrchangeProposals",
      "outputs": [
        {
          "internalType": "string[]",
          "name": "",
          "type": "string[]"
        }
      ],
      "stateMutability": "view",
      "type": "function",
      "constant": true
    },
    {
      "inputs": [],
      "name": "getLastProjects",
      "outputs": [
        {
          "internalType": "string[]",
          "name": "",
          "type": "string[]"
        }
      ],
      "stateMutability": "view",
      "type": "function",
      "constant": true
    },
    {
      "inputs": [
        {
          "internalType": "string",
          "name": "_projectName",
          "type": "string"
        }
      ],
      "name": "distributeTokens",
      "outputs": [],
      "stateMutability": "nonpayable",
      "type": "function"
    }
  ],
  "bytecode": "0x60a060405262278d006080908152503480156200001b57600080fd5b506040518060400160405280600381526020017f555249000000000000000000000000000000000000000000000000000000000081525062000063816200008a60201b60201c565b506200008462000078620000a660201b60201c565b620000ae60201b60201c565b62000288565b8060029080519060200190620000a292919062000174565b5050565b600033905090565b6000600360009054906101000a900473ffffffffffffffffffffffffffffffffffffffff16905081600360006101000a81548173ffffffffffffffffffffffffffffffffffffffff021916908373ffffffffffffffffffffffffffffffffffffffff1602179055508173ffffffffffffffffffffffffffffffffffffffff168173ffffffffffffffffffffffffffffffffffffffff167f8be0079c531659141344cd1fd0a4f28419497f9722a3daafe3b4186f6b6457e060405160405180910390a35050565b828054620001829062000253565b90600052602060002090601f016020900481019282620001a65760008555620001f2565b82601f10620001c157805160ff1916838001178555620001f2565b82800160010185558215620001f2579182015b82811115620001f1578251825591602001919060010190620001d4565b5b50905062000201919062000205565b5090565b5b808211156200022057600081600090555060010162000206565b5090565b7f4e487b7100000000000000000000000000000000000000000000000000000000600052602260045260246000fd5b600060028204905060018216806200026c57607f821691505b60208210810362000282576200028162000224565b5b50919050565b6080516153b8620002ab600039600081816110560152611eae01526153b86000f3fe608060405234801561001057600080fd5b50600436106101725760003560e01c80638d1446fc116100de578063bd85b03911610097578063ed0c2d9011610071578063ed0c2d901461047f578063ee9c3aa31461049b578063f242432a146104b7578063f2fde38b146104d357610172565b8063bd85b03914610403578063c4687fb814610433578063e985e9c51461044f57610172565b80638d1446fc146103435780638da5cb5b1461035f578063a22cb4651461037d578063a54d804d14610399578063a5635963146103b7578063b0abab7c146103d357610172565b80634e1273f4116101305780634e1273f4146102835780634f558e79146102b35780636bd06204146102e3578063715018a6146102ff578063750354d2146103095780637a5945da1461032557610172565b8062fdd58e1461017757806301ffc9a7146101a75780630e89341c146101d75780632eb2c2d61461020757806333846eba146102235780633a51d24614610253575b600080fd5b610191600480360381019061018c9190613309565b6104ef565b60405161019e9190613358565b60405180910390f35b6101c160048036038101906101bc91906133cb565b6105b7565b6040516101ce9190613413565b60405180910390f35b6101f160048036038101906101ec919061342e565b610699565b6040516101fe91906134f4565b60405180910390f35b610221600480360381019061021c9190613713565b61072d565b005b61023d60048036038101906102389190613883565b6107ce565b60405161024a9190613358565b60405180910390f35b61026d60048036038101906102689190613883565b6107fc565b60405161027a9190613358565b60405180910390f35b61029d6004803603810190610298919061398f565b61095a565b6040516102aa9190613ac5565b60405180910390f35b6102cd60048036038101906102c8919061342e565b610a73565b6040516102da9190613413565b60405180910390f35b6102fd60048036038101906102f89190613ae7565b610a87565b005b610307610bc3565b005b610323600480360381019061031e9190613ae7565b610bd7565b005b61032d611054565b60405161033a9190613358565b60405180910390f35b61035d60048036038101906103589190613ae7565b611078565b005b610367611357565b6040516103749190613b6e565b60405180910390f35b61039760048036038101906103929190613bb5565b611381565b005b6103a1611397565b6040516103ae9190613d01565b60405180910390f35b6103d160048036038101906103cc9190613ae7565b611535565b005b6103ed60048036038101906103e89190613d23565b611673565b6040516103fa9190613d01565b60405180910390f35b61041d6004803603810190610418919061342e565b611873565b60405161042a9190613358565b60405180910390f35b61044d60048036038101906104489190613ae7565b611890565b005b61046960048036038101906104649190613d7f565b611aad565b6040516104769190613413565b60405180910390f35b61049960048036038101906104949190613ae7565b611b41565b005b6104b560048036038101906104b09190613883565b611d5e565b005b6104d160048036038101906104cc9190613dbf565b611fcb565b005b6104ed60048036038101906104e89190613e56565b61206c565b005b60008073ffffffffffffffffffffffffffffffffffffffff168373ffffffffffffffffffffffffffffffffffffffff160361055f576040517f08c379a000000000000000000000000000000000000000000000000000000000815260040161055690613ef5565b60405180910390fd5b60008083815260200190815260200160002060008473ffffffffffffffffffffffffffffffffffffffff1673ffffffffffffffffffffffffffffffffffffffff16815260200190815260200160002054905092915050565b60007fd9b67a26000000000000000000000000000000000000000000000000000000007bffffffffffffffffffffffffffffffffffffffffffffffffffffffff1916827bffffffffffffffffffffffffffffffffffffffffffffffffffffffff1916148061068257507f0e89341c000000000000000000000000000000000000000000000000000000007bffffffffffffffffffffffffffffffffffffffffffffffffffffffff1916827bffffffffffffffffffffffffffffffffffffffffffffffffffffffff1916145b806106925750610691826120ef565b5b9050919050565b6060600280546106a890613f44565b80601f01602080910402602001604051908101604052809291908181526020018280546106d490613f44565b80156107215780601f106106f657610100808354040283529160200191610721565b820191906000526020600020905b81548152906001019060200180831161070457829003601f168201915b50505050509050919050565b610735612159565b73ffffffffffffffffffffffffffffffffffffffff168573ffffffffffffffffffffffffffffffffffffffff16148061077b575061077a85610775612159565b611aad565b5b6107ba576040517f08c379a00000000000000000000000000000000000000000000000000000000081526004016107b190613fe7565b60405180910390fd5b6107c78585858585612161565b5050505050565b6005818051602081018201805184825260208301602085012081835280955050505050506000915090505481565b60008160006005826040516108119190614043565b9081526020016040518091039020549050600081036108e1578160405160200161083b9190614043565b60405160208183030381529060405280519060200120600682815481106108655761086461405a565b5b9060005260206000209060070201600001604051602001610886919061411d565b60405160208183030381529060405280519060200120146108dc576040517f08c379a00000000000000000000000000000000000000000000000000000000081526004016108d390614180565b60405180910390fd5b610929565b6006805490508110610928576040517f08c379a000000000000000000000000000000000000000000000000000000000815260040161091f90614180565b60405180910390fd5b5b6109513360058660405161093d9190614043565b9081526020016040518091039020546104ef565b92505050919050565b606081518351146109a0576040517f08c379a000000000000000000000000000000000000000000000000000000000815260040161099790614212565b60405180910390fd5b6000835167ffffffffffffffff8111156109bd576109bc61351b565b5b6040519080825280602002602001820160405280156109eb5781602001602082028036833780820191505090505b50905060005b8451811015610a6857610a38858281518110610a1057610a0f61405a565b5b6020026020010151858381518110610a2b57610a2a61405a565b5b60200260200101516104ef565b828281518110610a4b57610a4a61405a565b5b60200260200101818152505080610a6190614261565b90506109f1565b508091505092915050565b600080610a7f83611873565b119050919050565b6000600680549050905080600583604051610aa29190614043565b908152602001604051809103902081905550610ad03382600a60405180602001604052806000815250612482565b60006006600181600181540180825580915050039060005260206000209060070201905082816000019080519060200190610b0c9291906131be565b508060010173__ChangesLibrary________________________63aaff905a9091866040518363ffffffff1660e01b8152600401610b4b9291906142fa565b60006040518083038186803b158015610b6357600080fd5b505af4158015610b77573d6000803e3d6000fd5b505050504281600501819055507fe224389b386caecb8e3b38edc39361c7227e3ef820a8276bc31ac9cf1ba69fcd8383604051610bb5929190614376565b60405180910390a150505050565b610bcb612632565b610bd560006126b0565b565b806000600582604051610bea9190614043565b908152602001604051809103902054905060008103610cba5781604051602001610c149190614043565b6040516020818303038152906040528051906020012060068281548110610c3e57610c3d61405a565b5b9060005260206000209060070201600001604051602001610c5f919061411d565b6040516020818303038152906040528051906020012014610cb5576040517f08c379a0000000000000000000000000000000000000000000000000000000008152600401610cac90614180565b60405180910390fd5b610d02565b6006805490508110610d01576040517f08c379a0000000000000000000000000000000000000000000000000000000008152600401610cf890614180565b60405180910390fd5b5b6000600584604051610d149190614043565b90815260200160405180910390205490506000151560068281548110610d3d57610d3c61405a565b5b906000526020600020906007020160060186604051610d5c9190614043565b908152602001604051809103902060003373ffffffffffffffffffffffffffffffffffffffff1673ffffffffffffffffffffffffffffffffffffffff16815260200190815260200160002060009054906101000a900460ff16151514610df7576040517f08c379a0000000000000000000000000000000000000000000000000000000008152600401610dee90614405565b60405180910390fd5b6000610e0333836104ef565b905060008111610e48576040517f08c379a0000000000000000000000000000000000000000000000000000000008152600401610e3f90614471565b60405180910390fd5b60068281548110610e5c57610e5b61405a565b5b906000526020600020906007020160010173__ChangesLibrary________________________637dba11cb909188846040518463ffffffff1660e01b8152600401610ea9939291906144a0565b60006040518083038186803b158015610ec157600080fd5b505af4158015610ed5573d6000803e3d6000fd5b50505050600160068381548110610eef57610eee61405a565b5b906000526020600020906007020160060187604051610f0e9190614043565b908152602001604051809103902060003373ffffffffffffffffffffffffffffffffffffffff1673ffffffffffffffffffffffffffffffffffffffff16815260200190815260200160002060006101000a81548160ff0219169083151502179055507f0defd832aa647eb845ac2ed5e414ba9da1d13d7c3b2028fea20853913891174d85873360068681548110610fa857610fa761405a565b5b906000526020600020906007020160010173__ChangesLibrary________________________63ca5451d290918c6040518363ffffffff1660e01b8152600401610ff39291906142fa565b602060405180830381865af4158015611010573d6000803e3d6000fd5b505050506040513d601f19601f8201168201806040525081019061103491906144f3565b604051611044949392919061456c565b60405180910390a1505050505050565b7f000000000000000000000000000000000000000000000000000000000000000081565b80600060058260405161108b9190614043565b90815260200160405180910390205490506000810361115b57816040516020016110b59190614043565b60405160208183030381529060405280519060200120600682815481106110df576110de61405a565b5b9060005260206000209060070201600001604051602001611100919061411d565b6040516020818303038152906040528051906020012014611156576040517f08c379a000000000000000000000000000000000000000000000000000000000815260040161114d90614180565b60405180910390fd5b6111a3565b60068054905081106111a2576040517f08c379a000000000000000000000000000000000000000000000000000000000815260040161119990614180565b60405180910390fd5b5b60006005846040516111b59190614043565b9081526020016040518091039020549050600681815481106111da576111d961405a565b5b906000526020600020906007020160010173__ChangesLibrary________________________636de060a89091876112303360058a60405161121c9190614043565b9081526020016040518091039020546104ef565b6040518463ffffffff1660e01b815260040161124e939291906144a0565b60006040518083038186803b15801561126657600080fd5b505af415801561127a573d6000803e3d6000fd5b505050506001600682815481106112945761129361405a565b5b9060005260206000209060070201600601866040516112b39190614043565b908152602001604051809103902060003373ffffffffffffffffffffffffffffffffffffffff1673ffffffffffffffffffffffffffffffffffffffff16815260200190815260200160002060006101000a81548160ff0219169083151502179055507f7b7acf540aac5e16ce3dfbd4d106c203a301da603c18502d179f60282962e5c48486836040516113489392919061466a565b60405180910390a15050505050565b6000600360009054906101000a900473ffffffffffffffffffffffffffffffffffffffff16905090565b61139361138c612159565b8383612776565b5050565b60606000600680549050905060006006805490509050600a8211156113bb57600a91505b60008267ffffffffffffffff8111156113d7576113d661351b565b5b60405190808252806020026020018201604052801561140a57816020015b60608152602001906001900390816113f55790505b5090506000600680549050111561152c576000838361142991906146c2565b90505b8281101561152a57600681815481106114485761144761405a565b5b9060005260206000209060070201600001805461146490613f44565b80601f016020809104026020016040519081016040528092919081815260200182805461149090613f44565b80156114dd5780601f106114b2576101008083540402835291602001916114dd565b820191906000526020600020905b8154815290600101906020018083116114c057829003601f168201915b505050505082826001866114f191906146c2565b6114fb91906146c2565b8151811061150c5761150b61405a565b5b6020026020010181905250808061152290614261565b91505061142c565b505b80935050505090565b60006005826040516115479190614043565b90815260200160405180910390205490506006818154811061156c5761156b61405a565b5b906000526020600020906007020160040160405180606001604052808581526020013373ffffffffffffffffffffffffffffffffffffffff1681526020016115d2336005876040516115be9190614043565b9081526020016040518091039020546104ef565b8152509080600181540180825580915050600190039060005260206000209060030201600090919091909150600082015181600001908051906020019061161a9291906131be565b5060208201518160010160006101000a81548173ffffffffffffffffffffffffffffffffffffffff021916908373ffffffffffffffffffffffffffffffffffffffff160217905550604082015181600201555050505050565b60608260006005826040516116889190614043565b90815260200160405180910390205490506000810361175857816040516020016116b29190614043565b60405160208183030381529060405280519060200120600682815481106116dc576116db61405a565b5b90600052602060002090600702016000016040516020016116fd919061411d565b6040516020818303038152906040528051906020012014611753576040517f08c379a000000000000000000000000000000000000000000000000000000000815260040161174a90614180565b60405180910390fd5b6117a0565b600680549050811061179f576040517f08c379a000000000000000000000000000000000000000000000000000000000815260040161179690614180565b60405180910390fd5b5b60006005866040516117b29190614043565b9081526020016040518091039020549050600681815481106117d7576117d661405a565b5b906000526020600020906007020160010173__ChangesLibrary________________________63e3e26be89091876040518363ffffffff1660e01b8152600401611822929190614705565b600060405180830381865af415801561183f573d6000803e3d6000fd5b505050506040513d6000823e3d601f19601f82011682018060405250810190611868919061487f565b935050505092915050565b600060046000838152602001908152602001600020549050919050565b8160006005826040516118a39190614043565b90815260200160405180910390205490506000810361197357816040516020016118cd9190614043565b60405160208183030381529060405280519060200120600682815481106118f7576118f661405a565b5b9060005260206000209060070201600001604051602001611918919061411d565b604051602081830303815290604052805190602001201461196e576040517f08c379a000000000000000000000000000000000000000000000000000000000815260040161196590614180565b60405180910390fd5b6119bb565b60068054905081106119ba576040517f08c379a00000000000000000000000000000000000000000000000000000000081526004016119b190614180565b60405180910390fd5b5b60006005856040516119cd9190614043565b9081526020016040518091039020549050600681815481106119f2576119f161405a565b5b906000526020600020906007020160010173__ChangesLibrary________________________637cbb44f99091866040518363ffffffff1660e01b8152600401611a3d9291906142fa565b60006040518083038186803b158015611a5557600080fd5b505af4158015611a69573d6000803e3d6000fd5b505050507f718a982b61bc723a0c68281b0eb10e1cff37bd89888841ae545c98cd5493a0568486604051611a9e929190614914565b60405180910390a15050505050565b6000600160008473ffffffffffffffffffffffffffffffffffffffff1673ffffffffffffffffffffffffffffffffffffffff16815260200190815260200160002060008373ffffffffffffffffffffffffffffffffffffffff1673ffffffffffffffffffffffffffffffffffffffff16815260200190815260200160002060009054906101000a900460ff16905092915050565b806000600582604051611b549190614043565b908152602001604051809103902054905060008103611c245781604051602001611b7e9190614043565b6040516020818303038152906040528051906020012060068281548110611ba857611ba761405a565b5b9060005260206000209060070201600001604051602001611bc9919061411d565b6040516020818303038152906040528051906020012014611c1f576040517f08c379a0000000000000000000000000000000000000000000000000000000008152600401611c1690614180565b60405180910390fd5b611c6c565b6006805490508110611c6b576040517f08c379a0000000000000000000000000000000000000000000000000000000008152600401611c6290614180565b60405180910390fd5b5b6000600584604051611c7e9190614043565b908152602001604051809103902054905060068181548110611ca357611ca261405a565b5b906000526020600020906007020160010173__ChangesLibrary________________________636b6b15cc9091876040518363ffffffff1660e01b8152600401611cee9291906142fa565b60006040518083038186803b158015611d0657600080fd5b505af4158015611d1a573d6000803e3d6000fd5b505050507fa59a33e81abf86b25a561f609013d867f28b3c0cbc2cdf98e852b0c0c041eb6c8486604051611d4f9291906149d0565b60405180910390a15050505050565b806000600582604051611d719190614043565b908152602001604051809103902054905060008103611e415781604051602001611d9b9190614043565b6040516020818303038152906040528051906020012060068281548110611dc557611dc461405a565b5b9060005260206000209060070201600001604051602001611de6919061411d565b6040516020818303038152906040528051906020012014611e3c576040517f08c379a0000000000000000000000000000000000000000000000000000000008152600401611e3390614180565b60405180910390fd5b611e89565b6006805490508110611e88576040517f08c379a0000000000000000000000000000000000000000000000000000000008152600401611e7f90614180565b60405180910390fd5b5b6000600584604051611e9b9190614043565b90815260200160405180910390205490507f000000000000000000000000000000000000000000000000000000000000000060068281548110611ee157611ee061405a565b5b906000526020600020906007020160050154611efd9190614a1a565b421015611f3f576040517f08c379a0000000000000000000000000000000000000000000000000000000008152600401611f3690614ae2565b60405180910390fd5b4260068281548110611f5457611f5361405a565b5b9060005260206000209060070201600501819055507f7288f707ccc9ad8e6342e2220545e85e8971083cf158175f547d9567688b65ff60068281548110611f9e57611f9d61405a565b5b906000526020600020906007020160050154604051611fbd9190614b4e565b60405180910390a150505050565b611fd3612159565b73ffffffffffffffffffffffffffffffffffffffff168573ffffffffffffffffffffffffffffffffffffffff161480612019575061201885612013612159565b611aad565b5b612058576040517f08c379a000000000000000000000000000000000000000000000000000000000815260040161204f90613fe7565b60405180910390fd5b61206585858585856128e2565b5050505050565b612074612632565b600073ffffffffffffffffffffffffffffffffffffffff168173ffffffffffffffffffffffffffffffffffffffff16036120e3576040517f08c379a00000000000000000000000000000000000000000000000000000000081526004016120da90614bee565b60405180910390fd5b6120ec816126b0565b50565b60007f01ffc9a7000000000000000000000000000000000000000000000000000000007bffffffffffffffffffffffffffffffffffffffffffffffffffffffff1916827bffffffffffffffffffffffffffffffffffffffffffffffffffffffff1916149050919050565b600033905090565b81518351146121a5576040517f08c379a000000000000000000000000000000000000000000000000000000000815260040161219c90614c80565b60405180910390fd5b600073ffffffffffffffffffffffffffffffffffffffff168473ffffffffffffffffffffffffffffffffffffffff1603612214576040517f08c379a000000000000000000000000000000000000000000000000000000000815260040161220b90614d12565b60405180910390fd5b600061221e612159565b905061222e818787878787612b7d565b60005b84518110156123df57600085828151811061224f5761224e61405a565b5b60200260200101519050600085838151811061226e5761226d61405a565b5b60200260200101519050600080600084815260200190815260200160002060008b73ffffffffffffffffffffffffffffffffffffffff1673ffffffffffffffffffffffffffffffffffffffff1681526020019081526020016000205490508181101561230f576040517f08c379a000000000000000000000000000000000000000000000000000000000815260040161230690614da4565b60405180910390fd5b81810360008085815260200190815260200160002060008c73ffffffffffffffffffffffffffffffffffffffff1673ffffffffffffffffffffffffffffffffffffffff168152602001908152602001600020819055508160008085815260200190815260200160002060008b73ffffffffffffffffffffffffffffffffffffffff1673ffffffffffffffffffffffffffffffffffffffff16815260200190815260200160002060008282546123c49190614a1a565b92505081905550505050806123d890614261565b9050612231565b508473ffffffffffffffffffffffffffffffffffffffff168673ffffffffffffffffffffffffffffffffffffffff168273ffffffffffffffffffffffffffffffffffffffff167f4a39dc06d4c0dbc64b70af90fd698a233a518aa5d07e595d983b8c0526c8f7fb8787604051612456929190614dc4565b60405180910390a461246c818787878787612b93565b61247a818787878787612b9b565b505050505050565b600073ffffffffffffffffffffffffffffffffffffffff168473ffffffffffffffffffffffffffffffffffffffff16036124f1576040517f08c379a00000000000000000000000000000000000000000000000000000000081526004016124e890614e6d565b60405180910390fd5b60006124fb612159565b9050600061250885612d72565b9050600061251585612d72565b905061252683600089858589612b7d565b8460008088815260200190815260200160002060008973ffffffffffffffffffffffffffffffffffffffff1673ffffffffffffffffffffffffffffffffffffffff16815260200190815260200160002060008282546125859190614a1a565b925050819055508673ffffffffffffffffffffffffffffffffffffffff16600073ffffffffffffffffffffffffffffffffffffffff168473ffffffffffffffffffffffffffffffffffffffff167fc3d58168c5ae7397731d063d5bbf3d657854427343f4c083240f7aacaa2d0f628989604051612603929190614e8d565b60405180910390a461261a83600089858589612b93565b61262983600089898989612dec565b50505050505050565b61263a612159565b73ffffffffffffffffffffffffffffffffffffffff16612658611357565b73ffffffffffffffffffffffffffffffffffffffff16146126ae576040517f08c379a00000000000000000000000000000000000000000000000000000000081526004016126a590614f02565b60405180910390fd5b565b6000600360009054906101000a900473ffffffffffffffffffffffffffffffffffffffff16905081600360006101000a81548173ffffffffffffffffffffffffffffffffffffffff021916908373ffffffffffffffffffffffffffffffffffffffff1602179055508173ffffffffffffffffffffffffffffffffffffffff168173ffffffffffffffffffffffffffffffffffffffff167f8be0079c531659141344cd1fd0a4f28419497f9722a3daafe3b4186f6b6457e060405160405180910390a35050565b8173ffffffffffffffffffffffffffffffffffffffff168373ffffffffffffffffffffffffffffffffffffffff16036127e4576040517f08c379a00000000000000000000000000000000000000000000000000000000081526004016127db90614f94565b60405180910390fd5b80600160008573ffffffffffffffffffffffffffffffffffffffff1673ffffffffffffffffffffffffffffffffffffffff16815260200190815260200160002060008473ffffffffffffffffffffffffffffffffffffffff1673ffffffffffffffffffffffffffffffffffffffff16815260200190815260200160002060006101000a81548160ff0219169083151502179055508173ffffffffffffffffffffffffffffffffffffffff168373ffffffffffffffffffffffffffffffffffffffff167f17307eab39ab6107e8899845ad3d59bd9653f200f220920489ca2b5937696c31836040516128d59190613413565b60405180910390a3505050565b600073ffffffffffffffffffffffffffffffffffffffff168473ffffffffffffffffffffffffffffffffffffffff1603612951576040517f08c379a000000000000000000000000000000000000000000000000000000000815260040161294890614d12565b60405180910390fd5b600061295b612159565b9050600061296885612d72565b9050600061297585612d72565b9050612985838989858589612b7d565b600080600088815260200190815260200160002060008a73ffffffffffffffffffffffffffffffffffffffff1673ffffffffffffffffffffffffffffffffffffffff16815260200190815260200160002054905085811015612a1c576040517f08c379a0000000000000000000000000000000000000000000000000000000008152600401612a1390614da4565b60405180910390fd5b85810360008089815260200190815260200160002060008b73ffffffffffffffffffffffffffffffffffffffff1673ffffffffffffffffffffffffffffffffffffffff168152602001908152602001600020819055508560008089815260200190815260200160002060008a73ffffffffffffffffffffffffffffffffffffffff1673ffffffffffffffffffffffffffffffffffffffff1681526020019081526020016000206000828254612ad19190614a1a565b925050819055508773ffffffffffffffffffffffffffffffffffffffff168973ffffffffffffffffffffffffffffffffffffffff168573ffffffffffffffffffffffffffffffffffffffff167fc3d58168c5ae7397731d063d5bbf3d657854427343f4c083240f7aacaa2d0f628a8a604051612b4e929190614e8d565b60405180910390a4612b64848a8a86868a612b93565b612b72848a8a8a8a8a612dec565b505050505050505050565b612b8b868686868686612fc3565b505050505050565b505050505050565b612bba8473ffffffffffffffffffffffffffffffffffffffff16613193565b15612d6a578373ffffffffffffffffffffffffffffffffffffffff1663bc197c8187878686866040518663ffffffff1660e01b8152600401612c00959493929190615009565b6020604051808303816000875af1925050508015612c3c57506040513d601f19601f82011682018060405250810190612c399190615086565b60015b612ce157612c486150c0565b806308c379a003612ca45750612c5c6150e2565b80612c675750612ca6565b806040517f08c379a0000000000000000000000000000000000000000000000000000000008152600401612c9b91906134f4565b60405180910390fd5b505b6040517f08c379a0000000000000000000000000000000000000000000000000000000008152600401612cd8906151e4565b60405180910390fd5b63bc197c8160e01b7bffffffffffffffffffffffffffffffffffffffffffffffffffffffff1916817bffffffffffffffffffffffffffffffffffffffffffffffffffffffff191614612d68576040517f08c379a0000000000000000000000000000000000000000000000000000000008152600401612d5f90615276565b60405180910390fd5b505b505050505050565b60606000600167ffffffffffffffff811115612d9157612d9061351b565b5b604051908082528060200260200182016040528015612dbf5781602001602082028036833780820191505090505b5090508281600081518110612dd757612dd661405a565b5b60200260200101818152505080915050919050565b612e0b8473ffffffffffffffffffffffffffffffffffffffff16613193565b15612fbb578373ffffffffffffffffffffffffffffffffffffffff1663f23a6e6187878686866040518663ffffffff1660e01b8152600401612e51959493929190615296565b6020604051808303816000875af1925050508015612e8d57506040513d601f19601f82011682018060405250810190612e8a9190615086565b60015b612f3257612e996150c0565b806308c379a003612ef55750612ead6150e2565b80612eb85750612ef7565b806040517f08c379a0000000000000000000000000000000000000000000000000000000008152600401612eec91906134f4565b60405180910390fd5b505b6040517f08c379a0000000000000000000000000000000000000000000000000000000008152600401612f29906151e4565b60405180910390fd5b63f23a6e6160e01b7bffffffffffffffffffffffffffffffffffffffffffffffffffffffff1916817bffffffffffffffffffffffffffffffffffffffffffffffffffffffff191614612fb9576040517f08c379a0000000000000000000000000000000000000000000000000000000008152600401612fb090615276565b60405180910390fd5b505b505050505050565b612fd18686868686866131b6565b600073ffffffffffffffffffffffffffffffffffffffff168573ffffffffffffffffffffffffffffffffffffffff16036130825760005b8351811015613080578281815181106130245761302361405a565b5b6020026020010151600460008684815181106130435761304261405a565b5b6020026020010151815260200190815260200160002060008282546130689190614a1a565b925050819055508061307990614261565b9050613008565b505b600073ffffffffffffffffffffffffffffffffffffffff168473ffffffffffffffffffffffffffffffffffffffff160361318b5760005b83518110156131895760008482815181106130d7576130d661405a565b5b6020026020010151905060008483815181106130f6576130f561405a565b5b602002602001015190506000600460008481526020019081526020016000205490508181101561315b576040517f08c379a000000000000000000000000000000000000000000000000000000000815260040161315290615362565b60405180910390fd5b81810360046000858152602001908152602001600020819055505050508061318290614261565b90506130b9565b505b505050505050565b6000808273ffffffffffffffffffffffffffffffffffffffff163b119050919050565b505050505050565b8280546131ca90613f44565b90600052602060002090601f0160209004810192826131ec5760008555613233565b82601f1061320557805160ff1916838001178555613233565b82800160010185558215613233579182015b82811115613232578251825591602001919060010190613217565b5b5090506132409190613244565b5090565b5b8082111561325d576000816000905550600101613245565b5090565b6000604051905090565b600080fd5b600080fd5b600073ffffffffffffffffffffffffffffffffffffffff82169050919050565b60006132a082613275565b9050919050565b6132b081613295565b81146132bb57600080fd5b50565b6000813590506132cd816132a7565b92915050565b6000819050919050565b6132e6816132d3565b81146132f157600080fd5b50565b600081359050613303816132dd565b92915050565b600080604083850312156133205761331f61326b565b5b600061332e858286016132be565b925050602061333f858286016132f4565b9150509250929050565b613352816132d3565b82525050565b600060208201905061336d6000830184613349565b92915050565b60007fffffffff0000000000000000000000000000000000000000000000000000000082169050919050565b6133a881613373565b81146133b357600080fd5b50565b6000813590506133c58161339f565b92915050565b6000602082840312156133e1576133e061326b565b5b60006133ef848285016133b6565b91505092915050565b60008115159050919050565b61340d816133f8565b82525050565b60006020820190506134286000830184613404565b92915050565b6000602082840312156134445761344361326b565b5b6000613452848285016132f4565b91505092915050565b600081519050919050565b600082825260208201905092915050565b60005b8381101561349557808201518184015260208101905061347a565b838111156134a4576000848401525b50505050565b6000601f19601f8301169050919050565b60006134c68261345b565b6134d08185613466565b93506134e0818560208601613477565b6134e9816134aa565b840191505092915050565b6000602082019050818103600083015261350e81846134bb565b905092915050565b600080fd5b7f4e487b7100000000000000000000000000000000000000000000000000000000600052604160045260246000fd5b613553826134aa565b810181811067ffffffffffffffff821117156135725761357161351b565b5b80604052505050565b6000613585613261565b9050613591828261354a565b919050565b600067ffffffffffffffff8211156135b1576135b061351b565b5b602082029050602081019050919050565b600080fd5b60006135da6135d584613596565b61357b565b905080838252602082019050602084028301858111156135fd576135fc6135c2565b5b835b81811015613626578061361288826132f4565b8452602084019350506020810190506135ff565b5050509392505050565b600082601f83011261364557613644613516565b5b81356136558482602086016135c7565b91505092915050565b600080fd5b600067ffffffffffffffff82111561367e5761367d61351b565b5b613687826134aa565b9050602081019050919050565b82818337600083830152505050565b60006136b66136b184613663565b61357b565b9050828152602081018484840111156136d2576136d161365e565b5b6136dd848285613694565b509392505050565b600082601f8301126136fa576136f9613516565b5b813561370a8482602086016136a3565b91505092915050565b600080600080600060a0868803121561372f5761372e61326b565b5b600061373d888289016132be565b955050602061374e888289016132be565b945050604086013567ffffffffffffffff81111561376f5761376e613270565b5b61377b88828901613630565b935050606086013567ffffffffffffffff81111561379c5761379b613270565b5b6137a888828901613630565b925050608086013567ffffffffffffffff8111156137c9576137c8613270565b5b6137d5888289016136e5565b9150509295509295909350565b600067ffffffffffffffff8211156137fd576137fc61351b565b5b613806826134aa565b9050602081019050919050565b6000613826613821846137e2565b61357b565b9050828152602081018484840111156138425761384161365e565b5b61384d848285613694565b509392505050565b600082601f83011261386a57613869613516565b5b813561387a848260208601613813565b91505092915050565b6000602082840312156138995761389861326b565b5b600082013567ffffffffffffffff8111156138b7576138b6613270565b5b6138c384828501613855565b91505092915050565b600067ffffffffffffffff8211156138e7576138e661351b565b5b602082029050602081019050919050565b600061390b613906846138cc565b61357b565b9050808382526020820190506020840283018581111561392e5761392d6135c2565b5b835b81811015613957578061394388826132be565b845260208401935050602081019050613930565b5050509392505050565b600082601f83011261397657613975613516565b5b81356139868482602086016138f8565b91505092915050565b600080604083850312156139a6576139a561326b565b5b600083013567ffffffffffffffff8111156139c4576139c3613270565b5b6139d085828601613961565b925050602083013567ffffffffffffffff8111156139f1576139f0613270565b5b6139fd85828601613630565b9150509250929050565b600081519050919050565b600082825260208201905092915050565b6000819050602082019050919050565b613a3c816132d3565b82525050565b6000613a4e8383613a33565b60208301905092915050565b6000602082019050919050565b6000613a7282613a07565b613a7c8185613a12565b9350613a8783613a23565b8060005b83811015613ab8578151613a9f8882613a42565b9750613aaa83613a5a565b925050600181019050613a8b565b5085935050505092915050565b60006020820190508181036000830152613adf8184613a67565b905092915050565b60008060408385031215613afe57613afd61326b565b5b600083013567ffffffffffffffff811115613b1c57613b1b613270565b5b613b2885828601613855565b925050602083013567ffffffffffffffff811115613b4957613b48613270565b5b613b5585828601613855565b9150509250929050565b613b6881613295565b82525050565b6000602082019050613b836000830184613b5f565b92915050565b613b92816133f8565b8114613b9d57600080fd5b50565b600081359050613baf81613b89565b92915050565b60008060408385031215613bcc57613bcb61326b565b5b6000613bda858286016132be565b9250506020613beb85828601613ba0565b9150509250929050565b600081519050919050565b600082825260208201905092915050565b6000819050602082019050919050565b600082825260208201905092915050565b6000613c3d8261345b565b613c478185613c21565b9350613c57818560208601613477565b613c60816134aa565b840191505092915050565b6000613c778383613c32565b905092915050565b6000602082019050919050565b6000613c9782613bf5565b613ca18185613c00565b935083602082028501613cb385613c11565b8060005b85811015613cef5784840389528151613cd08582613c6b565b9450613cdb83613c7f565b925060208a01995050600181019050613cb7565b50829750879550505050505092915050565b60006020820190508181036000830152613d1b8184613c8c565b905092915050565b60008060408385031215613d3a57613d3961326b565b5b600083013567ffffffffffffffff811115613d5857613d57613270565b5b613d6485828601613855565b9250506020613d7585828601613ba0565b9150509250929050565b60008060408385031215613d9657613d9561326b565b5b6000613da4858286016132be565b9250506020613db5858286016132be565b9150509250929050565b600080600080600060a08688031215613ddb57613dda61326b565b5b6000613de9888289016132be565b9550506020613dfa888289016132be565b9450506040613e0b888289016132f4565b9350506060613e1c888289016132f4565b925050608086013567ffffffffffffffff811115613e3d57613e3c613270565b5b613e49888289016136e5565b9150509295509295909350565b600060208284031215613e6c57613e6b61326b565b5b6000613e7a848285016132be565b91505092915050565b7f455243313135353a2061646472657373207a65726f206973206e6f742061207660008201527f616c6964206f776e657200000000000000000000000000000000000000000000602082015250565b6000613edf602a83613466565b9150613eea82613e83565b604082019050919050565b60006020820190508181036000830152613f0e81613ed2565b9050919050565b7f4e487b7100000000000000000000000000000000000000000000000000000000600052602260045260246000fd5b60006002820490506001821680613f5c57607f821691505b602082108103613f6f57613f6e613f15565b5b50919050565b7f455243313135353a2063616c6c6572206973206e6f7420746f6b656e206f776e60008201527f6572206f7220617070726f766564000000000000000000000000000000000000602082015250565b6000613fd1602e83613466565b9150613fdc82613f75565b604082019050919050565b6000602082019050818103600083015261400081613fc4565b9050919050565b600081905092915050565b600061401d8261345b565b6140278185614007565b9350614037818560208601613477565b80840191505092915050565b600061404f8284614012565b915081905092915050565b7f4e487b7100000000000000000000000000000000000000000000000000000000600052603260045260246000fd5b60008190508160005260206000209050919050565b600081546140ab81613f44565b6140b58186614007565b945060018216600081146140d057600181146140e157614114565b60ff19831686528186019350614114565b6140ea85614089565b60005b8381101561410c578154818901526001820191506020810190506140ed565b838801955050505b50505092915050565b6000614129828461409e565b915081905092915050565b7f50726f6a65637420646f206e6f74206578697374000000000000000000000000600082015250565b600061416a601483613466565b915061417582614134565b602082019050919050565b600060208201905081810360008301526141998161415d565b9050919050565b7f455243313135353a206163636f756e747320616e6420696473206c656e67746860008201527f206d69736d617463680000000000000000000000000000000000000000000000602082015250565b60006141fc602983613466565b9150614207826141a0565b604082019050919050565b6000602082019050818103600083015261422b816141ef565b9050919050565b7f4e487b7100000000000000000000000000000000000000000000000000000000600052601160045260246000fd5b600061426c826132d3565b91507fffffffffffffffffffffffffffffffffffffffffffffffffffffffffffffffff820361429e5761429d614232565b5b600182019050919050565b8082525050565b600082825260208201905092915050565b60006142cc8261345b565b6142d681856142b0565b93506142e6818560208601613477565b6142ef816134aa565b840191505092915050565b600060408201905061430f60008301856142a9565b818103602083015261432181846142c1565b90509392505050565b7f4e65772070726f6a656374206372656174656420776974682049443a00000000600082015250565b6000614360601c83613466565b915061436b8261432a565b602082019050919050565b6000606082019050818103600083015261438f81614353565b905081810360208301526143a381856134bb565b90506143b26040830184613349565b9392505050565b7f416c726561647920766f74656400000000000000000000000000000000000000600082015250565b60006143ef600d83613466565b91506143fa826143b9565b602082019050919050565b6000602082019050818103600083015261441e816143e2565b9050919050565b7f566f74696e6720706f77657220697320696e73756666696369656e7400000000600082015250565b600061445b601c83613466565b915061446682614425565b602082019050919050565b6000602082019050818103600083015261448a8161444e565b9050919050565b61449a816132d3565b82525050565b60006060820190506144b560008301866142a9565b81810360208301526144c781856142c1565b90506144d66040830184614491565b949350505050565b6000815190506144ed816132dd565b92915050565b6000602082840312156145095761450861326b565b5b6000614517848285016144de565b91505092915050565b7f4e657720766f746520666f72206368616e67652070726f706f73616c3a000000600082015250565b6000614556601d83613466565b915061456182614520565b602082019050919050565b600060a082019050818103600083015261458581614549565b9050818103602083015261459981876134bb565b905081810360408301526145ad81866134bb565b90506145bc6060830185613b5f565b6145c96080830184613349565b95945050505050565b7f4e6577206368616e67652070726f706f73616c20746f207468652050726f6a6560008201527f6374207769746820746865206e616d6520616e6420666f6c6c6f77696e67204960208201527f4420616e64204349443a00000000000000000000000000000000000000000000604082015250565b6000614654604a83613466565b915061465f826145d2565b606082019050919050565b6000608082019050818103600083015261468381614647565b9050818103602083015261469781866134bb565b905081810360408301526146ab81856134bb565b90506146ba6060830184613349565b949350505050565b60006146cd826132d3565b91506146d8836132d3565b9250828210156146eb576146ea614232565b5b828203905092915050565b6146ff816133f8565b82525050565b600060408201905061471a60008301856142a9565b61472760208301846146f6565b9392505050565b600067ffffffffffffffff8211156147495761474861351b565b5b602082029050602081019050919050565b600061476d614768846137e2565b61357b565b9050828152602081018484840111156147895761478861365e565b5b614794848285613477565b509392505050565b600082601f8301126147b1576147b0613516565b5b81516147c184826020860161475a565b91505092915050565b60006147dd6147d88461472e565b61357b565b90508083825260208201905060208402830185811115614800576147ff6135c2565b5b835b8181101561484757805167ffffffffffffffff81111561482557614824613516565b5b808601614832898261479c565b85526020850194505050602081019050614802565b5050509392505050565b600082601f83011261486657614865613516565b5b81516148768482602086016147ca565b91505092915050565b6000602082840312156148955761489461326b565b5b600082015167ffffffffffffffff8111156148b3576148b2613270565b5b6148bf84828501614851565b91505092915050565b7f50726f6a656374206368616e67656420746f206368616e67653a200000000000600082015250565b60006148fe601b83613466565b9150614909826148c8565b602082019050919050565b6000606082019050818103600083015261492d816148f1565b9050818103602083015261494181856134bb565b9050818103604083015261495581846134bb565b90509392505050565b7f41206e6577206368616e676520686173206265656e206d61646520746f20746860008201527f652070726f6a6563743a20000000000000000000000000000000000000000000602082015250565b60006149ba602b83613466565b91506149c58261495e565b604082019050919050565b600060608201905081810360008301526149e9816149ad565b905081810360208301526149fd81856134bb565b90508181036040830152614a1181846134bb565b90509392505050565b6000614a25826132d3565b9150614a30836132d3565b9250827fffffffffffffffffffffffffffffffffffffffffffffffffffffffffffffffff03821115614a6557614a64614232565b5b828201905092915050565b7f5468657265206973207374696c6c2074696d6520756e74696c20746865206e6560008201527f787420646973747269627574696f6e0000000000000000000000000000000000602082015250565b6000614acc602f83613466565b9150614ad782614a70565b604082019050919050565b60006020820190508181036000830152614afb81614abf565b9050919050565b7f546f6b656e732064697374726962757465640000000000000000000000000000600082015250565b6000614b38601283613466565b9150614b4382614b02565b602082019050919050565b60006040820190508181036000830152614b6781614b2b565b9050614b766020830184613349565b92915050565b7f4f776e61626c653a206e6577206f776e657220697320746865207a65726f206160008201527f6464726573730000000000000000000000000000000000000000000000000000602082015250565b6000614bd8602683613466565b9150614be382614b7c565b604082019050919050565b60006020820190508181036000830152614c0781614bcb565b9050919050565b7f455243313135353a2069647320616e6420616d6f756e7473206c656e6774682060008201527f6d69736d61746368000000000000000000000000000000000000000000000000602082015250565b6000614c6a602883613466565b9150614c7582614c0e565b604082019050919050565b60006020820190508181036000830152614c9981614c5d565b9050919050565b7f455243313135353a207472616e7366657220746f20746865207a65726f20616460008201527f6472657373000000000000000000000000000000000000000000000000000000602082015250565b6000614cfc602583613466565b9150614d0782614ca0565b604082019050919050565b60006020820190508181036000830152614d2b81614cef565b9050919050565b7f455243313135353a20696e73756666696369656e742062616c616e636520666f60008201527f72207472616e7366657200000000000000000000000000000000000000000000602082015250565b6000614d8e602a83613466565b9150614d9982614d32565b604082019050919050565b60006020820190508181036000830152614dbd81614d81565b9050919050565b60006040820190508181036000830152614dde8185613a67565b90508181036020830152614df28184613a67565b90509392505050565b7f455243313135353a206d696e7420746f20746865207a65726f2061646472657360008201527f7300000000000000000000000000000000000000000000000000000000000000602082015250565b6000614e57602183613466565b9150614e6282614dfb565b604082019050919050565b60006020820190508181036000830152614e8681614e4a565b9050919050565b6000604082019050614ea26000830185613349565b614eaf6020830184613349565b9392505050565b7f4f776e61626c653a2063616c6c6572206973206e6f7420746865206f776e6572600082015250565b6000614eec602083613466565b9150614ef782614eb6565b602082019050919050565b60006020820190508181036000830152614f1b81614edf565b9050919050565b7f455243313135353a2073657474696e6720617070726f76616c2073746174757360008201527f20666f722073656c660000000000000000000000000000000000000000000000602082015250565b6000614f7e602983613466565b9150614f8982614f22565b604082019050919050565b60006020820190508181036000830152614fad81614f71565b9050919050565b600081519050919050565b600082825260208201905092915050565b6000614fdb82614fb4565b614fe58185614fbf565b9350614ff5818560208601613477565b614ffe816134aa565b840191505092915050565b600060a08201905061501e6000830188613b5f565b61502b6020830187613b5f565b818103604083015261503d8186613a67565b905081810360608301526150518185613a67565b905081810360808301526150658184614fd0565b90509695505050505050565b6000815190506150808161339f565b92915050565b60006020828403121561509c5761509b61326b565b5b60006150aa84828501615071565b91505092915050565b60008160e01c9050919050565b600060033d11156150df5760046000803e6150dc6000516150b3565b90505b90565b600060443d1061516f576150f4613261565b60043d036004823e80513d602482011167ffffffffffffffff8211171561511c57505061516f565b808201805167ffffffffffffffff81111561513a575050505061516f565b80602083010160043d03850181111561515757505050505061516f565b6151668260200185018661354a565b82955050505050505b90565b7f455243313135353a207472616e7366657220746f206e6f6e2d4552433131353560008201527f526563656976657220696d706c656d656e746572000000000000000000000000602082015250565b60006151ce603483613466565b91506151d982615172565b604082019050919050565b600060208201905081810360008301526151fd816151c1565b9050919050565b7f455243313135353a204552433131353552656365697665722072656a6563746560008201527f6420746f6b656e73000000000000000000000000000000000000000000000000602082015250565b6000615260602883613466565b915061526b82615204565b604082019050919050565b6000602082019050818103600083015261528f81615253565b9050919050565b600060a0820190506152ab6000830188613b5f565b6152b86020830187613b5f565b6152c56040830186613349565b6152d26060830185613349565b81810360808301526152e48184614fd0565b90509695505050505050565b7f455243313135353a206275726e20616d6f756e74206578636565647320746f7460008201527f616c537570706c79000000000000000000000000000000000000000000000000602082015250565b600061534c602883613466565b9150615357826152f0565b604082019050919050565b6000602082019050818103600083015261537b8161533f565b905091905056fea2646970667358221220144d4142171aaba42d576340e4057c6367fa4dadd093c4fcfebe4503d70784f964736f6c634300080d0033",
  "immutableReferences": {
    "419": [
      {
        "length": 32,
        "start": 4182
      },
      {
        "length": 32,
        "start": 7854
      }
    ]
  },
  "source": "// SPDX-License-Identifier: MIT\npragma solidity ^0.8.2;\n\nimport \"../node_modules/@openzeppelin/contracts/token/ERC1155/ERC1155.sol\";\nimport \"../node_modules/@openzeppelin/contracts/access/Ownable.sol\";\nimport \"../node_modules/@openzeppelin/contracts/utils/Counters.sol\";\nimport \"../node_modules/@openzeppelin/contracts/token/ERC1155/extensions/ERC1155Supply.sol\";\nimport \"./Changes.sol\";\n\n\ncontract Steps is ERC1155, Ownable, ERC1155Supply {\n    uint public immutable TimeLockInterval = 60 * 60 * 24 * 30; // One Week\n    using Counters for Counters.Counter;\n    using ChangesLibrary for ChangesLibrary.ChangesStorage;\n\n    \n    // -------------------------------------------------------- Mappings\n    mapping(string => uint) public NameToID;    \n\n    // -------------------------------------------------------- Structs\n\n    struct goBack {\n        string changeCID;\n        address goBackMaker;\n        uint votes;\n    }\n\n    struct Project {\n        string name;\n        ChangesLibrary.ChangesStorage changes;\n        goBack[] goBackProposals;\n\n        // time lock\n        uint lastDistributionTime;\n\n        // - ChangeCID => Voter address => Voted?\n        mapping(string => mapping(address => bool)) Voted;\n\n    }\n\n\n    // -------------------------------------------------------- Lists\n    Project[] publicProjects;\n\n    // -------------------------------------------------------- Events\n    event NewProjectCreated(string message, string name, uint value);\n    event NewChangeProposalCreated(string message, string Name, string CID, uint indexValue);\n    event NewVoteForChangeProposal(string message, string projectName, string changeProposalCID, address voter, uint votes);\n    event NewChangeIsMadeToProject(string message, string projectName, string changeCID); // Message, Project CID, Message, ChangeCID\n    event ProjectWentBack(string message, string changeCID, string ProjectName);\n    event TokensDisributed(string message, uint lastDistributionTime);\n\n    // -------------------------------------------------------- Modifiers\n    modifier ProjectExist(string memory _Name) {\n        uint id = NameToID[_Name];\n        if (id == 0) {\n            require(keccak256(abi.encodePacked(publicProjects[id].name)) == keccak256(abi.encodePacked(_Name)), \"Project do not exist\");\n        } else {\n            require(id < publicProjects.length, \"Project do not exist\");\n        }\n        _;\n    }\n\n\n    // -------------------------------------------------------- Constructor\n    constructor() ERC1155(\"URI\") {\n\n    } // change URI to the website's one\n\n    // -------------------------------------------------------- Functions\n    function _beforeTokenTransfer(address operator, address from, address to, uint256[] memory ids, uint256[] memory amounts, bytes memory data) internal override(ERC1155, ERC1155Supply) {\n        super._beforeTokenTransfer(operator, from, to, ids, amounts, data);\n    }\n\n    function createProject(string memory _CID, string memory projectName) public {\n        uint newProjectID = publicProjects.length;\n        NameToID[projectName] = newProjectID;\n        _mint(msg.sender, newProjectID, 10, \"\");\n        \n        Project storage newProject = publicProjects.push();\n        newProject.name = projectName;\n        newProject.changes.initialize(_CID);\n        newProject.lastDistributionTime = block.timestamp;\n\n        emit NewProjectCreated(\"New project created with ID:\", projectName, newProjectID);\n    }\n\n\n    function MakeChangeProposal(string memory _changeCID, string memory _projectName) ProjectExist(_projectName) external {\n        uint projectIDX = NameToID[_projectName];\n        publicProjects[projectIDX].changes.createChangeProposal(_changeCID, balanceOf(msg.sender, NameToID[_projectName]));\n        publicProjects[projectIDX].Voted[_changeCID][msg.sender] = true;\n        emit NewChangeProposalCreated(\"New change proposal to the Project with the name and following ID and CID:\", _projectName, _changeCID, projectIDX);\n    }\n\n\n    function MakeGoBackProposal(string memory _changeCID, string memory _projectName) external {\n        uint projectID = NameToID[_projectName];\n        publicProjects[projectID].goBackProposals.push(goBack(_changeCID, msg.sender, balanceOf(msg.sender, NameToID[_projectName])));\n    }\n\n    function acceptGoBack(string memory _projectName, string memory _changeCID) ProjectExist(_projectName) external {\n        uint projectIDX = NameToID[_projectName];\n        publicProjects[projectIDX].changes.goBack(_changeCID);\n        \n        emit ProjectWentBack(\"Project changed to change: \", _changeCID, _projectName);\n    }\n\n    function acceptChangeProposal(string memory _proposedChangeCID, string memory _projectName) ProjectExist(_projectName) external {\n        uint projectID = NameToID[_projectName];\n        publicProjects[projectID].changes.acceptChangeProposal(_proposedChangeCID);\n        emit NewChangeIsMadeToProject(\"A new change has been made to the project: \", _projectName, _proposedChangeCID);\n    }\n\n    function getBalance(string memory _projectName) ProjectExist(_projectName) external view returns (uint) {\n        return balanceOf(msg.sender, NameToID[_projectName]);\n    }\n\n    function voteForChangeProposal(string memory _changeProposalCID, string memory _projectName) ProjectExist(_projectName) external {\n        uint projectID = NameToID[_projectName];\n\n        require(publicProjects[projectID].Voted[_changeProposalCID][msg.sender] == false, \"Already voted\");\n\n        uint votingPower = balanceOf(msg.sender, projectID);\n        \n        if (votingPower <= 0) {\n            revert(\"Voting power is insufficient\");\n        }\n\n        publicProjects[projectID].changes.voteForChangeProposal(_changeProposalCID, votingPower);\n        publicProjects[projectID].Voted[_changeProposalCID][msg.sender] = true;\n        \n        emit NewVoteForChangeProposal(\n            \"New vote for change proposal:\",\n            _projectName,\n            _changeProposalCID,\n            msg.sender,\n            publicProjects[projectID].changes.getChangeProposalVotes(_changeProposalCID)\n        );\n    }\n\n    function getProjectChangesOrchangeProposals(string memory _projectName, bool changesOrChangeProposals) ProjectExist(_projectName) external view returns (string[] memory) {\n        uint projectID = NameToID[_projectName];\n        return publicProjects[projectID].changes.getChangesOrChangeProposals(changesOrChangeProposals); // true for changes and false for change proposals\n    }\n\n    function getLastProjects() external view returns (string[] memory) {\n        uint arr_length = publicProjects.length;\n        uint arr_index = publicProjects.length;\n        if (arr_length > 10) {\n            arr_length = 10;\n        }\n\n        string[] memory lastProjects = new string[](arr_length);\n        if (publicProjects.length > 0) {\n        for (uint256 i = arr_index - arr_length; i < arr_index; i++) {\n            lastProjects[arr_index - 1 - i] = publicProjects[i].name; \n        }}\n        return lastProjects;\n    }\n\n    function distributeTokens(string memory _projectName) ProjectExist(_projectName) external {\n        uint projectID = NameToID[_projectName];\n                \n        require(block.timestamp >= publicProjects[projectID].lastDistributionTime + TimeLockInterval, \"There is still time until the next distribution\");\n\n        // <token distribution>\n        // ...\n        // <token distribution/>\n\n        publicProjects[projectID].lastDistributionTime = block.timestamp;\n\n        emit TokensDisributed(\n            \"Tokens distributed\",\n            publicProjects[projectID].lastDistributionTime\n        );\n    }\n\n}\n",
  "sourcePath": "c:\\Users\\User\\Desktop\\\\davidson\\project\\DavidsonProject\\Smart Contract\\contracts\\Steps.sol",
  "compiler": {
    "name": "solc",
    "version": "0.8.13+commit.abaa5c0e.Emscripten.clang"
  },
  "schemaVersion": "3.4.7",
  "updatedAt": "2024-01-25T18:01:09.499Z",
  "networkType": "ethereum",
  "devdoc": {
    "kind": "dev",
    "methods": {
      "balanceOf(address,uint256)": {
        "details": "See {IERC1155-balanceOf}. Requirements: - `account` cannot be the zero address."
      },
      "balanceOfBatch(address[],uint256[])": {
        "details": "See {IERC1155-balanceOfBatch}. Requirements: - `accounts` and `ids` must have the same length."
      },
      "exists(uint256)": {
        "details": "Indicates whether any token exist with a given id, or not."
      },
      "isApprovedForAll(address,address)": {
        "details": "See {IERC1155-isApprovedForAll}."
      },
      "owner()": {
        "details": "Returns the address of the current owner."
      },
      "renounceOwnership()": {
        "details": "Leaves the contract without owner. It will not be possible to call `onlyOwner` functions. Can only be called by the current owner. NOTE: Renouncing ownership will leave the contract without an owner, thereby disabling any functionality that is only available to the owner."
      },
      "safeBatchTransferFrom(address,address,uint256[],uint256[],bytes)": {
        "details": "See {IERC1155-safeBatchTransferFrom}."
      },
      "safeTransferFrom(address,address,uint256,uint256,bytes)": {
        "details": "See {IERC1155-safeTransferFrom}."
      },
      "setApprovalForAll(address,bool)": {
        "details": "See {IERC1155-setApprovalForAll}."
      },
      "supportsInterface(bytes4)": {
        "details": "See {IERC165-supportsInterface}."
      },
      "totalSupply(uint256)": {
        "details": "Total amount of tokens in with a given id."
      },
      "transferOwnership(address)": {
        "details": "Transfers ownership of the contract to a new account (`newOwner`). Can only be called by the current owner."
      },
      "uri(uint256)": {
        "details": "See {IERC1155MetadataURI-uri}. This implementation returns the same URI for *all* token types. It relies on the token type ID substitution mechanism https://eips.ethereum.org/EIPS/eip-1155#metadata[defined in the EIP]. Clients calling this function must replace the `\\{id\\}` substring with the actual token type ID."
      }
    },
    "version": 1
  },
  "userdoc": {
    "kind": "user",
    "methods": {},
    "version": 1
  }
}