{
  "contractName": "TokenDistribution",
  "abi": [
    {
      "inputs": [
        {
          "internalType": "address",
          "name": "_tokenAddress",
          "type": "address"
        }
      ],
      "stateMutability": "nonpayable",
      "type": "constructor"
    },
    {
      "anonymous": false,
      "inputs": [
        {
          "indexed": false,
          "internalType": "string",
          "name": "message",
          "type": "string"
        },
        {
          "indexed": false,
          "internalType": "string",
          "name": "projectName",
          "type": "string"
        },
        {
          "indexed": false,
          "internalType": "string",
          "name": "changeCID",
          "type": "string"
        }
      ],
      "name": "NewChangeIsMadeToProject",
      "type": "event"
    },
    {
      "anonymous": false,
      "inputs": [
        {
          "indexed": false,
          "internalType": "string",
          "name": "message",
          "type": "string"
        },
        {
          "indexed": false,
          "internalType": "string",
          "name": "Name",
          "type": "string"
        },
        {
          "indexed": false,
          "internalType": "string",
          "name": "CID",
          "type": "string"
        },
        {
          "indexed": false,
          "internalType": "uint256",
          "name": "indexValue",
          "type": "uint256"
        }
      ],
      "name": "NewChangeProposalCreated",
      "type": "event"
    },
    {
      "anonymous": false,
      "inputs": [
        {
          "indexed": false,
          "internalType": "string",
          "name": "message",
          "type": "string"
        },
        {
          "indexed": false,
          "internalType": "string",
          "name": "name",
          "type": "string"
        },
        {
          "indexed": false,
          "internalType": "uint256",
          "name": "value",
          "type": "uint256"
        }
      ],
      "name": "NewProjectCreated",
      "type": "event"
    },
    {
      "anonymous": false,
      "inputs": [
        {
          "indexed": false,
          "internalType": "string",
          "name": "message",
          "type": "string"
        },
        {
          "indexed": false,
          "internalType": "string",
          "name": "projectName",
          "type": "string"
        },
        {
          "indexed": false,
          "internalType": "string",
          "name": "changeProposalCID",
          "type": "string"
        },
        {
          "indexed": false,
          "internalType": "address",
          "name": "voter",
          "type": "address"
        },
        {
          "indexed": false,
          "internalType": "uint256",
          "name": "votes",
          "type": "uint256"
        }
      ],
      "name": "NewVoteForChangeProposal",
      "type": "event"
    },
    {
      "anonymous": false,
      "inputs": [
        {
          "indexed": true,
          "internalType": "address",
          "name": "previousOwner",
          "type": "address"
        },
        {
          "indexed": true,
          "internalType": "address",
          "name": "newOwner",
          "type": "address"
        }
      ],
      "name": "OwnershipTransferred",
      "type": "event"
    },
    {
      "anonymous": false,
      "inputs": [
        {
          "indexed": false,
          "internalType": "string",
          "name": "message",
          "type": "string"
        },
        {
          "indexed": false,
          "internalType": "string",
          "name": "changeCID",
          "type": "string"
        },
        {
          "indexed": false,
          "internalType": "string",
          "name": "ProjectName",
          "type": "string"
        }
      ],
      "name": "ProjectWentBack",
      "type": "event"
    },
    {
      "anonymous": false,
      "inputs": [
        {
          "indexed": false,
          "internalType": "string",
          "name": "message",
          "type": "string"
        },
        {
          "indexed": false,
          "internalType": "uint256",
          "name": "lastDistributionTime",
          "type": "uint256"
        }
      ],
      "name": "TokensDisributed",
      "type": "event"
    },
    {
      "inputs": [
        {
          "internalType": "string",
          "name": "_changeCID",
          "type": "string"
        },
        {
          "internalType": "string",
          "name": "_projectName",
          "type": "string"
        }
      ],
      "name": "MakeChangeProposal",
      "outputs": [],
      "stateMutability": "nonpayable",
      "type": "function"
    },
    {
      "inputs": [
        {
          "internalType": "string",
          "name": "_changeCID",
          "type": "string"
        },
        {
          "internalType": "string",
          "name": "_projectName",
          "type": "string"
        }
      ],
      "name": "MakeGoBackProposal",
      "outputs": [],
      "stateMutability": "nonpayable",
      "type": "function"
    },
    {
      "inputs": [
        {
          "internalType": "string",
          "name": "",
          "type": "string"
        }
      ],
      "name": "NameToID",
      "outputs": [
        {
          "internalType": "uint256",
          "name": "",
          "type": "uint256"
        }
      ],
      "stateMutability": "view",
      "type": "function",
      "constant": true
    },
    {
      "inputs": [],
      "name": "TimeLockInterval",
      "outputs": [
        {
          "internalType": "uint256",
          "name": "",
          "type": "uint256"
        }
      ],
      "stateMutability": "view",
      "type": "function",
      "constant": true
    },
    {
      "inputs": [
        {
          "internalType": "string",
          "name": "_proposedChangeCID",
          "type": "string"
        },
        {
          "internalType": "string",
          "name": "_projectName",
          "type": "string"
        }
      ],
      "name": "acceptChangeProposal",
      "outputs": [],
      "stateMutability": "nonpayable",
      "type": "function"
    },
    {
      "inputs": [
        {
          "internalType": "string",
          "name": "_projectName",
          "type": "string"
        },
        {
          "internalType": "string",
          "name": "_changeCID",
          "type": "string"
        }
      ],
      "name": "acceptGoBack",
      "outputs": [],
      "stateMutability": "nonpayable",
      "type": "function"
    },
    {
      "inputs": [
        {
          "internalType": "string",
          "name": "_CID",
          "type": "string"
        },
        {
          "internalType": "string",
          "name": "projectName",
          "type": "string"
        }
      ],
      "name": "createProject",
      "outputs": [],
      "stateMutability": "nonpayable",
      "type": "function"
    },
    {
      "inputs": [
        {
          "internalType": "string",
          "name": "_projectName",
          "type": "string"
        }
      ],
      "name": "getAddresses",
      "outputs": [
        {
          "internalType": "address[]",
          "name": "",
          "type": "address[]"
        }
      ],
      "stateMutability": "view",
      "type": "function",
      "constant": true
    },
    {
      "inputs": [
        {
          "internalType": "address",
          "name": "_UserAddress",
          "type": "address"
        },
        {
          "internalType": "string",
          "name": "_projectName",
          "type": "string"
        }
      ],
      "name": "getBalance",
      "outputs": [
        {
          "internalType": "uint256",
          "name": "",
          "type": "uint256"
        }
      ],
      "stateMutability": "view",
      "type": "function",
      "constant": true
    },
    {
      "inputs": [
        {
          "internalType": "string",
          "name": "_projectName",
          "type": "string"
        },
        {
          "internalType": "bool",
          "name": "changesOrChangeProposals",
          "type": "bool"
        }
      ],
      "name": "getChangesOrProposals",
      "outputs": [
        {
          "internalType": "string[]",
          "name": "",
          "type": "string[]"
        }
      ],
      "stateMutability": "view",
      "type": "function",
      "constant": true
    },
    {
      "inputs": [
        {
          "internalType": "string",
          "name": "projectName",
          "type": "string"
        }
      ],
      "name": "getLastDistriubtionTime",
      "outputs": [
        {
          "internalType": "uint256",
          "name": "",
          "type": "uint256"
        }
      ],
      "stateMutability": "view",
      "type": "function",
      "constant": true
    },
    {
      "inputs": [],
      "name": "getLastProjects",
      "outputs": [
        {
          "internalType": "string[]",
          "name": "",
          "type": "string[]"
        }
      ],
      "stateMutability": "view",
      "type": "function",
      "constant": true
    },
    {
      "inputs": [
        {
          "internalType": "address",
          "name": "usr",
          "type": "address"
        },
        {
          "internalType": "string",
          "name": "projectName",
          "type": "string"
        }
      ],
      "name": "getPendingTokens",
      "outputs": [
        {
          "internalType": "uint256",
          "name": "",
          "type": "uint256"
        }
      ],
      "stateMutability": "view",
      "type": "function",
      "constant": true
    },
    {
      "inputs": [],
      "name": "owner",
      "outputs": [
        {
          "internalType": "address",
          "name": "",
          "type": "address"
        }
      ],
      "stateMutability": "view",
      "type": "function",
      "constant": true
    },
    {
      "inputs": [],
      "name": "renounceOwnership",
      "outputs": [],
      "stateMutability": "nonpayable",
      "type": "function"
    },
    {
      "inputs": [],
      "name": "token",
      "outputs": [
        {
          "internalType": "contract ProjectsToken",
          "name": "",
          "type": "address"
        }
      ],
      "stateMutability": "view",
      "type": "function",
      "constant": true
    },
    {
      "inputs": [
        {
          "internalType": "address",
          "name": "newOwner",
          "type": "address"
        }
      ],
      "name": "transferOwnership",
      "outputs": [],
      "stateMutability": "nonpayable",
      "type": "function"
    },
    {
      "inputs": [
        {
          "internalType": "string",
          "name": "_changeProposalCID",
          "type": "string"
        },
        {
          "internalType": "string",
          "name": "_projectName",
          "type": "string"
        }
      ],
      "name": "voteForChangeProposal",
      "outputs": [],
      "stateMutability": "nonpayable",
      "type": "function"
    },
    {
      "inputs": [
        {
          "internalType": "address",
          "name": "usr",
          "type": "address"
        },
        {
          "internalType": "string",
          "name": "projectName",
          "type": "string"
        }
      ],
      "name": "getDistributionBalanceOf",
      "outputs": [
        {
          "internalType": "uint256",
          "name": "",
          "type": "uint256"
        }
      ],
      "stateMutability": "view",
      "type": "function",
      "constant": true
    },
    {
      "inputs": [
        {
          "internalType": "address[]",
          "name": "recipients",
          "type": "address[]"
        },
        {
          "internalType": "uint256[]",
          "name": "amounts",
          "type": "uint256[]"
        },
        {
          "internalType": "string",
          "name": "projectName",
          "type": "string"
        }
      ],
      "name": "distribute",
      "outputs": [],
      "stateMutability": "nonpayable",
      "type": "function"
    },
    {
      "inputs": [
        {
          "internalType": "string",
          "name": "projectName",
          "type": "string"
        }
      ],
      "name": "startDistribution",
      "outputs": [],
      "stateMutability": "nonpayable",
      "type": "function"
    },
    {
      "inputs": [
        {
          "internalType": "string",
          "name": "projectName",
          "type": "string"
        }
      ],
      "name": "claimPendingTokens",
      "outputs": [],
      "stateMutability": "nonpayable",
      "type": "function"
    }
  ],
  "bytecode": "0x60806040523480156200001157600080fd5b5060405162004e1e38038062004e1e8339818101604052810190620000379190620001d9565b8080600260006101000a81548173ffffffffffffffffffffffffffffffffffffffff021916908373ffffffffffffffffffffffffffffffffffffffff160217905550506200009a6200008e620000a160201b60201c565b620000a960201b60201c565b506200020b565b600033905090565b6000600360009054906101000a900473ffffffffffffffffffffffffffffffffffffffff16905081600360006101000a81548173ffffffffffffffffffffffffffffffffffffffff021916908373ffffffffffffffffffffffffffffffffffffffff1602179055508173ffffffffffffffffffffffffffffffffffffffff168173ffffffffffffffffffffffffffffffffffffffff167f8be0079c531659141344cd1fd0a4f28419497f9722a3daafe3b4186f6b6457e060405160405180910390a35050565b600080fd5b600073ffffffffffffffffffffffffffffffffffffffff82169050919050565b6000620001a18262000174565b9050919050565b620001b38162000194565b8114620001bf57600080fd5b50565b600081519050620001d381620001a8565b92915050565b600060208284031215620001f257620001f16200016f565b5b60006200020284828501620001c2565b91505092915050565b614c03806200021b6000396000f3fe608060405234801561001057600080fd5b50600436106101425760003560e01c80637ec15674116100b8578063a56359631161007c578063a563596314610387578063c4687fb8146103a3578063ed0c2d90146103bf578063f2fde38b146103db578063f396530f146103f7578063fc0c546a1461041357610142565b80637ec15674146102f75780638d1446fc146103135780638da5cb5b1461032f5780639f6806ec1461034d578063a54d804d1461036957610142565b806349b7b6401161010a57806349b7b6401461023757806354696993146102675780636bd0620414610297578063715018a6146102b3578063750354d2146102bd5780637a5945da146102d957610142565b80631d7147d8146101475780631dd7cecf1461017757806333846eba146101a757806339b64c30146101d757806347d8899a14610207575b600080fd5b610161600480360381019061015c9190613178565b610431565b60405161016e9190613333565b60405180910390f35b610191600480360381019061018c91906133b3565b61064a565b60405161019e919061342c565b60405180910390f35b6101c160048036038101906101bc9190613577565b610856565b6040516101ce919061342c565b60405180910390f35b6101f160048036038101906101ec91906135c0565b610884565b6040516101fe91906136cb565b60405180910390f35b610221600480360381019061021c91906135c0565b610a9a565b60405161022e919061342c565b60405180910390f35b610251600480360381019061024c91906133b3565b610c33565b60405161025e919061342c565b60405180910390f35b610281600480360381019061027c91906133b3565b611003565b60405161028e919061342c565b60405180910390f35b6102b160048036038101906102ac91906136ed565b6111da565b005b6102bb6113a2565b005b6102d760048036038101906102d29190613765565b6113b6565b005b6102e16118e0565b6040516102ee919061342c565b60405180910390f35b610311600480360381019061030c91906135c0565b6118e6565b005b61032d60048036038101906103289190613765565b611b1d565b005b610337611eab565b60405161034491906137f0565b60405180910390f35b610367600480360381019061036291906139bd565b611ed5565b005b6103716122cc565b60405161037e9190613333565b60405180910390f35b6103a1600480360381019061039c9190613765565b61246a565b005b6103bd60048036038101906103b89190613a69565b61263f565b005b6103d960048036038101906103d49190613765565b612877565b005b6103f560048036038101906103f09190613ae5565b612aaf565b005b610411600480360381019061040c91906135c0565b612b32565b005b61041b612e60565b6040516104289190613b71565b60405180910390f35b606083838080601f016020809104026020016040519081016040528093929190818152602001838380828437600081840152601f19601f82011690508083019250505050505050600080826040516104899190613bc8565b9081526020016040518091039020549050600260009054906101000a900473ffffffffffffffffffffffffffffffffffffffff1673ffffffffffffffffffffffffffffffffffffffff16634f558e79826040518263ffffffff1660e01b81526004016104f5919061342c565b602060405180830381865afa158015610512573d6000803e3d6000fd5b505050506040513d601f19601f820116820180604052508101906105369190613bf4565b610575576040517f08c379a000000000000000000000000000000000000000000000000000000000815260040161056c90613c7e565b60405180910390fd5b6000808787604051610588929190613cc3565b9081526020016040518091039020549050600181815481106105ad576105ac613cdc565b5b90600052602060002090600a020160010173__ChangesLibrary________________________63e3e26be89091876040518363ffffffff1660e01b81526004016105f8929190613d21565b600060405180830381865af4158015610615573d6000803e3d6000fd5b505050506040513d6000823e3d601f19601f8201168201806040525081019061063e9190613e9b565b93505050509392505050565b600082828080601f016020809104026020016040519081016040528093929190818152602001838380828437600081840152601f19601f82011690508083019250505050505050600080826040516106a29190613bc8565b9081526020016040518091039020549050600260009054906101000a900473ffffffffffffffffffffffffffffffffffffffff1673ffffffffffffffffffffffffffffffffffffffff16634f558e79826040518263ffffffff1660e01b815260040161070e919061342c565b602060405180830381865afa15801561072b573d6000803e3d6000fd5b505050506040513d601f19601f8201168201806040525081019061074f9190613bf4565b61078e576040517f08c379a000000000000000000000000000000000000000000000000000000000815260040161078590613c7e565b60405180910390fd5b600260009054906101000a900473ffffffffffffffffffffffffffffffffffffffff1673ffffffffffffffffffffffffffffffffffffffff1662fdd58e87600088886040516107de929190613cc3565b9081526020016040518091039020546040518363ffffffff1660e01b815260040161080a929190613ee4565b602060405180830381865afa158015610827573d6000803e3d6000fd5b505050506040513d601f19601f8201168201806040525081019061084b9190613f22565b925050509392505050565b6000818051602081018201805184825260208301602085012081835280955050505050506000915090505481565b606082828080601f016020809104026020016040519081016040528093929190818152602001838380828437600081840152601f19601f82011690508083019250505050505050600080826040516108dc9190613bc8565b9081526020016040518091039020549050600260009054906101000a900473ffffffffffffffffffffffffffffffffffffffff1673ffffffffffffffffffffffffffffffffffffffff16634f558e79826040518263ffffffff1660e01b8152600401610948919061342c565b602060405180830381865afa158015610965573d6000803e3d6000fd5b505050506040513d601f19601f820116820180604052508101906109899190613bf4565b6109c8576040517f08c379a00000000000000000000000000000000000000000000000000000000081526004016109bf90613c7e565b60405180910390fd5b60008086866040516109db929190613cc3565b908152602001604051809103902054905060018181548110610a00576109ff613cdc565b5b90600052602060002090600a020160010173__ChangesLibrary________________________635a45338590916040518263ffffffff1660e01b8152600401610a499190613f4f565b600060405180830381865af4158015610a66573d6000803e3d6000fd5b505050506040513d6000823e3d601f19601f82011682018060405250810190610a8f9190614016565b935050505092915050565b600082828080601f016020809104026020016040519081016040528093929190818152602001838380828437600081840152601f19601f8201169050808301925050505050505060008082604051610af29190613bc8565b9081526020016040518091039020549050600260009054906101000a900473ffffffffffffffffffffffffffffffffffffffff1673ffffffffffffffffffffffffffffffffffffffff16634f558e79826040518263ffffffff1660e01b8152600401610b5e919061342c565b602060405180830381865afa158015610b7b573d6000803e3d6000fd5b505050506040513d601f19601f82011682018060405250810190610b9f9190613bf4565b610bde576040517f08c379a0000000000000000000000000000000000000000000000000000000008152600401610bd590613c7e565b60405180910390fd5b6000808686604051610bf1929190613cc3565b908152602001604051809103902054905060018181548110610c1657610c15613cdc565b5b90600052602060002090600a020160050154935050505092915050565b600082828080601f016020809104026020016040519081016040528093929190818152602001838380828437600081840152601f19601f8201169050808301925050505050505060008082604051610c8b9190613bc8565b9081526020016040518091039020549050600260009054906101000a900473ffffffffffffffffffffffffffffffffffffffff1673ffffffffffffffffffffffffffffffffffffffff16634f558e79826040518263ffffffff1660e01b8152600401610cf7919061342c565b602060405180830381865afa158015610d14573d6000803e3d6000fd5b505050506040513d601f19601f82011682018060405250810190610d389190613bf4565b610d77576040517f08c379a0000000000000000000000000000000000000000000000000000000008152600401610d6e90613c7e565b60405180910390fd5b6000808686604051610d8a929190613cc3565b9081526020016040518091039020549050600060018281548110610db157610db0613cdc565b5b90600052602060002090600a02016005015490506000600260009054906101000a900473ffffffffffffffffffffffffffffffffffffffff1673ffffffffffffffffffffffffffffffffffffffff1662fdd58e8a856040518363ffffffff1660e01b8152600401610e23929190613ee4565b602060405180830381865afa158015610e40573d6000803e3d6000fd5b505050506040513d601f19601f82011682018060405250810190610e649190613f22565b90506000600260009054906101000a900473ffffffffffffffffffffffffffffffffffffffff1673ffffffffffffffffffffffffffffffffffffffff1663bd85b039856040518263ffffffff1660e01b8152600401610ec3919061342c565b602060405180830381865afa158015610ee0573d6000803e3d6000fd5b505050506040513d601f19601f82011682018060405250810190610f049190613f22565b606483610f11919061408e565b610f1b9190614117565b905060008103610f32576000965050505050610ffa565b60648160018681548110610f4957610f48613cdc565b5b90600052602060002090600a020160060154610f65919061408e565b610f6f9190614117565b905060018481548110610f8557610f84613cdc565b5b90600052602060002090600a020160080160008b73ffffffffffffffffffffffffffffffffffffffff1673ffffffffffffffffffffffffffffffffffffffff16815260200190815260200160002060008481526020019081526020016000205481610ff09190614148565b9050809650505050505b50509392505050565b600082828080601f016020809104026020016040519081016040528093929190818152602001838380828437600081840152601f19601f820116905080830192505050505050506000808260405161105b9190613bc8565b9081526020016040518091039020549050600260009054906101000a900473ffffffffffffffffffffffffffffffffffffffff1673ffffffffffffffffffffffffffffffffffffffff16634f558e79826040518263ffffffff1660e01b81526004016110c7919061342c565b602060405180830381865afa1580156110e4573d6000803e3d6000fd5b505050506040513d601f19601f820116820180604052508101906111089190613bf4565b611147576040517f08c379a000000000000000000000000000000000000000000000000000000000815260040161113e90613c7e565b60405180910390fd5b600080868660405161115a929190613cc3565b90815260200160405180910390205490506001818154811061117f5761117e613cdc565b5b90600052602060002090600a020160070160008873ffffffffffffffffffffffffffffffffffffffff1673ffffffffffffffffffffffffffffffffffffffff1681526020019081526020016000205493505050509392505050565b60006001805490509050806000836040516111f59190613bc8565b908152602001604051809103902081905550600260009054906101000a900473ffffffffffffffffffffffffffffffffffffffff1673ffffffffffffffffffffffffffffffffffffffff1663156e29f6338360646040518463ffffffff1660e01b8152600401611267939291906141b7565b600060405180830381600087803b15801561128157600080fd5b505af1158015611295573d6000803e3d6000fd5b505050506000600180816001815401808255809150500390600052602060002090600a02019050828160000190805190602001906112d4929190613024565b508060010173__ChangesLibrary________________________63aaff905a9091866040518363ffffffff1660e01b8152600401611313929190614238565b60006040518083038186803b15801561132b57600080fd5b505af415801561133f573d6000803e3d6000fd5b50505050606481600601819055506102584261135b9190614268565b81600501819055507fe224389b386caecb8e3b38edc39361c7227e3ef820a8276bc31ac9cf1ba69fcd8383604051611394929190614343565b60405180910390a150505050565b6113aa612e86565b6113b46000612f04565b565b81818080601f016020809104026020016040519081016040528093929190818152602001838380828437600081840152601f19601f820116905080830192505050505050506000808260405161140c9190613bc8565b9081526020016040518091039020549050600260009054906101000a900473ffffffffffffffffffffffffffffffffffffffff1673ffffffffffffffffffffffffffffffffffffffff16634f558e79826040518263ffffffff1660e01b8152600401611478919061342c565b602060405180830381865afa158015611495573d6000803e3d6000fd5b505050506040513d601f19601f820116820180604052508101906114b99190613bf4565b6114f8576040517f08c379a00000000000000000000000000000000000000000000000000000000081526004016114ef90613c7e565b60405180910390fd5b600080858560405161150b929190613cc3565b9081526020016040518091039020549050600015156001828154811061153457611533613cdc565b5b90600052602060002090600a0201600901876040516115539190613bc8565b908152602001604051809103902060003373ffffffffffffffffffffffffffffffffffffffff1673ffffffffffffffffffffffffffffffffffffffff16815260200190815260200160002060009054906101000a900460ff161515146115ee576040517f08c379a00000000000000000000000000000000000000000000000000000000081526004016115e5906143d2565b60405180910390fd5b6000600260009054906101000a900473ffffffffffffffffffffffffffffffffffffffff1673ffffffffffffffffffffffffffffffffffffffff1662fdd58e33846040518363ffffffff1660e01b815260040161164c929190613ee4565b602060405180830381865afa158015611669573d6000803e3d6000fd5b505050506040513d601f19601f8201168201806040525081019061168d9190613f22565b9050600081116116d2576040517f08c379a00000000000000000000000000000000000000000000000000000000081526004016116c99061443e565b60405180910390fd5b600182815481106116e6576116e5613cdc565b5b90600052602060002090600a020160010173__ChangesLibrary________________________637dba11cb909189846040518463ffffffff1660e01b81526004016117339392919061446d565b60006040518083038186803b15801561174b57600080fd5b505af415801561175f573d6000803e3d6000fd5b50505050600180838154811061177857611777613cdc565b5b90600052602060002090600a0201600901886040516117979190613bc8565b908152602001604051809103902060003373ffffffffffffffffffffffffffffffffffffffff1673ffffffffffffffffffffffffffffffffffffffff16815260200190815260200160002060006101000a81548160ff0219169083151502179055507f0defd832aa647eb845ac2ed5e414ba9da1d13d7c3b2028fea20853913891174d868689336001878154811061183257611831613cdc565b5b90600052602060002090600a020160010173__ChangesLibrary________________________63ca5451d290918e6040518363ffffffff1660e01b815260040161187d929190614238565b602060405180830381865af415801561189a573d6000803e3d6000fd5b505050506040513d601f19601f820116820180604052508101906118be9190613f22565b6040516118cf959493929190614524565b60405180910390a150505050505050565b61025881565b81818080601f016020809104026020016040519081016040528093929190818152602001838380828437600081840152601f19601f820116905080830192505050505050506000808260405161193c9190613bc8565b9081526020016040518091039020549050600260009054906101000a900473ffffffffffffffffffffffffffffffffffffffff1673ffffffffffffffffffffffffffffffffffffffff16634f558e79826040518263ffffffff1660e01b81526004016119a8919061342c565b602060405180830381865afa1580156119c5573d6000803e3d6000fd5b505050506040513d601f19601f820116820180604052508101906119e99190613bf4565b611a28576040517f08c379a0000000000000000000000000000000000000000000000000000000008152600401611a1f90613c7e565b60405180910390fd5b6000808585604051611a3b929190613cc3565b908152602001604051809103902054905060018181548110611a6057611a5f613cdc565b5b90600052602060002090600a020160050154421015611ab4576040517f08c379a0000000000000000000000000000000000000000000000000000000008152600401611aab906145d8565b60405180910390fd5b606460018281548110611aca57611ac9613cdc565b5b90600052602060002090600a02016006018190555061025842611aed9190614268565b60018281548110611b0157611b00613cdc565b5b90600052602060002090600a0201600501819055505050505050565b81818080601f016020809104026020016040519081016040528093929190818152602001838380828437600081840152601f19601f8201169050808301925050505050505060008082604051611b739190613bc8565b9081526020016040518091039020549050600260009054906101000a900473ffffffffffffffffffffffffffffffffffffffff1673ffffffffffffffffffffffffffffffffffffffff16634f558e79826040518263ffffffff1660e01b8152600401611bdf919061342c565b602060405180830381865afa158015611bfc573d6000803e3d6000fd5b505050506040513d601f19601f82011682018060405250810190611c209190613bf4565b611c5f576040517f08c379a0000000000000000000000000000000000000000000000000000000008152600401611c5690613c7e565b60405180910390fd5b6000808585604051611c72929190613cc3565b908152602001604051809103902054905060018181548110611c9757611c96613cdc565b5b90600052602060002090600a020160010173__ChangesLibrary________________________636de060a8909188600260009054906101000a900473ffffffffffffffffffffffffffffffffffffffff1673ffffffffffffffffffffffffffffffffffffffff1662fdd58e3360008c8c604051611d15929190613cc3565b9081526020016040518091039020546040518363ffffffff1660e01b8152600401611d41929190613ee4565b602060405180830381865afa158015611d5e573d6000803e3d6000fd5b505050506040513d601f19601f82011682018060405250810190611d829190613f22565b6040518463ffffffff1660e01b8152600401611da09392919061446d565b60006040518083038186803b158015611db857600080fd5b505af4158015611dcc573d6000803e3d6000fd5b505050506001808281548110611de557611de4613cdc565b5b90600052602060002090600a020160090187604051611e049190613bc8565b908152602001604051809103902060003373ffffffffffffffffffffffffffffffffffffffff1673ffffffffffffffffffffffffffffffffffffffff16815260200190815260200160002060006101000a81548160ff0219169083151502179055507f7b7acf540aac5e16ce3dfbd4d106c203a301da603c18502d179f60282962e5c485858884604051611e9b9493929190614690565b60405180910390a1505050505050565b6000600360009054906101000a900473ffffffffffffffffffffffffffffffffffffffff16905090565b81818080601f016020809104026020016040519081016040528093929190818152602001838380828437600081840152601f19601f8201169050808301925050505050505060008082604051611f2b9190613bc8565b9081526020016040518091039020549050600260009054906101000a900473ffffffffffffffffffffffffffffffffffffffff1673ffffffffffffffffffffffffffffffffffffffff16634f558e79826040518263ffffffff1660e01b8152600401611f97919061342c565b602060405180830381865afa158015611fb4573d6000803e3d6000fd5b505050506040513d601f19601f82011682018060405250810190611fd89190613bf4565b612017576040517f08c379a000000000000000000000000000000000000000000000000000000000815260040161200e90613c7e565b60405180910390fd5b600080858560405161202a929190613cc3565b9081526020016040518091039020549050600061204687612fca565b9050865188511461208c576040517f08c379a000000000000000000000000000000000000000000000000000000000815260040161208390614736565b60405180910390fd5b42600183815481106120a1576120a0613cdc565b5b90600052602060002090600a020160050154116120f3576040517f08c379a00000000000000000000000000000000000000000000000000000000081526004016120ea906147a2565b60405180910390fd5b6120fe338787610c33565b811115612140576040517f08c379a00000000000000000000000000000000000000000000000000000000081526004016121379061480e565b60405180910390fd5b60006001838154811061215657612155613cdc565b5b90600052602060002090600a020160050154905060005b89518110156122365788818151811061218957612188613cdc565b5b6020026020010151600185815481106121a5576121a4613cdc565b5b90600052602060002090600a020160070160008c84815181106121cb576121ca613cdc565b5b602002602001015173ffffffffffffffffffffffffffffffffffffffff1673ffffffffffffffffffffffffffffffffffffffff168152602001908152602001600020600082825461221c9190614268565b92505081905550808061222e9061482e565b91505061216d565b50816001848154811061224c5761224b613cdc565b5b90600052602060002090600a020160080160003373ffffffffffffffffffffffffffffffffffffffff1673ffffffffffffffffffffffffffffffffffffffff168152602001908152602001600020600083815260200190815260200160002060008282546122ba9190614268565b92505081905550505050505050505050565b60606000600180549050905060006001805490509050600a8211156122f057600a91505b60008267ffffffffffffffff81111561230c5761230b61344c565b5b60405190808252806020026020018201604052801561233f57816020015b606081526020019060019003908161232a5790505b50905060006001805490501115612461576000838361235e9190614148565b90505b8281101561245f576001818154811061237d5761237c613cdc565b5b90600052602060002090600a02016000018054612399906148a5565b80601f01602080910402602001604051908101604052809291908181526020018280546123c5906148a5565b80156124125780601f106123e757610100808354040283529160200191612412565b820191906000526020600020905b8154815290600101906020018083116123f557829003601f168201915b505050505082826001866124269190614148565b6124309190614148565b8151811061244157612440613cdc565b5b602002602001018190525080806124579061482e565b915050612361565b505b80935050505090565b600080838360405161247d929190613cc3565b9081526020016040518091039020549050600181815481106124a2576124a1613cdc565b5b90600052602060002090600a020160040160405180606001604052808681526020013373ffffffffffffffffffffffffffffffffffffffff168152602001600260009054906101000a900473ffffffffffffffffffffffffffffffffffffffff1673ffffffffffffffffffffffffffffffffffffffff1662fdd58e3360008989604051612530929190613cc3565b9081526020016040518091039020546040518363ffffffff1660e01b815260040161255c929190613ee4565b602060405180830381865afa158015612579573d6000803e3d6000fd5b505050506040513d601f19601f8201168201806040525081019061259d9190613f22565b815250908060018154018082558091505060019003906000526020600020906003020160009091909190915060008201518160000190805190602001906125e5929190613024565b5060208201518160010160006101000a81548173ffffffffffffffffffffffffffffffffffffffff021916908373ffffffffffffffffffffffffffffffffffffffff16021790555060408201518160020155505050505050565b82828080601f016020809104026020016040519081016040528093929190818152602001838380828437600081840152601f19601f82011690508083019250505050505050600080826040516126959190613bc8565b9081526020016040518091039020549050600260009054906101000a900473ffffffffffffffffffffffffffffffffffffffff1673ffffffffffffffffffffffffffffffffffffffff16634f558e79826040518263ffffffff1660e01b8152600401612701919061342c565b602060405180830381865afa15801561271e573d6000803e3d6000fd5b505050506040513d601f19601f820116820180604052508101906127429190613bf4565b612781576040517f08c379a000000000000000000000000000000000000000000000000000000000815260040161277890613c7e565b60405180910390fd5b6000808686604051612794929190613cc3565b9081526020016040518091039020549050600181815481106127b9576127b8613cdc565b5b90600052602060002090600a020160010173__ChangesLibrary________________________637cbb44f99091866040518363ffffffff1660e01b8152600401612804929190614238565b60006040518083038186803b15801561281c57600080fd5b505af4158015612830573d6000803e3d6000fd5b505050507f718a982b61bc723a0c68281b0eb10e1cff37bd89888841ae545c98cd5493a05684878760405161286793929190614922565b60405180910390a1505050505050565b81818080601f016020809104026020016040519081016040528093929190818152602001838380828437600081840152601f19601f82011690508083019250505050505050600080826040516128cd9190613bc8565b9081526020016040518091039020549050600260009054906101000a900473ffffffffffffffffffffffffffffffffffffffff1673ffffffffffffffffffffffffffffffffffffffff16634f558e79826040518263ffffffff1660e01b8152600401612939919061342c565b602060405180830381865afa158015612956573d6000803e3d6000fd5b505050506040513d601f19601f8201168201806040525081019061297a9190613bf4565b6129b9576040517f08c379a00000000000000000000000000000000000000000000000000000000081526004016129b090613c7e565b60405180910390fd5b60008085856040516129cc929190613cc3565b9081526020016040518091039020549050600181815481106129f1576129f0613cdc565b5b90600052602060002090600a020160010173__ChangesLibrary________________________636b6b15cc9091886040518363ffffffff1660e01b8152600401612a3c929190614238565b60006040518083038186803b158015612a5457600080fd5b505af4158015612a68573d6000803e3d6000fd5b505050507fa59a33e81abf86b25a561f609013d867f28b3c0cbc2cdf98e852b0c0c041eb6c858588604051612a9f939291906149e0565b60405180910390a1505050505050565b612ab7612e86565b600073ffffffffffffffffffffffffffffffffffffffff168173ffffffffffffffffffffffffffffffffffffffff1603612b26576040517f08c379a0000000000000000000000000000000000000000000000000000000008152600401612b1d90614a9e565b60405180910390fd5b612b2f81612f04565b50565b81818080601f016020809104026020016040519081016040528093929190818152602001838380828437600081840152601f19601f8201169050808301925050505050505060008082604051612b889190613bc8565b9081526020016040518091039020549050600260009054906101000a900473ffffffffffffffffffffffffffffffffffffffff1673ffffffffffffffffffffffffffffffffffffffff16634f558e79826040518263ffffffff1660e01b8152600401612bf4919061342c565b602060405180830381865afa158015612c11573d6000803e3d6000fd5b505050506040513d601f19601f82011682018060405250810190612c359190613bf4565b612c74576040517f08c379a0000000000000000000000000000000000000000000000000000000008152600401612c6b90613c7e565b60405180910390fd5b6000808585604051612c87929190613cc3565b908152602001604051809103902054905060018181548110612cac57612cab613cdc565b5b90600052602060002090600a020160050154421015612d00576040517f08c379a0000000000000000000000000000000000000000000000000000000008152600401612cf790614b0a565b60405180910390fd5b600260009054906101000a900473ffffffffffffffffffffffffffffffffffffffff1673ffffffffffffffffffffffffffffffffffffffff1663156e29f6338360018581548110612d5457612d53613cdc565b5b90600052602060002090600a020160070160003373ffffffffffffffffffffffffffffffffffffffff1673ffffffffffffffffffffffffffffffffffffffff168152602001908152602001600020546040518463ffffffff1660e01b8152600401612dc193929190614b2a565b600060405180830381600087803b158015612ddb57600080fd5b505af1158015612def573d6000803e3d6000fd5b5050505060018181548110612e0757612e06613cdc565b5b90600052602060002090600a020160070160003373ffffffffffffffffffffffffffffffffffffffff1673ffffffffffffffffffffffffffffffffffffffff168152602001908152602001600020600090555050505050565b600260009054906101000a900473ffffffffffffffffffffffffffffffffffffffff1681565b612e8e61301c565b73ffffffffffffffffffffffffffffffffffffffff16612eac611eab565b73ffffffffffffffffffffffffffffffffffffffff1614612f02576040517f08c379a0000000000000000000000000000000000000000000000000000000008152600401612ef990614bad565b60405180910390fd5b565b6000600360009054906101000a900473ffffffffffffffffffffffffffffffffffffffff16905081600360006101000a81548173ffffffffffffffffffffffffffffffffffffffff021916908373ffffffffffffffffffffffffffffffffffffffff1602179055508173ffffffffffffffffffffffffffffffffffffffff168173ffffffffffffffffffffffffffffffffffffffff167f8be0079c531659141344cd1fd0a4f28419497f9722a3daafe3b4186f6b6457e060405160405180910390a35050565b600080600090505b825181101561301657828181518110612fee57612fed613cdc565b5b6020026020010151826130019190614268565b9150808061300e9061482e565b915050612fd2565b50919050565b600033905090565b828054613030906148a5565b90600052602060002090601f0160209004810192826130525760008555613099565b82601f1061306b57805160ff1916838001178555613099565b82800160010185558215613099579182015b8281111561309857825182559160200191906001019061307d565b5b5090506130a691906130aa565b5090565b5b808211156130c35760008160009055506001016130ab565b5090565b6000604051905090565b600080fd5b600080fd5b600080fd5b600080fd5b600080fd5b60008083601f840112613100576130ff6130db565b5b8235905067ffffffffffffffff81111561311d5761311c6130e0565b5b602083019150836001820283011115613139576131386130e5565b5b9250929050565b60008115159050919050565b61315581613140565b811461316057600080fd5b50565b6000813590506131728161314c565b92915050565b600080600060408486031215613191576131906130d1565b5b600084013567ffffffffffffffff8111156131af576131ae6130d6565b5b6131bb868287016130ea565b935093505060206131ce86828701613163565b9150509250925092565b600081519050919050565b600082825260208201905092915050565b6000819050602082019050919050565b600081519050919050565b600082825260208201905092915050565b60005b8381101561323e578082015181840152602081019050613223565b8381111561324d576000848401525b50505050565b6000601f19601f8301169050919050565b600061326f82613204565b613279818561320f565b9350613289818560208601613220565b61329281613253565b840191505092915050565b60006132a98383613264565b905092915050565b6000602082019050919050565b60006132c9826131d8565b6132d381856131e3565b9350836020820285016132e5856131f4565b8060005b858110156133215784840389528151613302858261329d565b945061330d836132b1565b925060208a019950506001810190506132e9565b50829750879550505050505092915050565b6000602082019050818103600083015261334d81846132be565b905092915050565b600073ffffffffffffffffffffffffffffffffffffffff82169050919050565b600061338082613355565b9050919050565b61339081613375565b811461339b57600080fd5b50565b6000813590506133ad81613387565b92915050565b6000806000604084860312156133cc576133cb6130d1565b5b60006133da8682870161339e565b935050602084013567ffffffffffffffff8111156133fb576133fa6130d6565b5b613407868287016130ea565b92509250509250925092565b6000819050919050565b61342681613413565b82525050565b6000602082019050613441600083018461341d565b92915050565b600080fd5b7f4e487b7100000000000000000000000000000000000000000000000000000000600052604160045260246000fd5b61348482613253565b810181811067ffffffffffffffff821117156134a3576134a261344c565b5b80604052505050565b60006134b66130c7565b90506134c2828261347b565b919050565b600067ffffffffffffffff8211156134e2576134e161344c565b5b6134eb82613253565b9050602081019050919050565b82818337600083830152505050565b600061351a613515846134c7565b6134ac565b90508281526020810184848401111561353657613535613447565b5b6135418482856134f8565b509392505050565b600082601f83011261355e5761355d6130db565b5b813561356e848260208601613507565b91505092915050565b60006020828403121561358d5761358c6130d1565b5b600082013567ffffffffffffffff8111156135ab576135aa6130d6565b5b6135b784828501613549565b91505092915050565b600080602083850312156135d7576135d66130d1565b5b600083013567ffffffffffffffff8111156135f5576135f46130d6565b5b613601858286016130ea565b92509250509250929050565b600081519050919050565b600082825260208201905092915050565b6000819050602082019050919050565b61364281613375565b82525050565b60006136548383613639565b60208301905092915050565b6000602082019050919050565b60006136788261360d565b6136828185613618565b935061368d83613629565b8060005b838110156136be5781516136a58882613648565b97506136b083613660565b925050600181019050613691565b5085935050505092915050565b600060208201905081810360008301526136e5818461366d565b905092915050565b60008060408385031215613704576137036130d1565b5b600083013567ffffffffffffffff811115613722576137216130d6565b5b61372e85828601613549565b925050602083013567ffffffffffffffff81111561374f5761374e6130d6565b5b61375b85828601613549565b9150509250929050565b60008060006040848603121561377e5761377d6130d1565b5b600084013567ffffffffffffffff81111561379c5761379b6130d6565b5b6137a886828701613549565b935050602084013567ffffffffffffffff8111156137c9576137c86130d6565b5b6137d5868287016130ea565b92509250509250925092565b6137ea81613375565b82525050565b600060208201905061380560008301846137e1565b92915050565b600067ffffffffffffffff8211156138265761382561344c565b5b602082029050602081019050919050565b600061384a6138458461380b565b6134ac565b9050808382526020820190506020840283018581111561386d5761386c6130e5565b5b835b818110156138965780613882888261339e565b84526020840193505060208101905061386f565b5050509392505050565b600082601f8301126138b5576138b46130db565b5b81356138c5848260208601613837565b91505092915050565b600067ffffffffffffffff8211156138e9576138e861344c565b5b602082029050602081019050919050565b61390381613413565b811461390e57600080fd5b50565b600081359050613920816138fa565b92915050565b6000613939613934846138ce565b6134ac565b9050808382526020820190506020840283018581111561395c5761395b6130e5565b5b835b8181101561398557806139718882613911565b84526020840193505060208101905061395e565b5050509392505050565b600082601f8301126139a4576139a36130db565b5b81356139b4848260208601613926565b91505092915050565b600080600080606085870312156139d7576139d66130d1565b5b600085013567ffffffffffffffff8111156139f5576139f46130d6565b5b613a01878288016138a0565b945050602085013567ffffffffffffffff811115613a2257613a216130d6565b5b613a2e8782880161398f565b935050604085013567ffffffffffffffff811115613a4f57613a4e6130d6565b5b613a5b878288016130ea565b925092505092959194509250565b600080600060408486031215613a8257613a816130d1565b5b600084013567ffffffffffffffff811115613aa057613a9f6130d6565b5b613aac868287016130ea565b9350935050602084013567ffffffffffffffff811115613acf57613ace6130d6565b5b613adb86828701613549565b9150509250925092565b600060208284031215613afb57613afa6130d1565b5b6000613b098482850161339e565b91505092915050565b6000819050919050565b6000613b37613b32613b2d84613355565b613b12565b613355565b9050919050565b6000613b4982613b1c565b9050919050565b6000613b5b82613b3e565b9050919050565b613b6b81613b50565b82525050565b6000602082019050613b866000830184613b62565b92915050565b600081905092915050565b6000613ba282613204565b613bac8185613b8c565b9350613bbc818560208601613220565b80840191505092915050565b6000613bd48284613b97565b915081905092915050565b600081519050613bee8161314c565b92915050565b600060208284031215613c0a57613c096130d1565b5b6000613c1884828501613bdf565b91505092915050565b600082825260208201905092915050565b7f50726f6a65637420646f206e6f74206578697374000000000000000000000000600082015250565b6000613c68601483613c21565b9150613c7382613c32565b602082019050919050565b60006020820190508181036000830152613c9781613c5b565b9050919050565b6000613caa8385613b8c565b9350613cb78385846134f8565b82840190509392505050565b6000613cd0828486613c9e565b91508190509392505050565b7f4e487b7100000000000000000000000000000000000000000000000000000000600052603260045260246000fd5b8082525050565b613d1b81613140565b82525050565b6000604082019050613d366000830185613d0b565b613d436020830184613d12565b9392505050565b600067ffffffffffffffff821115613d6557613d6461344c565b5b602082029050602081019050919050565b6000613d89613d84846134c7565b6134ac565b905082815260208101848484011115613da557613da4613447565b5b613db0848285613220565b509392505050565b600082601f830112613dcd57613dcc6130db565b5b8151613ddd848260208601613d76565b91505092915050565b6000613df9613df484613d4a565b6134ac565b90508083825260208201905060208402830185811115613e1c57613e1b6130e5565b5b835b81811015613e6357805167ffffffffffffffff811115613e4157613e406130db565b5b808601613e4e8982613db8565b85526020850194505050602081019050613e1e565b5050509392505050565b600082601f830112613e8257613e816130db565b5b8151613e92848260208601613de6565b91505092915050565b600060208284031215613eb157613eb06130d1565b5b600082015167ffffffffffffffff811115613ecf57613ece6130d6565b5b613edb84828501613e6d565b91505092915050565b6000604082019050613ef960008301856137e1565b613f06602083018461341d565b9392505050565b600081519050613f1c816138fa565b92915050565b600060208284031215613f3857613f376130d1565b5b6000613f4684828501613f0d565b91505092915050565b6000602082019050613f646000830184613d0b565b92915050565b600081519050613f7981613387565b92915050565b6000613f92613f8d8461380b565b6134ac565b90508083825260208201905060208402830185811115613fb557613fb46130e5565b5b835b81811015613fde5780613fca8882613f6a565b845260208401935050602081019050613fb7565b5050509392505050565b600082601f830112613ffd57613ffc6130db565b5b815161400d848260208601613f7f565b91505092915050565b60006020828403121561402c5761402b6130d1565b5b600082015167ffffffffffffffff81111561404a576140496130d6565b5b61405684828501613fe8565b91505092915050565b7f4e487b7100000000000000000000000000000000000000000000000000000000600052601160045260246000fd5b600061409982613413565b91506140a483613413565b9250817fffffffffffffffffffffffffffffffffffffffffffffffffffffffffffffffff04831182151516156140dd576140dc61405f565b5b828202905092915050565b7f4e487b7100000000000000000000000000000000000000000000000000000000600052601260045260246000fd5b600061412282613413565b915061412d83613413565b92508261413d5761413c6140e8565b5b828204905092915050565b600061415382613413565b915061415e83613413565b9250828210156141715761417061405f565b5b828203905092915050565b6000819050919050565b60006141a161419c6141978461417c565b613b12565b613413565b9050919050565b6141b181614186565b82525050565b60006060820190506141cc60008301866137e1565b6141d9602083018561341d565b6141e660408301846141a8565b949350505050565b600082825260208201905092915050565b600061420a82613204565b61421481856141ee565b9350614224818560208601613220565b61422d81613253565b840191505092915050565b600060408201905061424d6000830185613d0b565b818103602083015261425f81846141ff565b90509392505050565b600061427382613413565b915061427e83613413565b9250827fffffffffffffffffffffffffffffffffffffffffffffffffffffffffffffffff038211156142b3576142b261405f565b5b828201905092915050565b7f4e65772070726f6a656374206372656174656420776974682049443a00000000600082015250565b60006142f4601c83613c21565b91506142ff826142be565b602082019050919050565b600061431582613204565b61431f8185613c21565b935061432f818560208601613220565b61433881613253565b840191505092915050565b6000606082019050818103600083015261435c816142e7565b90508181036020830152614370818561430a565b905061437f604083018461341d565b9392505050565b7f416c726561647920766f74656400000000000000000000000000000000000000600082015250565b60006143bc600d83613c21565b91506143c782614386565b602082019050919050565b600060208201905081810360008301526143eb816143af565b9050919050565b7f566f74696e6720706f77657220697320696e73756666696369656e7400000000600082015250565b6000614428601c83613c21565b9150614433826143f2565b602082019050919050565b600060208201905081810360008301526144578161441b565b9050919050565b61446781613413565b82525050565b60006060820190506144826000830186613d0b565b818103602083015261449481856141ff565b90506144a3604083018461445e565b949350505050565b7f4e657720766f746520666f72206368616e67652070726f706f73616c3a000000600082015250565b60006144e1601d83613c21565b91506144ec826144ab565b602082019050919050565b60006145038385613c21565b93506145108385846134f8565b61451983613253565b840190509392505050565b600060a082019050818103600083015261453d816144d4565b905081810360208301526145528187896144f7565b90508181036040830152614566818661430a565b905061457560608301856137e1565b614582608083018461341d565b9695505050505050565b7f6e6f74207374617274696e6720646973747269627574696f6e2074696d650000600082015250565b60006145c2601e83613c21565b91506145cd8261458c565b602082019050919050565b600060208201905081810360008301526145f1816145b5565b9050919050565b7f4e6577206368616e67652070726f706f73616c20746f207468652050726f6a6560008201527f6374207769746820746865206e616d6520616e6420666f6c6c6f77696e67204960208201527f4420616e64204349443a00000000000000000000000000000000000000000000604082015250565b600061467a604a83613c21565b9150614685826145f8565b606082019050919050565b600060808201905081810360008301526146a98161466d565b905081810360208301526146be8186886144f7565b905081810360408301526146d2818561430a565b90506146e1606083018461341d565b95945050505050565b7f6e6f742073616d6520616d6f756e7473206173206120726563657069656e7473600082015250565b6000614720602083613c21565b915061472b826146ea565b602082019050919050565b6000602082019050818103600083015261474f81614713565b9050919050565b7f6e6f7420646973747269627574696f6e2074696d650000000000000000000000600082015250565b600061478c601583613c21565b915061479782614756565b602082019050919050565b600060208201905081810360008301526147bb8161477f565b9050919050565b7f556e737566666963656e7420616d6f756e74206f6620746f6b656e7300000000600082015250565b60006147f8601c83613c21565b9150614803826147c2565b602082019050919050565b60006020820190508181036000830152614827816147eb565b9050919050565b600061483982613413565b91507fffffffffffffffffffffffffffffffffffffffffffffffffffffffffffffffff820361486b5761486a61405f565b5b600182019050919050565b7f4e487b7100000000000000000000000000000000000000000000000000000000600052602260045260246000fd5b600060028204905060018216806148bd57607f821691505b6020821081036148d0576148cf614876565b5b50919050565b7f50726f6a656374206368616e67656420746f206368616e67653a200000000000600082015250565b600061490c601b83613c21565b9150614917826148d6565b602082019050919050565b6000606082019050818103600083015261493b816148ff565b9050818103602083015261494f818661430a565b905081810360408301526149648184866144f7565b9050949350505050565b7f41206e6577206368616e676520686173206265656e206d61646520746f20746860008201527f652070726f6a6563743a20000000000000000000000000000000000000000000602082015250565b60006149ca602b83613c21565b91506149d58261496e565b604082019050919050565b600060608201905081810360008301526149f9816149bd565b90508181036020830152614a0e8185876144f7565b90508181036040830152614a22818461430a565b9050949350505050565b7f4f776e61626c653a206e6577206f776e657220697320746865207a65726f206160008201527f6464726573730000000000000000000000000000000000000000000000000000602082015250565b6000614a88602683613c21565b9150614a9382614a2c565b604082019050919050565b60006020820190508181036000830152614ab781614a7b565b9050919050565b7f6e6f7420636c61696d696e672074696d65000000000000000000000000000000600082015250565b6000614af4601183613c21565b9150614aff82614abe565b602082019050919050565b60006020820190508181036000830152614b2381614ae7565b9050919050565b6000606082019050614b3f60008301866137e1565b614b4c602083018561341d565b614b59604083018461341d565b949350505050565b7f4f776e61626c653a2063616c6c6572206973206e6f7420746865206f776e6572600082015250565b6000614b97602083613c21565b9150614ba282614b61565b602082019050919050565b60006020820190508181036000830152614bc681614b8a565b905091905056fea264697066735822122083991e402c1e4ac374f044a0b9acf3099c59def0552070b76166e1b1531163e564736f6c634300080d0033",
  "immutableReferences": {},
  "source": "// SPDX-License-Identifier: MIT\npragma solidity ^0.8.13;\nimport \"./Projects.sol\";\nimport \"../node_modules/@openzeppelin/contracts/access/Ownable.sol\";\n\ncontract TokenDistribution is Projects, Ownable {\n\n    constructor(address _tokenAddress) Projects(_tokenAddress) {} \n\n    function sum(uint[] memory _tokens) internal pure returns(uint _sum) {\n\t\tfor (uint i = 0; i < _tokens.length; i++)\n\t\t\t_sum += _tokens[i];\n\t}\n\n    function getDistributionBalanceOf(\n        address usr, \n        string calldata projectName\n    ) public view ProjectExist(projectName) returns (uint) {\n        uint projectIDX = NameToID[projectName];\n        uint endDistributionTime = publicProjects[projectIDX].DistributionTime;\n        uint balanceOf = token.balanceOf(usr, projectIDX);\n\n        // calculate the proportion of tokens you have\n        uint tokens = (balanceOf * 100) / token.totalSupply(projectIDX);\n        if (tokens == 0) {\n            return 0;\n        }\n        tokens = (publicProjects[projectIDX].newTokens * tokens) / 100;\n        tokens -= publicProjects[projectIDX].TokensSpent[usr][endDistributionTime];\n        return tokens;\n    }\n\n    function distribute(\n        address[] memory recipients,\n        uint[] memory amounts,  \n        string calldata projectName\n    ) external ProjectExist(projectName) {\n        uint projectIDX = NameToID[projectName];\n        uint tokensToSpend = sum(amounts);\n\n        require(recipients.length == amounts.length, \"not same amounts as a recepients\");\n        require(publicProjects[projectIDX].DistributionTime > block.timestamp, \"not distribution time\");\n        require(tokensToSpend <= getDistributionBalanceOf(msg.sender, projectName), \"Unsufficent amount of tokens\");\n        \n        uint endDistributionTime = publicProjects[projectIDX].DistributionTime;\n\n        for (uint i=0; i<recipients.length; i++) {\n            publicProjects[projectIDX].pendingTokens[recipients[i]] += amounts[i];\n        }\n\n        publicProjects[projectIDX].TokensSpent[msg.sender][endDistributionTime] += tokensToSpend;\n    }\n\n    function startDistribution(\n        string calldata projectName\n    ) external ProjectExist(projectName) {\n        uint projectIDX = NameToID[projectName];\n        if (block.timestamp < publicProjects[projectIDX].DistributionTime) {\n            revert(\"not starting distribution time\");\n        }\n        publicProjects[projectIDX].newTokens = 100;\n        publicProjects[projectIDX].DistributionTime = block.timestamp + TimeLockInterval;\n    }\n\n    function claimPendingTokens(\n        string calldata projectName\n    ) external ProjectExist(projectName) {\n        uint projectIDX = NameToID[projectName];\n        require(block.timestamp >= publicProjects[projectIDX].DistributionTime, \"not claiming time\");\n        token.mint(msg.sender, projectIDX, publicProjects[projectIDX].pendingTokens[msg.sender]);\n        delete publicProjects[projectIDX].pendingTokens[msg.sender];\n    }\n}\n",
  "sourcePath": "c:\\Users\\User\\Desktop\\\\davidson\\project\\DavidsonProject\\Smart Contract\\contracts\\TokenDistribution.sol",
  "compiler": {
    "name": "solc",
    "version": "0.8.13+commit.abaa5c0e.Emscripten.clang"
  },
  "schemaVersion": "3.4.7",
  "updatedAt": "2024-03-13T20:47:58.027Z",
  "networkType": "ethereum",
  "devdoc": {
    "kind": "dev",
    "methods": {
      "owner()": {
        "details": "Returns the address of the current owner."
      },
      "renounceOwnership()": {
        "details": "Leaves the contract without owner. It will not be possible to call `onlyOwner` functions. Can only be called by the current owner. NOTE: Renouncing ownership will leave the contract without an owner, thereby disabling any functionality that is only available to the owner."
      },
      "transferOwnership(address)": {
        "details": "Transfers ownership of the contract to a new account (`newOwner`). Can only be called by the current owner."
      }
    },
    "version": 1
  },
  "userdoc": {
    "kind": "user",
    "methods": {},
    "version": 1
  }
}