{
  "contractName": "TokenDistribution",
  "abi": [
    {
      "inputs": [
        {
          "internalType": "address",
          "name": "_tokenAddress",
          "type": "address"
        }
      ],
      "stateMutability": "nonpayable",
      "type": "constructor"
    },
    {
      "anonymous": false,
      "inputs": [
        {
          "indexed": false,
          "internalType": "string",
          "name": "message",
          "type": "string"
        },
        {
          "indexed": false,
          "internalType": "string",
          "name": "projectName",
          "type": "string"
        },
        {
          "indexed": false,
          "internalType": "string",
          "name": "changeCID",
          "type": "string"
        }
      ],
      "name": "NewChangeIsMadeToProject",
      "type": "event"
    },
    {
      "anonymous": false,
      "inputs": [
        {
          "indexed": false,
          "internalType": "string",
          "name": "message",
          "type": "string"
        },
        {
          "indexed": false,
          "internalType": "string",
          "name": "Name",
          "type": "string"
        },
        {
          "indexed": false,
          "internalType": "string",
          "name": "CID",
          "type": "string"
        },
        {
          "indexed": false,
          "internalType": "uint256",
          "name": "indexValue",
          "type": "uint256"
        }
      ],
      "name": "NewChangeProposalCreated",
      "type": "event"
    },
    {
      "anonymous": false,
      "inputs": [
        {
          "indexed": false,
          "internalType": "string",
          "name": "message",
          "type": "string"
        },
        {
          "indexed": false,
          "internalType": "string",
          "name": "name",
          "type": "string"
        },
        {
          "indexed": false,
          "internalType": "uint256",
          "name": "value",
          "type": "uint256"
        }
      ],
      "name": "NewProjectCreated",
      "type": "event"
    },
    {
      "anonymous": false,
      "inputs": [
        {
          "indexed": false,
          "internalType": "string",
          "name": "message",
          "type": "string"
        },
        {
          "indexed": false,
          "internalType": "string",
          "name": "projectName",
          "type": "string"
        },
        {
          "indexed": false,
          "internalType": "string",
          "name": "changeProposalCID",
          "type": "string"
        },
        {
          "indexed": false,
          "internalType": "address",
          "name": "voter",
          "type": "address"
        },
        {
          "indexed": false,
          "internalType": "uint256",
          "name": "votes",
          "type": "uint256"
        }
      ],
      "name": "NewVoteForChangeProposal",
      "type": "event"
    },
    {
      "anonymous": false,
      "inputs": [
        {
          "indexed": true,
          "internalType": "address",
          "name": "previousOwner",
          "type": "address"
        },
        {
          "indexed": true,
          "internalType": "address",
          "name": "newOwner",
          "type": "address"
        }
      ],
      "name": "OwnershipTransferred",
      "type": "event"
    },
    {
      "anonymous": false,
      "inputs": [
        {
          "indexed": false,
          "internalType": "string",
          "name": "message",
          "type": "string"
        },
        {
          "indexed": false,
          "internalType": "string",
          "name": "changeCID",
          "type": "string"
        },
        {
          "indexed": false,
          "internalType": "string",
          "name": "ProjectName",
          "type": "string"
        }
      ],
      "name": "ProjectWentBack",
      "type": "event"
    },
    {
      "anonymous": false,
      "inputs": [
        {
          "indexed": false,
          "internalType": "string",
          "name": "message",
          "type": "string"
        },
        {
          "indexed": false,
          "internalType": "uint256",
          "name": "lastDistributionTime",
          "type": "uint256"
        }
      ],
      "name": "TokensDisributed",
      "type": "event"
    },
    {
      "inputs": [
        {
          "internalType": "string",
          "name": "_changeCID",
          "type": "string"
        },
        {
          "internalType": "string",
          "name": "_projectName",
          "type": "string"
        }
      ],
      "name": "MakeChangeProposal",
      "outputs": [],
      "stateMutability": "nonpayable",
      "type": "function"
    },
    {
      "inputs": [
        {
          "internalType": "string",
          "name": "_changeCID",
          "type": "string"
        },
        {
          "internalType": "string",
          "name": "_projectName",
          "type": "string"
        }
      ],
      "name": "MakeGoBackProposal",
      "outputs": [],
      "stateMutability": "nonpayable",
      "type": "function"
    },
    {
      "inputs": [
        {
          "internalType": "string",
          "name": "",
          "type": "string"
        }
      ],
      "name": "NameToID",
      "outputs": [
        {
          "internalType": "uint256",
          "name": "",
          "type": "uint256"
        }
      ],
      "stateMutability": "view",
      "type": "function",
      "constant": true
    },
    {
      "inputs": [],
      "name": "TimeLockInterval",
      "outputs": [
        {
          "internalType": "uint256",
          "name": "",
          "type": "uint256"
        }
      ],
      "stateMutability": "view",
      "type": "function",
      "constant": true
    },
    {
      "inputs": [
        {
          "internalType": "string",
          "name": "_proposedChangeCID",
          "type": "string"
        },
        {
          "internalType": "string",
          "name": "_projectName",
          "type": "string"
        }
      ],
      "name": "acceptChangeProposal",
      "outputs": [],
      "stateMutability": "nonpayable",
      "type": "function"
    },
    {
      "inputs": [
        {
          "internalType": "string",
          "name": "_projectName",
          "type": "string"
        },
        {
          "internalType": "string",
          "name": "_changeCID",
          "type": "string"
        }
      ],
      "name": "acceptGoBack",
      "outputs": [],
      "stateMutability": "nonpayable",
      "type": "function"
    },
    {
      "inputs": [
        {
          "internalType": "string",
          "name": "_CID",
          "type": "string"
        },
        {
          "internalType": "string",
          "name": "projectName",
          "type": "string"
        }
      ],
      "name": "createProject",
      "outputs": [],
      "stateMutability": "nonpayable",
      "type": "function"
    },
    {
      "inputs": [
        {
          "internalType": "address",
          "name": "_UserAddress",
          "type": "address"
        },
        {
          "internalType": "string",
          "name": "_projectName",
          "type": "string"
        }
      ],
      "name": "getBalance",
      "outputs": [
        {
          "internalType": "uint256",
          "name": "",
          "type": "uint256"
        }
      ],
      "stateMutability": "view",
      "type": "function",
      "constant": true
    },
    {
      "inputs": [
        {
          "internalType": "string",
          "name": "_projectName",
          "type": "string"
        },
        {
          "internalType": "bool",
          "name": "changesOrChangeProposals",
          "type": "bool"
        }
      ],
      "name": "getChangesOrProposals",
      "outputs": [
        {
          "internalType": "string[]",
          "name": "",
          "type": "string[]"
        }
      ],
      "stateMutability": "view",
      "type": "function",
      "constant": true
    },
    {
      "inputs": [],
      "name": "getLastProjects",
      "outputs": [
        {
          "internalType": "string[]",
          "name": "",
          "type": "string[]"
        }
      ],
      "stateMutability": "view",
      "type": "function",
      "constant": true
    },
    {
      "inputs": [],
      "name": "owner",
      "outputs": [
        {
          "internalType": "address",
          "name": "",
          "type": "address"
        }
      ],
      "stateMutability": "view",
      "type": "function",
      "constant": true
    },
    {
      "inputs": [],
      "name": "renounceOwnership",
      "outputs": [],
      "stateMutability": "nonpayable",
      "type": "function"
    },
    {
      "inputs": [],
      "name": "token",
      "outputs": [
        {
          "internalType": "contract ProjectsToken",
          "name": "",
          "type": "address"
        }
      ],
      "stateMutability": "view",
      "type": "function",
      "constant": true
    },
    {
      "inputs": [
        {
          "internalType": "address",
          "name": "newOwner",
          "type": "address"
        }
      ],
      "name": "transferOwnership",
      "outputs": [],
      "stateMutability": "nonpayable",
      "type": "function"
    },
    {
      "inputs": [
        {
          "internalType": "string",
          "name": "_changeProposalCID",
          "type": "string"
        },
        {
          "internalType": "string",
          "name": "_projectName",
          "type": "string"
        }
      ],
      "name": "voteForChangeProposal",
      "outputs": [],
      "stateMutability": "nonpayable",
      "type": "function"
    },
    {
      "inputs": [
        {
          "internalType": "address",
          "name": "usr",
          "type": "address"
        },
        {
          "internalType": "string",
          "name": "projectName",
          "type": "string"
        }
      ],
      "name": "getDistributionBalanceOf",
      "outputs": [
        {
          "internalType": "uint256",
          "name": "",
          "type": "uint256"
        }
      ],
      "stateMutability": "view",
      "type": "function",
      "constant": true
    },
    {
      "inputs": [
        {
          "internalType": "address[]",
          "name": "recipients",
          "type": "address[]"
        },
        {
          "internalType": "uint256[]",
          "name": "amounts",
          "type": "uint256[]"
        },
        {
          "internalType": "string",
          "name": "projectName",
          "type": "string"
        }
      ],
      "name": "distribute",
      "outputs": [],
      "stateMutability": "nonpayable",
      "type": "function"
    },
    {
      "inputs": [
        {
          "internalType": "string",
          "name": "projectName",
          "type": "string"
        }
      ],
      "name": "startDistribution",
      "outputs": [],
      "stateMutability": "nonpayable",
      "type": "function"
    },
    {
      "inputs": [
        {
          "internalType": "string",
          "name": "projectName",
          "type": "string"
        }
      ],
      "name": "claimPendingTokens",
      "outputs": [],
      "stateMutability": "nonpayable",
      "type": "function"
    }
  ],
  "bytecode": "0x60a060405262278d006080908152503480156200001b57600080fd5b506040516200465d3803806200465d8339818101604052810190620000419190620001e3565b8080600260006101000a81548173ffffffffffffffffffffffffffffffffffffffff021916908373ffffffffffffffffffffffffffffffffffffffff16021790555050620000a462000098620000ab60201b60201c565b620000b360201b60201c565b5062000215565b600033905090565b6000600360009054906101000a900473ffffffffffffffffffffffffffffffffffffffff16905081600360006101000a81548173ffffffffffffffffffffffffffffffffffffffff021916908373ffffffffffffffffffffffffffffffffffffffff1602179055508173ffffffffffffffffffffffffffffffffffffffff168173ffffffffffffffffffffffffffffffffffffffff167f8be0079c531659141344cd1fd0a4f28419497f9722a3daafe3b4186f6b6457e060405160405180910390a35050565b600080fd5b600073ffffffffffffffffffffffffffffffffffffffff82169050919050565b6000620001ab826200017e565b9050919050565b620001bd816200019e565b8114620001c957600080fd5b50565b600081519050620001dd81620001b2565b92915050565b600060208284031215620001fc57620001fb62000179565b5b60006200020c84828501620001cc565b91505092915050565b60805161441762000246600039600081816112940152818161142201528181611a8a015261269c01526144176000f3fe608060405234801561001057600080fd5b50600436106101215760003560e01c80638d1446fc116100ad578063c4687fb811610071578063c4687fb8146102f2578063ed0c2d901461030e578063f2fde38b1461032a578063f396530f14610346578063fc0c546a1461036257610121565b80638d1446fc146102625780638da5cb5b1461027e5780639f6806ec1461029c578063a54d804d146102b8578063a5635963146102d657610121565b80636bd06204116100f45780636bd06204146101e6578063715018a614610202578063750354d21461020c5780637a5945da146102285780637ec156741461024657610121565b80631d7147d8146101265780631dd7cecf1461015657806333846eba1461018657806349b7b640146101b6575b600080fd5b610140600480360381019061013b9190612be8565b610380565b60405161014d9190612da3565b60405180910390f35b610170600480360381019061016b9190612e23565b610599565b60405161017d9190612e9c565b60405180910390f35b6101a0600480360381019061019b9190612fe7565b6107a5565b6040516101ad9190612e9c565b60405180910390f35b6101d060048036038101906101cb9190612e23565b6107d3565b6040516101dd9190612e9c565b60405180910390f35b61020060048036038101906101fb9190613030565b610ba3565b005b61020a610d54565b005b610226600480360381019061022191906130a8565b610d68565b005b610230611292565b60405161023d9190612e9c565b60405180910390f35b610260600480360381019061025b9190613124565b6112b6565b005b61027c600480360381019061027791906130a8565b611518565b005b6102866118a6565b6040516102939190613180565b60405180910390f35b6102b660048036038101906102b1919061334d565b6118d0565b005b6102c0611cf2565b6040516102cd9190612da3565b60405180910390f35b6102f060048036038101906102eb91906130a8565b611e90565b005b61030c600480360381019061030791906133f9565b612065565b005b610328600480360381019061032391906130a8565b61229d565b005b610344600480360381019061033f9190613475565b6124d5565b005b610360600480360381019061035b9190613124565b612558565b005b61036a6128d0565b6040516103779190613501565b60405180910390f35b606083838080601f016020809104026020016040519081016040528093929190818152602001838380828437600081840152601f19601f82011690508083019250505050505050600080826040516103d89190613558565b9081526020016040518091039020549050600260009054906101000a900473ffffffffffffffffffffffffffffffffffffffff1673ffffffffffffffffffffffffffffffffffffffff16634f558e79826040518263ffffffff1660e01b81526004016104449190612e9c565b602060405180830381865afa158015610461573d6000803e3d6000fd5b505050506040513d601f19601f820116820180604052508101906104859190613584565b6104c4576040517f08c379a00000000000000000000000000000000000000000000000000000000081526004016104bb9061360e565b60405180910390fd5b60008087876040516104d7929190613653565b9081526020016040518091039020549050600181815481106104fc576104fb61366c565b5b90600052602060002090600a020160010173__ChangesLibrary________________________63e3e26be89091876040518363ffffffff1660e01b81526004016105479291906136b1565b600060405180830381865af4158015610564573d6000803e3d6000fd5b505050506040513d6000823e3d601f19601f8201168201806040525081019061058d919061382b565b93505050509392505050565b600082828080601f016020809104026020016040519081016040528093929190818152602001838380828437600081840152601f19601f82011690508083019250505050505050600080826040516105f19190613558565b9081526020016040518091039020549050600260009054906101000a900473ffffffffffffffffffffffffffffffffffffffff1673ffffffffffffffffffffffffffffffffffffffff16634f558e79826040518263ffffffff1660e01b815260040161065d9190612e9c565b602060405180830381865afa15801561067a573d6000803e3d6000fd5b505050506040513d601f19601f8201168201806040525081019061069e9190613584565b6106dd576040517f08c379a00000000000000000000000000000000000000000000000000000000081526004016106d49061360e565b60405180910390fd5b600260009054906101000a900473ffffffffffffffffffffffffffffffffffffffff1673ffffffffffffffffffffffffffffffffffffffff1662fdd58e876000888860405161072d929190613653565b9081526020016040518091039020546040518363ffffffff1660e01b8152600401610759929190613874565b602060405180830381865afa158015610776573d6000803e3d6000fd5b505050506040513d601f19601f8201168201806040525081019061079a91906138b2565b925050509392505050565b6000818051602081018201805184825260208301602085012081835280955050505050506000915090505481565b600082828080601f016020809104026020016040519081016040528093929190818152602001838380828437600081840152601f19601f820116905080830192505050505050506000808260405161082b9190613558565b9081526020016040518091039020549050600260009054906101000a900473ffffffffffffffffffffffffffffffffffffffff1673ffffffffffffffffffffffffffffffffffffffff16634f558e79826040518263ffffffff1660e01b81526004016108979190612e9c565b602060405180830381865afa1580156108b4573d6000803e3d6000fd5b505050506040513d601f19601f820116820180604052508101906108d89190613584565b610917576040517f08c379a000000000000000000000000000000000000000000000000000000000815260040161090e9061360e565b60405180910390fd5b600080868660405161092a929190613653565b90815260200160405180910390205490506000600182815481106109515761095061366c565b5b90600052602060002090600a02016005015490506000600260009054906101000a900473ffffffffffffffffffffffffffffffffffffffff1673ffffffffffffffffffffffffffffffffffffffff1662fdd58e8a856040518363ffffffff1660e01b81526004016109c3929190613874565b602060405180830381865afa1580156109e0573d6000803e3d6000fd5b505050506040513d601f19601f82011682018060405250810190610a0491906138b2565b90506000600260009054906101000a900473ffffffffffffffffffffffffffffffffffffffff1673ffffffffffffffffffffffffffffffffffffffff1663bd85b039856040518263ffffffff1660e01b8152600401610a639190612e9c565b602060405180830381865afa158015610a80573d6000803e3d6000fd5b505050506040513d601f19601f82011682018060405250810190610aa491906138b2565b606483610ab1919061390e565b610abb9190613997565b905060008103610ad2576000965050505050610b9a565b60648160018681548110610ae957610ae861366c565b5b90600052602060002090600a020160060154610b05919061390e565b610b0f9190613997565b905060018481548110610b2557610b2461366c565b5b90600052602060002090600a020160080160008b73ffffffffffffffffffffffffffffffffffffffff1673ffffffffffffffffffffffffffffffffffffffff16815260200190815260200160002060008481526020019081526020016000205481610b9091906139c8565b9050809650505050505b50509392505050565b6000600180549050905080600083604051610bbe9190613558565b908152602001604051809103902081905550600260009054906101000a900473ffffffffffffffffffffffffffffffffffffffff1673ffffffffffffffffffffffffffffffffffffffff1663156e29f6338360646040518463ffffffff1660e01b8152600401610c3093929190613a37565b600060405180830381600087803b158015610c4a57600080fd5b505af1158015610c5e573d6000803e3d6000fd5b505050506000600180816001815401808255809150500390600052602060002090600a0201905082816000019080519060200190610c9d929190612a94565b508060010173__ChangesLibrary________________________63aaff905a9091866040518363ffffffff1660e01b8152600401610cdc929190613ab8565b60006040518083038186803b158015610cf457600080fd5b505af4158015610d08573d6000803e3d6000fd5b505050504281600501819055507fe224389b386caecb8e3b38edc39361c7227e3ef820a8276bc31ac9cf1ba69fcd8383604051610d46929190613b6d565b60405180910390a150505050565b610d5c6128f6565b610d666000612974565b565b81818080601f016020809104026020016040519081016040528093929190818152602001838380828437600081840152601f19601f8201169050808301925050505050505060008082604051610dbe9190613558565b9081526020016040518091039020549050600260009054906101000a900473ffffffffffffffffffffffffffffffffffffffff1673ffffffffffffffffffffffffffffffffffffffff16634f558e79826040518263ffffffff1660e01b8152600401610e2a9190612e9c565b602060405180830381865afa158015610e47573d6000803e3d6000fd5b505050506040513d601f19601f82011682018060405250810190610e6b9190613584565b610eaa576040517f08c379a0000000000000000000000000000000000000000000000000000000008152600401610ea19061360e565b60405180910390fd5b6000808585604051610ebd929190613653565b90815260200160405180910390205490506000151560018281548110610ee657610ee561366c565b5b90600052602060002090600a020160090187604051610f059190613558565b908152602001604051809103902060003373ffffffffffffffffffffffffffffffffffffffff1673ffffffffffffffffffffffffffffffffffffffff16815260200190815260200160002060009054906101000a900460ff16151514610fa0576040517f08c379a0000000000000000000000000000000000000000000000000000000008152600401610f9790613bfc565b60405180910390fd5b6000600260009054906101000a900473ffffffffffffffffffffffffffffffffffffffff1673ffffffffffffffffffffffffffffffffffffffff1662fdd58e33846040518363ffffffff1660e01b8152600401610ffe929190613874565b602060405180830381865afa15801561101b573d6000803e3d6000fd5b505050506040513d601f19601f8201168201806040525081019061103f91906138b2565b905060008111611084576040517f08c379a000000000000000000000000000000000000000000000000000000000815260040161107b90613c68565b60405180910390fd5b600182815481106110985761109761366c565b5b90600052602060002090600a020160010173__ChangesLibrary________________________637dba11cb909189846040518463ffffffff1660e01b81526004016110e593929190613c97565b60006040518083038186803b1580156110fd57600080fd5b505af4158015611111573d6000803e3d6000fd5b50505050600180838154811061112a5761112961366c565b5b90600052602060002090600a0201600901886040516111499190613558565b908152602001604051809103902060003373ffffffffffffffffffffffffffffffffffffffff1673ffffffffffffffffffffffffffffffffffffffff16815260200190815260200160002060006101000a81548160ff0219169083151502179055507f0defd832aa647eb845ac2ed5e414ba9da1d13d7c3b2028fea20853913891174d86868933600187815481106111e4576111e361366c565b5b90600052602060002090600a020160010173__ChangesLibrary________________________63ca5451d290918e6040518363ffffffff1660e01b815260040161122f929190613ab8565b602060405180830381865af415801561124c573d6000803e3d6000fd5b505050506040513d601f19601f8201168201806040525081019061127091906138b2565b604051611281959493929190613d4e565b60405180910390a150505050505050565b7f000000000000000000000000000000000000000000000000000000000000000081565b81818080601f016020809104026020016040519081016040528093929190818152602001838380828437600081840152601f19601f820116905080830192505050505050506000808260405161130c9190613558565b9081526020016040518091039020549050600260009054906101000a900473ffffffffffffffffffffffffffffffffffffffff1673ffffffffffffffffffffffffffffffffffffffff16634f558e79826040518263ffffffff1660e01b81526004016113789190612e9c565b602060405180830381865afa158015611395573d6000803e3d6000fd5b505050506040513d601f19601f820116820180604052508101906113b99190613584565b6113f8576040517f08c379a00000000000000000000000000000000000000000000000000000000081526004016113ef9061360e565b60405180910390fd5b600080858560405161140b929190613653565b9081526020016040518091039020549050620151807f0000000000000000000000000000000000000000000000000000000000000000600183815481106114555761145461366c565b5b90600052602060002090600a0201600501546114719190613db6565b61147b9190613db6565b42116114bc576040517f08c379a00000000000000000000000000000000000000000000000000000000081526004016114b390613e58565b60405180910390fd5b6064600182815481106114d2576114d161366c565b5b90600052602060002090600a02016006018190555042600182815481106114fc576114fb61366c565b5b90600052602060002090600a0201600501819055505050505050565b81818080601f016020809104026020016040519081016040528093929190818152602001838380828437600081840152601f19601f820116905080830192505050505050506000808260405161156e9190613558565b9081526020016040518091039020549050600260009054906101000a900473ffffffffffffffffffffffffffffffffffffffff1673ffffffffffffffffffffffffffffffffffffffff16634f558e79826040518263ffffffff1660e01b81526004016115da9190612e9c565b602060405180830381865afa1580156115f7573d6000803e3d6000fd5b505050506040513d601f19601f8201168201806040525081019061161b9190613584565b61165a576040517f08c379a00000000000000000000000000000000000000000000000000000000081526004016116519061360e565b60405180910390fd5b600080858560405161166d929190613653565b9081526020016040518091039020549050600181815481106116925761169161366c565b5b90600052602060002090600a020160010173__ChangesLibrary________________________636de060a8909188600260009054906101000a900473ffffffffffffffffffffffffffffffffffffffff1673ffffffffffffffffffffffffffffffffffffffff1662fdd58e3360008c8c604051611710929190613653565b9081526020016040518091039020546040518363ffffffff1660e01b815260040161173c929190613874565b602060405180830381865afa158015611759573d6000803e3d6000fd5b505050506040513d601f19601f8201168201806040525081019061177d91906138b2565b6040518463ffffffff1660e01b815260040161179b93929190613c97565b60006040518083038186803b1580156117b357600080fd5b505af41580156117c7573d6000803e3d6000fd5b5050505060018082815481106117e0576117df61366c565b5b90600052602060002090600a0201600901876040516117ff9190613558565b908152602001604051809103902060003373ffffffffffffffffffffffffffffffffffffffff1673ffffffffffffffffffffffffffffffffffffffff16815260200190815260200160002060006101000a81548160ff0219169083151502179055507f7b7acf540aac5e16ce3dfbd4d106c203a301da603c18502d179f60282962e5c4858588846040516118969493929190613f10565b60405180910390a1505050505050565b6000600360009054906101000a900473ffffffffffffffffffffffffffffffffffffffff16905090565b81818080601f016020809104026020016040519081016040528093929190818152602001838380828437600081840152601f19601f82011690508083019250505050505050600080826040516119269190613558565b9081526020016040518091039020549050600260009054906101000a900473ffffffffffffffffffffffffffffffffffffffff1673ffffffffffffffffffffffffffffffffffffffff16634f558e79826040518263ffffffff1660e01b81526004016119929190612e9c565b602060405180830381865afa1580156119af573d6000803e3d6000fd5b505050506040513d601f19601f820116820180604052508101906119d39190613584565b611a12576040517f08c379a0000000000000000000000000000000000000000000000000000000008152600401611a099061360e565b60405180910390fd5b6000808585604051611a25929190613653565b90815260200160405180910390205490506000611a4187612a3a565b90508651885114611a87576040517f08c379a0000000000000000000000000000000000000000000000000000000008152600401611a7e90613fb6565b60405180910390fd5b427f000000000000000000000000000000000000000000000000000000000000000060018481548110611abd57611abc61366c565b5b90600052602060002090600a020160050154611ad99190613db6565b11611b19576040517f08c379a0000000000000000000000000000000000000000000000000000000008152600401611b1090613e58565b60405180910390fd5b611b243387876107d3565b811115611b66576040517f08c379a0000000000000000000000000000000000000000000000000000000008152600401611b5d90614022565b60405180910390fd5b600060018381548110611b7c57611b7b61366c565b5b90600052602060002090600a020160050154905060005b8951811015611c5c57888181518110611baf57611bae61366c565b5b602002602001015160018581548110611bcb57611bca61366c565b5b90600052602060002090600a020160070160008c8481518110611bf157611bf061366c565b5b602002602001015173ffffffffffffffffffffffffffffffffffffffff1673ffffffffffffffffffffffffffffffffffffffff1681526020019081526020016000206000828254611c429190613db6565b925050819055508080611c5490614042565b915050611b93565b508160018481548110611c7257611c7161366c565b5b90600052602060002090600a020160080160003373ffffffffffffffffffffffffffffffffffffffff1673ffffffffffffffffffffffffffffffffffffffff16815260200190815260200160002060008381526020019081526020016000206000828254611ce09190613db6565b92505081905550505050505050505050565b60606000600180549050905060006001805490509050600a821115611d1657600a91505b60008267ffffffffffffffff811115611d3257611d31612ebc565b5b604051908082528060200260200182016040528015611d6557816020015b6060815260200190600190039081611d505790505b50905060006001805490501115611e875760008383611d8491906139c8565b90505b82811015611e855760018181548110611da357611da261366c565b5b90600052602060002090600a02016000018054611dbf906140b9565b80601f0160208091040260200160405190810160405280929190818152602001828054611deb906140b9565b8015611e385780601f10611e0d57610100808354040283529160200191611e38565b820191906000526020600020905b815481529060010190602001808311611e1b57829003601f168201915b50505050508282600186611e4c91906139c8565b611e5691906139c8565b81518110611e6757611e6661366c565b5b60200260200101819052508080611e7d90614042565b915050611d87565b505b80935050505090565b6000808383604051611ea3929190613653565b908152602001604051809103902054905060018181548110611ec857611ec761366c565b5b90600052602060002090600a020160040160405180606001604052808681526020013373ffffffffffffffffffffffffffffffffffffffff168152602001600260009054906101000a900473ffffffffffffffffffffffffffffffffffffffff1673ffffffffffffffffffffffffffffffffffffffff1662fdd58e3360008989604051611f56929190613653565b9081526020016040518091039020546040518363ffffffff1660e01b8152600401611f82929190613874565b602060405180830381865afa158015611f9f573d6000803e3d6000fd5b505050506040513d601f19601f82011682018060405250810190611fc391906138b2565b8152509080600181540180825580915050600190039060005260206000209060030201600090919091909150600082015181600001908051906020019061200b929190612a94565b5060208201518160010160006101000a81548173ffffffffffffffffffffffffffffffffffffffff021916908373ffffffffffffffffffffffffffffffffffffffff16021790555060408201518160020155505050505050565b82828080601f016020809104026020016040519081016040528093929190818152602001838380828437600081840152601f19601f82011690508083019250505050505050600080826040516120bb9190613558565b9081526020016040518091039020549050600260009054906101000a900473ffffffffffffffffffffffffffffffffffffffff1673ffffffffffffffffffffffffffffffffffffffff16634f558e79826040518263ffffffff1660e01b81526004016121279190612e9c565b602060405180830381865afa158015612144573d6000803e3d6000fd5b505050506040513d601f19601f820116820180604052508101906121689190613584565b6121a7576040517f08c379a000000000000000000000000000000000000000000000000000000000815260040161219e9061360e565b60405180910390fd5b60008086866040516121ba929190613653565b9081526020016040518091039020549050600181815481106121df576121de61366c565b5b90600052602060002090600a020160010173__ChangesLibrary________________________637cbb44f99091866040518363ffffffff1660e01b815260040161222a929190613ab8565b60006040518083038186803b15801561224257600080fd5b505af4158015612256573d6000803e3d6000fd5b505050507f718a982b61bc723a0c68281b0eb10e1cff37bd89888841ae545c98cd5493a05684878760405161228d93929190614136565b60405180910390a1505050505050565b81818080601f016020809104026020016040519081016040528093929190818152602001838380828437600081840152601f19601f82011690508083019250505050505050600080826040516122f39190613558565b9081526020016040518091039020549050600260009054906101000a900473ffffffffffffffffffffffffffffffffffffffff1673ffffffffffffffffffffffffffffffffffffffff16634f558e79826040518263ffffffff1660e01b815260040161235f9190612e9c565b602060405180830381865afa15801561237c573d6000803e3d6000fd5b505050506040513d601f19601f820116820180604052508101906123a09190613584565b6123df576040517f08c379a00000000000000000000000000000000000000000000000000000000081526004016123d69061360e565b60405180910390fd5b60008085856040516123f2929190613653565b9081526020016040518091039020549050600181815481106124175761241661366c565b5b90600052602060002090600a020160010173__ChangesLibrary________________________636b6b15cc9091886040518363ffffffff1660e01b8152600401612462929190613ab8565b60006040518083038186803b15801561247a57600080fd5b505af415801561248e573d6000803e3d6000fd5b505050507fa59a33e81abf86b25a561f609013d867f28b3c0cbc2cdf98e852b0c0c041eb6c8585886040516124c5939291906141f4565b60405180910390a1505050505050565b6124dd6128f6565b600073ffffffffffffffffffffffffffffffffffffffff168173ffffffffffffffffffffffffffffffffffffffff160361254c576040517f08c379a0000000000000000000000000000000000000000000000000000000008152600401612543906142b2565b60405180910390fd5b61255581612974565b50565b81818080601f016020809104026020016040519081016040528093929190818152602001838380828437600081840152601f19601f82011690508083019250505050505050600080826040516125ae9190613558565b9081526020016040518091039020549050600260009054906101000a900473ffffffffffffffffffffffffffffffffffffffff1673ffffffffffffffffffffffffffffffffffffffff16634f558e79826040518263ffffffff1660e01b815260040161261a9190612e9c565b602060405180830381865afa158015612637573d6000803e3d6000fd5b505050506040513d601f19601f8201168201806040525081019061265b9190613584565b61269a576040517f08c379a00000000000000000000000000000000000000000000000000000000081526004016126919061360e565b60405180910390fd5b7f00000000000000000000000000000000000000000000000000000000000000006001600086866040516126cf929190613653565b908152602001604051809103902054815481106126ef576126ee61366c565b5b90600052602060002090600a02016005015461270b9190613db6565b421161274c576040517f08c379a00000000000000000000000000000000000000000000000000000000081526004016127439061431e565b60405180910390fd5b600080858560405161275f929190613653565b9081526020016040518091039020549050600260009054906101000a900473ffffffffffffffffffffffffffffffffffffffff1673ffffffffffffffffffffffffffffffffffffffff1663156e29f63383600185815481106127c4576127c361366c565b5b90600052602060002090600a020160070160003373ffffffffffffffffffffffffffffffffffffffff1673ffffffffffffffffffffffffffffffffffffffff168152602001908152602001600020546040518463ffffffff1660e01b81526004016128319392919061433e565b600060405180830381600087803b15801561284b57600080fd5b505af115801561285f573d6000803e3d6000fd5b50505050600181815481106128775761287661366c565b5b90600052602060002090600a020160070160003373ffffffffffffffffffffffffffffffffffffffff1673ffffffffffffffffffffffffffffffffffffffff168152602001908152602001600020600090555050505050565b600260009054906101000a900473ffffffffffffffffffffffffffffffffffffffff1681565b6128fe612a8c565b73ffffffffffffffffffffffffffffffffffffffff1661291c6118a6565b73ffffffffffffffffffffffffffffffffffffffff1614612972576040517f08c379a0000000000000000000000000000000000000000000000000000000008152600401612969906143c1565b60405180910390fd5b565b6000600360009054906101000a900473ffffffffffffffffffffffffffffffffffffffff16905081600360006101000a81548173ffffffffffffffffffffffffffffffffffffffff021916908373ffffffffffffffffffffffffffffffffffffffff1602179055508173ffffffffffffffffffffffffffffffffffffffff168173ffffffffffffffffffffffffffffffffffffffff167f8be0079c531659141344cd1fd0a4f28419497f9722a3daafe3b4186f6b6457e060405160405180910390a35050565b600080600090505b8251811015612a8657828181518110612a5e57612a5d61366c565b5b602002602001015182612a719190613db6565b91508080612a7e90614042565b915050612a42565b50919050565b600033905090565b828054612aa0906140b9565b90600052602060002090601f016020900481019282612ac25760008555612b09565b82601f10612adb57805160ff1916838001178555612b09565b82800160010185558215612b09579182015b82811115612b08578251825591602001919060010190612aed565b5b509050612b169190612b1a565b5090565b5b80821115612b33576000816000905550600101612b1b565b5090565b6000604051905090565b600080fd5b600080fd5b600080fd5b600080fd5b600080fd5b60008083601f840112612b7057612b6f612b4b565b5b8235905067ffffffffffffffff811115612b8d57612b8c612b50565b5b602083019150836001820283011115612ba957612ba8612b55565b5b9250929050565b60008115159050919050565b612bc581612bb0565b8114612bd057600080fd5b50565b600081359050612be281612bbc565b92915050565b600080600060408486031215612c0157612c00612b41565b5b600084013567ffffffffffffffff811115612c1f57612c1e612b46565b5b612c2b86828701612b5a565b93509350506020612c3e86828701612bd3565b9150509250925092565b600081519050919050565b600082825260208201905092915050565b6000819050602082019050919050565b600081519050919050565b600082825260208201905092915050565b60005b83811015612cae578082015181840152602081019050612c93565b83811115612cbd576000848401525b50505050565b6000601f19601f8301169050919050565b6000612cdf82612c74565b612ce98185612c7f565b9350612cf9818560208601612c90565b612d0281612cc3565b840191505092915050565b6000612d198383612cd4565b905092915050565b6000602082019050919050565b6000612d3982612c48565b612d438185612c53565b935083602082028501612d5585612c64565b8060005b85811015612d915784840389528151612d728582612d0d565b9450612d7d83612d21565b925060208a01995050600181019050612d59565b50829750879550505050505092915050565b60006020820190508181036000830152612dbd8184612d2e565b905092915050565b600073ffffffffffffffffffffffffffffffffffffffff82169050919050565b6000612df082612dc5565b9050919050565b612e0081612de5565b8114612e0b57600080fd5b50565b600081359050612e1d81612df7565b92915050565b600080600060408486031215612e3c57612e3b612b41565b5b6000612e4a86828701612e0e565b935050602084013567ffffffffffffffff811115612e6b57612e6a612b46565b5b612e7786828701612b5a565b92509250509250925092565b6000819050919050565b612e9681612e83565b82525050565b6000602082019050612eb16000830184612e8d565b92915050565b600080fd5b7f4e487b7100000000000000000000000000000000000000000000000000000000600052604160045260246000fd5b612ef482612cc3565b810181811067ffffffffffffffff82111715612f1357612f12612ebc565b5b80604052505050565b6000612f26612b37565b9050612f328282612eeb565b919050565b600067ffffffffffffffff821115612f5257612f51612ebc565b5b612f5b82612cc3565b9050602081019050919050565b82818337600083830152505050565b6000612f8a612f8584612f37565b612f1c565b905082815260208101848484011115612fa657612fa5612eb7565b5b612fb1848285612f68565b509392505050565b600082601f830112612fce57612fcd612b4b565b5b8135612fde848260208601612f77565b91505092915050565b600060208284031215612ffd57612ffc612b41565b5b600082013567ffffffffffffffff81111561301b5761301a612b46565b5b61302784828501612fb9565b91505092915050565b6000806040838503121561304757613046612b41565b5b600083013567ffffffffffffffff81111561306557613064612b46565b5b61307185828601612fb9565b925050602083013567ffffffffffffffff81111561309257613091612b46565b5b61309e85828601612fb9565b9150509250929050565b6000806000604084860312156130c1576130c0612b41565b5b600084013567ffffffffffffffff8111156130df576130de612b46565b5b6130eb86828701612fb9565b935050602084013567ffffffffffffffff81111561310c5761310b612b46565b5b61311886828701612b5a565b92509250509250925092565b6000806020838503121561313b5761313a612b41565b5b600083013567ffffffffffffffff81111561315957613158612b46565b5b61316585828601612b5a565b92509250509250929050565b61317a81612de5565b82525050565b60006020820190506131956000830184613171565b92915050565b600067ffffffffffffffff8211156131b6576131b5612ebc565b5b602082029050602081019050919050565b60006131da6131d58461319b565b612f1c565b905080838252602082019050602084028301858111156131fd576131fc612b55565b5b835b8181101561322657806132128882612e0e565b8452602084019350506020810190506131ff565b5050509392505050565b600082601f83011261324557613244612b4b565b5b81356132558482602086016131c7565b91505092915050565b600067ffffffffffffffff82111561327957613278612ebc565b5b602082029050602081019050919050565b61329381612e83565b811461329e57600080fd5b50565b6000813590506132b08161328a565b92915050565b60006132c96132c48461325e565b612f1c565b905080838252602082019050602084028301858111156132ec576132eb612b55565b5b835b81811015613315578061330188826132a1565b8452602084019350506020810190506132ee565b5050509392505050565b600082601f83011261333457613333612b4b565b5b81356133448482602086016132b6565b91505092915050565b6000806000806060858703121561336757613366612b41565b5b600085013567ffffffffffffffff81111561338557613384612b46565b5b61339187828801613230565b945050602085013567ffffffffffffffff8111156133b2576133b1612b46565b5b6133be8782880161331f565b935050604085013567ffffffffffffffff8111156133df576133de612b46565b5b6133eb87828801612b5a565b925092505092959194509250565b60008060006040848603121561341257613411612b41565b5b600084013567ffffffffffffffff8111156134305761342f612b46565b5b61343c86828701612b5a565b9350935050602084013567ffffffffffffffff81111561345f5761345e612b46565b5b61346b86828701612fb9565b9150509250925092565b60006020828403121561348b5761348a612b41565b5b600061349984828501612e0e565b91505092915050565b6000819050919050565b60006134c76134c26134bd84612dc5565b6134a2565b612dc5565b9050919050565b60006134d9826134ac565b9050919050565b60006134eb826134ce565b9050919050565b6134fb816134e0565b82525050565b600060208201905061351660008301846134f2565b92915050565b600081905092915050565b600061353282612c74565b61353c818561351c565b935061354c818560208601612c90565b80840191505092915050565b60006135648284613527565b915081905092915050565b60008151905061357e81612bbc565b92915050565b60006020828403121561359a57613599612b41565b5b60006135a88482850161356f565b91505092915050565b600082825260208201905092915050565b7f50726f6a65637420646f206e6f74206578697374000000000000000000000000600082015250565b60006135f86014836135b1565b9150613603826135c2565b602082019050919050565b60006020820190508181036000830152613627816135eb565b9050919050565b600061363a838561351c565b9350613647838584612f68565b82840190509392505050565b600061366082848661362e565b91508190509392505050565b7f4e487b7100000000000000000000000000000000000000000000000000000000600052603260045260246000fd5b8082525050565b6136ab81612bb0565b82525050565b60006040820190506136c6600083018561369b565b6136d360208301846136a2565b9392505050565b600067ffffffffffffffff8211156136f5576136f4612ebc565b5b602082029050602081019050919050565b600061371961371484612f37565b612f1c565b90508281526020810184848401111561373557613734612eb7565b5b613740848285612c90565b509392505050565b600082601f83011261375d5761375c612b4b565b5b815161376d848260208601613706565b91505092915050565b6000613789613784846136da565b612f1c565b905080838252602082019050602084028301858111156137ac576137ab612b55565b5b835b818110156137f357805167ffffffffffffffff8111156137d1576137d0612b4b565b5b8086016137de8982613748565b855260208501945050506020810190506137ae565b5050509392505050565b600082601f83011261381257613811612b4b565b5b8151613822848260208601613776565b91505092915050565b60006020828403121561384157613840612b41565b5b600082015167ffffffffffffffff81111561385f5761385e612b46565b5b61386b848285016137fd565b91505092915050565b60006040820190506138896000830185613171565b6138966020830184612e8d565b9392505050565b6000815190506138ac8161328a565b92915050565b6000602082840312156138c8576138c7612b41565b5b60006138d68482850161389d565b91505092915050565b7f4e487b7100000000000000000000000000000000000000000000000000000000600052601160045260246000fd5b600061391982612e83565b915061392483612e83565b9250817fffffffffffffffffffffffffffffffffffffffffffffffffffffffffffffffff048311821515161561395d5761395c6138df565b5b828202905092915050565b7f4e487b7100000000000000000000000000000000000000000000000000000000600052601260045260246000fd5b60006139a282612e83565b91506139ad83612e83565b9250826139bd576139bc613968565b5b828204905092915050565b60006139d382612e83565b91506139de83612e83565b9250828210156139f1576139f06138df565b5b828203905092915050565b6000819050919050565b6000613a21613a1c613a17846139fc565b6134a2565b612e83565b9050919050565b613a3181613a06565b82525050565b6000606082019050613a4c6000830186613171565b613a596020830185612e8d565b613a666040830184613a28565b949350505050565b600082825260208201905092915050565b6000613a8a82612c74565b613a948185613a6e565b9350613aa4818560208601612c90565b613aad81612cc3565b840191505092915050565b6000604082019050613acd600083018561369b565b8181036020830152613adf8184613a7f565b90509392505050565b7f4e65772070726f6a656374206372656174656420776974682049443a00000000600082015250565b6000613b1e601c836135b1565b9150613b2982613ae8565b602082019050919050565b6000613b3f82612c74565b613b4981856135b1565b9350613b59818560208601612c90565b613b6281612cc3565b840191505092915050565b60006060820190508181036000830152613b8681613b11565b90508181036020830152613b9a8185613b34565b9050613ba96040830184612e8d565b9392505050565b7f416c726561647920766f74656400000000000000000000000000000000000000600082015250565b6000613be6600d836135b1565b9150613bf182613bb0565b602082019050919050565b60006020820190508181036000830152613c1581613bd9565b9050919050565b7f566f74696e6720706f77657220697320696e73756666696369656e7400000000600082015250565b6000613c52601c836135b1565b9150613c5d82613c1c565b602082019050919050565b60006020820190508181036000830152613c8181613c45565b9050919050565b613c9181612e83565b82525050565b6000606082019050613cac600083018661369b565b8181036020830152613cbe8185613a7f565b9050613ccd6040830184613c88565b949350505050565b7f4e657720766f746520666f72206368616e67652070726f706f73616c3a000000600082015250565b6000613d0b601d836135b1565b9150613d1682613cd5565b602082019050919050565b6000613d2d83856135b1565b9350613d3a838584612f68565b613d4383612cc3565b840190509392505050565b600060a0820190508181036000830152613d6781613cfe565b90508181036020830152613d7c818789613d21565b90508181036040830152613d908186613b34565b9050613d9f6060830185613171565b613dac6080830184612e8d565b9695505050505050565b6000613dc182612e83565b9150613dcc83612e83565b9250827fffffffffffffffffffffffffffffffffffffffffffffffffffffffffffffffff03821115613e0157613e006138df565b5b828201905092915050565b7f6e6f7420646973747269627574696f6e2074696d650000000000000000000000600082015250565b6000613e426015836135b1565b9150613e4d82613e0c565b602082019050919050565b60006020820190508181036000830152613e7181613e35565b9050919050565b7f4e6577206368616e67652070726f706f73616c20746f207468652050726f6a6560008201527f6374207769746820746865206e616d6520616e6420666f6c6c6f77696e67204960208201527f4420616e64204349443a00000000000000000000000000000000000000000000604082015250565b6000613efa604a836135b1565b9150613f0582613e78565b606082019050919050565b60006080820190508181036000830152613f2981613eed565b90508181036020830152613f3e818688613d21565b90508181036040830152613f528185613b34565b9050613f616060830184612e8d565b95945050505050565b7f6e6f742073616d6520616d6f756e7473206173206120726563657069656e7473600082015250565b6000613fa06020836135b1565b9150613fab82613f6a565b602082019050919050565b60006020820190508181036000830152613fcf81613f93565b9050919050565b7f556e737566666963656e7420616d6f756e74206f6620746f6b656e7300000000600082015250565b600061400c601c836135b1565b915061401782613fd6565b602082019050919050565b6000602082019050818103600083015261403b81613fff565b9050919050565b600061404d82612e83565b91507fffffffffffffffffffffffffffffffffffffffffffffffffffffffffffffffff820361407f5761407e6138df565b5b600182019050919050565b7f4e487b7100000000000000000000000000000000000000000000000000000000600052602260045260246000fd5b600060028204905060018216806140d157607f821691505b6020821081036140e4576140e361408a565b5b50919050565b7f50726f6a656374206368616e67656420746f206368616e67653a200000000000600082015250565b6000614120601b836135b1565b915061412b826140ea565b602082019050919050565b6000606082019050818103600083015261414f81614113565b905081810360208301526141638186613b34565b90508181036040830152614178818486613d21565b9050949350505050565b7f41206e6577206368616e676520686173206265656e206d61646520746f20746860008201527f652070726f6a6563743a20000000000000000000000000000000000000000000602082015250565b60006141de602b836135b1565b91506141e982614182565b604082019050919050565b6000606082019050818103600083015261420d816141d1565b90508181036020830152614222818587613d21565b905081810360408301526142368184613b34565b9050949350505050565b7f4f776e61626c653a206e6577206f776e657220697320746865207a65726f206160008201527f6464726573730000000000000000000000000000000000000000000000000000602082015250565b600061429c6026836135b1565b91506142a782614240565b604082019050919050565b600060208201905081810360008301526142cb8161428f565b9050919050565b7f6e6f7420636c61696d696e672074696d65000000000000000000000000000000600082015250565b60006143086011836135b1565b9150614313826142d2565b602082019050919050565b60006020820190508181036000830152614337816142fb565b9050919050565b60006060820190506143536000830186613171565b6143606020830185612e8d565b61436d6040830184612e8d565b949350505050565b7f4f776e61626c653a2063616c6c6572206973206e6f7420746865206f776e6572600082015250565b60006143ab6020836135b1565b91506143b682614375565b602082019050919050565b600060208201905081810360008301526143da8161439e565b905091905056fea2646970667358221220788fe221b341c906d434c565751338cfefb4a4a94665e252633be26cfa5bda8464736f6c634300080d0033",
  "immutableReferences": {
    "405": [
      {
        "length": 32,
        "start": 4756
      },
      {
        "length": 32,
        "start": 5154
      },
      {
        "length": 32,
        "start": 6794
      },
      {
        "length": 32,
        "start": 9884
      }
    ]
  },
  "source": "// SPDX-License-Identifier: MIT\npragma solidity ^0.8.2;\nimport \"./Projects.sol\";\nimport \"../node_modules/@openzeppelin/contracts/access/Ownable.sol\";\n\ncontract TokenDistribution is Projects, Ownable {\n\n    constructor(address _tokenAddress) Projects(_tokenAddress) {} \n\n    function sum(uint[] memory _tokens) internal pure returns(uint _sum) {\n\t\tfor (uint i = 0; i < _tokens.length; i++)\n\t\t\t_sum += _tokens[i];\n\t}\n\n    function getDistributionBalanceOf(\n        address usr, \n        string calldata projectName\n    ) public view ProjectExist(projectName) returns (uint) {\n        uint projectIDX = NameToID[projectName];\n        uint lastDistributionTime = publicProjects[projectIDX].lastDistributionTime;\n        uint balanceOf = token.balanceOf(usr, projectIDX);\n\n        // calculate the proportion of tokens you have\n        uint tokens = (balanceOf * 100) / token.totalSupply(projectIDX);\n        if (tokens == 0) {\n            return 0;\n        }\n        tokens = (publicProjects[projectIDX].newTokens * tokens) / 100;\n        tokens -= publicProjects[projectIDX].TokensSpent[usr][lastDistributionTime];\n        return tokens;\n    }\n\n    function distribute(\n        address[] memory recipients,\n        uint[] memory amounts,  \n        string calldata projectName\n    ) external ProjectExist(projectName) {\n        uint projectIDX = NameToID[projectName];\n        uint tokensToSpend = sum(amounts);\n\n        require(recipients.length == amounts.length, \"not same amounts as a recepients\");\n        require(publicProjects[projectIDX].lastDistributionTime + TimeLockInterval > block.timestamp, \"not distribution time\");\n        require(tokensToSpend <= getDistributionBalanceOf(msg.sender, projectName), \"Unsufficent amount of tokens\");\n        \n        uint lastDistributionTime = publicProjects[projectIDX].lastDistributionTime;\n\n        for (uint i=0; i<recipients.length; i++) {\n            publicProjects[projectIDX].pendingTokens[recipients[i]] += amounts[i];\n        }\n\n        publicProjects[projectIDX].TokensSpent[msg.sender][lastDistributionTime] += tokensToSpend;\n    }\n\n    function startDistribution(\n        string calldata projectName\n    ) external ProjectExist(projectName) {\n        uint projectIDX = NameToID[projectName];\n        require(block.timestamp > publicProjects[projectIDX].lastDistributionTime + TimeLockInterval + 1 days, \"not distribution time\");\n        publicProjects[projectIDX].newTokens = 100;\n        publicProjects[projectIDX].lastDistributionTime = block.timestamp;\n    }\n\n    function claimPendingTokens(\n        string calldata projectName\n    ) external ProjectExist(projectName) {\n        require(block.timestamp > publicProjects[NameToID[projectName]].lastDistributionTime + TimeLockInterval, \"not claiming time\");\n\n        uint projectIDX = NameToID[projectName];\n        token.mint(msg.sender, projectIDX, publicProjects[projectIDX].pendingTokens[msg.sender]);\n        delete publicProjects[projectIDX].pendingTokens[msg.sender];\n    }\n\n}\n",
  "sourcePath": "c:\\Users\\User\\Desktop\\\\davidson\\project\\DavidsonProject\\Smart Contract\\contracts\\TokenDistribution.sol",
  "compiler": {
    "name": "solc",
    "version": "0.8.13+commit.abaa5c0e.Emscripten.clang"
  },
  "schemaVersion": "3.4.7",
  "updatedAt": "2024-03-07T13:42:14.157Z",
  "networkType": "ethereum",
  "devdoc": {
    "kind": "dev",
    "methods": {
      "owner()": {
        "details": "Returns the address of the current owner."
      },
      "renounceOwnership()": {
        "details": "Leaves the contract without owner. It will not be possible to call `onlyOwner` functions. Can only be called by the current owner. NOTE: Renouncing ownership will leave the contract without an owner, thereby disabling any functionality that is only available to the owner."
      },
      "transferOwnership(address)": {
        "details": "Transfers ownership of the contract to a new account (`newOwner`). Can only be called by the current owner."
      }
    },
    "version": 1
  },
  "userdoc": {
    "kind": "user",
    "methods": {},
    "version": 1
  }
}