{
  "contractName": "TokenDistribution",
  "abi": [
    {
      "inputs": [
        {
          "internalType": "address",
          "name": "_tokenAddress",
          "type": "address"
        }
      ],
      "stateMutability": "nonpayable",
      "type": "constructor"
    },
    {
      "anonymous": false,
      "inputs": [
        {
          "indexed": false,
          "internalType": "string",
          "name": "message",
          "type": "string"
        },
        {
          "indexed": false,
          "internalType": "string",
          "name": "projectName",
          "type": "string"
        },
        {
          "indexed": false,
          "internalType": "string",
          "name": "changeCID",
          "type": "string"
        }
      ],
      "name": "NewChangeIsMadeToProject",
      "type": "event"
    },
    {
      "anonymous": false,
      "inputs": [
        {
          "indexed": false,
          "internalType": "string",
          "name": "message",
          "type": "string"
        },
        {
          "indexed": false,
          "internalType": "string",
          "name": "Name",
          "type": "string"
        },
        {
          "indexed": false,
          "internalType": "string",
          "name": "CID",
          "type": "string"
        },
        {
          "indexed": false,
          "internalType": "uint256",
          "name": "indexValue",
          "type": "uint256"
        }
      ],
      "name": "NewChangeProposalCreated",
      "type": "event"
    },
    {
      "anonymous": false,
      "inputs": [
        {
          "indexed": false,
          "internalType": "string",
          "name": "message",
          "type": "string"
        },
        {
          "indexed": false,
          "internalType": "string",
          "name": "name",
          "type": "string"
        },
        {
          "indexed": false,
          "internalType": "uint256",
          "name": "value",
          "type": "uint256"
        }
      ],
      "name": "NewProjectCreated",
      "type": "event"
    },
    {
      "anonymous": false,
      "inputs": [
        {
          "indexed": false,
          "internalType": "string",
          "name": "message",
          "type": "string"
        },
        {
          "indexed": false,
          "internalType": "string",
          "name": "projectName",
          "type": "string"
        },
        {
          "indexed": false,
          "internalType": "string",
          "name": "changeProposalCID",
          "type": "string"
        },
        {
          "indexed": false,
          "internalType": "address",
          "name": "voter",
          "type": "address"
        },
        {
          "indexed": false,
          "internalType": "uint256",
          "name": "votes",
          "type": "uint256"
        }
      ],
      "name": "NewVoteForChangeProposal",
      "type": "event"
    },
    {
      "anonymous": false,
      "inputs": [
        {
          "indexed": true,
          "internalType": "address",
          "name": "previousOwner",
          "type": "address"
        },
        {
          "indexed": true,
          "internalType": "address",
          "name": "newOwner",
          "type": "address"
        }
      ],
      "name": "OwnershipTransferred",
      "type": "event"
    },
    {
      "anonymous": false,
      "inputs": [
        {
          "indexed": false,
          "internalType": "string",
          "name": "message",
          "type": "string"
        },
        {
          "indexed": false,
          "internalType": "string",
          "name": "changeCID",
          "type": "string"
        },
        {
          "indexed": false,
          "internalType": "string",
          "name": "ProjectName",
          "type": "string"
        }
      ],
      "name": "ProjectWentBack",
      "type": "event"
    },
    {
      "anonymous": false,
      "inputs": [
        {
          "indexed": false,
          "internalType": "string",
          "name": "message",
          "type": "string"
        },
        {
          "indexed": false,
          "internalType": "uint256",
          "name": "lastDistributionTime",
          "type": "uint256"
        }
      ],
      "name": "TokensDisributed",
      "type": "event"
    },
    {
      "inputs": [],
      "name": "ClaimingInterval",
      "outputs": [
        {
          "internalType": "uint256",
          "name": "",
          "type": "uint256"
        }
      ],
      "stateMutability": "view",
      "type": "function",
      "constant": true
    },
    {
      "inputs": [
        {
          "internalType": "string",
          "name": "_changeCID",
          "type": "string"
        },
        {
          "internalType": "string",
          "name": "_projectName",
          "type": "string"
        }
      ],
      "name": "MakeChangeProposal",
      "outputs": [],
      "stateMutability": "nonpayable",
      "type": "function"
    },
    {
      "inputs": [
        {
          "internalType": "string",
          "name": "_changeCID",
          "type": "string"
        },
        {
          "internalType": "string",
          "name": "_projectName",
          "type": "string"
        }
      ],
      "name": "MakeGoBackProposal",
      "outputs": [],
      "stateMutability": "nonpayable",
      "type": "function"
    },
    {
      "inputs": [
        {
          "internalType": "string",
          "name": "",
          "type": "string"
        }
      ],
      "name": "NameToID",
      "outputs": [
        {
          "internalType": "uint256",
          "name": "",
          "type": "uint256"
        }
      ],
      "stateMutability": "view",
      "type": "function",
      "constant": true
    },
    {
      "inputs": [],
      "name": "TimeLockInterval",
      "outputs": [
        {
          "internalType": "uint256",
          "name": "",
          "type": "uint256"
        }
      ],
      "stateMutability": "view",
      "type": "function",
      "constant": true
    },
    {
      "inputs": [
        {
          "internalType": "string",
          "name": "_proposedChangeCID",
          "type": "string"
        },
        {
          "internalType": "string",
          "name": "_projectName",
          "type": "string"
        }
      ],
      "name": "acceptChangeProposal",
      "outputs": [],
      "stateMutability": "nonpayable",
      "type": "function"
    },
    {
      "inputs": [
        {
          "internalType": "string",
          "name": "_projectName",
          "type": "string"
        },
        {
          "internalType": "string",
          "name": "_changeCID",
          "type": "string"
        }
      ],
      "name": "acceptGoBack",
      "outputs": [],
      "stateMutability": "nonpayable",
      "type": "function"
    },
    {
      "inputs": [
        {
          "internalType": "string",
          "name": "_CID",
          "type": "string"
        },
        {
          "internalType": "string",
          "name": "projectName",
          "type": "string"
        }
      ],
      "name": "createProject",
      "outputs": [],
      "stateMutability": "nonpayable",
      "type": "function"
    },
    {
      "inputs": [
        {
          "internalType": "string",
          "name": "_projectName",
          "type": "string"
        }
      ],
      "name": "getAddresses",
      "outputs": [
        {
          "internalType": "address[]",
          "name": "",
          "type": "address[]"
        }
      ],
      "stateMutability": "view",
      "type": "function",
      "constant": true
    },
    {
      "inputs": [
        {
          "internalType": "address",
          "name": "_UserAddress",
          "type": "address"
        },
        {
          "internalType": "string",
          "name": "_projectName",
          "type": "string"
        }
      ],
      "name": "getBalance",
      "outputs": [
        {
          "internalType": "uint256",
          "name": "",
          "type": "uint256"
        }
      ],
      "stateMutability": "view",
      "type": "function",
      "constant": true
    },
    {
      "inputs": [
        {
          "internalType": "string",
          "name": "_projectName",
          "type": "string"
        },
        {
          "internalType": "string",
          "name": "change",
          "type": "string"
        }
      ],
      "name": "getChangeMaker",
      "outputs": [
        {
          "internalType": "address",
          "name": "",
          "type": "address"
        }
      ],
      "stateMutability": "view",
      "type": "function",
      "constant": true
    },
    {
      "inputs": [
        {
          "internalType": "string",
          "name": "_projectName",
          "type": "string"
        },
        {
          "internalType": "bool",
          "name": "changesOrChangeProposals",
          "type": "bool"
        }
      ],
      "name": "getChangesOrProposals",
      "outputs": [
        {
          "internalType": "string[]",
          "name": "",
          "type": "string[]"
        }
      ],
      "stateMutability": "view",
      "type": "function",
      "constant": true
    },
    {
      "inputs": [
        {
          "internalType": "string",
          "name": "projectName",
          "type": "string"
        }
      ],
      "name": "getLastDistriubtionTime",
      "outputs": [
        {
          "internalType": "uint256",
          "name": "",
          "type": "uint256"
        }
      ],
      "stateMutability": "view",
      "type": "function",
      "constant": true
    },
    {
      "inputs": [],
      "name": "getLastProjects",
      "outputs": [
        {
          "internalType": "string[]",
          "name": "",
          "type": "string[]"
        }
      ],
      "stateMutability": "view",
      "type": "function",
      "constant": true
    },
    {
      "inputs": [
        {
          "internalType": "address",
          "name": "usr",
          "type": "address"
        },
        {
          "internalType": "string",
          "name": "projectName",
          "type": "string"
        }
      ],
      "name": "getPendingTokens",
      "outputs": [
        {
          "internalType": "uint256",
          "name": "",
          "type": "uint256"
        }
      ],
      "stateMutability": "view",
      "type": "function",
      "constant": true
    },
    {
      "inputs": [],
      "name": "owner",
      "outputs": [
        {
          "internalType": "address",
          "name": "",
          "type": "address"
        }
      ],
      "stateMutability": "view",
      "type": "function",
      "constant": true
    },
    {
      "inputs": [],
      "name": "renounceOwnership",
      "outputs": [],
      "stateMutability": "nonpayable",
      "type": "function"
    },
    {
      "inputs": [],
      "name": "token",
      "outputs": [
        {
          "internalType": "contract ProjectsToken",
          "name": "",
          "type": "address"
        }
      ],
      "stateMutability": "view",
      "type": "function",
      "constant": true
    },
    {
      "inputs": [
        {
          "internalType": "address",
          "name": "newOwner",
          "type": "address"
        }
      ],
      "name": "transferOwnership",
      "outputs": [],
      "stateMutability": "nonpayable",
      "type": "function"
    },
    {
      "inputs": [
        {
          "internalType": "string",
          "name": "_changeProposalCID",
          "type": "string"
        },
        {
          "internalType": "string",
          "name": "_projectName",
          "type": "string"
        }
      ],
      "name": "voteForChangeProposal",
      "outputs": [],
      "stateMutability": "nonpayable",
      "type": "function"
    },
    {
      "inputs": [
        {
          "internalType": "address",
          "name": "usr",
          "type": "address"
        },
        {
          "internalType": "string",
          "name": "projectName",
          "type": "string"
        }
      ],
      "name": "getDistributionBalanceOf",
      "outputs": [
        {
          "internalType": "uint256",
          "name": "",
          "type": "uint256"
        }
      ],
      "stateMutability": "view",
      "type": "function",
      "constant": true
    },
    {
      "inputs": [
        {
          "internalType": "address[]",
          "name": "recipients",
          "type": "address[]"
        },
        {
          "internalType": "uint256[]",
          "name": "amounts",
          "type": "uint256[]"
        },
        {
          "internalType": "string",
          "name": "projectName",
          "type": "string"
        }
      ],
      "name": "distribute",
      "outputs": [],
      "stateMutability": "nonpayable",
      "type": "function"
    },
    {
      "inputs": [
        {
          "internalType": "string",
          "name": "projectName",
          "type": "string"
        }
      ],
      "name": "startDistribution",
      "outputs": [],
      "stateMutability": "nonpayable",
      "type": "function"
    },
    {
      "inputs": [
        {
          "internalType": "string",
          "name": "projectName",
          "type": "string"
        }
      ],
      "name": "claimPendingTokens",
      "outputs": [],
      "stateMutability": "nonpayable",
      "type": "function"
    }
  ],
  "bytecode": "0x60806040523480156200001157600080fd5b50604051620051b6380380620051b68339818101604052810190620000379190620001d9565b8080600260006101000a81548173ffffffffffffffffffffffffffffffffffffffff021916908373ffffffffffffffffffffffffffffffffffffffff160217905550506200009a6200008e620000a160201b60201c565b620000a960201b60201c565b506200020b565b600033905090565b6000600360009054906101000a900473ffffffffffffffffffffffffffffffffffffffff16905081600360006101000a81548173ffffffffffffffffffffffffffffffffffffffff021916908373ffffffffffffffffffffffffffffffffffffffff1602179055508173ffffffffffffffffffffffffffffffffffffffff168173ffffffffffffffffffffffffffffffffffffffff167f8be0079c531659141344cd1fd0a4f28419497f9722a3daafe3b4186f6b6457e060405160405180910390a35050565b600080fd5b600073ffffffffffffffffffffffffffffffffffffffff82169050919050565b6000620001a18262000174565b9050919050565b620001b38162000194565b8114620001bf57600080fd5b50565b600081519050620001d381620001a8565b92915050565b600060208284031215620001f257620001f16200016f565b5b60006200020284828501620001c2565b91505092915050565b614f9b806200021b6000396000f3fe608060405234801561001057600080fd5b50600436106101585760003560e01c80637ec15674116100c3578063a90d00cd1161007c578063a90d00cd146103d7578063c4687fb814610407578063ed0c2d9014610423578063f2fde38b1461043f578063f396530f1461045b578063fc0c546a1461047757610158565b80637ec156741461032b5780638d1446fc146103475780638da5cb5b146103635780639f6806ec14610381578063a54d804d1461039d578063a5635963146103bb57610158565b806351e684ba1161011557806351e684ba1461027d578063546969931461029b5780636bd06204146102cb578063715018a6146102e7578063750354d2146102f15780637a5945da1461030d57610158565b80631d7147d81461015d5780631dd7cecf1461018d57806333846eba146101bd57806339b64c30146101ed57806347d8899a1461021d57806349b7b6401461024d575b600080fd5b61017760048036038101906101729190613403565b610495565b60405161018491906135be565b60405180910390f35b6101a760048036038101906101a2919061363e565b6106ae565b6040516101b491906136b7565b60405180910390f35b6101d760048036038101906101d29190613802565b6108ba565b6040516101e491906136b7565b60405180910390f35b6102076004803603810190610202919061384b565b6108e8565b6040516102149190613956565b60405180910390f35b6102376004803603810190610232919061384b565b610afe565b60405161024491906136b7565b60405180910390f35b6102676004803603810190610262919061363e565b610c97565b60405161027491906136b7565b60405180910390f35b610285611067565b60405161029291906136b7565b60405180910390f35b6102b560048036038101906102b0919061363e565b61106c565b6040516102c291906136b7565b60405180910390f35b6102e560048036038101906102e09190613978565b611243565b005b6102ef61140b565b005b61030b600480360381019061030691906139f0565b61141f565b005b610315611949565b60405161032291906136b7565b60405180910390f35b6103456004803603810190610340919061384b565b61194f565b005b610361600480360381019061035c91906139f0565b611b91565b005b61036b611f1f565b6040516103789190613a7b565b60405180910390f35b61039b60048036038101906103969190613c48565b611f49565b005b6103a5612340565b6040516103b291906135be565b60405180910390f35b6103d560048036038101906103d091906139f0565b6124de565b005b6103f160048036038101906103ec9190613cf4565b6126b3565b6040516103fe9190613a7b565b60405180910390f35b610421600480360381019061041c9190613d75565b6128ca565b005b61043d600480360381019061043891906139f0565b612b02565b005b61045960048036038101906104549190613df1565b612d3a565b005b6104756004803603810190610470919061384b565b612dbd565b005b61047f6130eb565b60405161048c9190613e7d565b60405180910390f35b606083838080601f016020809104026020016040519081016040528093929190818152602001838380828437600081840152601f19601f82011690508083019250505050505050600080826040516104ed9190613ed4565b9081526020016040518091039020549050600260009054906101000a900473ffffffffffffffffffffffffffffffffffffffff1673ffffffffffffffffffffffffffffffffffffffff16634f558e79826040518263ffffffff1660e01b815260040161055991906136b7565b602060405180830381865afa158015610576573d6000803e3d6000fd5b505050506040513d601f19601f8201168201806040525081019061059a9190613f00565b6105d9576040517f08c379a00000000000000000000000000000000000000000000000000000000081526004016105d090613f8a565b60405180910390fd5b60008087876040516105ec929190613fcf565b90815260200160405180910390205490506001818154811061061157610610613fe8565b5b90600052602060002090600a020160010173__ChangesLibrary________________________63e3e26be89091876040518363ffffffff1660e01b815260040161065c92919061402d565b600060405180830381865af4158015610679573d6000803e3d6000fd5b505050506040513d6000823e3d601f19601f820116820180604052508101906106a291906141a7565b93505050509392505050565b600082828080601f016020809104026020016040519081016040528093929190818152602001838380828437600081840152601f19601f82011690508083019250505050505050600080826040516107069190613ed4565b9081526020016040518091039020549050600260009054906101000a900473ffffffffffffffffffffffffffffffffffffffff1673ffffffffffffffffffffffffffffffffffffffff16634f558e79826040518263ffffffff1660e01b815260040161077291906136b7565b602060405180830381865afa15801561078f573d6000803e3d6000fd5b505050506040513d601f19601f820116820180604052508101906107b39190613f00565b6107f2576040517f08c379a00000000000000000000000000000000000000000000000000000000081526004016107e990613f8a565b60405180910390fd5b600260009054906101000a900473ffffffffffffffffffffffffffffffffffffffff1673ffffffffffffffffffffffffffffffffffffffff1662fdd58e8760008888604051610842929190613fcf565b9081526020016040518091039020546040518363ffffffff1660e01b815260040161086e9291906141f0565b602060405180830381865afa15801561088b573d6000803e3d6000fd5b505050506040513d601f19601f820116820180604052508101906108af919061422e565b925050509392505050565b6000818051602081018201805184825260208301602085012081835280955050505050506000915090505481565b606082828080601f016020809104026020016040519081016040528093929190818152602001838380828437600081840152601f19601f82011690508083019250505050505050600080826040516109409190613ed4565b9081526020016040518091039020549050600260009054906101000a900473ffffffffffffffffffffffffffffffffffffffff1673ffffffffffffffffffffffffffffffffffffffff16634f558e79826040518263ffffffff1660e01b81526004016109ac91906136b7565b602060405180830381865afa1580156109c9573d6000803e3d6000fd5b505050506040513d601f19601f820116820180604052508101906109ed9190613f00565b610a2c576040517f08c379a0000000000000000000000000000000000000000000000000000000008152600401610a2390613f8a565b60405180910390fd5b6000808686604051610a3f929190613fcf565b908152602001604051809103902054905060018181548110610a6457610a63613fe8565b5b90600052602060002090600a020160010173__ChangesLibrary________________________635a45338590916040518263ffffffff1660e01b8152600401610aad919061425b565b600060405180830381865af4158015610aca573d6000803e3d6000fd5b505050506040513d6000823e3d601f19601f82011682018060405250810190610af39190614322565b935050505092915050565b600082828080601f016020809104026020016040519081016040528093929190818152602001838380828437600081840152601f19601f8201169050808301925050505050505060008082604051610b569190613ed4565b9081526020016040518091039020549050600260009054906101000a900473ffffffffffffffffffffffffffffffffffffffff1673ffffffffffffffffffffffffffffffffffffffff16634f558e79826040518263ffffffff1660e01b8152600401610bc291906136b7565b602060405180830381865afa158015610bdf573d6000803e3d6000fd5b505050506040513d601f19601f82011682018060405250810190610c039190613f00565b610c42576040517f08c379a0000000000000000000000000000000000000000000000000000000008152600401610c3990613f8a565b60405180910390fd5b6000808686604051610c55929190613fcf565b908152602001604051809103902054905060018181548110610c7a57610c79613fe8565b5b90600052602060002090600a020160050154935050505092915050565b600082828080601f016020809104026020016040519081016040528093929190818152602001838380828437600081840152601f19601f8201169050808301925050505050505060008082604051610cef9190613ed4565b9081526020016040518091039020549050600260009054906101000a900473ffffffffffffffffffffffffffffffffffffffff1673ffffffffffffffffffffffffffffffffffffffff16634f558e79826040518263ffffffff1660e01b8152600401610d5b91906136b7565b602060405180830381865afa158015610d78573d6000803e3d6000fd5b505050506040513d601f19601f82011682018060405250810190610d9c9190613f00565b610ddb576040517f08c379a0000000000000000000000000000000000000000000000000000000008152600401610dd290613f8a565b60405180910390fd5b6000808686604051610dee929190613fcf565b9081526020016040518091039020549050600060018281548110610e1557610e14613fe8565b5b90600052602060002090600a02016005015490506000600260009054906101000a900473ffffffffffffffffffffffffffffffffffffffff1673ffffffffffffffffffffffffffffffffffffffff1662fdd58e8a856040518363ffffffff1660e01b8152600401610e879291906141f0565b602060405180830381865afa158015610ea4573d6000803e3d6000fd5b505050506040513d601f19601f82011682018060405250810190610ec8919061422e565b90506000600260009054906101000a900473ffffffffffffffffffffffffffffffffffffffff1673ffffffffffffffffffffffffffffffffffffffff1663bd85b039856040518263ffffffff1660e01b8152600401610f2791906136b7565b602060405180830381865afa158015610f44573d6000803e3d6000fd5b505050506040513d601f19601f82011682018060405250810190610f68919061422e565b606483610f75919061439a565b610f7f9190614423565b905060008103610f9657600096505050505061105e565b60648160018681548110610fad57610fac613fe8565b5b90600052602060002090600a020160060154610fc9919061439a565b610fd39190614423565b905060018481548110610fe957610fe8613fe8565b5b90600052602060002090600a020160080160008b73ffffffffffffffffffffffffffffffffffffffff1673ffffffffffffffffffffffffffffffffffffffff168152602001908152602001600020600084815260200190815260200160002054816110549190614454565b9050809650505050505b50509392505050565b607881565b600082828080601f016020809104026020016040519081016040528093929190818152602001838380828437600081840152601f19601f82011690508083019250505050505050600080826040516110c49190613ed4565b9081526020016040518091039020549050600260009054906101000a900473ffffffffffffffffffffffffffffffffffffffff1673ffffffffffffffffffffffffffffffffffffffff16634f558e79826040518263ffffffff1660e01b815260040161113091906136b7565b602060405180830381865afa15801561114d573d6000803e3d6000fd5b505050506040513d601f19601f820116820180604052508101906111719190613f00565b6111b0576040517f08c379a00000000000000000000000000000000000000000000000000000000081526004016111a790613f8a565b60405180910390fd5b60008086866040516111c3929190613fcf565b9081526020016040518091039020549050600181815481106111e8576111e7613fe8565b5b90600052602060002090600a020160070160008873ffffffffffffffffffffffffffffffffffffffff1673ffffffffffffffffffffffffffffffffffffffff1681526020019081526020016000205493505050509392505050565b600060018054905090508060008360405161125e9190613ed4565b908152602001604051809103902081905550600260009054906101000a900473ffffffffffffffffffffffffffffffffffffffff1673ffffffffffffffffffffffffffffffffffffffff1663156e29f6338360646040518463ffffffff1660e01b81526004016112d0939291906144c3565b600060405180830381600087803b1580156112ea57600080fd5b505af11580156112fe573d6000803e3d6000fd5b505050506000600180816001815401808255809150500390600052602060002090600a020190508281600001908051906020019061133d9291906132af565b508060010173__ChangesLibrary________________________63aaff905a9091866040518363ffffffff1660e01b815260040161137c929190614544565b60006040518083038186803b15801561139457600080fd5b505af41580156113a8573d6000803e3d6000fd5b5050505060648160060181905550610258426113c49190614574565b81600501819055507fe224389b386caecb8e3b38edc39361c7227e3ef820a8276bc31ac9cf1ba69fcd83836040516113fd92919061464f565b60405180910390a150505050565b611413613111565b61141d600061318f565b565b81818080601f016020809104026020016040519081016040528093929190818152602001838380828437600081840152601f19601f82011690508083019250505050505050600080826040516114759190613ed4565b9081526020016040518091039020549050600260009054906101000a900473ffffffffffffffffffffffffffffffffffffffff1673ffffffffffffffffffffffffffffffffffffffff16634f558e79826040518263ffffffff1660e01b81526004016114e191906136b7565b602060405180830381865afa1580156114fe573d6000803e3d6000fd5b505050506040513d601f19601f820116820180604052508101906115229190613f00565b611561576040517f08c379a000000000000000000000000000000000000000000000000000000000815260040161155890613f8a565b60405180910390fd5b6000808585604051611574929190613fcf565b9081526020016040518091039020549050600015156001828154811061159d5761159c613fe8565b5b90600052602060002090600a0201600901876040516115bc9190613ed4565b908152602001604051809103902060003373ffffffffffffffffffffffffffffffffffffffff1673ffffffffffffffffffffffffffffffffffffffff16815260200190815260200160002060009054906101000a900460ff16151514611657576040517f08c379a000000000000000000000000000000000000000000000000000000000815260040161164e906146de565b60405180910390fd5b6000600260009054906101000a900473ffffffffffffffffffffffffffffffffffffffff1673ffffffffffffffffffffffffffffffffffffffff1662fdd58e33846040518363ffffffff1660e01b81526004016116b59291906141f0565b602060405180830381865afa1580156116d2573d6000803e3d6000fd5b505050506040513d601f19601f820116820180604052508101906116f6919061422e565b90506000811161173b576040517f08c379a00000000000000000000000000000000000000000000000000000000081526004016117329061474a565b60405180910390fd5b6001828154811061174f5761174e613fe8565b5b90600052602060002090600a020160010173__ChangesLibrary________________________637dba11cb909189846040518463ffffffff1660e01b815260040161179c93929190614779565b60006040518083038186803b1580156117b457600080fd5b505af41580156117c8573d6000803e3d6000fd5b5050505060018083815481106117e1576117e0613fe8565b5b90600052602060002090600a0201600901886040516118009190613ed4565b908152602001604051809103902060003373ffffffffffffffffffffffffffffffffffffffff1673ffffffffffffffffffffffffffffffffffffffff16815260200190815260200160002060006101000a81548160ff0219169083151502179055507f0defd832aa647eb845ac2ed5e414ba9da1d13d7c3b2028fea20853913891174d868689336001878154811061189b5761189a613fe8565b5b90600052602060002090600a020160010173__ChangesLibrary________________________63ca5451d290918e6040518363ffffffff1660e01b81526004016118e6929190614544565b602060405180830381865af4158015611903573d6000803e3d6000fd5b505050506040513d601f19601f82011682018060405250810190611927919061422e565b604051611938959493929190614830565b60405180910390a150505050505050565b61025881565b81818080601f016020809104026020016040519081016040528093929190818152602001838380828437600081840152601f19601f82011690508083019250505050505050600080826040516119a59190613ed4565b9081526020016040518091039020549050600260009054906101000a900473ffffffffffffffffffffffffffffffffffffffff1673ffffffffffffffffffffffffffffffffffffffff16634f558e79826040518263ffffffff1660e01b8152600401611a1191906136b7565b602060405180830381865afa158015611a2e573d6000803e3d6000fd5b505050506040513d601f19601f82011682018060405250810190611a529190613f00565b611a91576040517f08c379a0000000000000000000000000000000000000000000000000000000008152600401611a8890613f8a565b60405180910390fd5b6000808585604051611aa4929190613fcf565b9081526020016040518091039020549050607860018281548110611acb57611aca613fe8565b5b90600052602060002090600a020160050154611ae79190614574565b4210611b28576040517f08c379a0000000000000000000000000000000000000000000000000000000008152600401611b1f906148e4565b60405180910390fd5b606460018281548110611b3e57611b3d613fe8565b5b90600052602060002090600a02016006018190555061025842611b619190614574565b60018281548110611b7557611b74613fe8565b5b90600052602060002090600a0201600501819055505050505050565b81818080601f016020809104026020016040519081016040528093929190818152602001838380828437600081840152601f19601f8201169050808301925050505050505060008082604051611be79190613ed4565b9081526020016040518091039020549050600260009054906101000a900473ffffffffffffffffffffffffffffffffffffffff1673ffffffffffffffffffffffffffffffffffffffff16634f558e79826040518263ffffffff1660e01b8152600401611c5391906136b7565b602060405180830381865afa158015611c70573d6000803e3d6000fd5b505050506040513d601f19601f82011682018060405250810190611c949190613f00565b611cd3576040517f08c379a0000000000000000000000000000000000000000000000000000000008152600401611cca90613f8a565b60405180910390fd5b6000808585604051611ce6929190613fcf565b908152602001604051809103902054905060018181548110611d0b57611d0a613fe8565b5b90600052602060002090600a020160010173__ChangesLibrary________________________636de060a8909188600260009054906101000a900473ffffffffffffffffffffffffffffffffffffffff1673ffffffffffffffffffffffffffffffffffffffff1662fdd58e3360008c8c604051611d89929190613fcf565b9081526020016040518091039020546040518363ffffffff1660e01b8152600401611db59291906141f0565b602060405180830381865afa158015611dd2573d6000803e3d6000fd5b505050506040513d601f19601f82011682018060405250810190611df6919061422e565b6040518463ffffffff1660e01b8152600401611e1493929190614779565b60006040518083038186803b158015611e2c57600080fd5b505af4158015611e40573d6000803e3d6000fd5b505050506001808281548110611e5957611e58613fe8565b5b90600052602060002090600a020160090187604051611e789190613ed4565b908152602001604051809103902060003373ffffffffffffffffffffffffffffffffffffffff1673ffffffffffffffffffffffffffffffffffffffff16815260200190815260200160002060006101000a81548160ff0219169083151502179055507f7b7acf540aac5e16ce3dfbd4d106c203a301da603c18502d179f60282962e5c485858884604051611f0f949392919061499c565b60405180910390a1505050505050565b6000600360009054906101000a900473ffffffffffffffffffffffffffffffffffffffff16905090565b81818080601f016020809104026020016040519081016040528093929190818152602001838380828437600081840152601f19601f8201169050808301925050505050505060008082604051611f9f9190613ed4565b9081526020016040518091039020549050600260009054906101000a900473ffffffffffffffffffffffffffffffffffffffff1673ffffffffffffffffffffffffffffffffffffffff16634f558e79826040518263ffffffff1660e01b815260040161200b91906136b7565b602060405180830381865afa158015612028573d6000803e3d6000fd5b505050506040513d601f19601f8201168201806040525081019061204c9190613f00565b61208b576040517f08c379a000000000000000000000000000000000000000000000000000000000815260040161208290613f8a565b60405180910390fd5b600080858560405161209e929190613fcf565b908152602001604051809103902054905060006120ba87613255565b90508651885114612100576040517f08c379a00000000000000000000000000000000000000000000000000000000081526004016120f790614a42565b60405180910390fd5b426001838154811061211557612114613fe8565b5b90600052602060002090600a02016005015411612167576040517f08c379a000000000000000000000000000000000000000000000000000000000815260040161215e90614aae565b60405180910390fd5b612172338787610c97565b8111156121b4576040517f08c379a00000000000000000000000000000000000000000000000000000000081526004016121ab90614b1a565b60405180910390fd5b6000600183815481106121ca576121c9613fe8565b5b90600052602060002090600a020160050154905060005b89518110156122aa578881815181106121fd576121fc613fe8565b5b60200260200101516001858154811061221957612218613fe8565b5b90600052602060002090600a020160070160008c848151811061223f5761223e613fe8565b5b602002602001015173ffffffffffffffffffffffffffffffffffffffff1673ffffffffffffffffffffffffffffffffffffffff16815260200190815260200160002060008282546122909190614574565b9250508190555080806122a290614b3a565b9150506121e1565b5081600184815481106122c0576122bf613fe8565b5b90600052602060002090600a020160080160003373ffffffffffffffffffffffffffffffffffffffff1673ffffffffffffffffffffffffffffffffffffffff1681526020019081526020016000206000838152602001908152602001600020600082825461232e9190614574565b92505081905550505050505050505050565b60606000600180549050905060006001805490509050600a82111561236457600a91505b60008267ffffffffffffffff8111156123805761237f6136d7565b5b6040519080825280602002602001820160405280156123b357816020015b606081526020019060019003908161239e5790505b509050600060018054905011156124d557600083836123d29190614454565b90505b828110156124d357600181815481106123f1576123f0613fe8565b5b90600052602060002090600a0201600001805461240d90614bb1565b80601f016020809104026020016040519081016040528092919081815260200182805461243990614bb1565b80156124865780601f1061245b57610100808354040283529160200191612486565b820191906000526020600020905b81548152906001019060200180831161246957829003601f168201915b5050505050828260018661249a9190614454565b6124a49190614454565b815181106124b5576124b4613fe8565b5b602002602001018190525080806124cb90614b3a565b9150506123d5565b505b80935050505090565b60008083836040516124f1929190613fcf565b90815260200160405180910390205490506001818154811061251657612515613fe8565b5b90600052602060002090600a020160040160405180606001604052808681526020013373ffffffffffffffffffffffffffffffffffffffff168152602001600260009054906101000a900473ffffffffffffffffffffffffffffffffffffffff1673ffffffffffffffffffffffffffffffffffffffff1662fdd58e33600089896040516125a4929190613fcf565b9081526020016040518091039020546040518363ffffffff1660e01b81526004016125d09291906141f0565b602060405180830381865afa1580156125ed573d6000803e3d6000fd5b505050506040513d601f19601f82011682018060405250810190612611919061422e565b815250908060018154018082558091505060019003906000526020600020906003020160009091909190915060008201518160000190805190602001906126599291906132af565b5060208201518160010160006101000a81548173ffffffffffffffffffffffffffffffffffffffff021916908373ffffffffffffffffffffffffffffffffffffffff16021790555060408201518160020155505050505050565b600084848080601f016020809104026020016040519081016040528093929190818152602001838380828437600081840152601f19601f820116905080830192505050505050506000808260405161270b9190613ed4565b9081526020016040518091039020549050600260009054906101000a900473ffffffffffffffffffffffffffffffffffffffff1673ffffffffffffffffffffffffffffffffffffffff16634f558e79826040518263ffffffff1660e01b815260040161277791906136b7565b602060405180830381865afa158015612794573d6000803e3d6000fd5b505050506040513d601f19601f820116820180604052508101906127b89190613f00565b6127f7576040517f08c379a00000000000000000000000000000000000000000000000000000000081526004016127ee90613f8a565b60405180910390fd5b600080888860405161280a929190613fcf565b90815260200160405180910390205490506001818154811061282f5761282e613fe8565b5b90600052602060002090600a020160010173__ChangesLibrary________________________631ecd7085909188886040518463ffffffff1660e01b815260040161287c93929190614c0f565b602060405180830381865af4158015612899573d6000803e3d6000fd5b505050506040513d601f19601f820116820180604052508101906128bd9190614c41565b9350505050949350505050565b82828080601f016020809104026020016040519081016040528093929190818152602001838380828437600081840152601f19601f82011690508083019250505050505050600080826040516129209190613ed4565b9081526020016040518091039020549050600260009054906101000a900473ffffffffffffffffffffffffffffffffffffffff1673ffffffffffffffffffffffffffffffffffffffff16634f558e79826040518263ffffffff1660e01b815260040161298c91906136b7565b602060405180830381865afa1580156129a9573d6000803e3d6000fd5b505050506040513d601f19601f820116820180604052508101906129cd9190613f00565b612a0c576040517f08c379a0000000000000000000000000000000000000000000000000000000008152600401612a0390613f8a565b60405180910390fd5b6000808686604051612a1f929190613fcf565b908152602001604051809103902054905060018181548110612a4457612a43613fe8565b5b90600052602060002090600a020160010173__ChangesLibrary________________________637cbb44f99091866040518363ffffffff1660e01b8152600401612a8f929190614544565b60006040518083038186803b158015612aa757600080fd5b505af4158015612abb573d6000803e3d6000fd5b505050507f718a982b61bc723a0c68281b0eb10e1cff37bd89888841ae545c98cd5493a056848787604051612af293929190614cba565b60405180910390a1505050505050565b81818080601f016020809104026020016040519081016040528093929190818152602001838380828437600081840152601f19601f8201169050808301925050505050505060008082604051612b589190613ed4565b9081526020016040518091039020549050600260009054906101000a900473ffffffffffffffffffffffffffffffffffffffff1673ffffffffffffffffffffffffffffffffffffffff16634f558e79826040518263ffffffff1660e01b8152600401612bc491906136b7565b602060405180830381865afa158015612be1573d6000803e3d6000fd5b505050506040513d601f19601f82011682018060405250810190612c059190613f00565b612c44576040517f08c379a0000000000000000000000000000000000000000000000000000000008152600401612c3b90613f8a565b60405180910390fd5b6000808585604051612c57929190613fcf565b908152602001604051809103902054905060018181548110612c7c57612c7b613fe8565b5b90600052602060002090600a020160010173__ChangesLibrary________________________636b6b15cc9091886040518363ffffffff1660e01b8152600401612cc7929190614544565b60006040518083038186803b158015612cdf57600080fd5b505af4158015612cf3573d6000803e3d6000fd5b505050507fa59a33e81abf86b25a561f609013d867f28b3c0cbc2cdf98e852b0c0c041eb6c858588604051612d2a93929190614d78565b60405180910390a1505050505050565b612d42613111565b600073ffffffffffffffffffffffffffffffffffffffff168173ffffffffffffffffffffffffffffffffffffffff1603612db1576040517f08c379a0000000000000000000000000000000000000000000000000000000008152600401612da890614e36565b60405180910390fd5b612dba8161318f565b50565b81818080601f016020809104026020016040519081016040528093929190818152602001838380828437600081840152601f19601f8201169050808301925050505050505060008082604051612e139190613ed4565b9081526020016040518091039020549050600260009054906101000a900473ffffffffffffffffffffffffffffffffffffffff1673ffffffffffffffffffffffffffffffffffffffff16634f558e79826040518263ffffffff1660e01b8152600401612e7f91906136b7565b602060405180830381865afa158015612e9c573d6000803e3d6000fd5b505050506040513d601f19601f82011682018060405250810190612ec09190613f00565b612eff576040517f08c379a0000000000000000000000000000000000000000000000000000000008152600401612ef690613f8a565b60405180910390fd5b6000808585604051612f12929190613fcf565b908152602001604051809103902054905060018181548110612f3757612f36613fe8565b5b90600052602060002090600a020160050154421015612f8b576040517f08c379a0000000000000000000000000000000000000000000000000000000008152600401612f8290614ea2565b60405180910390fd5b600260009054906101000a900473ffffffffffffffffffffffffffffffffffffffff1673ffffffffffffffffffffffffffffffffffffffff1663156e29f6338360018581548110612fdf57612fde613fe8565b5b90600052602060002090600a020160070160003373ffffffffffffffffffffffffffffffffffffffff1673ffffffffffffffffffffffffffffffffffffffff168152602001908152602001600020546040518463ffffffff1660e01b815260040161304c93929190614ec2565b600060405180830381600087803b15801561306657600080fd5b505af115801561307a573d6000803e3d6000fd5b505050506001818154811061309257613091613fe8565b5b90600052602060002090600a020160070160003373ffffffffffffffffffffffffffffffffffffffff1673ffffffffffffffffffffffffffffffffffffffff168152602001908152602001600020600090555050505050565b600260009054906101000a900473ffffffffffffffffffffffffffffffffffffffff1681565b6131196132a7565b73ffffffffffffffffffffffffffffffffffffffff16613137611f1f565b73ffffffffffffffffffffffffffffffffffffffff161461318d576040517f08c379a000000000000000000000000000000000000000000000000000000000815260040161318490614f45565b60405180910390fd5b565b6000600360009054906101000a900473ffffffffffffffffffffffffffffffffffffffff16905081600360006101000a81548173ffffffffffffffffffffffffffffffffffffffff021916908373ffffffffffffffffffffffffffffffffffffffff1602179055508173ffffffffffffffffffffffffffffffffffffffff168173ffffffffffffffffffffffffffffffffffffffff167f8be0079c531659141344cd1fd0a4f28419497f9722a3daafe3b4186f6b6457e060405160405180910390a35050565b600080600090505b82518110156132a15782818151811061327957613278613fe8565b5b60200260200101518261328c9190614574565b9150808061329990614b3a565b91505061325d565b50919050565b600033905090565b8280546132bb90614bb1565b90600052602060002090601f0160209004810192826132dd5760008555613324565b82601f106132f657805160ff1916838001178555613324565b82800160010185558215613324579182015b82811115613323578251825591602001919060010190613308565b5b5090506133319190613335565b5090565b5b8082111561334e576000816000905550600101613336565b5090565b6000604051905090565b600080fd5b600080fd5b600080fd5b600080fd5b600080fd5b60008083601f84011261338b5761338a613366565b5b8235905067ffffffffffffffff8111156133a8576133a761336b565b5b6020830191508360018202830111156133c4576133c3613370565b5b9250929050565b60008115159050919050565b6133e0816133cb565b81146133eb57600080fd5b50565b6000813590506133fd816133d7565b92915050565b60008060006040848603121561341c5761341b61335c565b5b600084013567ffffffffffffffff81111561343a57613439613361565b5b61344686828701613375565b93509350506020613459868287016133ee565b9150509250925092565b600081519050919050565b600082825260208201905092915050565b6000819050602082019050919050565b600081519050919050565b600082825260208201905092915050565b60005b838110156134c95780820151818401526020810190506134ae565b838111156134d8576000848401525b50505050565b6000601f19601f8301169050919050565b60006134fa8261348f565b613504818561349a565b93506135148185602086016134ab565b61351d816134de565b840191505092915050565b600061353483836134ef565b905092915050565b6000602082019050919050565b600061355482613463565b61355e818561346e565b9350836020820285016135708561347f565b8060005b858110156135ac578484038952815161358d8582613528565b94506135988361353c565b925060208a01995050600181019050613574565b50829750879550505050505092915050565b600060208201905081810360008301526135d88184613549565b905092915050565b600073ffffffffffffffffffffffffffffffffffffffff82169050919050565b600061360b826135e0565b9050919050565b61361b81613600565b811461362657600080fd5b50565b60008135905061363881613612565b92915050565b6000806000604084860312156136575761365661335c565b5b600061366586828701613629565b935050602084013567ffffffffffffffff81111561368657613685613361565b5b61369286828701613375565b92509250509250925092565b6000819050919050565b6136b18161369e565b82525050565b60006020820190506136cc60008301846136a8565b92915050565b600080fd5b7f4e487b7100000000000000000000000000000000000000000000000000000000600052604160045260246000fd5b61370f826134de565b810181811067ffffffffffffffff8211171561372e5761372d6136d7565b5b80604052505050565b6000613741613352565b905061374d8282613706565b919050565b600067ffffffffffffffff82111561376d5761376c6136d7565b5b613776826134de565b9050602081019050919050565b82818337600083830152505050565b60006137a56137a084613752565b613737565b9050828152602081018484840111156137c1576137c06136d2565b5b6137cc848285613783565b509392505050565b600082601f8301126137e9576137e8613366565b5b81356137f9848260208601613792565b91505092915050565b6000602082840312156138185761381761335c565b5b600082013567ffffffffffffffff81111561383657613835613361565b5b613842848285016137d4565b91505092915050565b600080602083850312156138625761386161335c565b5b600083013567ffffffffffffffff8111156138805761387f613361565b5b61388c85828601613375565b92509250509250929050565b600081519050919050565b600082825260208201905092915050565b6000819050602082019050919050565b6138cd81613600565b82525050565b60006138df83836138c4565b60208301905092915050565b6000602082019050919050565b600061390382613898565b61390d81856138a3565b9350613918836138b4565b8060005b8381101561394957815161393088826138d3565b975061393b836138eb565b92505060018101905061391c565b5085935050505092915050565b6000602082019050818103600083015261397081846138f8565b905092915050565b6000806040838503121561398f5761398e61335c565b5b600083013567ffffffffffffffff8111156139ad576139ac613361565b5b6139b9858286016137d4565b925050602083013567ffffffffffffffff8111156139da576139d9613361565b5b6139e6858286016137d4565b9150509250929050565b600080600060408486031215613a0957613a0861335c565b5b600084013567ffffffffffffffff811115613a2757613a26613361565b5b613a33868287016137d4565b935050602084013567ffffffffffffffff811115613a5457613a53613361565b5b613a6086828701613375565b92509250509250925092565b613a7581613600565b82525050565b6000602082019050613a906000830184613a6c565b92915050565b600067ffffffffffffffff821115613ab157613ab06136d7565b5b602082029050602081019050919050565b6000613ad5613ad084613a96565b613737565b90508083825260208201905060208402830185811115613af857613af7613370565b5b835b81811015613b215780613b0d8882613629565b845260208401935050602081019050613afa565b5050509392505050565b600082601f830112613b4057613b3f613366565b5b8135613b50848260208601613ac2565b91505092915050565b600067ffffffffffffffff821115613b7457613b736136d7565b5b602082029050602081019050919050565b613b8e8161369e565b8114613b9957600080fd5b50565b600081359050613bab81613b85565b92915050565b6000613bc4613bbf84613b59565b613737565b90508083825260208201905060208402830185811115613be757613be6613370565b5b835b81811015613c105780613bfc8882613b9c565b845260208401935050602081019050613be9565b5050509392505050565b600082601f830112613c2f57613c2e613366565b5b8135613c3f848260208601613bb1565b91505092915050565b60008060008060608587031215613c6257613c6161335c565b5b600085013567ffffffffffffffff811115613c8057613c7f613361565b5b613c8c87828801613b2b565b945050602085013567ffffffffffffffff811115613cad57613cac613361565b5b613cb987828801613c1a565b935050604085013567ffffffffffffffff811115613cda57613cd9613361565b5b613ce687828801613375565b925092505092959194509250565b60008060008060408587031215613d0e57613d0d61335c565b5b600085013567ffffffffffffffff811115613d2c57613d2b613361565b5b613d3887828801613375565b9450945050602085013567ffffffffffffffff811115613d5b57613d5a613361565b5b613d6787828801613375565b925092505092959194509250565b600080600060408486031215613d8e57613d8d61335c565b5b600084013567ffffffffffffffff811115613dac57613dab613361565b5b613db886828701613375565b9350935050602084013567ffffffffffffffff811115613ddb57613dda613361565b5b613de7868287016137d4565b9150509250925092565b600060208284031215613e0757613e0661335c565b5b6000613e1584828501613629565b91505092915050565b6000819050919050565b6000613e43613e3e613e39846135e0565b613e1e565b6135e0565b9050919050565b6000613e5582613e28565b9050919050565b6000613e6782613e4a565b9050919050565b613e7781613e5c565b82525050565b6000602082019050613e926000830184613e6e565b92915050565b600081905092915050565b6000613eae8261348f565b613eb88185613e98565b9350613ec88185602086016134ab565b80840191505092915050565b6000613ee08284613ea3565b915081905092915050565b600081519050613efa816133d7565b92915050565b600060208284031215613f1657613f1561335c565b5b6000613f2484828501613eeb565b91505092915050565b600082825260208201905092915050565b7f50726f6a65637420646f206e6f74206578697374000000000000000000000000600082015250565b6000613f74601483613f2d565b9150613f7f82613f3e565b602082019050919050565b60006020820190508181036000830152613fa381613f67565b9050919050565b6000613fb68385613e98565b9350613fc3838584613783565b82840190509392505050565b6000613fdc828486613faa565b91508190509392505050565b7f4e487b7100000000000000000000000000000000000000000000000000000000600052603260045260246000fd5b8082525050565b614027816133cb565b82525050565b60006040820190506140426000830185614017565b61404f602083018461401e565b9392505050565b600067ffffffffffffffff821115614071576140706136d7565b5b602082029050602081019050919050565b600061409561409084613752565b613737565b9050828152602081018484840111156140b1576140b06136d2565b5b6140bc8482856134ab565b509392505050565b600082601f8301126140d9576140d8613366565b5b81516140e9848260208601614082565b91505092915050565b600061410561410084614056565b613737565b9050808382526020820190506020840283018581111561412857614127613370565b5b835b8181101561416f57805167ffffffffffffffff81111561414d5761414c613366565b5b80860161415a89826140c4565b8552602085019450505060208101905061412a565b5050509392505050565b600082601f83011261418e5761418d613366565b5b815161419e8482602086016140f2565b91505092915050565b6000602082840312156141bd576141bc61335c565b5b600082015167ffffffffffffffff8111156141db576141da613361565b5b6141e784828501614179565b91505092915050565b60006040820190506142056000830185613a6c565b61421260208301846136a8565b9392505050565b60008151905061422881613b85565b92915050565b6000602082840312156142445761424361335c565b5b600061425284828501614219565b91505092915050565b60006020820190506142706000830184614017565b92915050565b60008151905061428581613612565b92915050565b600061429e61429984613a96565b613737565b905080838252602082019050602084028301858111156142c1576142c0613370565b5b835b818110156142ea57806142d68882614276565b8452602084019350506020810190506142c3565b5050509392505050565b600082601f83011261430957614308613366565b5b815161431984826020860161428b565b91505092915050565b6000602082840312156143385761433761335c565b5b600082015167ffffffffffffffff81111561435657614355613361565b5b614362848285016142f4565b91505092915050565b7f4e487b7100000000000000000000000000000000000000000000000000000000600052601160045260246000fd5b60006143a58261369e565b91506143b08361369e565b9250817fffffffffffffffffffffffffffffffffffffffffffffffffffffffffffffffff04831182151516156143e9576143e861436b565b5b828202905092915050565b7f4e487b7100000000000000000000000000000000000000000000000000000000600052601260045260246000fd5b600061442e8261369e565b91506144398361369e565b925082614449576144486143f4565b5b828204905092915050565b600061445f8261369e565b915061446a8361369e565b92508282101561447d5761447c61436b565b5b828203905092915050565b6000819050919050565b60006144ad6144a86144a384614488565b613e1e565b61369e565b9050919050565b6144bd81614492565b82525050565b60006060820190506144d86000830186613a6c565b6144e560208301856136a8565b6144f260408301846144b4565b949350505050565b600082825260208201905092915050565b60006145168261348f565b61452081856144fa565b93506145308185602086016134ab565b614539816134de565b840191505092915050565b60006040820190506145596000830185614017565b818103602083015261456b818461450b565b90509392505050565b600061457f8261369e565b915061458a8361369e565b9250827fffffffffffffffffffffffffffffffffffffffffffffffffffffffffffffffff038211156145bf576145be61436b565b5b828201905092915050565b7f4e65772070726f6a656374206372656174656420776974682049443a00000000600082015250565b6000614600601c83613f2d565b915061460b826145ca565b602082019050919050565b60006146218261348f565b61462b8185613f2d565b935061463b8185602086016134ab565b614644816134de565b840191505092915050565b60006060820190508181036000830152614668816145f3565b9050818103602083015261467c8185614616565b905061468b60408301846136a8565b9392505050565b7f416c726561647920766f74656400000000000000000000000000000000000000600082015250565b60006146c8600d83613f2d565b91506146d382614692565b602082019050919050565b600060208201905081810360008301526146f7816146bb565b9050919050565b7f566f74696e6720706f77657220697320696e73756666696369656e7400000000600082015250565b6000614734601c83613f2d565b915061473f826146fe565b602082019050919050565b6000602082019050818103600083015261476381614727565b9050919050565b6147738161369e565b82525050565b600060608201905061478e6000830186614017565b81810360208301526147a0818561450b565b90506147af604083018461476a565b949350505050565b7f4e657720766f746520666f72206368616e67652070726f706f73616c3a000000600082015250565b60006147ed601d83613f2d565b91506147f8826147b7565b602082019050919050565b600061480f8385613f2d565b935061481c838584613783565b614825836134de565b840190509392505050565b600060a0820190508181036000830152614849816147e0565b9050818103602083015261485e818789614803565b905081810360408301526148728186614616565b90506148816060830185613a6c565b61488e60808301846136a8565b9695505050505050565b7f6e6f74207374617274696e6720646973747269627574696f6e2074696d650000600082015250565b60006148ce601e83613f2d565b91506148d982614898565b602082019050919050565b600060208201905081810360008301526148fd816148c1565b9050919050565b7f4e6577206368616e67652070726f706f73616c20746f207468652050726f6a6560008201527f6374207769746820746865206e616d6520616e6420666f6c6c6f77696e67204960208201527f4420616e64204349443a00000000000000000000000000000000000000000000604082015250565b6000614986604a83613f2d565b915061499182614904565b606082019050919050565b600060808201905081810360008301526149b581614979565b905081810360208301526149ca818688614803565b905081810360408301526149de8185614616565b90506149ed60608301846136a8565b95945050505050565b7f6e6f742073616d6520616d6f756e7473206173206120726563657069656e7473600082015250565b6000614a2c602083613f2d565b9150614a37826149f6565b602082019050919050565b60006020820190508181036000830152614a5b81614a1f565b9050919050565b7f6e6f7420646973747269627574696f6e2074696d650000000000000000000000600082015250565b6000614a98601583613f2d565b9150614aa382614a62565b602082019050919050565b60006020820190508181036000830152614ac781614a8b565b9050919050565b7f556e737566666963656e7420616d6f756e74206f6620746f6b656e7300000000600082015250565b6000614b04601c83613f2d565b9150614b0f82614ace565b602082019050919050565b60006020820190508181036000830152614b3381614af7565b9050919050565b6000614b458261369e565b91507fffffffffffffffffffffffffffffffffffffffffffffffffffffffffffffffff8203614b7757614b7661436b565b5b600182019050919050565b7f4e487b7100000000000000000000000000000000000000000000000000000000600052602260045260246000fd5b60006002820490506001821680614bc957607f821691505b602082108103614bdc57614bdb614b82565b5b50919050565b6000614bee83856144fa565b9350614bfb838584613783565b614c04836134de565b840190509392505050565b6000604082019050614c246000830186614017565b8181036020830152614c37818486614be2565b9050949350505050565b600060208284031215614c5757614c5661335c565b5b6000614c6584828501614276565b91505092915050565b7f50726f6a656374206368616e67656420746f206368616e67653a200000000000600082015250565b6000614ca4601b83613f2d565b9150614caf82614c6e565b602082019050919050565b60006060820190508181036000830152614cd381614c97565b90508181036020830152614ce78186614616565b90508181036040830152614cfc818486614803565b9050949350505050565b7f41206e6577206368616e676520686173206265656e206d61646520746f20746860008201527f652070726f6a6563743a20000000000000000000000000000000000000000000602082015250565b6000614d62602b83613f2d565b9150614d6d82614d06565b604082019050919050565b60006060820190508181036000830152614d9181614d55565b90508181036020830152614da6818587614803565b90508181036040830152614dba8184614616565b9050949350505050565b7f4f776e61626c653a206e6577206f776e657220697320746865207a65726f206160008201527f6464726573730000000000000000000000000000000000000000000000000000602082015250565b6000614e20602683613f2d565b9150614e2b82614dc4565b604082019050919050565b60006020820190508181036000830152614e4f81614e13565b9050919050565b7f6e6f7420636c61696d696e672074696d65000000000000000000000000000000600082015250565b6000614e8c601183613f2d565b9150614e9782614e56565b602082019050919050565b60006020820190508181036000830152614ebb81614e7f565b9050919050565b6000606082019050614ed76000830186613a6c565b614ee460208301856136a8565b614ef160408301846136a8565b949350505050565b7f4f776e61626c653a2063616c6c6572206973206e6f7420746865206f776e6572600082015250565b6000614f2f602083613f2d565b9150614f3a82614ef9565b602082019050919050565b60006020820190508181036000830152614f5e81614f22565b905091905056fea26469706673582212206c1f6a5c25cc539956a521ccbf1e2e6bc030f275e6ee4e7af2109b8e47a43eae64736f6c634300080d0033",
  "immutableReferences": {},
  "source": "// SPDX-License-Identifier: MIT\npragma solidity ^0.8.13;\nimport \"./Projects.sol\";\nimport \"../node_modules/@openzeppelin/contracts/access/Ownable.sol\";\n\ncontract TokenDistribution is Projects, Ownable {\n\n    constructor(address _tokenAddress) Projects(_tokenAddress) {} \n\n    function sum(uint[] memory _tokens) internal pure returns(uint _sum) {\n\t\tfor (uint i = 0; i < _tokens.length; i++)\n\t\t\t_sum += _tokens[i];\n\t}\n\n\n    function getDistributionBalanceOf(\n        address usr, \n        string calldata projectName\n    ) public view ProjectExist(projectName) returns (uint) {\n        uint projectIDX = NameToID[projectName];\n        uint endDistributionTime = publicProjects[projectIDX].DistributionTime;\n        uint balanceOf = token.balanceOf(usr, projectIDX);\n\n        // calculate the proportion of tokens you have\n        uint tokens = (balanceOf * 100) / token.totalSupply(projectIDX);\n        if (tokens == 0) {\n            return 0;\n        }\n\n        tokens = (publicProjects[projectIDX].newTokens * tokens) / 100;\n        tokens -= publicProjects[projectIDX].TokensSpent[usr][endDistributionTime];\n        return tokens;\n    }\n\n\n    function distribute(\n        address[] memory recipients,\n        uint[] memory amounts,  \n        string calldata projectName\n    ) external ProjectExist(projectName) {\n        uint projectIDX = NameToID[projectName];\n        uint tokensToSpend = sum(amounts);\n\n        require(recipients.length == amounts.length, \"not same amounts as a recepients\");\n        require(publicProjects[projectIDX].DistributionTime > block.timestamp, \"not distribution time\");\n        require(tokensToSpend <= getDistributionBalanceOf(msg.sender, projectName), \"Unsufficent amount of tokens\");\n        \n        uint endDistributionTime = publicProjects[projectIDX].DistributionTime;\n\n        for (uint i=0; i<recipients.length; i++) {\n            publicProjects[projectIDX].pendingTokens[recipients[i]] += amounts[i];\n        }\n\n        publicProjects[projectIDX].TokensSpent[msg.sender][endDistributionTime] += tokensToSpend;\n    }\n\n\n    function startDistribution(\n        string calldata projectName\n    ) external ProjectExist(projectName) {\n        uint projectIDX = NameToID[projectName];\n        require(block.timestamp < publicProjects[projectIDX].DistributionTime + ClaimingInterval, \"not starting distribution time\");\n\n        publicProjects[projectIDX].newTokens = 100;\n        publicProjects[projectIDX].DistributionTime = block.timestamp + TimeLockInterval;\n    }\n\n    function claimPendingTokens(\n        string calldata projectName\n    ) external ProjectExist(projectName) {\n        uint projectIDX = NameToID[projectName];\n        require(block.timestamp >= publicProjects[projectIDX].DistributionTime, \"not claiming time\");\n        token.mint(msg.sender, projectIDX, publicProjects[projectIDX].pendingTokens[msg.sender]);\n        delete publicProjects[projectIDX].pendingTokens[msg.sender];\n    }\n}\n",
  "sourcePath": "c:\\Users\\User\\Desktop\\\\davidson\\project\\DavidsonProject\\Smart Contract\\contracts\\TokenDistribution.sol",
  "compiler": {
    "name": "solc",
    "version": "0.8.13+commit.abaa5c0e.Emscripten.clang"
  },
  "schemaVersion": "3.4.7",
  "updatedAt": "2024-04-11T16:15:25.939Z",
  "networkType": "ethereum",
  "devdoc": {
    "kind": "dev",
    "methods": {
      "owner()": {
        "details": "Returns the address of the current owner."
      },
      "renounceOwnership()": {
        "details": "Leaves the contract without owner. It will not be possible to call `onlyOwner` functions. Can only be called by the current owner. NOTE: Renouncing ownership will leave the contract without an owner, thereby disabling any functionality that is only available to the owner."
      },
      "transferOwnership(address)": {
        "details": "Transfers ownership of the contract to a new account (`newOwner`). Can only be called by the current owner."
      }
    },
    "version": 1
  },
  "userdoc": {
    "kind": "user",
    "methods": {},
    "version": 1
  }
}