{
  "contractName": "TokenDistribution",
  "abi": [
    {
      "inputs": [
        {
          "internalType": "address",
          "name": "_tokenAddress",
          "type": "address"
        }
      ],
      "stateMutability": "nonpayable",
      "type": "constructor"
    },
    {
      "anonymous": false,
      "inputs": [
        {
          "indexed": false,
          "internalType": "string",
          "name": "message",
          "type": "string"
        },
        {
          "indexed": false,
          "internalType": "string",
          "name": "projectName",
          "type": "string"
        },
        {
          "indexed": false,
          "internalType": "string",
          "name": "changeCID",
          "type": "string"
        }
      ],
      "name": "NewChangeIsMadeToProject",
      "type": "event"
    },
    {
      "anonymous": false,
      "inputs": [
        {
          "indexed": false,
          "internalType": "string",
          "name": "message",
          "type": "string"
        },
        {
          "indexed": false,
          "internalType": "string",
          "name": "Name",
          "type": "string"
        },
        {
          "indexed": false,
          "internalType": "string",
          "name": "CID",
          "type": "string"
        },
        {
          "indexed": false,
          "internalType": "uint256",
          "name": "indexValue",
          "type": "uint256"
        }
      ],
      "name": "NewChangeProposalCreated",
      "type": "event"
    },
    {
      "anonymous": false,
      "inputs": [
        {
          "indexed": false,
          "internalType": "string",
          "name": "message",
          "type": "string"
        },
        {
          "indexed": false,
          "internalType": "string",
          "name": "name",
          "type": "string"
        },
        {
          "indexed": false,
          "internalType": "uint256",
          "name": "value",
          "type": "uint256"
        }
      ],
      "name": "NewProjectCreated",
      "type": "event"
    },
    {
      "anonymous": false,
      "inputs": [
        {
          "indexed": false,
          "internalType": "string",
          "name": "message",
          "type": "string"
        },
        {
          "indexed": false,
          "internalType": "string",
          "name": "projectName",
          "type": "string"
        },
        {
          "indexed": false,
          "internalType": "string",
          "name": "changeProposalCID",
          "type": "string"
        },
        {
          "indexed": false,
          "internalType": "address",
          "name": "voter",
          "type": "address"
        },
        {
          "indexed": false,
          "internalType": "uint256",
          "name": "votes",
          "type": "uint256"
        }
      ],
      "name": "NewVoteForChangeProposal",
      "type": "event"
    },
    {
      "anonymous": false,
      "inputs": [
        {
          "indexed": true,
          "internalType": "address",
          "name": "previousOwner",
          "type": "address"
        },
        {
          "indexed": true,
          "internalType": "address",
          "name": "newOwner",
          "type": "address"
        }
      ],
      "name": "OwnershipTransferred",
      "type": "event"
    },
    {
      "anonymous": false,
      "inputs": [
        {
          "indexed": false,
          "internalType": "string",
          "name": "message",
          "type": "string"
        },
        {
          "indexed": false,
          "internalType": "string",
          "name": "changeCID",
          "type": "string"
        },
        {
          "indexed": false,
          "internalType": "string",
          "name": "ProjectName",
          "type": "string"
        }
      ],
      "name": "ProjectWentBack",
      "type": "event"
    },
    {
      "anonymous": false,
      "inputs": [
        {
          "indexed": false,
          "internalType": "string",
          "name": "message",
          "type": "string"
        },
        {
          "indexed": false,
          "internalType": "uint256",
          "name": "lastDistributionTime",
          "type": "uint256"
        }
      ],
      "name": "TokensDisributed",
      "type": "event"
    },
    {
      "inputs": [
        {
          "internalType": "string",
          "name": "_changeCID",
          "type": "string"
        },
        {
          "internalType": "string",
          "name": "_projectName",
          "type": "string"
        }
      ],
      "name": "MakeChangeProposal",
      "outputs": [],
      "stateMutability": "nonpayable",
      "type": "function"
    },
    {
      "inputs": [
        {
          "internalType": "string",
          "name": "_changeCID",
          "type": "string"
        },
        {
          "internalType": "string",
          "name": "_projectName",
          "type": "string"
        }
      ],
      "name": "MakeGoBackProposal",
      "outputs": [],
      "stateMutability": "nonpayable",
      "type": "function"
    },
    {
      "inputs": [
        {
          "internalType": "string",
          "name": "",
          "type": "string"
        }
      ],
      "name": "NameToID",
      "outputs": [
        {
          "internalType": "uint256",
          "name": "",
          "type": "uint256"
        }
      ],
      "stateMutability": "view",
      "type": "function",
      "constant": true
    },
    {
      "inputs": [],
      "name": "TimeLockInterval",
      "outputs": [
        {
          "internalType": "uint256",
          "name": "",
          "type": "uint256"
        }
      ],
      "stateMutability": "view",
      "type": "function",
      "constant": true
    },
    {
      "inputs": [
        {
          "internalType": "string",
          "name": "_proposedChangeCID",
          "type": "string"
        },
        {
          "internalType": "string",
          "name": "_projectName",
          "type": "string"
        }
      ],
      "name": "acceptChangeProposal",
      "outputs": [],
      "stateMutability": "nonpayable",
      "type": "function"
    },
    {
      "inputs": [
        {
          "internalType": "string",
          "name": "_projectName",
          "type": "string"
        },
        {
          "internalType": "string",
          "name": "_changeCID",
          "type": "string"
        }
      ],
      "name": "acceptGoBack",
      "outputs": [],
      "stateMutability": "nonpayable",
      "type": "function"
    },
    {
      "inputs": [
        {
          "internalType": "string",
          "name": "_CID",
          "type": "string"
        },
        {
          "internalType": "string",
          "name": "projectName",
          "type": "string"
        }
      ],
      "name": "createProject",
      "outputs": [],
      "stateMutability": "nonpayable",
      "type": "function"
    },
    {
      "inputs": [
        {
          "internalType": "string",
          "name": "_projectName",
          "type": "string"
        }
      ],
      "name": "getAddresses",
      "outputs": [
        {
          "internalType": "address[]",
          "name": "",
          "type": "address[]"
        }
      ],
      "stateMutability": "view",
      "type": "function",
      "constant": true
    },
    {
      "inputs": [
        {
          "internalType": "address",
          "name": "_UserAddress",
          "type": "address"
        },
        {
          "internalType": "string",
          "name": "_projectName",
          "type": "string"
        }
      ],
      "name": "getBalance",
      "outputs": [
        {
          "internalType": "uint256",
          "name": "",
          "type": "uint256"
        }
      ],
      "stateMutability": "view",
      "type": "function",
      "constant": true
    },
    {
      "inputs": [
        {
          "internalType": "string",
          "name": "_projectName",
          "type": "string"
        },
        {
          "internalType": "bool",
          "name": "changesOrChangeProposals",
          "type": "bool"
        }
      ],
      "name": "getChangesOrProposals",
      "outputs": [
        {
          "internalType": "string[]",
          "name": "",
          "type": "string[]"
        }
      ],
      "stateMutability": "view",
      "type": "function",
      "constant": true
    },
    {
      "inputs": [
        {
          "internalType": "string",
          "name": "projectName",
          "type": "string"
        }
      ],
      "name": "getLastDistriubtionTime",
      "outputs": [
        {
          "internalType": "uint256",
          "name": "",
          "type": "uint256"
        }
      ],
      "stateMutability": "view",
      "type": "function",
      "constant": true
    },
    {
      "inputs": [],
      "name": "getLastProjects",
      "outputs": [
        {
          "internalType": "string[]",
          "name": "",
          "type": "string[]"
        }
      ],
      "stateMutability": "view",
      "type": "function",
      "constant": true
    },
    {
      "inputs": [
        {
          "internalType": "address",
          "name": "usr",
          "type": "address"
        },
        {
          "internalType": "string",
          "name": "projectName",
          "type": "string"
        }
      ],
      "name": "getPendingTokens",
      "outputs": [
        {
          "internalType": "uint256",
          "name": "",
          "type": "uint256"
        }
      ],
      "stateMutability": "view",
      "type": "function",
      "constant": true
    },
    {
      "inputs": [],
      "name": "owner",
      "outputs": [
        {
          "internalType": "address",
          "name": "",
          "type": "address"
        }
      ],
      "stateMutability": "view",
      "type": "function",
      "constant": true
    },
    {
      "inputs": [],
      "name": "renounceOwnership",
      "outputs": [],
      "stateMutability": "nonpayable",
      "type": "function"
    },
    {
      "inputs": [],
      "name": "token",
      "outputs": [
        {
          "internalType": "contract ProjectsToken",
          "name": "",
          "type": "address"
        }
      ],
      "stateMutability": "view",
      "type": "function",
      "constant": true
    },
    {
      "inputs": [
        {
          "internalType": "address",
          "name": "newOwner",
          "type": "address"
        }
      ],
      "name": "transferOwnership",
      "outputs": [],
      "stateMutability": "nonpayable",
      "type": "function"
    },
    {
      "inputs": [
        {
          "internalType": "string",
          "name": "_changeProposalCID",
          "type": "string"
        },
        {
          "internalType": "string",
          "name": "_projectName",
          "type": "string"
        }
      ],
      "name": "voteForChangeProposal",
      "outputs": [],
      "stateMutability": "nonpayable",
      "type": "function"
    },
    {
      "inputs": [
        {
          "internalType": "address",
          "name": "usr",
          "type": "address"
        },
        {
          "internalType": "string",
          "name": "projectName",
          "type": "string"
        }
      ],
      "name": "getDistributionBalanceOf",
      "outputs": [
        {
          "internalType": "uint256",
          "name": "",
          "type": "uint256"
        }
      ],
      "stateMutability": "view",
      "type": "function",
      "constant": true
    },
    {
      "inputs": [
        {
          "internalType": "address[]",
          "name": "recipients",
          "type": "address[]"
        },
        {
          "internalType": "uint256[]",
          "name": "amounts",
          "type": "uint256[]"
        },
        {
          "internalType": "string",
          "name": "projectName",
          "type": "string"
        }
      ],
      "name": "distribute",
      "outputs": [],
      "stateMutability": "nonpayable",
      "type": "function"
    },
    {
      "inputs": [
        {
          "internalType": "string",
          "name": "projectName",
          "type": "string"
        }
      ],
      "name": "startDistribution",
      "outputs": [],
      "stateMutability": "nonpayable",
      "type": "function"
    },
    {
      "inputs": [
        {
          "internalType": "string",
          "name": "projectName",
          "type": "string"
        }
      ],
      "name": "claimPendingTokens",
      "outputs": [],
      "stateMutability": "nonpayable",
      "type": "function"
    }
  ],
  "bytecode": "0x60a060405260f06080908152503480156200001957600080fd5b5060405162004e5e38038062004e5e83398181016040528101906200003f9190620001e1565b8080600260006101000a81548173ffffffffffffffffffffffffffffffffffffffff021916908373ffffffffffffffffffffffffffffffffffffffff16021790555050620000a262000096620000a960201b60201c565b620000b160201b60201c565b5062000213565b600033905090565b6000600360009054906101000a900473ffffffffffffffffffffffffffffffffffffffff16905081600360006101000a81548173ffffffffffffffffffffffffffffffffffffffff021916908373ffffffffffffffffffffffffffffffffffffffff1602179055508173ffffffffffffffffffffffffffffffffffffffff168173ffffffffffffffffffffffffffffffffffffffff167f8be0079c531659141344cd1fd0a4f28419497f9722a3daafe3b4186f6b6457e060405160405180910390a35050565b600080fd5b600073ffffffffffffffffffffffffffffffffffffffff82169050919050565b6000620001a9826200017c565b9050919050565b620001bb816200019c565b8114620001c757600080fd5b50565b600081519050620001db81620001b0565b92915050565b600060208284031215620001fa57620001f962000177565b5b60006200020a84828501620001ca565b91505092915050565b608051614c1a62000244600039600081816118d501528181611a5f015281816120bd0152612cf40152614c1a6000f3fe608060405234801561001057600080fd5b50600436106101425760003560e01c80637ec15674116100b8578063a56359631161007c578063a563596314610387578063c4687fb8146103a3578063ed0c2d90146103bf578063f2fde38b146103db578063f396530f146103f7578063fc0c546a1461041357610142565b80637ec15674146102f75780638d1446fc146103135780638da5cb5b1461032f5780639f6806ec1461034d578063a54d804d1461036957610142565b806349b7b6401161010a57806349b7b6401461023757806354696993146102675780636bd0620414610297578063715018a6146102b3578063750354d2146102bd5780637a5945da146102d957610142565b80631d7147d8146101475780631dd7cecf1461017757806333846eba146101a757806339b64c30146101d757806347d8899a14610207575b600080fd5b610161600480360381019061015c91906131fb565b610431565b60405161016e91906133b6565b60405180910390f35b610191600480360381019061018c9190613436565b61064a565b60405161019e91906134af565b60405180910390f35b6101c160048036038101906101bc91906135fa565b610856565b6040516101ce91906134af565b60405180910390f35b6101f160048036038101906101ec9190613643565b610884565b6040516101fe919061374e565b60405180910390f35b610221600480360381019061021c9190613643565b610a9a565b60405161022e91906134af565b60405180910390f35b610251600480360381019061024c9190613436565b610c33565b60405161025e91906134af565b60405180910390f35b610281600480360381019061027c9190613436565b611003565b60405161028e91906134af565b60405180910390f35b6102b160048036038101906102ac9190613770565b6111da565b005b6102bb611395565b005b6102d760048036038101906102d291906137e8565b6113a9565b005b6102e16118d3565b6040516102ee91906134af565b60405180910390f35b610311600480360381019061030c9190613643565b6118f7565b005b61032d600480360381019061032891906137e8565b611b4b565b005b610337611ed9565b6040516103449190613873565b60405180910390f35b61036760048036038101906103629190613a40565b611f03565b005b610371612325565b60405161037e91906133b6565b60405180910390f35b6103a1600480360381019061039c91906137e8565b6124c3565b005b6103bd60048036038101906103b89190613aec565b612698565b005b6103d960048036038101906103d491906137e8565b6128d0565b005b6103f560048036038101906103f09190613b68565b612b08565b005b610411600480360381019061040c9190613643565b612b8b565b005b61041b612ee3565b6040516104289190613bf4565b60405180910390f35b606083838080601f016020809104026020016040519081016040528093929190818152602001838380828437600081840152601f19601f82011690508083019250505050505050600080826040516104899190613c4b565b9081526020016040518091039020549050600260009054906101000a900473ffffffffffffffffffffffffffffffffffffffff1673ffffffffffffffffffffffffffffffffffffffff16634f558e79826040518263ffffffff1660e01b81526004016104f591906134af565b602060405180830381865afa158015610512573d6000803e3d6000fd5b505050506040513d601f19601f820116820180604052508101906105369190613c77565b610575576040517f08c379a000000000000000000000000000000000000000000000000000000000815260040161056c90613d01565b60405180910390fd5b6000808787604051610588929190613d46565b9081526020016040518091039020549050600181815481106105ad576105ac613d5f565b5b90600052602060002090600a020160010173__ChangesLibrary________________________63e3e26be89091876040518363ffffffff1660e01b81526004016105f8929190613da4565b600060405180830381865af4158015610615573d6000803e3d6000fd5b505050506040513d6000823e3d601f19601f8201168201806040525081019061063e9190613f1e565b93505050509392505050565b600082828080601f016020809104026020016040519081016040528093929190818152602001838380828437600081840152601f19601f82011690508083019250505050505050600080826040516106a29190613c4b565b9081526020016040518091039020549050600260009054906101000a900473ffffffffffffffffffffffffffffffffffffffff1673ffffffffffffffffffffffffffffffffffffffff16634f558e79826040518263ffffffff1660e01b815260040161070e91906134af565b602060405180830381865afa15801561072b573d6000803e3d6000fd5b505050506040513d601f19601f8201168201806040525081019061074f9190613c77565b61078e576040517f08c379a000000000000000000000000000000000000000000000000000000000815260040161078590613d01565b60405180910390fd5b600260009054906101000a900473ffffffffffffffffffffffffffffffffffffffff1673ffffffffffffffffffffffffffffffffffffffff1662fdd58e87600088886040516107de929190613d46565b9081526020016040518091039020546040518363ffffffff1660e01b815260040161080a929190613f67565b602060405180830381865afa158015610827573d6000803e3d6000fd5b505050506040513d601f19601f8201168201806040525081019061084b9190613fa5565b925050509392505050565b6000818051602081018201805184825260208301602085012081835280955050505050506000915090505481565b606082828080601f016020809104026020016040519081016040528093929190818152602001838380828437600081840152601f19601f82011690508083019250505050505050600080826040516108dc9190613c4b565b9081526020016040518091039020549050600260009054906101000a900473ffffffffffffffffffffffffffffffffffffffff1673ffffffffffffffffffffffffffffffffffffffff16634f558e79826040518263ffffffff1660e01b815260040161094891906134af565b602060405180830381865afa158015610965573d6000803e3d6000fd5b505050506040513d601f19601f820116820180604052508101906109899190613c77565b6109c8576040517f08c379a00000000000000000000000000000000000000000000000000000000081526004016109bf90613d01565b60405180910390fd5b60008086866040516109db929190613d46565b908152602001604051809103902054905060018181548110610a00576109ff613d5f565b5b90600052602060002090600a020160010173__ChangesLibrary________________________635a45338590916040518263ffffffff1660e01b8152600401610a499190613fd2565b600060405180830381865af4158015610a66573d6000803e3d6000fd5b505050506040513d6000823e3d601f19601f82011682018060405250810190610a8f9190614099565b935050505092915050565b600082828080601f016020809104026020016040519081016040528093929190818152602001838380828437600081840152601f19601f8201169050808301925050505050505060008082604051610af29190613c4b565b9081526020016040518091039020549050600260009054906101000a900473ffffffffffffffffffffffffffffffffffffffff1673ffffffffffffffffffffffffffffffffffffffff16634f558e79826040518263ffffffff1660e01b8152600401610b5e91906134af565b602060405180830381865afa158015610b7b573d6000803e3d6000fd5b505050506040513d601f19601f82011682018060405250810190610b9f9190613c77565b610bde576040517f08c379a0000000000000000000000000000000000000000000000000000000008152600401610bd590613d01565b60405180910390fd5b6000808686604051610bf1929190613d46565b908152602001604051809103902054905060018181548110610c1657610c15613d5f565b5b90600052602060002090600a020160050154935050505092915050565b600082828080601f016020809104026020016040519081016040528093929190818152602001838380828437600081840152601f19601f8201169050808301925050505050505060008082604051610c8b9190613c4b565b9081526020016040518091039020549050600260009054906101000a900473ffffffffffffffffffffffffffffffffffffffff1673ffffffffffffffffffffffffffffffffffffffff16634f558e79826040518263ffffffff1660e01b8152600401610cf791906134af565b602060405180830381865afa158015610d14573d6000803e3d6000fd5b505050506040513d601f19601f82011682018060405250810190610d389190613c77565b610d77576040517f08c379a0000000000000000000000000000000000000000000000000000000008152600401610d6e90613d01565b60405180910390fd5b6000808686604051610d8a929190613d46565b9081526020016040518091039020549050600060018281548110610db157610db0613d5f565b5b90600052602060002090600a02016005015490506000600260009054906101000a900473ffffffffffffffffffffffffffffffffffffffff1673ffffffffffffffffffffffffffffffffffffffff1662fdd58e8a856040518363ffffffff1660e01b8152600401610e23929190613f67565b602060405180830381865afa158015610e40573d6000803e3d6000fd5b505050506040513d601f19601f82011682018060405250810190610e649190613fa5565b90506000600260009054906101000a900473ffffffffffffffffffffffffffffffffffffffff1673ffffffffffffffffffffffffffffffffffffffff1663bd85b039856040518263ffffffff1660e01b8152600401610ec391906134af565b602060405180830381865afa158015610ee0573d6000803e3d6000fd5b505050506040513d601f19601f82011682018060405250810190610f049190613fa5565b606483610f119190614111565b610f1b919061419a565b905060008103610f32576000965050505050610ffa565b60648160018681548110610f4957610f48613d5f565b5b90600052602060002090600a020160060154610f659190614111565b610f6f919061419a565b905060018481548110610f8557610f84613d5f565b5b90600052602060002090600a020160080160008b73ffffffffffffffffffffffffffffffffffffffff1673ffffffffffffffffffffffffffffffffffffffff16815260200190815260200160002060008481526020019081526020016000205481610ff091906141cb565b9050809650505050505b50509392505050565b600082828080601f016020809104026020016040519081016040528093929190818152602001838380828437600081840152601f19601f820116905080830192505050505050506000808260405161105b9190613c4b565b9081526020016040518091039020549050600260009054906101000a900473ffffffffffffffffffffffffffffffffffffffff1673ffffffffffffffffffffffffffffffffffffffff16634f558e79826040518263ffffffff1660e01b81526004016110c791906134af565b602060405180830381865afa1580156110e4573d6000803e3d6000fd5b505050506040513d601f19601f820116820180604052508101906111089190613c77565b611147576040517f08c379a000000000000000000000000000000000000000000000000000000000815260040161113e90613d01565b60405180910390fd5b600080868660405161115a929190613d46565b90815260200160405180910390205490506001818154811061117f5761117e613d5f565b5b90600052602060002090600a020160070160008873ffffffffffffffffffffffffffffffffffffffff1673ffffffffffffffffffffffffffffffffffffffff1681526020019081526020016000205493505050509392505050565b60006001805490509050806000836040516111f59190613c4b565b908152602001604051809103902081905550600260009054906101000a900473ffffffffffffffffffffffffffffffffffffffff1673ffffffffffffffffffffffffffffffffffffffff1663156e29f6338360646040518463ffffffff1660e01b81526004016112679392919061423a565b600060405180830381600087803b15801561128157600080fd5b505af1158015611295573d6000803e3d6000fd5b505050506000600180816001815401808255809150500390600052602060002090600a02019050828160000190805190602001906112d49291906130a7565b508060010173__ChangesLibrary________________________63aaff905a9091866040518363ffffffff1660e01b81526004016113139291906142bb565b60006040518083038186803b15801561132b57600080fd5b505af415801561133f573d6000803e3d6000fd5b50505050606481600601819055504281600501819055507fe224389b386caecb8e3b38edc39361c7227e3ef820a8276bc31ac9cf1ba69fcd8383604051611387929190614370565b60405180910390a150505050565b61139d612f09565b6113a76000612f87565b565b81818080601f016020809104026020016040519081016040528093929190818152602001838380828437600081840152601f19601f82011690508083019250505050505050600080826040516113ff9190613c4b565b9081526020016040518091039020549050600260009054906101000a900473ffffffffffffffffffffffffffffffffffffffff1673ffffffffffffffffffffffffffffffffffffffff16634f558e79826040518263ffffffff1660e01b815260040161146b91906134af565b602060405180830381865afa158015611488573d6000803e3d6000fd5b505050506040513d601f19601f820116820180604052508101906114ac9190613c77565b6114eb576040517f08c379a00000000000000000000000000000000000000000000000000000000081526004016114e290613d01565b60405180910390fd5b60008085856040516114fe929190613d46565b9081526020016040518091039020549050600015156001828154811061152757611526613d5f565b5b90600052602060002090600a0201600901876040516115469190613c4b565b908152602001604051809103902060003373ffffffffffffffffffffffffffffffffffffffff1673ffffffffffffffffffffffffffffffffffffffff16815260200190815260200160002060009054906101000a900460ff161515146115e1576040517f08c379a00000000000000000000000000000000000000000000000000000000081526004016115d8906143ff565b60405180910390fd5b6000600260009054906101000a900473ffffffffffffffffffffffffffffffffffffffff1673ffffffffffffffffffffffffffffffffffffffff1662fdd58e33846040518363ffffffff1660e01b815260040161163f929190613f67565b602060405180830381865afa15801561165c573d6000803e3d6000fd5b505050506040513d601f19601f820116820180604052508101906116809190613fa5565b9050600081116116c5576040517f08c379a00000000000000000000000000000000000000000000000000000000081526004016116bc9061446b565b60405180910390fd5b600182815481106116d9576116d8613d5f565b5b90600052602060002090600a020160010173__ChangesLibrary________________________637dba11cb909189846040518463ffffffff1660e01b81526004016117269392919061449a565b60006040518083038186803b15801561173e57600080fd5b505af4158015611752573d6000803e3d6000fd5b50505050600180838154811061176b5761176a613d5f565b5b90600052602060002090600a02016009018860405161178a9190613c4b565b908152602001604051809103902060003373ffffffffffffffffffffffffffffffffffffffff1673ffffffffffffffffffffffffffffffffffffffff16815260200190815260200160002060006101000a81548160ff0219169083151502179055507f0defd832aa647eb845ac2ed5e414ba9da1d13d7c3b2028fea20853913891174d868689336001878154811061182557611824613d5f565b5b90600052602060002090600a020160010173__ChangesLibrary________________________63ca5451d290918e6040518363ffffffff1660e01b81526004016118709291906142bb565b602060405180830381865af415801561188d573d6000803e3d6000fd5b505050506040513d601f19601f820116820180604052508101906118b19190613fa5565b6040516118c2959493929190614551565b60405180910390a150505050505050565b7f000000000000000000000000000000000000000000000000000000000000000081565b81818080601f016020809104026020016040519081016040528093929190818152602001838380828437600081840152601f19601f820116905080830192505050505050506000808260405161194d9190613c4b565b9081526020016040518091039020549050600260009054906101000a900473ffffffffffffffffffffffffffffffffffffffff1673ffffffffffffffffffffffffffffffffffffffff16634f558e79826040518263ffffffff1660e01b81526004016119b991906134af565b602060405180830381865afa1580156119d6573d6000803e3d6000fd5b505050506040513d601f19601f820116820180604052508101906119fa9190613c77565b611a39576040517f08c379a0000000000000000000000000000000000000000000000000000000008152600401611a3090613d01565b60405180910390fd5b6000808585604051611a4c929190613d46565b90815260200160405180910390205490507f000000000000000000000000000000000000000000000000000000000000000060018281548110611a9257611a91613d5f565b5b90600052602060002090600a02016005015442611aaf91906141cb565b11611aef576040517f08c379a0000000000000000000000000000000000000000000000000000000008152600401611ae690614605565b60405180910390fd5b606460018281548110611b0557611b04613d5f565b5b90600052602060002090600a0201600601819055504260018281548110611b2f57611b2e613d5f565b5b90600052602060002090600a0201600501819055505050505050565b81818080601f016020809104026020016040519081016040528093929190818152602001838380828437600081840152601f19601f8201169050808301925050505050505060008082604051611ba19190613c4b565b9081526020016040518091039020549050600260009054906101000a900473ffffffffffffffffffffffffffffffffffffffff1673ffffffffffffffffffffffffffffffffffffffff16634f558e79826040518263ffffffff1660e01b8152600401611c0d91906134af565b602060405180830381865afa158015611c2a573d6000803e3d6000fd5b505050506040513d601f19601f82011682018060405250810190611c4e9190613c77565b611c8d576040517f08c379a0000000000000000000000000000000000000000000000000000000008152600401611c8490613d01565b60405180910390fd5b6000808585604051611ca0929190613d46565b908152602001604051809103902054905060018181548110611cc557611cc4613d5f565b5b90600052602060002090600a020160010173__ChangesLibrary________________________636de060a8909188600260009054906101000a900473ffffffffffffffffffffffffffffffffffffffff1673ffffffffffffffffffffffffffffffffffffffff1662fdd58e3360008c8c604051611d43929190613d46565b9081526020016040518091039020546040518363ffffffff1660e01b8152600401611d6f929190613f67565b602060405180830381865afa158015611d8c573d6000803e3d6000fd5b505050506040513d601f19601f82011682018060405250810190611db09190613fa5565b6040518463ffffffff1660e01b8152600401611dce9392919061449a565b60006040518083038186803b158015611de657600080fd5b505af4158015611dfa573d6000803e3d6000fd5b505050506001808281548110611e1357611e12613d5f565b5b90600052602060002090600a020160090187604051611e329190613c4b565b908152602001604051809103902060003373ffffffffffffffffffffffffffffffffffffffff1673ffffffffffffffffffffffffffffffffffffffff16815260200190815260200160002060006101000a81548160ff0219169083151502179055507f7b7acf540aac5e16ce3dfbd4d106c203a301da603c18502d179f60282962e5c485858884604051611ec994939291906146bd565b60405180910390a1505050505050565b6000600360009054906101000a900473ffffffffffffffffffffffffffffffffffffffff16905090565b81818080601f016020809104026020016040519081016040528093929190818152602001838380828437600081840152601f19601f8201169050808301925050505050505060008082604051611f599190613c4b565b9081526020016040518091039020549050600260009054906101000a900473ffffffffffffffffffffffffffffffffffffffff1673ffffffffffffffffffffffffffffffffffffffff16634f558e79826040518263ffffffff1660e01b8152600401611fc591906134af565b602060405180830381865afa158015611fe2573d6000803e3d6000fd5b505050506040513d601f19601f820116820180604052508101906120069190613c77565b612045576040517f08c379a000000000000000000000000000000000000000000000000000000000815260040161203c90613d01565b60405180910390fd5b6000808585604051612058929190613d46565b908152602001604051809103902054905060006120748761304d565b905086518851146120ba576040517f08c379a00000000000000000000000000000000000000000000000000000000081526004016120b190614763565b60405180910390fd5b427f0000000000000000000000000000000000000000000000000000000000000000600184815481106120f0576120ef613d5f565b5b90600052602060002090600a02016005015461210c9190614783565b1161214c576040517f08c379a000000000000000000000000000000000000000000000000000000000815260040161214390614825565b60405180910390fd5b612157338787610c33565b811115612199576040517f08c379a000000000000000000000000000000000000000000000000000000000815260040161219090614891565b60405180910390fd5b6000600183815481106121af576121ae613d5f565b5b90600052602060002090600a020160050154905060005b895181101561228f578881815181106121e2576121e1613d5f565b5b6020026020010151600185815481106121fe576121fd613d5f565b5b90600052602060002090600a020160070160008c848151811061222457612223613d5f565b5b602002602001015173ffffffffffffffffffffffffffffffffffffffff1673ffffffffffffffffffffffffffffffffffffffff16815260200190815260200160002060008282546122759190614783565b925050819055508080612287906148b1565b9150506121c6565b5081600184815481106122a5576122a4613d5f565b5b90600052602060002090600a020160080160003373ffffffffffffffffffffffffffffffffffffffff1673ffffffffffffffffffffffffffffffffffffffff168152602001908152602001600020600083815260200190815260200160002060008282546123139190614783565b92505081905550505050505050505050565b60606000600180549050905060006001805490509050600a82111561234957600a91505b60008267ffffffffffffffff811115612365576123646134cf565b5b60405190808252806020026020018201604052801561239857816020015b60608152602001906001900390816123835790505b509050600060018054905011156124ba57600083836123b791906141cb565b90505b828110156124b857600181815481106123d6576123d5613d5f565b5b90600052602060002090600a020160000180546123f290614928565b80601f016020809104026020016040519081016040528092919081815260200182805461241e90614928565b801561246b5780601f106124405761010080835404028352916020019161246b565b820191906000526020600020905b81548152906001019060200180831161244e57829003601f168201915b5050505050828260018661247f91906141cb565b61248991906141cb565b8151811061249a57612499613d5f565b5b602002602001018190525080806124b0906148b1565b9150506123ba565b505b80935050505090565b60008083836040516124d6929190613d46565b9081526020016040518091039020549050600181815481106124fb576124fa613d5f565b5b90600052602060002090600a020160040160405180606001604052808681526020013373ffffffffffffffffffffffffffffffffffffffff168152602001600260009054906101000a900473ffffffffffffffffffffffffffffffffffffffff1673ffffffffffffffffffffffffffffffffffffffff1662fdd58e3360008989604051612589929190613d46565b9081526020016040518091039020546040518363ffffffff1660e01b81526004016125b5929190613f67565b602060405180830381865afa1580156125d2573d6000803e3d6000fd5b505050506040513d601f19601f820116820180604052508101906125f69190613fa5565b8152509080600181540180825580915050600190039060005260206000209060030201600090919091909150600082015181600001908051906020019061263e9291906130a7565b5060208201518160010160006101000a81548173ffffffffffffffffffffffffffffffffffffffff021916908373ffffffffffffffffffffffffffffffffffffffff16021790555060408201518160020155505050505050565b82828080601f016020809104026020016040519081016040528093929190818152602001838380828437600081840152601f19601f82011690508083019250505050505050600080826040516126ee9190613c4b565b9081526020016040518091039020549050600260009054906101000a900473ffffffffffffffffffffffffffffffffffffffff1673ffffffffffffffffffffffffffffffffffffffff16634f558e79826040518263ffffffff1660e01b815260040161275a91906134af565b602060405180830381865afa158015612777573d6000803e3d6000fd5b505050506040513d601f19601f8201168201806040525081019061279b9190613c77565b6127da576040517f08c379a00000000000000000000000000000000000000000000000000000000081526004016127d190613d01565b60405180910390fd5b60008086866040516127ed929190613d46565b90815260200160405180910390205490506001818154811061281257612811613d5f565b5b90600052602060002090600a020160010173__ChangesLibrary________________________637cbb44f99091866040518363ffffffff1660e01b815260040161285d9291906142bb565b60006040518083038186803b15801561287557600080fd5b505af4158015612889573d6000803e3d6000fd5b505050507f718a982b61bc723a0c68281b0eb10e1cff37bd89888841ae545c98cd5493a0568487876040516128c0939291906149a5565b60405180910390a1505050505050565b81818080601f016020809104026020016040519081016040528093929190818152602001838380828437600081840152601f19601f82011690508083019250505050505050600080826040516129269190613c4b565b9081526020016040518091039020549050600260009054906101000a900473ffffffffffffffffffffffffffffffffffffffff1673ffffffffffffffffffffffffffffffffffffffff16634f558e79826040518263ffffffff1660e01b815260040161299291906134af565b602060405180830381865afa1580156129af573d6000803e3d6000fd5b505050506040513d601f19601f820116820180604052508101906129d39190613c77565b612a12576040517f08c379a0000000000000000000000000000000000000000000000000000000008152600401612a0990613d01565b60405180910390fd5b6000808585604051612a25929190613d46565b908152602001604051809103902054905060018181548110612a4a57612a49613d5f565b5b90600052602060002090600a020160010173__ChangesLibrary________________________636b6b15cc9091886040518363ffffffff1660e01b8152600401612a959291906142bb565b60006040518083038186803b158015612aad57600080fd5b505af4158015612ac1573d6000803e3d6000fd5b505050507fa59a33e81abf86b25a561f609013d867f28b3c0cbc2cdf98e852b0c0c041eb6c858588604051612af893929190614a63565b60405180910390a1505050505050565b612b10612f09565b600073ffffffffffffffffffffffffffffffffffffffff168173ffffffffffffffffffffffffffffffffffffffff1603612b7f576040517f08c379a0000000000000000000000000000000000000000000000000000000008152600401612b7690614b21565b60405180910390fd5b612b8881612f87565b50565b81818080601f016020809104026020016040519081016040528093929190818152602001838380828437600081840152601f19601f8201169050808301925050505050505060008082604051612be19190613c4b565b9081526020016040518091039020549050600260009054906101000a900473ffffffffffffffffffffffffffffffffffffffff1673ffffffffffffffffffffffffffffffffffffffff16634f558e79826040518263ffffffff1660e01b8152600401612c4d91906134af565b602060405180830381865afa158015612c6a573d6000803e3d6000fd5b505050506040513d601f19601f82011682018060405250810190612c8e9190613c77565b612ccd576040517f08c379a0000000000000000000000000000000000000000000000000000000008152600401612cc490613d01565b60405180910390fd5b6000808585604051612ce0929190613d46565b9081526020016040518091039020549050427f000000000000000000000000000000000000000000000000000000000000000060018381548110612d2757612d26613d5f565b5b90600052602060002090600a020160050154612d439190614783565b10612d83576040517f08c379a0000000000000000000000000000000000000000000000000000000008152600401612d7a90614605565b60405180910390fd5b600260009054906101000a900473ffffffffffffffffffffffffffffffffffffffff1673ffffffffffffffffffffffffffffffffffffffff1663156e29f6338360018581548110612dd757612dd6613d5f565b5b90600052602060002090600a020160070160003373ffffffffffffffffffffffffffffffffffffffff1673ffffffffffffffffffffffffffffffffffffffff168152602001908152602001600020546040518463ffffffff1660e01b8152600401612e4493929190614b41565b600060405180830381600087803b158015612e5e57600080fd5b505af1158015612e72573d6000803e3d6000fd5b5050505060018181548110612e8a57612e89613d5f565b5b90600052602060002090600a020160070160003373ffffffffffffffffffffffffffffffffffffffff1673ffffffffffffffffffffffffffffffffffffffff168152602001908152602001600020600090555050505050565b600260009054906101000a900473ffffffffffffffffffffffffffffffffffffffff1681565b612f1161309f565b73ffffffffffffffffffffffffffffffffffffffff16612f2f611ed9565b73ffffffffffffffffffffffffffffffffffffffff1614612f85576040517f08c379a0000000000000000000000000000000000000000000000000000000008152600401612f7c90614bc4565b60405180910390fd5b565b6000600360009054906101000a900473ffffffffffffffffffffffffffffffffffffffff16905081600360006101000a81548173ffffffffffffffffffffffffffffffffffffffff021916908373ffffffffffffffffffffffffffffffffffffffff1602179055508173ffffffffffffffffffffffffffffffffffffffff168173ffffffffffffffffffffffffffffffffffffffff167f8be0079c531659141344cd1fd0a4f28419497f9722a3daafe3b4186f6b6457e060405160405180910390a35050565b600080600090505b82518110156130995782818151811061307157613070613d5f565b5b6020026020010151826130849190614783565b91508080613091906148b1565b915050613055565b50919050565b600033905090565b8280546130b390614928565b90600052602060002090601f0160209004810192826130d5576000855561311c565b82601f106130ee57805160ff191683800117855561311c565b8280016001018555821561311c579182015b8281111561311b578251825591602001919060010190613100565b5b509050613129919061312d565b5090565b5b8082111561314657600081600090555060010161312e565b5090565b6000604051905090565b600080fd5b600080fd5b600080fd5b600080fd5b600080fd5b60008083601f8401126131835761318261315e565b5b8235905067ffffffffffffffff8111156131a05761319f613163565b5b6020830191508360018202830111156131bc576131bb613168565b5b9250929050565b60008115159050919050565b6131d8816131c3565b81146131e357600080fd5b50565b6000813590506131f5816131cf565b92915050565b60008060006040848603121561321457613213613154565b5b600084013567ffffffffffffffff81111561323257613231613159565b5b61323e8682870161316d565b93509350506020613251868287016131e6565b9150509250925092565b600081519050919050565b600082825260208201905092915050565b6000819050602082019050919050565b600081519050919050565b600082825260208201905092915050565b60005b838110156132c15780820151818401526020810190506132a6565b838111156132d0576000848401525b50505050565b6000601f19601f8301169050919050565b60006132f282613287565b6132fc8185613292565b935061330c8185602086016132a3565b613315816132d6565b840191505092915050565b600061332c83836132e7565b905092915050565b6000602082019050919050565b600061334c8261325b565b6133568185613266565b93508360208202850161336885613277565b8060005b858110156133a457848403895281516133858582613320565b945061339083613334565b925060208a0199505060018101905061336c565b50829750879550505050505092915050565b600060208201905081810360008301526133d08184613341565b905092915050565b600073ffffffffffffffffffffffffffffffffffffffff82169050919050565b6000613403826133d8565b9050919050565b613413816133f8565b811461341e57600080fd5b50565b6000813590506134308161340a565b92915050565b60008060006040848603121561344f5761344e613154565b5b600061345d86828701613421565b935050602084013567ffffffffffffffff81111561347e5761347d613159565b5b61348a8682870161316d565b92509250509250925092565b6000819050919050565b6134a981613496565b82525050565b60006020820190506134c460008301846134a0565b92915050565b600080fd5b7f4e487b7100000000000000000000000000000000000000000000000000000000600052604160045260246000fd5b613507826132d6565b810181811067ffffffffffffffff82111715613526576135256134cf565b5b80604052505050565b600061353961314a565b905061354582826134fe565b919050565b600067ffffffffffffffff821115613565576135646134cf565b5b61356e826132d6565b9050602081019050919050565b82818337600083830152505050565b600061359d6135988461354a565b61352f565b9050828152602081018484840111156135b9576135b86134ca565b5b6135c484828561357b565b509392505050565b600082601f8301126135e1576135e061315e565b5b81356135f184826020860161358a565b91505092915050565b6000602082840312156136105761360f613154565b5b600082013567ffffffffffffffff81111561362e5761362d613159565b5b61363a848285016135cc565b91505092915050565b6000806020838503121561365a57613659613154565b5b600083013567ffffffffffffffff81111561367857613677613159565b5b6136848582860161316d565b92509250509250929050565b600081519050919050565b600082825260208201905092915050565b6000819050602082019050919050565b6136c5816133f8565b82525050565b60006136d783836136bc565b60208301905092915050565b6000602082019050919050565b60006136fb82613690565b613705818561369b565b9350613710836136ac565b8060005b8381101561374157815161372888826136cb565b9750613733836136e3565b925050600181019050613714565b5085935050505092915050565b6000602082019050818103600083015261376881846136f0565b905092915050565b6000806040838503121561378757613786613154565b5b600083013567ffffffffffffffff8111156137a5576137a4613159565b5b6137b1858286016135cc565b925050602083013567ffffffffffffffff8111156137d2576137d1613159565b5b6137de858286016135cc565b9150509250929050565b60008060006040848603121561380157613800613154565b5b600084013567ffffffffffffffff81111561381f5761381e613159565b5b61382b868287016135cc565b935050602084013567ffffffffffffffff81111561384c5761384b613159565b5b6138588682870161316d565b92509250509250925092565b61386d816133f8565b82525050565b60006020820190506138886000830184613864565b92915050565b600067ffffffffffffffff8211156138a9576138a86134cf565b5b602082029050602081019050919050565b60006138cd6138c88461388e565b61352f565b905080838252602082019050602084028301858111156138f0576138ef613168565b5b835b8181101561391957806139058882613421565b8452602084019350506020810190506138f2565b5050509392505050565b600082601f8301126139385761393761315e565b5b81356139488482602086016138ba565b91505092915050565b600067ffffffffffffffff82111561396c5761396b6134cf565b5b602082029050602081019050919050565b61398681613496565b811461399157600080fd5b50565b6000813590506139a38161397d565b92915050565b60006139bc6139b784613951565b61352f565b905080838252602082019050602084028301858111156139df576139de613168565b5b835b81811015613a0857806139f48882613994565b8452602084019350506020810190506139e1565b5050509392505050565b600082601f830112613a2757613a2661315e565b5b8135613a378482602086016139a9565b91505092915050565b60008060008060608587031215613a5a57613a59613154565b5b600085013567ffffffffffffffff811115613a7857613a77613159565b5b613a8487828801613923565b945050602085013567ffffffffffffffff811115613aa557613aa4613159565b5b613ab187828801613a12565b935050604085013567ffffffffffffffff811115613ad257613ad1613159565b5b613ade8782880161316d565b925092505092959194509250565b600080600060408486031215613b0557613b04613154565b5b600084013567ffffffffffffffff811115613b2357613b22613159565b5b613b2f8682870161316d565b9350935050602084013567ffffffffffffffff811115613b5257613b51613159565b5b613b5e868287016135cc565b9150509250925092565b600060208284031215613b7e57613b7d613154565b5b6000613b8c84828501613421565b91505092915050565b6000819050919050565b6000613bba613bb5613bb0846133d8565b613b95565b6133d8565b9050919050565b6000613bcc82613b9f565b9050919050565b6000613bde82613bc1565b9050919050565b613bee81613bd3565b82525050565b6000602082019050613c096000830184613be5565b92915050565b600081905092915050565b6000613c2582613287565b613c2f8185613c0f565b9350613c3f8185602086016132a3565b80840191505092915050565b6000613c578284613c1a565b915081905092915050565b600081519050613c71816131cf565b92915050565b600060208284031215613c8d57613c8c613154565b5b6000613c9b84828501613c62565b91505092915050565b600082825260208201905092915050565b7f50726f6a65637420646f206e6f74206578697374000000000000000000000000600082015250565b6000613ceb601483613ca4565b9150613cf682613cb5565b602082019050919050565b60006020820190508181036000830152613d1a81613cde565b9050919050565b6000613d2d8385613c0f565b9350613d3a83858461357b565b82840190509392505050565b6000613d53828486613d21565b91508190509392505050565b7f4e487b7100000000000000000000000000000000000000000000000000000000600052603260045260246000fd5b8082525050565b613d9e816131c3565b82525050565b6000604082019050613db96000830185613d8e565b613dc66020830184613d95565b9392505050565b600067ffffffffffffffff821115613de857613de76134cf565b5b602082029050602081019050919050565b6000613e0c613e078461354a565b61352f565b905082815260208101848484011115613e2857613e276134ca565b5b613e338482856132a3565b509392505050565b600082601f830112613e5057613e4f61315e565b5b8151613e60848260208601613df9565b91505092915050565b6000613e7c613e7784613dcd565b61352f565b90508083825260208201905060208402830185811115613e9f57613e9e613168565b5b835b81811015613ee657805167ffffffffffffffff811115613ec457613ec361315e565b5b808601613ed18982613e3b565b85526020850194505050602081019050613ea1565b5050509392505050565b600082601f830112613f0557613f0461315e565b5b8151613f15848260208601613e69565b91505092915050565b600060208284031215613f3457613f33613154565b5b600082015167ffffffffffffffff811115613f5257613f51613159565b5b613f5e84828501613ef0565b91505092915050565b6000604082019050613f7c6000830185613864565b613f8960208301846134a0565b9392505050565b600081519050613f9f8161397d565b92915050565b600060208284031215613fbb57613fba613154565b5b6000613fc984828501613f90565b91505092915050565b6000602082019050613fe76000830184613d8e565b92915050565b600081519050613ffc8161340a565b92915050565b60006140156140108461388e565b61352f565b9050808382526020820190506020840283018581111561403857614037613168565b5b835b81811015614061578061404d8882613fed565b84526020840193505060208101905061403a565b5050509392505050565b600082601f8301126140805761407f61315e565b5b8151614090848260208601614002565b91505092915050565b6000602082840312156140af576140ae613154565b5b600082015167ffffffffffffffff8111156140cd576140cc613159565b5b6140d98482850161406b565b91505092915050565b7f4e487b7100000000000000000000000000000000000000000000000000000000600052601160045260246000fd5b600061411c82613496565b915061412783613496565b9250817fffffffffffffffffffffffffffffffffffffffffffffffffffffffffffffffff04831182151516156141605761415f6140e2565b5b828202905092915050565b7f4e487b7100000000000000000000000000000000000000000000000000000000600052601260045260246000fd5b60006141a582613496565b91506141b083613496565b9250826141c0576141bf61416b565b5b828204905092915050565b60006141d682613496565b91506141e183613496565b9250828210156141f4576141f36140e2565b5b828203905092915050565b6000819050919050565b600061422461421f61421a846141ff565b613b95565b613496565b9050919050565b61423481614209565b82525050565b600060608201905061424f6000830186613864565b61425c60208301856134a0565b614269604083018461422b565b949350505050565b600082825260208201905092915050565b600061428d82613287565b6142978185614271565b93506142a78185602086016132a3565b6142b0816132d6565b840191505092915050565b60006040820190506142d06000830185613d8e565b81810360208301526142e28184614282565b90509392505050565b7f4e65772070726f6a656374206372656174656420776974682049443a00000000600082015250565b6000614321601c83613ca4565b915061432c826142eb565b602082019050919050565b600061434282613287565b61434c8185613ca4565b935061435c8185602086016132a3565b614365816132d6565b840191505092915050565b6000606082019050818103600083015261438981614314565b9050818103602083015261439d8185614337565b90506143ac60408301846134a0565b9392505050565b7f416c726561647920766f74656400000000000000000000000000000000000000600082015250565b60006143e9600d83613ca4565b91506143f4826143b3565b602082019050919050565b60006020820190508181036000830152614418816143dc565b9050919050565b7f566f74696e6720706f77657220697320696e73756666696369656e7400000000600082015250565b6000614455601c83613ca4565b91506144608261441f565b602082019050919050565b6000602082019050818103600083015261448481614448565b9050919050565b61449481613496565b82525050565b60006060820190506144af6000830186613d8e565b81810360208301526144c18185614282565b90506144d0604083018461448b565b949350505050565b7f4e657720766f746520666f72206368616e67652070726f706f73616c3a000000600082015250565b600061450e601d83613ca4565b9150614519826144d8565b602082019050919050565b60006145308385613ca4565b935061453d83858461357b565b614546836132d6565b840190509392505050565b600060a082019050818103600083015261456a81614501565b9050818103602083015261457f818789614524565b905081810360408301526145938186614337565b90506145a26060830185613864565b6145af60808301846134a0565b9695505050505050565b7f6e6f7420636c61696d696e672074696d65000000000000000000000000000000600082015250565b60006145ef601183613ca4565b91506145fa826145b9565b602082019050919050565b6000602082019050818103600083015261461e816145e2565b9050919050565b7f4e6577206368616e67652070726f706f73616c20746f207468652050726f6a6560008201527f6374207769746820746865206e616d6520616e6420666f6c6c6f77696e67204960208201527f4420616e64204349443a00000000000000000000000000000000000000000000604082015250565b60006146a7604a83613ca4565b91506146b282614625565b606082019050919050565b600060808201905081810360008301526146d68161469a565b905081810360208301526146eb818688614524565b905081810360408301526146ff8185614337565b905061470e60608301846134a0565b95945050505050565b7f6e6f742073616d6520616d6f756e7473206173206120726563657069656e7473600082015250565b600061474d602083613ca4565b915061475882614717565b602082019050919050565b6000602082019050818103600083015261477c81614740565b9050919050565b600061478e82613496565b915061479983613496565b9250827fffffffffffffffffffffffffffffffffffffffffffffffffffffffffffffffff038211156147ce576147cd6140e2565b5b828201905092915050565b7f6e6f7420646973747269627574696f6e2074696d650000000000000000000000600082015250565b600061480f601583613ca4565b915061481a826147d9565b602082019050919050565b6000602082019050818103600083015261483e81614802565b9050919050565b7f556e737566666963656e7420616d6f756e74206f6620746f6b656e7300000000600082015250565b600061487b601c83613ca4565b915061488682614845565b602082019050919050565b600060208201905081810360008301526148aa8161486e565b9050919050565b60006148bc82613496565b91507fffffffffffffffffffffffffffffffffffffffffffffffffffffffffffffffff82036148ee576148ed6140e2565b5b600182019050919050565b7f4e487b7100000000000000000000000000000000000000000000000000000000600052602260045260246000fd5b6000600282049050600182168061494057607f821691505b602082108103614953576149526148f9565b5b50919050565b7f50726f6a656374206368616e67656420746f206368616e67653a200000000000600082015250565b600061498f601b83613ca4565b915061499a82614959565b602082019050919050565b600060608201905081810360008301526149be81614982565b905081810360208301526149d28186614337565b905081810360408301526149e7818486614524565b9050949350505050565b7f41206e6577206368616e676520686173206265656e206d61646520746f20746860008201527f652070726f6a6563743a20000000000000000000000000000000000000000000602082015250565b6000614a4d602b83613ca4565b9150614a58826149f1565b604082019050919050565b60006060820190508181036000830152614a7c81614a40565b90508181036020830152614a91818587614524565b90508181036040830152614aa58184614337565b9050949350505050565b7f4f776e61626c653a206e6577206f776e657220697320746865207a65726f206160008201527f6464726573730000000000000000000000000000000000000000000000000000602082015250565b6000614b0b602683613ca4565b9150614b1682614aaf565b604082019050919050565b60006020820190508181036000830152614b3a81614afe565b9050919050565b6000606082019050614b566000830186613864565b614b6360208301856134a0565b614b7060408301846134a0565b949350505050565b7f4f776e61626c653a2063616c6c6572206973206e6f7420746865206f776e6572600082015250565b6000614bae602083613ca4565b9150614bb982614b78565b602082019050919050565b60006020820190508181036000830152614bdd81614ba1565b905091905056fea2646970667358221220f6e1e008acf9fec3b6934ab563cd7bf05099f80998db8edb40c5bcfceeb9192764736f6c634300080d0033",
  "immutableReferences": {
    "520": [
      {
        "length": 32,
        "start": 6357
      },
      {
        "length": 32,
        "start": 6751
      },
      {
        "length": 32,
        "start": 8381
      },
      {
        "length": 32,
        "start": 11508
      }
    ]
  },
  "source": "// SPDX-License-Identifier: MIT\npragma solidity ^0.8.2;\nimport \"./Projects.sol\";\nimport \"../node_modules/@openzeppelin/contracts/access/Ownable.sol\";\n\ncontract TokenDistribution is Projects, Ownable {\n\n    constructor(address _tokenAddress) Projects(_tokenAddress) {} \n\n    function sum(uint[] memory _tokens) internal pure returns(uint _sum) {\n\t\tfor (uint i = 0; i < _tokens.length; i++)\n\t\t\t_sum += _tokens[i];\n\t}\n\n    function getDistributionBalanceOf(\n        address usr, \n        string calldata projectName\n    ) public view ProjectExist(projectName) returns (uint) {\n        uint projectIDX = NameToID[projectName];\n        uint lastDistributionTime = publicProjects[projectIDX].lastDistributionTime;\n        uint balanceOf = token.balanceOf(usr, projectIDX);\n\n        // calculate the proportion of tokens you have\n        uint tokens = (balanceOf * 100) / token.totalSupply(projectIDX);\n        if (tokens == 0) {\n            return 0;\n        }\n        tokens = (publicProjects[projectIDX].newTokens * tokens) / 100;\n        tokens -= publicProjects[projectIDX].TokensSpent[usr][lastDistributionTime];\n        return tokens;\n    }\n\n    function distribute(\n        address[] memory recipients,\n        uint[] memory amounts,  \n        string calldata projectName\n    ) external ProjectExist(projectName) {\n        uint projectIDX = NameToID[projectName];\n        uint tokensToSpend = sum(amounts);\n\n        require(recipients.length == amounts.length, \"not same amounts as a recepients\");\n        require(publicProjects[projectIDX].lastDistributionTime + TimeLockInterval > block.timestamp, \"not distribution time\");\n        require(tokensToSpend <= getDistributionBalanceOf(msg.sender, projectName), \"Unsufficent amount of tokens\");\n        \n        uint lastDistributionTime = publicProjects[projectIDX].lastDistributionTime;\n\n        for (uint i=0; i<recipients.length; i++) {\n            publicProjects[projectIDX].pendingTokens[recipients[i]] += amounts[i];\n        }\n\n        publicProjects[projectIDX].TokensSpent[msg.sender][lastDistributionTime] += tokensToSpend;\n    }\n\n    function startDistribution(\n        string calldata projectName\n    ) external ProjectExist(projectName) {\n        uint projectIDX = NameToID[projectName];\n        \n        require((block.timestamp - publicProjects[projectIDX].lastDistributionTime > TimeLockInterval), \"not claiming time\");\n        publicProjects[projectIDX].newTokens = 100;\n        publicProjects[projectIDX].lastDistributionTime = block.timestamp;\n    }\n\n    function claimPendingTokens(\n        string calldata projectName\n    ) external ProjectExist(projectName) {\n        uint projectIDX = NameToID[projectName];\n        require(publicProjects[projectIDX].lastDistributionTime + TimeLockInterval < block.timestamp, \"not claiming time\");\n        token.mint(msg.sender, projectIDX, publicProjects[projectIDX].pendingTokens[msg.sender]);\n        delete publicProjects[projectIDX].pendingTokens[msg.sender];\n    }\n}\n",
  "sourcePath": "c:\\Users\\User\\Desktop\\\\davidson\\project\\DavidsonProject\\Smart Contract\\contracts\\TokenDistribution.sol",
  "compiler": {
    "name": "solc",
    "version": "0.8.13+commit.abaa5c0e.Emscripten.clang"
  },
  "schemaVersion": "3.4.7",
  "updatedAt": "2024-03-10T22:05:56.749Z",
  "networkType": "ethereum",
  "devdoc": {
    "kind": "dev",
    "methods": {
      "owner()": {
        "details": "Returns the address of the current owner."
      },
      "renounceOwnership()": {
        "details": "Leaves the contract without owner. It will not be possible to call `onlyOwner` functions. Can only be called by the current owner. NOTE: Renouncing ownership will leave the contract without an owner, thereby disabling any functionality that is only available to the owner."
      },
      "transferOwnership(address)": {
        "details": "Transfers ownership of the contract to a new account (`newOwner`). Can only be called by the current owner."
      }
    },
    "version": 1
  },
  "userdoc": {
    "kind": "user",
    "methods": {},
    "version": 1
  }
}