{
  "contractName": "TokenDistribution",
  "abi": [
    {
      "inputs": [
        {
          "internalType": "address",
          "name": "_projectsContract",
          "type": "address"
        }
      ],
      "stateMutability": "nonpayable",
      "type": "constructor"
    },
    {
      "inputs": [
        {
          "internalType": "address",
          "name": "usr",
          "type": "address"
        }
      ],
      "name": "getDistributionBalanceOf",
      "outputs": [
        {
          "internalType": "uint256",
          "name": "",
          "type": "uint256"
        }
      ],
      "stateMutability": "view",
      "type": "function"
    },
    {
      "inputs": [
        {
          "internalType": "address[]",
          "name": "usrs",
          "type": "address[]"
        },
        {
          "internalType": "string",
          "name": "projectName",
          "type": "string"
        }
      ],
      "name": "distribute",
      "outputs": [],
      "stateMutability": "nonpayable",
      "type": "function"
    },
    {
      "inputs": [],
      "name": "startDistribution",
      "outputs": [],
      "stateMutability": "nonpayable",
      "type": "function"
    },
    {
      "inputs": [],
      "name": "claimPendingTokens",
      "outputs": [],
      "stateMutability": "nonpayable",
      "type": "function"
    }
  ],
  "bytecode": "0x608060405234801561001057600080fd5b50604051610414380380610414833981810160405281019061003291906100db565b806000806101000a81548173ffffffffffffffffffffffffffffffffffffffff021916908373ffffffffffffffffffffffffffffffffffffffff16021790555050610108565b600080fd5b600073ffffffffffffffffffffffffffffffffffffffff82169050919050565b60006100a88261007d565b9050919050565b6100b88161009d565b81146100c357600080fd5b50565b6000815190506100d5816100af565b92915050565b6000602082840312156100f1576100f0610078565b5b60006100ff848285016100c6565b91505092915050565b6102fd806101176000396000f3fe608060405234801561001057600080fd5b506004361061004c5760003560e01c80635f26abb11461005157806380cd769a1461006d5780639d5c5c9014610077578063d83623dd146100a7575b600080fd5b61006b60048036038101906100669190610187565b6100b1565b005b6100756100b7565b005b610091600480360381019061008c9190610266565b6100b9565b60405161009e91906102ac565b60405180910390f35b6100af6100c0565b005b50505050565b565b6000919050565b565b600080fd5b600080fd5b600080fd5b600080fd5b600080fd5b60008083601f8401126100f1576100f06100cc565b5b8235905067ffffffffffffffff81111561010e5761010d6100d1565b5b60208301915083602082028301111561012a576101296100d6565b5b9250929050565b60008083601f840112610147576101466100cc565b5b8235905067ffffffffffffffff811115610164576101636100d1565b5b6020830191508360018202830111156101805761017f6100d6565b5b9250929050565b600080600080604085870312156101a1576101a06100c2565b5b600085013567ffffffffffffffff8111156101bf576101be6100c7565b5b6101cb878288016100db565b9450945050602085013567ffffffffffffffff8111156101ee576101ed6100c7565b5b6101fa87828801610131565b925092505092959194509250565b600073ffffffffffffffffffffffffffffffffffffffff82169050919050565b600061023382610208565b9050919050565b61024381610228565b811461024e57600080fd5b50565b6000813590506102608161023a565b92915050565b60006020828403121561027c5761027b6100c2565b5b600061028a84828501610251565b91505092915050565b6000819050919050565b6102a681610293565b82525050565b60006020820190506102c1600083018461029d565b9291505056fea26469706673582212205967390fe48d1150e975ebe7fb6556f96b86937f6f8f8bdaf920bd9b6cfb071564736f6c634300080d0033",
  "immutableReferences": {},
  "source": "// SPDX-License-Identifier: MIT\r\npragma solidity ^0.8.2;\r\nimport \"./Steps.sol\";\r\n\r\n// each user has an array of his mints, and every new mint you check how much time left and how many he spent from his calculated amount\r\ncontract TokenDistribution {\r\n    Steps projectsContract;\r\n\r\n    constructor(address _projectsContract) {\r\n        projectsContract = Steps(_projectsContract);\r\n    } \r\n\r\n    function getDistributionBalanceOf(address usr) public view returns (uint) {\r\n\r\n    }\r\n\r\n    function distribute(address[] calldata usrs, string calldata projectName) public {\r\n\r\n    }\r\n\r\n    function startDistribution() public {\r\n\r\n    }\r\n\r\n    function claimPendingTokens() external {\r\n\r\n    }\r\n\r\n}\r\n",
  "sourcePath": "c:\\Users\\User\\Desktop\\\\davidson\\project\\DavidsonProject\\Smart Contract\\contracts\\TokenDistribution.sol",
  "compiler": {
    "name": "solc",
    "version": "0.8.13+commit.abaa5c0e.Emscripten.clang"
  },
  "schemaVersion": "3.4.7",
  "updatedAt": "2024-03-03T22:01:10.860Z",
  "devdoc": {
    "kind": "dev",
    "methods": {},
    "version": 1
  },
  "userdoc": {
    "kind": "user",
    "methods": {},
    "version": 1
  }
}