{
  "contractName": "TokenDistribution",
  "abi": [
    {
      "inputs": [
        {
          "internalType": "address",
          "name": "_tokenAddress",
          "type": "address"
        }
      ],
      "stateMutability": "nonpayable",
      "type": "constructor"
    },
    {
      "anonymous": false,
      "inputs": [
        {
          "indexed": false,
          "internalType": "string",
          "name": "message",
          "type": "string"
        },
        {
          "indexed": false,
          "internalType": "string",
          "name": "projectName",
          "type": "string"
        },
        {
          "indexed": false,
          "internalType": "string",
          "name": "changeCID",
          "type": "string"
        }
      ],
      "name": "NewChangeIsMadeToProject",
      "type": "event"
    },
    {
      "anonymous": false,
      "inputs": [
        {
          "indexed": false,
          "internalType": "string",
          "name": "message",
          "type": "string"
        },
        {
          "indexed": false,
          "internalType": "string",
          "name": "Name",
          "type": "string"
        },
        {
          "indexed": false,
          "internalType": "string",
          "name": "CID",
          "type": "string"
        },
        {
          "indexed": false,
          "internalType": "uint256",
          "name": "indexValue",
          "type": "uint256"
        }
      ],
      "name": "NewChangeProposalCreated",
      "type": "event"
    },
    {
      "anonymous": false,
      "inputs": [
        {
          "indexed": false,
          "internalType": "string",
          "name": "message",
          "type": "string"
        },
        {
          "indexed": false,
          "internalType": "string",
          "name": "name",
          "type": "string"
        },
        {
          "indexed": false,
          "internalType": "uint256",
          "name": "value",
          "type": "uint256"
        }
      ],
      "name": "NewProjectCreated",
      "type": "event"
    },
    {
      "anonymous": false,
      "inputs": [
        {
          "indexed": false,
          "internalType": "string",
          "name": "message",
          "type": "string"
        },
        {
          "indexed": false,
          "internalType": "string",
          "name": "projectName",
          "type": "string"
        },
        {
          "indexed": false,
          "internalType": "string",
          "name": "changeProposalCID",
          "type": "string"
        },
        {
          "indexed": false,
          "internalType": "address",
          "name": "voter",
          "type": "address"
        }
      ],
      "name": "NewVoteForChangeProposal",
      "type": "event"
    },
    {
      "anonymous": false,
      "inputs": [
        {
          "indexed": false,
          "internalType": "string",
          "name": "message",
          "type": "string"
        },
        {
          "indexed": false,
          "internalType": "string",
          "name": "changeCID",
          "type": "string"
        },
        {
          "indexed": false,
          "internalType": "string",
          "name": "ProjectName",
          "type": "string"
        }
      ],
      "name": "ProjectWentBack",
      "type": "event"
    },
    {
      "anonymous": false,
      "inputs": [
        {
          "indexed": false,
          "internalType": "string",
          "name": "message",
          "type": "string"
        },
        {
          "indexed": false,
          "internalType": "uint256",
          "name": "lastDistributionTime",
          "type": "uint256"
        }
      ],
      "name": "TokensDisributed",
      "type": "event"
    },
    {
      "inputs": [],
      "name": "ClaimingInterval",
      "outputs": [
        {
          "internalType": "uint256",
          "name": "",
          "type": "uint256"
        }
      ],
      "stateMutability": "view",
      "type": "function",
      "constant": true
    },
    {
      "inputs": [
        {
          "internalType": "string",
          "name": "",
          "type": "string"
        }
      ],
      "name": "NameToID",
      "outputs": [
        {
          "internalType": "uint256",
          "name": "",
          "type": "uint256"
        }
      ],
      "stateMutability": "view",
      "type": "function",
      "constant": true
    },
    {
      "inputs": [],
      "name": "TimeLockInterval",
      "outputs": [
        {
          "internalType": "uint256",
          "name": "",
          "type": "uint256"
        }
      ],
      "stateMutability": "view",
      "type": "function",
      "constant": true
    },
    {
      "inputs": [
        {
          "internalType": "string",
          "name": "changeProposalCID",
          "type": "string"
        },
        {
          "internalType": "string",
          "name": "projectName",
          "type": "string"
        }
      ],
      "name": "acceptChangeProposal",
      "outputs": [],
      "stateMutability": "nonpayable",
      "type": "function"
    },
    {
      "inputs": [
        {
          "internalType": "string",
          "name": "changeCID",
          "type": "string"
        },
        {
          "internalType": "string",
          "name": "projectName",
          "type": "string"
        }
      ],
      "name": "acceptRemoval",
      "outputs": [],
      "stateMutability": "nonpayable",
      "type": "function"
    },
    {
      "inputs": [
        {
          "internalType": "string",
          "name": "changeCID",
          "type": "string"
        },
        {
          "internalType": "string",
          "name": "projectName",
          "type": "string"
        }
      ],
      "name": "createProject",
      "outputs": [],
      "stateMutability": "nonpayable",
      "type": "function"
    },
    {
      "inputs": [
        {
          "internalType": "address",
          "name": "UserAddress",
          "type": "address"
        },
        {
          "internalType": "string",
          "name": "projectName",
          "type": "string"
        }
      ],
      "name": "getBalance",
      "outputs": [
        {
          "internalType": "uint256",
          "name": "",
          "type": "uint256"
        }
      ],
      "stateMutability": "view",
      "type": "function",
      "constant": true
    },
    {
      "inputs": [
        {
          "internalType": "string",
          "name": "projectName",
          "type": "string"
        },
        {
          "internalType": "string",
          "name": "changeCID",
          "type": "string"
        }
      ],
      "name": "getChangeMaker",
      "outputs": [
        {
          "internalType": "address",
          "name": "",
          "type": "address"
        }
      ],
      "stateMutability": "view",
      "type": "function",
      "constant": true
    },
    {
      "inputs": [
        {
          "internalType": "string",
          "name": "changeCID",
          "type": "string"
        },
        {
          "internalType": "bool",
          "name": "isChange",
          "type": "bool"
        },
        {
          "internalType": "string",
          "name": "projectName",
          "type": "string"
        }
      ],
      "name": "getChangeVotes",
      "outputs": [
        {
          "internalType": "uint256",
          "name": "",
          "type": "uint256"
        }
      ],
      "stateMutability": "view",
      "type": "function",
      "constant": true
    },
    {
      "inputs": [
        {
          "internalType": "string",
          "name": "projectName",
          "type": "string"
        },
        {
          "internalType": "bool",
          "name": "changesOrChangeProposals",
          "type": "bool"
        }
      ],
      "name": "getChangesOrProposals",
      "outputs": [
        {
          "internalType": "string[]",
          "name": "",
          "type": "string[]"
        }
      ],
      "stateMutability": "view",
      "type": "function",
      "constant": true
    },
    {
      "inputs": [],
      "name": "getLastProjects",
      "outputs": [
        {
          "internalType": "string[]",
          "name": "",
          "type": "string[]"
        }
      ],
      "stateMutability": "view",
      "type": "function",
      "constant": true
    },
    {
      "inputs": [
        {
          "internalType": "string",
          "name": "projectName",
          "type": "string"
        }
      ],
      "name": "getParticipants",
      "outputs": [
        {
          "internalType": "address[]",
          "name": "",
          "type": "address[]"
        }
      ],
      "stateMutability": "view",
      "type": "function",
      "constant": true
    },
    {
      "inputs": [
        {
          "internalType": "string",
          "name": "projectName",
          "type": "string"
        }
      ],
      "name": "getTotalTokens",
      "outputs": [
        {
          "internalType": "uint256",
          "name": "",
          "type": "uint256"
        }
      ],
      "stateMutability": "view",
      "type": "function",
      "constant": true
    },
    {
      "inputs": [
        {
          "internalType": "address",
          "name": "addr",
          "type": "address"
        },
        {
          "internalType": "string",
          "name": "changeProposalCID",
          "type": "string"
        },
        {
          "internalType": "bool",
          "name": "isChange",
          "type": "bool"
        },
        {
          "internalType": "string",
          "name": "projectName",
          "type": "string"
        }
      ],
      "name": "isVoted",
      "outputs": [
        {
          "internalType": "bool",
          "name": "",
          "type": "bool"
        }
      ],
      "stateMutability": "view",
      "type": "function",
      "constant": true
    },
    {
      "inputs": [
        {
          "internalType": "string",
          "name": "changeCID",
          "type": "string"
        },
        {
          "internalType": "bool",
          "name": "isChange",
          "type": "bool"
        },
        {
          "internalType": "string",
          "name": "projectName",
          "type": "string"
        }
      ],
      "name": "removeVote",
      "outputs": [],
      "stateMutability": "nonpayable",
      "type": "function"
    },
    {
      "inputs": [],
      "name": "token",
      "outputs": [
        {
          "internalType": "contract ProjectsToken",
          "name": "",
          "type": "address"
        }
      ],
      "stateMutability": "view",
      "type": "function",
      "constant": true
    },
    {
      "inputs": [
        {
          "internalType": "string",
          "name": "changeCID",
          "type": "string"
        },
        {
          "internalType": "string",
          "name": "projectName",
          "type": "string"
        }
      ],
      "name": "uploadChangeProposal",
      "outputs": [],
      "stateMutability": "nonpayable",
      "type": "function"
    },
    {
      "inputs": [
        {
          "internalType": "string",
          "name": "changeProposalCID",
          "type": "string"
        },
        {
          "internalType": "bool",
          "name": "isChange",
          "type": "bool"
        },
        {
          "internalType": "string",
          "name": "projectName",
          "type": "string"
        }
      ],
      "name": "voteForChangeProposal",
      "outputs": [],
      "stateMutability": "nonpayable",
      "type": "function"
    },
    {
      "inputs": [
        {
          "internalType": "address",
          "name": "usr",
          "type": "address"
        },
        {
          "internalType": "string",
          "name": "projectName",
          "type": "string"
        }
      ],
      "name": "getDistributionBalanceOf",
      "outputs": [
        {
          "internalType": "uint256",
          "name": "",
          "type": "uint256"
        }
      ],
      "stateMutability": "view",
      "type": "function",
      "constant": true
    },
    {
      "inputs": [
        {
          "internalType": "address[]",
          "name": "recipients",
          "type": "address[]"
        },
        {
          "internalType": "uint256[]",
          "name": "amounts",
          "type": "uint256[]"
        },
        {
          "internalType": "string",
          "name": "projectName",
          "type": "string"
        }
      ],
      "name": "distribute",
      "outputs": [],
      "stateMutability": "nonpayable",
      "type": "function"
    },
    {
      "inputs": [
        {
          "internalType": "string",
          "name": "projectName",
          "type": "string"
        }
      ],
      "name": "startDistribution",
      "outputs": [],
      "stateMutability": "nonpayable",
      "type": "function"
    },
    {
      "inputs": [
        {
          "internalType": "string",
          "name": "projectName",
          "type": "string"
        }
      ],
      "name": "claimPendingTokens",
      "outputs": [],
      "stateMutability": "nonpayable",
      "type": "function"
    },
    {
      "inputs": [
        {
          "internalType": "string",
          "name": "projectName",
          "type": "string"
        }
      ],
      "name": "getLastDistriubtionTime",
      "outputs": [
        {
          "internalType": "uint256",
          "name": "",
          "type": "uint256"
        }
      ],
      "stateMutability": "view",
      "type": "function",
      "constant": true
    },
    {
      "inputs": [
        {
          "internalType": "address",
          "name": "usr",
          "type": "address"
        },
        {
          "internalType": "string",
          "name": "projectName",
          "type": "string"
        }
      ],
      "name": "getPendingTokens",
      "outputs": [
        {
          "internalType": "uint256",
          "name": "",
          "type": "uint256"
        }
      ],
      "stateMutability": "view",
      "type": "function",
      "constant": true
    }
  ],
  "bytecode": "0x60806040523480156200001157600080fd5b50604051620060b0380380620060b08339818101604052810190620000379190620000eb565b8080600260006101000a81548173ffffffffffffffffffffffffffffffffffffffff021916908373ffffffffffffffffffffffffffffffffffffffff16021790555050506200011d565b600080fd5b600073ffffffffffffffffffffffffffffffffffffffff82169050919050565b6000620000b38262000086565b9050919050565b620000c581620000a6565b8114620000d157600080fd5b50565b600081519050620000e581620000ba565b92915050565b60006020828403121562000104576200010362000081565b5b60006200011484828501620000d4565b91505092915050565b615f83806200012d6000396000f3fe608060405234801561001057600080fd5b50600436106101585760003560e01c80637e90def7116100c3578063a90d00cd1161007c578063a90d00cd14610423578063eb8892fc14610453578063ebe1c3081461046f578063ed0c2d901461048b578063f396530f146104a7578063fc0c546a146104c357610158565b80637e90def71461033d5780637ec156741461036d57806382f24882146103895780639f6806ec146103b9578063a54d804d146103d5578063a8363610146103f357610158565b80634a513875116101155780634a5138751461026957806351e684ba1461028557806354696993146102a35780636ad40d79146102d35780636bd06204146103035780637a5945da1461031f57610158565b80631d7147d81461015d5780631dd7cecf1461018d57806333846eba146101bd57806347d8899a146101ed57806349b7b6401461021d57806349bdbe6f1461024d575b600080fd5b610177600480360381019061017291906142ce565b6104e1565b6040516101849190614489565b60405180910390f35b6101a760048036038101906101a29190614509565b6106fa565b6040516101b49190614582565b60405180910390f35b6101d760048036038101906101d291906146cd565b610906565b6040516101e49190614582565b60405180910390f35b61020760048036038101906102029190614716565b610934565b6040516102149190614582565b60405180910390f35b61023760048036038101906102329190614509565b610acd565b6040516102449190614582565b60405180910390f35b61026760048036038101906102629190614763565b610ea0565b005b610283600480360381019061027e91906147df565b611176565b005b61028d6115ab565b60405161029a9190614582565b60405180910390f35b6102bd60048036038101906102b89190614509565b6115b0565b6040516102ca9190614582565b60405180910390f35b6102ed60048036038101906102e89190614860565b61178a565b6040516102fa9190614582565b60405180910390f35b61031d600480360381019061031891906148f5565b611b70565b005b610327611d4e565b6040516103349190614582565b60405180910390f35b61035760048036038101906103529190614716565b611d53565b6040516103649190614a2b565b60405180910390f35b61038760048036038101906103829190614716565b611ef3565b005b6103a3600480360381019061039e9190614a4d565b612135565b6040516103b09190614b03565b60405180910390f35b6103d360048036038101906103ce9190614cd0565b6123df565b005b6103dd612893565b6040516103ea9190614489565b60405180910390f35b61040d60048036038101906104089190614716565b6129e4565b60405161041a9190614582565b60405180910390f35b61043d600480360381019061043891906147df565b612bee565b60405161044a9190614d8b565b60405180910390f35b61046d60048036038101906104689190614da6565b612e05565b005b61048960048036038101906104849190614e36565b613396565b005b6104a560048036038101906104a091906147df565b6137af565b005b6104c160048036038101906104bc9190614716565b613bf3565b005b6104cb613f27565b6040516104d89190614f25565b60405180910390f35b606083838080601f016020809104026020016040519081016040528093929190818152602001838380828437600081840152601f19601f82011690508083019250505050505050600080826040516105399190614f7c565b9081526020016040518091039020549050600260009054906101000a900473ffffffffffffffffffffffffffffffffffffffff1673ffffffffffffffffffffffffffffffffffffffff16634f558e79826040518263ffffffff1660e01b81526004016105a59190614582565b602060405180830381865afa1580156105c2573d6000803e3d6000fd5b505050506040513d601f19601f820116820180604052508101906105e69190614fa8565b610625576040517f08c379a000000000000000000000000000000000000000000000000000000000815260040161061c90615032565b60405180910390fd5b6000808787604051610638929190615077565b90815260200160405180910390205490506001818154811061065d5761065c615090565b5b906000526020600020906007020160010173__ChangesLibrary________________________6395f4120c9091876040518363ffffffff1660e01b81526004016106a89291906150d5565b600060405180830381865af41580156106c5573d6000803e3d6000fd5b505050506040513d6000823e3d601f19601f820116820180604052508101906106ee919061524f565b93505050509392505050565b600082828080601f016020809104026020016040519081016040528093929190818152602001838380828437600081840152601f19601f82011690508083019250505050505050600080826040516107529190614f7c565b9081526020016040518091039020549050600260009054906101000a900473ffffffffffffffffffffffffffffffffffffffff1673ffffffffffffffffffffffffffffffffffffffff16634f558e79826040518263ffffffff1660e01b81526004016107be9190614582565b602060405180830381865afa1580156107db573d6000803e3d6000fd5b505050506040513d601f19601f820116820180604052508101906107ff9190614fa8565b61083e576040517f08c379a000000000000000000000000000000000000000000000000000000000815260040161083590615032565b60405180910390fd5b600260009054906101000a900473ffffffffffffffffffffffffffffffffffffffff1673ffffffffffffffffffffffffffffffffffffffff1662fdd58e876000888860405161088e929190615077565b9081526020016040518091039020546040518363ffffffff1660e01b81526004016108ba929190615298565b602060405180830381865afa1580156108d7573d6000803e3d6000fd5b505050506040513d601f19601f820116820180604052508101906108fb91906152d6565b925050509392505050565b6000818051602081018201805184825260208301602085012081835280955050505050506000915090505481565b600082828080601f016020809104026020016040519081016040528093929190818152602001838380828437600081840152601f19601f820116905080830192505050505050506000808260405161098c9190614f7c565b9081526020016040518091039020549050600260009054906101000a900473ffffffffffffffffffffffffffffffffffffffff1673ffffffffffffffffffffffffffffffffffffffff16634f558e79826040518263ffffffff1660e01b81526004016109f89190614582565b602060405180830381865afa158015610a15573d6000803e3d6000fd5b505050506040513d601f19601f82011682018060405250810190610a399190614fa8565b610a78576040517f08c379a0000000000000000000000000000000000000000000000000000000008152600401610a6f90615032565b60405180910390fd5b6000808686604051610a8b929190615077565b908152602001604051809103902054905060018181548110610ab057610aaf615090565b5b906000526020600020906007020160020154935050505092915050565b600082828080601f016020809104026020016040519081016040528093929190818152602001838380828437600081840152601f19601f8201169050808301925050505050505060008082604051610b259190614f7c565b9081526020016040518091039020549050600260009054906101000a900473ffffffffffffffffffffffffffffffffffffffff1673ffffffffffffffffffffffffffffffffffffffff16634f558e79826040518263ffffffff1660e01b8152600401610b919190614582565b602060405180830381865afa158015610bae573d6000803e3d6000fd5b505050506040513d601f19601f82011682018060405250810190610bd29190614fa8565b610c11576040517f08c379a0000000000000000000000000000000000000000000000000000000008152600401610c0890615032565b60405180910390fd5b6000808686604051610c24929190615077565b9081526020016040518091039020549050600060018281548110610c4b57610c4a615090565b5b90600052602060002090600702016002015490506000600260009054906101000a900473ffffffffffffffffffffffffffffffffffffffff1673ffffffffffffffffffffffffffffffffffffffff1662fdd58e8a856040518363ffffffff1660e01b8152600401610cbd929190615298565b602060405180830381865afa158015610cda573d6000803e3d6000fd5b505050506040513d601f19601f82011682018060405250810190610cfe91906152d6565b90506000600260009054906101000a900473ffffffffffffffffffffffffffffffffffffffff1673ffffffffffffffffffffffffffffffffffffffff1663bd85b039856040518263ffffffff1660e01b8152600401610d5d9190614582565b602060405180830381865afa158015610d7a573d6000803e3d6000fd5b505050506040513d601f19601f82011682018060405250810190610d9e91906152d6565b606483610dab9190615332565b610db591906153bb565b905060008103610dcc576000965050505050610e97565b60648160018681548110610de357610de2615090565b5b906000526020600020906007020160030154610dff9190615332565b610e0991906153bb565b905060018481548110610e1f57610e1e615090565b5b906000526020600020906007020160060160008b73ffffffffffffffffffffffffffffffffffffffff1673ffffffffffffffffffffffffffffffffffffffff16815260200190815260200160002060010160008481526020019081526020016000205481610e8d91906153ec565b9050809650505050505b50509392505050565b81818080601f016020809104026020016040519081016040528093929190818152602001838380828437600081840152601f19601f8201169050808301925050505050505060008082604051610ef69190614f7c565b9081526020016040518091039020549050600260009054906101000a900473ffffffffffffffffffffffffffffffffffffffff1673ffffffffffffffffffffffffffffffffffffffff16634f558e79826040518263ffffffff1660e01b8152600401610f629190614582565b602060405180830381865afa158015610f7f573d6000803e3d6000fd5b505050506040513d601f19601f82011682018060405250810190610fa39190614fa8565b610fe2576040517f08c379a0000000000000000000000000000000000000000000000000000000008152600401610fd990615032565b60405180910390fd5b6000808585604051610ff5929190615077565b90815260200160405180910390205490506001818154811061101a57611019615090565b5b906000526020600020906007020160010173__ChangesLibrary________________________63ddaee8df9091886040518363ffffffff1660e01b815260040161106592919061546a565b60006040518083038186803b15801561107d57600080fd5b505af4158015611091573d6000803e3d6000fd5b5050505060018082815481106110aa576110a9615090565b5b906000526020600020906007020160060160003373ffffffffffffffffffffffffffffffffffffffff1673ffffffffffffffffffffffffffffffffffffffff168152602001908152602001600020600001876040516111099190614f7c565b908152602001604051809103902060000160006101000a81548160ff0219169083151502179055507f7b7acf540aac5e16ce3dfbd4d106c203a301da603c18502d179f60282962e5c4858588846040516111669493929190615598565b60405180910390a1505050505050565b81818080601f016020809104026020016040519081016040528093929190818152602001838380828437600081840152601f19601f82011690508083019250505050505050600080826040516111cc9190614f7c565b9081526020016040518091039020549050600260009054906101000a900473ffffffffffffffffffffffffffffffffffffffff1673ffffffffffffffffffffffffffffffffffffffff16634f558e79826040518263ffffffff1660e01b81526004016112389190614582565b602060405180830381865afa158015611255573d6000803e3d6000fd5b505050506040513d601f19601f820116820180604052508101906112799190614fa8565b6112b8576040517f08c379a00000000000000000000000000000000000000000000000000000000081526004016112af90615032565b60405180910390fd5b60008085856040516112cb929190615077565b9081526020016040518091039020549050600260009054906101000a900473ffffffffffffffffffffffffffffffffffffffff1673ffffffffffffffffffffffffffffffffffffffff1663bd85b039826040518263ffffffff1660e01b81526004016113379190614582565b602060405180830381865afa158015611354573d6000803e3d6000fd5b505050506040513d601f19601f8201168201806040525081019061137891906152d6565b6002611388898960008a8a61178a565b6113929190615332565b1161139c57600080fd5b600080600090505b6113d1600184815481106113bb576113ba615090565b5b9060005260206000209060070201600401613f4d565b8110156114d25761140f81600185815481106113f0576113ef615090565b5b9060005260206000209060070201600401613f6290919063ffffffff16565b91506001838154811061142557611424615090565b5b906000526020600020906007020160060160008373ffffffffffffffffffffffffffffffffffffffff1673ffffffffffffffffffffffffffffffffffffffff1681526020019081526020016000206000018989604051611486929190615077565b9081526020016040518091039020600080820160006101000a81549060ff02191690556000820160016101000a81549060ff0219169055505080806114ca906155f2565b9150506113a4565b50600182815481106114e7576114e6615090565b5b906000526020600020906007020160010173__ChangesLibrary________________________6313680a3990918a8a6040518463ffffffff1660e01b815260040161153493929190615667565b60006040518083038186803b15801561154c57600080fd5b505af4158015611560573d6000803e3d6000fd5b505050507f718a982b61bc723a0c68281b0eb10e1cff37bd89888841ae545c98cd5493a0568888888860405161159994939291906156e5565b60405180910390a15050505050505050565b607881565b600082828080601f016020809104026020016040519081016040528093929190818152602001838380828437600081840152601f19601f82011690508083019250505050505050600080826040516116089190614f7c565b9081526020016040518091039020549050600260009054906101000a900473ffffffffffffffffffffffffffffffffffffffff1673ffffffffffffffffffffffffffffffffffffffff16634f558e79826040518263ffffffff1660e01b81526004016116749190614582565b602060405180830381865afa158015611691573d6000803e3d6000fd5b505050506040513d601f19601f820116820180604052508101906116b59190614fa8565b6116f4576040517f08c379a00000000000000000000000000000000000000000000000000000000081526004016116eb90615032565b60405180910390fd5b6000808686604051611707929190615077565b90815260200160405180910390205490506001818154811061172c5761172b615090565b5b906000526020600020906007020160060160008873ffffffffffffffffffffffffffffffffffffffff1673ffffffffffffffffffffffffffffffffffffffff1681526020019081526020016000206002015493505050509392505050565b600082828080601f016020809104026020016040519081016040528093929190818152602001838380828437600081840152601f19601f82011690508083019250505050505050600080826040516117e29190614f7c565b9081526020016040518091039020549050600260009054906101000a900473ffffffffffffffffffffffffffffffffffffffff1673ffffffffffffffffffffffffffffffffffffffff16634f558e79826040518263ffffffff1660e01b815260040161184e9190614582565b602060405180830381865afa15801561186b573d6000803e3d6000fd5b505050506040513d601f19601f8201168201806040525081019061188f9190614fa8565b6118ce576040517f08c379a00000000000000000000000000000000000000000000000000000000081526004016118c590615032565b60405180910390fd5b60008086866040516118e1929190615077565b908152602001604051809103902054905060008080600090505b6119286001858154811061191257611911615090565b5b9060005260206000209060070201600401613f4d565b811015611b5e57611966816001868154811061194757611946615090565b5b9060005260206000209060070201600401613f6290919063ffffffff16565b915089611a06576001848154811061198157611980615090565b5b906000526020600020906007020160060160008373ffffffffffffffffffffffffffffffffffffffff1673ffffffffffffffffffffffffffffffffffffffff1681526020019081526020016000206000018c8c6040516119e2929190615077565b908152602001604051809103902060000160019054906101000a900460ff16611a9b565b60018481548110611a1a57611a19615090565b5b906000526020600020906007020160060160008373ffffffffffffffffffffffffffffffffffffffff1673ffffffffffffffffffffffffffffffffffffffff1681526020019081526020016000206000018c8c604051611a7b929190615077565b908152602001604051809103902060000160009054906101000a900460ff165b15611b4b57600260009054906101000a900473ffffffffffffffffffffffffffffffffffffffff1673ffffffffffffffffffffffffffffffffffffffff1662fdd58e83866040518363ffffffff1660e01b8152600401611afc929190615298565b602060405180830381865afa158015611b19573d6000803e3d6000fd5b505050506040513d601f19601f82011682018060405250810190611b3d91906152d6565b83611b489190615733565b92505b8080611b56906155f2565b9150506118fb565b50819550505050505095945050505050565b6000600180549050905080600083604051611b8b9190614f7c565b908152602001604051809103902081905550600260009054906101000a900473ffffffffffffffffffffffffffffffffffffffff1673ffffffffffffffffffffffffffffffffffffffff1663156e29f6338360646040518463ffffffff1660e01b8152600401611bfd939291906157c4565b600060405180830381600087803b158015611c1757600080fd5b505af1158015611c2b573d6000803e3d6000fd5b50505050600060018081600181540180825580915050039060005260206000209060070201905082816000019080519060200190611c6a92919061417a565b508060010173__ChangesLibrary________________________6381659a909091866040518363ffffffff1660e01b8152600401611ca992919061546a565b60006040518083038186803b158015611cc157600080fd5b505af4158015611cd5573d6000803e3d6000fd5b505050506064816003018190555060f042611cf09190615733565b8160020181905550611d0e3382600401613f7c90919063ffffffff16565b507fe224389b386caecb8e3b38edc39361c7227e3ef820a8276bc31ac9cf1ba69fcd8383604051611d40929190615847565b60405180910390a150505050565b60f081565b606082828080601f016020809104026020016040519081016040528093929190818152602001838380828437600081840152601f19601f8201169050808301925050505050505060008082604051611dab9190614f7c565b9081526020016040518091039020549050600260009054906101000a900473ffffffffffffffffffffffffffffffffffffffff1673ffffffffffffffffffffffffffffffffffffffff16634f558e79826040518263ffffffff1660e01b8152600401611e179190614582565b602060405180830381865afa158015611e34573d6000803e3d6000fd5b505050506040513d601f19601f82011682018060405250810190611e589190614fa8565b611e97576040517f08c379a0000000000000000000000000000000000000000000000000000000008152600401611e8e90615032565b60405180910390fd5b6000808686604051611eaa929190615077565b9081526020016040518091039020549050611ee860018281548110611ed257611ed1615090565b5b9060005260206000209060070201600401613fac565b935050505092915050565b81818080601f016020809104026020016040519081016040528093929190818152602001838380828437600081840152601f19601f8201169050808301925050505050505060008082604051611f499190614f7c565b9081526020016040518091039020549050600260009054906101000a900473ffffffffffffffffffffffffffffffffffffffff1673ffffffffffffffffffffffffffffffffffffffff16634f558e79826040518263ffffffff1660e01b8152600401611fb59190614582565b602060405180830381865afa158015611fd2573d6000803e3d6000fd5b505050506040513d601f19601f82011682018060405250810190611ff69190614fa8565b612035576040517f08c379a000000000000000000000000000000000000000000000000000000000815260040161202c90615032565b60405180910390fd5b6000808585604051612048929190615077565b908152602001604051809103902054905060786001828154811061206f5761206e615090565b5b90600052602060002090600702016002015461208b9190615733565b4210156120cd576040517f08c379a00000000000000000000000000000000000000000000000000000000081526004016120c4906158d6565b60405180910390fd5b6064600182815481106120e3576120e2615090565b5b90600052602060002090600702016003018190555060f0426121059190615733565b6001828154811061211957612118615090565b5b9060005260206000209060070201600201819055505050505050565b600082828080601f016020809104026020016040519081016040528093929190818152602001838380828437600081840152601f19601f820116905080830192505050505050506000808260405161218d9190614f7c565b9081526020016040518091039020549050600260009054906101000a900473ffffffffffffffffffffffffffffffffffffffff1673ffffffffffffffffffffffffffffffffffffffff16634f558e79826040518263ffffffff1660e01b81526004016121f99190614582565b602060405180830381865afa158015612216573d6000803e3d6000fd5b505050506040513d601f19601f8201168201806040525081019061223a9190614fa8565b612279576040517f08c379a000000000000000000000000000000000000000000000000000000000815260040161227090615032565b60405180910390fd5b600080868660405161228c929190615077565b90815260200160405180910390205490508661233b57600181815481106122b6576122b5615090565b5b906000526020600020906007020160060160008b73ffffffffffffffffffffffffffffffffffffffff1673ffffffffffffffffffffffffffffffffffffffff1681526020019081526020016000206000018989604051612317929190615077565b908152602001604051809103902060000160019054906101000a900460ff166123d0565b6001818154811061234f5761234e615090565b5b906000526020600020906007020160060160008b73ffffffffffffffffffffffffffffffffffffffff1673ffffffffffffffffffffffffffffffffffffffff16815260200190815260200160002060000189896040516123b0929190615077565b908152602001604051809103902060000160009054906101000a900460ff165b93505050509695505050505050565b81818080601f016020809104026020016040519081016040528093929190818152602001838380828437600081840152601f19601f82011690508083019250505050505050600080826040516124359190614f7c565b9081526020016040518091039020549050600260009054906101000a900473ffffffffffffffffffffffffffffffffffffffff1673ffffffffffffffffffffffffffffffffffffffff16634f558e79826040518263ffffffff1660e01b81526004016124a19190614582565b602060405180830381865afa1580156124be573d6000803e3d6000fd5b505050506040513d601f19601f820116820180604052508101906124e29190614fa8565b612521576040517f08c379a000000000000000000000000000000000000000000000000000000000815260040161251890615032565b60405180910390fd5b6000808585604051612534929190615077565b9081526020016040518091039020549050600061255087613fcd565b90508651885114612596576040517f08c379a000000000000000000000000000000000000000000000000000000000815260040161258d90615942565b60405180910390fd5b42600183815481106125ab576125aa615090565b5b906000526020600020906007020160020154116125fd576040517f08c379a00000000000000000000000000000000000000000000000000000000081526004016125f4906159ae565b60405180910390fd5b612608338787610acd565b81111561264a576040517f08c379a000000000000000000000000000000000000000000000000000000000815260040161264190615a1a565b60405180910390fd5b60005b885181101561270057600015156126ab8a83815181106126705761266f615090565b5b60200260200101516001868154811061268c5761268b615090565b5b906000526020600020906007020160040161401f90919063ffffffff16565b1515036126ed576040517f08c379a00000000000000000000000000000000000000000000000000000000081526004016126e490615a86565b60405180910390fd5b80806126f8906155f2565b91505061264d565b5060006001838154811061271757612716615090565b5b906000526020600020906007020160020154905060005b89518110156127fa5788818151811061274a57612749615090565b5b60200260200101516001858154811061276657612765615090565b5b906000526020600020906007020160060160008c848151811061278c5761278b615090565b5b602002602001015173ffffffffffffffffffffffffffffffffffffffff1673ffffffffffffffffffffffffffffffffffffffff16815260200190815260200160002060020160008282546127e09190615733565b9250508190555080806127f2906155f2565b91505061272e565b5081600184815481106128105761280f615090565b5b906000526020600020906007020160060160003373ffffffffffffffffffffffffffffffffffffffff1673ffffffffffffffffffffffffffffffffffffffff168152602001908152602001600020600101600083815260200190815260200160002060008282546128819190615733565b92505081905550505050505050505050565b60606000600180549050905060008167ffffffffffffffff8111156128bb576128ba6145a2565b5b6040519080825280602002602001820160405280156128ee57816020015b60608152602001906001900390816128d95790505b50905060005b828110156129db57600181815481106129105761290f615090565b5b9060005260206000209060070201600001805461292c90615ad5565b80601f016020809104026020016040519081016040528092919081815260200182805461295890615ad5565b80156129a55780601f1061297a576101008083540402835291602001916129a5565b820191906000526020600020905b81548152906001019060200180831161298857829003601f168201915b50505050508282815181106129bd576129bc615090565b5b602002602001018190525080806129d3906155f2565b9150506128f4565b50809250505090565b600082828080601f016020809104026020016040519081016040528093929190818152602001838380828437600081840152601f19601f8201169050808301925050505050505060008082604051612a3c9190614f7c565b9081526020016040518091039020549050600260009054906101000a900473ffffffffffffffffffffffffffffffffffffffff1673ffffffffffffffffffffffffffffffffffffffff16634f558e79826040518263ffffffff1660e01b8152600401612aa89190614582565b602060405180830381865afa158015612ac5573d6000803e3d6000fd5b505050506040513d601f19601f82011682018060405250810190612ae99190614fa8565b612b28576040517f08c379a0000000000000000000000000000000000000000000000000000000008152600401612b1f90615032565b60405180910390fd5b600260009054906101000a900473ffffffffffffffffffffffffffffffffffffffff1673ffffffffffffffffffffffffffffffffffffffff1663bd85b03960008787604051612b78929190615077565b9081526020016040518091039020546040518263ffffffff1660e01b8152600401612ba39190614582565b602060405180830381865afa158015612bc0573d6000803e3d6000fd5b505050506040513d601f19601f82011682018060405250810190612be491906152d6565b9250505092915050565b600084848080601f016020809104026020016040519081016040528093929190818152602001838380828437600081840152601f19601f8201169050808301925050505050505060008082604051612c469190614f7c565b9081526020016040518091039020549050600260009054906101000a900473ffffffffffffffffffffffffffffffffffffffff1673ffffffffffffffffffffffffffffffffffffffff16634f558e79826040518263ffffffff1660e01b8152600401612cb29190614582565b602060405180830381865afa158015612ccf573d6000803e3d6000fd5b505050506040513d601f19601f82011682018060405250810190612cf39190614fa8565b612d32576040517f08c379a0000000000000000000000000000000000000000000000000000000008152600401612d2990615032565b60405180910390fd5b6000808888604051612d45929190615077565b908152602001604051809103902054905060018181548110612d6a57612d69615090565b5b906000526020600020906007020160010173__ChangesLibrary________________________63681ef9ce909188886040518463ffffffff1660e01b8152600401612db793929190615667565b602060405180830381865af4158015612dd4573d6000803e3d6000fd5b505050506040513d601f19601f82011682018060405250810190612df89190615b1b565b9350505050949350505050565b81818080601f016020809104026020016040519081016040528093929190818152602001838380828437600081840152601f19601f8201169050808301925050505050505060008082604051612e5b9190614f7c565b9081526020016040518091039020549050600260009054906101000a900473ffffffffffffffffffffffffffffffffffffffff1673ffffffffffffffffffffffffffffffffffffffff16634f558e79826040518263ffffffff1660e01b8152600401612ec79190614582565b602060405180830381865afa158015612ee4573d6000803e3d6000fd5b505050506040513d601f19601f82011682018060405250810190612f089190614fa8565b612f47576040517f08c379a0000000000000000000000000000000000000000000000000000000008152600401612f3e90615032565b60405180910390fd5b6000808585604051612f5a929190615077565b9081526020016040518091039020549050851561304e576000151560018281548110612f8957612f88615090565b5b906000526020600020906007020160060160003373ffffffffffffffffffffffffffffffffffffffff1673ffffffffffffffffffffffffffffffffffffffff16815260200190815260200160002060000188604051612fe89190614f7c565b908152602001604051809103902060000160009054906101000a900460ff16151514613049576040517f08c379a000000000000000000000000000000000000000000000000000000000815260040161304090615b94565b60405180910390fd5b613127565b600015156001828154811061306657613065615090565b5b906000526020600020906007020160060160003373ffffffffffffffffffffffffffffffffffffffff1673ffffffffffffffffffffffffffffffffffffffff168152602001908152602001600020600001886040516130c59190614f7c565b908152602001604051809103902060000160019054906101000a900460ff16151514613126576040517f08c379a000000000000000000000000000000000000000000000000000000000815260040161311d90615b94565b60405180910390fd5b5b6000600260009054906101000a900473ffffffffffffffffffffffffffffffffffffffff1673ffffffffffffffffffffffffffffffffffffffff1662fdd58e33846040518363ffffffff1660e01b8152600401613185929190615298565b602060405180830381865afa1580156131a2573d6000803e3d6000fd5b505050506040513d601f19601f820116820180604052508101906131c691906152d6565b90506000811161320b576040517f08c379a000000000000000000000000000000000000000000000000000000000815260040161320290615c00565b60405180910390fd5b86156132b257600180838154811061322657613225615090565b5b906000526020600020906007020160060160003373ffffffffffffffffffffffffffffffffffffffff1673ffffffffffffffffffffffffffffffffffffffff168152602001908152602001600020600001896040516132859190614f7c565b908152602001604051809103902060000160006101000a81548160ff02191690831515021790555061334f565b60018083815481106132c7576132c6615090565b5b906000526020600020906007020160060160003373ffffffffffffffffffffffffffffffffffffffff1673ffffffffffffffffffffffffffffffffffffffff168152602001908152602001600020600001896040516133269190614f7c565b908152602001604051809103902060000160016101000a81548160ff0219169083151502179055505b7fb64f8561c8d312f5e6a3dbffda44bbb4d741f23969f1ea178a97d1428ebcaafe86868a336040516133849493929190615c6c565b60405180910390a15050505050505050565b80600080826040516133a89190614f7c565b9081526020016040518091039020549050600260009054906101000a900473ffffffffffffffffffffffffffffffffffffffff1673ffffffffffffffffffffffffffffffffffffffff16634f558e79826040518263ffffffff1660e01b81526004016134149190614582565b602060405180830381865afa158015613431573d6000803e3d6000fd5b505050506040513d601f19601f820116820180604052508101906134559190614fa8565b613494576040517f08c379a000000000000000000000000000000000000000000000000000000000815260040161348b90615032565b60405180910390fd5b600080846040516134a59190614f7c565b9081526020016040518091039020549050841561363357600181815481106134d0576134cf615090565b5b906000526020600020906007020160060160003373ffffffffffffffffffffffffffffffffffffffff1673ffffffffffffffffffffffffffffffffffffffff1681526020019081526020016000206000018787604051613531929190615077565b908152602001604051809103902060000160009054906101000a900460ff1661358f576040517f08c379a000000000000000000000000000000000000000000000000000000000815260040161358690615d38565b60405180910390fd5b6000600182815481106135a5576135a4615090565b5b906000526020600020906007020160060160003373ffffffffffffffffffffffffffffffffffffffff1673ffffffffffffffffffffffffffffffffffffffff1681526020019081526020016000206000018888604051613606929190615077565b908152602001604051809103902060000160006101000a81548160ff0219169083151502179055506137a6565b6001818154811061364757613646615090565b5b906000526020600020906007020160060160003373ffffffffffffffffffffffffffffffffffffffff1673ffffffffffffffffffffffffffffffffffffffff16815260200190815260200160002060000187876040516136a8929190615077565b908152602001604051809103902060000160019054906101000a900460ff16613706576040517f08c379a00000000000000000000000000000000000000000000000000000000081526004016136fd90615d38565b60405180910390fd5b60006001828154811061371c5761371b615090565b5b906000526020600020906007020160060160003373ffffffffffffffffffffffffffffffffffffffff1673ffffffffffffffffffffffffffffffffffffffff168152602001908152602001600020600001888860405161377d929190615077565b908152602001604051809103902060000160016101000a81548160ff0219169083151502179055505b50505050505050565b81818080601f016020809104026020016040519081016040528093929190818152602001838380828437600081840152601f19601f82011690508083019250505050505050600080826040516138059190614f7c565b9081526020016040518091039020549050600260009054906101000a900473ffffffffffffffffffffffffffffffffffffffff1673ffffffffffffffffffffffffffffffffffffffff16634f558e79826040518263ffffffff1660e01b81526004016138719190614582565b602060405180830381865afa15801561388e573d6000803e3d6000fd5b505050506040513d601f19601f820116820180604052508101906138b29190614fa8565b6138f1576040517f08c379a00000000000000000000000000000000000000000000000000000000081526004016138e890615032565b60405180910390fd5b6000808585604051613904929190615077565b90815260200160405180910390205490503373ffffffffffffffffffffffffffffffffffffffff16600182815481106139405761393f615090565b5b906000526020600020906007020160010173__ChangesLibrary________________________63681ef9ce90918a8a6040518463ffffffff1660e01b815260040161398d93929190615667565b602060405180830381865af41580156139aa573d6000803e3d6000fd5b505050506040513d601f19601f820116820180604052508101906139ce9190615b1b565b73ffffffffffffffffffffffffffffffffffffffff1614613a24576040517f08c379a0000000000000000000000000000000000000000000000000000000008152600401613a1b90615dca565b60405180910390fd5b600260009054906101000a900473ffffffffffffffffffffffffffffffffffffffff1673ffffffffffffffffffffffffffffffffffffffff1663bd85b039826040518263ffffffff1660e01b8152600401613a7f9190614582565b602060405180830381865afa158015613a9c573d6000803e3d6000fd5b505050506040513d601f19601f82011682018060405250810190613ac091906152d6565b6002613ad0898960018a8a61178a565b613ada9190615332565b11613ae457600080fd5b613b1b3360018381548110613afc57613afb615090565b5b9060005260206000209060070201600401613f7c90919063ffffffff16565b5060018181548110613b3057613b2f615090565b5b906000526020600020906007020160010173__ChangesLibrary________________________63c8d84335909189896040518463ffffffff1660e01b8152600401613b7d93929190615667565b60006040518083038186803b158015613b9557600080fd5b505af4158015613ba9573d6000803e3d6000fd5b505050507fa59a33e81abf86b25a561f609013d867f28b3c0cbc2cdf98e852b0c0c041eb6c85858989604051613be29493929190615e5c565b60405180910390a150505050505050565b81818080601f016020809104026020016040519081016040528093929190818152602001838380828437600081840152601f19601f8201169050808301925050505050505060008082604051613c499190614f7c565b9081526020016040518091039020549050600260009054906101000a900473ffffffffffffffffffffffffffffffffffffffff1673ffffffffffffffffffffffffffffffffffffffff16634f558e79826040518263ffffffff1660e01b8152600401613cb59190614582565b602060405180830381865afa158015613cd2573d6000803e3d6000fd5b505050506040513d601f19601f82011682018060405250810190613cf69190614fa8565b613d35576040517f08c379a0000000000000000000000000000000000000000000000000000000008152600401613d2c90615032565b60405180910390fd5b6000808585604051613d48929190615077565b908152602001604051809103902054905060018181548110613d6d57613d6c615090565b5b906000526020600020906007020160020154421015613dc1576040517f08c379a0000000000000000000000000000000000000000000000000000000008152600401613db890615ef6565b60405180910390fd5b600260009054906101000a900473ffffffffffffffffffffffffffffffffffffffff1673ffffffffffffffffffffffffffffffffffffffff1663156e29f6338360018581548110613e1557613e14615090565b5b906000526020600020906007020160060160003373ffffffffffffffffffffffffffffffffffffffff1673ffffffffffffffffffffffffffffffffffffffff168152602001908152602001600020600201546040518463ffffffff1660e01b8152600401613e8593929190615f16565b600060405180830381600087803b158015613e9f57600080fd5b505af1158015613eb3573d6000803e3d6000fd5b5050505060018181548110613ecb57613eca615090565b5b906000526020600020906007020160060160003373ffffffffffffffffffffffffffffffffffffffff1673ffffffffffffffffffffffffffffffffffffffff168152602001908152602001600020600201600090555050505050565b600260009054906101000a900473ffffffffffffffffffffffffffffffffffffffff1681565b6000613f5b8260000161404f565b9050919050565b6000613f718360000183614060565b60001c905092915050565b6000613fa4836000018373ffffffffffffffffffffffffffffffffffffffff1660001b61408b565b905092915050565b60606000613fbc836000016140fb565b905060608190508092505050919050565b600080600090505b825181101561401957828181518110613ff157613ff0615090565b5b6020026020010151826140049190615733565b91508080614011906155f2565b915050613fd5565b50919050565b6000614047836000018373ffffffffffffffffffffffffffffffffffffffff1660001b614157565b905092915050565b600081600001805490509050919050565b600082600001828154811061407857614077615090565b5b9060005260206000200154905092915050565b60006140978383614157565b6140f05782600001829080600181540180825580915050600190039060005260206000200160009091909190915055826000018054905083600101600084815260200190815260200160002081905550600190506140f5565b600090505b92915050565b60608160000180548060200260200160405190810160405280929190818152602001828054801561414b57602002820191906000526020600020905b815481526020019060010190808311614137575b50505050509050919050565b600080836001016000848152602001908152602001600020541415905092915050565b82805461418690615ad5565b90600052602060002090601f0160209004810192826141a857600085556141ef565b82601f106141c157805160ff19168380011785556141ef565b828001600101855582156141ef579182015b828111156141ee5782518255916020019190600101906141d3565b5b5090506141fc9190614200565b5090565b5b80821115614219576000816000905550600101614201565b5090565b6000604051905090565b600080fd5b600080fd5b600080fd5b600080fd5b600080fd5b60008083601f84011261425657614255614231565b5b8235905067ffffffffffffffff81111561427357614272614236565b5b60208301915083600182028301111561428f5761428e61423b565b5b9250929050565b60008115159050919050565b6142ab81614296565b81146142b657600080fd5b50565b6000813590506142c8816142a2565b92915050565b6000806000604084860312156142e7576142e6614227565b5b600084013567ffffffffffffffff8111156143055761430461422c565b5b61431186828701614240565b93509350506020614324868287016142b9565b9150509250925092565b600081519050919050565b600082825260208201905092915050565b6000819050602082019050919050565b600081519050919050565b600082825260208201905092915050565b60005b83811015614394578082015181840152602081019050614379565b838111156143a3576000848401525b50505050565b6000601f19601f8301169050919050565b60006143c58261435a565b6143cf8185614365565b93506143df818560208601614376565b6143e8816143a9565b840191505092915050565b60006143ff83836143ba565b905092915050565b6000602082019050919050565b600061441f8261432e565b6144298185614339565b93508360208202850161443b8561434a565b8060005b85811015614477578484038952815161445885826143f3565b945061446383614407565b925060208a0199505060018101905061443f565b50829750879550505050505092915050565b600060208201905081810360008301526144a38184614414565b905092915050565b600073ffffffffffffffffffffffffffffffffffffffff82169050919050565b60006144d6826144ab565b9050919050565b6144e6816144cb565b81146144f157600080fd5b50565b600081359050614503816144dd565b92915050565b60008060006040848603121561452257614521614227565b5b6000614530868287016144f4565b935050602084013567ffffffffffffffff8111156145515761455061422c565b5b61455d86828701614240565b92509250509250925092565b6000819050919050565b61457c81614569565b82525050565b60006020820190506145976000830184614573565b92915050565b600080fd5b7f4e487b7100000000000000000000000000000000000000000000000000000000600052604160045260246000fd5b6145da826143a9565b810181811067ffffffffffffffff821117156145f9576145f86145a2565b5b80604052505050565b600061460c61421d565b905061461882826145d1565b919050565b600067ffffffffffffffff821115614638576146376145a2565b5b614641826143a9565b9050602081019050919050565b82818337600083830152505050565b600061467061466b8461461d565b614602565b90508281526020810184848401111561468c5761468b61459d565b5b61469784828561464e565b509392505050565b600082601f8301126146b4576146b3614231565b5b81356146c484826020860161465d565b91505092915050565b6000602082840312156146e3576146e2614227565b5b600082013567ffffffffffffffff8111156147015761470061422c565b5b61470d8482850161469f565b91505092915050565b6000806020838503121561472d5761472c614227565b5b600083013567ffffffffffffffff81111561474b5761474a61422c565b5b61475785828601614240565b92509250509250929050565b60008060006040848603121561477c5761477b614227565b5b600084013567ffffffffffffffff81111561479a5761479961422c565b5b6147a68682870161469f565b935050602084013567ffffffffffffffff8111156147c7576147c661422c565b5b6147d386828701614240565b92509250509250925092565b600080600080604085870312156147f9576147f8614227565b5b600085013567ffffffffffffffff8111156148175761481661422c565b5b61482387828801614240565b9450945050602085013567ffffffffffffffff8111156148465761484561422c565b5b61485287828801614240565b925092505092959194509250565b60008060008060006060868803121561487c5761487b614227565b5b600086013567ffffffffffffffff81111561489a5761489961422c565b5b6148a688828901614240565b955095505060206148b9888289016142b9565b935050604086013567ffffffffffffffff8111156148da576148d961422c565b5b6148e688828901614240565b92509250509295509295909350565b6000806040838503121561490c5761490b614227565b5b600083013567ffffffffffffffff81111561492a5761492961422c565b5b6149368582860161469f565b925050602083013567ffffffffffffffff8111156149575761495661422c565b5b6149638582860161469f565b9150509250929050565b600081519050919050565b600082825260208201905092915050565b6000819050602082019050919050565b6149a2816144cb565b82525050565b60006149b48383614999565b60208301905092915050565b6000602082019050919050565b60006149d88261496d565b6149e28185614978565b93506149ed83614989565b8060005b83811015614a1e578151614a0588826149a8565b9750614a10836149c0565b9250506001810190506149f1565b5085935050505092915050565b60006020820190508181036000830152614a4581846149cd565b905092915050565b60008060008060008060808789031215614a6a57614a69614227565b5b6000614a7889828a016144f4565b965050602087013567ffffffffffffffff811115614a9957614a9861422c565b5b614aa589828a01614240565b95509550506040614ab889828a016142b9565b935050606087013567ffffffffffffffff811115614ad957614ad861422c565b5b614ae589828a01614240565b92509250509295509295509295565b614afd81614296565b82525050565b6000602082019050614b186000830184614af4565b92915050565b600067ffffffffffffffff821115614b3957614b386145a2565b5b602082029050602081019050919050565b6000614b5d614b5884614b1e565b614602565b90508083825260208201905060208402830185811115614b8057614b7f61423b565b5b835b81811015614ba95780614b9588826144f4565b845260208401935050602081019050614b82565b5050509392505050565b600082601f830112614bc857614bc7614231565b5b8135614bd8848260208601614b4a565b91505092915050565b600067ffffffffffffffff821115614bfc57614bfb6145a2565b5b602082029050602081019050919050565b614c1681614569565b8114614c2157600080fd5b50565b600081359050614c3381614c0d565b92915050565b6000614c4c614c4784614be1565b614602565b90508083825260208201905060208402830185811115614c6f57614c6e61423b565b5b835b81811015614c985780614c848882614c24565b845260208401935050602081019050614c71565b5050509392505050565b600082601f830112614cb757614cb6614231565b5b8135614cc7848260208601614c39565b91505092915050565b60008060008060608587031215614cea57614ce9614227565b5b600085013567ffffffffffffffff811115614d0857614d0761422c565b5b614d1487828801614bb3565b945050602085013567ffffffffffffffff811115614d3557614d3461422c565b5b614d4187828801614ca2565b935050604085013567ffffffffffffffff811115614d6257614d6161422c565b5b614d6e87828801614240565b925092505092959194509250565b614d85816144cb565b82525050565b6000602082019050614da06000830184614d7c565b92915050565b60008060008060608587031215614dc057614dbf614227565b5b600085013567ffffffffffffffff811115614dde57614ddd61422c565b5b614dea8782880161469f565b9450506020614dfb878288016142b9565b935050604085013567ffffffffffffffff811115614e1c57614e1b61422c565b5b614e2887828801614240565b925092505092959194509250565b60008060008060608587031215614e5057614e4f614227565b5b600085013567ffffffffffffffff811115614e6e57614e6d61422c565b5b614e7a87828801614240565b94509450506020614e8d878288016142b9565b925050604085013567ffffffffffffffff811115614eae57614ead61422c565b5b614eba8782880161469f565b91505092959194509250565b6000819050919050565b6000614eeb614ee6614ee1846144ab565b614ec6565b6144ab565b9050919050565b6000614efd82614ed0565b9050919050565b6000614f0f82614ef2565b9050919050565b614f1f81614f04565b82525050565b6000602082019050614f3a6000830184614f16565b92915050565b600081905092915050565b6000614f568261435a565b614f608185614f40565b9350614f70818560208601614376565b80840191505092915050565b6000614f888284614f4b565b915081905092915050565b600081519050614fa2816142a2565b92915050565b600060208284031215614fbe57614fbd614227565b5b6000614fcc84828501614f93565b91505092915050565b600082825260208201905092915050565b7f50726f6a65637420646f206e6f74206578697374000000000000000000000000600082015250565b600061501c601483614fd5565b915061502782614fe6565b602082019050919050565b6000602082019050818103600083015261504b8161500f565b9050919050565b600061505e8385614f40565b935061506b83858461464e565b82840190509392505050565b6000615084828486615052565b91508190509392505050565b7f4e487b7100000000000000000000000000000000000000000000000000000000600052603260045260246000fd5b8082525050565b6150cf81614296565b82525050565b60006040820190506150ea60008301856150bf565b6150f760208301846150c6565b9392505050565b600067ffffffffffffffff821115615119576151186145a2565b5b602082029050602081019050919050565b600061513d6151388461461d565b614602565b9050828152602081018484840111156151595761515861459d565b5b615164848285614376565b509392505050565b600082601f83011261518157615180614231565b5b815161519184826020860161512a565b91505092915050565b60006151ad6151a8846150fe565b614602565b905080838252602082019050602084028301858111156151d0576151cf61423b565b5b835b8181101561521757805167ffffffffffffffff8111156151f5576151f4614231565b5b808601615202898261516c565b855260208501945050506020810190506151d2565b5050509392505050565b600082601f83011261523657615235614231565b5b815161524684826020860161519a565b91505092915050565b60006020828403121561526557615264614227565b5b600082015167ffffffffffffffff8111156152835761528261422c565b5b61528f84828501615221565b91505092915050565b60006040820190506152ad6000830185614d7c565b6152ba6020830184614573565b9392505050565b6000815190506152d081614c0d565b92915050565b6000602082840312156152ec576152eb614227565b5b60006152fa848285016152c1565b91505092915050565b7f4e487b7100000000000000000000000000000000000000000000000000000000600052601160045260246000fd5b600061533d82614569565b915061534883614569565b9250817fffffffffffffffffffffffffffffffffffffffffffffffffffffffffffffffff048311821515161561538157615380615303565b5b828202905092915050565b7f4e487b7100000000000000000000000000000000000000000000000000000000600052601260045260246000fd5b60006153c682614569565b91506153d183614569565b9250826153e1576153e061538c565b5b828204905092915050565b60006153f782614569565b915061540283614569565b92508282101561541557615414615303565b5b828203905092915050565b600082825260208201905092915050565b600061543c8261435a565b6154468185615420565b9350615456818560208601614376565b61545f816143a9565b840191505092915050565b600060408201905061547f60008301856150bf565b81810360208301526154918184615431565b90509392505050565b7f4e6577206368616e67652070726f706f73616c20746f207468652050726f6a6560008201527f6374207769746820746865206e616d6520616e6420666f6c6c6f77696e67204960208201527f4420616e64204349443a00000000000000000000000000000000000000000000604082015250565b600061551c604a83614fd5565b91506155278261549a565b606082019050919050565b600061553e8385614fd5565b935061554b83858461464e565b615554836143a9565b840190509392505050565b600061556a8261435a565b6155748185614fd5565b9350615584818560208601614376565b61558d816143a9565b840191505092915050565b600060808201905081810360008301526155b18161550f565b905081810360208301526155c6818688615532565b905081810360408301526155da818561555f565b90506155e96060830184614573565b95945050505050565b60006155fd82614569565b91507fffffffffffffffffffffffffffffffffffffffffffffffffffffffffffffffff820361562f5761562e615303565b5b600182019050919050565b60006156468385615420565b935061565383858461464e565b61565c836143a9565b840190509392505050565b600060408201905061567c60008301866150bf565b818103602083015261568f81848661563a565b9050949350505050565b7f50726f6a656374206368616e67656420746f206368616e67653a200000000000600082015250565b60006156cf601b83614fd5565b91506156da82615699565b602082019050919050565b600060608201905081810360008301526156fe816156c2565b90508181036020830152615713818688615532565b90508181036040830152615728818486615532565b905095945050505050565b600061573e82614569565b915061574983614569565b9250827fffffffffffffffffffffffffffffffffffffffffffffffffffffffffffffffff0382111561577e5761577d615303565b5b828201905092915050565b6000819050919050565b60006157ae6157a96157a484615789565b614ec6565b614569565b9050919050565b6157be81615793565b82525050565b60006060820190506157d96000830186614d7c565b6157e66020830185614573565b6157f360408301846157b5565b949350505050565b7f4e65772070726f6a656374206372656174656420776974682049443a00000000600082015250565b6000615831601c83614fd5565b915061583c826157fb565b602082019050919050565b6000606082019050818103600083015261586081615824565b90508181036020830152615874818561555f565b90506158836040830184614573565b9392505050565b7f6e6f74207374617274696e6720646973747269627574696f6e2074696d650000600082015250565b60006158c0601e83614fd5565b91506158cb8261588a565b602082019050919050565b600060208201905081810360008301526158ef816158b3565b9050919050565b7f6e6f742073616d6520616d6f756e7473206173206120726563657069656e7473600082015250565b600061592c602083614fd5565b9150615937826158f6565b602082019050919050565b6000602082019050818103600083015261595b8161591f565b9050919050565b7f6e6f7420646973747269627574696f6e2074696d650000000000000000000000600082015250565b6000615998601583614fd5565b91506159a382615962565b602082019050919050565b600060208201905081810360008301526159c78161598b565b9050919050565b7f556e737566666963656e7420616d6f756e74206f6620746f6b656e7300000000600082015250565b6000615a04601c83614fd5565b9150615a0f826159ce565b602082019050919050565b60006020820190508181036000830152615a33816159f7565b9050919050565b7f4e6f7420612050726f6a656374205061727469636970616e7400000000000000600082015250565b6000615a70601983614fd5565b9150615a7b82615a3a565b602082019050919050565b60006020820190508181036000830152615a9f81615a63565b9050919050565b7f4e487b7100000000000000000000000000000000000000000000000000000000600052602260045260246000fd5b60006002820490506001821680615aed57607f821691505b602082108103615b0057615aff615aa6565b5b50919050565b600081519050615b15816144dd565b92915050565b600060208284031215615b3157615b30614227565b5b6000615b3f84828501615b06565b91505092915050565b7f416c726561647920766f74656400000000000000000000000000000000000000600082015250565b6000615b7e600d83614fd5565b9150615b8982615b48565b602082019050919050565b60006020820190508181036000830152615bad81615b71565b9050919050565b7f566f74696e6720706f77657220697320696e73756666696369656e7400000000600082015250565b6000615bea601c83614fd5565b9150615bf582615bb4565b602082019050919050565b60006020820190508181036000830152615c1981615bdd565b9050919050565b7f4e657720766f746520666f72206368616e67652070726f706f73616c3a000000600082015250565b6000615c56601d83614fd5565b9150615c6182615c20565b602082019050919050565b60006080820190508181036000830152615c8581615c49565b90508181036020830152615c9a818688615532565b90508181036040830152615cae818561555f565b9050615cbd6060830184614d7c565b95945050505050565b7f546f2072656d6f766520796f757220766f746520796f75206d75737420766f7460008201527f6520666972737400000000000000000000000000000000000000000000000000602082015250565b6000615d22602783614fd5565b9150615d2d82615cc6565b604082019050919050565b60006020820190508181036000830152615d5181615d15565b9050919050565b7f6f6e6c7920746865206368616e67652070726f706f73616c2063726561746f7260008201527f2063616e20616363657074000000000000000000000000000000000000000000602082015250565b6000615db4602b83614fd5565b9150615dbf82615d58565b604082019050919050565b60006020820190508181036000830152615de381615da7565b9050919050565b7f41206e6577206368616e676520686173206265656e206d61646520746f20746860008201527f652070726f6a6563743a20000000000000000000000000000000000000000000602082015250565b6000615e46602b83614fd5565b9150615e5182615dea565b604082019050919050565b60006060820190508181036000830152615e7581615e39565b90508181036020830152615e8a818688615532565b90508181036040830152615e9f818486615532565b905095945050505050565b7f6e6f7420636c61696d696e672074696d65000000000000000000000000000000600082015250565b6000615ee0601183614fd5565b9150615eeb82615eaa565b602082019050919050565b60006020820190508181036000830152615f0f81615ed3565b9050919050565b6000606082019050615f2b6000830186614d7c565b615f386020830185614573565b615f456040830184614573565b94935050505056fea26469706673582212202f89c5f3dc85bd437331cd10ca70a126af3434a360f7ddb3f9f24683c30c68a364736f6c634300080d0033",
  "immutableReferences": {},
  "source": "// SPDX-License-Identifier: MIT\npragma solidity ^0.8.13;\nimport \"./Projects.sol\";\nimport \"../node_modules/@openzeppelin/contracts/utils/structs/EnumerableSet.sol\";\n\n\ncontract TokenDistribution is Projects {\n    using EnumerableSet for EnumerableSet.AddressSet;\n\n    constructor(address _tokenAddress) Projects(_tokenAddress) {} \n\n\n    function sum(uint[] memory _tokens) internal pure returns(uint _sum) {\n\t\tfor (uint i = 0; i < _tokens.length; i++)\n\t\t\t_sum += _tokens[i];\n\t}\n\n\n    function getDistributionBalanceOf(\n        address usr, \n        string calldata projectName\n    ) public view ProjectExist(projectName) returns (uint) {\n        uint projectID = NameToID[projectName];\n        uint endDistributionTime = publicProjects[projectID].DistributionTime;\n        uint balanceOf = token.balanceOf(usr, projectID);\n\n        // calculate the proportion of tokens you have\n        uint tokens = (balanceOf * 100) / token.totalSupply(projectID);\n        if (tokens == 0) {\n            return 0;\n        }\n\n        tokens = (publicProjects[projectID].newTokens * tokens) / 100;\n        tokens -= publicProjects[projectID].participant[usr].TokensSpent[endDistributionTime];\n        return tokens;\n    }\n\n\n    function distribute(\n        address[] memory recipients,\n        uint[] memory amounts,\n        string calldata projectName\n    ) external ProjectExist(projectName) {\n        uint projectID = NameToID[projectName];\n        uint tokensToSpend = sum(amounts);\n\n        require(recipients.length == amounts.length, \"not same amounts as a recepients\");\n        require(publicProjects[projectID].DistributionTime > block.timestamp, \"not distribution time\");\n        require(tokensToSpend <= getDistributionBalanceOf(msg.sender, projectName), \"Unsufficent amount of tokens\");\n        \n        for (uint i=0; i<recipients.length; i++) {\n            if (publicProjects[projectID].participants.contains(recipients[i]) == false) {\n                revert(\"Not a Project Participant\");\n            }\n        }\n\n        uint endDistributionTime = publicProjects[projectID].DistributionTime;\n\n        for (uint i=0; i<recipients.length; i++) {\n            publicProjects[projectID].participant[recipients[i]].pendingTokens += amounts[i];\n        }\n\n        publicProjects[projectID].participant[msg.sender].TokensSpent[endDistributionTime] += tokensToSpend;\n    }\n\n\n    function startDistribution(\n        string calldata projectName\n    ) external ProjectExist(projectName) {\n        uint projectID = NameToID[projectName];\n        require(block.timestamp >= publicProjects[projectID].DistributionTime + ClaimingInterval, \"not starting distribution time\");\n\n        publicProjects[projectID].newTokens = 100;\n        publicProjects[projectID].DistributionTime = block.timestamp + TimeLockInterval;\n    }\n    \n\n    function claimPendingTokens(\n        string calldata projectName\n    ) public ProjectExist(projectName) {\n        uint projectID = NameToID[projectName];\n        require(block.timestamp >= publicProjects[projectID].DistributionTime, \"not claiming time\");\n        token.mint(msg.sender, projectID, publicProjects[projectID].participant[msg.sender].pendingTokens);\n        delete publicProjects[projectID].participant[msg.sender].pendingTokens;\n    }\n\n\n    function getLastDistriubtionTime(string calldata projectName) external view ProjectExist(projectName) returns (uint)  {\n        uint projectID = NameToID[projectName];\n        return publicProjects[projectID].DistributionTime;\n    }\n\n\n    function getPendingTokens(address usr, string calldata projectName) ProjectExist(projectName) external view returns (uint) {\n        uint projectID = NameToID[projectName];\n        return publicProjects[projectID].participant[usr].pendingTokens;\n    }\n\n}\n",
  "sourcePath": "c:\\Users\\User\\Desktop\\\\davidson\\project\\DavidsonProject\\Smart Contract\\contracts\\TokenDistribution.sol",
  "compiler": {
    "name": "solc",
    "version": "0.8.13+commit.abaa5c0e.Emscripten.clang"
  },
  "schemaVersion": "3.4.7",
  "updatedAt": "2024-04-22T10:09:20.376Z",
  "networkType": "ethereum",
  "devdoc": {
    "kind": "dev",
    "methods": {},
    "version": 1
  },
  "userdoc": {
    "kind": "user",
    "methods": {},
    "version": 1
  }
}