{
  "contractName": "TokenDistribution",
  "abi": [
    {
      "inputs": [
        {
          "internalType": "address",
          "name": "_tokenAddress",
          "type": "address"
        }
      ],
      "stateMutability": "nonpayable",
      "type": "constructor"
    },
    {
      "anonymous": false,
      "inputs": [
        {
          "indexed": false,
          "internalType": "string",
          "name": "message",
          "type": "string"
        },
        {
          "indexed": false,
          "internalType": "string",
          "name": "projectName",
          "type": "string"
        },
        {
          "indexed": false,
          "internalType": "string",
          "name": "changeCID",
          "type": "string"
        }
      ],
      "name": "NewChangeIsMadeToProject",
      "type": "event"
    },
    {
      "anonymous": false,
      "inputs": [
        {
          "indexed": false,
          "internalType": "string",
          "name": "message",
          "type": "string"
        },
        {
          "indexed": false,
          "internalType": "string",
          "name": "Name",
          "type": "string"
        },
        {
          "indexed": false,
          "internalType": "string",
          "name": "CID",
          "type": "string"
        },
        {
          "indexed": false,
          "internalType": "uint256",
          "name": "indexValue",
          "type": "uint256"
        }
      ],
      "name": "NewChangeProposalCreated",
      "type": "event"
    },
    {
      "anonymous": false,
      "inputs": [
        {
          "indexed": false,
          "internalType": "string",
          "name": "message",
          "type": "string"
        },
        {
          "indexed": false,
          "internalType": "string",
          "name": "name",
          "type": "string"
        },
        {
          "indexed": false,
          "internalType": "uint256",
          "name": "value",
          "type": "uint256"
        }
      ],
      "name": "NewProjectCreated",
      "type": "event"
    },
    {
      "anonymous": false,
      "inputs": [
        {
          "indexed": false,
          "internalType": "string",
          "name": "message",
          "type": "string"
        },
        {
          "indexed": false,
          "internalType": "string",
          "name": "projectName",
          "type": "string"
        },
        {
          "indexed": false,
          "internalType": "string",
          "name": "changeProposalCID",
          "type": "string"
        },
        {
          "indexed": false,
          "internalType": "address",
          "name": "voter",
          "type": "address"
        },
        {
          "indexed": false,
          "internalType": "uint256",
          "name": "votes",
          "type": "uint256"
        }
      ],
      "name": "NewVoteForChangeProposal",
      "type": "event"
    },
    {
      "anonymous": false,
      "inputs": [
        {
          "indexed": true,
          "internalType": "address",
          "name": "previousOwner",
          "type": "address"
        },
        {
          "indexed": true,
          "internalType": "address",
          "name": "newOwner",
          "type": "address"
        }
      ],
      "name": "OwnershipTransferred",
      "type": "event"
    },
    {
      "anonymous": false,
      "inputs": [
        {
          "indexed": false,
          "internalType": "string",
          "name": "message",
          "type": "string"
        },
        {
          "indexed": false,
          "internalType": "string",
          "name": "changeCID",
          "type": "string"
        },
        {
          "indexed": false,
          "internalType": "string",
          "name": "ProjectName",
          "type": "string"
        }
      ],
      "name": "ProjectWentBack",
      "type": "event"
    },
    {
      "anonymous": false,
      "inputs": [
        {
          "indexed": false,
          "internalType": "string",
          "name": "message",
          "type": "string"
        },
        {
          "indexed": false,
          "internalType": "uint256",
          "name": "lastDistributionTime",
          "type": "uint256"
        }
      ],
      "name": "TokensDisributed",
      "type": "event"
    },
    {
      "inputs": [
        {
          "internalType": "string",
          "name": "_changeCID",
          "type": "string"
        },
        {
          "internalType": "string",
          "name": "_projectName",
          "type": "string"
        }
      ],
      "name": "MakeChangeProposal",
      "outputs": [],
      "stateMutability": "nonpayable",
      "type": "function"
    },
    {
      "inputs": [
        {
          "internalType": "string",
          "name": "_changeCID",
          "type": "string"
        },
        {
          "internalType": "string",
          "name": "_projectName",
          "type": "string"
        }
      ],
      "name": "MakeGoBackProposal",
      "outputs": [],
      "stateMutability": "nonpayable",
      "type": "function"
    },
    {
      "inputs": [
        {
          "internalType": "string",
          "name": "",
          "type": "string"
        }
      ],
      "name": "NameToID",
      "outputs": [
        {
          "internalType": "uint256",
          "name": "",
          "type": "uint256"
        }
      ],
      "stateMutability": "view",
      "type": "function",
      "constant": true
    },
    {
      "inputs": [],
      "name": "TimeLockInterval",
      "outputs": [
        {
          "internalType": "uint256",
          "name": "",
          "type": "uint256"
        }
      ],
      "stateMutability": "view",
      "type": "function",
      "constant": true
    },
    {
      "inputs": [
        {
          "internalType": "string",
          "name": "_proposedChangeCID",
          "type": "string"
        },
        {
          "internalType": "string",
          "name": "_projectName",
          "type": "string"
        }
      ],
      "name": "acceptChangeProposal",
      "outputs": [],
      "stateMutability": "nonpayable",
      "type": "function"
    },
    {
      "inputs": [
        {
          "internalType": "string",
          "name": "_projectName",
          "type": "string"
        },
        {
          "internalType": "string",
          "name": "_changeCID",
          "type": "string"
        }
      ],
      "name": "acceptGoBack",
      "outputs": [],
      "stateMutability": "nonpayable",
      "type": "function"
    },
    {
      "inputs": [
        {
          "internalType": "string",
          "name": "_CID",
          "type": "string"
        },
        {
          "internalType": "string",
          "name": "projectName",
          "type": "string"
        }
      ],
      "name": "createProject",
      "outputs": [],
      "stateMutability": "nonpayable",
      "type": "function"
    },
    {
      "inputs": [
        {
          "internalType": "string",
          "name": "_projectName",
          "type": "string"
        }
      ],
      "name": "getAddresses",
      "outputs": [
        {
          "internalType": "address[]",
          "name": "",
          "type": "address[]"
        }
      ],
      "stateMutability": "view",
      "type": "function",
      "constant": true
    },
    {
      "inputs": [
        {
          "internalType": "address",
          "name": "_UserAddress",
          "type": "address"
        },
        {
          "internalType": "string",
          "name": "_projectName",
          "type": "string"
        }
      ],
      "name": "getBalance",
      "outputs": [
        {
          "internalType": "uint256",
          "name": "",
          "type": "uint256"
        }
      ],
      "stateMutability": "view",
      "type": "function",
      "constant": true
    },
    {
      "inputs": [
        {
          "internalType": "string",
          "name": "_projectName",
          "type": "string"
        },
        {
          "internalType": "bool",
          "name": "changesOrChangeProposals",
          "type": "bool"
        }
      ],
      "name": "getChangesOrProposals",
      "outputs": [
        {
          "internalType": "string[]",
          "name": "",
          "type": "string[]"
        }
      ],
      "stateMutability": "view",
      "type": "function",
      "constant": true
    },
    {
      "inputs": [
        {
          "internalType": "string",
          "name": "projectName",
          "type": "string"
        }
      ],
      "name": "getLastDistriubtionTime",
      "outputs": [
        {
          "internalType": "uint256",
          "name": "",
          "type": "uint256"
        }
      ],
      "stateMutability": "view",
      "type": "function",
      "constant": true
    },
    {
      "inputs": [],
      "name": "getLastProjects",
      "outputs": [
        {
          "internalType": "string[]",
          "name": "",
          "type": "string[]"
        }
      ],
      "stateMutability": "view",
      "type": "function",
      "constant": true
    },
    {
      "inputs": [],
      "name": "owner",
      "outputs": [
        {
          "internalType": "address",
          "name": "",
          "type": "address"
        }
      ],
      "stateMutability": "view",
      "type": "function",
      "constant": true
    },
    {
      "inputs": [],
      "name": "renounceOwnership",
      "outputs": [],
      "stateMutability": "nonpayable",
      "type": "function"
    },
    {
      "inputs": [],
      "name": "token",
      "outputs": [
        {
          "internalType": "contract ProjectsToken",
          "name": "",
          "type": "address"
        }
      ],
      "stateMutability": "view",
      "type": "function",
      "constant": true
    },
    {
      "inputs": [
        {
          "internalType": "address",
          "name": "newOwner",
          "type": "address"
        }
      ],
      "name": "transferOwnership",
      "outputs": [],
      "stateMutability": "nonpayable",
      "type": "function"
    },
    {
      "inputs": [
        {
          "internalType": "string",
          "name": "_changeProposalCID",
          "type": "string"
        },
        {
          "internalType": "string",
          "name": "_projectName",
          "type": "string"
        }
      ],
      "name": "voteForChangeProposal",
      "outputs": [],
      "stateMutability": "nonpayable",
      "type": "function"
    },
    {
      "inputs": [
        {
          "internalType": "address",
          "name": "usr",
          "type": "address"
        },
        {
          "internalType": "string",
          "name": "projectName",
          "type": "string"
        }
      ],
      "name": "getDistributionBalanceOf",
      "outputs": [
        {
          "internalType": "uint256",
          "name": "",
          "type": "uint256"
        }
      ],
      "stateMutability": "view",
      "type": "function",
      "constant": true
    },
    {
      "inputs": [
        {
          "internalType": "address[]",
          "name": "recipients",
          "type": "address[]"
        },
        {
          "internalType": "uint256[]",
          "name": "amounts",
          "type": "uint256[]"
        },
        {
          "internalType": "string",
          "name": "projectName",
          "type": "string"
        }
      ],
      "name": "distribute",
      "outputs": [],
      "stateMutability": "nonpayable",
      "type": "function"
    },
    {
      "inputs": [
        {
          "internalType": "string",
          "name": "projectName",
          "type": "string"
        }
      ],
      "name": "startDistribution",
      "outputs": [],
      "stateMutability": "nonpayable",
      "type": "function"
    },
    {
      "inputs": [
        {
          "internalType": "string",
          "name": "projectName",
          "type": "string"
        }
      ],
      "name": "claimPendingTokens",
      "outputs": [],
      "stateMutability": "nonpayable",
      "type": "function"
    }
  ],
  "bytecode": "0x60a060405262278d006080908152503480156200001b57600080fd5b5060405162004c7c38038062004c7c8339818101604052810190620000419190620001e3565b8080600260006101000a81548173ffffffffffffffffffffffffffffffffffffffff021916908373ffffffffffffffffffffffffffffffffffffffff16021790555050620000a462000098620000ab60201b60201c565b620000b360201b60201c565b5062000215565b600033905090565b6000600360009054906101000a900473ffffffffffffffffffffffffffffffffffffffff16905081600360006101000a81548173ffffffffffffffffffffffffffffffffffffffff021916908373ffffffffffffffffffffffffffffffffffffffff1602179055508173ffffffffffffffffffffffffffffffffffffffff168173ffffffffffffffffffffffffffffffffffffffff167f8be0079c531659141344cd1fd0a4f28419497f9722a3daafe3b4186f6b6457e060405160405180910390a35050565b600080fd5b600073ffffffffffffffffffffffffffffffffffffffff82169050919050565b6000620001ab826200017e565b9050919050565b620001bd816200019e565b8114620001c957600080fd5b50565b600081519050620001dd81620001b2565b92915050565b600060208284031215620001fc57620001fb62000179565b5b60006200020c84828501620001cc565b91505092915050565b608051614a3662000246600039600081816116c30152818161185101528181611eb90152612acb0152614a366000f3fe608060405234801561001057600080fd5b50600436106101375760003560e01c80637ec15674116100b8578063a56359631161007c578063a56359631461034c578063c4687fb814610368578063ed0c2d9014610384578063f2fde38b146103a0578063f396530f146103bc578063fc0c546a146103d857610137565b80637ec15674146102bc5780638d1446fc146102d85780638da5cb5b146102f45780639f6806ec14610312578063a54d804d1461032e57610137565b806349b7b640116100ff57806349b7b6401461022c5780636bd062041461025c578063715018a614610278578063750354d2146102825780637a5945da1461029e57610137565b80631d7147d81461013c5780631dd7cecf1461016c57806333846eba1461019c57806339b64c30146101cc57806347d8899a146101fc575b600080fd5b61015660048036038101906101519190613017565b6103f6565b60405161016391906131d2565b60405180910390f35b61018660048036038101906101819190613252565b61060f565b60405161019391906132cb565b60405180910390f35b6101b660048036038101906101b19190613416565b61081b565b6040516101c391906132cb565b60405180910390f35b6101e660048036038101906101e1919061345f565b610849565b6040516101f3919061356a565b60405180910390f35b6102166004803603810190610211919061345f565b610a5f565b60405161022391906132cb565b60405180910390f35b61024660048036038101906102419190613252565b610bf8565b60405161025391906132cb565b60405180910390f35b6102766004803603810190610271919061358c565b610fc8565b005b610280611183565b005b61029c60048036038101906102979190613604565b611197565b005b6102a66116c1565b6040516102b391906132cb565b60405180910390f35b6102d660048036038101906102d1919061345f565b6116e5565b005b6102f260048036038101906102ed9190613604565b611947565b005b6102fc611cd5565b604051610309919061368f565b60405180910390f35b61032c6004803603810190610327919061385c565b611cff565b005b610336612121565b60405161034391906131d2565b60405180910390f35b61036660048036038101906103619190613604565b6122bf565b005b610382600480360381019061037d9190613908565b612494565b005b61039e60048036038101906103999190613604565b6126cc565b005b6103ba60048036038101906103b59190613984565b612904565b005b6103d660048036038101906103d1919061345f565b612987565b005b6103e0612cff565b6040516103ed9190613a10565b60405180910390f35b606083838080601f016020809104026020016040519081016040528093929190818152602001838380828437600081840152601f19601f820116905080830192505050505050506000808260405161044e9190613a67565b9081526020016040518091039020549050600260009054906101000a900473ffffffffffffffffffffffffffffffffffffffff1673ffffffffffffffffffffffffffffffffffffffff16634f558e79826040518263ffffffff1660e01b81526004016104ba91906132cb565b602060405180830381865afa1580156104d7573d6000803e3d6000fd5b505050506040513d601f19601f820116820180604052508101906104fb9190613a93565b61053a576040517f08c379a000000000000000000000000000000000000000000000000000000000815260040161053190613b1d565b60405180910390fd5b600080878760405161054d929190613b62565b90815260200160405180910390205490506001818154811061057257610571613b7b565b5b90600052602060002090600a020160010173__ChangesLibrary________________________63e3e26be89091876040518363ffffffff1660e01b81526004016105bd929190613bc0565b600060405180830381865af41580156105da573d6000803e3d6000fd5b505050506040513d6000823e3d601f19601f820116820180604052508101906106039190613d3a565b93505050509392505050565b600082828080601f016020809104026020016040519081016040528093929190818152602001838380828437600081840152601f19601f82011690508083019250505050505050600080826040516106679190613a67565b9081526020016040518091039020549050600260009054906101000a900473ffffffffffffffffffffffffffffffffffffffff1673ffffffffffffffffffffffffffffffffffffffff16634f558e79826040518263ffffffff1660e01b81526004016106d391906132cb565b602060405180830381865afa1580156106f0573d6000803e3d6000fd5b505050506040513d601f19601f820116820180604052508101906107149190613a93565b610753576040517f08c379a000000000000000000000000000000000000000000000000000000000815260040161074a90613b1d565b60405180910390fd5b600260009054906101000a900473ffffffffffffffffffffffffffffffffffffffff1673ffffffffffffffffffffffffffffffffffffffff1662fdd58e87600088886040516107a3929190613b62565b9081526020016040518091039020546040518363ffffffff1660e01b81526004016107cf929190613d83565b602060405180830381865afa1580156107ec573d6000803e3d6000fd5b505050506040513d601f19601f820116820180604052508101906108109190613dc1565b925050509392505050565b6000818051602081018201805184825260208301602085012081835280955050505050506000915090505481565b606082828080601f016020809104026020016040519081016040528093929190818152602001838380828437600081840152601f19601f82011690508083019250505050505050600080826040516108a19190613a67565b9081526020016040518091039020549050600260009054906101000a900473ffffffffffffffffffffffffffffffffffffffff1673ffffffffffffffffffffffffffffffffffffffff16634f558e79826040518263ffffffff1660e01b815260040161090d91906132cb565b602060405180830381865afa15801561092a573d6000803e3d6000fd5b505050506040513d601f19601f8201168201806040525081019061094e9190613a93565b61098d576040517f08c379a000000000000000000000000000000000000000000000000000000000815260040161098490613b1d565b60405180910390fd5b60008086866040516109a0929190613b62565b9081526020016040518091039020549050600181815481106109c5576109c4613b7b565b5b90600052602060002090600a020160010173__ChangesLibrary________________________635a45338590916040518263ffffffff1660e01b8152600401610a0e9190613dee565b600060405180830381865af4158015610a2b573d6000803e3d6000fd5b505050506040513d6000823e3d601f19601f82011682018060405250810190610a549190613eb5565b935050505092915050565b600082828080601f016020809104026020016040519081016040528093929190818152602001838380828437600081840152601f19601f8201169050808301925050505050505060008082604051610ab79190613a67565b9081526020016040518091039020549050600260009054906101000a900473ffffffffffffffffffffffffffffffffffffffff1673ffffffffffffffffffffffffffffffffffffffff16634f558e79826040518263ffffffff1660e01b8152600401610b2391906132cb565b602060405180830381865afa158015610b40573d6000803e3d6000fd5b505050506040513d601f19601f82011682018060405250810190610b649190613a93565b610ba3576040517f08c379a0000000000000000000000000000000000000000000000000000000008152600401610b9a90613b1d565b60405180910390fd5b6000808686604051610bb6929190613b62565b908152602001604051809103902054905060018181548110610bdb57610bda613b7b565b5b90600052602060002090600a020160050154935050505092915050565b600082828080601f016020809104026020016040519081016040528093929190818152602001838380828437600081840152601f19601f8201169050808301925050505050505060008082604051610c509190613a67565b9081526020016040518091039020549050600260009054906101000a900473ffffffffffffffffffffffffffffffffffffffff1673ffffffffffffffffffffffffffffffffffffffff16634f558e79826040518263ffffffff1660e01b8152600401610cbc91906132cb565b602060405180830381865afa158015610cd9573d6000803e3d6000fd5b505050506040513d601f19601f82011682018060405250810190610cfd9190613a93565b610d3c576040517f08c379a0000000000000000000000000000000000000000000000000000000008152600401610d3390613b1d565b60405180910390fd5b6000808686604051610d4f929190613b62565b9081526020016040518091039020549050600060018281548110610d7657610d75613b7b565b5b90600052602060002090600a02016005015490506000600260009054906101000a900473ffffffffffffffffffffffffffffffffffffffff1673ffffffffffffffffffffffffffffffffffffffff1662fdd58e8a856040518363ffffffff1660e01b8152600401610de8929190613d83565b602060405180830381865afa158015610e05573d6000803e3d6000fd5b505050506040513d601f19601f82011682018060405250810190610e299190613dc1565b90506000600260009054906101000a900473ffffffffffffffffffffffffffffffffffffffff1673ffffffffffffffffffffffffffffffffffffffff1663bd85b039856040518263ffffffff1660e01b8152600401610e8891906132cb565b602060405180830381865afa158015610ea5573d6000803e3d6000fd5b505050506040513d601f19601f82011682018060405250810190610ec99190613dc1565b606483610ed69190613f2d565b610ee09190613fb6565b905060008103610ef7576000965050505050610fbf565b60648160018681548110610f0e57610f0d613b7b565b5b90600052602060002090600a020160060154610f2a9190613f2d565b610f349190613fb6565b905060018481548110610f4a57610f49613b7b565b5b90600052602060002090600a020160080160008b73ffffffffffffffffffffffffffffffffffffffff1673ffffffffffffffffffffffffffffffffffffffff16815260200190815260200160002060008481526020019081526020016000205481610fb59190613fe7565b9050809650505050505b50509392505050565b6000600180549050905080600083604051610fe39190613a67565b908152602001604051809103902081905550600260009054906101000a900473ffffffffffffffffffffffffffffffffffffffff1673ffffffffffffffffffffffffffffffffffffffff1663156e29f6338360646040518463ffffffff1660e01b815260040161105593929190614056565b600060405180830381600087803b15801561106f57600080fd5b505af1158015611083573d6000803e3d6000fd5b505050506000600180816001815401808255809150500390600052602060002090600a02019050828160000190805190602001906110c2929190612ec3565b508060010173__ChangesLibrary________________________63aaff905a9091866040518363ffffffff1660e01b81526004016111019291906140d7565b60006040518083038186803b15801561111957600080fd5b505af415801561112d573d6000803e3d6000fd5b50505050606481600601819055504281600501819055507fe224389b386caecb8e3b38edc39361c7227e3ef820a8276bc31ac9cf1ba69fcd838360405161117592919061418c565b60405180910390a150505050565b61118b612d25565b6111956000612da3565b565b81818080601f016020809104026020016040519081016040528093929190818152602001838380828437600081840152601f19601f82011690508083019250505050505050600080826040516111ed9190613a67565b9081526020016040518091039020549050600260009054906101000a900473ffffffffffffffffffffffffffffffffffffffff1673ffffffffffffffffffffffffffffffffffffffff16634f558e79826040518263ffffffff1660e01b815260040161125991906132cb565b602060405180830381865afa158015611276573d6000803e3d6000fd5b505050506040513d601f19601f8201168201806040525081019061129a9190613a93565b6112d9576040517f08c379a00000000000000000000000000000000000000000000000000000000081526004016112d090613b1d565b60405180910390fd5b60008085856040516112ec929190613b62565b9081526020016040518091039020549050600015156001828154811061131557611314613b7b565b5b90600052602060002090600a0201600901876040516113349190613a67565b908152602001604051809103902060003373ffffffffffffffffffffffffffffffffffffffff1673ffffffffffffffffffffffffffffffffffffffff16815260200190815260200160002060009054906101000a900460ff161515146113cf576040517f08c379a00000000000000000000000000000000000000000000000000000000081526004016113c69061421b565b60405180910390fd5b6000600260009054906101000a900473ffffffffffffffffffffffffffffffffffffffff1673ffffffffffffffffffffffffffffffffffffffff1662fdd58e33846040518363ffffffff1660e01b815260040161142d929190613d83565b602060405180830381865afa15801561144a573d6000803e3d6000fd5b505050506040513d601f19601f8201168201806040525081019061146e9190613dc1565b9050600081116114b3576040517f08c379a00000000000000000000000000000000000000000000000000000000081526004016114aa90614287565b60405180910390fd5b600182815481106114c7576114c6613b7b565b5b90600052602060002090600a020160010173__ChangesLibrary________________________637dba11cb909189846040518463ffffffff1660e01b8152600401611514939291906142b6565b60006040518083038186803b15801561152c57600080fd5b505af4158015611540573d6000803e3d6000fd5b50505050600180838154811061155957611558613b7b565b5b90600052602060002090600a0201600901886040516115789190613a67565b908152602001604051809103902060003373ffffffffffffffffffffffffffffffffffffffff1673ffffffffffffffffffffffffffffffffffffffff16815260200190815260200160002060006101000a81548160ff0219169083151502179055507f0defd832aa647eb845ac2ed5e414ba9da1d13d7c3b2028fea20853913891174d868689336001878154811061161357611612613b7b565b5b90600052602060002090600a020160010173__ChangesLibrary________________________63ca5451d290918e6040518363ffffffff1660e01b815260040161165e9291906140d7565b602060405180830381865af415801561167b573d6000803e3d6000fd5b505050506040513d601f19601f8201168201806040525081019061169f9190613dc1565b6040516116b095949392919061436d565b60405180910390a150505050505050565b7f000000000000000000000000000000000000000000000000000000000000000081565b81818080601f016020809104026020016040519081016040528093929190818152602001838380828437600081840152601f19601f820116905080830192505050505050506000808260405161173b9190613a67565b9081526020016040518091039020549050600260009054906101000a900473ffffffffffffffffffffffffffffffffffffffff1673ffffffffffffffffffffffffffffffffffffffff16634f558e79826040518263ffffffff1660e01b81526004016117a791906132cb565b602060405180830381865afa1580156117c4573d6000803e3d6000fd5b505050506040513d601f19601f820116820180604052508101906117e89190613a93565b611827576040517f08c379a000000000000000000000000000000000000000000000000000000000815260040161181e90613b1d565b60405180910390fd5b600080858560405161183a929190613b62565b9081526020016040518091039020549050620151807f00000000000000000000000000000000000000000000000000000000000000006001838154811061188457611883613b7b565b5b90600052602060002090600a0201600501546118a091906143d5565b6118aa91906143d5565b42116118eb576040517f08c379a00000000000000000000000000000000000000000000000000000000081526004016118e290614477565b60405180910390fd5b60646001828154811061190157611900613b7b565b5b90600052602060002090600a020160060181905550426001828154811061192b5761192a613b7b565b5b90600052602060002090600a0201600501819055505050505050565b81818080601f016020809104026020016040519081016040528093929190818152602001838380828437600081840152601f19601f820116905080830192505050505050506000808260405161199d9190613a67565b9081526020016040518091039020549050600260009054906101000a900473ffffffffffffffffffffffffffffffffffffffff1673ffffffffffffffffffffffffffffffffffffffff16634f558e79826040518263ffffffff1660e01b8152600401611a0991906132cb565b602060405180830381865afa158015611a26573d6000803e3d6000fd5b505050506040513d601f19601f82011682018060405250810190611a4a9190613a93565b611a89576040517f08c379a0000000000000000000000000000000000000000000000000000000008152600401611a8090613b1d565b60405180910390fd5b6000808585604051611a9c929190613b62565b908152602001604051809103902054905060018181548110611ac157611ac0613b7b565b5b90600052602060002090600a020160010173__ChangesLibrary________________________636de060a8909188600260009054906101000a900473ffffffffffffffffffffffffffffffffffffffff1673ffffffffffffffffffffffffffffffffffffffff1662fdd58e3360008c8c604051611b3f929190613b62565b9081526020016040518091039020546040518363ffffffff1660e01b8152600401611b6b929190613d83565b602060405180830381865afa158015611b88573d6000803e3d6000fd5b505050506040513d601f19601f82011682018060405250810190611bac9190613dc1565b6040518463ffffffff1660e01b8152600401611bca939291906142b6565b60006040518083038186803b158015611be257600080fd5b505af4158015611bf6573d6000803e3d6000fd5b505050506001808281548110611c0f57611c0e613b7b565b5b90600052602060002090600a020160090187604051611c2e9190613a67565b908152602001604051809103902060003373ffffffffffffffffffffffffffffffffffffffff1673ffffffffffffffffffffffffffffffffffffffff16815260200190815260200160002060006101000a81548160ff0219169083151502179055507f7b7acf540aac5e16ce3dfbd4d106c203a301da603c18502d179f60282962e5c485858884604051611cc5949392919061452f565b60405180910390a1505050505050565b6000600360009054906101000a900473ffffffffffffffffffffffffffffffffffffffff16905090565b81818080601f016020809104026020016040519081016040528093929190818152602001838380828437600081840152601f19601f8201169050808301925050505050505060008082604051611d559190613a67565b9081526020016040518091039020549050600260009054906101000a900473ffffffffffffffffffffffffffffffffffffffff1673ffffffffffffffffffffffffffffffffffffffff16634f558e79826040518263ffffffff1660e01b8152600401611dc191906132cb565b602060405180830381865afa158015611dde573d6000803e3d6000fd5b505050506040513d601f19601f82011682018060405250810190611e029190613a93565b611e41576040517f08c379a0000000000000000000000000000000000000000000000000000000008152600401611e3890613b1d565b60405180910390fd5b6000808585604051611e54929190613b62565b90815260200160405180910390205490506000611e7087612e69565b90508651885114611eb6576040517f08c379a0000000000000000000000000000000000000000000000000000000008152600401611ead906145d5565b60405180910390fd5b427f000000000000000000000000000000000000000000000000000000000000000060018481548110611eec57611eeb613b7b565b5b90600052602060002090600a020160050154611f0891906143d5565b11611f48576040517f08c379a0000000000000000000000000000000000000000000000000000000008152600401611f3f90614477565b60405180910390fd5b611f53338787610bf8565b811115611f95576040517f08c379a0000000000000000000000000000000000000000000000000000000008152600401611f8c90614641565b60405180910390fd5b600060018381548110611fab57611faa613b7b565b5b90600052602060002090600a020160050154905060005b895181101561208b57888181518110611fde57611fdd613b7b565b5b602002602001015160018581548110611ffa57611ff9613b7b565b5b90600052602060002090600a020160070160008c84815181106120205761201f613b7b565b5b602002602001015173ffffffffffffffffffffffffffffffffffffffff1673ffffffffffffffffffffffffffffffffffffffff168152602001908152602001600020600082825461207191906143d5565b92505081905550808061208390614661565b915050611fc2565b5081600184815481106120a1576120a0613b7b565b5b90600052602060002090600a020160080160003373ffffffffffffffffffffffffffffffffffffffff1673ffffffffffffffffffffffffffffffffffffffff1681526020019081526020016000206000838152602001908152602001600020600082825461210f91906143d5565b92505081905550505050505050505050565b60606000600180549050905060006001805490509050600a82111561214557600a91505b60008267ffffffffffffffff811115612161576121606132eb565b5b60405190808252806020026020018201604052801561219457816020015b606081526020019060019003908161217f5790505b509050600060018054905011156122b657600083836121b39190613fe7565b90505b828110156122b457600181815481106121d2576121d1613b7b565b5b90600052602060002090600a020160000180546121ee906146d8565b80601f016020809104026020016040519081016040528092919081815260200182805461221a906146d8565b80156122675780601f1061223c57610100808354040283529160200191612267565b820191906000526020600020905b81548152906001019060200180831161224a57829003601f168201915b5050505050828260018661227b9190613fe7565b6122859190613fe7565b8151811061229657612295613b7b565b5b602002602001018190525080806122ac90614661565b9150506121b6565b505b80935050505090565b60008083836040516122d2929190613b62565b9081526020016040518091039020549050600181815481106122f7576122f6613b7b565b5b90600052602060002090600a020160040160405180606001604052808681526020013373ffffffffffffffffffffffffffffffffffffffff168152602001600260009054906101000a900473ffffffffffffffffffffffffffffffffffffffff1673ffffffffffffffffffffffffffffffffffffffff1662fdd58e3360008989604051612385929190613b62565b9081526020016040518091039020546040518363ffffffff1660e01b81526004016123b1929190613d83565b602060405180830381865afa1580156123ce573d6000803e3d6000fd5b505050506040513d601f19601f820116820180604052508101906123f29190613dc1565b8152509080600181540180825580915050600190039060005260206000209060030201600090919091909150600082015181600001908051906020019061243a929190612ec3565b5060208201518160010160006101000a81548173ffffffffffffffffffffffffffffffffffffffff021916908373ffffffffffffffffffffffffffffffffffffffff16021790555060408201518160020155505050505050565b82828080601f016020809104026020016040519081016040528093929190818152602001838380828437600081840152601f19601f82011690508083019250505050505050600080826040516124ea9190613a67565b9081526020016040518091039020549050600260009054906101000a900473ffffffffffffffffffffffffffffffffffffffff1673ffffffffffffffffffffffffffffffffffffffff16634f558e79826040518263ffffffff1660e01b815260040161255691906132cb565b602060405180830381865afa158015612573573d6000803e3d6000fd5b505050506040513d601f19601f820116820180604052508101906125979190613a93565b6125d6576040517f08c379a00000000000000000000000000000000000000000000000000000000081526004016125cd90613b1d565b60405180910390fd5b60008086866040516125e9929190613b62565b90815260200160405180910390205490506001818154811061260e5761260d613b7b565b5b90600052602060002090600a020160010173__ChangesLibrary________________________637cbb44f99091866040518363ffffffff1660e01b81526004016126599291906140d7565b60006040518083038186803b15801561267157600080fd5b505af4158015612685573d6000803e3d6000fd5b505050507f718a982b61bc723a0c68281b0eb10e1cff37bd89888841ae545c98cd5493a0568487876040516126bc93929190614755565b60405180910390a1505050505050565b81818080601f016020809104026020016040519081016040528093929190818152602001838380828437600081840152601f19601f82011690508083019250505050505050600080826040516127229190613a67565b9081526020016040518091039020549050600260009054906101000a900473ffffffffffffffffffffffffffffffffffffffff1673ffffffffffffffffffffffffffffffffffffffff16634f558e79826040518263ffffffff1660e01b815260040161278e91906132cb565b602060405180830381865afa1580156127ab573d6000803e3d6000fd5b505050506040513d601f19601f820116820180604052508101906127cf9190613a93565b61280e576040517f08c379a000000000000000000000000000000000000000000000000000000000815260040161280590613b1d565b60405180910390fd5b6000808585604051612821929190613b62565b90815260200160405180910390205490506001818154811061284657612845613b7b565b5b90600052602060002090600a020160010173__ChangesLibrary________________________636b6b15cc9091886040518363ffffffff1660e01b81526004016128919291906140d7565b60006040518083038186803b1580156128a957600080fd5b505af41580156128bd573d6000803e3d6000fd5b505050507fa59a33e81abf86b25a561f609013d867f28b3c0cbc2cdf98e852b0c0c041eb6c8585886040516128f493929190614813565b60405180910390a1505050505050565b61290c612d25565b600073ffffffffffffffffffffffffffffffffffffffff168173ffffffffffffffffffffffffffffffffffffffff160361297b576040517f08c379a0000000000000000000000000000000000000000000000000000000008152600401612972906148d1565b60405180910390fd5b61298481612da3565b50565b81818080601f016020809104026020016040519081016040528093929190818152602001838380828437600081840152601f19601f82011690508083019250505050505050600080826040516129dd9190613a67565b9081526020016040518091039020549050600260009054906101000a900473ffffffffffffffffffffffffffffffffffffffff1673ffffffffffffffffffffffffffffffffffffffff16634f558e79826040518263ffffffff1660e01b8152600401612a4991906132cb565b602060405180830381865afa158015612a66573d6000803e3d6000fd5b505050506040513d601f19601f82011682018060405250810190612a8a9190613a93565b612ac9576040517f08c379a0000000000000000000000000000000000000000000000000000000008152600401612ac090613b1d565b60405180910390fd5b7f0000000000000000000000000000000000000000000000000000000000000000600160008686604051612afe929190613b62565b90815260200160405180910390205481548110612b1e57612b1d613b7b565b5b90600052602060002090600a020160050154612b3a91906143d5565b4211612b7b576040517f08c379a0000000000000000000000000000000000000000000000000000000008152600401612b729061493d565b60405180910390fd5b6000808585604051612b8e929190613b62565b9081526020016040518091039020549050600260009054906101000a900473ffffffffffffffffffffffffffffffffffffffff1673ffffffffffffffffffffffffffffffffffffffff1663156e29f6338360018581548110612bf357612bf2613b7b565b5b90600052602060002090600a020160070160003373ffffffffffffffffffffffffffffffffffffffff1673ffffffffffffffffffffffffffffffffffffffff168152602001908152602001600020546040518463ffffffff1660e01b8152600401612c609392919061495d565b600060405180830381600087803b158015612c7a57600080fd5b505af1158015612c8e573d6000803e3d6000fd5b5050505060018181548110612ca657612ca5613b7b565b5b90600052602060002090600a020160070160003373ffffffffffffffffffffffffffffffffffffffff1673ffffffffffffffffffffffffffffffffffffffff168152602001908152602001600020600090555050505050565b600260009054906101000a900473ffffffffffffffffffffffffffffffffffffffff1681565b612d2d612ebb565b73ffffffffffffffffffffffffffffffffffffffff16612d4b611cd5565b73ffffffffffffffffffffffffffffffffffffffff1614612da1576040517f08c379a0000000000000000000000000000000000000000000000000000000008152600401612d98906149e0565b60405180910390fd5b565b6000600360009054906101000a900473ffffffffffffffffffffffffffffffffffffffff16905081600360006101000a81548173ffffffffffffffffffffffffffffffffffffffff021916908373ffffffffffffffffffffffffffffffffffffffff1602179055508173ffffffffffffffffffffffffffffffffffffffff168173ffffffffffffffffffffffffffffffffffffffff167f8be0079c531659141344cd1fd0a4f28419497f9722a3daafe3b4186f6b6457e060405160405180910390a35050565b600080600090505b8251811015612eb557828181518110612e8d57612e8c613b7b565b5b602002602001015182612ea091906143d5565b91508080612ead90614661565b915050612e71565b50919050565b600033905090565b828054612ecf906146d8565b90600052602060002090601f016020900481019282612ef15760008555612f38565b82601f10612f0a57805160ff1916838001178555612f38565b82800160010185558215612f38579182015b82811115612f37578251825591602001919060010190612f1c565b5b509050612f459190612f49565b5090565b5b80821115612f62576000816000905550600101612f4a565b5090565b6000604051905090565b600080fd5b600080fd5b600080fd5b600080fd5b600080fd5b60008083601f840112612f9f57612f9e612f7a565b5b8235905067ffffffffffffffff811115612fbc57612fbb612f7f565b5b602083019150836001820283011115612fd857612fd7612f84565b5b9250929050565b60008115159050919050565b612ff481612fdf565b8114612fff57600080fd5b50565b60008135905061301181612feb565b92915050565b6000806000604084860312156130305761302f612f70565b5b600084013567ffffffffffffffff81111561304e5761304d612f75565b5b61305a86828701612f89565b9350935050602061306d86828701613002565b9150509250925092565b600081519050919050565b600082825260208201905092915050565b6000819050602082019050919050565b600081519050919050565b600082825260208201905092915050565b60005b838110156130dd5780820151818401526020810190506130c2565b838111156130ec576000848401525b50505050565b6000601f19601f8301169050919050565b600061310e826130a3565b61311881856130ae565b93506131288185602086016130bf565b613131816130f2565b840191505092915050565b60006131488383613103565b905092915050565b6000602082019050919050565b600061316882613077565b6131728185613082565b93508360208202850161318485613093565b8060005b858110156131c057848403895281516131a1858261313c565b94506131ac83613150565b925060208a01995050600181019050613188565b50829750879550505050505092915050565b600060208201905081810360008301526131ec818461315d565b905092915050565b600073ffffffffffffffffffffffffffffffffffffffff82169050919050565b600061321f826131f4565b9050919050565b61322f81613214565b811461323a57600080fd5b50565b60008135905061324c81613226565b92915050565b60008060006040848603121561326b5761326a612f70565b5b60006132798682870161323d565b935050602084013567ffffffffffffffff81111561329a57613299612f75565b5b6132a686828701612f89565b92509250509250925092565b6000819050919050565b6132c5816132b2565b82525050565b60006020820190506132e060008301846132bc565b92915050565b600080fd5b7f4e487b7100000000000000000000000000000000000000000000000000000000600052604160045260246000fd5b613323826130f2565b810181811067ffffffffffffffff82111715613342576133416132eb565b5b80604052505050565b6000613355612f66565b9050613361828261331a565b919050565b600067ffffffffffffffff821115613381576133806132eb565b5b61338a826130f2565b9050602081019050919050565b82818337600083830152505050565b60006133b96133b484613366565b61334b565b9050828152602081018484840111156133d5576133d46132e6565b5b6133e0848285613397565b509392505050565b600082601f8301126133fd576133fc612f7a565b5b813561340d8482602086016133a6565b91505092915050565b60006020828403121561342c5761342b612f70565b5b600082013567ffffffffffffffff81111561344a57613449612f75565b5b613456848285016133e8565b91505092915050565b6000806020838503121561347657613475612f70565b5b600083013567ffffffffffffffff81111561349457613493612f75565b5b6134a085828601612f89565b92509250509250929050565b600081519050919050565b600082825260208201905092915050565b6000819050602082019050919050565b6134e181613214565b82525050565b60006134f383836134d8565b60208301905092915050565b6000602082019050919050565b6000613517826134ac565b61352181856134b7565b935061352c836134c8565b8060005b8381101561355d57815161354488826134e7565b975061354f836134ff565b925050600181019050613530565b5085935050505092915050565b60006020820190508181036000830152613584818461350c565b905092915050565b600080604083850312156135a3576135a2612f70565b5b600083013567ffffffffffffffff8111156135c1576135c0612f75565b5b6135cd858286016133e8565b925050602083013567ffffffffffffffff8111156135ee576135ed612f75565b5b6135fa858286016133e8565b9150509250929050565b60008060006040848603121561361d5761361c612f70565b5b600084013567ffffffffffffffff81111561363b5761363a612f75565b5b613647868287016133e8565b935050602084013567ffffffffffffffff81111561366857613667612f75565b5b61367486828701612f89565b92509250509250925092565b61368981613214565b82525050565b60006020820190506136a46000830184613680565b92915050565b600067ffffffffffffffff8211156136c5576136c46132eb565b5b602082029050602081019050919050565b60006136e96136e4846136aa565b61334b565b9050808382526020820190506020840283018581111561370c5761370b612f84565b5b835b818110156137355780613721888261323d565b84526020840193505060208101905061370e565b5050509392505050565b600082601f83011261375457613753612f7a565b5b81356137648482602086016136d6565b91505092915050565b600067ffffffffffffffff821115613788576137876132eb565b5b602082029050602081019050919050565b6137a2816132b2565b81146137ad57600080fd5b50565b6000813590506137bf81613799565b92915050565b60006137d86137d38461376d565b61334b565b905080838252602082019050602084028301858111156137fb576137fa612f84565b5b835b81811015613824578061381088826137b0565b8452602084019350506020810190506137fd565b5050509392505050565b600082601f83011261384357613842612f7a565b5b81356138538482602086016137c5565b91505092915050565b6000806000806060858703121561387657613875612f70565b5b600085013567ffffffffffffffff81111561389457613893612f75565b5b6138a08782880161373f565b945050602085013567ffffffffffffffff8111156138c1576138c0612f75565b5b6138cd8782880161382e565b935050604085013567ffffffffffffffff8111156138ee576138ed612f75565b5b6138fa87828801612f89565b925092505092959194509250565b60008060006040848603121561392157613920612f70565b5b600084013567ffffffffffffffff81111561393f5761393e612f75565b5b61394b86828701612f89565b9350935050602084013567ffffffffffffffff81111561396e5761396d612f75565b5b61397a868287016133e8565b9150509250925092565b60006020828403121561399a57613999612f70565b5b60006139a88482850161323d565b91505092915050565b6000819050919050565b60006139d66139d16139cc846131f4565b6139b1565b6131f4565b9050919050565b60006139e8826139bb565b9050919050565b60006139fa826139dd565b9050919050565b613a0a816139ef565b82525050565b6000602082019050613a256000830184613a01565b92915050565b600081905092915050565b6000613a41826130a3565b613a4b8185613a2b565b9350613a5b8185602086016130bf565b80840191505092915050565b6000613a738284613a36565b915081905092915050565b600081519050613a8d81612feb565b92915050565b600060208284031215613aa957613aa8612f70565b5b6000613ab784828501613a7e565b91505092915050565b600082825260208201905092915050565b7f50726f6a65637420646f206e6f74206578697374000000000000000000000000600082015250565b6000613b07601483613ac0565b9150613b1282613ad1565b602082019050919050565b60006020820190508181036000830152613b3681613afa565b9050919050565b6000613b498385613a2b565b9350613b56838584613397565b82840190509392505050565b6000613b6f828486613b3d565b91508190509392505050565b7f4e487b7100000000000000000000000000000000000000000000000000000000600052603260045260246000fd5b8082525050565b613bba81612fdf565b82525050565b6000604082019050613bd56000830185613baa565b613be26020830184613bb1565b9392505050565b600067ffffffffffffffff821115613c0457613c036132eb565b5b602082029050602081019050919050565b6000613c28613c2384613366565b61334b565b905082815260208101848484011115613c4457613c436132e6565b5b613c4f8482856130bf565b509392505050565b600082601f830112613c6c57613c6b612f7a565b5b8151613c7c848260208601613c15565b91505092915050565b6000613c98613c9384613be9565b61334b565b90508083825260208201905060208402830185811115613cbb57613cba612f84565b5b835b81811015613d0257805167ffffffffffffffff811115613ce057613cdf612f7a565b5b808601613ced8982613c57565b85526020850194505050602081019050613cbd565b5050509392505050565b600082601f830112613d2157613d20612f7a565b5b8151613d31848260208601613c85565b91505092915050565b600060208284031215613d5057613d4f612f70565b5b600082015167ffffffffffffffff811115613d6e57613d6d612f75565b5b613d7a84828501613d0c565b91505092915050565b6000604082019050613d986000830185613680565b613da560208301846132bc565b9392505050565b600081519050613dbb81613799565b92915050565b600060208284031215613dd757613dd6612f70565b5b6000613de584828501613dac565b91505092915050565b6000602082019050613e036000830184613baa565b92915050565b600081519050613e1881613226565b92915050565b6000613e31613e2c846136aa565b61334b565b90508083825260208201905060208402830185811115613e5457613e53612f84565b5b835b81811015613e7d5780613e698882613e09565b845260208401935050602081019050613e56565b5050509392505050565b600082601f830112613e9c57613e9b612f7a565b5b8151613eac848260208601613e1e565b91505092915050565b600060208284031215613ecb57613eca612f70565b5b600082015167ffffffffffffffff811115613ee957613ee8612f75565b5b613ef584828501613e87565b91505092915050565b7f4e487b7100000000000000000000000000000000000000000000000000000000600052601160045260246000fd5b6000613f38826132b2565b9150613f43836132b2565b9250817fffffffffffffffffffffffffffffffffffffffffffffffffffffffffffffffff0483118215151615613f7c57613f7b613efe565b5b828202905092915050565b7f4e487b7100000000000000000000000000000000000000000000000000000000600052601260045260246000fd5b6000613fc1826132b2565b9150613fcc836132b2565b925082613fdc57613fdb613f87565b5b828204905092915050565b6000613ff2826132b2565b9150613ffd836132b2565b9250828210156140105761400f613efe565b5b828203905092915050565b6000819050919050565b600061404061403b6140368461401b565b6139b1565b6132b2565b9050919050565b61405081614025565b82525050565b600060608201905061406b6000830186613680565b61407860208301856132bc565b6140856040830184614047565b949350505050565b600082825260208201905092915050565b60006140a9826130a3565b6140b3818561408d565b93506140c38185602086016130bf565b6140cc816130f2565b840191505092915050565b60006040820190506140ec6000830185613baa565b81810360208301526140fe818461409e565b90509392505050565b7f4e65772070726f6a656374206372656174656420776974682049443a00000000600082015250565b600061413d601c83613ac0565b915061414882614107565b602082019050919050565b600061415e826130a3565b6141688185613ac0565b93506141788185602086016130bf565b614181816130f2565b840191505092915050565b600060608201905081810360008301526141a581614130565b905081810360208301526141b98185614153565b90506141c860408301846132bc565b9392505050565b7f416c726561647920766f74656400000000000000000000000000000000000000600082015250565b6000614205600d83613ac0565b9150614210826141cf565b602082019050919050565b60006020820190508181036000830152614234816141f8565b9050919050565b7f566f74696e6720706f77657220697320696e73756666696369656e7400000000600082015250565b6000614271601c83613ac0565b915061427c8261423b565b602082019050919050565b600060208201905081810360008301526142a081614264565b9050919050565b6142b0816132b2565b82525050565b60006060820190506142cb6000830186613baa565b81810360208301526142dd818561409e565b90506142ec60408301846142a7565b949350505050565b7f4e657720766f746520666f72206368616e67652070726f706f73616c3a000000600082015250565b600061432a601d83613ac0565b9150614335826142f4565b602082019050919050565b600061434c8385613ac0565b9350614359838584613397565b614362836130f2565b840190509392505050565b600060a08201905081810360008301526143868161431d565b9050818103602083015261439b818789614340565b905081810360408301526143af8186614153565b90506143be6060830185613680565b6143cb60808301846132bc565b9695505050505050565b60006143e0826132b2565b91506143eb836132b2565b9250827fffffffffffffffffffffffffffffffffffffffffffffffffffffffffffffffff038211156144205761441f613efe565b5b828201905092915050565b7f6e6f7420646973747269627574696f6e2074696d650000000000000000000000600082015250565b6000614461601583613ac0565b915061446c8261442b565b602082019050919050565b6000602082019050818103600083015261449081614454565b9050919050565b7f4e6577206368616e67652070726f706f73616c20746f207468652050726f6a6560008201527f6374207769746820746865206e616d6520616e6420666f6c6c6f77696e67204960208201527f4420616e64204349443a00000000000000000000000000000000000000000000604082015250565b6000614519604a83613ac0565b915061452482614497565b606082019050919050565b600060808201905081810360008301526145488161450c565b9050818103602083015261455d818688614340565b905081810360408301526145718185614153565b905061458060608301846132bc565b95945050505050565b7f6e6f742073616d6520616d6f756e7473206173206120726563657069656e7473600082015250565b60006145bf602083613ac0565b91506145ca82614589565b602082019050919050565b600060208201905081810360008301526145ee816145b2565b9050919050565b7f556e737566666963656e7420616d6f756e74206f6620746f6b656e7300000000600082015250565b600061462b601c83613ac0565b9150614636826145f5565b602082019050919050565b6000602082019050818103600083015261465a8161461e565b9050919050565b600061466c826132b2565b91507fffffffffffffffffffffffffffffffffffffffffffffffffffffffffffffffff820361469e5761469d613efe565b5b600182019050919050565b7f4e487b7100000000000000000000000000000000000000000000000000000000600052602260045260246000fd5b600060028204905060018216806146f057607f821691505b602082108103614703576147026146a9565b5b50919050565b7f50726f6a656374206368616e67656420746f206368616e67653a200000000000600082015250565b600061473f601b83613ac0565b915061474a82614709565b602082019050919050565b6000606082019050818103600083015261476e81614732565b905081810360208301526147828186614153565b90508181036040830152614797818486614340565b9050949350505050565b7f41206e6577206368616e676520686173206265656e206d61646520746f20746860008201527f652070726f6a6563743a20000000000000000000000000000000000000000000602082015250565b60006147fd602b83613ac0565b9150614808826147a1565b604082019050919050565b6000606082019050818103600083015261482c816147f0565b90508181036020830152614841818587614340565b905081810360408301526148558184614153565b9050949350505050565b7f4f776e61626c653a206e6577206f776e657220697320746865207a65726f206160008201527f6464726573730000000000000000000000000000000000000000000000000000602082015250565b60006148bb602683613ac0565b91506148c68261485f565b604082019050919050565b600060208201905081810360008301526148ea816148ae565b9050919050565b7f6e6f7420636c61696d696e672074696d65000000000000000000000000000000600082015250565b6000614927601183613ac0565b9150614932826148f1565b602082019050919050565b600060208201905081810360008301526149568161491a565b9050919050565b60006060820190506149726000830186613680565b61497f60208301856132bc565b61498c60408301846132bc565b949350505050565b7f4f776e61626c653a2063616c6c6572206973206e6f7420746865206f776e6572600082015250565b60006149ca602083613ac0565b91506149d582614994565b602082019050919050565b600060208201905081810360008301526149f9816149bd565b905091905056fea26469706673582212204e15c3e7092289251c261f65b5cdc4976de6a81c2c16b8c3a7abfcf60ff2e58964736f6c634300080d0033",
  "immutableReferences": {
    "520": [
      {
        "length": 32,
        "start": 5827
      },
      {
        "length": 32,
        "start": 6225
      },
      {
        "length": 32,
        "start": 7865
      },
      {
        "length": 32,
        "start": 10955
      }
    ]
  },
  "source": "// SPDX-License-Identifier: MIT\npragma solidity ^0.8.2;\nimport \"./Projects.sol\";\nimport \"../node_modules/@openzeppelin/contracts/access/Ownable.sol\";\n\ncontract TokenDistribution is Projects, Ownable {\n\n    constructor(address _tokenAddress) Projects(_tokenAddress) {} \n\n    function sum(uint[] memory _tokens) internal pure returns(uint _sum) {\n\t\tfor (uint i = 0; i < _tokens.length; i++)\n\t\t\t_sum += _tokens[i];\n\t}\n\n    function getDistributionBalanceOf(\n        address usr, \n        string calldata projectName\n    ) public view ProjectExist(projectName) returns (uint) {\n        uint projectIDX = NameToID[projectName];\n        uint lastDistributionTime = publicProjects[projectIDX].lastDistributionTime;\n        uint balanceOf = token.balanceOf(usr, projectIDX);\n\n        // calculate the proportion of tokens you have\n        uint tokens = (balanceOf * 100) / token.totalSupply(projectIDX);\n        if (tokens == 0) {\n            return 0;\n        }\n        tokens = (publicProjects[projectIDX].newTokens * tokens) / 100;\n        tokens -= publicProjects[projectIDX].TokensSpent[usr][lastDistributionTime];\n        return tokens;\n    }\n\n    function distribute(\n        address[] memory recipients,\n        uint[] memory amounts,  \n        string calldata projectName\n    ) external ProjectExist(projectName) {\n        uint projectIDX = NameToID[projectName];\n        uint tokensToSpend = sum(amounts);\n\n        require(recipients.length == amounts.length, \"not same amounts as a recepients\");\n        require(publicProjects[projectIDX].lastDistributionTime + TimeLockInterval > block.timestamp, \"not distribution time\");\n        require(tokensToSpend <= getDistributionBalanceOf(msg.sender, projectName), \"Unsufficent amount of tokens\");\n        \n        uint lastDistributionTime = publicProjects[projectIDX].lastDistributionTime;\n\n        for (uint i=0; i<recipients.length; i++) {\n            publicProjects[projectIDX].pendingTokens[recipients[i]] += amounts[i];\n        }\n\n        publicProjects[projectIDX].TokensSpent[msg.sender][lastDistributionTime] += tokensToSpend;\n    }\n\n    function startDistribution(\n        string calldata projectName\n    ) external ProjectExist(projectName) {\n        uint projectIDX = NameToID[projectName];\n        require(block.timestamp > publicProjects[projectIDX].lastDistributionTime + TimeLockInterval + 1 days, \"not distribution time\");\n        publicProjects[projectIDX].newTokens = 100;\n        publicProjects[projectIDX].lastDistributionTime = block.timestamp;\n    }\n\n    function claimPendingTokens(\n        string calldata projectName\n    ) external ProjectExist(projectName) {\n        require(block.timestamp > publicProjects[NameToID[projectName]].lastDistributionTime + TimeLockInterval, \"not claiming time\");\n\n        uint projectIDX = NameToID[projectName];\n        token.mint(msg.sender, projectIDX, publicProjects[projectIDX].pendingTokens[msg.sender]);\n        delete publicProjects[projectIDX].pendingTokens[msg.sender];\n    }\n\n}\n",
  "sourcePath": "c:\\Users\\User\\Desktop\\\\davidson\\project\\DavidsonProject\\Smart Contract\\contracts\\TokenDistribution.sol",
  "compiler": {
    "name": "solc",
    "version": "0.8.13+commit.abaa5c0e.Emscripten.clang"
  },
  "schemaVersion": "3.4.7",
  "updatedAt": "2024-03-09T15:11:37.340Z",
  "networkType": "ethereum",
  "devdoc": {
    "kind": "dev",
    "methods": {
      "owner()": {
        "details": "Returns the address of the current owner."
      },
      "renounceOwnership()": {
        "details": "Leaves the contract without owner. It will not be possible to call `onlyOwner` functions. Can only be called by the current owner. NOTE: Renouncing ownership will leave the contract without an owner, thereby disabling any functionality that is only available to the owner."
      },
      "transferOwnership(address)": {
        "details": "Transfers ownership of the contract to a new account (`newOwner`). Can only be called by the current owner."
      }
    },
    "version": 1
  },
  "userdoc": {
    "kind": "user",
    "methods": {},
    "version": 1
  }
}