{
  "contractName": "TokenDistribution",
  "abi": [
    {
      "inputs": [
        {
          "internalType": "address",
          "name": "_tokenAddress",
          "type": "address"
        }
      ],
      "stateMutability": "nonpayable",
      "type": "constructor"
    },
    {
      "anonymous": false,
      "inputs": [
        {
          "indexed": false,
          "internalType": "string",
          "name": "message",
          "type": "string"
        },
        {
          "indexed": false,
          "internalType": "string",
          "name": "projectName",
          "type": "string"
        },
        {
          "indexed": false,
          "internalType": "string",
          "name": "changeCID",
          "type": "string"
        }
      ],
      "name": "NewChangeIsMadeToProject",
      "type": "event"
    },
    {
      "anonymous": false,
      "inputs": [
        {
          "indexed": false,
          "internalType": "string",
          "name": "message",
          "type": "string"
        },
        {
          "indexed": false,
          "internalType": "string",
          "name": "Name",
          "type": "string"
        },
        {
          "indexed": false,
          "internalType": "string",
          "name": "CID",
          "type": "string"
        },
        {
          "indexed": false,
          "internalType": "uint256",
          "name": "indexValue",
          "type": "uint256"
        }
      ],
      "name": "NewChangeProposalCreated",
      "type": "event"
    },
    {
      "anonymous": false,
      "inputs": [
        {
          "indexed": false,
          "internalType": "string",
          "name": "message",
          "type": "string"
        },
        {
          "indexed": false,
          "internalType": "string",
          "name": "name",
          "type": "string"
        },
        {
          "indexed": false,
          "internalType": "uint256",
          "name": "value",
          "type": "uint256"
        }
      ],
      "name": "NewProjectCreated",
      "type": "event"
    },
    {
      "anonymous": false,
      "inputs": [
        {
          "indexed": false,
          "internalType": "string",
          "name": "message",
          "type": "string"
        },
        {
          "indexed": false,
          "internalType": "string",
          "name": "projectName",
          "type": "string"
        },
        {
          "indexed": false,
          "internalType": "string",
          "name": "changeProposalCID",
          "type": "string"
        },
        {
          "indexed": false,
          "internalType": "address",
          "name": "voter",
          "type": "address"
        },
        {
          "indexed": false,
          "internalType": "uint256",
          "name": "votes",
          "type": "uint256"
        }
      ],
      "name": "NewVoteForChangeProposal",
      "type": "event"
    },
    {
      "anonymous": false,
      "inputs": [
        {
          "indexed": true,
          "internalType": "address",
          "name": "previousOwner",
          "type": "address"
        },
        {
          "indexed": true,
          "internalType": "address",
          "name": "newOwner",
          "type": "address"
        }
      ],
      "name": "OwnershipTransferred",
      "type": "event"
    },
    {
      "anonymous": false,
      "inputs": [
        {
          "indexed": false,
          "internalType": "string",
          "name": "message",
          "type": "string"
        },
        {
          "indexed": false,
          "internalType": "string",
          "name": "changeCID",
          "type": "string"
        },
        {
          "indexed": false,
          "internalType": "string",
          "name": "ProjectName",
          "type": "string"
        }
      ],
      "name": "ProjectWentBack",
      "type": "event"
    },
    {
      "anonymous": false,
      "inputs": [
        {
          "indexed": false,
          "internalType": "string",
          "name": "message",
          "type": "string"
        },
        {
          "indexed": false,
          "internalType": "uint256",
          "name": "lastDistributionTime",
          "type": "uint256"
        }
      ],
      "name": "TokensDisributed",
      "type": "event"
    },
    {
      "inputs": [
        {
          "internalType": "string",
          "name": "_changeCID",
          "type": "string"
        },
        {
          "internalType": "string",
          "name": "_projectName",
          "type": "string"
        }
      ],
      "name": "MakeChangeProposal",
      "outputs": [],
      "stateMutability": "nonpayable",
      "type": "function"
    },
    {
      "inputs": [
        {
          "internalType": "string",
          "name": "_changeCID",
          "type": "string"
        },
        {
          "internalType": "string",
          "name": "_projectName",
          "type": "string"
        }
      ],
      "name": "MakeGoBackProposal",
      "outputs": [],
      "stateMutability": "nonpayable",
      "type": "function"
    },
    {
      "inputs": [
        {
          "internalType": "string",
          "name": "",
          "type": "string"
        }
      ],
      "name": "NameToID",
      "outputs": [
        {
          "internalType": "uint256",
          "name": "",
          "type": "uint256"
        }
      ],
      "stateMutability": "view",
      "type": "function",
      "constant": true
    },
    {
      "inputs": [],
      "name": "TimeLockInterval",
      "outputs": [
        {
          "internalType": "uint256",
          "name": "",
          "type": "uint256"
        }
      ],
      "stateMutability": "view",
      "type": "function",
      "constant": true
    },
    {
      "inputs": [
        {
          "internalType": "string",
          "name": "_proposedChangeCID",
          "type": "string"
        },
        {
          "internalType": "string",
          "name": "_projectName",
          "type": "string"
        }
      ],
      "name": "acceptChangeProposal",
      "outputs": [],
      "stateMutability": "nonpayable",
      "type": "function"
    },
    {
      "inputs": [
        {
          "internalType": "string",
          "name": "_projectName",
          "type": "string"
        },
        {
          "internalType": "string",
          "name": "_changeCID",
          "type": "string"
        }
      ],
      "name": "acceptGoBack",
      "outputs": [],
      "stateMutability": "nonpayable",
      "type": "function"
    },
    {
      "inputs": [
        {
          "internalType": "string",
          "name": "_CID",
          "type": "string"
        },
        {
          "internalType": "string",
          "name": "projectName",
          "type": "string"
        }
      ],
      "name": "createProject",
      "outputs": [],
      "stateMutability": "nonpayable",
      "type": "function"
    },
    {
      "inputs": [
        {
          "internalType": "string",
          "name": "_projectName",
          "type": "string"
        },
        {
          "internalType": "address",
          "name": "_UserAddress",
          "type": "address"
        }
      ],
      "name": "getBalance",
      "outputs": [
        {
          "internalType": "uint256",
          "name": "",
          "type": "uint256"
        }
      ],
      "stateMutability": "view",
      "type": "function",
      "constant": true
    },
    {
      "inputs": [
        {
          "internalType": "string",
          "name": "_projectName",
          "type": "string"
        },
        {
          "internalType": "bool",
          "name": "changesOrChangeProposals",
          "type": "bool"
        }
      ],
      "name": "getChangesOrProposals",
      "outputs": [
        {
          "internalType": "string[]",
          "name": "",
          "type": "string[]"
        }
      ],
      "stateMutability": "view",
      "type": "function",
      "constant": true
    },
    {
      "inputs": [],
      "name": "getLastProjects",
      "outputs": [
        {
          "internalType": "string[]",
          "name": "",
          "type": "string[]"
        }
      ],
      "stateMutability": "view",
      "type": "function",
      "constant": true
    },
    {
      "inputs": [],
      "name": "owner",
      "outputs": [
        {
          "internalType": "address",
          "name": "",
          "type": "address"
        }
      ],
      "stateMutability": "view",
      "type": "function",
      "constant": true
    },
    {
      "inputs": [],
      "name": "renounceOwnership",
      "outputs": [],
      "stateMutability": "nonpayable",
      "type": "function"
    },
    {
      "inputs": [],
      "name": "token",
      "outputs": [
        {
          "internalType": "contract ProjectsToken",
          "name": "",
          "type": "address"
        }
      ],
      "stateMutability": "view",
      "type": "function",
      "constant": true
    },
    {
      "inputs": [
        {
          "internalType": "address",
          "name": "newOwner",
          "type": "address"
        }
      ],
      "name": "transferOwnership",
      "outputs": [],
      "stateMutability": "nonpayable",
      "type": "function"
    },
    {
      "inputs": [
        {
          "internalType": "string",
          "name": "_changeProposalCID",
          "type": "string"
        },
        {
          "internalType": "string",
          "name": "_projectName",
          "type": "string"
        }
      ],
      "name": "voteForChangeProposal",
      "outputs": [],
      "stateMutability": "nonpayable",
      "type": "function"
    },
    {
      "inputs": [],
      "name": "calculateNewTokens",
      "outputs": [
        {
          "internalType": "uint256",
          "name": "",
          "type": "uint256"
        }
      ],
      "stateMutability": "pure",
      "type": "function",
      "constant": true
    },
    {
      "inputs": [
        {
          "internalType": "address",
          "name": "usr",
          "type": "address"
        },
        {
          "internalType": "string",
          "name": "projectName",
          "type": "string"
        }
      ],
      "name": "getDistributionBalanceOf",
      "outputs": [
        {
          "internalType": "uint256",
          "name": "",
          "type": "uint256"
        }
      ],
      "stateMutability": "view",
      "type": "function",
      "constant": true
    },
    {
      "inputs": [
        {
          "internalType": "address[]",
          "name": "recipients",
          "type": "address[]"
        },
        {
          "internalType": "uint256[]",
          "name": "amounts",
          "type": "uint256[]"
        },
        {
          "internalType": "string",
          "name": "projectName",
          "type": "string"
        }
      ],
      "name": "distribute",
      "outputs": [],
      "stateMutability": "nonpayable",
      "type": "function"
    },
    {
      "inputs": [
        {
          "internalType": "string",
          "name": "projectName",
          "type": "string"
        }
      ],
      "name": "startDistribution",
      "outputs": [],
      "stateMutability": "nonpayable",
      "type": "function"
    },
    {
      "inputs": [
        {
          "internalType": "string",
          "name": "projectName",
          "type": "string"
        }
      ],
      "name": "claimPendingTokens",
      "outputs": [],
      "stateMutability": "nonpayable",
      "type": "function"
    }
  ],
  "bytecode": "0x60a060405262278d006080908152503480156200001b57600080fd5b5060405162004332380380620043328339818101604052810190620000419190620001e3565b8080600260006101000a81548173ffffffffffffffffffffffffffffffffffffffff021916908373ffffffffffffffffffffffffffffffffffffffff16021790555050620000a462000098620000ab60201b60201c565b620000b360201b60201c565b5062000215565b600033905090565b6000600360009054906101000a900473ffffffffffffffffffffffffffffffffffffffff16905081600360006101000a81548173ffffffffffffffffffffffffffffffffffffffff021916908373ffffffffffffffffffffffffffffffffffffffff1602179055508173ffffffffffffffffffffffffffffffffffffffff168173ffffffffffffffffffffffffffffffffffffffff167f8be0079c531659141344cd1fd0a4f28419497f9722a3daafe3b4186f6b6457e060405160405180910390a35050565b600080fd5b600073ffffffffffffffffffffffffffffffffffffffff82169050919050565b6000620001ab826200017e565b9050919050565b620001bd816200019e565b8114620001c957600080fd5b50565b600081519050620001dd81620001b2565b92915050565b600060208284031215620001fc57620001fb62000179565b5b60006200020c84828501620001cc565b91505092915050565b6080516140f36200023f60003960008181610f150152818161109f01526118de01526140f36000f3fe608060405234801561001057600080fd5b506004361061012c5760003560e01c80638d1446fc116100ad578063c4687fb811610071578063c4687fb81461031b578063ed0c2d9014610337578063f2fde38b14610353578063f396530f1461036f578063fc0c546a1461038b5761012c565b80638d1446fc1461028b5780638da5cb5b146102a75780639f6806ec146102c5578063a54d804d146102e1578063a5635963146102ff5761012c565b8063715018a6116100f4578063715018a6146101fb578063750354d2146102055780637a5945da146102215780637ec156741461023f57806389f4b3171461025b5761012c565b80631d7147d81461013157806333846eba1461016157806349b7b64014610191578063505254dd146101c15780636bd06204146101df575b600080fd5b61014b6004803603810190610146919061298a565b6103a9565b6040516101589190612b45565b60405180910390f35b61017b60048036038101906101769190612c97565b6105c2565b6040516101889190612cf9565b60405180910390f35b6101ab60048036038101906101a69190612d72565b6105f0565b6040516101b89190612cf9565b60405180910390f35b6101c961081b565b6040516101d69190612cf9565b60405180910390f35b6101f960048036038101906101f49190612dd2565b610824565b005b6102036109d5565b005b61021f600480360381019061021a9190612e4a565b6109e9565b005b610229610f13565b6040516102369190612cf9565b60405180910390f35b61025960048036038101906102549190612ec6565b610f37565b005b61027560048036038101906102709190612f13565b611160565b6040516102829190612cf9565b60405180910390f35b6102a560048036038101906102a09190612e4a565b61136c565b005b6102af6116fa565b6040516102bc9190612f82565b60405180910390f35b6102df60048036038101906102da919061314f565b611724565b005b6102e9611b46565b6040516102f69190612b45565b60405180910390f35b61031960048036038101906103149190612e4a565b611ce4565b005b610335600480360381019061033091906131fb565b611eb9565b005b610351600480360381019061034c9190612e4a565b6120f1565b005b61036d60048036038101906103689190613277565b612329565b005b61038960048036038101906103849190612ec6565b6123ac565b005b610393612672565b6040516103a09190613303565b60405180910390f35b606083838080601f016020809104026020016040519081016040528093929190818152602001838380828437600081840152601f19601f8201169050808301925050505050505060008082604051610401919061335a565b9081526020016040518091039020549050600260009054906101000a900473ffffffffffffffffffffffffffffffffffffffff1673ffffffffffffffffffffffffffffffffffffffff16634f558e79826040518263ffffffff1660e01b815260040161046d9190612cf9565b602060405180830381865afa15801561048a573d6000803e3d6000fd5b505050506040513d601f19601f820116820180604052508101906104ae9190613386565b6104ed576040517f08c379a00000000000000000000000000000000000000000000000000000000081526004016104e490613410565b60405180910390fd5b6000808787604051610500929190613455565b9081526020016040518091039020549050600181815481106105255761052461346e565b5b906000526020600020906009020160010173__ChangesLibrary________________________63e3e26be89091876040518363ffffffff1660e01b81526004016105709291906134b3565b600060405180830381865af415801561058d573d6000803e3d6000fd5b505050506040513d6000823e3d601f19601f820116820180604052508101906105b6919061362d565b93505050509392505050565b6000818051602081018201805184825260208301602085012081835280955050505050506000915090505481565b600082828080601f016020809104026020016040519081016040528093929190818152602001838380828437600081840152601f19601f8201169050808301925050505050505060008082604051610648919061335a565b9081526020016040518091039020549050600260009054906101000a900473ffffffffffffffffffffffffffffffffffffffff1673ffffffffffffffffffffffffffffffffffffffff16634f558e79826040518263ffffffff1660e01b81526004016106b49190612cf9565b602060405180830381865afa1580156106d1573d6000803e3d6000fd5b505050506040513d601f19601f820116820180604052508101906106f59190613386565b610734576040517f08c379a000000000000000000000000000000000000000000000000000000000815260040161072b90613410565b60405180910390fd5b6000808686604051610747929190613455565b908152602001604051809103902054905060006001828154811061076e5761076d61346e565b5b90600052602060002090600902016005015490506000600183815481106107985761079761346e565b5b906000526020600020906009020160070160008a73ffffffffffffffffffffffffffffffffffffffff1673ffffffffffffffffffffffffffffffffffffffff16815260200190815260200160002060008381526020019081526020016000205461080061081b565b61080a91906136a5565b905080955050505050509392505050565b60006001905090565b600060018054905090508060008360405161083f919061335a565b908152602001604051809103902081905550600260009054906101000a900473ffffffffffffffffffffffffffffffffffffffff1673ffffffffffffffffffffffffffffffffffffffff1663156e29f63383600a6040518463ffffffff1660e01b81526004016108b193929190613714565b600060405180830381600087803b1580156108cb57600080fd5b505af11580156108df573d6000803e3d6000fd5b5050505060006001808160018154018082558091505003906000526020600020906009020190508281600001908051906020019061091e929190612836565b508060010173__ChangesLibrary________________________63aaff905a9091866040518363ffffffff1660e01b815260040161095d929190613795565b60006040518083038186803b15801561097557600080fd5b505af4158015610989573d6000803e3d6000fd5b505050504281600501819055507fe224389b386caecb8e3b38edc39361c7227e3ef820a8276bc31ac9cf1ba69fcd83836040516109c792919061384a565b60405180910390a150505050565b6109dd612698565b6109e76000612716565b565b81818080601f016020809104026020016040519081016040528093929190818152602001838380828437600081840152601f19601f8201169050808301925050505050505060008082604051610a3f919061335a565b9081526020016040518091039020549050600260009054906101000a900473ffffffffffffffffffffffffffffffffffffffff1673ffffffffffffffffffffffffffffffffffffffff16634f558e79826040518263ffffffff1660e01b8152600401610aab9190612cf9565b602060405180830381865afa158015610ac8573d6000803e3d6000fd5b505050506040513d601f19601f82011682018060405250810190610aec9190613386565b610b2b576040517f08c379a0000000000000000000000000000000000000000000000000000000008152600401610b2290613410565b60405180910390fd5b6000808585604051610b3e929190613455565b90815260200160405180910390205490506000151560018281548110610b6757610b6661346e565b5b906000526020600020906009020160080187604051610b86919061335a565b908152602001604051809103902060003373ffffffffffffffffffffffffffffffffffffffff1673ffffffffffffffffffffffffffffffffffffffff16815260200190815260200160002060009054906101000a900460ff16151514610c21576040517f08c379a0000000000000000000000000000000000000000000000000000000008152600401610c18906138d9565b60405180910390fd5b6000600260009054906101000a900473ffffffffffffffffffffffffffffffffffffffff1673ffffffffffffffffffffffffffffffffffffffff1662fdd58e33846040518363ffffffff1660e01b8152600401610c7f9291906138f9565b602060405180830381865afa158015610c9c573d6000803e3d6000fd5b505050506040513d601f19601f82011682018060405250810190610cc09190613937565b905060008111610d05576040517f08c379a0000000000000000000000000000000000000000000000000000000008152600401610cfc906139b0565b60405180910390fd5b60018281548110610d1957610d1861346e565b5b906000526020600020906009020160010173__ChangesLibrary________________________637dba11cb909189846040518463ffffffff1660e01b8152600401610d66939291906139df565b60006040518083038186803b158015610d7e57600080fd5b505af4158015610d92573d6000803e3d6000fd5b505050506001808381548110610dab57610daa61346e565b5b906000526020600020906009020160080188604051610dca919061335a565b908152602001604051809103902060003373ffffffffffffffffffffffffffffffffffffffff1673ffffffffffffffffffffffffffffffffffffffff16815260200190815260200160002060006101000a81548160ff0219169083151502179055507f0defd832aa647eb845ac2ed5e414ba9da1d13d7c3b2028fea20853913891174d8686893360018781548110610e6557610e6461346e565b5b906000526020600020906009020160010173__ChangesLibrary________________________63ca5451d290918e6040518363ffffffff1660e01b8152600401610eb0929190613795565b602060405180830381865af4158015610ecd573d6000803e3d6000fd5b505050506040513d601f19601f82011682018060405250810190610ef19190613937565b604051610f02959493929190613a96565b60405180910390a150505050505050565b7f000000000000000000000000000000000000000000000000000000000000000081565b81818080601f016020809104026020016040519081016040528093929190818152602001838380828437600081840152601f19601f8201169050808301925050505050505060008082604051610f8d919061335a565b9081526020016040518091039020549050600260009054906101000a900473ffffffffffffffffffffffffffffffffffffffff1673ffffffffffffffffffffffffffffffffffffffff16634f558e79826040518263ffffffff1660e01b8152600401610ff99190612cf9565b602060405180830381865afa158015611016573d6000803e3d6000fd5b505050506040513d601f19601f8201168201806040525081019061103a9190613386565b611079576040517f08c379a000000000000000000000000000000000000000000000000000000000815260040161107090613410565b60405180910390fd5b600080858560405161108c929190613455565b90815260200160405180910390205490507f0000000000000000000000000000000000000000000000000000000000000000600182815481106110d2576110d161346e565b5b9060005260206000209060090201600501546110ee9190613afe565b421161112f576040517f08c379a000000000000000000000000000000000000000000000000000000000815260040161112690613ba0565b60405180910390fd5b42600182815481106111445761114361346e565b5b9060005260206000209060090201600501819055505050505050565b600083838080601f016020809104026020016040519081016040528093929190818152602001838380828437600081840152601f19601f82011690508083019250505050505050600080826040516111b8919061335a565b9081526020016040518091039020549050600260009054906101000a900473ffffffffffffffffffffffffffffffffffffffff1673ffffffffffffffffffffffffffffffffffffffff16634f558e79826040518263ffffffff1660e01b81526004016112249190612cf9565b602060405180830381865afa158015611241573d6000803e3d6000fd5b505050506040513d601f19601f820116820180604052508101906112659190613386565b6112a4576040517f08c379a000000000000000000000000000000000000000000000000000000000815260040161129b90613410565b60405180910390fd5b600260009054906101000a900473ffffffffffffffffffffffffffffffffffffffff1673ffffffffffffffffffffffffffffffffffffffff1662fdd58e85600089896040516112f4929190613455565b9081526020016040518091039020546040518363ffffffff1660e01b81526004016113209291906138f9565b602060405180830381865afa15801561133d573d6000803e3d6000fd5b505050506040513d601f19601f820116820180604052508101906113619190613937565b925050509392505050565b81818080601f016020809104026020016040519081016040528093929190818152602001838380828437600081840152601f19601f82011690508083019250505050505050600080826040516113c2919061335a565b9081526020016040518091039020549050600260009054906101000a900473ffffffffffffffffffffffffffffffffffffffff1673ffffffffffffffffffffffffffffffffffffffff16634f558e79826040518263ffffffff1660e01b815260040161142e9190612cf9565b602060405180830381865afa15801561144b573d6000803e3d6000fd5b505050506040513d601f19601f8201168201806040525081019061146f9190613386565b6114ae576040517f08c379a00000000000000000000000000000000000000000000000000000000081526004016114a590613410565b60405180910390fd5b60008085856040516114c1929190613455565b9081526020016040518091039020549050600181815481106114e6576114e561346e565b5b906000526020600020906009020160010173__ChangesLibrary________________________636de060a8909188600260009054906101000a900473ffffffffffffffffffffffffffffffffffffffff1673ffffffffffffffffffffffffffffffffffffffff1662fdd58e3360008c8c604051611564929190613455565b9081526020016040518091039020546040518363ffffffff1660e01b81526004016115909291906138f9565b602060405180830381865afa1580156115ad573d6000803e3d6000fd5b505050506040513d601f19601f820116820180604052508101906115d19190613937565b6040518463ffffffff1660e01b81526004016115ef939291906139df565b60006040518083038186803b15801561160757600080fd5b505af415801561161b573d6000803e3d6000fd5b5050505060018082815481106116345761163361346e565b5b906000526020600020906009020160080187604051611653919061335a565b908152602001604051809103902060003373ffffffffffffffffffffffffffffffffffffffff1673ffffffffffffffffffffffffffffffffffffffff16815260200190815260200160002060006101000a81548160ff0219169083151502179055507f7b7acf540aac5e16ce3dfbd4d106c203a301da603c18502d179f60282962e5c4858588846040516116ea9493929190613c58565b60405180910390a1505050505050565b6000600360009054906101000a900473ffffffffffffffffffffffffffffffffffffffff16905090565b81818080601f016020809104026020016040519081016040528093929190818152602001838380828437600081840152601f19601f820116905080830192505050505050506000808260405161177a919061335a565b9081526020016040518091039020549050600260009054906101000a900473ffffffffffffffffffffffffffffffffffffffff1673ffffffffffffffffffffffffffffffffffffffff16634f558e79826040518263ffffffff1660e01b81526004016117e69190612cf9565b602060405180830381865afa158015611803573d6000803e3d6000fd5b505050506040513d601f19601f820116820180604052508101906118279190613386565b611866576040517f08c379a000000000000000000000000000000000000000000000000000000000815260040161185d90613410565b60405180910390fd5b6000808585604051611879929190613455565b90815260200160405180910390205490506000611895876127dc565b905086518851146118db576040517f08c379a00000000000000000000000000000000000000000000000000000000081526004016118d290613cfe565b60405180910390fd5b427f0000000000000000000000000000000000000000000000000000000000000000600184815481106119115761191061346e565b5b90600052602060002090600902016005015461192d9190613afe565b1161196d576040517f08c379a000000000000000000000000000000000000000000000000000000000815260040161196490613ba0565b60405180910390fd5b6119783387876105f0565b8111156119ba576040517f08c379a00000000000000000000000000000000000000000000000000000000081526004016119b190613d6a565b60405180910390fd5b6000600183815481106119d0576119cf61346e565b5b906000526020600020906009020160050154905060005b8951811015611ab057888181518110611a0357611a0261346e565b5b602002602001015160018581548110611a1f57611a1e61346e565b5b906000526020600020906009020160060160008c8481518110611a4557611a4461346e565b5b602002602001015173ffffffffffffffffffffffffffffffffffffffff1673ffffffffffffffffffffffffffffffffffffffff1681526020019081526020016000206000828254611a969190613afe565b925050819055508080611aa890613d8a565b9150506119e7565b508160018481548110611ac657611ac561346e565b5b906000526020600020906009020160070160003373ffffffffffffffffffffffffffffffffffffffff1673ffffffffffffffffffffffffffffffffffffffff16815260200190815260200160002060008381526020019081526020016000206000828254611b349190613afe565b92505081905550505050505050505050565b60606000600180549050905060006001805490509050600a821115611b6a57600a91505b60008267ffffffffffffffff811115611b8657611b85612b6c565b5b604051908082528060200260200182016040528015611bb957816020015b6060815260200190600190039081611ba45790505b50905060006001805490501115611cdb5760008383611bd891906136a5565b90505b82811015611cd95760018181548110611bf757611bf661346e565b5b90600052602060002090600902016000018054611c1390613e01565b80601f0160208091040260200160405190810160405280929190818152602001828054611c3f90613e01565b8015611c8c5780601f10611c6157610100808354040283529160200191611c8c565b820191906000526020600020905b815481529060010190602001808311611c6f57829003601f168201915b50505050508282600186611ca091906136a5565b611caa91906136a5565b81518110611cbb57611cba61346e565b5b60200260200101819052508080611cd190613d8a565b915050611bdb565b505b80935050505090565b6000808383604051611cf7929190613455565b908152602001604051809103902054905060018181548110611d1c57611d1b61346e565b5b906000526020600020906009020160040160405180606001604052808681526020013373ffffffffffffffffffffffffffffffffffffffff168152602001600260009054906101000a900473ffffffffffffffffffffffffffffffffffffffff1673ffffffffffffffffffffffffffffffffffffffff1662fdd58e3360008989604051611daa929190613455565b9081526020016040518091039020546040518363ffffffff1660e01b8152600401611dd69291906138f9565b602060405180830381865afa158015611df3573d6000803e3d6000fd5b505050506040513d601f19601f82011682018060405250810190611e179190613937565b81525090806001815401808255809150506001900390600052602060002090600302016000909190919091506000820151816000019080519060200190611e5f929190612836565b5060208201518160010160006101000a81548173ffffffffffffffffffffffffffffffffffffffff021916908373ffffffffffffffffffffffffffffffffffffffff16021790555060408201518160020155505050505050565b82828080601f016020809104026020016040519081016040528093929190818152602001838380828437600081840152601f19601f8201169050808301925050505050505060008082604051611f0f919061335a565b9081526020016040518091039020549050600260009054906101000a900473ffffffffffffffffffffffffffffffffffffffff1673ffffffffffffffffffffffffffffffffffffffff16634f558e79826040518263ffffffff1660e01b8152600401611f7b9190612cf9565b602060405180830381865afa158015611f98573d6000803e3d6000fd5b505050506040513d601f19601f82011682018060405250810190611fbc9190613386565b611ffb576040517f08c379a0000000000000000000000000000000000000000000000000000000008152600401611ff290613410565b60405180910390fd5b600080868660405161200e929190613455565b9081526020016040518091039020549050600181815481106120335761203261346e565b5b906000526020600020906009020160010173__ChangesLibrary________________________637cbb44f99091866040518363ffffffff1660e01b815260040161207e929190613795565b60006040518083038186803b15801561209657600080fd5b505af41580156120aa573d6000803e3d6000fd5b505050507f718a982b61bc723a0c68281b0eb10e1cff37bd89888841ae545c98cd5493a0568487876040516120e193929190613e7e565b60405180910390a1505050505050565b81818080601f016020809104026020016040519081016040528093929190818152602001838380828437600081840152601f19601f8201169050808301925050505050505060008082604051612147919061335a565b9081526020016040518091039020549050600260009054906101000a900473ffffffffffffffffffffffffffffffffffffffff1673ffffffffffffffffffffffffffffffffffffffff16634f558e79826040518263ffffffff1660e01b81526004016121b39190612cf9565b602060405180830381865afa1580156121d0573d6000803e3d6000fd5b505050506040513d601f19601f820116820180604052508101906121f49190613386565b612233576040517f08c379a000000000000000000000000000000000000000000000000000000000815260040161222a90613410565b60405180910390fd5b6000808585604051612246929190613455565b90815260200160405180910390205490506001818154811061226b5761226a61346e565b5b906000526020600020906009020160010173__ChangesLibrary________________________636b6b15cc9091886040518363ffffffff1660e01b81526004016122b6929190613795565b60006040518083038186803b1580156122ce57600080fd5b505af41580156122e2573d6000803e3d6000fd5b505050507fa59a33e81abf86b25a561f609013d867f28b3c0cbc2cdf98e852b0c0c041eb6c85858860405161231993929190613f3c565b60405180910390a1505050505050565b612331612698565b600073ffffffffffffffffffffffffffffffffffffffff168173ffffffffffffffffffffffffffffffffffffffff16036123a0576040517f08c379a000000000000000000000000000000000000000000000000000000000815260040161239790613ffa565b60405180910390fd5b6123a981612716565b50565b81818080601f016020809104026020016040519081016040528093929190818152602001838380828437600081840152601f19601f8201169050808301925050505050505060008082604051612402919061335a565b9081526020016040518091039020549050600260009054906101000a900473ffffffffffffffffffffffffffffffffffffffff1673ffffffffffffffffffffffffffffffffffffffff16634f558e79826040518263ffffffff1660e01b815260040161246e9190612cf9565b602060405180830381865afa15801561248b573d6000803e3d6000fd5b505050506040513d601f19601f820116820180604052508101906124af9190613386565b6124ee576040517f08c379a00000000000000000000000000000000000000000000000000000000081526004016124e590613410565b60405180910390fd5b6000808585604051612501929190613455565b9081526020016040518091039020549050600260009054906101000a900473ffffffffffffffffffffffffffffffffffffffff1673ffffffffffffffffffffffffffffffffffffffff1663156e29f63383600185815481106125665761256561346e565b5b906000526020600020906009020160060160003373ffffffffffffffffffffffffffffffffffffffff1673ffffffffffffffffffffffffffffffffffffffff168152602001908152602001600020546040518463ffffffff1660e01b81526004016125d39392919061401a565b600060405180830381600087803b1580156125ed57600080fd5b505af1158015612601573d6000803e3d6000fd5b50505050600181815481106126195761261861346e565b5b906000526020600020906009020160060160003373ffffffffffffffffffffffffffffffffffffffff1673ffffffffffffffffffffffffffffffffffffffff168152602001908152602001600020600090555050505050565b600260009054906101000a900473ffffffffffffffffffffffffffffffffffffffff1681565b6126a061282e565b73ffffffffffffffffffffffffffffffffffffffff166126be6116fa565b73ffffffffffffffffffffffffffffffffffffffff1614612714576040517f08c379a000000000000000000000000000000000000000000000000000000000815260040161270b9061409d565b60405180910390fd5b565b6000600360009054906101000a900473ffffffffffffffffffffffffffffffffffffffff16905081600360006101000a81548173ffffffffffffffffffffffffffffffffffffffff021916908373ffffffffffffffffffffffffffffffffffffffff1602179055508173ffffffffffffffffffffffffffffffffffffffff168173ffffffffffffffffffffffffffffffffffffffff167f8be0079c531659141344cd1fd0a4f28419497f9722a3daafe3b4186f6b6457e060405160405180910390a35050565b600080600090505b825181101561282857828181518110612800576127ff61346e565b5b6020026020010151826128139190613afe565b9150808061282090613d8a565b9150506127e4565b50919050565b600033905090565b82805461284290613e01565b90600052602060002090601f01602090048101928261286457600085556128ab565b82601f1061287d57805160ff19168380011785556128ab565b828001600101855582156128ab579182015b828111156128aa57825182559160200191906001019061288f565b5b5090506128b891906128bc565b5090565b5b808211156128d55760008160009055506001016128bd565b5090565b6000604051905090565b600080fd5b600080fd5b600080fd5b600080fd5b600080fd5b60008083601f840112612912576129116128ed565b5b8235905067ffffffffffffffff81111561292f5761292e6128f2565b5b60208301915083600182028301111561294b5761294a6128f7565b5b9250929050565b60008115159050919050565b61296781612952565b811461297257600080fd5b50565b6000813590506129848161295e565b92915050565b6000806000604084860312156129a3576129a26128e3565b5b600084013567ffffffffffffffff8111156129c1576129c06128e8565b5b6129cd868287016128fc565b935093505060206129e086828701612975565b9150509250925092565b600081519050919050565b600082825260208201905092915050565b6000819050602082019050919050565b600081519050919050565b600082825260208201905092915050565b60005b83811015612a50578082015181840152602081019050612a35565b83811115612a5f576000848401525b50505050565b6000601f19601f8301169050919050565b6000612a8182612a16565b612a8b8185612a21565b9350612a9b818560208601612a32565b612aa481612a65565b840191505092915050565b6000612abb8383612a76565b905092915050565b6000602082019050919050565b6000612adb826129ea565b612ae581856129f5565b935083602082028501612af785612a06565b8060005b85811015612b335784840389528151612b148582612aaf565b9450612b1f83612ac3565b925060208a01995050600181019050612afb565b50829750879550505050505092915050565b60006020820190508181036000830152612b5f8184612ad0565b905092915050565b600080fd5b7f4e487b7100000000000000000000000000000000000000000000000000000000600052604160045260246000fd5b612ba482612a65565b810181811067ffffffffffffffff82111715612bc357612bc2612b6c565b5b80604052505050565b6000612bd66128d9565b9050612be28282612b9b565b919050565b600067ffffffffffffffff821115612c0257612c01612b6c565b5b612c0b82612a65565b9050602081019050919050565b82818337600083830152505050565b6000612c3a612c3584612be7565b612bcc565b905082815260208101848484011115612c5657612c55612b67565b5b612c61848285612c18565b509392505050565b600082601f830112612c7e57612c7d6128ed565b5b8135612c8e848260208601612c27565b91505092915050565b600060208284031215612cad57612cac6128e3565b5b600082013567ffffffffffffffff811115612ccb57612cca6128e8565b5b612cd784828501612c69565b91505092915050565b6000819050919050565b612cf381612ce0565b82525050565b6000602082019050612d0e6000830184612cea565b92915050565b600073ffffffffffffffffffffffffffffffffffffffff82169050919050565b6000612d3f82612d14565b9050919050565b612d4f81612d34565b8114612d5a57600080fd5b50565b600081359050612d6c81612d46565b92915050565b600080600060408486031215612d8b57612d8a6128e3565b5b6000612d9986828701612d5d565b935050602084013567ffffffffffffffff811115612dba57612db96128e8565b5b612dc6868287016128fc565b92509250509250925092565b60008060408385031215612de957612de86128e3565b5b600083013567ffffffffffffffff811115612e0757612e066128e8565b5b612e1385828601612c69565b925050602083013567ffffffffffffffff811115612e3457612e336128e8565b5b612e4085828601612c69565b9150509250929050565b600080600060408486031215612e6357612e626128e3565b5b600084013567ffffffffffffffff811115612e8157612e806128e8565b5b612e8d86828701612c69565b935050602084013567ffffffffffffffff811115612eae57612ead6128e8565b5b612eba868287016128fc565b92509250509250925092565b60008060208385031215612edd57612edc6128e3565b5b600083013567ffffffffffffffff811115612efb57612efa6128e8565b5b612f07858286016128fc565b92509250509250929050565b600080600060408486031215612f2c57612f2b6128e3565b5b600084013567ffffffffffffffff811115612f4a57612f496128e8565b5b612f56868287016128fc565b93509350506020612f6986828701612d5d565b9150509250925092565b612f7c81612d34565b82525050565b6000602082019050612f976000830184612f73565b92915050565b600067ffffffffffffffff821115612fb857612fb7612b6c565b5b602082029050602081019050919050565b6000612fdc612fd784612f9d565b612bcc565b90508083825260208201905060208402830185811115612fff57612ffe6128f7565b5b835b8181101561302857806130148882612d5d565b845260208401935050602081019050613001565b5050509392505050565b600082601f830112613047576130466128ed565b5b8135613057848260208601612fc9565b91505092915050565b600067ffffffffffffffff82111561307b5761307a612b6c565b5b602082029050602081019050919050565b61309581612ce0565b81146130a057600080fd5b50565b6000813590506130b28161308c565b92915050565b60006130cb6130c684613060565b612bcc565b905080838252602082019050602084028301858111156130ee576130ed6128f7565b5b835b81811015613117578061310388826130a3565b8452602084019350506020810190506130f0565b5050509392505050565b600082601f830112613136576131356128ed565b5b81356131468482602086016130b8565b91505092915050565b60008060008060608587031215613169576131686128e3565b5b600085013567ffffffffffffffff811115613187576131866128e8565b5b61319387828801613032565b945050602085013567ffffffffffffffff8111156131b4576131b36128e8565b5b6131c087828801613121565b935050604085013567ffffffffffffffff8111156131e1576131e06128e8565b5b6131ed878288016128fc565b925092505092959194509250565b600080600060408486031215613214576132136128e3565b5b600084013567ffffffffffffffff811115613232576132316128e8565b5b61323e868287016128fc565b9350935050602084013567ffffffffffffffff811115613261576132606128e8565b5b61326d86828701612c69565b9150509250925092565b60006020828403121561328d5761328c6128e3565b5b600061329b84828501612d5d565b91505092915050565b6000819050919050565b60006132c96132c46132bf84612d14565b6132a4565b612d14565b9050919050565b60006132db826132ae565b9050919050565b60006132ed826132d0565b9050919050565b6132fd816132e2565b82525050565b600060208201905061331860008301846132f4565b92915050565b600081905092915050565b600061333482612a16565b61333e818561331e565b935061334e818560208601612a32565b80840191505092915050565b60006133668284613329565b915081905092915050565b6000815190506133808161295e565b92915050565b60006020828403121561339c5761339b6128e3565b5b60006133aa84828501613371565b91505092915050565b600082825260208201905092915050565b7f50726f6a65637420646f206e6f74206578697374000000000000000000000000600082015250565b60006133fa6014836133b3565b9150613405826133c4565b602082019050919050565b60006020820190508181036000830152613429816133ed565b9050919050565b600061343c838561331e565b9350613449838584612c18565b82840190509392505050565b6000613462828486613430565b91508190509392505050565b7f4e487b7100000000000000000000000000000000000000000000000000000000600052603260045260246000fd5b8082525050565b6134ad81612952565b82525050565b60006040820190506134c8600083018561349d565b6134d560208301846134a4565b9392505050565b600067ffffffffffffffff8211156134f7576134f6612b6c565b5b602082029050602081019050919050565b600061351b61351684612be7565b612bcc565b90508281526020810184848401111561353757613536612b67565b5b613542848285612a32565b509392505050565b600082601f83011261355f5761355e6128ed565b5b815161356f848260208601613508565b91505092915050565b600061358b613586846134dc565b612bcc565b905080838252602082019050602084028301858111156135ae576135ad6128f7565b5b835b818110156135f557805167ffffffffffffffff8111156135d3576135d26128ed565b5b8086016135e0898261354a565b855260208501945050506020810190506135b0565b5050509392505050565b600082601f830112613614576136136128ed565b5b8151613624848260208601613578565b91505092915050565b600060208284031215613643576136426128e3565b5b600082015167ffffffffffffffff811115613661576136606128e8565b5b61366d848285016135ff565b91505092915050565b7f4e487b7100000000000000000000000000000000000000000000000000000000600052601160045260246000fd5b60006136b082612ce0565b91506136bb83612ce0565b9250828210156136ce576136cd613676565b5b828203905092915050565b6000819050919050565b60006136fe6136f96136f4846136d9565b6132a4565b612ce0565b9050919050565b61370e816136e3565b82525050565b60006060820190506137296000830186612f73565b6137366020830185612cea565b6137436040830184613705565b949350505050565b600082825260208201905092915050565b600061376782612a16565b613771818561374b565b9350613781818560208601612a32565b61378a81612a65565b840191505092915050565b60006040820190506137aa600083018561349d565b81810360208301526137bc818461375c565b90509392505050565b7f4e65772070726f6a656374206372656174656420776974682049443a00000000600082015250565b60006137fb601c836133b3565b9150613806826137c5565b602082019050919050565b600061381c82612a16565b61382681856133b3565b9350613836818560208601612a32565b61383f81612a65565b840191505092915050565b60006060820190508181036000830152613863816137ee565b905081810360208301526138778185613811565b90506138866040830184612cea565b9392505050565b7f416c726561647920766f74656400000000000000000000000000000000000000600082015250565b60006138c3600d836133b3565b91506138ce8261388d565b602082019050919050565b600060208201905081810360008301526138f2816138b6565b9050919050565b600060408201905061390e6000830185612f73565b61391b6020830184612cea565b9392505050565b6000815190506139318161308c565b92915050565b60006020828403121561394d5761394c6128e3565b5b600061395b84828501613922565b91505092915050565b7f566f74696e6720706f77657220697320696e73756666696369656e7400000000600082015250565b600061399a601c836133b3565b91506139a582613964565b602082019050919050565b600060208201905081810360008301526139c98161398d565b9050919050565b6139d981612ce0565b82525050565b60006060820190506139f4600083018661349d565b8181036020830152613a06818561375c565b9050613a1560408301846139d0565b949350505050565b7f4e657720766f746520666f72206368616e67652070726f706f73616c3a000000600082015250565b6000613a53601d836133b3565b9150613a5e82613a1d565b602082019050919050565b6000613a7583856133b3565b9350613a82838584612c18565b613a8b83612a65565b840190509392505050565b600060a0820190508181036000830152613aaf81613a46565b90508181036020830152613ac4818789613a69565b90508181036040830152613ad88186613811565b9050613ae76060830185612f73565b613af46080830184612cea565b9695505050505050565b6000613b0982612ce0565b9150613b1483612ce0565b9250827fffffffffffffffffffffffffffffffffffffffffffffffffffffffffffffffff03821115613b4957613b48613676565b5b828201905092915050565b7f6e6f7420646973747269627574696f6e2074696d650000000000000000000000600082015250565b6000613b8a6015836133b3565b9150613b9582613b54565b602082019050919050565b60006020820190508181036000830152613bb981613b7d565b9050919050565b7f4e6577206368616e67652070726f706f73616c20746f207468652050726f6a6560008201527f6374207769746820746865206e616d6520616e6420666f6c6c6f77696e67204960208201527f4420616e64204349443a00000000000000000000000000000000000000000000604082015250565b6000613c42604a836133b3565b9150613c4d82613bc0565b606082019050919050565b60006080820190508181036000830152613c7181613c35565b90508181036020830152613c86818688613a69565b90508181036040830152613c9a8185613811565b9050613ca96060830184612cea565b95945050505050565b7f6e6f742073616d6520616d6f756e7473206173206120726563657069656e7473600082015250565b6000613ce86020836133b3565b9150613cf382613cb2565b602082019050919050565b60006020820190508181036000830152613d1781613cdb565b9050919050565b7f556e737566666963656e7420616d6f756e74206f6620746f6b656e7300000000600082015250565b6000613d54601c836133b3565b9150613d5f82613d1e565b602082019050919050565b60006020820190508181036000830152613d8381613d47565b9050919050565b6000613d9582612ce0565b91507fffffffffffffffffffffffffffffffffffffffffffffffffffffffffffffffff8203613dc757613dc6613676565b5b600182019050919050565b7f4e487b7100000000000000000000000000000000000000000000000000000000600052602260045260246000fd5b60006002820490506001821680613e1957607f821691505b602082108103613e2c57613e2b613dd2565b5b50919050565b7f50726f6a656374206368616e67656420746f206368616e67653a200000000000600082015250565b6000613e68601b836133b3565b9150613e7382613e32565b602082019050919050565b60006060820190508181036000830152613e9781613e5b565b90508181036020830152613eab8186613811565b90508181036040830152613ec0818486613a69565b9050949350505050565b7f41206e6577206368616e676520686173206265656e206d61646520746f20746860008201527f652070726f6a6563743a20000000000000000000000000000000000000000000602082015250565b6000613f26602b836133b3565b9150613f3182613eca565b604082019050919050565b60006060820190508181036000830152613f5581613f19565b90508181036020830152613f6a818587613a69565b90508181036040830152613f7e8184613811565b9050949350505050565b7f4f776e61626c653a206e6577206f776e657220697320746865207a65726f206160008201527f6464726573730000000000000000000000000000000000000000000000000000602082015250565b6000613fe46026836133b3565b9150613fef82613f88565b604082019050919050565b6000602082019050818103600083015261401381613fd7565b9050919050565b600060608201905061402f6000830186612f73565b61403c6020830185612cea565b6140496040830184612cea565b949350505050565b7f4f776e61626c653a2063616c6c6572206973206e6f7420746865206f776e6572600082015250565b60006140876020836133b3565b915061409282614051565b602082019050919050565b600060208201905081810360008301526140b68161407a565b905091905056fea26469706673582212209952c21fc8a165a82ae9724e4e011dcf0c801bc683993224cd19cde3a7727a9064736f6c634300080d0033",
  "immutableReferences": {
    "405": [
      {
        "length": 32,
        "start": 3861
      },
      {
        "length": 32,
        "start": 4255
      },
      {
        "length": 32,
        "start": 6366
      }
    ]
  },
  "source": "// SPDX-License-Identifier: MIT\npragma solidity ^0.8.2;\nimport \"./Projects.sol\";\nimport \"../node_modules/@openzeppelin/contracts/access/Ownable.sol\";\n\ncontract TokenDistribution is Projects, Ownable {\n\n    constructor(address _tokenAddress) Projects(_tokenAddress) {} \n\n    function sum(uint[] memory _tokens) internal pure returns(uint _sum) {\n\t\tfor (uint i = 0; i < _tokens.length; i++)\n\t\t\t_sum += _tokens[i];\n\t}\n\n    function calculateNewTokens() public pure returns (uint) {\n        // calculate\n        return 1;\n    }\n\n    function getDistributionBalanceOf(\n        address usr, \n        string calldata projectName\n    ) public view ProjectExist(projectName) returns (uint) {\n        // calculate the proportion of tokens you have\n        uint projectIDX = NameToID[projectName];\n        uint lastDistributionTime = publicProjects[projectIDX].lastDistributionTime;\n        uint tokens = calculateNewTokens() - publicProjects[projectIDX].TokensSpent[usr][lastDistributionTime];\n        return tokens;\n    }\n\n    function distribute(\n        address[] memory recipients,\n        uint[] memory amounts,  \n        string calldata projectName\n    ) external ProjectExist(projectName) {\n        uint projectIDX = NameToID[projectName];\n        uint tokensToSpend = sum(amounts);\n\n        require(recipients.length == amounts.length, \"not same amounts as a recepients\");\n        require(publicProjects[projectIDX].lastDistributionTime + TimeLockInterval > block.timestamp, \"not distribution time\");\n        require(tokensToSpend <= getDistributionBalanceOf(msg.sender, projectName), \"Unsufficent amount of tokens\");\n        \n        uint lastDistributionTime = publicProjects[projectIDX].lastDistributionTime;\n\n        for (uint i=0; i<recipients.length; i++) {\n            publicProjects[projectIDX].pendingTokens[recipients[i]] += amounts[i];\n        }\n        publicProjects[projectIDX].TokensSpent[msg.sender][lastDistributionTime] += tokensToSpend;\n    }\n\n    function startDistribution(\n        string calldata projectName\n    ) external ProjectExist(projectName) {\n        uint projectIDX = NameToID[projectName];\n        require(block.timestamp > publicProjects[projectIDX].lastDistributionTime + TimeLockInterval, \"not distribution time\");\n\n        publicProjects[projectIDX].lastDistributionTime = block.timestamp;\n    }\n\n    function claimPendingTokens(\n        string calldata projectName\n    ) external ProjectExist(projectName) {\n        uint projectIDX = NameToID[projectName];\n        token.mint(msg.sender, projectIDX, publicProjects[projectIDX].pendingTokens[msg.sender]);\n        delete publicProjects[projectIDX].pendingTokens[msg.sender];\n    }\n\n}\n",
  "sourcePath": "c:\\Users\\User\\Desktop\\\\davidson\\project\\DavidsonProject\\Smart Contract\\contracts\\TokenDistribution.sol",
  "compiler": {
    "name": "solc",
    "version": "0.8.13+commit.abaa5c0e.Emscripten.clang"
  },
  "schemaVersion": "3.4.7",
  "updatedAt": "2024-03-06T15:44:12.093Z",
  "networkType": "ethereum",
  "devdoc": {
    "kind": "dev",
    "methods": {
      "owner()": {
        "details": "Returns the address of the current owner."
      },
      "renounceOwnership()": {
        "details": "Leaves the contract without owner. It will not be possible to call `onlyOwner` functions. Can only be called by the current owner. NOTE: Renouncing ownership will leave the contract without an owner, thereby disabling any functionality that is only available to the owner."
      },
      "transferOwnership(address)": {
        "details": "Transfers ownership of the contract to a new account (`newOwner`). Can only be called by the current owner."
      }
    },
    "version": 1
  },
  "userdoc": {
    "kind": "user",
    "methods": {},
    "version": 1
  }
}