{
  "contractName": "TokenDistribution",
  "abi": [
    {
      "inputs": [
        {
          "internalType": "address",
          "name": "_tokenAddress",
          "type": "address"
        }
      ],
      "stateMutability": "nonpayable",
      "type": "constructor"
    },
    {
      "anonymous": false,
      "inputs": [
        {
          "indexed": false,
          "internalType": "string",
          "name": "message",
          "type": "string"
        },
        {
          "indexed": false,
          "internalType": "string",
          "name": "projectName",
          "type": "string"
        },
        {
          "indexed": false,
          "internalType": "string",
          "name": "changeCID",
          "type": "string"
        }
      ],
      "name": "NewChangeIsMadeToProject",
      "type": "event"
    },
    {
      "anonymous": false,
      "inputs": [
        {
          "indexed": false,
          "internalType": "string",
          "name": "message",
          "type": "string"
        },
        {
          "indexed": false,
          "internalType": "string",
          "name": "Name",
          "type": "string"
        },
        {
          "indexed": false,
          "internalType": "string",
          "name": "CID",
          "type": "string"
        },
        {
          "indexed": false,
          "internalType": "uint256",
          "name": "indexValue",
          "type": "uint256"
        }
      ],
      "name": "NewChangeProposalCreated",
      "type": "event"
    },
    {
      "anonymous": false,
      "inputs": [
        {
          "indexed": false,
          "internalType": "string",
          "name": "message",
          "type": "string"
        },
        {
          "indexed": false,
          "internalType": "string",
          "name": "name",
          "type": "string"
        },
        {
          "indexed": false,
          "internalType": "uint256",
          "name": "value",
          "type": "uint256"
        }
      ],
      "name": "NewProjectCreated",
      "type": "event"
    },
    {
      "anonymous": false,
      "inputs": [
        {
          "indexed": false,
          "internalType": "string",
          "name": "message",
          "type": "string"
        },
        {
          "indexed": false,
          "internalType": "string",
          "name": "projectName",
          "type": "string"
        },
        {
          "indexed": false,
          "internalType": "string",
          "name": "changeProposalCID",
          "type": "string"
        },
        {
          "indexed": false,
          "internalType": "address",
          "name": "voter",
          "type": "address"
        },
        {
          "indexed": false,
          "internalType": "uint256",
          "name": "votes",
          "type": "uint256"
        }
      ],
      "name": "NewVoteForChangeProposal",
      "type": "event"
    },
    {
      "anonymous": false,
      "inputs": [
        {
          "indexed": true,
          "internalType": "address",
          "name": "previousOwner",
          "type": "address"
        },
        {
          "indexed": true,
          "internalType": "address",
          "name": "newOwner",
          "type": "address"
        }
      ],
      "name": "OwnershipTransferred",
      "type": "event"
    },
    {
      "anonymous": false,
      "inputs": [
        {
          "indexed": false,
          "internalType": "string",
          "name": "message",
          "type": "string"
        },
        {
          "indexed": false,
          "internalType": "string",
          "name": "changeCID",
          "type": "string"
        },
        {
          "indexed": false,
          "internalType": "string",
          "name": "ProjectName",
          "type": "string"
        }
      ],
      "name": "ProjectWentBack",
      "type": "event"
    },
    {
      "anonymous": false,
      "inputs": [
        {
          "indexed": false,
          "internalType": "string",
          "name": "message",
          "type": "string"
        },
        {
          "indexed": false,
          "internalType": "uint256",
          "name": "lastDistributionTime",
          "type": "uint256"
        }
      ],
      "name": "TokensDisributed",
      "type": "event"
    },
    {
      "inputs": [],
      "name": "ClaimingInterval",
      "outputs": [
        {
          "internalType": "uint256",
          "name": "",
          "type": "uint256"
        }
      ],
      "stateMutability": "view",
      "type": "function"
    },
    {
      "inputs": [
        {
          "internalType": "string",
          "name": "_changeCID",
          "type": "string"
        },
        {
          "internalType": "string",
          "name": "_projectName",
          "type": "string"
        }
      ],
      "name": "MakeChangeProposal",
      "outputs": [],
      "stateMutability": "nonpayable",
      "type": "function"
    },
    {
      "inputs": [
        {
          "internalType": "string",
          "name": "_changeCID",
          "type": "string"
        },
        {
          "internalType": "string",
          "name": "_projectName",
          "type": "string"
        }
      ],
      "name": "MakeGoBackProposal",
      "outputs": [],
      "stateMutability": "nonpayable",
      "type": "function"
    },
    {
      "inputs": [
        {
          "internalType": "string",
          "name": "",
          "type": "string"
        }
      ],
      "name": "NameToID",
      "outputs": [
        {
          "internalType": "uint256",
          "name": "",
          "type": "uint256"
        }
      ],
      "stateMutability": "view",
      "type": "function"
    },
    {
      "inputs": [],
      "name": "TimeLockInterval",
      "outputs": [
        {
          "internalType": "uint256",
          "name": "",
          "type": "uint256"
        }
      ],
      "stateMutability": "view",
      "type": "function"
    },
    {
      "inputs": [
        {
          "internalType": "string",
          "name": "_proposedChangeCID",
          "type": "string"
        },
        {
          "internalType": "string",
          "name": "_projectName",
          "type": "string"
        }
      ],
      "name": "acceptChangeProposal",
      "outputs": [],
      "stateMutability": "nonpayable",
      "type": "function"
    },
    {
      "inputs": [
        {
          "internalType": "string",
          "name": "_projectName",
          "type": "string"
        },
        {
          "internalType": "string",
          "name": "_changeCID",
          "type": "string"
        }
      ],
      "name": "acceptGoBack",
      "outputs": [],
      "stateMutability": "nonpayable",
      "type": "function"
    },
    {
      "inputs": [
        {
          "internalType": "string",
          "name": "_CID",
          "type": "string"
        },
        {
          "internalType": "string",
          "name": "projectName",
          "type": "string"
        }
      ],
      "name": "createProject",
      "outputs": [],
      "stateMutability": "nonpayable",
      "type": "function"
    },
    {
      "inputs": [
        {
          "internalType": "string",
          "name": "_projectName",
          "type": "string"
        }
      ],
      "name": "getAddresses",
      "outputs": [
        {
          "internalType": "address[]",
          "name": "",
          "type": "address[]"
        }
      ],
      "stateMutability": "view",
      "type": "function"
    },
    {
      "inputs": [
        {
          "internalType": "address",
          "name": "_UserAddress",
          "type": "address"
        },
        {
          "internalType": "string",
          "name": "_projectName",
          "type": "string"
        }
      ],
      "name": "getBalance",
      "outputs": [
        {
          "internalType": "uint256",
          "name": "",
          "type": "uint256"
        }
      ],
      "stateMutability": "view",
      "type": "function"
    },
    {
      "inputs": [
        {
          "internalType": "string",
          "name": "_projectName",
          "type": "string"
        },
        {
          "internalType": "string",
          "name": "change",
          "type": "string"
        }
      ],
      "name": "getChangeMaker",
      "outputs": [
        {
          "internalType": "address",
          "name": "",
          "type": "address"
        }
      ],
      "stateMutability": "view",
      "type": "function"
    },
    {
      "inputs": [
        {
          "internalType": "string",
          "name": "_projectName",
          "type": "string"
        },
        {
          "internalType": "bool",
          "name": "changesOrChangeProposals",
          "type": "bool"
        }
      ],
      "name": "getChangesOrProposals",
      "outputs": [
        {
          "internalType": "string[]",
          "name": "",
          "type": "string[]"
        }
      ],
      "stateMutability": "view",
      "type": "function"
    },
    {
      "inputs": [
        {
          "internalType": "string",
          "name": "projectName",
          "type": "string"
        }
      ],
      "name": "getLastDistriubtionTime",
      "outputs": [
        {
          "internalType": "uint256",
          "name": "",
          "type": "uint256"
        }
      ],
      "stateMutability": "view",
      "type": "function"
    },
    {
      "inputs": [],
      "name": "getLastProjects",
      "outputs": [
        {
          "internalType": "string[]",
          "name": "",
          "type": "string[]"
        }
      ],
      "stateMutability": "view",
      "type": "function"
    },
    {
      "inputs": [
        {
          "internalType": "address",
          "name": "usr",
          "type": "address"
        },
        {
          "internalType": "string",
          "name": "projectName",
          "type": "string"
        }
      ],
      "name": "getPendingTokens",
      "outputs": [
        {
          "internalType": "uint256",
          "name": "",
          "type": "uint256"
        }
      ],
      "stateMutability": "view",
      "type": "function"
    },
    {
      "inputs": [],
      "name": "owner",
      "outputs": [
        {
          "internalType": "address",
          "name": "",
          "type": "address"
        }
      ],
      "stateMutability": "view",
      "type": "function"
    },
    {
      "inputs": [],
      "name": "renounceOwnership",
      "outputs": [],
      "stateMutability": "nonpayable",
      "type": "function"
    },
    {
      "inputs": [],
      "name": "token",
      "outputs": [
        {
          "internalType": "contract ProjectsToken",
          "name": "",
          "type": "address"
        }
      ],
      "stateMutability": "view",
      "type": "function"
    },
    {
      "inputs": [
        {
          "internalType": "address",
          "name": "newOwner",
          "type": "address"
        }
      ],
      "name": "transferOwnership",
      "outputs": [],
      "stateMutability": "nonpayable",
      "type": "function"
    },
    {
      "inputs": [
        {
          "internalType": "string",
          "name": "_changeProposalCID",
          "type": "string"
        },
        {
          "internalType": "string",
          "name": "_projectName",
          "type": "string"
        }
      ],
      "name": "voteForChangeProposal",
      "outputs": [],
      "stateMutability": "nonpayable",
      "type": "function"
    },
    {
      "inputs": [
        {
          "internalType": "address",
          "name": "usr",
          "type": "address"
        },
        {
          "internalType": "string",
          "name": "projectName",
          "type": "string"
        }
      ],
      "name": "getDistributionBalanceOf",
      "outputs": [
        {
          "internalType": "uint256",
          "name": "",
          "type": "uint256"
        }
      ],
      "stateMutability": "view",
      "type": "function"
    },
    {
      "inputs": [
        {
          "internalType": "address[]",
          "name": "recipients",
          "type": "address[]"
        },
        {
          "internalType": "uint256[]",
          "name": "amounts",
          "type": "uint256[]"
        },
        {
          "internalType": "string",
          "name": "projectName",
          "type": "string"
        }
      ],
      "name": "distribute",
      "outputs": [],
      "stateMutability": "nonpayable",
      "type": "function"
    },
    {
      "inputs": [
        {
          "internalType": "string",
          "name": "projectName",
          "type": "string"
        }
      ],
      "name": "startDistribution",
      "outputs": [],
      "stateMutability": "nonpayable",
      "type": "function"
    },
    {
      "inputs": [
        {
          "internalType": "string",
          "name": "projectName",
          "type": "string"
        }
      ],
      "name": "claimPendingTokens",
      "outputs": [],
      "stateMutability": "nonpayable",
      "type": "function"
    }
  ],
  "bytecode": "0x60806040523480156200001157600080fd5b50604051620051b3380380620051b38339818101604052810190620000379190620001d9565b8080600260006101000a81548173ffffffffffffffffffffffffffffffffffffffff021916908373ffffffffffffffffffffffffffffffffffffffff160217905550506200009a6200008e620000a160201b60201c565b620000a960201b60201c565b506200020b565b600033905090565b6000600360009054906101000a900473ffffffffffffffffffffffffffffffffffffffff16905081600360006101000a81548173ffffffffffffffffffffffffffffffffffffffff021916908373ffffffffffffffffffffffffffffffffffffffff1602179055508173ffffffffffffffffffffffffffffffffffffffff168173ffffffffffffffffffffffffffffffffffffffff167f8be0079c531659141344cd1fd0a4f28419497f9722a3daafe3b4186f6b6457e060405160405180910390a35050565b600080fd5b600073ffffffffffffffffffffffffffffffffffffffff82169050919050565b6000620001a18262000174565b9050919050565b620001b38162000194565b8114620001bf57600080fd5b50565b600081519050620001d381620001a8565b92915050565b600060208284031215620001f257620001f16200016f565b5b60006200020284828501620001c2565b91505092915050565b614f98806200021b6000396000f3fe608060405234801561001057600080fd5b50600436106101585760003560e01c80637ec15674116100c3578063a90d00cd1161007c578063a90d00cd146103d7578063c4687fb814610407578063ed0c2d9014610423578063f2fde38b1461043f578063f396530f1461045b578063fc0c546a1461047757610158565b80637ec156741461032b5780638d1446fc146103475780638da5cb5b146103635780639f6806ec14610381578063a54d804d1461039d578063a5635963146103bb57610158565b806351e684ba1161011557806351e684ba1461027d578063546969931461029b5780636bd06204146102cb578063715018a6146102e7578063750354d2146102f15780637a5945da1461030d57610158565b80631d7147d81461015d5780631dd7cecf1461018d57806333846eba146101bd57806339b64c30146101ed57806347d8899a1461021d57806349b7b6401461024d575b600080fd5b61017760048036038101906101729190613400565b610495565b60405161018491906135bb565b60405180910390f35b6101a760048036038101906101a2919061363b565b6106ae565b6040516101b491906136b4565b60405180910390f35b6101d760048036038101906101d291906137ff565b6108ba565b6040516101e491906136b4565b60405180910390f35b61020760048036038101906102029190613848565b6108e8565b6040516102149190613953565b60405180910390f35b61023760048036038101906102329190613848565b610afe565b60405161024491906136b4565b60405180910390f35b6102676004803603810190610262919061363b565b610c97565b60405161027491906136b4565b60405180910390f35b610285611067565b60405161029291906136b4565b60405180910390f35b6102b560048036038101906102b0919061363b565b61106c565b6040516102c291906136b4565b60405180910390f35b6102e560048036038101906102e09190613975565b611243565b005b6102ef61140a565b005b61030b600480360381019061030691906139ed565b61141e565b005b610315611948565b60405161032291906136b4565b60405180910390f35b61034560048036038101906103409190613848565b61194d565b005b610361600480360381019061035c91906139ed565b611b8e565b005b61036b611f1c565b6040516103789190613a78565b60405180910390f35b61039b60048036038101906103969190613c45565b611f46565b005b6103a561233d565b6040516103b291906135bb565b60405180910390f35b6103d560048036038101906103d091906139ed565b6124db565b005b6103f160048036038101906103ec9190613cf1565b6126b0565b6040516103fe9190613a78565b60405180910390f35b610421600480360381019061041c9190613d72565b6128c7565b005b61043d600480360381019061043891906139ed565b612aff565b005b61045960048036038101906104549190613dee565b612d37565b005b61047560048036038101906104709190613848565b612dba565b005b61047f6130e8565b60405161048c9190613e7a565b60405180910390f35b606083838080601f016020809104026020016040519081016040528093929190818152602001838380828437600081840152601f19601f82011690508083019250505050505050600080826040516104ed9190613ed1565b9081526020016040518091039020549050600260009054906101000a900473ffffffffffffffffffffffffffffffffffffffff1673ffffffffffffffffffffffffffffffffffffffff16634f558e79826040518263ffffffff1660e01b815260040161055991906136b4565b602060405180830381865afa158015610576573d6000803e3d6000fd5b505050506040513d601f19601f8201168201806040525081019061059a9190613efd565b6105d9576040517f08c379a00000000000000000000000000000000000000000000000000000000081526004016105d090613f87565b60405180910390fd5b60008087876040516105ec929190613fcc565b90815260200160405180910390205490506001818154811061061157610610613fe5565b5b90600052602060002090600a020160010173__ChangesLibrary________________________63e3e26be89091876040518363ffffffff1660e01b815260040161065c92919061402a565b600060405180830381865af4158015610679573d6000803e3d6000fd5b505050506040513d6000823e3d601f19601f820116820180604052508101906106a291906141a4565b93505050509392505050565b600082828080601f016020809104026020016040519081016040528093929190818152602001838380828437600081840152601f19601f82011690508083019250505050505050600080826040516107069190613ed1565b9081526020016040518091039020549050600260009054906101000a900473ffffffffffffffffffffffffffffffffffffffff1673ffffffffffffffffffffffffffffffffffffffff16634f558e79826040518263ffffffff1660e01b815260040161077291906136b4565b602060405180830381865afa15801561078f573d6000803e3d6000fd5b505050506040513d601f19601f820116820180604052508101906107b39190613efd565b6107f2576040517f08c379a00000000000000000000000000000000000000000000000000000000081526004016107e990613f87565b60405180910390fd5b600260009054906101000a900473ffffffffffffffffffffffffffffffffffffffff1673ffffffffffffffffffffffffffffffffffffffff1662fdd58e8760008888604051610842929190613fcc565b9081526020016040518091039020546040518363ffffffff1660e01b815260040161086e9291906141ed565b602060405180830381865afa15801561088b573d6000803e3d6000fd5b505050506040513d601f19601f820116820180604052508101906108af919061422b565b925050509392505050565b6000818051602081018201805184825260208301602085012081835280955050505050506000915090505481565b606082828080601f016020809104026020016040519081016040528093929190818152602001838380828437600081840152601f19601f82011690508083019250505050505050600080826040516109409190613ed1565b9081526020016040518091039020549050600260009054906101000a900473ffffffffffffffffffffffffffffffffffffffff1673ffffffffffffffffffffffffffffffffffffffff16634f558e79826040518263ffffffff1660e01b81526004016109ac91906136b4565b602060405180830381865afa1580156109c9573d6000803e3d6000fd5b505050506040513d601f19601f820116820180604052508101906109ed9190613efd565b610a2c576040517f08c379a0000000000000000000000000000000000000000000000000000000008152600401610a2390613f87565b60405180910390fd5b6000808686604051610a3f929190613fcc565b908152602001604051809103902054905060018181548110610a6457610a63613fe5565b5b90600052602060002090600a020160010173__ChangesLibrary________________________635a45338590916040518263ffffffff1660e01b8152600401610aad9190614258565b600060405180830381865af4158015610aca573d6000803e3d6000fd5b505050506040513d6000823e3d601f19601f82011682018060405250810190610af3919061431f565b935050505092915050565b600082828080601f016020809104026020016040519081016040528093929190818152602001838380828437600081840152601f19601f8201169050808301925050505050505060008082604051610b569190613ed1565b9081526020016040518091039020549050600260009054906101000a900473ffffffffffffffffffffffffffffffffffffffff1673ffffffffffffffffffffffffffffffffffffffff16634f558e79826040518263ffffffff1660e01b8152600401610bc291906136b4565b602060405180830381865afa158015610bdf573d6000803e3d6000fd5b505050506040513d601f19601f82011682018060405250810190610c039190613efd565b610c42576040517f08c379a0000000000000000000000000000000000000000000000000000000008152600401610c3990613f87565b60405180910390fd5b6000808686604051610c55929190613fcc565b908152602001604051809103902054905060018181548110610c7a57610c79613fe5565b5b90600052602060002090600a020160050154935050505092915050565b600082828080601f016020809104026020016040519081016040528093929190818152602001838380828437600081840152601f19601f8201169050808301925050505050505060008082604051610cef9190613ed1565b9081526020016040518091039020549050600260009054906101000a900473ffffffffffffffffffffffffffffffffffffffff1673ffffffffffffffffffffffffffffffffffffffff16634f558e79826040518263ffffffff1660e01b8152600401610d5b91906136b4565b602060405180830381865afa158015610d78573d6000803e3d6000fd5b505050506040513d601f19601f82011682018060405250810190610d9c9190613efd565b610ddb576040517f08c379a0000000000000000000000000000000000000000000000000000000008152600401610dd290613f87565b60405180910390fd5b6000808686604051610dee929190613fcc565b9081526020016040518091039020549050600060018281548110610e1557610e14613fe5565b5b90600052602060002090600a02016005015490506000600260009054906101000a900473ffffffffffffffffffffffffffffffffffffffff1673ffffffffffffffffffffffffffffffffffffffff1662fdd58e8a856040518363ffffffff1660e01b8152600401610e879291906141ed565b602060405180830381865afa158015610ea4573d6000803e3d6000fd5b505050506040513d601f19601f82011682018060405250810190610ec8919061422b565b90506000600260009054906101000a900473ffffffffffffffffffffffffffffffffffffffff1673ffffffffffffffffffffffffffffffffffffffff1663bd85b039856040518263ffffffff1660e01b8152600401610f2791906136b4565b602060405180830381865afa158015610f44573d6000803e3d6000fd5b505050506040513d601f19601f82011682018060405250810190610f68919061422b565b606483610f759190614397565b610f7f9190614420565b905060008103610f9657600096505050505061105e565b60648160018681548110610fad57610fac613fe5565b5b90600052602060002090600a020160060154610fc99190614397565b610fd39190614420565b905060018481548110610fe957610fe8613fe5565b5b90600052602060002090600a020160080160008b73ffffffffffffffffffffffffffffffffffffffff1673ffffffffffffffffffffffffffffffffffffffff168152602001908152602001600020600084815260200190815260200160002054816110549190614451565b9050809650505050505b50509392505050565b607881565b600082828080601f016020809104026020016040519081016040528093929190818152602001838380828437600081840152601f19601f82011690508083019250505050505050600080826040516110c49190613ed1565b9081526020016040518091039020549050600260009054906101000a900473ffffffffffffffffffffffffffffffffffffffff1673ffffffffffffffffffffffffffffffffffffffff16634f558e79826040518263ffffffff1660e01b815260040161113091906136b4565b602060405180830381865afa15801561114d573d6000803e3d6000fd5b505050506040513d601f19601f820116820180604052508101906111719190613efd565b6111b0576040517f08c379a00000000000000000000000000000000000000000000000000000000081526004016111a790613f87565b60405180910390fd5b60008086866040516111c3929190613fcc565b9081526020016040518091039020549050600181815481106111e8576111e7613fe5565b5b90600052602060002090600a020160070160008873ffffffffffffffffffffffffffffffffffffffff1673ffffffffffffffffffffffffffffffffffffffff1681526020019081526020016000205493505050509392505050565b600060018054905090508060008360405161125e9190613ed1565b908152602001604051809103902081905550600260009054906101000a900473ffffffffffffffffffffffffffffffffffffffff1673ffffffffffffffffffffffffffffffffffffffff1663156e29f6338360646040518463ffffffff1660e01b81526004016112d0939291906144c0565b600060405180830381600087803b1580156112ea57600080fd5b505af11580156112fe573d6000803e3d6000fd5b505050506000600180816001815401808255809150500390600052602060002090600a020190508281600001908051906020019061133d9291906132ac565b508060010173__ChangesLibrary________________________63aaff905a9091866040518363ffffffff1660e01b815260040161137c929190614541565b60006040518083038186803b15801561139457600080fd5b505af41580156113a8573d6000803e3d6000fd5b505050506064816006018190555060f0426113c39190614571565b81600501819055507fe224389b386caecb8e3b38edc39361c7227e3ef820a8276bc31ac9cf1ba69fcd83836040516113fc92919061464c565b60405180910390a150505050565b61141261310e565b61141c600061318c565b565b81818080601f016020809104026020016040519081016040528093929190818152602001838380828437600081840152601f19601f82011690508083019250505050505050600080826040516114749190613ed1565b9081526020016040518091039020549050600260009054906101000a900473ffffffffffffffffffffffffffffffffffffffff1673ffffffffffffffffffffffffffffffffffffffff16634f558e79826040518263ffffffff1660e01b81526004016114e091906136b4565b602060405180830381865afa1580156114fd573d6000803e3d6000fd5b505050506040513d601f19601f820116820180604052508101906115219190613efd565b611560576040517f08c379a000000000000000000000000000000000000000000000000000000000815260040161155790613f87565b60405180910390fd5b6000808585604051611573929190613fcc565b9081526020016040518091039020549050600015156001828154811061159c5761159b613fe5565b5b90600052602060002090600a0201600901876040516115bb9190613ed1565b908152602001604051809103902060003373ffffffffffffffffffffffffffffffffffffffff1673ffffffffffffffffffffffffffffffffffffffff16815260200190815260200160002060009054906101000a900460ff16151514611656576040517f08c379a000000000000000000000000000000000000000000000000000000000815260040161164d906146db565b60405180910390fd5b6000600260009054906101000a900473ffffffffffffffffffffffffffffffffffffffff1673ffffffffffffffffffffffffffffffffffffffff1662fdd58e33846040518363ffffffff1660e01b81526004016116b49291906141ed565b602060405180830381865afa1580156116d1573d6000803e3d6000fd5b505050506040513d601f19601f820116820180604052508101906116f5919061422b565b90506000811161173a576040517f08c379a000000000000000000000000000000000000000000000000000000000815260040161173190614747565b60405180910390fd5b6001828154811061174e5761174d613fe5565b5b90600052602060002090600a020160010173__ChangesLibrary________________________637dba11cb909189846040518463ffffffff1660e01b815260040161179b93929190614776565b60006040518083038186803b1580156117b357600080fd5b505af41580156117c7573d6000803e3d6000fd5b5050505060018083815481106117e0576117df613fe5565b5b90600052602060002090600a0201600901886040516117ff9190613ed1565b908152602001604051809103902060003373ffffffffffffffffffffffffffffffffffffffff1673ffffffffffffffffffffffffffffffffffffffff16815260200190815260200160002060006101000a81548160ff0219169083151502179055507f0defd832aa647eb845ac2ed5e414ba9da1d13d7c3b2028fea20853913891174d868689336001878154811061189a57611899613fe5565b5b90600052602060002090600a020160010173__ChangesLibrary________________________63ca5451d290918e6040518363ffffffff1660e01b81526004016118e5929190614541565b602060405180830381865af4158015611902573d6000803e3d6000fd5b505050506040513d601f19601f82011682018060405250810190611926919061422b565b60405161193795949392919061482d565b60405180910390a150505050505050565b60f081565b81818080601f016020809104026020016040519081016040528093929190818152602001838380828437600081840152601f19601f82011690508083019250505050505050600080826040516119a39190613ed1565b9081526020016040518091039020549050600260009054906101000a900473ffffffffffffffffffffffffffffffffffffffff1673ffffffffffffffffffffffffffffffffffffffff16634f558e79826040518263ffffffff1660e01b8152600401611a0f91906136b4565b602060405180830381865afa158015611a2c573d6000803e3d6000fd5b505050506040513d601f19601f82011682018060405250810190611a509190613efd565b611a8f576040517f08c379a0000000000000000000000000000000000000000000000000000000008152600401611a8690613f87565b60405180910390fd5b6000808585604051611aa2929190613fcc565b9081526020016040518091039020549050607860018281548110611ac957611ac8613fe5565b5b90600052602060002090600a020160050154611ae59190614571565b4210611b26576040517f08c379a0000000000000000000000000000000000000000000000000000000008152600401611b1d906148e1565b60405180910390fd5b606460018281548110611b3c57611b3b613fe5565b5b90600052602060002090600a02016006018190555060f042611b5e9190614571565b60018281548110611b7257611b71613fe5565b5b90600052602060002090600a0201600501819055505050505050565b81818080601f016020809104026020016040519081016040528093929190818152602001838380828437600081840152601f19601f8201169050808301925050505050505060008082604051611be49190613ed1565b9081526020016040518091039020549050600260009054906101000a900473ffffffffffffffffffffffffffffffffffffffff1673ffffffffffffffffffffffffffffffffffffffff16634f558e79826040518263ffffffff1660e01b8152600401611c5091906136b4565b602060405180830381865afa158015611c6d573d6000803e3d6000fd5b505050506040513d601f19601f82011682018060405250810190611c919190613efd565b611cd0576040517f08c379a0000000000000000000000000000000000000000000000000000000008152600401611cc790613f87565b60405180910390fd5b6000808585604051611ce3929190613fcc565b908152602001604051809103902054905060018181548110611d0857611d07613fe5565b5b90600052602060002090600a020160010173__ChangesLibrary________________________636de060a8909188600260009054906101000a900473ffffffffffffffffffffffffffffffffffffffff1673ffffffffffffffffffffffffffffffffffffffff1662fdd58e3360008c8c604051611d86929190613fcc565b9081526020016040518091039020546040518363ffffffff1660e01b8152600401611db29291906141ed565b602060405180830381865afa158015611dcf573d6000803e3d6000fd5b505050506040513d601f19601f82011682018060405250810190611df3919061422b565b6040518463ffffffff1660e01b8152600401611e1193929190614776565b60006040518083038186803b158015611e2957600080fd5b505af4158015611e3d573d6000803e3d6000fd5b505050506001808281548110611e5657611e55613fe5565b5b90600052602060002090600a020160090187604051611e759190613ed1565b908152602001604051809103902060003373ffffffffffffffffffffffffffffffffffffffff1673ffffffffffffffffffffffffffffffffffffffff16815260200190815260200160002060006101000a81548160ff0219169083151502179055507f7b7acf540aac5e16ce3dfbd4d106c203a301da603c18502d179f60282962e5c485858884604051611f0c9493929190614999565b60405180910390a1505050505050565b6000600360009054906101000a900473ffffffffffffffffffffffffffffffffffffffff16905090565b81818080601f016020809104026020016040519081016040528093929190818152602001838380828437600081840152601f19601f8201169050808301925050505050505060008082604051611f9c9190613ed1565b9081526020016040518091039020549050600260009054906101000a900473ffffffffffffffffffffffffffffffffffffffff1673ffffffffffffffffffffffffffffffffffffffff16634f558e79826040518263ffffffff1660e01b815260040161200891906136b4565b602060405180830381865afa158015612025573d6000803e3d6000fd5b505050506040513d601f19601f820116820180604052508101906120499190613efd565b612088576040517f08c379a000000000000000000000000000000000000000000000000000000000815260040161207f90613f87565b60405180910390fd5b600080858560405161209b929190613fcc565b908152602001604051809103902054905060006120b787613252565b905086518851146120fd576040517f08c379a00000000000000000000000000000000000000000000000000000000081526004016120f490614a3f565b60405180910390fd5b426001838154811061211257612111613fe5565b5b90600052602060002090600a02016005015411612164576040517f08c379a000000000000000000000000000000000000000000000000000000000815260040161215b90614aab565b60405180910390fd5b61216f338787610c97565b8111156121b1576040517f08c379a00000000000000000000000000000000000000000000000000000000081526004016121a890614b17565b60405180910390fd5b6000600183815481106121c7576121c6613fe5565b5b90600052602060002090600a020160050154905060005b89518110156122a7578881815181106121fa576121f9613fe5565b5b60200260200101516001858154811061221657612215613fe5565b5b90600052602060002090600a020160070160008c848151811061223c5761223b613fe5565b5b602002602001015173ffffffffffffffffffffffffffffffffffffffff1673ffffffffffffffffffffffffffffffffffffffff168152602001908152602001600020600082825461228d9190614571565b92505081905550808061229f90614b37565b9150506121de565b5081600184815481106122bd576122bc613fe5565b5b90600052602060002090600a020160080160003373ffffffffffffffffffffffffffffffffffffffff1673ffffffffffffffffffffffffffffffffffffffff1681526020019081526020016000206000838152602001908152602001600020600082825461232b9190614571565b92505081905550505050505050505050565b60606000600180549050905060006001805490509050600a82111561236157600a91505b60008267ffffffffffffffff81111561237d5761237c6136d4565b5b6040519080825280602002602001820160405280156123b057816020015b606081526020019060019003908161239b5790505b509050600060018054905011156124d257600083836123cf9190614451565b90505b828110156124d057600181815481106123ee576123ed613fe5565b5b90600052602060002090600a0201600001805461240a90614bae565b80601f016020809104026020016040519081016040528092919081815260200182805461243690614bae565b80156124835780601f1061245857610100808354040283529160200191612483565b820191906000526020600020905b81548152906001019060200180831161246657829003601f168201915b505050505082826001866124979190614451565b6124a19190614451565b815181106124b2576124b1613fe5565b5b602002602001018190525080806124c890614b37565b9150506123d2565b505b80935050505090565b60008083836040516124ee929190613fcc565b90815260200160405180910390205490506001818154811061251357612512613fe5565b5b90600052602060002090600a020160040160405180606001604052808681526020013373ffffffffffffffffffffffffffffffffffffffff168152602001600260009054906101000a900473ffffffffffffffffffffffffffffffffffffffff1673ffffffffffffffffffffffffffffffffffffffff1662fdd58e33600089896040516125a1929190613fcc565b9081526020016040518091039020546040518363ffffffff1660e01b81526004016125cd9291906141ed565b602060405180830381865afa1580156125ea573d6000803e3d6000fd5b505050506040513d601f19601f8201168201806040525081019061260e919061422b565b815250908060018154018082558091505060019003906000526020600020906003020160009091909190915060008201518160000190805190602001906126569291906132ac565b5060208201518160010160006101000a81548173ffffffffffffffffffffffffffffffffffffffff021916908373ffffffffffffffffffffffffffffffffffffffff16021790555060408201518160020155505050505050565b600084848080601f016020809104026020016040519081016040528093929190818152602001838380828437600081840152601f19601f82011690508083019250505050505050600080826040516127089190613ed1565b9081526020016040518091039020549050600260009054906101000a900473ffffffffffffffffffffffffffffffffffffffff1673ffffffffffffffffffffffffffffffffffffffff16634f558e79826040518263ffffffff1660e01b815260040161277491906136b4565b602060405180830381865afa158015612791573d6000803e3d6000fd5b505050506040513d601f19601f820116820180604052508101906127b59190613efd565b6127f4576040517f08c379a00000000000000000000000000000000000000000000000000000000081526004016127eb90613f87565b60405180910390fd5b6000808888604051612807929190613fcc565b90815260200160405180910390205490506001818154811061282c5761282b613fe5565b5b90600052602060002090600a020160010173__ChangesLibrary________________________631ecd7085909188886040518463ffffffff1660e01b815260040161287993929190614c0c565b602060405180830381865af4158015612896573d6000803e3d6000fd5b505050506040513d601f19601f820116820180604052508101906128ba9190614c3e565b9350505050949350505050565b82828080601f016020809104026020016040519081016040528093929190818152602001838380828437600081840152601f19601f820116905080830192505050505050506000808260405161291d9190613ed1565b9081526020016040518091039020549050600260009054906101000a900473ffffffffffffffffffffffffffffffffffffffff1673ffffffffffffffffffffffffffffffffffffffff16634f558e79826040518263ffffffff1660e01b815260040161298991906136b4565b602060405180830381865afa1580156129a6573d6000803e3d6000fd5b505050506040513d601f19601f820116820180604052508101906129ca9190613efd565b612a09576040517f08c379a0000000000000000000000000000000000000000000000000000000008152600401612a0090613f87565b60405180910390fd5b6000808686604051612a1c929190613fcc565b908152602001604051809103902054905060018181548110612a4157612a40613fe5565b5b90600052602060002090600a020160010173__ChangesLibrary________________________637cbb44f99091866040518363ffffffff1660e01b8152600401612a8c929190614541565b60006040518083038186803b158015612aa457600080fd5b505af4158015612ab8573d6000803e3d6000fd5b505050507f718a982b61bc723a0c68281b0eb10e1cff37bd89888841ae545c98cd5493a056848787604051612aef93929190614cb7565b60405180910390a1505050505050565b81818080601f016020809104026020016040519081016040528093929190818152602001838380828437600081840152601f19601f8201169050808301925050505050505060008082604051612b559190613ed1565b9081526020016040518091039020549050600260009054906101000a900473ffffffffffffffffffffffffffffffffffffffff1673ffffffffffffffffffffffffffffffffffffffff16634f558e79826040518263ffffffff1660e01b8152600401612bc191906136b4565b602060405180830381865afa158015612bde573d6000803e3d6000fd5b505050506040513d601f19601f82011682018060405250810190612c029190613efd565b612c41576040517f08c379a0000000000000000000000000000000000000000000000000000000008152600401612c3890613f87565b60405180910390fd5b6000808585604051612c54929190613fcc565b908152602001604051809103902054905060018181548110612c7957612c78613fe5565b5b90600052602060002090600a020160010173__ChangesLibrary________________________636b6b15cc9091886040518363ffffffff1660e01b8152600401612cc4929190614541565b60006040518083038186803b158015612cdc57600080fd5b505af4158015612cf0573d6000803e3d6000fd5b505050507fa59a33e81abf86b25a561f609013d867f28b3c0cbc2cdf98e852b0c0c041eb6c858588604051612d2793929190614d75565b60405180910390a1505050505050565b612d3f61310e565b600073ffffffffffffffffffffffffffffffffffffffff168173ffffffffffffffffffffffffffffffffffffffff1603612dae576040517f08c379a0000000000000000000000000000000000000000000000000000000008152600401612da590614e33565b60405180910390fd5b612db78161318c565b50565b81818080601f016020809104026020016040519081016040528093929190818152602001838380828437600081840152601f19601f8201169050808301925050505050505060008082604051612e109190613ed1565b9081526020016040518091039020549050600260009054906101000a900473ffffffffffffffffffffffffffffffffffffffff1673ffffffffffffffffffffffffffffffffffffffff16634f558e79826040518263ffffffff1660e01b8152600401612e7c91906136b4565b602060405180830381865afa158015612e99573d6000803e3d6000fd5b505050506040513d601f19601f82011682018060405250810190612ebd9190613efd565b612efc576040517f08c379a0000000000000000000000000000000000000000000000000000000008152600401612ef390613f87565b60405180910390fd5b6000808585604051612f0f929190613fcc565b908152602001604051809103902054905060018181548110612f3457612f33613fe5565b5b90600052602060002090600a020160050154421015612f88576040517f08c379a0000000000000000000000000000000000000000000000000000000008152600401612f7f90614e9f565b60405180910390fd5b600260009054906101000a900473ffffffffffffffffffffffffffffffffffffffff1673ffffffffffffffffffffffffffffffffffffffff1663156e29f6338360018581548110612fdc57612fdb613fe5565b5b90600052602060002090600a020160070160003373ffffffffffffffffffffffffffffffffffffffff1673ffffffffffffffffffffffffffffffffffffffff168152602001908152602001600020546040518463ffffffff1660e01b815260040161304993929190614ebf565b600060405180830381600087803b15801561306357600080fd5b505af1158015613077573d6000803e3d6000fd5b505050506001818154811061308f5761308e613fe5565b5b90600052602060002090600a020160070160003373ffffffffffffffffffffffffffffffffffffffff1673ffffffffffffffffffffffffffffffffffffffff168152602001908152602001600020600090555050505050565b600260009054906101000a900473ffffffffffffffffffffffffffffffffffffffff1681565b6131166132a4565b73ffffffffffffffffffffffffffffffffffffffff16613134611f1c565b73ffffffffffffffffffffffffffffffffffffffff161461318a576040517f08c379a000000000000000000000000000000000000000000000000000000000815260040161318190614f42565b60405180910390fd5b565b6000600360009054906101000a900473ffffffffffffffffffffffffffffffffffffffff16905081600360006101000a81548173ffffffffffffffffffffffffffffffffffffffff021916908373ffffffffffffffffffffffffffffffffffffffff1602179055508173ffffffffffffffffffffffffffffffffffffffff168173ffffffffffffffffffffffffffffffffffffffff167f8be0079c531659141344cd1fd0a4f28419497f9722a3daafe3b4186f6b6457e060405160405180910390a35050565b600080600090505b825181101561329e5782818151811061327657613275613fe5565b5b6020026020010151826132899190614571565b9150808061329690614b37565b91505061325a565b50919050565b600033905090565b8280546132b890614bae565b90600052602060002090601f0160209004810192826132da5760008555613321565b82601f106132f357805160ff1916838001178555613321565b82800160010185558215613321579182015b82811115613320578251825591602001919060010190613305565b5b50905061332e9190613332565b5090565b5b8082111561334b576000816000905550600101613333565b5090565b6000604051905090565b600080fd5b600080fd5b600080fd5b600080fd5b600080fd5b60008083601f84011261338857613387613363565b5b8235905067ffffffffffffffff8111156133a5576133a4613368565b5b6020830191508360018202830111156133c1576133c061336d565b5b9250929050565b60008115159050919050565b6133dd816133c8565b81146133e857600080fd5b50565b6000813590506133fa816133d4565b92915050565b60008060006040848603121561341957613418613359565b5b600084013567ffffffffffffffff8111156134375761343661335e565b5b61344386828701613372565b93509350506020613456868287016133eb565b9150509250925092565b600081519050919050565b600082825260208201905092915050565b6000819050602082019050919050565b600081519050919050565b600082825260208201905092915050565b60005b838110156134c65780820151818401526020810190506134ab565b838111156134d5576000848401525b50505050565b6000601f19601f8301169050919050565b60006134f78261348c565b6135018185613497565b93506135118185602086016134a8565b61351a816134db565b840191505092915050565b600061353183836134ec565b905092915050565b6000602082019050919050565b600061355182613460565b61355b818561346b565b93508360208202850161356d8561347c565b8060005b858110156135a9578484038952815161358a8582613525565b945061359583613539565b925060208a01995050600181019050613571565b50829750879550505050505092915050565b600060208201905081810360008301526135d58184613546565b905092915050565b600073ffffffffffffffffffffffffffffffffffffffff82169050919050565b6000613608826135dd565b9050919050565b613618816135fd565b811461362357600080fd5b50565b6000813590506136358161360f565b92915050565b60008060006040848603121561365457613653613359565b5b600061366286828701613626565b935050602084013567ffffffffffffffff8111156136835761368261335e565b5b61368f86828701613372565b92509250509250925092565b6000819050919050565b6136ae8161369b565b82525050565b60006020820190506136c960008301846136a5565b92915050565b600080fd5b7f4e487b7100000000000000000000000000000000000000000000000000000000600052604160045260246000fd5b61370c826134db565b810181811067ffffffffffffffff8211171561372b5761372a6136d4565b5b80604052505050565b600061373e61334f565b905061374a8282613703565b919050565b600067ffffffffffffffff82111561376a576137696136d4565b5b613773826134db565b9050602081019050919050565b82818337600083830152505050565b60006137a261379d8461374f565b613734565b9050828152602081018484840111156137be576137bd6136cf565b5b6137c9848285613780565b509392505050565b600082601f8301126137e6576137e5613363565b5b81356137f684826020860161378f565b91505092915050565b60006020828403121561381557613814613359565b5b600082013567ffffffffffffffff8111156138335761383261335e565b5b61383f848285016137d1565b91505092915050565b6000806020838503121561385f5761385e613359565b5b600083013567ffffffffffffffff81111561387d5761387c61335e565b5b61388985828601613372565b92509250509250929050565b600081519050919050565b600082825260208201905092915050565b6000819050602082019050919050565b6138ca816135fd565b82525050565b60006138dc83836138c1565b60208301905092915050565b6000602082019050919050565b600061390082613895565b61390a81856138a0565b9350613915836138b1565b8060005b8381101561394657815161392d88826138d0565b9750613938836138e8565b925050600181019050613919565b5085935050505092915050565b6000602082019050818103600083015261396d81846138f5565b905092915050565b6000806040838503121561398c5761398b613359565b5b600083013567ffffffffffffffff8111156139aa576139a961335e565b5b6139b6858286016137d1565b925050602083013567ffffffffffffffff8111156139d7576139d661335e565b5b6139e3858286016137d1565b9150509250929050565b600080600060408486031215613a0657613a05613359565b5b600084013567ffffffffffffffff811115613a2457613a2361335e565b5b613a30868287016137d1565b935050602084013567ffffffffffffffff811115613a5157613a5061335e565b5b613a5d86828701613372565b92509250509250925092565b613a72816135fd565b82525050565b6000602082019050613a8d6000830184613a69565b92915050565b600067ffffffffffffffff821115613aae57613aad6136d4565b5b602082029050602081019050919050565b6000613ad2613acd84613a93565b613734565b90508083825260208201905060208402830185811115613af557613af461336d565b5b835b81811015613b1e5780613b0a8882613626565b845260208401935050602081019050613af7565b5050509392505050565b600082601f830112613b3d57613b3c613363565b5b8135613b4d848260208601613abf565b91505092915050565b600067ffffffffffffffff821115613b7157613b706136d4565b5b602082029050602081019050919050565b613b8b8161369b565b8114613b9657600080fd5b50565b600081359050613ba881613b82565b92915050565b6000613bc1613bbc84613b56565b613734565b90508083825260208201905060208402830185811115613be457613be361336d565b5b835b81811015613c0d5780613bf98882613b99565b845260208401935050602081019050613be6565b5050509392505050565b600082601f830112613c2c57613c2b613363565b5b8135613c3c848260208601613bae565b91505092915050565b60008060008060608587031215613c5f57613c5e613359565b5b600085013567ffffffffffffffff811115613c7d57613c7c61335e565b5b613c8987828801613b28565b945050602085013567ffffffffffffffff811115613caa57613ca961335e565b5b613cb687828801613c17565b935050604085013567ffffffffffffffff811115613cd757613cd661335e565b5b613ce387828801613372565b925092505092959194509250565b60008060008060408587031215613d0b57613d0a613359565b5b600085013567ffffffffffffffff811115613d2957613d2861335e565b5b613d3587828801613372565b9450945050602085013567ffffffffffffffff811115613d5857613d5761335e565b5b613d6487828801613372565b925092505092959194509250565b600080600060408486031215613d8b57613d8a613359565b5b600084013567ffffffffffffffff811115613da957613da861335e565b5b613db586828701613372565b9350935050602084013567ffffffffffffffff811115613dd857613dd761335e565b5b613de4868287016137d1565b9150509250925092565b600060208284031215613e0457613e03613359565b5b6000613e1284828501613626565b91505092915050565b6000819050919050565b6000613e40613e3b613e36846135dd565b613e1b565b6135dd565b9050919050565b6000613e5282613e25565b9050919050565b6000613e6482613e47565b9050919050565b613e7481613e59565b82525050565b6000602082019050613e8f6000830184613e6b565b92915050565b600081905092915050565b6000613eab8261348c565b613eb58185613e95565b9350613ec58185602086016134a8565b80840191505092915050565b6000613edd8284613ea0565b915081905092915050565b600081519050613ef7816133d4565b92915050565b600060208284031215613f1357613f12613359565b5b6000613f2184828501613ee8565b91505092915050565b600082825260208201905092915050565b7f50726f6a65637420646f206e6f74206578697374000000000000000000000000600082015250565b6000613f71601483613f2a565b9150613f7c82613f3b565b602082019050919050565b60006020820190508181036000830152613fa081613f64565b9050919050565b6000613fb38385613e95565b9350613fc0838584613780565b82840190509392505050565b6000613fd9828486613fa7565b91508190509392505050565b7f4e487b7100000000000000000000000000000000000000000000000000000000600052603260045260246000fd5b8082525050565b614024816133c8565b82525050565b600060408201905061403f6000830185614014565b61404c602083018461401b565b9392505050565b600067ffffffffffffffff82111561406e5761406d6136d4565b5b602082029050602081019050919050565b600061409261408d8461374f565b613734565b9050828152602081018484840111156140ae576140ad6136cf565b5b6140b98482856134a8565b509392505050565b600082601f8301126140d6576140d5613363565b5b81516140e684826020860161407f565b91505092915050565b60006141026140fd84614053565b613734565b905080838252602082019050602084028301858111156141255761412461336d565b5b835b8181101561416c57805167ffffffffffffffff81111561414a57614149613363565b5b80860161415789826140c1565b85526020850194505050602081019050614127565b5050509392505050565b600082601f83011261418b5761418a613363565b5b815161419b8482602086016140ef565b91505092915050565b6000602082840312156141ba576141b9613359565b5b600082015167ffffffffffffffff8111156141d8576141d761335e565b5b6141e484828501614176565b91505092915050565b60006040820190506142026000830185613a69565b61420f60208301846136a5565b9392505050565b60008151905061422581613b82565b92915050565b60006020828403121561424157614240613359565b5b600061424f84828501614216565b91505092915050565b600060208201905061426d6000830184614014565b92915050565b6000815190506142828161360f565b92915050565b600061429b61429684613a93565b613734565b905080838252602082019050602084028301858111156142be576142bd61336d565b5b835b818110156142e757806142d38882614273565b8452602084019350506020810190506142c0565b5050509392505050565b600082601f83011261430657614305613363565b5b8151614316848260208601614288565b91505092915050565b60006020828403121561433557614334613359565b5b600082015167ffffffffffffffff8111156143535761435261335e565b5b61435f848285016142f1565b91505092915050565b7f4e487b7100000000000000000000000000000000000000000000000000000000600052601160045260246000fd5b60006143a28261369b565b91506143ad8361369b565b9250817fffffffffffffffffffffffffffffffffffffffffffffffffffffffffffffffff04831182151516156143e6576143e5614368565b5b828202905092915050565b7f4e487b7100000000000000000000000000000000000000000000000000000000600052601260045260246000fd5b600061442b8261369b565b91506144368361369b565b925082614446576144456143f1565b5b828204905092915050565b600061445c8261369b565b91506144678361369b565b92508282101561447a57614479614368565b5b828203905092915050565b6000819050919050565b60006144aa6144a56144a084614485565b613e1b565b61369b565b9050919050565b6144ba8161448f565b82525050565b60006060820190506144d56000830186613a69565b6144e260208301856136a5565b6144ef60408301846144b1565b949350505050565b600082825260208201905092915050565b60006145138261348c565b61451d81856144f7565b935061452d8185602086016134a8565b614536816134db565b840191505092915050565b60006040820190506145566000830185614014565b81810360208301526145688184614508565b90509392505050565b600061457c8261369b565b91506145878361369b565b9250827fffffffffffffffffffffffffffffffffffffffffffffffffffffffffffffffff038211156145bc576145bb614368565b5b828201905092915050565b7f4e65772070726f6a656374206372656174656420776974682049443a00000000600082015250565b60006145fd601c83613f2a565b9150614608826145c7565b602082019050919050565b600061461e8261348c565b6146288185613f2a565b93506146388185602086016134a8565b614641816134db565b840191505092915050565b60006060820190508181036000830152614665816145f0565b905081810360208301526146798185614613565b905061468860408301846136a5565b9392505050565b7f416c726561647920766f74656400000000000000000000000000000000000000600082015250565b60006146c5600d83613f2a565b91506146d08261468f565b602082019050919050565b600060208201905081810360008301526146f4816146b8565b9050919050565b7f566f74696e6720706f77657220697320696e73756666696369656e7400000000600082015250565b6000614731601c83613f2a565b915061473c826146fb565b602082019050919050565b6000602082019050818103600083015261476081614724565b9050919050565b6147708161369b565b82525050565b600060608201905061478b6000830186614014565b818103602083015261479d8185614508565b90506147ac6040830184614767565b949350505050565b7f4e657720766f746520666f72206368616e67652070726f706f73616c3a000000600082015250565b60006147ea601d83613f2a565b91506147f5826147b4565b602082019050919050565b600061480c8385613f2a565b9350614819838584613780565b614822836134db565b840190509392505050565b600060a0820190508181036000830152614846816147dd565b9050818103602083015261485b818789614800565b9050818103604083015261486f8186614613565b905061487e6060830185613a69565b61488b60808301846136a5565b9695505050505050565b7f6e6f74207374617274696e6720646973747269627574696f6e2074696d650000600082015250565b60006148cb601e83613f2a565b91506148d682614895565b602082019050919050565b600060208201905081810360008301526148fa816148be565b9050919050565b7f4e6577206368616e67652070726f706f73616c20746f207468652050726f6a6560008201527f6374207769746820746865206e616d6520616e6420666f6c6c6f77696e67204960208201527f4420616e64204349443a00000000000000000000000000000000000000000000604082015250565b6000614983604a83613f2a565b915061498e82614901565b606082019050919050565b600060808201905081810360008301526149b281614976565b905081810360208301526149c7818688614800565b905081810360408301526149db8185614613565b90506149ea60608301846136a5565b95945050505050565b7f6e6f742073616d6520616d6f756e7473206173206120726563657069656e7473600082015250565b6000614a29602083613f2a565b9150614a34826149f3565b602082019050919050565b60006020820190508181036000830152614a5881614a1c565b9050919050565b7f6e6f7420646973747269627574696f6e2074696d650000000000000000000000600082015250565b6000614a95601583613f2a565b9150614aa082614a5f565b602082019050919050565b60006020820190508181036000830152614ac481614a88565b9050919050565b7f556e737566666963656e7420616d6f756e74206f6620746f6b656e7300000000600082015250565b6000614b01601c83613f2a565b9150614b0c82614acb565b602082019050919050565b60006020820190508181036000830152614b3081614af4565b9050919050565b6000614b428261369b565b91507fffffffffffffffffffffffffffffffffffffffffffffffffffffffffffffffff8203614b7457614b73614368565b5b600182019050919050565b7f4e487b7100000000000000000000000000000000000000000000000000000000600052602260045260246000fd5b60006002820490506001821680614bc657607f821691505b602082108103614bd957614bd8614b7f565b5b50919050565b6000614beb83856144f7565b9350614bf8838584613780565b614c01836134db565b840190509392505050565b6000604082019050614c216000830186614014565b8181036020830152614c34818486614bdf565b9050949350505050565b600060208284031215614c5457614c53613359565b5b6000614c6284828501614273565b91505092915050565b7f50726f6a656374206368616e67656420746f206368616e67653a200000000000600082015250565b6000614ca1601b83613f2a565b9150614cac82614c6b565b602082019050919050565b60006060820190508181036000830152614cd081614c94565b90508181036020830152614ce48186614613565b90508181036040830152614cf9818486614800565b9050949350505050565b7f41206e6577206368616e676520686173206265656e206d61646520746f20746860008201527f652070726f6a6563743a20000000000000000000000000000000000000000000602082015250565b6000614d5f602b83613f2a565b9150614d6a82614d03565b604082019050919050565b60006060820190508181036000830152614d8e81614d52565b90508181036020830152614da3818587614800565b90508181036040830152614db78184614613565b9050949350505050565b7f4f776e61626c653a206e6577206f776e657220697320746865207a65726f206160008201527f6464726573730000000000000000000000000000000000000000000000000000602082015250565b6000614e1d602683613f2a565b9150614e2882614dc1565b604082019050919050565b60006020820190508181036000830152614e4c81614e10565b9050919050565b7f6e6f7420636c61696d696e672074696d65000000000000000000000000000000600082015250565b6000614e89601183613f2a565b9150614e9482614e53565b602082019050919050565b60006020820190508181036000830152614eb881614e7c565b9050919050565b6000606082019050614ed46000830186613a69565b614ee160208301856136a5565b614eee60408301846136a5565b949350505050565b7f4f776e61626c653a2063616c6c6572206973206e6f7420746865206f776e6572600082015250565b6000614f2c602083613f2a565b9150614f3782614ef6565b602082019050919050565b60006020820190508181036000830152614f5b81614f1f565b905091905056fea26469706673582212209a0d7320365646e8c29fe537b802368f94a3e1d531f470c283132a371cd33a6664736f6c634300080d0033",
  "immutableReferences": {},
  "source": "// SPDX-License-Identifier: MIT\npragma solidity ^0.8.13;\nimport \"./Projects.sol\";\nimport \"../node_modules/@openzeppelin/contracts/access/Ownable.sol\";\n\ncontract TokenDistribution is Projects, Ownable {\n\n    constructor(address _tokenAddress) Projects(_tokenAddress) {} \n\n    function sum(uint[] memory _tokens) internal pure returns(uint _sum) {\n\t\tfor (uint i = 0; i < _tokens.length; i++)\n\t\t\t_sum += _tokens[i];\n\t}\n\n\n    function getDistributionBalanceOf(\n        address usr, \n        string calldata projectName\n    ) public view ProjectExist(projectName) returns (uint) {\n        uint projectIDX = NameToID[projectName];\n        uint endDistributionTime = publicProjects[projectIDX].DistributionTime;\n        uint balanceOf = token.balanceOf(usr, projectIDX);\n\n        // calculate the proportion of tokens you have\n        uint tokens = (balanceOf * 100) / token.totalSupply(projectIDX);\n        if (tokens == 0) {\n            return 0;\n        }\n\n        tokens = (publicProjects[projectIDX].newTokens * tokens) / 100;\n        tokens -= publicProjects[projectIDX].TokensSpent[usr][endDistributionTime];\n        return tokens;\n    }\n\n\n    function distribute(\n        address[] memory recipients,\n        uint[] memory amounts,  \n        string calldata projectName\n    ) external ProjectExist(projectName) {\n        uint projectIDX = NameToID[projectName];\n        uint tokensToSpend = sum(amounts);\n\n        require(recipients.length == amounts.length, \"not same amounts as a recepients\");\n        require(publicProjects[projectIDX].DistributionTime > block.timestamp, \"not distribution time\");\n        require(tokensToSpend <= getDistributionBalanceOf(msg.sender, projectName), \"Unsufficent amount of tokens\");\n        \n        uint endDistributionTime = publicProjects[projectIDX].DistributionTime;\n\n        for (uint i=0; i<recipients.length; i++) {\n            publicProjects[projectIDX].pendingTokens[recipients[i]] += amounts[i];\n        }\n\n        publicProjects[projectIDX].TokensSpent[msg.sender][endDistributionTime] += tokensToSpend;\n    }\n\n\n    function startDistribution(\n        string calldata projectName\n    ) external ProjectExist(projectName) {\n        uint projectIDX = NameToID[projectName];\n        require(block.timestamp < publicProjects[projectIDX].DistributionTime + ClaimingInterval, \"not starting distribution time\");\n\n        publicProjects[projectIDX].newTokens = 100;\n        publicProjects[projectIDX].DistributionTime = block.timestamp + TimeLockInterval;\n    }\n\n    function claimPendingTokens(\n        string calldata projectName\n    ) external ProjectExist(projectName) {\n        uint projectIDX = NameToID[projectName];\n        require(block.timestamp >= publicProjects[projectIDX].DistributionTime, \"not claiming time\");\n        token.mint(msg.sender, projectIDX, publicProjects[projectIDX].pendingTokens[msg.sender]);\n        delete publicProjects[projectIDX].pendingTokens[msg.sender];\n    }\n}\n",
  "sourcePath": "c:\\Users\\User\\Desktop\\\\davidson\\project\\DavidsonProject\\Smart Contract\\contracts\\TokenDistribution.sol",
  "compiler": {
    "name": "solc",
    "version": "0.8.13+commit.abaa5c0e.Emscripten.clang"
  },
  "schemaVersion": "3.4.7",
  "updatedAt": "2024-04-14T17:03:57.699Z",
  "devdoc": {
    "kind": "dev",
    "methods": {
      "owner()": {
        "details": "Returns the address of the current owner."
      },
      "renounceOwnership()": {
        "details": "Leaves the contract without owner. It will not be possible to call `onlyOwner` functions. Can only be called by the current owner. NOTE: Renouncing ownership will leave the contract without an owner, thereby disabling any functionality that is only available to the owner."
      },
      "transferOwnership(address)": {
        "details": "Transfers ownership of the contract to a new account (`newOwner`). Can only be called by the current owner."
      }
    },
    "version": 1
  },
  "userdoc": {
    "kind": "user",
    "methods": {},
    "version": 1
  }
}