{
  "contractName": "TokenDistribution",
  "abi": [
    {
      "inputs": [
        {
          "internalType": "address",
          "name": "_tokenAddress",
          "type": "address"
        }
      ],
      "stateMutability": "nonpayable",
      "type": "constructor"
    },
    {
      "anonymous": false,
      "inputs": [
        {
          "indexed": false,
          "internalType": "string",
          "name": "message",
          "type": "string"
        },
        {
          "indexed": false,
          "internalType": "string",
          "name": "projectName",
          "type": "string"
        },
        {
          "indexed": false,
          "internalType": "string",
          "name": "changeCID",
          "type": "string"
        }
      ],
      "name": "NewChangeIsMadeToProject",
      "type": "event"
    },
    {
      "anonymous": false,
      "inputs": [
        {
          "indexed": false,
          "internalType": "string",
          "name": "message",
          "type": "string"
        },
        {
          "indexed": false,
          "internalType": "string",
          "name": "Name",
          "type": "string"
        },
        {
          "indexed": false,
          "internalType": "string",
          "name": "CID",
          "type": "string"
        },
        {
          "indexed": false,
          "internalType": "uint256",
          "name": "indexValue",
          "type": "uint256"
        }
      ],
      "name": "NewChangeProposalCreated",
      "type": "event"
    },
    {
      "anonymous": false,
      "inputs": [
        {
          "indexed": false,
          "internalType": "string",
          "name": "message",
          "type": "string"
        },
        {
          "indexed": false,
          "internalType": "string",
          "name": "name",
          "type": "string"
        },
        {
          "indexed": false,
          "internalType": "uint256",
          "name": "value",
          "type": "uint256"
        }
      ],
      "name": "NewProjectCreated",
      "type": "event"
    },
    {
      "anonymous": false,
      "inputs": [
        {
          "indexed": false,
          "internalType": "string",
          "name": "message",
          "type": "string"
        },
        {
          "indexed": false,
          "internalType": "string",
          "name": "projectName",
          "type": "string"
        },
        {
          "indexed": false,
          "internalType": "string",
          "name": "changeProposalCID",
          "type": "string"
        },
        {
          "indexed": false,
          "internalType": "address",
          "name": "voter",
          "type": "address"
        }
      ],
      "name": "NewVoteForChangeProposal",
      "type": "event"
    },
    {
      "anonymous": false,
      "inputs": [
        {
          "indexed": true,
          "internalType": "address",
          "name": "previousOwner",
          "type": "address"
        },
        {
          "indexed": true,
          "internalType": "address",
          "name": "newOwner",
          "type": "address"
        }
      ],
      "name": "OwnershipTransferred",
      "type": "event"
    },
    {
      "anonymous": false,
      "inputs": [
        {
          "indexed": false,
          "internalType": "string",
          "name": "message",
          "type": "string"
        },
        {
          "indexed": false,
          "internalType": "string",
          "name": "changeCID",
          "type": "string"
        },
        {
          "indexed": false,
          "internalType": "string",
          "name": "ProjectName",
          "type": "string"
        }
      ],
      "name": "ProjectWentBack",
      "type": "event"
    },
    {
      "anonymous": false,
      "inputs": [
        {
          "indexed": false,
          "internalType": "string",
          "name": "message",
          "type": "string"
        },
        {
          "indexed": false,
          "internalType": "uint256",
          "name": "lastDistributionTime",
          "type": "uint256"
        }
      ],
      "name": "TokensDisributed",
      "type": "event"
    },
    {
      "inputs": [],
      "name": "ClaimingInterval",
      "outputs": [
        {
          "internalType": "uint256",
          "name": "",
          "type": "uint256"
        }
      ],
      "stateMutability": "view",
      "type": "function"
    },
    {
      "inputs": [
        {
          "internalType": "string",
          "name": "_changeCID",
          "type": "string"
        },
        {
          "internalType": "string",
          "name": "projectName",
          "type": "string"
        }
      ],
      "name": "MakeChangeProposal",
      "outputs": [],
      "stateMutability": "nonpayable",
      "type": "function"
    },
    {
      "inputs": [
        {
          "internalType": "string",
          "name": "",
          "type": "string"
        }
      ],
      "name": "NameToID",
      "outputs": [
        {
          "internalType": "uint256",
          "name": "",
          "type": "uint256"
        }
      ],
      "stateMutability": "view",
      "type": "function"
    },
    {
      "inputs": [],
      "name": "TimeLockInterval",
      "outputs": [
        {
          "internalType": "uint256",
          "name": "",
          "type": "uint256"
        }
      ],
      "stateMutability": "view",
      "type": "function"
    },
    {
      "inputs": [
        {
          "internalType": "string",
          "name": "_proposedChangeCID",
          "type": "string"
        },
        {
          "internalType": "string",
          "name": "projectName",
          "type": "string"
        }
      ],
      "name": "acceptChangeProposal",
      "outputs": [],
      "stateMutability": "nonpayable",
      "type": "function"
    },
    {
      "inputs": [
        {
          "internalType": "string",
          "name": "projectName",
          "type": "string"
        },
        {
          "internalType": "string",
          "name": "changeCID",
          "type": "string"
        }
      ],
      "name": "acceptRemoval",
      "outputs": [],
      "stateMutability": "nonpayable",
      "type": "function"
    },
    {
      "inputs": [
        {
          "internalType": "string",
          "name": "_CID",
          "type": "string"
        },
        {
          "internalType": "string",
          "name": "projectName",
          "type": "string"
        }
      ],
      "name": "createProject",
      "outputs": [],
      "stateMutability": "nonpayable",
      "type": "function"
    },
    {
      "inputs": [
        {
          "internalType": "string",
          "name": "projectName",
          "type": "string"
        }
      ],
      "name": "getAddresses",
      "outputs": [
        {
          "internalType": "address[]",
          "name": "",
          "type": "address[]"
        }
      ],
      "stateMutability": "view",
      "type": "function"
    },
    {
      "inputs": [
        {
          "internalType": "address",
          "name": "UserAddress",
          "type": "address"
        },
        {
          "internalType": "string",
          "name": "projectName",
          "type": "string"
        }
      ],
      "name": "getBalance",
      "outputs": [
        {
          "internalType": "uint256",
          "name": "",
          "type": "uint256"
        }
      ],
      "stateMutability": "view",
      "type": "function"
    },
    {
      "inputs": [
        {
          "internalType": "string",
          "name": "projectName",
          "type": "string"
        },
        {
          "internalType": "string",
          "name": "change",
          "type": "string"
        }
      ],
      "name": "getChangeMaker",
      "outputs": [
        {
          "internalType": "address",
          "name": "",
          "type": "address"
        }
      ],
      "stateMutability": "view",
      "type": "function"
    },
    {
      "inputs": [
        {
          "internalType": "string",
          "name": "changeCID",
          "type": "string"
        },
        {
          "internalType": "string",
          "name": "projectName",
          "type": "string"
        }
      ],
      "name": "getChangeRemovalVotes",
      "outputs": [
        {
          "internalType": "uint256",
          "name": "",
          "type": "uint256"
        }
      ],
      "stateMutability": "view",
      "type": "function"
    },
    {
      "inputs": [
        {
          "internalType": "string",
          "name": "changeCID",
          "type": "string"
        },
        {
          "internalType": "string",
          "name": "projectName",
          "type": "string"
        }
      ],
      "name": "getChangeVotes",
      "outputs": [
        {
          "internalType": "uint256",
          "name": "",
          "type": "uint256"
        }
      ],
      "stateMutability": "view",
      "type": "function"
    },
    {
      "inputs": [
        {
          "internalType": "string",
          "name": "projectName",
          "type": "string"
        },
        {
          "internalType": "bool",
          "name": "changesOrChangeProposals",
          "type": "bool"
        }
      ],
      "name": "getChangesOrProposals",
      "outputs": [
        {
          "internalType": "string[]",
          "name": "",
          "type": "string[]"
        }
      ],
      "stateMutability": "view",
      "type": "function"
    },
    {
      "inputs": [],
      "name": "getLastProjects",
      "outputs": [
        {
          "internalType": "string[]",
          "name": "",
          "type": "string[]"
        }
      ],
      "stateMutability": "view",
      "type": "function"
    },
    {
      "inputs": [
        {
          "internalType": "string",
          "name": "projectName",
          "type": "string"
        }
      ],
      "name": "getTotalTokens",
      "outputs": [
        {
          "internalType": "uint256",
          "name": "",
          "type": "uint256"
        }
      ],
      "stateMutability": "view",
      "type": "function"
    },
    {
      "inputs": [
        {
          "internalType": "address",
          "name": "addr",
          "type": "address"
        },
        {
          "internalType": "string",
          "name": "changeProposalCID",
          "type": "string"
        },
        {
          "internalType": "string",
          "name": "projectName",
          "type": "string"
        }
      ],
      "name": "isVoted",
      "outputs": [
        {
          "internalType": "bool",
          "name": "",
          "type": "bool"
        }
      ],
      "stateMutability": "view",
      "type": "function"
    },
    {
      "inputs": [],
      "name": "owner",
      "outputs": [
        {
          "internalType": "address",
          "name": "",
          "type": "address"
        }
      ],
      "stateMutability": "view",
      "type": "function"
    },
    {
      "inputs": [],
      "name": "renounceOwnership",
      "outputs": [],
      "stateMutability": "nonpayable",
      "type": "function"
    },
    {
      "inputs": [],
      "name": "token",
      "outputs": [
        {
          "internalType": "contract ProjectsToken",
          "name": "",
          "type": "address"
        }
      ],
      "stateMutability": "view",
      "type": "function"
    },
    {
      "inputs": [
        {
          "internalType": "address",
          "name": "newOwner",
          "type": "address"
        }
      ],
      "name": "transferOwnership",
      "outputs": [],
      "stateMutability": "nonpayable",
      "type": "function"
    },
    {
      "inputs": [
        {
          "internalType": "string",
          "name": "_changeProposalCID",
          "type": "string"
        },
        {
          "internalType": "string",
          "name": "projectName",
          "type": "string"
        }
      ],
      "name": "voteForChangeProposal",
      "outputs": [],
      "stateMutability": "nonpayable",
      "type": "function"
    },
    {
      "inputs": [
        {
          "internalType": "address",
          "name": "usr",
          "type": "address"
        },
        {
          "internalType": "string",
          "name": "projectName",
          "type": "string"
        }
      ],
      "name": "getDistributionBalanceOf",
      "outputs": [
        {
          "internalType": "uint256",
          "name": "",
          "type": "uint256"
        }
      ],
      "stateMutability": "view",
      "type": "function"
    },
    {
      "inputs": [
        {
          "internalType": "address[]",
          "name": "recipients",
          "type": "address[]"
        },
        {
          "internalType": "uint256[]",
          "name": "amounts",
          "type": "uint256[]"
        },
        {
          "internalType": "string",
          "name": "projectName",
          "type": "string"
        }
      ],
      "name": "distribute",
      "outputs": [],
      "stateMutability": "nonpayable",
      "type": "function"
    },
    {
      "inputs": [
        {
          "internalType": "string",
          "name": "projectName",
          "type": "string"
        }
      ],
      "name": "startDistribution",
      "outputs": [],
      "stateMutability": "nonpayable",
      "type": "function"
    },
    {
      "inputs": [
        {
          "internalType": "string",
          "name": "projectName",
          "type": "string"
        }
      ],
      "name": "claimPendingTokens",
      "outputs": [],
      "stateMutability": "nonpayable",
      "type": "function"
    },
    {
      "inputs": [
        {
          "internalType": "string",
          "name": "projectName",
          "type": "string"
        }
      ],
      "name": "getLastDistriubtionTime",
      "outputs": [
        {
          "internalType": "uint256",
          "name": "",
          "type": "uint256"
        }
      ],
      "stateMutability": "view",
      "type": "function"
    },
    {
      "inputs": [
        {
          "internalType": "address",
          "name": "usr",
          "type": "address"
        },
        {
          "internalType": "string",
          "name": "projectName",
          "type": "string"
        }
      ],
      "name": "getPendingTokens",
      "outputs": [
        {
          "internalType": "uint256",
          "name": "",
          "type": "uint256"
        }
      ],
      "stateMutability": "view",
      "type": "function"
    }
  ],
  "bytecode": "0x60806040523480156200001157600080fd5b5060405162005f8938038062005f898339818101604052810190620000379190620001d9565b8080600260006101000a81548173ffffffffffffffffffffffffffffffffffffffff021916908373ffffffffffffffffffffffffffffffffffffffff160217905550506200009a6200008e620000a160201b60201c565b620000a960201b60201c565b506200020b565b600033905090565b6000600360009054906101000a900473ffffffffffffffffffffffffffffffffffffffff16905081600360006101000a81548173ffffffffffffffffffffffffffffffffffffffff021916908373ffffffffffffffffffffffffffffffffffffffff1602179055508173ffffffffffffffffffffffffffffffffffffffff168173ffffffffffffffffffffffffffffffffffffffff167f8be0079c531659141344cd1fd0a4f28419497f9722a3daafe3b4186f6b6457e060405160405180910390a35050565b600080fd5b600073ffffffffffffffffffffffffffffffffffffffff82169050919050565b6000620001a18262000174565b9050919050565b620001b38162000194565b8114620001bf57600080fd5b50565b600081519050620001d381620001a8565b92915050565b600060208284031215620001f257620001f16200016f565b5b60006200020284828501620001c2565b91505092915050565b615d6e806200021b6000396000f3fe608060405234801561001057600080fd5b50600436106101a95760003560e01c8063750354d2116100f9578063a54d804d11610097578063ed0c2d9011610071578063ed0c2d9014610518578063f2fde38b14610534578063f396530f14610550578063fc0c546a1461056c576101a9565b8063a54d804d1461049a578063a8363610146104b8578063a90d00cd146104e8576101a9565b80638d1446fc116100d35780638d1446fc146104145780638da5cb5b1461043057806393e5228b1461044e5780639f6806ec1461047e576101a9565b8063750354d2146103be5780637a5945da146103da5780637ec15674146103f8576101a9565b806347d8899a1161016657806351e684ba1161014057806351e684ba1461034a57806354696993146103685780636bd0620414610398578063715018a6146103b4576101a9565b806347d8899a146102ce57806349b7b640146102fe5780634a5138751461032e576101a9565b80631d7147d8146101ae5780631dd7cecf146101de5780631dea7ac41461020e57806333846eba1461023e57806339b64c301461026e57806346ecc9841461029e575b600080fd5b6101c860048036038101906101c391906141d9565b61058a565b6040516101d59190614394565b60405180910390f35b6101f860048036038101906101f39190614414565b6107a3565b604051610205919061448d565b60405180910390f35b610228600480360381019061022391906144a8565b6109af565b604051610235919061448d565b60405180910390f35b61025860048036038101906102539190614659565b610cf2565b604051610265919061448d565b60405180910390f35b610288600480360381019061028391906146a2565b610d20565b60405161029591906147ad565b60405180910390f35b6102b860048036038101906102b391906144a8565b610ec0565b6040516102c5919061448d565b60405180910390f35b6102e860048036038101906102e391906146a2565b611203565b6040516102f5919061448d565b60405180910390f35b61031860048036038101906103139190614414565b61139c565b604051610325919061448d565b60405180910390f35b610348600480360381019061034391906147cf565b61176c565b005b610352611ad7565b60405161035f919061448d565b60405180910390f35b610382600480360381019061037d9190614414565b611adc565b60405161038f919061448d565b60405180910390f35b6103b260048036038101906103ad919061484b565b611cb3565b005b6103bc611e91565b005b6103d860048036038101906103d391906148c3565b611ea5565b005b6103e26122a3565b6040516103ef919061448d565b60405180910390f35b610412600480360381019061040d91906146a2565b6122a8565b005b61042e600480360381019061042991906148c3565b6124ea565b005b6104386127bd565b604051610445919061494e565b60405180910390f35b61046860048036038101906104639190614969565b6127e7565b6040516104759190614a0d565b60405180910390f35b61049860048036038101906104939190614bda565b6129ee565b005b6104a2612de5565b6040516104af9190614394565b60405180910390f35b6104d260048036038101906104cd91906146a2565b612f83565b6040516104df919061448d565b60405180910390f35b61050260048036038101906104fd91906144a8565b61318d565b60405161050f919061494e565b60405180910390f35b610532600480360381019061052d91906144a8565b6133a4565b005b61054e60048036038101906105499190614c86565b6137ae565b005b61056a600480360381019061056591906146a2565b613831565b005b610574613b6b565b6040516105819190614d12565b60405180910390f35b606083838080601f016020809104026020016040519081016040528093929190818152602001838380828437600081840152601f19601f82011690508083019250505050505050600080826040516105e29190614d69565b9081526020016040518091039020549050600260009054906101000a900473ffffffffffffffffffffffffffffffffffffffff1673ffffffffffffffffffffffffffffffffffffffff16634f558e79826040518263ffffffff1660e01b815260040161064e919061448d565b602060405180830381865afa15801561066b573d6000803e3d6000fd5b505050506040513d601f19601f8201168201806040525081019061068f9190614d95565b6106ce576040517f08c379a00000000000000000000000000000000000000000000000000000000081526004016106c590614e1f565b60405180910390fd5b60008087876040516106e1929190614e64565b90815260200160405180910390205490506001818154811061070657610705614e7d565b5b906000526020600020906009020160010173__ChangesLibrary________________________6395f4120c9091876040518363ffffffff1660e01b8152600401610751929190614ec2565b600060405180830381865af415801561076e573d6000803e3d6000fd5b505050506040513d6000823e3d601f19601f82011682018060405250810190610797919061503c565b93505050509392505050565b600082828080601f016020809104026020016040519081016040528093929190818152602001838380828437600081840152601f19601f82011690508083019250505050505050600080826040516107fb9190614d69565b9081526020016040518091039020549050600260009054906101000a900473ffffffffffffffffffffffffffffffffffffffff1673ffffffffffffffffffffffffffffffffffffffff16634f558e79826040518263ffffffff1660e01b8152600401610867919061448d565b602060405180830381865afa158015610884573d6000803e3d6000fd5b505050506040513d601f19601f820116820180604052508101906108a89190614d95565b6108e7576040517f08c379a00000000000000000000000000000000000000000000000000000000081526004016108de90614e1f565b60405180910390fd5b600260009054906101000a900473ffffffffffffffffffffffffffffffffffffffff1673ffffffffffffffffffffffffffffffffffffffff1662fdd58e8760008888604051610937929190614e64565b9081526020016040518091039020546040518363ffffffff1660e01b8152600401610963929190615085565b602060405180830381865afa158015610980573d6000803e3d6000fd5b505050506040513d601f19601f820116820180604052508101906109a491906150c3565b925050509392505050565b600082828080601f016020809104026020016040519081016040528093929190818152602001838380828437600081840152601f19601f8201169050808301925050505050505060008082604051610a079190614d69565b9081526020016040518091039020549050600260009054906101000a900473ffffffffffffffffffffffffffffffffffffffff1673ffffffffffffffffffffffffffffffffffffffff16634f558e79826040518263ffffffff1660e01b8152600401610a73919061448d565b602060405180830381865afa158015610a90573d6000803e3d6000fd5b505050506040513d601f19601f82011682018060405250810190610ab49190614d95565b610af3576040517f08c379a0000000000000000000000000000000000000000000000000000000008152600401610aea90614e1f565b60405180910390fd5b6000808686604051610b06929190614e64565b908152602001604051809103902054905060008080600090505b610b4d60018581548110610b3757610b36614e7d565b5b9060005260206000209060090201600201613b91565b811015610ce157610b8b8160018681548110610b6c57610b6b614e7d565b5b9060005260206000209060090201600201613ba690919063ffffffff16565b915060018481548110610ba157610ba0614e7d565b5b90600052602060002090600902016005018b8b604051610bc2929190614e64565b908152602001604051809103902060008373ffffffffffffffffffffffffffffffffffffffff1673ffffffffffffffffffffffffffffffffffffffff16815260200190815260200160002060000160009054906101000a900460ff1615610cce57600260009054906101000a900473ffffffffffffffffffffffffffffffffffffffff1673ffffffffffffffffffffffffffffffffffffffff1662fdd58e83866040518363ffffffff1660e01b8152600401610c7f929190615085565b602060405180830381865afa158015610c9c573d6000803e3d6000fd5b505050506040513d601f19601f82011682018060405250810190610cc091906150c3565b83610ccb919061511f565b92505b8080610cd990615175565b915050610b20565b508195505050505050949350505050565b6000818051602081018201805184825260208301602085012081835280955050505050506000915090505481565b606082828080601f016020809104026020016040519081016040528093929190818152602001838380828437600081840152601f19601f8201169050808301925050505050505060008082604051610d789190614d69565b9081526020016040518091039020549050600260009054906101000a900473ffffffffffffffffffffffffffffffffffffffff1673ffffffffffffffffffffffffffffffffffffffff16634f558e79826040518263ffffffff1660e01b8152600401610de4919061448d565b602060405180830381865afa158015610e01573d6000803e3d6000fd5b505050506040513d601f19601f82011682018060405250810190610e259190614d95565b610e64576040517f08c379a0000000000000000000000000000000000000000000000000000000008152600401610e5b90614e1f565b60405180910390fd5b6000808686604051610e77929190614e64565b9081526020016040518091039020549050610eb560018281548110610e9f57610e9e614e7d565b5b9060005260206000209060090201600201613bc0565b935050505092915050565b600082828080601f016020809104026020016040519081016040528093929190818152602001838380828437600081840152601f19601f8201169050808301925050505050505060008082604051610f189190614d69565b9081526020016040518091039020549050600260009054906101000a900473ffffffffffffffffffffffffffffffffffffffff1673ffffffffffffffffffffffffffffffffffffffff16634f558e79826040518263ffffffff1660e01b8152600401610f84919061448d565b602060405180830381865afa158015610fa1573d6000803e3d6000fd5b505050506040513d601f19601f82011682018060405250810190610fc59190614d95565b611004576040517f08c379a0000000000000000000000000000000000000000000000000000000008152600401610ffb90614e1f565b60405180910390fd5b6000808686604051611017929190614e64565b908152602001604051809103902054905060008080600090505b61105e6001858154811061104857611047614e7d565b5b9060005260206000209060090201600201613b91565b8110156111f25761109c816001868154811061107d5761107c614e7d565b5b9060005260206000209060090201600201613ba690919063ffffffff16565b9150600184815481106110b2576110b1614e7d565b5b90600052602060002090600902016005018b8b6040516110d3929190614e64565b908152602001604051809103902060008373ffffffffffffffffffffffffffffffffffffffff1673ffffffffffffffffffffffffffffffffffffffff16815260200190815260200160002060000160019054906101000a900460ff16156111df57600260009054906101000a900473ffffffffffffffffffffffffffffffffffffffff1673ffffffffffffffffffffffffffffffffffffffff1662fdd58e83866040518363ffffffff1660e01b8152600401611190929190615085565b602060405180830381865afa1580156111ad573d6000803e3d6000fd5b505050506040513d601f19601f820116820180604052508101906111d191906150c3565b836111dc919061511f565b92505b80806111ea90615175565b915050611031565b508195505050505050949350505050565b600082828080601f016020809104026020016040519081016040528093929190818152602001838380828437600081840152601f19601f820116905080830192505050505050506000808260405161125b9190614d69565b9081526020016040518091039020549050600260009054906101000a900473ffffffffffffffffffffffffffffffffffffffff1673ffffffffffffffffffffffffffffffffffffffff16634f558e79826040518263ffffffff1660e01b81526004016112c7919061448d565b602060405180830381865afa1580156112e4573d6000803e3d6000fd5b505050506040513d601f19601f820116820180604052508101906113089190614d95565b611347576040517f08c379a000000000000000000000000000000000000000000000000000000000815260040161133e90614e1f565b60405180910390fd5b600080868660405161135a929190614e64565b90815260200160405180910390205490506001818154811061137f5761137e614e7d565b5b906000526020600020906009020160040154935050505092915050565b600082828080601f016020809104026020016040519081016040528093929190818152602001838380828437600081840152601f19601f82011690508083019250505050505050600080826040516113f49190614d69565b9081526020016040518091039020549050600260009054906101000a900473ffffffffffffffffffffffffffffffffffffffff1673ffffffffffffffffffffffffffffffffffffffff16634f558e79826040518263ffffffff1660e01b8152600401611460919061448d565b602060405180830381865afa15801561147d573d6000803e3d6000fd5b505050506040513d601f19601f820116820180604052508101906114a19190614d95565b6114e0576040517f08c379a00000000000000000000000000000000000000000000000000000000081526004016114d790614e1f565b60405180910390fd5b60008086866040516114f3929190614e64565b908152602001604051809103902054905060006001828154811061151a57611519614e7d565b5b90600052602060002090600902016004015490506000600260009054906101000a900473ffffffffffffffffffffffffffffffffffffffff1673ffffffffffffffffffffffffffffffffffffffff1662fdd58e8a856040518363ffffffff1660e01b815260040161158c929190615085565b602060405180830381865afa1580156115a9573d6000803e3d6000fd5b505050506040513d601f19601f820116820180604052508101906115cd91906150c3565b90506000600260009054906101000a900473ffffffffffffffffffffffffffffffffffffffff1673ffffffffffffffffffffffffffffffffffffffff1663bd85b039856040518263ffffffff1660e01b815260040161162c919061448d565b602060405180830381865afa158015611649573d6000803e3d6000fd5b505050506040513d601f19601f8201168201806040525081019061166d91906150c3565b60648361167a91906151bd565b6116849190615246565b90506000810361169b576000965050505050611763565b606481600186815481106116b2576116b1614e7d565b5b9060005260206000209060090201600601546116ce91906151bd565b6116d89190615246565b9050600184815481106116ee576116ed614e7d565b5b906000526020600020906009020160080160008b73ffffffffffffffffffffffffffffffffffffffff1673ffffffffffffffffffffffffffffffffffffffff168152602001908152602001600020600084815260200190815260200160002054816117599190615277565b9050809650505050505b50509392505050565b82828080601f016020809104026020016040519081016040528093929190818152602001838380828437600081840152601f19601f82011690508083019250505050505050600080826040516117c29190614d69565b9081526020016040518091039020549050600260009054906101000a900473ffffffffffffffffffffffffffffffffffffffff1673ffffffffffffffffffffffffffffffffffffffff16634f558e79826040518263ffffffff1660e01b815260040161182e919061448d565b602060405180830381865afa15801561184b573d6000803e3d6000fd5b505050506040513d601f19601f8201168201806040525081019061186f9190614d95565b6118ae576040517f08c379a00000000000000000000000000000000000000000000000000000000081526004016118a590614e1f565b60405180910390fd5b60008086866040516118c1929190614e64565b9081526020016040518091039020549050600181815481106118e6576118e5614e7d565b5b906000526020600020906009020160010173__ChangesLibrary________________________6313680a399091866040518363ffffffff1660e01b81526004016119319291906152f5565b60006040518083038186803b15801561194957600080fd5b505af415801561195d573d6000803e3d6000fd5b50505050600080600090505b611996600184815481106119805761197f614e7d565b5b9060005260206000209060090201600201613b91565b811015611a92576119d481600185815481106119b5576119b4614e7d565b5b9060005260206000209060090201600201613ba690919063ffffffff16565b9150600183815481106119ea576119e9614e7d565b5b906000526020600020906009020160050186604051611a099190614d69565b908152602001604051809103902060008373ffffffffffffffffffffffffffffffffffffffff1673ffffffffffffffffffffffffffffffffffffffff168152602001908152602001600020600080820160006101000a81549060ff02191690556000820160016101000a81549060ff021916905550508080611a8a90615175565b915050611969565b507f718a982b61bc723a0c68281b0eb10e1cff37bd89888841ae545c98cd5493a056858888604051611ac6939291906153d7565b60405180910390a150505050505050565b607881565b600082828080601f016020809104026020016040519081016040528093929190818152602001838380828437600081840152601f19601f8201169050808301925050505050505060008082604051611b349190614d69565b9081526020016040518091039020549050600260009054906101000a900473ffffffffffffffffffffffffffffffffffffffff1673ffffffffffffffffffffffffffffffffffffffff16634f558e79826040518263ffffffff1660e01b8152600401611ba0919061448d565b602060405180830381865afa158015611bbd573d6000803e3d6000fd5b505050506040513d601f19601f82011682018060405250810190611be19190614d95565b611c20576040517f08c379a0000000000000000000000000000000000000000000000000000000008152600401611c1790614e1f565b60405180910390fd5b6000808686604051611c33929190614e64565b908152602001604051809103902054905060018181548110611c5857611c57614e7d565b5b906000526020600020906009020160070160008873ffffffffffffffffffffffffffffffffffffffff1673ffffffffffffffffffffffffffffffffffffffff1681526020019081526020016000205493505050509392505050565b6000600180549050905080600083604051611cce9190614d69565b908152602001604051809103902081905550600260009054906101000a900473ffffffffffffffffffffffffffffffffffffffff1673ffffffffffffffffffffffffffffffffffffffff1663156e29f6338360646040518463ffffffff1660e01b8152600401611d409392919061545e565b600060405180830381600087803b158015611d5a57600080fd5b505af1158015611d6e573d6000803e3d6000fd5b50505050600060018081600181540180825580915050039060005260206000209060090201905082816000019080519060200190611dad929190614085565b508060010173__ChangesLibrary________________________6381659a909091866040518363ffffffff1660e01b8152600401611dec9291906152f5565b60006040518083038186803b158015611e0457600080fd5b505af4158015611e18573d6000803e3d6000fd5b505050506064816006018190555060f042611e33919061511f565b8160040181905550611e513382600201613be190919063ffffffff16565b507fe224389b386caecb8e3b38edc39361c7227e3ef820a8276bc31ac9cf1ba69fcd8383604051611e839291906154e1565b60405180910390a150505050565b611e99613c11565b611ea36000613c8f565b565b81818080601f016020809104026020016040519081016040528093929190818152602001838380828437600081840152601f19601f8201169050808301925050505050505060008082604051611efb9190614d69565b9081526020016040518091039020549050600260009054906101000a900473ffffffffffffffffffffffffffffffffffffffff1673ffffffffffffffffffffffffffffffffffffffff16634f558e79826040518263ffffffff1660e01b8152600401611f67919061448d565b602060405180830381865afa158015611f84573d6000803e3d6000fd5b505050506040513d601f19601f82011682018060405250810190611fa89190614d95565b611fe7576040517f08c379a0000000000000000000000000000000000000000000000000000000008152600401611fde90614e1f565b60405180910390fd5b6000808585604051611ffa929190614e64565b9081526020016040518091039020549050600015156001828154811061202357612022614e7d565b5b9060005260206000209060090201600501876040516120429190614d69565b908152602001604051809103902060003373ffffffffffffffffffffffffffffffffffffffff1673ffffffffffffffffffffffffffffffffffffffff16815260200190815260200160002060000160009054906101000a900460ff161515146120e0576040517f08c379a00000000000000000000000000000000000000000000000000000000081526004016120d790615570565b60405180910390fd5b6000600260009054906101000a900473ffffffffffffffffffffffffffffffffffffffff1673ffffffffffffffffffffffffffffffffffffffff1662fdd58e33846040518363ffffffff1660e01b815260040161213e929190615085565b602060405180830381865afa15801561215b573d6000803e3d6000fd5b505050506040513d601f19601f8201168201806040525081019061217f91906150c3565b9050600081116121c4576040517f08c379a00000000000000000000000000000000000000000000000000000000081526004016121bb906155dc565b60405180910390fd5b60018083815481106121d9576121d8614e7d565b5b9060005260206000209060090201600501886040516121f89190614d69565b908152602001604051809103902060003373ffffffffffffffffffffffffffffffffffffffff1673ffffffffffffffffffffffffffffffffffffffff16815260200190815260200160002060000160006101000a81548160ff0219169083151502179055507fb64f8561c8d312f5e6a3dbffda44bbb4d741f23969f1ea178a97d1428ebcaafe868689336040516122929493929190615648565b60405180910390a150505050505050565b60f081565b81818080601f016020809104026020016040519081016040528093929190818152602001838380828437600081840152601f19601f82011690508083019250505050505050600080826040516122fe9190614d69565b9081526020016040518091039020549050600260009054906101000a900473ffffffffffffffffffffffffffffffffffffffff1673ffffffffffffffffffffffffffffffffffffffff16634f558e79826040518263ffffffff1660e01b815260040161236a919061448d565b602060405180830381865afa158015612387573d6000803e3d6000fd5b505050506040513d601f19601f820116820180604052508101906123ab9190614d95565b6123ea576040517f08c379a00000000000000000000000000000000000000000000000000000000081526004016123e190614e1f565b60405180910390fd5b60008085856040516123fd929190614e64565b908152602001604051809103902054905060786001828154811061242457612423614e7d565b5b906000526020600020906009020160040154612440919061511f565b421015612482576040517f08c379a0000000000000000000000000000000000000000000000000000000008152600401612479906156ee565b60405180910390fd5b60646001828154811061249857612497614e7d565b5b90600052602060002090600902016006018190555060f0426124ba919061511f565b600182815481106124ce576124cd614e7d565b5b9060005260206000209060090201600401819055505050505050565b81818080601f016020809104026020016040519081016040528093929190818152602001838380828437600081840152601f19601f82011690508083019250505050505050600080826040516125409190614d69565b9081526020016040518091039020549050600260009054906101000a900473ffffffffffffffffffffffffffffffffffffffff1673ffffffffffffffffffffffffffffffffffffffff16634f558e79826040518263ffffffff1660e01b81526004016125ac919061448d565b602060405180830381865afa1580156125c9573d6000803e3d6000fd5b505050506040513d601f19601f820116820180604052508101906125ed9190614d95565b61262c576040517f08c379a000000000000000000000000000000000000000000000000000000000815260040161262390614e1f565b60405180910390fd5b600080858560405161263f929190614e64565b90815260200160405180910390205490506001818154811061266457612663614e7d565b5b906000526020600020906009020160010173__ChangesLibrary________________________63ddaee8df9091886040518363ffffffff1660e01b81526004016126af9291906152f5565b60006040518083038186803b1580156126c757600080fd5b505af41580156126db573d6000803e3d6000fd5b5050505060018082815481106126f4576126f3614e7d565b5b9060005260206000209060090201600501876040516127139190614d69565b908152602001604051809103902060003373ffffffffffffffffffffffffffffffffffffffff1673ffffffffffffffffffffffffffffffffffffffff16815260200190815260200160002060000160006101000a81548160ff0219169083151502179055507f7b7acf540aac5e16ce3dfbd4d106c203a301da603c18502d179f60282962e5c4858588846040516127ad94939291906157a6565b60405180910390a1505050505050565b6000600360009054906101000a900473ffffffffffffffffffffffffffffffffffffffff16905090565b600082828080601f016020809104026020016040519081016040528093929190818152602001838380828437600081840152601f19601f820116905080830192505050505050506000808260405161283f9190614d69565b9081526020016040518091039020549050600260009054906101000a900473ffffffffffffffffffffffffffffffffffffffff1673ffffffffffffffffffffffffffffffffffffffff16634f558e79826040518263ffffffff1660e01b81526004016128ab919061448d565b602060405180830381865afa1580156128c8573d6000803e3d6000fd5b505050506040513d601f19601f820116820180604052508101906128ec9190614d95565b61292b576040517f08c379a000000000000000000000000000000000000000000000000000000000815260040161292290614e1f565b60405180910390fd5b600080868660405161293e929190614e64565b90815260200160405180910390205490506001818154811061296357612962614e7d565b5b90600052602060002090600902016005018888604051612984929190614e64565b908152602001604051809103902060008a73ffffffffffffffffffffffffffffffffffffffff1673ffffffffffffffffffffffffffffffffffffffff16815260200190815260200160002060000160009054906101000a900460ff16935050505095945050505050565b81818080601f016020809104026020016040519081016040528093929190818152602001838380828437600081840152601f19601f8201169050808301925050505050505060008082604051612a449190614d69565b9081526020016040518091039020549050600260009054906101000a900473ffffffffffffffffffffffffffffffffffffffff1673ffffffffffffffffffffffffffffffffffffffff16634f558e79826040518263ffffffff1660e01b8152600401612ab0919061448d565b602060405180830381865afa158015612acd573d6000803e3d6000fd5b505050506040513d601f19601f82011682018060405250810190612af19190614d95565b612b30576040517f08c379a0000000000000000000000000000000000000000000000000000000008152600401612b2790614e1f565b60405180910390fd5b6000808585604051612b43929190614e64565b90815260200160405180910390205490506000612b5f87613d55565b90508651885114612ba5576040517f08c379a0000000000000000000000000000000000000000000000000000000008152600401612b9c9061584c565b60405180910390fd5b4260018381548110612bba57612bb9614e7d565b5b90600052602060002090600902016004015411612c0c576040517f08c379a0000000000000000000000000000000000000000000000000000000008152600401612c03906158b8565b60405180910390fd5b612c1733878761139c565b811115612c59576040517f08c379a0000000000000000000000000000000000000000000000000000000008152600401612c5090615924565b60405180910390fd5b600060018381548110612c6f57612c6e614e7d565b5b906000526020600020906009020160040154905060005b8951811015612d4f57888181518110612ca257612ca1614e7d565b5b602002602001015160018581548110612cbe57612cbd614e7d565b5b906000526020600020906009020160070160008c8481518110612ce457612ce3614e7d565b5b602002602001015173ffffffffffffffffffffffffffffffffffffffff1673ffffffffffffffffffffffffffffffffffffffff1681526020019081526020016000206000828254612d35919061511f565b925050819055508080612d4790615175565b915050612c86565b508160018481548110612d6557612d64614e7d565b5b906000526020600020906009020160080160003373ffffffffffffffffffffffffffffffffffffffff1673ffffffffffffffffffffffffffffffffffffffff16815260200190815260200160002060008381526020019081526020016000206000828254612dd3919061511f565b92505081905550505050505050505050565b60606000600180549050905060006001805490509050600a821115612e0957600a91505b60008267ffffffffffffffff811115612e2557612e2461452e565b5b604051908082528060200260200182016040528015612e5857816020015b6060815260200190600190039081612e435790505b50905060006001805490501115612f7a5760008383612e779190615277565b90505b82811015612f785760018181548110612e9657612e95614e7d565b5b90600052602060002090600902016000018054612eb290615973565b80601f0160208091040260200160405190810160405280929190818152602001828054612ede90615973565b8015612f2b5780601f10612f0057610100808354040283529160200191612f2b565b820191906000526020600020905b815481529060010190602001808311612f0e57829003601f168201915b50505050508282600186612f3f9190615277565b612f499190615277565b81518110612f5a57612f59614e7d565b5b60200260200101819052508080612f7090615175565b915050612e7a565b505b80935050505090565b600082828080601f016020809104026020016040519081016040528093929190818152602001838380828437600081840152601f19601f8201169050808301925050505050505060008082604051612fdb9190614d69565b9081526020016040518091039020549050600260009054906101000a900473ffffffffffffffffffffffffffffffffffffffff1673ffffffffffffffffffffffffffffffffffffffff16634f558e79826040518263ffffffff1660e01b8152600401613047919061448d565b602060405180830381865afa158015613064573d6000803e3d6000fd5b505050506040513d601f19601f820116820180604052508101906130889190614d95565b6130c7576040517f08c379a00000000000000000000000000000000000000000000000000000000081526004016130be90614e1f565b60405180910390fd5b600260009054906101000a900473ffffffffffffffffffffffffffffffffffffffff1673ffffffffffffffffffffffffffffffffffffffff1663bd85b03960008787604051613117929190614e64565b9081526020016040518091039020546040518263ffffffff1660e01b8152600401613142919061448d565b602060405180830381865afa15801561315f573d6000803e3d6000fd5b505050506040513d601f19601f8201168201806040525081019061318391906150c3565b9250505092915050565b600084848080601f016020809104026020016040519081016040528093929190818152602001838380828437600081840152601f19601f82011690508083019250505050505050600080826040516131e59190614d69565b9081526020016040518091039020549050600260009054906101000a900473ffffffffffffffffffffffffffffffffffffffff1673ffffffffffffffffffffffffffffffffffffffff16634f558e79826040518263ffffffff1660e01b8152600401613251919061448d565b602060405180830381865afa15801561326e573d6000803e3d6000fd5b505050506040513d601f19601f820116820180604052508101906132929190614d95565b6132d1576040517f08c379a00000000000000000000000000000000000000000000000000000000081526004016132c890614e1f565b60405180910390fd5b60008088886040516132e4929190614e64565b90815260200160405180910390205490506001818154811061330957613308614e7d565b5b906000526020600020906009020160010173__ChangesLibrary________________________63681ef9ce909188886040518463ffffffff1660e01b8152600401613356939291906159d1565b602060405180830381865af4158015613373573d6000803e3d6000fd5b505050506040513d601f19601f820116820180604052508101906133979190615a18565b9350505050949350505050565b81818080601f016020809104026020016040519081016040528093929190818152602001838380828437600081840152601f19601f82011690508083019250505050505050600080826040516133fa9190614d69565b9081526020016040518091039020549050600260009054906101000a900473ffffffffffffffffffffffffffffffffffffffff1673ffffffffffffffffffffffffffffffffffffffff16634f558e79826040518263ffffffff1660e01b8152600401613466919061448d565b602060405180830381865afa158015613483573d6000803e3d6000fd5b505050506040513d601f19601f820116820180604052508101906134a79190614d95565b6134e6576040517f08c379a00000000000000000000000000000000000000000000000000000000081526004016134dd90614e1f565b60405180910390fd5b60008085856040516134f9929190614e64565b90815260200160405180910390205490503373ffffffffffffffffffffffffffffffffffffffff166001828154811061353557613534614e7d565b5b906000526020600020906009020160010173__ChangesLibrary________________________63681ef9ce90918a8a6040518463ffffffff1660e01b8152600401613582939291906159d1565b602060405180830381865af415801561359f573d6000803e3d6000fd5b505050506040513d601f19601f820116820180604052508101906135c39190615a18565b73ffffffffffffffffffffffffffffffffffffffff1614613619576040517f08c379a000000000000000000000000000000000000000000000000000000000815260040161361090615ab7565b60405180910390fd5b600260009054906101000a900473ffffffffffffffffffffffffffffffffffffffff1673ffffffffffffffffffffffffffffffffffffffff1663bd85b039826040518263ffffffff1660e01b8152600401613674919061448d565b602060405180830381865afa158015613691573d6000803e3d6000fd5b505050506040513d601f19601f820116820180604052508101906136b591906150c3565b60026136c3898989896109af565b6136cd91906151bd565b116136d757600080fd5b600181815481106136eb576136ea614e7d565b5b906000526020600020906009020160010173__ChangesLibrary________________________63c8d84335909189896040518463ffffffff1660e01b8152600401613738939291906159d1565b60006040518083038186803b15801561375057600080fd5b505af4158015613764573d6000803e3d6000fd5b505050507fa59a33e81abf86b25a561f609013d867f28b3c0cbc2cdf98e852b0c0c041eb6c8585898960405161379d9493929190615b49565b60405180910390a150505050505050565b6137b6613c11565b600073ffffffffffffffffffffffffffffffffffffffff168173ffffffffffffffffffffffffffffffffffffffff1603613825576040517f08c379a000000000000000000000000000000000000000000000000000000000815260040161381c90615c09565b60405180910390fd5b61382e81613c8f565b50565b81818080601f016020809104026020016040519081016040528093929190818152602001838380828437600081840152601f19601f82011690508083019250505050505050600080826040516138879190614d69565b9081526020016040518091039020549050600260009054906101000a900473ffffffffffffffffffffffffffffffffffffffff1673ffffffffffffffffffffffffffffffffffffffff16634f558e79826040518263ffffffff1660e01b81526004016138f3919061448d565b602060405180830381865afa158015613910573d6000803e3d6000fd5b505050506040513d601f19601f820116820180604052508101906139349190614d95565b613973576040517f08c379a000000000000000000000000000000000000000000000000000000000815260040161396a90614e1f565b60405180910390fd5b6000808585604051613986929190614e64565b9081526020016040518091039020549050600181815481106139ab576139aa614e7d565b5b9060005260206000209060090201600401544210156139ff576040517f08c379a00000000000000000000000000000000000000000000000000000000081526004016139f690615c75565b60405180910390fd5b613a0a338686613da7565b50600260009054906101000a900473ffffffffffffffffffffffffffffffffffffffff1673ffffffffffffffffffffffffffffffffffffffff1663156e29f6338360018581548110613a5f57613a5e614e7d565b5b906000526020600020906009020160070160003373ffffffffffffffffffffffffffffffffffffffff1673ffffffffffffffffffffffffffffffffffffffff168152602001908152602001600020546040518463ffffffff1660e01b8152600401613acc93929190615c95565b600060405180830381600087803b158015613ae657600080fd5b505af1158015613afa573d6000803e3d6000fd5b5050505060018181548110613b1257613b11614e7d565b5b906000526020600020906009020160070160003373ffffffffffffffffffffffffffffffffffffffff1673ffffffffffffffffffffffffffffffffffffffff168152602001908152602001600020600090555050505050565b600260009054906101000a900473ffffffffffffffffffffffffffffffffffffffff1681565b6000613b9f82600001613f52565b9050919050565b6000613bb58360000183613f63565b60001c905092915050565b60606000613bd083600001613f8e565b905060608190508092505050919050565b6000613c09836000018373ffffffffffffffffffffffffffffffffffffffff1660001b613fea565b905092915050565b613c1961405a565b73ffffffffffffffffffffffffffffffffffffffff16613c376127bd565b73ffffffffffffffffffffffffffffffffffffffff1614613c8d576040517f08c379a0000000000000000000000000000000000000000000000000000000008152600401613c8490615d18565b60405180910390fd5b565b6000600360009054906101000a900473ffffffffffffffffffffffffffffffffffffffff16905081600360006101000a81548173ffffffffffffffffffffffffffffffffffffffff021916908373ffffffffffffffffffffffffffffffffffffffff1602179055508173ffffffffffffffffffffffffffffffffffffffff168173ffffffffffffffffffffffffffffffffffffffff167f8be0079c531659141344cd1fd0a4f28419497f9722a3daafe3b4186f6b6457e060405160405180910390a35050565b600080600090505b8251811015613da157828181518110613d7957613d78614e7d565b5b602002602001015182613d8c919061511f565b91508080613d9990615175565b915050613d5d565b50919050565b600082828080601f016020809104026020016040519081016040528093929190818152602001838380828437600081840152601f19601f8201169050808301925050505050505060008082604051613dff9190614d69565b9081526020016040518091039020549050600260009054906101000a900473ffffffffffffffffffffffffffffffffffffffff1673ffffffffffffffffffffffffffffffffffffffff16634f558e79826040518263ffffffff1660e01b8152600401613e6b919061448d565b602060405180830381865afa158015613e88573d6000803e3d6000fd5b505050506040513d601f19601f82011682018060405250810190613eac9190614d95565b613eeb576040517f08c379a0000000000000000000000000000000000000000000000000000000008152600401613ee290614e1f565b60405180910390fd5b6000808686604051613efe929190614e64565b9081526020016040518091039020549050613f468760018381548110613f2757613f26614e7d565b5b9060005260206000209060090201600201613be190919063ffffffff16565b93505050509392505050565b600081600001805490509050919050565b6000826000018281548110613f7b57613f7a614e7d565b5b9060005260206000200154905092915050565b606081600001805480602002602001604051908101604052809291908181526020018280548015613fde57602002820191906000526020600020905b815481526020019060010190808311613fca575b50505050509050919050565b6000613ff68383614062565b61404f578260000182908060018154018082558091505060019003906000526020600020016000909190919091505582600001805490508360010160008481526020019081526020016000208190555060019050614054565b600090505b92915050565b600033905090565b600080836001016000848152602001908152602001600020541415905092915050565b82805461409190615973565b90600052602060002090601f0160209004810192826140b357600085556140fa565b82601f106140cc57805160ff19168380011785556140fa565b828001600101855582156140fa579182015b828111156140f95782518255916020019190600101906140de565b5b509050614107919061410b565b5090565b5b8082111561412457600081600090555060010161410c565b5090565b6000604051905090565b600080fd5b600080fd5b600080fd5b600080fd5b600080fd5b60008083601f8401126141615761416061413c565b5b8235905067ffffffffffffffff81111561417e5761417d614141565b5b60208301915083600182028301111561419a57614199614146565b5b9250929050565b60008115159050919050565b6141b6816141a1565b81146141c157600080fd5b50565b6000813590506141d3816141ad565b92915050565b6000806000604084860312156141f2576141f1614132565b5b600084013567ffffffffffffffff8111156142105761420f614137565b5b61421c8682870161414b565b9350935050602061422f868287016141c4565b9150509250925092565b600081519050919050565b600082825260208201905092915050565b6000819050602082019050919050565b600081519050919050565b600082825260208201905092915050565b60005b8381101561429f578082015181840152602081019050614284565b838111156142ae576000848401525b50505050565b6000601f19601f8301169050919050565b60006142d082614265565b6142da8185614270565b93506142ea818560208601614281565b6142f3816142b4565b840191505092915050565b600061430a83836142c5565b905092915050565b6000602082019050919050565b600061432a82614239565b6143348185614244565b93508360208202850161434685614255565b8060005b85811015614382578484038952815161436385826142fe565b945061436e83614312565b925060208a0199505060018101905061434a565b50829750879550505050505092915050565b600060208201905081810360008301526143ae818461431f565b905092915050565b600073ffffffffffffffffffffffffffffffffffffffff82169050919050565b60006143e1826143b6565b9050919050565b6143f1816143d6565b81146143fc57600080fd5b50565b60008135905061440e816143e8565b92915050565b60008060006040848603121561442d5761442c614132565b5b600061443b868287016143ff565b935050602084013567ffffffffffffffff81111561445c5761445b614137565b5b6144688682870161414b565b92509250509250925092565b6000819050919050565b61448781614474565b82525050565b60006020820190506144a2600083018461447e565b92915050565b600080600080604085870312156144c2576144c1614132565b5b600085013567ffffffffffffffff8111156144e0576144df614137565b5b6144ec8782880161414b565b9450945050602085013567ffffffffffffffff81111561450f5761450e614137565b5b61451b8782880161414b565b925092505092959194509250565b600080fd5b7f4e487b7100000000000000000000000000000000000000000000000000000000600052604160045260246000fd5b614566826142b4565b810181811067ffffffffffffffff821117156145855761458461452e565b5b80604052505050565b6000614598614128565b90506145a4828261455d565b919050565b600067ffffffffffffffff8211156145c4576145c361452e565b5b6145cd826142b4565b9050602081019050919050565b82818337600083830152505050565b60006145fc6145f7846145a9565b61458e565b90508281526020810184848401111561461857614617614529565b5b6146238482856145da565b509392505050565b600082601f8301126146405761463f61413c565b5b81356146508482602086016145e9565b91505092915050565b60006020828403121561466f5761466e614132565b5b600082013567ffffffffffffffff81111561468d5761468c614137565b5b6146998482850161462b565b91505092915050565b600080602083850312156146b9576146b8614132565b5b600083013567ffffffffffffffff8111156146d7576146d6614137565b5b6146e38582860161414b565b92509250509250929050565b600081519050919050565b600082825260208201905092915050565b6000819050602082019050919050565b614724816143d6565b82525050565b6000614736838361471b565b60208301905092915050565b6000602082019050919050565b600061475a826146ef565b61476481856146fa565b935061476f8361470b565b8060005b838110156147a0578151614787888261472a565b975061479283614742565b925050600181019050614773565b5085935050505092915050565b600060208201905081810360008301526147c7818461474f565b905092915050565b6000806000604084860312156147e8576147e7614132565b5b600084013567ffffffffffffffff81111561480657614805614137565b5b6148128682870161414b565b9350935050602084013567ffffffffffffffff81111561483557614834614137565b5b6148418682870161462b565b9150509250925092565b6000806040838503121561486257614861614132565b5b600083013567ffffffffffffffff8111156148805761487f614137565b5b61488c8582860161462b565b925050602083013567ffffffffffffffff8111156148ad576148ac614137565b5b6148b98582860161462b565b9150509250929050565b6000806000604084860312156148dc576148db614132565b5b600084013567ffffffffffffffff8111156148fa576148f9614137565b5b6149068682870161462b565b935050602084013567ffffffffffffffff81111561492757614926614137565b5b6149338682870161414b565b92509250509250925092565b614948816143d6565b82525050565b6000602082019050614963600083018461493f565b92915050565b60008060008060006060868803121561498557614984614132565b5b6000614993888289016143ff565b955050602086013567ffffffffffffffff8111156149b4576149b3614137565b5b6149c08882890161414b565b9450945050604086013567ffffffffffffffff8111156149e3576149e2614137565b5b6149ef8882890161414b565b92509250509295509295909350565b614a07816141a1565b82525050565b6000602082019050614a2260008301846149fe565b92915050565b600067ffffffffffffffff821115614a4357614a4261452e565b5b602082029050602081019050919050565b6000614a67614a6284614a28565b61458e565b90508083825260208201905060208402830185811115614a8a57614a89614146565b5b835b81811015614ab35780614a9f88826143ff565b845260208401935050602081019050614a8c565b5050509392505050565b600082601f830112614ad257614ad161413c565b5b8135614ae2848260208601614a54565b91505092915050565b600067ffffffffffffffff821115614b0657614b0561452e565b5b602082029050602081019050919050565b614b2081614474565b8114614b2b57600080fd5b50565b600081359050614b3d81614b17565b92915050565b6000614b56614b5184614aeb565b61458e565b90508083825260208201905060208402830185811115614b7957614b78614146565b5b835b81811015614ba25780614b8e8882614b2e565b845260208401935050602081019050614b7b565b5050509392505050565b600082601f830112614bc157614bc061413c565b5b8135614bd1848260208601614b43565b91505092915050565b60008060008060608587031215614bf457614bf3614132565b5b600085013567ffffffffffffffff811115614c1257614c11614137565b5b614c1e87828801614abd565b945050602085013567ffffffffffffffff811115614c3f57614c3e614137565b5b614c4b87828801614bac565b935050604085013567ffffffffffffffff811115614c6c57614c6b614137565b5b614c788782880161414b565b925092505092959194509250565b600060208284031215614c9c57614c9b614132565b5b6000614caa848285016143ff565b91505092915050565b6000819050919050565b6000614cd8614cd3614cce846143b6565b614cb3565b6143b6565b9050919050565b6000614cea82614cbd565b9050919050565b6000614cfc82614cdf565b9050919050565b614d0c81614cf1565b82525050565b6000602082019050614d276000830184614d03565b92915050565b600081905092915050565b6000614d4382614265565b614d4d8185614d2d565b9350614d5d818560208601614281565b80840191505092915050565b6000614d758284614d38565b915081905092915050565b600081519050614d8f816141ad565b92915050565b600060208284031215614dab57614daa614132565b5b6000614db984828501614d80565b91505092915050565b600082825260208201905092915050565b7f50726f6a65637420646f206e6f74206578697374000000000000000000000000600082015250565b6000614e09601483614dc2565b9150614e1482614dd3565b602082019050919050565b60006020820190508181036000830152614e3881614dfc565b9050919050565b6000614e4b8385614d2d565b9350614e588385846145da565b82840190509392505050565b6000614e71828486614e3f565b91508190509392505050565b7f4e487b7100000000000000000000000000000000000000000000000000000000600052603260045260246000fd5b8082525050565b614ebc816141a1565b82525050565b6000604082019050614ed76000830185614eac565b614ee46020830184614eb3565b9392505050565b600067ffffffffffffffff821115614f0657614f0561452e565b5b602082029050602081019050919050565b6000614f2a614f25846145a9565b61458e565b905082815260208101848484011115614f4657614f45614529565b5b614f51848285614281565b509392505050565b600082601f830112614f6e57614f6d61413c565b5b8151614f7e848260208601614f17565b91505092915050565b6000614f9a614f9584614eeb565b61458e565b90508083825260208201905060208402830185811115614fbd57614fbc614146565b5b835b8181101561500457805167ffffffffffffffff811115614fe257614fe161413c565b5b808601614fef8982614f59565b85526020850194505050602081019050614fbf565b5050509392505050565b600082601f8301126150235761502261413c565b5b8151615033848260208601614f87565b91505092915050565b60006020828403121561505257615051614132565b5b600082015167ffffffffffffffff8111156150705761506f614137565b5b61507c8482850161500e565b91505092915050565b600060408201905061509a600083018561493f565b6150a7602083018461447e565b9392505050565b6000815190506150bd81614b17565b92915050565b6000602082840312156150d9576150d8614132565b5b60006150e7848285016150ae565b91505092915050565b7f4e487b7100000000000000000000000000000000000000000000000000000000600052601160045260246000fd5b600061512a82614474565b915061513583614474565b9250827fffffffffffffffffffffffffffffffffffffffffffffffffffffffffffffffff0382111561516a576151696150f0565b5b828201905092915050565b600061518082614474565b91507fffffffffffffffffffffffffffffffffffffffffffffffffffffffffffffffff82036151b2576151b16150f0565b5b600182019050919050565b60006151c882614474565b91506151d383614474565b9250817fffffffffffffffffffffffffffffffffffffffffffffffffffffffffffffffff048311821515161561520c5761520b6150f0565b5b828202905092915050565b7f4e487b7100000000000000000000000000000000000000000000000000000000600052601260045260246000fd5b600061525182614474565b915061525c83614474565b92508261526c5761526b615217565b5b828204905092915050565b600061528282614474565b915061528d83614474565b9250828210156152a05761529f6150f0565b5b828203905092915050565b600082825260208201905092915050565b60006152c782614265565b6152d181856152ab565b93506152e1818560208601614281565b6152ea816142b4565b840191505092915050565b600060408201905061530a6000830185614eac565b818103602083015261531c81846152bc565b90509392505050565b7f50726f6a656374206368616e67656420746f206368616e67653a200000000000600082015250565b600061535b601b83614dc2565b915061536682615325565b602082019050919050565b600061537c82614265565b6153868185614dc2565b9350615396818560208601614281565b61539f816142b4565b840191505092915050565b60006153b68385614dc2565b93506153c38385846145da565b6153cc836142b4565b840190509392505050565b600060608201905081810360008301526153f08161534e565b905081810360208301526154048186615371565b905081810360408301526154198184866153aa565b9050949350505050565b6000819050919050565b600061544861544361543e84615423565b614cb3565b614474565b9050919050565b6154588161542d565b82525050565b6000606082019050615473600083018661493f565b615480602083018561447e565b61548d604083018461544f565b949350505050565b7f4e65772070726f6a656374206372656174656420776974682049443a00000000600082015250565b60006154cb601c83614dc2565b91506154d682615495565b602082019050919050565b600060608201905081810360008301526154fa816154be565b9050818103602083015261550e8185615371565b905061551d604083018461447e565b9392505050565b7f416c726561647920766f74656400000000000000000000000000000000000000600082015250565b600061555a600d83614dc2565b915061556582615524565b602082019050919050565b600060208201905081810360008301526155898161554d565b9050919050565b7f566f74696e6720706f77657220697320696e73756666696369656e7400000000600082015250565b60006155c6601c83614dc2565b91506155d182615590565b602082019050919050565b600060208201905081810360008301526155f5816155b9565b9050919050565b7f4e657720766f746520666f72206368616e67652070726f706f73616c3a000000600082015250565b6000615632601d83614dc2565b915061563d826155fc565b602082019050919050565b6000608082019050818103600083015261566181615625565b905081810360208301526156768186886153aa565b9050818103604083015261568a8185615371565b9050615699606083018461493f565b95945050505050565b7f6e6f74207374617274696e6720646973747269627574696f6e2074696d650000600082015250565b60006156d8601e83614dc2565b91506156e3826156a2565b602082019050919050565b60006020820190508181036000830152615707816156cb565b9050919050565b7f4e6577206368616e67652070726f706f73616c20746f207468652050726f6a6560008201527f6374207769746820746865206e616d6520616e6420666f6c6c6f77696e67204960208201527f4420616e64204349443a00000000000000000000000000000000000000000000604082015250565b6000615790604a83614dc2565b915061579b8261570e565b606082019050919050565b600060808201905081810360008301526157bf81615783565b905081810360208301526157d48186886153aa565b905081810360408301526157e88185615371565b90506157f7606083018461447e565b95945050505050565b7f6e6f742073616d6520616d6f756e7473206173206120726563657069656e7473600082015250565b6000615836602083614dc2565b915061584182615800565b602082019050919050565b6000602082019050818103600083015261586581615829565b9050919050565b7f6e6f7420646973747269627574696f6e2074696d650000000000000000000000600082015250565b60006158a2601583614dc2565b91506158ad8261586c565b602082019050919050565b600060208201905081810360008301526158d181615895565b9050919050565b7f556e737566666963656e7420616d6f756e74206f6620746f6b656e7300000000600082015250565b600061590e601c83614dc2565b9150615919826158d8565b602082019050919050565b6000602082019050818103600083015261593d81615901565b9050919050565b7f4e487b7100000000000000000000000000000000000000000000000000000000600052602260045260246000fd5b6000600282049050600182168061598b57607f821691505b60208210810361599e5761599d615944565b5b50919050565b60006159b083856152ab565b93506159bd8385846145da565b6159c6836142b4565b840190509392505050565b60006040820190506159e66000830186614eac565b81810360208301526159f98184866159a4565b9050949350505050565b600081519050615a12816143e8565b92915050565b600060208284031215615a2e57615a2d614132565b5b6000615a3c84828501615a03565b91505092915050565b7f6f6e6c7920746865206368616e67652070726f706f73616c2063726561746f7260008201527f2063616e20616363657074000000000000000000000000000000000000000000602082015250565b6000615aa1602b83614dc2565b9150615aac82615a45565b604082019050919050565b60006020820190508181036000830152615ad081615a94565b9050919050565b7f41206e6577206368616e676520686173206265656e206d61646520746f20746860008201527f652070726f6a6563743a20000000000000000000000000000000000000000000602082015250565b6000615b33602b83614dc2565b9150615b3e82615ad7565b604082019050919050565b60006060820190508181036000830152615b6281615b26565b90508181036020830152615b778186886153aa565b90508181036040830152615b8c8184866153aa565b905095945050505050565b7f4f776e61626c653a206e6577206f776e657220697320746865207a65726f206160008201527f6464726573730000000000000000000000000000000000000000000000000000602082015250565b6000615bf3602683614dc2565b9150615bfe82615b97565b604082019050919050565b60006020820190508181036000830152615c2281615be6565b9050919050565b7f6e6f7420636c61696d696e672074696d65000000000000000000000000000000600082015250565b6000615c5f601183614dc2565b9150615c6a82615c29565b602082019050919050565b60006020820190508181036000830152615c8e81615c52565b9050919050565b6000606082019050615caa600083018661493f565b615cb7602083018561447e565b615cc4604083018461447e565b949350505050565b7f4f776e61626c653a2063616c6c6572206973206e6f7420746865206f776e6572600082015250565b6000615d02602083614dc2565b9150615d0d82615ccc565b602082019050919050565b60006020820190508181036000830152615d3181615cf5565b905091905056fea26469706673582212206c386527a82a677e47cd1546a354b7c8f29bee5e6bac2a1712149c6225bdaeb664736f6c634300080d0033",
  "immutableReferences": {},
  "source": "// SPDX-License-Identifier: MIT\npragma solidity ^0.8.13;\nimport \"./Projects.sol\";\nimport \"../node_modules/@openzeppelin/contracts/access/Ownable.sol\";\n\n\ncontract TokenDistribution is Projects, Ownable {\n\n    constructor(address _tokenAddress) Projects(_tokenAddress) {} \n\n\n    function sum(uint[] memory _tokens) internal pure returns(uint _sum) {\n\t\tfor (uint i = 0; i < _tokens.length; i++)\n\t\t\t_sum += _tokens[i];\n\t}\n\n\n    function getDistributionBalanceOf(\n        address usr, \n        string calldata projectName\n    ) public view ProjectExist(projectName) returns (uint) {\n        uint projectID = NameToID[projectName];\n        uint endDistributionTime = publicProjects[projectID].DistributionTime;\n        uint balanceOf = token.balanceOf(usr, projectID);\n\n        // calculate the proportion of tokens you have\n        uint tokens = (balanceOf * 100) / token.totalSupply(projectID);\n        if (tokens == 0) {\n            return 0;\n        }\n\n        tokens = (publicProjects[projectID].newTokens * tokens) / 100;\n        tokens -= publicProjects[projectID].TokensSpent[usr][endDistributionTime];\n        return tokens;\n    }\n\n\n    function distribute(\n        address[] memory recipients,\n        uint[] memory amounts,\n        string calldata projectName\n    ) external ProjectExist(projectName) {\n        uint projectID = NameToID[projectName];\n        uint tokensToSpend = sum(amounts);\n\n        require(recipients.length == amounts.length, \"not same amounts as a recepients\");\n        require(publicProjects[projectID].DistributionTime > block.timestamp, \"not distribution time\");\n        require(tokensToSpend <= getDistributionBalanceOf(msg.sender, projectName), \"Unsufficent amount of tokens\");\n        \n        uint endDistributionTime = publicProjects[projectID].DistributionTime;\n\n        for (uint i=0; i<recipients.length; i++) {\n            publicProjects[projectID].pendingTokens[recipients[i]] += amounts[i];\n        }\n\n        publicProjects[projectID].TokensSpent[msg.sender][endDistributionTime] += tokensToSpend;\n    }\n\n\n    function startDistribution(\n        string calldata projectName\n    ) external ProjectExist(projectName) {\n        uint projectID = NameToID[projectName];\n        require(block.timestamp >= publicProjects[projectID].DistributionTime + ClaimingInterval, \"not starting distribution time\");\n\n        publicProjects[projectID].newTokens = 100;\n        publicProjects[projectID].DistributionTime = block.timestamp + TimeLockInterval;\n    }\n    \n\n    function claimPendingTokens(\n        string calldata projectName\n    ) public ProjectExist(projectName) {\n        uint projectID = NameToID[projectName];\n        require(block.timestamp >= publicProjects[projectID].DistributionTime, \"not claiming time\");\n        addParticipant(msg.sender, projectName);\n        token.mint(msg.sender, projectID, publicProjects[projectID].pendingTokens[msg.sender]);\n        delete publicProjects[projectID].pendingTokens[msg.sender];\n    }\n\n\n    function getLastDistriubtionTime(string calldata projectName) external view ProjectExist(projectName) returns (uint)  {\n        uint projectID = NameToID[projectName];\n        return publicProjects[projectID].DistributionTime;\n    }\n\n\n    function getPendingTokens(address usr, string calldata projectName) ProjectExist(projectName) external view returns (uint) {\n        uint projectID = NameToID[projectName];\n        return publicProjects[projectID].pendingTokens[usr];\n    }\n}\n",
  "sourcePath": "c:\\Users\\User\\Desktop\\\\davidson\\project\\DavidsonProject\\Smart Contract\\contracts\\TokenDistribution.sol",
  "compiler": {
    "name": "solc",
    "version": "0.8.13+commit.abaa5c0e.Emscripten.clang"
  },
  "schemaVersion": "3.4.7",
  "updatedAt": "2024-04-19T22:33:00.903Z",
  "devdoc": {
    "kind": "dev",
    "methods": {
      "owner()": {
        "details": "Returns the address of the current owner."
      },
      "renounceOwnership()": {
        "details": "Leaves the contract without owner. It will not be possible to call `onlyOwner` functions. Can only be called by the current owner. NOTE: Renouncing ownership will leave the contract without an owner, thereby disabling any functionality that is only available to the owner."
      },
      "transferOwnership(address)": {
        "details": "Transfers ownership of the contract to a new account (`newOwner`). Can only be called by the current owner."
      }
    },
    "version": 1
  },
  "userdoc": {
    "kind": "user",
    "methods": {},
    "version": 1
  }
}