{
  "contractName": "TokenDistribution",
  "abi": [
    {
      "inputs": [
        {
          "internalType": "address",
          "name": "_tokenAddress",
          "type": "address"
        }
      ],
      "stateMutability": "nonpayable",
      "type": "constructor"
    },
    {
      "anonymous": false,
      "inputs": [
        {
          "indexed": false,
          "internalType": "string",
          "name": "message",
          "type": "string"
        },
        {
          "indexed": false,
          "internalType": "string",
          "name": "projectName",
          "type": "string"
        },
        {
          "indexed": false,
          "internalType": "string",
          "name": "changeCID",
          "type": "string"
        }
      ],
      "name": "NewChangeIsMadeToProject",
      "type": "event"
    },
    {
      "anonymous": false,
      "inputs": [
        {
          "indexed": false,
          "internalType": "string",
          "name": "message",
          "type": "string"
        },
        {
          "indexed": false,
          "internalType": "string",
          "name": "Name",
          "type": "string"
        },
        {
          "indexed": false,
          "internalType": "string",
          "name": "CID",
          "type": "string"
        },
        {
          "indexed": false,
          "internalType": "uint256",
          "name": "indexValue",
          "type": "uint256"
        }
      ],
      "name": "NewChangeProposalCreated",
      "type": "event"
    },
    {
      "anonymous": false,
      "inputs": [
        {
          "indexed": false,
          "internalType": "string",
          "name": "message",
          "type": "string"
        },
        {
          "indexed": false,
          "internalType": "string",
          "name": "name",
          "type": "string"
        },
        {
          "indexed": false,
          "internalType": "uint256",
          "name": "value",
          "type": "uint256"
        }
      ],
      "name": "NewProjectCreated",
      "type": "event"
    },
    {
      "anonymous": false,
      "inputs": [
        {
          "indexed": false,
          "internalType": "string",
          "name": "message",
          "type": "string"
        },
        {
          "indexed": false,
          "internalType": "string",
          "name": "projectName",
          "type": "string"
        },
        {
          "indexed": false,
          "internalType": "string",
          "name": "changeProposalCID",
          "type": "string"
        },
        {
          "indexed": false,
          "internalType": "address",
          "name": "voter",
          "type": "address"
        },
        {
          "indexed": false,
          "internalType": "uint256",
          "name": "votes",
          "type": "uint256"
        }
      ],
      "name": "NewVoteForChangeProposal",
      "type": "event"
    },
    {
      "anonymous": false,
      "inputs": [
        {
          "indexed": true,
          "internalType": "address",
          "name": "previousOwner",
          "type": "address"
        },
        {
          "indexed": true,
          "internalType": "address",
          "name": "newOwner",
          "type": "address"
        }
      ],
      "name": "OwnershipTransferred",
      "type": "event"
    },
    {
      "anonymous": false,
      "inputs": [
        {
          "indexed": false,
          "internalType": "string",
          "name": "message",
          "type": "string"
        },
        {
          "indexed": false,
          "internalType": "string",
          "name": "changeCID",
          "type": "string"
        },
        {
          "indexed": false,
          "internalType": "string",
          "name": "ProjectName",
          "type": "string"
        }
      ],
      "name": "ProjectWentBack",
      "type": "event"
    },
    {
      "anonymous": false,
      "inputs": [
        {
          "indexed": false,
          "internalType": "string",
          "name": "message",
          "type": "string"
        },
        {
          "indexed": false,
          "internalType": "uint256",
          "name": "lastDistributionTime",
          "type": "uint256"
        }
      ],
      "name": "TokensDisributed",
      "type": "event"
    },
    {
      "inputs": [
        {
          "internalType": "string",
          "name": "_changeCID",
          "type": "string"
        },
        {
          "internalType": "string",
          "name": "_projectName",
          "type": "string"
        }
      ],
      "name": "MakeChangeProposal",
      "outputs": [],
      "stateMutability": "nonpayable",
      "type": "function"
    },
    {
      "inputs": [
        {
          "internalType": "string",
          "name": "_changeCID",
          "type": "string"
        },
        {
          "internalType": "string",
          "name": "_projectName",
          "type": "string"
        }
      ],
      "name": "MakeGoBackProposal",
      "outputs": [],
      "stateMutability": "nonpayable",
      "type": "function"
    },
    {
      "inputs": [
        {
          "internalType": "string",
          "name": "",
          "type": "string"
        }
      ],
      "name": "NameToID",
      "outputs": [
        {
          "internalType": "uint256",
          "name": "",
          "type": "uint256"
        }
      ],
      "stateMutability": "view",
      "type": "function",
      "constant": true
    },
    {
      "inputs": [],
      "name": "TimeLockInterval",
      "outputs": [
        {
          "internalType": "uint256",
          "name": "",
          "type": "uint256"
        }
      ],
      "stateMutability": "view",
      "type": "function",
      "constant": true
    },
    {
      "inputs": [
        {
          "internalType": "string",
          "name": "_proposedChangeCID",
          "type": "string"
        },
        {
          "internalType": "string",
          "name": "_projectName",
          "type": "string"
        }
      ],
      "name": "acceptChangeProposal",
      "outputs": [],
      "stateMutability": "nonpayable",
      "type": "function"
    },
    {
      "inputs": [
        {
          "internalType": "string",
          "name": "_projectName",
          "type": "string"
        },
        {
          "internalType": "string",
          "name": "_changeCID",
          "type": "string"
        }
      ],
      "name": "acceptGoBack",
      "outputs": [],
      "stateMutability": "nonpayable",
      "type": "function"
    },
    {
      "inputs": [
        {
          "internalType": "string",
          "name": "_CID",
          "type": "string"
        },
        {
          "internalType": "string",
          "name": "projectName",
          "type": "string"
        }
      ],
      "name": "createProject",
      "outputs": [],
      "stateMutability": "nonpayable",
      "type": "function"
    },
    {
      "inputs": [
        {
          "internalType": "string",
          "name": "_projectName",
          "type": "string"
        }
      ],
      "name": "distributeTokens",
      "outputs": [],
      "stateMutability": "nonpayable",
      "type": "function"
    },
    {
      "inputs": [
        {
          "internalType": "string",
          "name": "_projectName",
          "type": "string"
        },
        {
          "internalType": "address",
          "name": "_UserAddress",
          "type": "address"
        }
      ],
      "name": "getBalance",
      "outputs": [
        {
          "internalType": "uint256",
          "name": "",
          "type": "uint256"
        }
      ],
      "stateMutability": "view",
      "type": "function",
      "constant": true
    },
    {
      "inputs": [
        {
          "internalType": "string",
          "name": "_projectName",
          "type": "string"
        },
        {
          "internalType": "bool",
          "name": "changesOrChangeProposals",
          "type": "bool"
        }
      ],
      "name": "getChangesOrProposals",
      "outputs": [
        {
          "internalType": "string[]",
          "name": "",
          "type": "string[]"
        }
      ],
      "stateMutability": "view",
      "type": "function",
      "constant": true
    },
    {
      "inputs": [],
      "name": "getLastProjects",
      "outputs": [
        {
          "internalType": "string[]",
          "name": "",
          "type": "string[]"
        }
      ],
      "stateMutability": "view",
      "type": "function",
      "constant": true
    },
    {
      "inputs": [],
      "name": "owner",
      "outputs": [
        {
          "internalType": "address",
          "name": "",
          "type": "address"
        }
      ],
      "stateMutability": "view",
      "type": "function",
      "constant": true
    },
    {
      "inputs": [],
      "name": "renounceOwnership",
      "outputs": [],
      "stateMutability": "nonpayable",
      "type": "function"
    },
    {
      "inputs": [],
      "name": "token",
      "outputs": [
        {
          "internalType": "contract ProjectsToken",
          "name": "",
          "type": "address"
        }
      ],
      "stateMutability": "view",
      "type": "function",
      "constant": true
    },
    {
      "inputs": [
        {
          "internalType": "address",
          "name": "newOwner",
          "type": "address"
        }
      ],
      "name": "transferOwnership",
      "outputs": [],
      "stateMutability": "nonpayable",
      "type": "function"
    },
    {
      "inputs": [
        {
          "internalType": "string",
          "name": "_changeProposalCID",
          "type": "string"
        },
        {
          "internalType": "string",
          "name": "_projectName",
          "type": "string"
        }
      ],
      "name": "voteForChangeProposal",
      "outputs": [],
      "stateMutability": "nonpayable",
      "type": "function"
    },
    {
      "inputs": [
        {
          "internalType": "address",
          "name": "usr",
          "type": "address"
        },
        {
          "internalType": "string",
          "name": "projectName",
          "type": "string"
        }
      ],
      "name": "getDistributionBalanceOf",
      "outputs": [
        {
          "internalType": "uint256",
          "name": "",
          "type": "uint256"
        }
      ],
      "stateMutability": "view",
      "type": "function",
      "constant": true
    },
    {
      "inputs": [
        {
          "components": [
            {
              "internalType": "address",
              "name": "recipient",
              "type": "address"
            },
            {
              "internalType": "uint256",
              "name": "amount",
              "type": "uint256"
            }
          ],
          "internalType": "struct TokenDistribution.payTokens[]",
          "name": "recipients",
          "type": "tuple[]"
        },
        {
          "internalType": "string",
          "name": "projectName",
          "type": "string"
        }
      ],
      "name": "distribute",
      "outputs": [],
      "stateMutability": "nonpayable",
      "type": "function"
    },
    {
      "inputs": [
        {
          "internalType": "string",
          "name": "projectName",
          "type": "string"
        }
      ],
      "name": "startDistribution",
      "outputs": [],
      "stateMutability": "nonpayable",
      "type": "function"
    },
    {
      "inputs": [
        {
          "internalType": "string",
          "name": "projectName",
          "type": "string"
        }
      ],
      "name": "claimPendingTokens",
      "outputs": [],
      "stateMutability": "nonpayable",
      "type": "function"
    }
  ],
  "bytecode": "0x60a060405262278d006080908152503480156200001b57600080fd5b506040516200458d3803806200458d8339818101604052810190620000419190620001e3565b8080600260006101000a81548173ffffffffffffffffffffffffffffffffffffffff021916908373ffffffffffffffffffffffffffffffffffffffff16021790555050620000a462000098620000ab60201b60201c565b620000b360201b60201c565b5062000215565b600033905090565b6000600360009054906101000a900473ffffffffffffffffffffffffffffffffffffffff16905081600360006101000a81548173ffffffffffffffffffffffffffffffffffffffff021916908373ffffffffffffffffffffffffffffffffffffffff1602179055508173ffffffffffffffffffffffffffffffffffffffff168173ffffffffffffffffffffffffffffffffffffffff167f8be0079c531659141344cd1fd0a4f28419497f9722a3daafe3b4186f6b6457e060405160405180910390a35050565b600080fd5b600073ffffffffffffffffffffffffffffffffffffffff82169050919050565b6000620001ab826200017e565b9050919050565b620001bd816200019e565b8114620001c957600080fd5b50565b600081519050620001dd81620001b2565b92915050565b600060208284031215620001fc57620001fb62000179565b5b60006200020c84828501620001cc565b91505092915050565b60805161434e6200023f60003960008181610fe30152818161119901526125cc015261434e6000f3fe608060405234801561001057600080fd5b506004361061012c5760003560e01c80638d1446fc116100ad578063ed0c2d9011610071578063ed0c2d9014610319578063ee9c3aa314610335578063f2fde38b14610351578063f396530f1461036d578063fc0c546a146103895761012c565b80638d1446fc146102895780638da5cb5b146102a5578063a54d804d146102c3578063a5635963146102e1578063c4687fb8146102fd5761012c565b8063750354d2116100f4578063750354d2146101e75780637a5945da146102035780637ec1567414610221578063863805cd1461023d57806389f4b317146102595761012c565b80631d7147d81461013157806333846eba1461016157806349b7b640146101915780636bd06204146101c1578063715018a6146101dd575b600080fd5b61014b60048036038101906101469190612c0c565b6103a7565b6040516101589190612dc7565b60405180910390f35b61017b60048036038101906101769190612f19565b6105ec565b6040516101889190612f7b565b60405180910390f35b6101ab60048036038101906101a69190612ff4565b61061a565b6040516101b89190612f7b565b60405180910390f35b6101db60048036038101906101d69190613054565b6108c6565b005b6101e5610a77565b005b61020160048036038101906101fc91906130cc565b610a8b565b005b61020b610fe1565b6040516102189190612f7b565b60405180910390f35b61023b60048036038101906102369190613148565b611005565b005b610257600480360381019061025291906132d9565b61125a565b005b610273600480360381019061026e9190613355565b6115e1565b6040516102809190612f7b565b60405180910390f35b6102a3600480360381019061029e91906130cc565b611819565b005b6102ad611bd3565b6040516102ba91906133c4565b60405180910390f35b6102cb611bfd565b6040516102d89190612dc7565b60405180910390f35b6102fb60048036038101906102f691906130cc565b611d9b565b005b610317600480360381019061031291906133df565b611f70565b005b610333600480360381019061032e91906130cc565b6121d4565b005b61034f600480360381019061034a9190613148565b612438565b005b61036b6004803603810190610366919061345b565b6126e9565b005b61038760048036038101906103829190613148565b61276c565b005b6103916128f0565b60405161039e91906134e7565b60405180910390f35b606083838080601f016020809104026020016040519081016040528093929190818152602001838380828437600081840152601f19601f82011690508083019250505050505050600080826040516103ff919061353e565b9081526020016040518091039020549050600081036104cf5781604051602001610429919061353e565b604051602081830303815290604052805190602001206001828154811061045357610452613555565b5b90600052602060002090600902016000016040516020016104749190613678565b60405160208183030381529060405280519060200120146104ca576040517f08c379a00000000000000000000000000000000000000000000000000000000081526004016104c1906136ec565b60405180910390fd5b610517565b6001805490508110610516576040517f08c379a000000000000000000000000000000000000000000000000000000000815260040161050d906136ec565b60405180910390fd5b5b600080878760405161052a929190613731565b90815260200160405180910390205490506001818154811061054f5761054e613555565b5b906000526020600020906009020160010173__ChangesLibrary________________________63e3e26be89091876040518363ffffffff1660e01b815260040161059a929190613760565b600060405180830381865af41580156105b7573d6000803e3d6000fd5b505050506040513d6000823e3d601f19601f820116820180604052508101906105e091906138da565b93505050509392505050565b6000818051602081018201805184825260208301602085012081835280955050505050506000915090505481565b600082828080601f016020809104026020016040519081016040528093929190818152602001838380828437600081840152601f19601f8201169050808301925050505050505060008082604051610672919061353e565b908152602001604051809103902054905060008103610742578160405160200161069c919061353e565b60405160208183030381529060405280519060200120600182815481106106c6576106c5613555565b5b90600052602060002090600902016000016040516020016106e79190613678565b604051602081830303815290604052805190602001201461073d576040517f08c379a0000000000000000000000000000000000000000000000000000000008152600401610734906136ec565b60405180910390fd5b61078a565b6001805490508110610789576040517f08c379a0000000000000000000000000000000000000000000000000000000008152600401610780906136ec565b60405180910390fd5b5b600080868660405161079d929190613731565b9081526020016040518091039020549050600181815481106107c2576107c1613555565b5b9060005260206000209060090201600501544211610815576040517f08c379a000000000000000000000000000000000000000000000000000000000815260040161080c9061396f565b60405180910390fd5b60006001828154811061082b5761082a613555565b5b906000526020600020906009020160050154905060006001838154811061085557610854613555565b5b906000526020600020906009020160070160008a73ffffffffffffffffffffffffffffffffffffffff1673ffffffffffffffffffffffffffffffffffffffff168152602001908152602001600020600083815260200190815260200160002054905080955050505050509392505050565b60006001805490509050806000836040516108e1919061353e565b908152602001604051809103902081905550600260009054906101000a900473ffffffffffffffffffffffffffffffffffffffff1673ffffffffffffffffffffffffffffffffffffffff1663156e29f63383600a6040518463ffffffff1660e01b8152600401610953939291906139ca565b600060405180830381600087803b15801561096d57600080fd5b505af1158015610981573d6000803e3d6000fd5b505050506000600180816001815401808255809150500390600052602060002090600902019050828160000190805190602001906109c0929190612ab8565b508060010173__ChangesLibrary________________________63aaff905a9091866040518363ffffffff1660e01b81526004016109ff929190613a4b565b60006040518083038186803b158015610a1757600080fd5b505af4158015610a2b573d6000803e3d6000fd5b505050504281600501819055507fe224389b386caecb8e3b38edc39361c7227e3ef820a8276bc31ac9cf1ba69fcd8383604051610a69929190613b00565b60405180910390a150505050565b610a7f612916565b610a896000612994565b565b81818080601f016020809104026020016040519081016040528093929190818152602001838380828437600081840152601f19601f8201169050808301925050505050505060008082604051610ae1919061353e565b908152602001604051809103902054905060008103610bb15781604051602001610b0b919061353e565b6040516020818303038152906040528051906020012060018281548110610b3557610b34613555565b5b9060005260206000209060090201600001604051602001610b569190613678565b6040516020818303038152906040528051906020012014610bac576040517f08c379a0000000000000000000000000000000000000000000000000000000008152600401610ba3906136ec565b60405180910390fd5b610bf9565b6001805490508110610bf8576040517f08c379a0000000000000000000000000000000000000000000000000000000008152600401610bef906136ec565b60405180910390fd5b5b6000808585604051610c0c929190613731565b90815260200160405180910390205490506000151560018281548110610c3557610c34613555565b5b906000526020600020906009020160080187604051610c54919061353e565b908152602001604051809103902060003373ffffffffffffffffffffffffffffffffffffffff1673ffffffffffffffffffffffffffffffffffffffff16815260200190815260200160002060009054906101000a900460ff16151514610cef576040517f08c379a0000000000000000000000000000000000000000000000000000000008152600401610ce690613b8f565b60405180910390fd5b6000600260009054906101000a900473ffffffffffffffffffffffffffffffffffffffff1673ffffffffffffffffffffffffffffffffffffffff1662fdd58e33846040518363ffffffff1660e01b8152600401610d4d929190613baf565b602060405180830381865afa158015610d6a573d6000803e3d6000fd5b505050506040513d601f19601f82011682018060405250810190610d8e9190613bed565b905060008111610dd3576040517f08c379a0000000000000000000000000000000000000000000000000000000008152600401610dca90613c66565b60405180910390fd5b60018281548110610de757610de6613555565b5b906000526020600020906009020160010173__ChangesLibrary________________________637dba11cb909189846040518463ffffffff1660e01b8152600401610e3493929190613c95565b60006040518083038186803b158015610e4c57600080fd5b505af4158015610e60573d6000803e3d6000fd5b505050506001808381548110610e7957610e78613555565b5b906000526020600020906009020160080188604051610e98919061353e565b908152602001604051809103902060003373ffffffffffffffffffffffffffffffffffffffff1673ffffffffffffffffffffffffffffffffffffffff16815260200190815260200160002060006101000a81548160ff0219169083151502179055507f0defd832aa647eb845ac2ed5e414ba9da1d13d7c3b2028fea20853913891174d8686893360018781548110610f3357610f32613555565b5b906000526020600020906009020160010173__ChangesLibrary________________________63ca5451d290918e6040518363ffffffff1660e01b8152600401610f7e929190613a4b565b602060405180830381865af4158015610f9b573d6000803e3d6000fd5b505050506040513d601f19601f82011682018060405250810190610fbf9190613bed565b604051610fd0959493929190613d4c565b60405180910390a150505050505050565b7f000000000000000000000000000000000000000000000000000000000000000081565b81818080601f016020809104026020016040519081016040528093929190818152602001838380828437600081840152601f19601f820116905080830192505050505050506000808260405161105b919061353e565b90815260200160405180910390205490506000810361112b5781604051602001611085919061353e565b60405160208183030381529060405280519060200120600182815481106110af576110ae613555565b5b90600052602060002090600902016000016040516020016110d09190613678565b6040516020818303038152906040528051906020012014611126576040517f08c379a000000000000000000000000000000000000000000000000000000000815260040161111d906136ec565b60405180910390fd5b611173565b6001805490508110611172576040517f08c379a0000000000000000000000000000000000000000000000000000000008152600401611169906136ec565b60405180910390fd5b5b6000808585604051611186929190613731565b90815260200160405180910390205490507f0000000000000000000000000000000000000000000000000000000000000000600182815481106111cc576111cb613555565b5b9060005260206000209060090201600501546111e89190613de3565b4211611229576040517f08c379a00000000000000000000000000000000000000000000000000000000081526004016112209061396f565b60405180910390fd5b426001828154811061123e5761123d613555565b5b9060005260206000209060090201600501819055505050505050565b611262612916565b81818080601f016020809104026020016040519081016040528093929190818152602001838380828437600081840152601f19601f82011690508083019250505050505050600080826040516112b8919061353e565b90815260200160405180910390205490506000810361138857816040516020016112e2919061353e565b604051602081830303815290604052805190602001206001828154811061130c5761130b613555565b5b906000526020600020906009020160000160405160200161132d9190613678565b6040516020818303038152906040528051906020012014611383576040517f08c379a000000000000000000000000000000000000000000000000000000000815260040161137a906136ec565b60405180910390fd5b6113d0565b60018054905081106113cf576040517f08c379a00000000000000000000000000000000000000000000000000000000081526004016113c6906136ec565b60405180910390fd5b5b60008085856040516113e3929190613731565b908152602001604051809103902054905060006113ff87612a5a565b905061140c33878761061a565b81111561144e576040517f08c379a000000000000000000000000000000000000000000000000000000000815260040161144590613e85565b60405180910390fd5b60006001838154811061146457611463613555565b5b906000526020600020906009020160050154905060005b885181101561154c5788818151811061149757611496613555565b5b602002602001015160200151600185815481106114b7576114b6613555565b5b906000526020600020906009020160060160008b84815181106114dd576114dc613555565b5b60200260200101516000015173ffffffffffffffffffffffffffffffffffffffff1673ffffffffffffffffffffffffffffffffffffffff16815260200190815260200160002060008282546115329190613de3565b92505081905550808061154490613ea5565b91505061147b565b50816001848154811061156257611561613555565b5b906000526020600020906009020160070160003373ffffffffffffffffffffffffffffffffffffffff1673ffffffffffffffffffffffffffffffffffffffff168152602001908152602001600020600083815260200190815260200160002060008282546115d09190613de3565b925050819055505050505050505050565b600083838080601f016020809104026020016040519081016040528093929190818152602001838380828437600081840152601f19601f8201169050808301925050505050505060008082604051611639919061353e565b9081526020016040518091039020549050600081036117095781604051602001611663919061353e565b604051602081830303815290604052805190602001206001828154811061168d5761168c613555565b5b90600052602060002090600902016000016040516020016116ae9190613678565b6040516020818303038152906040528051906020012014611704576040517f08c379a00000000000000000000000000000000000000000000000000000000081526004016116fb906136ec565b60405180910390fd5b611751565b6001805490508110611750576040517f08c379a0000000000000000000000000000000000000000000000000000000008152600401611747906136ec565b60405180910390fd5b5b600260009054906101000a900473ffffffffffffffffffffffffffffffffffffffff1673ffffffffffffffffffffffffffffffffffffffff1662fdd58e85600089896040516117a1929190613731565b9081526020016040518091039020546040518363ffffffff1660e01b81526004016117cd929190613baf565b602060405180830381865afa1580156117ea573d6000803e3d6000fd5b505050506040513d601f19601f8201168201806040525081019061180e9190613bed565b925050509392505050565b81818080601f016020809104026020016040519081016040528093929190818152602001838380828437600081840152601f19601f820116905080830192505050505050506000808260405161186f919061353e565b90815260200160405180910390205490506000810361193f5781604051602001611899919061353e565b60405160208183030381529060405280519060200120600182815481106118c3576118c2613555565b5b90600052602060002090600902016000016040516020016118e49190613678565b604051602081830303815290604052805190602001201461193a576040517f08c379a0000000000000000000000000000000000000000000000000000000008152600401611931906136ec565b60405180910390fd5b611987565b6001805490508110611986576040517f08c379a000000000000000000000000000000000000000000000000000000000815260040161197d906136ec565b60405180910390fd5b5b600080858560405161199a929190613731565b9081526020016040518091039020549050600181815481106119bf576119be613555565b5b906000526020600020906009020160010173__ChangesLibrary________________________636de060a8909188600260009054906101000a900473ffffffffffffffffffffffffffffffffffffffff1673ffffffffffffffffffffffffffffffffffffffff1662fdd58e3360008c8c604051611a3d929190613731565b9081526020016040518091039020546040518363ffffffff1660e01b8152600401611a69929190613baf565b602060405180830381865afa158015611a86573d6000803e3d6000fd5b505050506040513d601f19601f82011682018060405250810190611aaa9190613bed565b6040518463ffffffff1660e01b8152600401611ac893929190613c95565b60006040518083038186803b158015611ae057600080fd5b505af4158015611af4573d6000803e3d6000fd5b505050506001808281548110611b0d57611b0c613555565b5b906000526020600020906009020160080187604051611b2c919061353e565b908152602001604051809103902060003373ffffffffffffffffffffffffffffffffffffffff1673ffffffffffffffffffffffffffffffffffffffff16815260200190815260200160002060006101000a81548160ff0219169083151502179055507f7b7acf540aac5e16ce3dfbd4d106c203a301da603c18502d179f60282962e5c485858884604051611bc39493929190613f85565b60405180910390a1505050505050565b6000600360009054906101000a900473ffffffffffffffffffffffffffffffffffffffff16905090565b60606000600180549050905060006001805490509050600a821115611c2157600a91505b60008267ffffffffffffffff811115611c3d57611c3c612dee565b5b604051908082528060200260200182016040528015611c7057816020015b6060815260200190600190039081611c5b5790505b50905060006001805490501115611d925760008383611c8f9190613fdf565b90505b82811015611d905760018181548110611cae57611cad613555565b5b90600052602060002090600902016000018054611cca906135b3565b80601f0160208091040260200160405190810160405280929190818152602001828054611cf6906135b3565b8015611d435780601f10611d1857610100808354040283529160200191611d43565b820191906000526020600020905b815481529060010190602001808311611d2657829003601f168201915b50505050508282600186611d579190613fdf565b611d619190613fdf565b81518110611d7257611d71613555565b5b60200260200101819052508080611d8890613ea5565b915050611c92565b505b80935050505090565b6000808383604051611dae929190613731565b908152602001604051809103902054905060018181548110611dd357611dd2613555565b5b906000526020600020906009020160040160405180606001604052808681526020013373ffffffffffffffffffffffffffffffffffffffff168152602001600260009054906101000a900473ffffffffffffffffffffffffffffffffffffffff1673ffffffffffffffffffffffffffffffffffffffff1662fdd58e3360008989604051611e61929190613731565b9081526020016040518091039020546040518363ffffffff1660e01b8152600401611e8d929190613baf565b602060405180830381865afa158015611eaa573d6000803e3d6000fd5b505050506040513d601f19601f82011682018060405250810190611ece9190613bed565b81525090806001815401808255809150506001900390600052602060002090600302016000909190919091506000820151816000019080519060200190611f16929190612ab8565b5060208201518160010160006101000a81548173ffffffffffffffffffffffffffffffffffffffff021916908373ffffffffffffffffffffffffffffffffffffffff16021790555060408201518160020155505050505050565b82828080601f016020809104026020016040519081016040528093929190818152602001838380828437600081840152601f19601f8201169050808301925050505050505060008082604051611fc6919061353e565b9081526020016040518091039020549050600081036120965781604051602001611ff0919061353e565b604051602081830303815290604052805190602001206001828154811061201a57612019613555565b5b906000526020600020906009020160000160405160200161203b9190613678565b6040516020818303038152906040528051906020012014612091576040517f08c379a0000000000000000000000000000000000000000000000000000000008152600401612088906136ec565b60405180910390fd5b6120de565b60018054905081106120dd576040517f08c379a00000000000000000000000000000000000000000000000000000000081526004016120d4906136ec565b60405180910390fd5b5b60008086866040516120f1929190613731565b90815260200160405180910390205490506001818154811061211657612115613555565b5b906000526020600020906009020160010173__ChangesLibrary________________________637cbb44f99091866040518363ffffffff1660e01b8152600401612161929190613a4b565b60006040518083038186803b15801561217957600080fd5b505af415801561218d573d6000803e3d6000fd5b505050507f718a982b61bc723a0c68281b0eb10e1cff37bd89888841ae545c98cd5493a0568487876040516121c49392919061405f565b60405180910390a1505050505050565b81818080601f016020809104026020016040519081016040528093929190818152602001838380828437600081840152601f19601f820116905080830192505050505050506000808260405161222a919061353e565b9081526020016040518091039020549050600081036122fa5781604051602001612254919061353e565b604051602081830303815290604052805190602001206001828154811061227e5761227d613555565b5b906000526020600020906009020160000160405160200161229f9190613678565b60405160208183030381529060405280519060200120146122f5576040517f08c379a00000000000000000000000000000000000000000000000000000000081526004016122ec906136ec565b60405180910390fd5b612342565b6001805490508110612341576040517f08c379a0000000000000000000000000000000000000000000000000000000008152600401612338906136ec565b60405180910390fd5b5b6000808585604051612355929190613731565b90815260200160405180910390205490506001818154811061237a57612379613555565b5b906000526020600020906009020160010173__ChangesLibrary________________________636b6b15cc9091886040518363ffffffff1660e01b81526004016123c5929190613a4b565b60006040518083038186803b1580156123dd57600080fd5b505af41580156123f1573d6000803e3d6000fd5b505050507fa59a33e81abf86b25a561f609013d867f28b3c0cbc2cdf98e852b0c0c041eb6c8585886040516124289392919061411d565b60405180910390a1505050505050565b81818080601f016020809104026020016040519081016040528093929190818152602001838380828437600081840152601f19601f820116905080830192505050505050506000808260405161248e919061353e565b90815260200160405180910390205490506000810361255e57816040516020016124b8919061353e565b60405160208183030381529060405280519060200120600182815481106124e2576124e1613555565b5b90600052602060002090600902016000016040516020016125039190613678565b6040516020818303038152906040528051906020012014612559576040517f08c379a0000000000000000000000000000000000000000000000000000000008152600401612550906136ec565b60405180910390fd5b6125a6565b60018054905081106125a5576040517f08c379a000000000000000000000000000000000000000000000000000000000815260040161259c906136ec565b60405180910390fd5b5b60008085856040516125b9929190613731565b90815260200160405180910390205490507f0000000000000000000000000000000000000000000000000000000000000000600182815481106125ff576125fe613555565b5b90600052602060002090600902016005015461261b9190613de3565b421161265c576040517f08c379a00000000000000000000000000000000000000000000000000000000081526004016126539061396f565b60405180910390fd5b426001828154811061267157612670613555565b5b9060005260206000209060090201600501819055507f7288f707ccc9ad8e6342e2220545e85e8971083cf158175f547d9567688b65ff600182815481106126bb576126ba613555565b5b9060005260206000209060090201600501546040516126da91906141b5565b60405180910390a15050505050565b6126f1612916565b600073ffffffffffffffffffffffffffffffffffffffff168173ffffffffffffffffffffffffffffffffffffffff1603612760576040517f08c379a000000000000000000000000000000000000000000000000000000000815260040161275790614255565b60405180910390fd5b61276981612994565b50565b600080838360405161277f929190613731565b9081526020016040518091039020549050600260009054906101000a900473ffffffffffffffffffffffffffffffffffffffff1673ffffffffffffffffffffffffffffffffffffffff1663156e29f63383600185815481106127e4576127e3613555565b5b906000526020600020906009020160060160003373ffffffffffffffffffffffffffffffffffffffff1673ffffffffffffffffffffffffffffffffffffffff168152602001908152602001600020546040518463ffffffff1660e01b815260040161285193929190614275565b600060405180830381600087803b15801561286b57600080fd5b505af115801561287f573d6000803e3d6000fd5b5050505060006001828154811061289957612898613555565b5b906000526020600020906009020160060160003373ffffffffffffffffffffffffffffffffffffffff1673ffffffffffffffffffffffffffffffffffffffff16815260200190815260200160002081905550505050565b600260009054906101000a900473ffffffffffffffffffffffffffffffffffffffff1681565b61291e612ab0565b73ffffffffffffffffffffffffffffffffffffffff1661293c611bd3565b73ffffffffffffffffffffffffffffffffffffffff1614612992576040517f08c379a0000000000000000000000000000000000000000000000000000000008152600401612989906142f8565b60405180910390fd5b565b6000600360009054906101000a900473ffffffffffffffffffffffffffffffffffffffff16905081600360006101000a81548173ffffffffffffffffffffffffffffffffffffffff021916908373ffffffffffffffffffffffffffffffffffffffff1602179055508173ffffffffffffffffffffffffffffffffffffffff168173ffffffffffffffffffffffffffffffffffffffff167f8be0079c531659141344cd1fd0a4f28419497f9722a3daafe3b4186f6b6457e060405160405180910390a35050565b600080600090505b8251811015612aaa57828181518110612a7e57612a7d613555565b5b60200260200101516020015182612a959190613de3565b91508080612aa290613ea5565b915050612a62565b50919050565b600033905090565b828054612ac4906135b3565b90600052602060002090601f016020900481019282612ae65760008555612b2d565b82601f10612aff57805160ff1916838001178555612b2d565b82800160010185558215612b2d579182015b82811115612b2c578251825591602001919060010190612b11565b5b509050612b3a9190612b3e565b5090565b5b80821115612b57576000816000905550600101612b3f565b5090565b6000604051905090565b600080fd5b600080fd5b600080fd5b600080fd5b600080fd5b60008083601f840112612b9457612b93612b6f565b5b8235905067ffffffffffffffff811115612bb157612bb0612b74565b5b602083019150836001820283011115612bcd57612bcc612b79565b5b9250929050565b60008115159050919050565b612be981612bd4565b8114612bf457600080fd5b50565b600081359050612c0681612be0565b92915050565b600080600060408486031215612c2557612c24612b65565b5b600084013567ffffffffffffffff811115612c4357612c42612b6a565b5b612c4f86828701612b7e565b93509350506020612c6286828701612bf7565b9150509250925092565b600081519050919050565b600082825260208201905092915050565b6000819050602082019050919050565b600081519050919050565b600082825260208201905092915050565b60005b83811015612cd2578082015181840152602081019050612cb7565b83811115612ce1576000848401525b50505050565b6000601f19601f8301169050919050565b6000612d0382612c98565b612d0d8185612ca3565b9350612d1d818560208601612cb4565b612d2681612ce7565b840191505092915050565b6000612d3d8383612cf8565b905092915050565b6000602082019050919050565b6000612d5d82612c6c565b612d678185612c77565b935083602082028501612d7985612c88565b8060005b85811015612db55784840389528151612d968582612d31565b9450612da183612d45565b925060208a01995050600181019050612d7d565b50829750879550505050505092915050565b60006020820190508181036000830152612de18184612d52565b905092915050565b600080fd5b7f4e487b7100000000000000000000000000000000000000000000000000000000600052604160045260246000fd5b612e2682612ce7565b810181811067ffffffffffffffff82111715612e4557612e44612dee565b5b80604052505050565b6000612e58612b5b565b9050612e648282612e1d565b919050565b600067ffffffffffffffff821115612e8457612e83612dee565b5b612e8d82612ce7565b9050602081019050919050565b82818337600083830152505050565b6000612ebc612eb784612e69565b612e4e565b905082815260208101848484011115612ed857612ed7612de9565b5b612ee3848285612e9a565b509392505050565b600082601f830112612f0057612eff612b6f565b5b8135612f10848260208601612ea9565b91505092915050565b600060208284031215612f2f57612f2e612b65565b5b600082013567ffffffffffffffff811115612f4d57612f4c612b6a565b5b612f5984828501612eeb565b91505092915050565b6000819050919050565b612f7581612f62565b82525050565b6000602082019050612f906000830184612f6c565b92915050565b600073ffffffffffffffffffffffffffffffffffffffff82169050919050565b6000612fc182612f96565b9050919050565b612fd181612fb6565b8114612fdc57600080fd5b50565b600081359050612fee81612fc8565b92915050565b60008060006040848603121561300d5761300c612b65565b5b600061301b86828701612fdf565b935050602084013567ffffffffffffffff81111561303c5761303b612b6a565b5b61304886828701612b7e565b92509250509250925092565b6000806040838503121561306b5761306a612b65565b5b600083013567ffffffffffffffff81111561308957613088612b6a565b5b61309585828601612eeb565b925050602083013567ffffffffffffffff8111156130b6576130b5612b6a565b5b6130c285828601612eeb565b9150509250929050565b6000806000604084860312156130e5576130e4612b65565b5b600084013567ffffffffffffffff81111561310357613102612b6a565b5b61310f86828701612eeb565b935050602084013567ffffffffffffffff8111156131305761312f612b6a565b5b61313c86828701612b7e565b92509250509250925092565b6000806020838503121561315f5761315e612b65565b5b600083013567ffffffffffffffff81111561317d5761317c612b6a565b5b61318985828601612b7e565b92509250509250929050565b600067ffffffffffffffff8211156131b0576131af612dee565b5b602082029050602081019050919050565b600080fd5b6131cf81612f62565b81146131da57600080fd5b50565b6000813590506131ec816131c6565b92915050565b600060408284031215613208576132076131c1565b5b6132126040612e4e565b9050600061322284828501612fdf565b6000830152506020613236848285016131dd565b60208301525092915050565b600061325561325084613195565b612e4e565b9050808382526020820190506040840283018581111561327857613277612b79565b5b835b818110156132a1578061328d88826131f2565b84526020840193505060408101905061327a565b5050509392505050565b600082601f8301126132c0576132bf612b6f565b5b81356132d0848260208601613242565b91505092915050565b6000806000604084860312156132f2576132f1612b65565b5b600084013567ffffffffffffffff8111156133105761330f612b6a565b5b61331c868287016132ab565b935050602084013567ffffffffffffffff81111561333d5761333c612b6a565b5b61334986828701612b7e565b92509250509250925092565b60008060006040848603121561336e5761336d612b65565b5b600084013567ffffffffffffffff81111561338c5761338b612b6a565b5b61339886828701612b7e565b935093505060206133ab86828701612fdf565b9150509250925092565b6133be81612fb6565b82525050565b60006020820190506133d960008301846133b5565b92915050565b6000806000604084860312156133f8576133f7612b65565b5b600084013567ffffffffffffffff81111561341657613415612b6a565b5b61342286828701612b7e565b9350935050602084013567ffffffffffffffff81111561344557613444612b6a565b5b61345186828701612eeb565b9150509250925092565b60006020828403121561347157613470612b65565b5b600061347f84828501612fdf565b91505092915050565b6000819050919050565b60006134ad6134a86134a384612f96565b613488565b612f96565b9050919050565b60006134bf82613492565b9050919050565b60006134d1826134b4565b9050919050565b6134e1816134c6565b82525050565b60006020820190506134fc60008301846134d8565b92915050565b600081905092915050565b600061351882612c98565b6135228185613502565b9350613532818560208601612cb4565b80840191505092915050565b600061354a828461350d565b915081905092915050565b7f4e487b7100000000000000000000000000000000000000000000000000000000600052603260045260246000fd5b7f4e487b7100000000000000000000000000000000000000000000000000000000600052602260045260246000fd5b600060028204905060018216806135cb57607f821691505b6020821081036135de576135dd613584565b5b50919050565b60008190508160005260206000209050919050565b60008154613606816135b3565b6136108186613502565b9450600182166000811461362b576001811461363c5761366f565b60ff1983168652818601935061366f565b613645856135e4565b60005b8381101561366757815481890152600182019150602081019050613648565b838801955050505b50505092915050565b600061368482846135f9565b915081905092915050565b600082825260208201905092915050565b7f50726f6a65637420646f206e6f74206578697374000000000000000000000000600082015250565b60006136d660148361368f565b91506136e1826136a0565b602082019050919050565b60006020820190508181036000830152613705816136c9565b9050919050565b60006137188385613502565b9350613725838584612e9a565b82840190509392505050565b600061373e82848661370c565b91508190509392505050565b8082525050565b61375a81612bd4565b82525050565b6000604082019050613775600083018561374a565b6137826020830184613751565b9392505050565b600067ffffffffffffffff8211156137a4576137a3612dee565b5b602082029050602081019050919050565b60006137c86137c384612e69565b612e4e565b9050828152602081018484840111156137e4576137e3612de9565b5b6137ef848285612cb4565b509392505050565b600082601f83011261380c5761380b612b6f565b5b815161381c8482602086016137b5565b91505092915050565b600061383861383384613789565b612e4e565b9050808382526020820190506020840283018581111561385b5761385a612b79565b5b835b818110156138a257805167ffffffffffffffff8111156138805761387f612b6f565b5b80860161388d89826137f7565b8552602085019450505060208101905061385d565b5050509392505050565b600082601f8301126138c1576138c0612b6f565b5b81516138d1848260208601613825565b91505092915050565b6000602082840312156138f0576138ef612b65565b5b600082015167ffffffffffffffff81111561390e5761390d612b6a565b5b61391a848285016138ac565b91505092915050565b7f6e6f7420646973747269627574696f6e2074696d650000000000000000000000600082015250565b600061395960158361368f565b915061396482613923565b602082019050919050565b600060208201905081810360008301526139888161394c565b9050919050565b6000819050919050565b60006139b46139af6139aa8461398f565b613488565b612f62565b9050919050565b6139c481613999565b82525050565b60006060820190506139df60008301866133b5565b6139ec6020830185612f6c565b6139f960408301846139bb565b949350505050565b600082825260208201905092915050565b6000613a1d82612c98565b613a278185613a01565b9350613a37818560208601612cb4565b613a4081612ce7565b840191505092915050565b6000604082019050613a60600083018561374a565b8181036020830152613a728184613a12565b90509392505050565b7f4e65772070726f6a656374206372656174656420776974682049443a00000000600082015250565b6000613ab1601c8361368f565b9150613abc82613a7b565b602082019050919050565b6000613ad282612c98565b613adc818561368f565b9350613aec818560208601612cb4565b613af581612ce7565b840191505092915050565b60006060820190508181036000830152613b1981613aa4565b90508181036020830152613b2d8185613ac7565b9050613b3c6040830184612f6c565b9392505050565b7f416c726561647920766f74656400000000000000000000000000000000000000600082015250565b6000613b79600d8361368f565b9150613b8482613b43565b602082019050919050565b60006020820190508181036000830152613ba881613b6c565b9050919050565b6000604082019050613bc460008301856133b5565b613bd16020830184612f6c565b9392505050565b600081519050613be7816131c6565b92915050565b600060208284031215613c0357613c02612b65565b5b6000613c1184828501613bd8565b91505092915050565b7f566f74696e6720706f77657220697320696e73756666696369656e7400000000600082015250565b6000613c50601c8361368f565b9150613c5b82613c1a565b602082019050919050565b60006020820190508181036000830152613c7f81613c43565b9050919050565b613c8f81612f62565b82525050565b6000606082019050613caa600083018661374a565b8181036020830152613cbc8185613a12565b9050613ccb6040830184613c86565b949350505050565b7f4e657720766f746520666f72206368616e67652070726f706f73616c3a000000600082015250565b6000613d09601d8361368f565b9150613d1482613cd3565b602082019050919050565b6000613d2b838561368f565b9350613d38838584612e9a565b613d4183612ce7565b840190509392505050565b600060a0820190508181036000830152613d6581613cfc565b90508181036020830152613d7a818789613d1f565b90508181036040830152613d8e8186613ac7565b9050613d9d60608301856133b5565b613daa6080830184612f6c565b9695505050505050565b7f4e487b7100000000000000000000000000000000000000000000000000000000600052601160045260246000fd5b6000613dee82612f62565b9150613df983612f62565b9250827fffffffffffffffffffffffffffffffffffffffffffffffffffffffffffffffff03821115613e2e57613e2d613db4565b5b828201905092915050565b7f556e737566666963656e7420616d6f756e74206f6620746f6b656e7300000000600082015250565b6000613e6f601c8361368f565b9150613e7a82613e39565b602082019050919050565b60006020820190508181036000830152613e9e81613e62565b9050919050565b6000613eb082612f62565b91507fffffffffffffffffffffffffffffffffffffffffffffffffffffffffffffffff8203613ee257613ee1613db4565b5b600182019050919050565b7f4e6577206368616e67652070726f706f73616c20746f207468652050726f6a6560008201527f6374207769746820746865206e616d6520616e6420666f6c6c6f77696e67204960208201527f4420616e64204349443a00000000000000000000000000000000000000000000604082015250565b6000613f6f604a8361368f565b9150613f7a82613eed565b606082019050919050565b60006080820190508181036000830152613f9e81613f62565b90508181036020830152613fb3818688613d1f565b90508181036040830152613fc78185613ac7565b9050613fd66060830184612f6c565b95945050505050565b6000613fea82612f62565b9150613ff583612f62565b92508282101561400857614007613db4565b5b828203905092915050565b7f50726f6a656374206368616e67656420746f206368616e67653a200000000000600082015250565b6000614049601b8361368f565b915061405482614013565b602082019050919050565b600060608201905081810360008301526140788161403c565b9050818103602083015261408c8186613ac7565b905081810360408301526140a1818486613d1f565b9050949350505050565b7f41206e6577206368616e676520686173206265656e206d61646520746f20746860008201527f652070726f6a6563743a20000000000000000000000000000000000000000000602082015250565b6000614107602b8361368f565b9150614112826140ab565b604082019050919050565b60006060820190508181036000830152614136816140fa565b9050818103602083015261414b818587613d1f565b9050818103604083015261415f8184613ac7565b9050949350505050565b7f546f6b656e7320646973747269627574696f6e20537461727400000000000000600082015250565b600061419f60198361368f565b91506141aa82614169565b602082019050919050565b600060408201905081810360008301526141ce81614192565b90506141dd6020830184612f6c565b92915050565b7f4f776e61626c653a206e6577206f776e657220697320746865207a65726f206160008201527f6464726573730000000000000000000000000000000000000000000000000000602082015250565b600061423f60268361368f565b915061424a826141e3565b604082019050919050565b6000602082019050818103600083015261426e81614232565b9050919050565b600060608201905061428a60008301866133b5565b6142976020830185612f6c565b6142a46040830184612f6c565b949350505050565b7f4f776e61626c653a2063616c6c6572206973206e6f7420746865206f776e6572600082015250565b60006142e260208361368f565b91506142ed826142ac565b602082019050919050565b60006020820190508181036000830152614311816142d5565b905091905056fea26469706673582212208c4af423a17519401b90bbb940002f80ccf375e7f661d306d0b67cb501999eac64736f6c634300080d0033",
  "immutableReferences": {
    "405": [
      {
        "length": 32,
        "start": 4067
      },
      {
        "length": 32,
        "start": 4505
      },
      {
        "length": 32,
        "start": 9676
      }
    ]
  },
  "source": "// SPDX-License-Identifier: MIT\r\npragma solidity ^0.8.2;\r\nimport \"./Projects.sol\";\r\nimport \"../node_modules/@openzeppelin/contracts/access/Ownable.sol\";\r\n\r\n// each user has an array of his mints, and every new mint you check how much time left and how many he spent from his calculated amount\r\ncontract TokenDistribution is Projects, Ownable {\r\n\r\n    struct payTokens {\r\n        address recipient;\r\n        uint amount;\r\n    }\r\n\r\n    constructor(address _tokenAddress) Projects(_tokenAddress) {} \r\n\r\n    function sum(payTokens[] memory _tokens) internal pure returns(uint _sum) {\r\n\t\tfor (uint i = 0; i < _tokens.length; i++)\r\n\t\t\t_sum += _tokens[i].amount;\r\n\t}\r\n\r\n    function getDistributionBalanceOf(\r\n        address usr, \r\n        string calldata projectName\r\n    ) public view ProjectExist(projectName) returns (uint) {\r\n        // calculate the proportion of tokens you have\r\n        uint projectIDX = NameToID[projectName];\r\n        require(block.timestamp > publicProjects[projectIDX].lastDistributionTime, \"not distribution time\");\r\n        uint lastDistributionTime = publicProjects[projectIDX].lastDistributionTime;\r\n\r\n        uint tokens = publicProjects[projectIDX].TokensSpent[usr][lastDistributionTime];\r\n        return tokens;\r\n    }\r\n\r\n    function distribute(\r\n        payTokens[] memory recipients, \r\n        string calldata projectName\r\n    ) external onlyOwner ProjectExist(projectName) {\r\n        uint projectIDX = NameToID[projectName];\r\n        uint tokensSpent = sum(recipients);\r\n\r\n        require(tokensSpent <= getDistributionBalanceOf(msg.sender, projectName), \"Unsufficent amount of tokens\");\r\n        \r\n        uint lastDistributionTime = publicProjects[projectIDX].lastDistributionTime;\r\n\r\n        for (uint i=0; i<recipients.length; i++) {\r\n            publicProjects[projectIDX].pendingTokens[recipients[i].recipient] += recipients[i].amount;\r\n        }\r\n        publicProjects[projectIDX].TokensSpent[msg.sender][lastDistributionTime] += tokensSpent;\r\n    }\r\n\r\n    function startDistribution(\r\n        string calldata projectName\r\n    ) external ProjectExist(projectName) {\r\n        uint projectIDX = NameToID[projectName];\r\n        require(block.timestamp > publicProjects[projectIDX].lastDistributionTime + TimeLockInterval, \"not distribution time\");\r\n\r\n        publicProjects[projectIDX].lastDistributionTime = block.timestamp;\r\n    }\r\n\r\n    function claimPendingTokens(\r\n        string calldata projectName\r\n    ) external {\r\n        uint projectIDX = NameToID[projectName];\r\n        token.mint(msg.sender, projectIDX, publicProjects[projectIDX].pendingTokens[msg.sender]);\r\n        publicProjects[projectIDX].pendingTokens[msg.sender] = 0;\r\n    }\r\n\r\n}\r\n",
  "sourcePath": "c:\\Users\\User\\Desktop\\\\davidson\\project\\DavidsonProject\\Smart Contract\\contracts\\TokenDistribution.sol",
  "compiler": {
    "name": "solc",
    "version": "0.8.13+commit.abaa5c0e.Emscripten.clang"
  },
  "schemaVersion": "3.4.7",
  "updatedAt": "2024-03-05T21:41:31.218Z",
  "networkType": "ethereum",
  "devdoc": {
    "kind": "dev",
    "methods": {
      "owner()": {
        "details": "Returns the address of the current owner."
      },
      "renounceOwnership()": {
        "details": "Leaves the contract without owner. It will not be possible to call `onlyOwner` functions. Can only be called by the current owner. NOTE: Renouncing ownership will leave the contract without an owner, thereby disabling any functionality that is only available to the owner."
      },
      "transferOwnership(address)": {
        "details": "Transfers ownership of the contract to a new account (`newOwner`). Can only be called by the current owner."
      }
    },
    "version": 1
  },
  "userdoc": {
    "kind": "user",
    "methods": {},
    "version": 1
  }
}