{
  "_format": "hh-sol-artifact-1",
  "contractName": "ChangesLibrary",
  "sourceName": "contracts/Changes.sol",
  "abi": [
    {
      "inputs": [],
      "name": "headChangeProposals",
      "outputs": [
        {
          "internalType": "string",
          "name": "",
          "type": "string"
        }
      ],
      "stateMutability": "view",
      "type": "function"
    },
    {
      "inputs": [],
      "name": "headChanges",
      "outputs": [
        {
          "internalType": "string",
          "name": "",
          "type": "string"
        }
      ],
      "stateMutability": "view",
      "type": "function"
    }
  ],
  "bytecode": "0x611d4e610053600b82828239805160001a607314610046577f4e487b7100000000000000000000000000000000000000000000000000000000600052600060045260246000fd5b30600052607381538281f3fe730000000000000000000000000000000000000000301460806040526004361061009d5760003560e01c806395f4120c1161007057806395f4120c14610142578063b2d4cf7814610172578063c8d84335146101a2578063ddaee8df146101cb578063e1cec2c4146101f45761009d565b806313680a39146100a2578063681ef9ce146100cb57806381659a90146100fb5780639251afee14610124575b600080fd5b8180156100ae57600080fd5b506100c960048036038101906100c4919061132f565b610212565b005b6100e560048036038101906100e091906113eb565b6105d1565b6040516100f2919061148c565b60405180910390f35b81801561010757600080fd5b50610122600480360381019061011d919061132f565b610622565b005b61012c61076c565b6040516101399190611526565b60405180910390f35b61015c60048036038101906101579190611580565b6107a5565b60405161016991906116cc565b60405180910390f35b61018c60048036038101906101879190611580565b610a58565b6040516101999190611707565b60405180910390f35b8180156101ae57600080fd5b506101c960048036038101906101c4919061132f565b610c40565b005b8180156101d757600080fd5b506101f260048036038101906101ed919061132f565b610ee9565b005b6101fc611166565b6040516102099190611526565b60405180910390f35b60006040518060400160405280600781526020017f4368616e6765730000000000000000000000000000000000000000000000000081525090505b8160405160200161025e919061175e565b604051602081830303815290604052805190602001208360000182604051610286919061175e565b90815260200160405180910390206001016040516020016102a7919061186d565b60405160208183030381529060405280519060200120146103755782600001816040516102d4919061175e565b908152602001604051809103902060010180546102f0906117a4565b80601f016020809104026020016040519081016040528092919081815260200182805461031c906117a4565b80156103695780601f1061033e57610100808354040283529160200191610369565b820191906000526020600020905b81548152906001019060200180831161034c57829003601f168201915b5050505050905061024d565b6040518060400160405280600781526020017f4368616e676573000000000000000000000000000000000000000000000000008152506040516020016103bb919061175e565b6040516020818303038152906040528051906020012083600001836040516103e3919061175e565b9081526020016040518091039020600101604051602001610404919061186d565b6040516020818303038152906040528051906020012014610477578260000182604051610431919061175e565b90815260200160405180910390206001018360000182604051610454919061175e565b908152602001604051809103902060010190816104719190611a46565b506104de565b6040518060400160405280600781526020017f4368616e6765730000000000000000000000000000000000000000000000000081525083600001826040516104bf919061175e565b908152602001604051809103902060010190816104dc9190611b2e565b505b826000016040518060400160405280600f81526020017f4368616e676550726f706f73616c730000000000000000000000000000000000815250604051610525919061175e565b90815260200160405180910390206001018360000183604051610548919061175e565b908152602001604051809103902060010190816105659190611a46565b5081836000016040518060400160405280600f81526020017f4368616e676550726f706f73616c7300000000000000000000000000000000008152506040516105ae919061175e565b908152602001604051809103902060010190816105cb9190611b2e565b50505050565b60008360000183836040516105e7929190611c25565b908152602001604051809103902060000160009054906101000a900473ffffffffffffffffffffffffffffffffffffffff1690509392505050565b60405180604001604052803373ffffffffffffffffffffffffffffffffffffffff1681526020016040518060400160405280600781526020017f4368616e676573000000000000000000000000000000000000000000000000008152508152508260000182604051610694919061175e565b908152602001604051809103902060008201518160000160006101000a81548173ffffffffffffffffffffffffffffffffffffffff021916908373ffffffffffffffffffffffffffffffffffffffff16021790555060208201518160010190816106fe9190611b2e565b5090505080826000016040518060400160405280600781526020017f4368616e6765730000000000000000000000000000000000000000000000000081525060405161074a919061175e565b908152602001604051809103902060010190816107679190611b2e565b505050565b6040518060400160405280600f81526020017f4368616e676550726f706f73616c73000000000000000000000000000000000081525081565b606060006107b38484610a58565b905060008167ffffffffffffffff8111156107d1576107d0611204565b5b60405190808252806020026020018201604052801561080457816020015b60608152602001906001900390816107ef5790505b50905060008461086b57856000016040518060400160405280600f81526020017f4368616e676550726f706f73616c730000000000000000000000000000000000815250604051610855919061175e565b90815260200160405180910390206001016108c4565b856000016040518060400160405280600781526020017f4368616e676573000000000000000000000000000000000000000000000000008152506040516108b2919061175e565b90815260200160405180910390206001015b80546108cf906117a4565b80601f01602080910402602001604051908101604052809291908181526020018280546108fb906117a4565b80156109485780601f1061091d57610100808354040283529160200191610948565b820191906000526020600020905b81548152906001019060200180831161092b57829003601f168201915b5050505050905060005b83811015610a4b5781836001838761096a9190611c6d565b6109749190611c6d565b8151811061098557610984611ca1565b5b602002602001018190525086600001826040516109a2919061175e565b908152602001604051809103902060010180546109be906117a4565b80601f01602080910402602001604051908101604052809291908181526020018280546109ea906117a4565b8015610a375780601f10610a0c57610100808354040283529160200191610a37565b820191906000526020600020905b815481529060010190602001808311610a1a57829003601f168201915b505050505091508080600101915050610952565b5081935050505092915050565b60008060009050600083610aa1576040518060400160405280600f81526020017f4368616e676550726f706f73616c730000000000000000000000000000000000815250610ad8565b6040518060400160405280600781526020017f4368616e676573000000000000000000000000000000000000000000000000008152505b90505b600073ffffffffffffffffffffffffffffffffffffffff16856000018660000183604051610b09919061175e565b9081526020016040518091039020600101604051610b27919061186d565b908152602001604051809103902060000160009054906101000a900473ffffffffffffffffffffffffffffffffffffffff1673ffffffffffffffffffffffffffffffffffffffff1614610c35578180610b7f90611cd0565b9250508460000181604051610b94919061175e565b90815260200160405180910390206001018054610bb0906117a4565b80601f0160208091040260200160405190810160405280929190818152602001828054610bdc906117a4565b8015610c295780601f10610bfe57610100808354040283529160200191610c29565b820191906000526020600020905b815481529060010190602001808311610c0c57829003601f168201915b50505050509050610adb565b819250505092915050565b60006040518060400160405280600f81526020017f4368616e676550726f706f73616c73000000000000000000000000000000000081525090505b81604051602001610c8c919061175e565b604051602081830303815290604052805190602001208360000182604051610cb4919061175e565b9081526020016040518091039020600101604051602001610cd5919061186d565b6040516020818303038152906040528051906020012014610da3578260000181604051610d02919061175e565b90815260200160405180910390206001018054610d1e906117a4565b80601f0160208091040260200160405190810160405280929190818152602001828054610d4a906117a4565b8015610d975780601f10610d6c57610100808354040283529160200191610d97565b820191906000526020600020905b815481529060010190602001808311610d7a57829003601f168201915b50505050509050610c7b565b8260000182604051610db5919061175e565b90815260200160405180910390206001018360000182604051610dd8919061175e565b90815260200160405180910390206001019081610df59190611a46565b50826000016040518060400160405280600781526020017f4368616e67657300000000000000000000000000000000000000000000000000815250604051610e3d919061175e565b90815260200160405180910390206001018360000183604051610e60919061175e565b90815260200160405180910390206001019081610e7d9190611a46565b5081836000016040518060400160405280600781526020017f4368616e67657300000000000000000000000000000000000000000000000000815250604051610ec6919061175e565b90815260200160405180910390206001019081610ee39190611b2e565b50505050565b60405180604001604052803373ffffffffffffffffffffffffffffffffffffffff168152602001836000016040518060400160405280600f81526020017f4368616e676550726f706f73616c730000000000000000000000000000000000815250604051610f57919061175e565b90815260200160405180910390206001018054610f73906117a4565b80601f0160208091040260200160405190810160405280929190818152602001828054610f9f906117a4565b8015610fec5780601f10610fc157610100808354040283529160200191610fec565b820191906000526020600020905b815481529060010190602001808311610fcf57829003601f168201915b50505050508152508260000182604051611006919061175e565b908152602001604051809103902060008201518160000160006101000a81548173ffffffffffffffffffffffffffffffffffffffff021916908373ffffffffffffffffffffffffffffffffffffffff16021790555060208201518160010190816110709190611b2e565b50905050816000016040518060400160405280600f81526020017f4368616e676550726f706f73616c7300000000000000000000000000000000008152506040516110bb919061175e565b908152602001604051809103902060010182600001826040516110de919061175e565b908152602001604051809103902060010190816110fb9190611a46565b5080826000016040518060400160405280600f81526020017f4368616e676550726f706f73616c730000000000000000000000000000000000815250604051611144919061175e565b908152602001604051809103902060010190816111619190611b2e565b505050565b6040518060400160405280600781526020017f4368616e6765730000000000000000000000000000000000000000000000000081525081565b6000604051905090565b600080fd5b600080fd5b6000819050919050565b6111c6816111b3565b81146111d157600080fd5b50565b6000813590506111e3816111bd565b92915050565b600080fd5b600080fd5b6000601f19601f8301169050919050565b7f4e487b7100000000000000000000000000000000000000000000000000000000600052604160045260246000fd5b61123c826111f3565b810181811067ffffffffffffffff8211171561125b5761125a611204565b5b80604052505050565b600061126e61119f565b905061127a8282611233565b919050565b600067ffffffffffffffff82111561129a57611299611204565b5b6112a3826111f3565b9050602081019050919050565b82818337600083830152505050565b60006112d26112cd8461127f565b611264565b9050828152602081018484840111156112ee576112ed6111ee565b5b6112f98482856112b0565b509392505050565b600082601f830112611316576113156111e9565b5b81356113268482602086016112bf565b91505092915050565b60008060408385031215611346576113456111a9565b5b6000611354858286016111d4565b925050602083013567ffffffffffffffff811115611375576113746111ae565b5b61138185828601611301565b9150509250929050565b600080fd5b600080fd5b60008083601f8401126113ab576113aa6111e9565b5b8235905067ffffffffffffffff8111156113c8576113c761138b565b5b6020830191508360018202830111156113e4576113e3611390565b5b9250929050565b600080600060408486031215611404576114036111a9565b5b6000611412868287016111d4565b935050602084013567ffffffffffffffff811115611433576114326111ae565b5b61143f86828701611395565b92509250509250925092565b600073ffffffffffffffffffffffffffffffffffffffff82169050919050565b60006114768261144b565b9050919050565b6114868161146b565b82525050565b60006020820190506114a1600083018461147d565b92915050565b600081519050919050565b600082825260208201905092915050565b60005b838110156114e15780820151818401526020810190506114c6565b60008484015250505050565b60006114f8826114a7565b61150281856114b2565b93506115128185602086016114c3565b61151b816111f3565b840191505092915050565b6000602082019050818103600083015261154081846114ed565b905092915050565b60008115159050919050565b61155d81611548565b811461156857600080fd5b50565b60008135905061157a81611554565b92915050565b60008060408385031215611597576115966111a9565b5b60006115a5858286016111d4565b92505060206115b68582860161156b565b9150509250929050565b600081519050919050565b600082825260208201905092915050565b6000819050602082019050919050565b600082825260208201905092915050565b6000611608826114a7565b61161281856115ec565b93506116228185602086016114c3565b61162b816111f3565b840191505092915050565b600061164283836115fd565b905092915050565b6000602082019050919050565b6000611662826115c0565b61166c81856115cb565b93508360208202850161167e856115dc565b8060005b858110156116ba578484038952815161169b8582611636565b94506116a68361164a565b925060208a01995050600181019050611682565b50829750879550505050505092915050565b600060208201905081810360008301526116e68184611657565b905092915050565b6000819050919050565b611701816116ee565b82525050565b600060208201905061171c60008301846116f8565b92915050565b600081905092915050565b6000611738826114a7565b6117428185611722565b93506117528185602086016114c3565b80840191505092915050565b600061176a828461172d565b915081905092915050565b7f4e487b7100000000000000000000000000000000000000000000000000000000600052602260045260246000fd5b600060028204905060018216806117bc57607f821691505b6020821081036117cf576117ce611775565b5b50919050565b60008190508160005260206000209050919050565b600081546117f7816117a4565b6118018186611722565b9450600182166000811461181c576001811461183157611864565b60ff1983168652811515820286019350611864565b61183a856117d5565b60005b8381101561185c5781548189015260018201915060208101905061183d565b838801955050505b50505092915050565b600061187982846117ea565b915081905092915050565b600081549050611893816117a4565b9050919050565b60008190508160005260206000209050919050565b60006020601f8301049050919050565b600082821b905092915050565b6000600883026118fc7fffffffffffffffffffffffffffffffffffffffffffffffffffffffffffffffff826118bf565b61190686836118bf565b95508019841693508086168417925050509392505050565b6000819050919050565b600061194361193e611939846116ee565b61191e565b6116ee565b9050919050565b6000819050919050565b61195d83611928565b6119716119698261194a565b8484546118cc565b825550505050565b600090565b611986611979565b611991818484611954565b505050565b5b818110156119b5576119aa60008261197e565b600181019050611997565b5050565b601f8211156119fa576119cb816117d5565b6119d4846118af565b810160208510156119e3578190505b6119f76119ef856118af565b830182611996565b50505b505050565b600082821c905092915050565b6000611a1d600019846008026119ff565b1980831691505092915050565b6000611a368383611a0c565b9150826002028217905092915050565b818103611a54575050611b2c565b611a5d82611884565b67ffffffffffffffff811115611a7657611a75611204565b5b611a8082546117a4565b611a8b8282856119b9565b6000601f831160018114611aba5760008415611aa8578287015490505b611ab28582611a2a565b865550611b25565b601f198416611ac88761189a565b9650611ad3866117d5565b60005b82811015611afb57848901548255600182019150600185019450602081019050611ad6565b86831015611b185784890154611b14601f891682611a0c565b8355505b6001600288020188555050505b5050505050505b565b611b37826114a7565b67ffffffffffffffff811115611b5057611b4f611204565b5b611b5a82546117a4565b611b658282856119b9565b600060209050601f831160018114611b985760008415611b86578287015190505b611b908582611a2a565b865550611bf8565b601f198416611ba6866117d5565b60005b82811015611bce57848901518255600182019150602085019450602081019050611ba9565b86831015611beb5784890151611be7601f891682611a0c565b8355505b6001600288020188555050505b505050505050565b6000611c0c8385611722565b9350611c198385846112b0565b82840190509392505050565b6000611c32828486611c00565b91508190509392505050565b7f4e487b7100000000000000000000000000000000000000000000000000000000600052601160045260246000fd5b6000611c78826116ee565b9150611c83836116ee565b9250828203905081811115611c9b57611c9a611c3e565b5b92915050565b7f4e487b7100000000000000000000000000000000000000000000000000000000600052603260045260246000fd5b6000611cdb826116ee565b91507fffffffffffffffffffffffffffffffffffffffffffffffffffffffffffffffff8203611d0d57611d0c611c3e565b5b60018201905091905056fea2646970667358221220cb6b2440b1233c4c045cef0a866d3e081d3c275367bc508424d1f2d00098d50164736f6c63430008180033",
  "linkReferences": {},
  "deployedLinkReferences": {}
}