{
  "_format": "hh-sol-artifact-1",
  "contractName": "TokenDistribution",
  "sourceName": "contracts/TokenDistribution.sol",
  "abi": [
    {
      "inputs": [
        {
          "internalType": "address",
          "name": "_tokenAddress",
          "type": "address"
        }
      ],
      "stateMutability": "nonpayable",
      "type": "constructor"
    },
    {
      "anonymous": false,
      "inputs": [
        {
          "indexed": false,
          "internalType": "string",
          "name": "message",
          "type": "string"
        },
        {
          "indexed": false,
          "internalType": "string",
          "name": "projectName",
          "type": "string"
        },
        {
          "indexed": false,
          "internalType": "string",
          "name": "changeCID",
          "type": "string"
        }
      ],
      "name": "NewChangeIsMadeToProject",
      "type": "event"
    },
    {
      "anonymous": false,
      "inputs": [
        {
          "indexed": false,
          "internalType": "string",
          "name": "message",
          "type": "string"
        },
        {
          "indexed": false,
          "internalType": "string",
          "name": "Name",
          "type": "string"
        },
        {
          "indexed": false,
          "internalType": "string",
          "name": "CID",
          "type": "string"
        },
        {
          "indexed": false,
          "internalType": "uint256",
          "name": "indexValue",
          "type": "uint256"
        }
      ],
      "name": "NewChangeProposalCreated",
      "type": "event"
    },
    {
      "anonymous": false,
      "inputs": [
        {
          "indexed": false,
          "internalType": "string",
          "name": "message",
          "type": "string"
        },
        {
          "indexed": false,
          "internalType": "string",
          "name": "name",
          "type": "string"
        },
        {
          "indexed": false,
          "internalType": "uint256",
          "name": "value",
          "type": "uint256"
        }
      ],
      "name": "NewProjectCreated",
      "type": "event"
    },
    {
      "anonymous": false,
      "inputs": [
        {
          "indexed": false,
          "internalType": "string",
          "name": "message",
          "type": "string"
        },
        {
          "indexed": false,
          "internalType": "string",
          "name": "projectName",
          "type": "string"
        },
        {
          "indexed": false,
          "internalType": "string",
          "name": "changeProposalCID",
          "type": "string"
        },
        {
          "indexed": false,
          "internalType": "address",
          "name": "voter",
          "type": "address"
        }
      ],
      "name": "NewVoteForChangeProposal",
      "type": "event"
    },
    {
      "anonymous": false,
      "inputs": [
        {
          "indexed": false,
          "internalType": "string",
          "name": "message",
          "type": "string"
        },
        {
          "indexed": false,
          "internalType": "string",
          "name": "changeCID",
          "type": "string"
        },
        {
          "indexed": false,
          "internalType": "string",
          "name": "ProjectName",
          "type": "string"
        }
      ],
      "name": "ProjectWentBack",
      "type": "event"
    },
    {
      "anonymous": false,
      "inputs": [
        {
          "indexed": false,
          "internalType": "string",
          "name": "message",
          "type": "string"
        },
        {
          "indexed": false,
          "internalType": "uint256",
          "name": "lastDistributionTime",
          "type": "uint256"
        }
      ],
      "name": "TokensDisributed",
      "type": "event"
    },
    {
      "inputs": [],
      "name": "ClaimingInterval",
      "outputs": [
        {
          "internalType": "uint256",
          "name": "",
          "type": "uint256"
        }
      ],
      "stateMutability": "view",
      "type": "function"
    },
    {
      "inputs": [
        {
          "internalType": "string",
          "name": "",
          "type": "string"
        }
      ],
      "name": "NameToID",
      "outputs": [
        {
          "internalType": "uint256",
          "name": "",
          "type": "uint256"
        }
      ],
      "stateMutability": "view",
      "type": "function"
    },
    {
      "inputs": [],
      "name": "TimeLockInterval",
      "outputs": [
        {
          "internalType": "uint256",
          "name": "",
          "type": "uint256"
        }
      ],
      "stateMutability": "view",
      "type": "function"
    },
    {
      "inputs": [
        {
          "internalType": "string",
          "name": "changeProposalCID",
          "type": "string"
        },
        {
          "internalType": "string",
          "name": "projectName",
          "type": "string"
        }
      ],
      "name": "acceptChangeProposal",
      "outputs": [],
      "stateMutability": "nonpayable",
      "type": "function"
    },
    {
      "inputs": [
        {
          "internalType": "string",
          "name": "changeCID",
          "type": "string"
        },
        {
          "internalType": "string",
          "name": "projectName",
          "type": "string"
        }
      ],
      "name": "acceptRemoval",
      "outputs": [],
      "stateMutability": "nonpayable",
      "type": "function"
    },
    {
      "inputs": [
        {
          "internalType": "string",
          "name": "projectName",
          "type": "string"
        }
      ],
      "name": "claimPendingTokens",
      "outputs": [],
      "stateMutability": "nonpayable",
      "type": "function"
    },
    {
      "inputs": [
        {
          "internalType": "string",
          "name": "changeCID",
          "type": "string"
        },
        {
          "internalType": "string",
          "name": "projectName",
          "type": "string"
        }
      ],
      "name": "createProject",
      "outputs": [],
      "stateMutability": "nonpayable",
      "type": "function"
    },
    {
      "inputs": [
        {
          "internalType": "address[]",
          "name": "recipients",
          "type": "address[]"
        },
        {
          "internalType": "uint256[]",
          "name": "amounts",
          "type": "uint256[]"
        },
        {
          "internalType": "string",
          "name": "projectName",
          "type": "string"
        }
      ],
      "name": "distribute",
      "outputs": [],
      "stateMutability": "nonpayable",
      "type": "function"
    },
    {
      "inputs": [
        {
          "internalType": "address",
          "name": "UserAddress",
          "type": "address"
        },
        {
          "internalType": "string",
          "name": "projectName",
          "type": "string"
        }
      ],
      "name": "getBalance",
      "outputs": [
        {
          "internalType": "uint256",
          "name": "",
          "type": "uint256"
        }
      ],
      "stateMutability": "view",
      "type": "function"
    },
    {
      "inputs": [
        {
          "internalType": "string",
          "name": "projectName",
          "type": "string"
        },
        {
          "internalType": "string",
          "name": "changeCID",
          "type": "string"
        }
      ],
      "name": "getChangeMaker",
      "outputs": [
        {
          "internalType": "address",
          "name": "",
          "type": "address"
        }
      ],
      "stateMutability": "view",
      "type": "function"
    },
    {
      "inputs": [
        {
          "internalType": "string",
          "name": "changeCID",
          "type": "string"
        },
        {
          "internalType": "bool",
          "name": "isChange",
          "type": "bool"
        },
        {
          "internalType": "string",
          "name": "projectName",
          "type": "string"
        }
      ],
      "name": "getChangeVotes",
      "outputs": [
        {
          "internalType": "uint256",
          "name": "",
          "type": "uint256"
        }
      ],
      "stateMutability": "view",
      "type": "function"
    },
    {
      "inputs": [
        {
          "internalType": "string",
          "name": "projectName",
          "type": "string"
        },
        {
          "internalType": "bool",
          "name": "changesOrChangeProposals",
          "type": "bool"
        }
      ],
      "name": "getChangesOrProposals",
      "outputs": [
        {
          "internalType": "string[]",
          "name": "",
          "type": "string[]"
        }
      ],
      "stateMutability": "view",
      "type": "function"
    },
    {
      "inputs": [
        {
          "internalType": "address",
          "name": "usr",
          "type": "address"
        },
        {
          "internalType": "string",
          "name": "projectName",
          "type": "string"
        }
      ],
      "name": "getDistributionBalanceOf",
      "outputs": [
        {
          "internalType": "uint256",
          "name": "",
          "type": "uint256"
        }
      ],
      "stateMutability": "view",
      "type": "function"
    },
    {
      "inputs": [
        {
          "internalType": "string",
          "name": "projectName",
          "type": "string"
        }
      ],
      "name": "getLastDistriubtionTime",
      "outputs": [
        {
          "internalType": "uint256",
          "name": "",
          "type": "uint256"
        }
      ],
      "stateMutability": "view",
      "type": "function"
    },
    {
      "inputs": [],
      "name": "getLastProjects",
      "outputs": [
        {
          "internalType": "string[]",
          "name": "",
          "type": "string[]"
        }
      ],
      "stateMutability": "view",
      "type": "function"
    },
    {
      "inputs": [
        {
          "internalType": "string",
          "name": "projectName",
          "type": "string"
        }
      ],
      "name": "getParticipants",
      "outputs": [
        {
          "internalType": "address[]",
          "name": "",
          "type": "address[]"
        }
      ],
      "stateMutability": "view",
      "type": "function"
    },
    {
      "inputs": [
        {
          "internalType": "address",
          "name": "usr",
          "type": "address"
        },
        {
          "internalType": "string",
          "name": "projectName",
          "type": "string"
        }
      ],
      "name": "getPendingTokens",
      "outputs": [
        {
          "internalType": "uint256",
          "name": "",
          "type": "uint256"
        }
      ],
      "stateMutability": "view",
      "type": "function"
    },
    {
      "inputs": [
        {
          "internalType": "string",
          "name": "projectName",
          "type": "string"
        }
      ],
      "name": "getTotalTokens",
      "outputs": [
        {
          "internalType": "uint256",
          "name": "",
          "type": "uint256"
        }
      ],
      "stateMutability": "view",
      "type": "function"
    },
    {
      "inputs": [
        {
          "internalType": "address",
          "name": "addr",
          "type": "address"
        },
        {
          "internalType": "string",
          "name": "changeProposalCID",
          "type": "string"
        },
        {
          "internalType": "bool",
          "name": "isChange",
          "type": "bool"
        },
        {
          "internalType": "string",
          "name": "projectName",
          "type": "string"
        }
      ],
      "name": "isVoted",
      "outputs": [
        {
          "internalType": "bool",
          "name": "",
          "type": "bool"
        }
      ],
      "stateMutability": "view",
      "type": "function"
    },
    {
      "inputs": [
        {
          "internalType": "string",
          "name": "changeCID",
          "type": "string"
        },
        {
          "internalType": "bool",
          "name": "isChange",
          "type": "bool"
        },
        {
          "internalType": "string",
          "name": "projectName",
          "type": "string"
        }
      ],
      "name": "removeVote",
      "outputs": [],
      "stateMutability": "nonpayable",
      "type": "function"
    },
    {
      "inputs": [
        {
          "internalType": "string",
          "name": "projectName",
          "type": "string"
        }
      ],
      "name": "startDistribution",
      "outputs": [],
      "stateMutability": "nonpayable",
      "type": "function"
    },
    {
      "inputs": [],
      "name": "token",
      "outputs": [
        {
          "internalType": "contract ProjectsToken",
          "name": "",
          "type": "address"
        }
      ],
      "stateMutability": "view",
      "type": "function"
    },
    {
      "inputs": [
        {
          "internalType": "string",
          "name": "changeCID",
          "type": "string"
        },
        {
          "internalType": "string",
          "name": "projectName",
          "type": "string"
        }
      ],
      "name": "uploadChangeProposal",
      "outputs": [],
      "stateMutability": "nonpayable",
      "type": "function"
    },
    {
      "inputs": [
        {
          "internalType": "string",
          "name": "changeProposalCID",
          "type": "string"
        },
        {
          "internalType": "bool",
          "name": "isChange",
          "type": "bool"
        },
        {
          "internalType": "string",
          "name": "projectName",
          "type": "string"
        }
      ],
      "name": "voteForChangeProposal",
      "outputs": [],
      "stateMutability": "nonpayable",
      "type": "function"
    }
  ],
  "bytecode": "0x60806040523480156200001157600080fd5b50604051620060ad380380620060ad8339818101604052810190620000379190620000eb565b8080600260006101000a81548173ffffffffffffffffffffffffffffffffffffffff021916908373ffffffffffffffffffffffffffffffffffffffff16021790555050506200011d565b600080fd5b600073ffffffffffffffffffffffffffffffffffffffff82169050919050565b6000620000b38262000086565b9050919050565b620000c581620000a6565b8114620000d157600080fd5b50565b600081519050620000e581620000ba565b92915050565b60006020828403121562000104576200010362000081565b5b60006200011484828501620000d4565b91505092915050565b615f80806200012d6000396000f3fe608060405234801561001057600080fd5b50600436106101585760003560e01c80637e90def7116100c3578063a90d00cd1161007c578063a90d00cd14610423578063eb8892fc14610453578063ebe1c3081461046f578063ed0c2d901461048b578063f396530f146104a7578063fc0c546a146104c357610158565b80637e90def71461033d5780637ec156741461036d57806382f24882146103895780639f6806ec146103b9578063a54d804d146103d5578063a8363610146103f357610158565b80634a513875116101155780634a5138751461026957806351e684ba1461028557806354696993146102a35780636ad40d79146102d35780636bd06204146103035780637a5945da1461031f57610158565b80631d7147d81461015d5780631dd7cecf1461018d57806333846eba146101bd57806347d8899a146101ed57806349b7b6401461021d57806349bdbe6f1461024d575b600080fd5b61017760048036038101906101729190614189565b6104e1565b604051610184919061433b565b60405180910390f35b6101a760048036038101906101a291906143bb565b6106fa565b6040516101b49190614434565b60405180910390f35b6101d760048036038101906101d2919061457f565b610906565b6040516101e49190614434565b60405180910390f35b610207600480360381019061020291906145c8565b610934565b6040516102149190614434565b60405180910390f35b610237600480360381019061023291906143bb565b610acd565b6040516102449190614434565b60405180910390f35b61026760048036038101906102629190614615565b610ea0565b005b610283600480360381019061027e9190614691565b611176565b005b61028d6115a5565b60405161029a9190614434565b60405180910390f35b6102bd60048036038101906102b891906143bb565b6115aa565b6040516102ca9190614434565b60405180910390f35b6102ed60048036038101906102e89190614712565b611784565b6040516102fa9190614434565b60405180910390f35b61031d600480360381019061031891906147a7565b611b64565b005b610327611d3b565b6040516103349190614434565b60405180910390f35b610357600480360381019061035291906145c8565b611d40565b60405161036491906148dd565b60405180910390f35b610387600480360381019061038291906145c8565b611ee0565b005b6103a3600480360381019061039e91906148ff565b612122565b6040516103b091906149b5565b60405180910390f35b6103d360048036038101906103ce9190614b82565b6123cc565b005b6103dd612874565b6040516103ea919061433b565b60405180910390f35b61040d600480360381019061040891906145c8565b6129bf565b60405161041a9190614434565b60405180910390f35b61043d60048036038101906104389190614691565b612bc9565b60405161044a9190614c3d565b60405180910390f35b61046d60048036038101906104689190614c58565b612de0565b005b61048960048036038101906104849190614ce8565b613366565b005b6104a560048036038101906104a09190614691565b613713565b005b6104c160048036038101906104bc91906145c8565b613b57565b005b6104cb613e8b565b6040516104d89190614dd7565b60405180910390f35b606083838080601f016020809104026020016040519081016040528093929190818152602001838380828437600081840152601f19601f82011690508083019250505050505050600080826040516105399190614e2e565b9081526020016040518091039020549050600260009054906101000a900473ffffffffffffffffffffffffffffffffffffffff1673ffffffffffffffffffffffffffffffffffffffff16634f558e79826040518263ffffffff1660e01b81526004016105a59190614434565b602060405180830381865afa1580156105c2573d6000803e3d6000fd5b505050506040513d601f19601f820116820180604052508101906105e69190614e5a565b610625576040517f08c379a000000000000000000000000000000000000000000000000000000000815260040161061c90614ee4565b60405180910390fd5b6000808787604051610638929190614f29565b90815260200160405180910390205490506001818154811061065d5761065c614f42565b5b906000526020600020906007020160010173__$84bc5d0beeac25824f69ec813121d96f14$__6395f4120c9091876040518363ffffffff1660e01b81526004016106a8929190614f87565b600060405180830381865af41580156106c5573d6000803e3d6000fd5b505050506040513d6000823e3d601f19601f820116820180604052508101906106ee9190615101565b93505050509392505050565b600082828080601f016020809104026020016040519081016040528093929190818152602001838380828437600081840152601f19601f82011690508083019250505050505050600080826040516107529190614e2e565b9081526020016040518091039020549050600260009054906101000a900473ffffffffffffffffffffffffffffffffffffffff1673ffffffffffffffffffffffffffffffffffffffff16634f558e79826040518263ffffffff1660e01b81526004016107be9190614434565b602060405180830381865afa1580156107db573d6000803e3d6000fd5b505050506040513d601f19601f820116820180604052508101906107ff9190614e5a565b61083e576040517f08c379a000000000000000000000000000000000000000000000000000000000815260040161083590614ee4565b60405180910390fd5b600260009054906101000a900473ffffffffffffffffffffffffffffffffffffffff1673ffffffffffffffffffffffffffffffffffffffff1662fdd58e876000888860405161088e929190614f29565b9081526020016040518091039020546040518363ffffffff1660e01b81526004016108ba92919061514a565b602060405180830381865afa1580156108d7573d6000803e3d6000fd5b505050506040513d601f19601f820116820180604052508101906108fb9190615188565b925050509392505050565b6000818051602081018201805184825260208301602085012081835280955050505050506000915090505481565b600082828080601f016020809104026020016040519081016040528093929190818152602001838380828437600081840152601f19601f820116905080830192505050505050506000808260405161098c9190614e2e565b9081526020016040518091039020549050600260009054906101000a900473ffffffffffffffffffffffffffffffffffffffff1673ffffffffffffffffffffffffffffffffffffffff16634f558e79826040518263ffffffff1660e01b81526004016109f89190614434565b602060405180830381865afa158015610a15573d6000803e3d6000fd5b505050506040513d601f19601f82011682018060405250810190610a399190614e5a565b610a78576040517f08c379a0000000000000000000000000000000000000000000000000000000008152600401610a6f90614ee4565b60405180910390fd5b6000808686604051610a8b929190614f29565b908152602001604051809103902054905060018181548110610ab057610aaf614f42565b5b906000526020600020906007020160020154935050505092915050565b600082828080601f016020809104026020016040519081016040528093929190818152602001838380828437600081840152601f19601f8201169050808301925050505050505060008082604051610b259190614e2e565b9081526020016040518091039020549050600260009054906101000a900473ffffffffffffffffffffffffffffffffffffffff1673ffffffffffffffffffffffffffffffffffffffff16634f558e79826040518263ffffffff1660e01b8152600401610b919190614434565b602060405180830381865afa158015610bae573d6000803e3d6000fd5b505050506040513d601f19601f82011682018060405250810190610bd29190614e5a565b610c11576040517f08c379a0000000000000000000000000000000000000000000000000000000008152600401610c0890614ee4565b60405180910390fd5b6000808686604051610c24929190614f29565b9081526020016040518091039020549050600060018281548110610c4b57610c4a614f42565b5b90600052602060002090600702016002015490506000600260009054906101000a900473ffffffffffffffffffffffffffffffffffffffff1673ffffffffffffffffffffffffffffffffffffffff1662fdd58e8a856040518363ffffffff1660e01b8152600401610cbd92919061514a565b602060405180830381865afa158015610cda573d6000803e3d6000fd5b505050506040513d601f19601f82011682018060405250810190610cfe9190615188565b90506000600260009054906101000a900473ffffffffffffffffffffffffffffffffffffffff1673ffffffffffffffffffffffffffffffffffffffff1663bd85b039856040518263ffffffff1660e01b8152600401610d5d9190614434565b602060405180830381865afa158015610d7a573d6000803e3d6000fd5b505050506040513d601f19601f82011682018060405250810190610d9e9190615188565b606483610dab91906151e4565b610db59190615255565b905060008103610dcc576000965050505050610e97565b60648160018681548110610de357610de2614f42565b5b906000526020600020906007020160030154610dff91906151e4565b610e099190615255565b905060018481548110610e1f57610e1e614f42565b5b906000526020600020906007020160060160008b73ffffffffffffffffffffffffffffffffffffffff1673ffffffffffffffffffffffffffffffffffffffff16815260200190815260200160002060010160008481526020019081526020016000205481610e8d9190615286565b9050809650505050505b50509392505050565b81818080601f016020809104026020016040519081016040528093929190818152602001838380828437600081840152601f19601f8201169050808301925050505050505060008082604051610ef69190614e2e565b9081526020016040518091039020549050600260009054906101000a900473ffffffffffffffffffffffffffffffffffffffff1673ffffffffffffffffffffffffffffffffffffffff16634f558e79826040518263ffffffff1660e01b8152600401610f629190614434565b602060405180830381865afa158015610f7f573d6000803e3d6000fd5b505050506040513d601f19601f82011682018060405250810190610fa39190614e5a565b610fe2576040517f08c379a0000000000000000000000000000000000000000000000000000000008152600401610fd990614ee4565b60405180910390fd5b6000808585604051610ff5929190614f29565b90815260200160405180910390205490506001818154811061101a57611019614f42565b5b906000526020600020906007020160010173__$84bc5d0beeac25824f69ec813121d96f14$__63ddaee8df9091886040518363ffffffff1660e01b8152600401611065929190615304565b60006040518083038186803b15801561107d57600080fd5b505af4158015611091573d6000803e3d6000fd5b5050505060018082815481106110aa576110a9614f42565b5b906000526020600020906007020160060160003373ffffffffffffffffffffffffffffffffffffffff1673ffffffffffffffffffffffffffffffffffffffff168152602001908152602001600020600001876040516111099190614e2e565b908152602001604051809103902060000160006101000a81548160ff0219169083151502179055507f7b7acf540aac5e16ce3dfbd4d106c203a301da603c18502d179f60282962e5c48585888460405161116694939291906153e6565b60405180910390a1505050505050565b81818080601f016020809104026020016040519081016040528093929190818152602001838380828437600081840152601f19601f82011690508083019250505050505050600080826040516111cc9190614e2e565b9081526020016040518091039020549050600260009054906101000a900473ffffffffffffffffffffffffffffffffffffffff1673ffffffffffffffffffffffffffffffffffffffff16634f558e79826040518263ffffffff1660e01b81526004016112389190614434565b602060405180830381865afa158015611255573d6000803e3d6000fd5b505050506040513d601f19601f820116820180604052508101906112799190614e5a565b6112b8576040517f08c379a00000000000000000000000000000000000000000000000000000000081526004016112af90614ee4565b60405180910390fd5b60008085856040516112cb929190614f29565b9081526020016040518091039020549050600260009054906101000a900473ffffffffffffffffffffffffffffffffffffffff1673ffffffffffffffffffffffffffffffffffffffff1663bd85b039826040518263ffffffff1660e01b81526004016113379190614434565b602060405180830381865afa158015611354573d6000803e3d6000fd5b505050506040513d601f19601f820116820180604052508101906113789190615188565b6002611388898960008a8a611784565b61139291906151e4565b1161139c57600080fd5b600080600090505b6113d1600184815481106113bb576113ba614f42565b5b9060005260206000209060070201600401613eb1565b8110156114cc5761140f81600185815481106113f0576113ef614f42565b5b9060005260206000209060070201600401613ec690919063ffffffff16565b91506001838154811061142557611424614f42565b5b906000526020600020906007020160060160008373ffffffffffffffffffffffffffffffffffffffff1673ffffffffffffffffffffffffffffffffffffffff1681526020019081526020016000206000018989604051611486929190614f29565b9081526020016040518091039020600080820160006101000a81549060ff02191690556000820160016101000a81549060ff0219169055505080806001019150506113a4565b50600182815481106114e1576114e0614f42565b5b906000526020600020906007020160010173__$84bc5d0beeac25824f69ec813121d96f14$__6313680a3990918a8a6040518463ffffffff1660e01b815260040161152e9392919061546d565b60006040518083038186803b15801561154657600080fd5b505af415801561155a573d6000803e3d6000fd5b505050507f718a982b61bc723a0c68281b0eb10e1cff37bd89888841ae545c98cd5493a0568888888860405161159394939291906154eb565b60405180910390a15050505050505050565b607881565b600082828080601f016020809104026020016040519081016040528093929190818152602001838380828437600081840152601f19601f82011690508083019250505050505050600080826040516116029190614e2e565b9081526020016040518091039020549050600260009054906101000a900473ffffffffffffffffffffffffffffffffffffffff1673ffffffffffffffffffffffffffffffffffffffff16634f558e79826040518263ffffffff1660e01b815260040161166e9190614434565b602060405180830381865afa15801561168b573d6000803e3d6000fd5b505050506040513d601f19601f820116820180604052508101906116af9190614e5a565b6116ee576040517f08c379a00000000000000000000000000000000000000000000000000000000081526004016116e590614ee4565b60405180910390fd5b6000808686604051611701929190614f29565b90815260200160405180910390205490506001818154811061172657611725614f42565b5b906000526020600020906007020160060160008873ffffffffffffffffffffffffffffffffffffffff1673ffffffffffffffffffffffffffffffffffffffff1681526020019081526020016000206002015493505050509392505050565b600082828080601f016020809104026020016040519081016040528093929190818152602001838380828437600081840152601f19601f82011690508083019250505050505050600080826040516117dc9190614e2e565b9081526020016040518091039020549050600260009054906101000a900473ffffffffffffffffffffffffffffffffffffffff1673ffffffffffffffffffffffffffffffffffffffff16634f558e79826040518263ffffffff1660e01b81526004016118489190614434565b602060405180830381865afa158015611865573d6000803e3d6000fd5b505050506040513d601f19601f820116820180604052508101906118899190614e5a565b6118c8576040517f08c379a00000000000000000000000000000000000000000000000000000000081526004016118bf90614ee4565b60405180910390fd5b60008086866040516118db929190614f29565b908152602001604051809103902054905060008080600090505b6119226001858154811061190c5761190b614f42565b5b9060005260206000209060070201600401613eb1565b811015611b5257611960816001868154811061194157611940614f42565b5b9060005260206000209060070201600401613ec690919063ffffffff16565b915089611a00576001848154811061197b5761197a614f42565b5b906000526020600020906007020160060160008373ffffffffffffffffffffffffffffffffffffffff1673ffffffffffffffffffffffffffffffffffffffff1681526020019081526020016000206000018c8c6040516119dc929190614f29565b908152602001604051809103902060000160019054906101000a900460ff16611a95565b60018481548110611a1457611a13614f42565b5b906000526020600020906007020160060160008373ffffffffffffffffffffffffffffffffffffffff1673ffffffffffffffffffffffffffffffffffffffff1681526020019081526020016000206000018c8c604051611a75929190614f29565b908152602001604051809103902060000160009054906101000a900460ff165b15611b4557600260009054906101000a900473ffffffffffffffffffffffffffffffffffffffff1673ffffffffffffffffffffffffffffffffffffffff1662fdd58e83866040518363ffffffff1660e01b8152600401611af692919061514a565b602060405180830381865afa158015611b13573d6000803e3d6000fd5b505050506040513d601f19601f82011682018060405250810190611b379190615188565b83611b429190615539565b92505b80806001019150506118f5565b50819550505050505095945050505050565b6000600180549050905080600083604051611b7f9190614e2e565b908152602001604051809103902081905550600260009054906101000a900473ffffffffffffffffffffffffffffffffffffffff1673ffffffffffffffffffffffffffffffffffffffff1663731133e9338360646040518463ffffffff1660e01b8152600401611bf1939291906155df565b600060405180830381600087803b158015611c0b57600080fd5b505af1158015611c1f573d6000803e3d6000fd5b50505050600060018081600181540180825580915050039060005260206000209060070201905082816000019081611c57919061582b565b508060010173__$84bc5d0beeac25824f69ec813121d96f14$__6381659a909091866040518363ffffffff1660e01b8152600401611c96929190615304565b60006040518083038186803b158015611cae57600080fd5b505af4158015611cc2573d6000803e3d6000fd5b505050506064816003018190555060f042611cdd9190615539565b8160020181905550611cfb3382600401613ee090919063ffffffff16565b507fe224389b386caecb8e3b38edc39361c7227e3ef820a8276bc31ac9cf1ba69fcd8383604051611d2d929190615949565b60405180910390a150505050565b60f081565b606082828080601f016020809104026020016040519081016040528093929190818152602001838380828437600081840152601f19601f8201169050808301925050505050505060008082604051611d989190614e2e565b9081526020016040518091039020549050600260009054906101000a900473ffffffffffffffffffffffffffffffffffffffff1673ffffffffffffffffffffffffffffffffffffffff16634f558e79826040518263ffffffff1660e01b8152600401611e049190614434565b602060405180830381865afa158015611e21573d6000803e3d6000fd5b505050506040513d601f19601f82011682018060405250810190611e459190614e5a565b611e84576040517f08c379a0000000000000000000000000000000000000000000000000000000008152600401611e7b90614ee4565b60405180910390fd5b6000808686604051611e97929190614f29565b9081526020016040518091039020549050611ed560018281548110611ebf57611ebe614f42565b5b9060005260206000209060070201600401613f10565b935050505092915050565b81818080601f016020809104026020016040519081016040528093929190818152602001838380828437600081840152601f19601f8201169050808301925050505050505060008082604051611f369190614e2e565b9081526020016040518091039020549050600260009054906101000a900473ffffffffffffffffffffffffffffffffffffffff1673ffffffffffffffffffffffffffffffffffffffff16634f558e79826040518263ffffffff1660e01b8152600401611fa29190614434565b602060405180830381865afa158015611fbf573d6000803e3d6000fd5b505050506040513d601f19601f82011682018060405250810190611fe39190614e5a565b612022576040517f08c379a000000000000000000000000000000000000000000000000000000000815260040161201990614ee4565b60405180910390fd5b6000808585604051612035929190614f29565b908152602001604051809103902054905060786001828154811061205c5761205b614f42565b5b9060005260206000209060070201600201546120789190615539565b4210156120ba576040517f08c379a00000000000000000000000000000000000000000000000000000000081526004016120b1906159d8565b60405180910390fd5b6064600182815481106120d0576120cf614f42565b5b90600052602060002090600702016003018190555060f0426120f29190615539565b6001828154811061210657612105614f42565b5b9060005260206000209060070201600201819055505050505050565b600082828080601f016020809104026020016040519081016040528093929190818152602001838380828437600081840152601f19601f820116905080830192505050505050506000808260405161217a9190614e2e565b9081526020016040518091039020549050600260009054906101000a900473ffffffffffffffffffffffffffffffffffffffff1673ffffffffffffffffffffffffffffffffffffffff16634f558e79826040518263ffffffff1660e01b81526004016121e69190614434565b602060405180830381865afa158015612203573d6000803e3d6000fd5b505050506040513d601f19601f820116820180604052508101906122279190614e5a565b612266576040517f08c379a000000000000000000000000000000000000000000000000000000000815260040161225d90614ee4565b60405180910390fd5b6000808686604051612279929190614f29565b90815260200160405180910390205490508661232857600181815481106122a3576122a2614f42565b5b906000526020600020906007020160060160008b73ffffffffffffffffffffffffffffffffffffffff1673ffffffffffffffffffffffffffffffffffffffff1681526020019081526020016000206000018989604051612304929190614f29565b908152602001604051809103902060000160019054906101000a900460ff166123bd565b6001818154811061233c5761233b614f42565b5b906000526020600020906007020160060160008b73ffffffffffffffffffffffffffffffffffffffff1673ffffffffffffffffffffffffffffffffffffffff168152602001908152602001600020600001898960405161239d929190614f29565b908152602001604051809103902060000160009054906101000a900460ff165b93505050509695505050505050565b81818080601f016020809104026020016040519081016040528093929190818152602001838380828437600081840152601f19601f82011690508083019250505050505050600080826040516124229190614e2e565b9081526020016040518091039020549050600260009054906101000a900473ffffffffffffffffffffffffffffffffffffffff1673ffffffffffffffffffffffffffffffffffffffff16634f558e79826040518263ffffffff1660e01b815260040161248e9190614434565b602060405180830381865afa1580156124ab573d6000803e3d6000fd5b505050506040513d601f19601f820116820180604052508101906124cf9190614e5a565b61250e576040517f08c379a000000000000000000000000000000000000000000000000000000000815260040161250590614ee4565b60405180910390fd5b6000808585604051612521929190614f29565b9081526020016040518091039020549050600061253d87613f31565b90508651885114612583576040517f08c379a000000000000000000000000000000000000000000000000000000000815260040161257a90615a44565b60405180910390fd5b426001838154811061259857612597614f42565b5b906000526020600020906007020160020154116125ea576040517f08c379a00000000000000000000000000000000000000000000000000000000081526004016125e190615ab0565b60405180910390fd5b6125f5338787610acd565b811115612637576040517f08c379a000000000000000000000000000000000000000000000000000000000815260040161262e90615b1c565b60405180910390fd5b60005b88518110156126e757600015156126988a838151811061265d5761265c614f42565b5b60200260200101516001868154811061267957612678614f42565b5b9060005260206000209060070201600401613f7d90919063ffffffff16565b1515036126da576040517f08c379a00000000000000000000000000000000000000000000000000000000081526004016126d190615b88565b60405180910390fd5b808060010191505061263a565b506000600183815481106126fe576126fd614f42565b5b906000526020600020906007020160020154905060005b89518110156127db5788818151811061273157612730614f42565b5b60200260200101516001858154811061274d5761274c614f42565b5b906000526020600020906007020160060160008c848151811061277357612772614f42565b5b602002602001015173ffffffffffffffffffffffffffffffffffffffff1673ffffffffffffffffffffffffffffffffffffffff16815260200190815260200160002060020160008282546127c79190615539565b925050819055508080600101915050612715565b5081600184815481106127f1576127f0614f42565b5b906000526020600020906007020160060160003373ffffffffffffffffffffffffffffffffffffffff1673ffffffffffffffffffffffffffffffffffffffff168152602001908152602001600020600101600083815260200190815260200160002060008282546128629190615539565b92505081905550505050505050505050565b60606000600180549050905060008167ffffffffffffffff81111561289c5761289b614454565b5b6040519080825280602002602001820160405280156128cf57816020015b60608152602001906001900390816128ba5790505b50905060005b828110156129b657600181815481106128f1576128f0614f42565b5b9060005260206000209060070201600001805461290d90615658565b80601f016020809104026020016040519081016040528092919081815260200182805461293990615658565b80156129865780601f1061295b57610100808354040283529160200191612986565b820191906000526020600020905b81548152906001019060200180831161296957829003601f168201915b505050505082828151811061299e5761299d614f42565b5b602002602001018190525080806001019150506128d5565b50809250505090565b600082828080601f016020809104026020016040519081016040528093929190818152602001838380828437600081840152601f19601f8201169050808301925050505050505060008082604051612a179190614e2e565b9081526020016040518091039020549050600260009054906101000a900473ffffffffffffffffffffffffffffffffffffffff1673ffffffffffffffffffffffffffffffffffffffff16634f558e79826040518263ffffffff1660e01b8152600401612a839190614434565b602060405180830381865afa158015612aa0573d6000803e3d6000fd5b505050506040513d601f19601f82011682018060405250810190612ac49190614e5a565b612b03576040517f08c379a0000000000000000000000000000000000000000000000000000000008152600401612afa90614ee4565b60405180910390fd5b600260009054906101000a900473ffffffffffffffffffffffffffffffffffffffff1673ffffffffffffffffffffffffffffffffffffffff1663bd85b03960008787604051612b53929190614f29565b9081526020016040518091039020546040518263ffffffff1660e01b8152600401612b7e9190614434565b602060405180830381865afa158015612b9b573d6000803e3d6000fd5b505050506040513d601f19601f82011682018060405250810190612bbf9190615188565b9250505092915050565b600084848080601f016020809104026020016040519081016040528093929190818152602001838380828437600081840152601f19601f8201169050808301925050505050505060008082604051612c219190614e2e565b9081526020016040518091039020549050600260009054906101000a900473ffffffffffffffffffffffffffffffffffffffff1673ffffffffffffffffffffffffffffffffffffffff16634f558e79826040518263ffffffff1660e01b8152600401612c8d9190614434565b602060405180830381865afa158015612caa573d6000803e3d6000fd5b505050506040513d601f19601f82011682018060405250810190612cce9190614e5a565b612d0d576040517f08c379a0000000000000000000000000000000000000000000000000000000008152600401612d0490614ee4565b60405180910390fd5b6000808888604051612d20929190614f29565b908152602001604051809103902054905060018181548110612d4557612d44614f42565b5b906000526020600020906007020160010173__$84bc5d0beeac25824f69ec813121d96f14$__63681ef9ce909188886040518463ffffffff1660e01b8152600401612d929392919061546d565b602060405180830381865af4158015612daf573d6000803e3d6000fd5b505050506040513d601f19601f82011682018060405250810190612dd39190615bbd565b9350505050949350505050565b81818080601f016020809104026020016040519081016040528093929190818152602001838380828437600081840152601f19601f8201169050808301925050505050505060008082604051612e369190614e2e565b9081526020016040518091039020549050600260009054906101000a900473ffffffffffffffffffffffffffffffffffffffff1673ffffffffffffffffffffffffffffffffffffffff16634f558e79826040518263ffffffff1660e01b8152600401612ea29190614434565b602060405180830381865afa158015612ebf573d6000803e3d6000fd5b505050506040513d601f19601f82011682018060405250810190612ee39190614e5a565b612f22576040517f08c379a0000000000000000000000000000000000000000000000000000000008152600401612f1990614ee4565b60405180910390fd5b6000808585604051612f35929190614f29565b908152602001604051809103902054905085156130235760018181548110612f6057612f5f614f42565b5b906000526020600020906007020160060160003373ffffffffffffffffffffffffffffffffffffffff1673ffffffffffffffffffffffffffffffffffffffff16815260200190815260200160002060000187604051612fbf9190614e2e565b908152602001604051809103902060000160009054906101000a900460ff161561301e576040517f08c379a000000000000000000000000000000000000000000000000000000000815260040161301590615c36565b60405180910390fd5b6130f6565b6001818154811061303757613036614f42565b5b906000526020600020906007020160060160003373ffffffffffffffffffffffffffffffffffffffff1673ffffffffffffffffffffffffffffffffffffffff168152602001908152602001600020600001876040516130969190614e2e565b908152602001604051809103902060000160019054906101000a900460ff16156130f5576040517f08c379a00000000000000000000000000000000000000000000000000000000081526004016130ec90615c36565b60405180910390fd5b5b6000600260009054906101000a900473ffffffffffffffffffffffffffffffffffffffff1673ffffffffffffffffffffffffffffffffffffffff1662fdd58e33846040518363ffffffff1660e01b815260040161315492919061514a565b602060405180830381865afa158015613171573d6000803e3d6000fd5b505050506040513d601f19601f820116820180604052508101906131959190615188565b905060008110156131db576040517f08c379a00000000000000000000000000000000000000000000000000000000081526004016131d290615ca2565b60405180910390fd5b86156132825760018083815481106131f6576131f5614f42565b5b906000526020600020906007020160060160003373ffffffffffffffffffffffffffffffffffffffff1673ffffffffffffffffffffffffffffffffffffffff168152602001908152602001600020600001896040516132559190614e2e565b908152602001604051809103902060000160006101000a81548160ff02191690831515021790555061331f565b600180838154811061329757613296614f42565b5b906000526020600020906007020160060160003373ffffffffffffffffffffffffffffffffffffffff1673ffffffffffffffffffffffffffffffffffffffff168152602001908152602001600020600001896040516132f69190614e2e565b908152602001604051809103902060000160016101000a81548160ff0219169083151502179055505b7fb64f8561c8d312f5e6a3dbffda44bbb4d741f23969f1ea178a97d1428ebcaafe86868a336040516133549493929190615d0e565b60405180910390a15050505050505050565b80600080826040516133789190614e2e565b9081526020016040518091039020549050600260009054906101000a900473ffffffffffffffffffffffffffffffffffffffff1673ffffffffffffffffffffffffffffffffffffffff16634f558e79826040518263ffffffff1660e01b81526004016133e49190614434565b602060405180830381865afa158015613401573d6000803e3d6000fd5b505050506040513d601f19601f820116820180604052508101906134259190614e5a565b613464576040517f08c379a000000000000000000000000000000000000000000000000000000000815260040161345b90614ee4565b60405180910390fd5b600080846040516134759190614e2e565b908152602001604051809103902054905084156135cd57600181815481106134a05761349f614f42565b5b906000526020600020906007020160060160003373ffffffffffffffffffffffffffffffffffffffff1673ffffffffffffffffffffffffffffffffffffffff1681526020019081526020016000206000018787604051613501929190614f29565b908152602001604051809103902060000160009054906101000a900460ff1661352957600080fd5b60006001828154811061353f5761353e614f42565b5b906000526020600020906007020160060160003373ffffffffffffffffffffffffffffffffffffffff1673ffffffffffffffffffffffffffffffffffffffff16815260200190815260200160002060000188886040516135a0929190614f29565b908152602001604051809103902060000160006101000a81548160ff02191690831515021790555061370a565b600181815481106135e1576135e0614f42565b5b906000526020600020906007020160060160003373ffffffffffffffffffffffffffffffffffffffff1673ffffffffffffffffffffffffffffffffffffffff1681526020019081526020016000206000018787604051613642929190614f29565b908152602001604051809103902060000160019054906101000a900460ff1661366a57600080fd5b6000600182815481106136805761367f614f42565b5b906000526020600020906007020160060160003373ffffffffffffffffffffffffffffffffffffffff1673ffffffffffffffffffffffffffffffffffffffff16815260200190815260200160002060000188886040516136e1929190614f29565b908152602001604051809103902060000160016101000a81548160ff0219169083151502179055505b50505050505050565b81818080601f016020809104026020016040519081016040528093929190818152602001838380828437600081840152601f19601f82011690508083019250505050505050600080826040516137699190614e2e565b9081526020016040518091039020549050600260009054906101000a900473ffffffffffffffffffffffffffffffffffffffff1673ffffffffffffffffffffffffffffffffffffffff16634f558e79826040518263ffffffff1660e01b81526004016137d59190614434565b602060405180830381865afa1580156137f2573d6000803e3d6000fd5b505050506040513d601f19601f820116820180604052508101906138169190614e5a565b613855576040517f08c379a000000000000000000000000000000000000000000000000000000000815260040161384c90614ee4565b60405180910390fd5b6000808585604051613868929190614f29565b90815260200160405180910390205490503373ffffffffffffffffffffffffffffffffffffffff16600182815481106138a4576138a3614f42565b5b906000526020600020906007020160010173__$84bc5d0beeac25824f69ec813121d96f14$__63681ef9ce90918a8a6040518463ffffffff1660e01b81526004016138f19392919061546d565b602060405180830381865af415801561390e573d6000803e3d6000fd5b505050506040513d601f19601f820116820180604052508101906139329190615bbd565b73ffffffffffffffffffffffffffffffffffffffff1614613988576040517f08c379a000000000000000000000000000000000000000000000000000000000815260040161397f90615dda565b60405180910390fd5b600260009054906101000a900473ffffffffffffffffffffffffffffffffffffffff1673ffffffffffffffffffffffffffffffffffffffff1663bd85b039826040518263ffffffff1660e01b81526004016139e39190614434565b602060405180830381865afa158015613a00573d6000803e3d6000fd5b505050506040513d601f19601f82011682018060405250810190613a249190615188565b6002613a34898960018a8a611784565b613a3e91906151e4565b11613a4857600080fd5b613a7f3360018381548110613a6057613a5f614f42565b5b9060005260206000209060070201600401613ee090919063ffffffff16565b5060018181548110613a9457613a93614f42565b5b906000526020600020906007020160010173__$84bc5d0beeac25824f69ec813121d96f14$__63c8d84335909189896040518463ffffffff1660e01b8152600401613ae19392919061546d565b60006040518083038186803b158015613af957600080fd5b505af4158015613b0d573d6000803e3d6000fd5b505050507fa59a33e81abf86b25a561f609013d867f28b3c0cbc2cdf98e852b0c0c041eb6c85858989604051613b469493929190615e46565b60405180910390a150505050505050565b81818080601f016020809104026020016040519081016040528093929190818152602001838380828437600081840152601f19601f8201169050808301925050505050505060008082604051613bad9190614e2e565b9081526020016040518091039020549050600260009054906101000a900473ffffffffffffffffffffffffffffffffffffffff1673ffffffffffffffffffffffffffffffffffffffff16634f558e79826040518263ffffffff1660e01b8152600401613c199190614434565b602060405180830381865afa158015613c36573d6000803e3d6000fd5b505050506040513d601f19601f82011682018060405250810190613c5a9190614e5a565b613c99576040517f08c379a0000000000000000000000000000000000000000000000000000000008152600401613c9090614ee4565b60405180910390fd5b6000808585604051613cac929190614f29565b908152602001604051809103902054905060018181548110613cd157613cd0614f42565b5b906000526020600020906007020160020154421015613d25576040517f08c379a0000000000000000000000000000000000000000000000000000000008152600401613d1c90615ee0565b60405180910390fd5b600260009054906101000a900473ffffffffffffffffffffffffffffffffffffffff1673ffffffffffffffffffffffffffffffffffffffff1663731133e9338360018581548110613d7957613d78614f42565b5b906000526020600020906007020160060160003373ffffffffffffffffffffffffffffffffffffffff1673ffffffffffffffffffffffffffffffffffffffff168152602001908152602001600020600201546040518463ffffffff1660e01b8152600401613de993929190615f00565b600060405180830381600087803b158015613e0357600080fd5b505af1158015613e17573d6000803e3d6000fd5b5050505060018181548110613e2f57613e2e614f42565b5b906000526020600020906007020160060160003373ffffffffffffffffffffffffffffffffffffffff1673ffffffffffffffffffffffffffffffffffffffff168152602001908152602001600020600201600090555050505050565b600260009054906101000a900473ffffffffffffffffffffffffffffffffffffffff1681565b6000613ebf82600001613fad565b9050919050565b6000613ed58360000183613fbe565b60001c905092915050565b6000613f08836000018373ffffffffffffffffffffffffffffffffffffffff1660001b613fe9565b905092915050565b60606000613f2083600001614059565b905060608190508092505050919050565b600080600090505b8251811015613f7757828181518110613f5557613f54614f42565b5b602002602001015182613f689190615539565b91508080600101915050613f39565b50919050565b6000613fa5836000018373ffffffffffffffffffffffffffffffffffffffff1660001b6140b5565b905092915050565b600081600001805490509050919050565b6000826000018281548110613fd657613fd5614f42565b5b9060005260206000200154905092915050565b6000613ff583836140b5565b61404e578260000182908060018154018082558091505060019003906000526020600020016000909190919091505582600001805490508360010160008481526020019081526020016000208190555060019050614053565b600090505b92915050565b6060816000018054806020026020016040519081016040528092919081815260200182805480156140a957602002820191906000526020600020905b815481526020019060010190808311614095575b50505050509050919050565b600080836001016000848152602001908152602001600020541415905092915050565b6000604051905090565b600080fd5b600080fd5b600080fd5b600080fd5b600080fd5b60008083601f840112614111576141106140ec565b5b8235905067ffffffffffffffff81111561412e5761412d6140f1565b5b60208301915083600182028301111561414a576141496140f6565b5b9250929050565b60008115159050919050565b61416681614151565b811461417157600080fd5b50565b6000813590506141838161415d565b92915050565b6000806000604084860312156141a2576141a16140e2565b5b600084013567ffffffffffffffff8111156141c0576141bf6140e7565b5b6141cc868287016140fb565b935093505060206141df86828701614174565b9150509250925092565b600081519050919050565b600082825260208201905092915050565b6000819050602082019050919050565b600081519050919050565b600082825260208201905092915050565b60005b8381101561424f578082015181840152602081019050614234565b60008484015250505050565b6000601f19601f8301169050919050565b600061427782614215565b6142818185614220565b9350614291818560208601614231565b61429a8161425b565b840191505092915050565b60006142b1838361426c565b905092915050565b6000602082019050919050565b60006142d1826141e9565b6142db81856141f4565b9350836020820285016142ed85614205565b8060005b85811015614329578484038952815161430a85826142a5565b9450614315836142b9565b925060208a019950506001810190506142f1565b50829750879550505050505092915050565b6000602082019050818103600083015261435581846142c6565b905092915050565b600073ffffffffffffffffffffffffffffffffffffffff82169050919050565b60006143888261435d565b9050919050565b6143988161437d565b81146143a357600080fd5b50565b6000813590506143b58161438f565b92915050565b6000806000604084860312156143d4576143d36140e2565b5b60006143e2868287016143a6565b935050602084013567ffffffffffffffff811115614403576144026140e7565b5b61440f868287016140fb565b92509250509250925092565b6000819050919050565b61442e8161441b565b82525050565b60006020820190506144496000830184614425565b92915050565b600080fd5b7f4e487b7100000000000000000000000000000000000000000000000000000000600052604160045260246000fd5b61448c8261425b565b810181811067ffffffffffffffff821117156144ab576144aa614454565b5b80604052505050565b60006144be6140d8565b90506144ca8282614483565b919050565b600067ffffffffffffffff8211156144ea576144e9614454565b5b6144f38261425b565b9050602081019050919050565b82818337600083830152505050565b600061452261451d846144cf565b6144b4565b90508281526020810184848401111561453e5761453d61444f565b5b614549848285614500565b509392505050565b600082601f830112614566576145656140ec565b5b813561457684826020860161450f565b91505092915050565b600060208284031215614595576145946140e2565b5b600082013567ffffffffffffffff8111156145b3576145b26140e7565b5b6145bf84828501614551565b91505092915050565b600080602083850312156145df576145de6140e2565b5b600083013567ffffffffffffffff8111156145fd576145fc6140e7565b5b614609858286016140fb565b92509250509250929050565b60008060006040848603121561462e5761462d6140e2565b5b600084013567ffffffffffffffff81111561464c5761464b6140e7565b5b61465886828701614551565b935050602084013567ffffffffffffffff811115614679576146786140e7565b5b614685868287016140fb565b92509250509250925092565b600080600080604085870312156146ab576146aa6140e2565b5b600085013567ffffffffffffffff8111156146c9576146c86140e7565b5b6146d5878288016140fb565b9450945050602085013567ffffffffffffffff8111156146f8576146f76140e7565b5b614704878288016140fb565b925092505092959194509250565b60008060008060006060868803121561472e5761472d6140e2565b5b600086013567ffffffffffffffff81111561474c5761474b6140e7565b5b614758888289016140fb565b9550955050602061476b88828901614174565b935050604086013567ffffffffffffffff81111561478c5761478b6140e7565b5b614798888289016140fb565b92509250509295509295909350565b600080604083850312156147be576147bd6140e2565b5b600083013567ffffffffffffffff8111156147dc576147db6140e7565b5b6147e885828601614551565b925050602083013567ffffffffffffffff811115614809576148086140e7565b5b61481585828601614551565b9150509250929050565b600081519050919050565b600082825260208201905092915050565b6000819050602082019050919050565b6148548161437d565b82525050565b6000614866838361484b565b60208301905092915050565b6000602082019050919050565b600061488a8261481f565b614894818561482a565b935061489f8361483b565b8060005b838110156148d05781516148b7888261485a565b97506148c283614872565b9250506001810190506148a3565b5085935050505092915050565b600060208201905081810360008301526148f7818461487f565b905092915050565b6000806000806000806080878903121561491c5761491b6140e2565b5b600061492a89828a016143a6565b965050602087013567ffffffffffffffff81111561494b5761494a6140e7565b5b61495789828a016140fb565b9550955050604061496a89828a01614174565b935050606087013567ffffffffffffffff81111561498b5761498a6140e7565b5b61499789828a016140fb565b92509250509295509295509295565b6149af81614151565b82525050565b60006020820190506149ca60008301846149a6565b92915050565b600067ffffffffffffffff8211156149eb576149ea614454565b5b602082029050602081019050919050565b6000614a0f614a0a846149d0565b6144b4565b90508083825260208201905060208402830185811115614a3257614a316140f6565b5b835b81811015614a5b5780614a4788826143a6565b845260208401935050602081019050614a34565b5050509392505050565b600082601f830112614a7a57614a796140ec565b5b8135614a8a8482602086016149fc565b91505092915050565b600067ffffffffffffffff821115614aae57614aad614454565b5b602082029050602081019050919050565b614ac88161441b565b8114614ad357600080fd5b50565b600081359050614ae581614abf565b92915050565b6000614afe614af984614a93565b6144b4565b90508083825260208201905060208402830185811115614b2157614b206140f6565b5b835b81811015614b4a5780614b368882614ad6565b845260208401935050602081019050614b23565b5050509392505050565b600082601f830112614b6957614b686140ec565b5b8135614b79848260208601614aeb565b91505092915050565b60008060008060608587031215614b9c57614b9b6140e2565b5b600085013567ffffffffffffffff811115614bba57614bb96140e7565b5b614bc687828801614a65565b945050602085013567ffffffffffffffff811115614be757614be66140e7565b5b614bf387828801614b54565b935050604085013567ffffffffffffffff811115614c1457614c136140e7565b5b614c20878288016140fb565b925092505092959194509250565b614c378161437d565b82525050565b6000602082019050614c526000830184614c2e565b92915050565b60008060008060608587031215614c7257614c716140e2565b5b600085013567ffffffffffffffff811115614c9057614c8f6140e7565b5b614c9c87828801614551565b9450506020614cad87828801614174565b935050604085013567ffffffffffffffff811115614cce57614ccd6140e7565b5b614cda878288016140fb565b925092505092959194509250565b60008060008060608587031215614d0257614d016140e2565b5b600085013567ffffffffffffffff811115614d2057614d1f6140e7565b5b614d2c878288016140fb565b94509450506020614d3f87828801614174565b925050604085013567ffffffffffffffff811115614d6057614d5f6140e7565b5b614d6c87828801614551565b91505092959194509250565b6000819050919050565b6000614d9d614d98614d938461435d565b614d78565b61435d565b9050919050565b6000614daf82614d82565b9050919050565b6000614dc182614da4565b9050919050565b614dd181614db6565b82525050565b6000602082019050614dec6000830184614dc8565b92915050565b600081905092915050565b6000614e0882614215565b614e128185614df2565b9350614e22818560208601614231565b80840191505092915050565b6000614e3a8284614dfd565b915081905092915050565b600081519050614e548161415d565b92915050565b600060208284031215614e7057614e6f6140e2565b5b6000614e7e84828501614e45565b91505092915050565b600082825260208201905092915050565b7f50726f6a65637420646f206e6f74206578697374000000000000000000000000600082015250565b6000614ece601483614e87565b9150614ed982614e98565b602082019050919050565b60006020820190508181036000830152614efd81614ec1565b9050919050565b6000614f108385614df2565b9350614f1d838584614500565b82840190509392505050565b6000614f36828486614f04565b91508190509392505050565b7f4e487b7100000000000000000000000000000000000000000000000000000000600052603260045260246000fd5b8082525050565b614f8181614151565b82525050565b6000604082019050614f9c6000830185614f71565b614fa96020830184614f78565b9392505050565b600067ffffffffffffffff821115614fcb57614fca614454565b5b602082029050602081019050919050565b6000614fef614fea846144cf565b6144b4565b90508281526020810184848401111561500b5761500a61444f565b5b615016848285614231565b509392505050565b600082601f830112615033576150326140ec565b5b8151615043848260208601614fdc565b91505092915050565b600061505f61505a84614fb0565b6144b4565b90508083825260208201905060208402830185811115615082576150816140f6565b5b835b818110156150c957805167ffffffffffffffff8111156150a7576150a66140ec565b5b8086016150b4898261501e565b85526020850194505050602081019050615084565b5050509392505050565b600082601f8301126150e8576150e76140ec565b5b81516150f884826020860161504c565b91505092915050565b600060208284031215615117576151166140e2565b5b600082015167ffffffffffffffff811115615135576151346140e7565b5b615141848285016150d3565b91505092915050565b600060408201905061515f6000830185614c2e565b61516c6020830184614425565b9392505050565b60008151905061518281614abf565b92915050565b60006020828403121561519e5761519d6140e2565b5b60006151ac84828501615173565b91505092915050565b7f4e487b7100000000000000000000000000000000000000000000000000000000600052601160045260246000fd5b60006151ef8261441b565b91506151fa8361441b565b92508282026152088161441b565b9150828204841483151761521f5761521e6151b5565b5b5092915050565b7f4e487b7100000000000000000000000000000000000000000000000000000000600052601260045260246000fd5b60006152608261441b565b915061526b8361441b565b92508261527b5761527a615226565b5b828204905092915050565b60006152918261441b565b915061529c8361441b565b92508282039050818111156152b4576152b36151b5565b5b92915050565b600082825260208201905092915050565b60006152d682614215565b6152e081856152ba565b93506152f0818560208601614231565b6152f98161425b565b840191505092915050565b60006040820190506153196000830185614f71565b818103602083015261532b81846152cb565b90509392505050565b7f4e6577206368616e67652070726f706f73616c20000000000000000000000000600082015250565b600061536a601483614e87565b915061537582615334565b602082019050919050565b600061538c8385614e87565b9350615399838584614500565b6153a28361425b565b840190509392505050565b60006153b882614215565b6153c28185614e87565b93506153d2818560208601614231565b6153db8161425b565b840191505092915050565b600060808201905081810360008301526153ff8161535d565b90508181036020830152615414818688615380565b9050818103604083015261542881856153ad565b90506154376060830184614425565b95945050505050565b600061544c83856152ba565b9350615459838584614500565b6154628361425b565b840190509392505050565b60006040820190506154826000830186614f71565b8181036020830152615495818486615440565b9050949350505050565b7f52656d6f76616c20416363657074656420000000000000000000000000000000600082015250565b60006154d5601183614e87565b91506154e08261549f565b602082019050919050565b60006060820190508181036000830152615504816154c8565b90508181036020830152615519818688615380565b9050818103604083015261552e818486615380565b905095945050505050565b60006155448261441b565b915061554f8361441b565b9250828201905080821115615567576155666151b5565b5b92915050565b6000819050919050565b600061559261558d6155888461556d565b614d78565b61441b565b9050919050565b6155a281615577565b82525050565b600082825260208201905092915050565b50565b60006155c96000836155a8565b91506155d4826155b9565b600082019050919050565b60006080820190506155f46000830186614c2e565b6156016020830185614425565b61560e6040830184615599565b818103606083015261561f816155bc565b9050949350505050565b7f4e487b7100000000000000000000000000000000000000000000000000000000600052602260045260246000fd5b6000600282049050600182168061567057607f821691505b60208210810361568357615682615629565b5b50919050565b60008190508160005260206000209050919050565b60006020601f8301049050919050565b600082821b905092915050565b6000600883026156eb7fffffffffffffffffffffffffffffffffffffffffffffffffffffffffffffffff826156ae565b6156f586836156ae565b95508019841693508086168417925050509392505050565b600061572861572361571e8461441b565b614d78565b61441b565b9050919050565b6000819050919050565b6157428361570d565b61575661574e8261572f565b8484546156bb565b825550505050565b600090565b61576b61575e565b615776818484615739565b505050565b5b8181101561579a5761578f600082615763565b60018101905061577c565b5050565b601f8211156157df576157b081615689565b6157b98461569e565b810160208510156157c8578190505b6157dc6157d48561569e565b83018261577b565b50505b505050565b600082821c905092915050565b6000615802600019846008026157e4565b1980831691505092915050565b600061581b83836157f1565b9150826002028217905092915050565b61583482614215565b67ffffffffffffffff81111561584d5761584c614454565b5b6158578254615658565b61586282828561579e565b600060209050601f8311600181146158955760008415615883578287015190505b61588d858261580f565b8655506158f5565b601f1984166158a386615689565b60005b828110156158cb578489015182556001820191506020850194506020810190506158a6565b868310156158e857848901516158e4601f8916826157f1565b8355505b6001600288020188555050505b505050505050565b7f4e65772070726f6a656374200000000000000000000000000000000000000000600082015250565b6000615933600c83614e87565b915061593e826158fd565b602082019050919050565b6000606082019050818103600083015261596281615926565b9050818103602083015261597681856153ad565b90506159856040830184614425565b9392505050565b7f6e6f74207374617274696e6720646973747269627574696f6e2074696d650000600082015250565b60006159c2601e83614e87565b91506159cd8261598c565b602082019050919050565b600060208201905081810360008301526159f1816159b5565b9050919050565b7f696e76616c696420696e70757473000000000000000000000000000000000000600082015250565b6000615a2e600e83614e87565b9150615a39826159f8565b602082019050919050565b60006020820190508181036000830152615a5d81615a21565b9050919050565b7f6e6f7420646973747269627574696f6e2074696d650000000000000000000000600082015250565b6000615a9a601583614e87565b9150615aa582615a64565b602082019050919050565b60006020820190508181036000830152615ac981615a8d565b9050919050565b7f556e737566666963656e7420616d6f756e74206f6620746f6b656e7300000000600082015250565b6000615b06601c83614e87565b9150615b1182615ad0565b602082019050919050565b60006020820190508181036000830152615b3581615af9565b9050919050565b7f4e6f7420612050726f6a656374205061727469636970616e7400000000000000600082015250565b6000615b72601983614e87565b9150615b7d82615b3c565b602082019050919050565b60006020820190508181036000830152615ba181615b65565b9050919050565b600081519050615bb78161438f565b92915050565b600060208284031215615bd357615bd26140e2565b5b6000615be184828501615ba8565b91505092915050565b7f416c726561647920766f74656400000000000000000000000000000000000000600082015250565b6000615c20600d83614e87565b9150615c2b82615bea565b602082019050919050565b60006020820190508181036000830152615c4f81615c13565b9050919050565b7f696e73756666696369656e7420746f6b656e7300000000000000000000000000600082015250565b6000615c8c601383614e87565b9150615c9782615c56565b602082019050919050565b60006020820190508181036000830152615cbb81615c7f565b9050919050565b7f4e657720766f746520666f72206368616e67652070726f706f73616c3a000000600082015250565b6000615cf8601d83614e87565b9150615d0382615cc2565b602082019050919050565b60006080820190508181036000830152615d2781615ceb565b90508181036020830152615d3c818688615380565b90508181036040830152615d5081856153ad565b9050615d5f6060830184614c2e565b95945050505050565b7f6f6e6c7920746865206368616e67652070726f706f73616c2063726561746f7260008201527f2063616e20616363657074000000000000000000000000000000000000000000602082015250565b6000615dc4602b83614e87565b9150615dcf82615d68565b604082019050919050565b60006020820190508181036000830152615df381615db7565b9050919050565b7f6e6577206368616e676500000000000000000000000000000000000000000000600082015250565b6000615e30600a83614e87565b9150615e3b82615dfa565b602082019050919050565b60006060820190508181036000830152615e5f81615e23565b90508181036020830152615e74818688615380565b90508181036040830152615e89818486615380565b905095945050505050565b7f6e6f7420636c61696d696e672074696d65000000000000000000000000000000600082015250565b6000615eca601183614e87565b9150615ed582615e94565b602082019050919050565b60006020820190508181036000830152615ef981615ebd565b9050919050565b6000608082019050615f156000830186614c2e565b615f226020830185614425565b615f2f6040830184614425565b8181036060830152615f40816155bc565b905094935050505056fea264697066735822122067450b9a5f9bdd0aeafb56dd28a37dea9bdbf3300a9d16402183f1e9c92ae40e64736f6c63430008180033",
  "linkReferences": {
    "contracts/Changes.sol": {
      "ChangesLibrary": [
        {
          "length": 20,
          "start": 1949
        },
        {
          "length": 20,
          "start": 4442
        },
        {
          "length": 20,
          "start": 5665
        },
        {
          "length": 20,
          "start": 7563
        },
        {
          "length": 20,
          "start": 11909
        },
        {
          "length": 20,
          "start": 14820
        },
        {
          "length": 20,
          "start": 15316
        }
      ]
    }
  },
  "deployedLinkReferences": {
    "contracts/Changes.sol": {
      "ChangesLibrary": [
        {
          "length": 20,
          "start": 1648
        },
        {
          "length": 20,
          "start": 4141
        },
        {
          "length": 20,
          "start": 5364
        },
        {
          "length": 20,
          "start": 7262
        },
        {
          "length": 20,
          "start": 11608
        },
        {
          "length": 20,
          "start": 14519
        },
        {
          "length": 20,
          "start": 15015
        }
      ]
    }
  }
}