{
  "_format": "hh-sol-artifact-1",
  "contractName": "ProjectsToken",
  "sourceName": "contracts/ProjectsToken.sol",
  "abi": [
    {
      "inputs": [],
      "stateMutability": "nonpayable",
      "type": "constructor"
    },
    {
      "inputs": [
        {
          "internalType": "address",
          "name": "sender",
          "type": "address"
        },
        {
          "internalType": "uint256",
          "name": "balance",
          "type": "uint256"
        },
        {
          "internalType": "uint256",
          "name": "needed",
          "type": "uint256"
        },
        {
          "internalType": "uint256",
          "name": "tokenId",
          "type": "uint256"
        }
      ],
      "name": "ERC1155InsufficientBalance",
      "type": "error"
    },
    {
      "inputs": [
        {
          "internalType": "address",
          "name": "approver",
          "type": "address"
        }
      ],
      "name": "ERC1155InvalidApprover",
      "type": "error"
    },
    {
      "inputs": [
        {
          "internalType": "uint256",
          "name": "idsLength",
          "type": "uint256"
        },
        {
          "internalType": "uint256",
          "name": "valuesLength",
          "type": "uint256"
        }
      ],
      "name": "ERC1155InvalidArrayLength",
      "type": "error"
    },
    {
      "inputs": [
        {
          "internalType": "address",
          "name": "operator",
          "type": "address"
        }
      ],
      "name": "ERC1155InvalidOperator",
      "type": "error"
    },
    {
      "inputs": [
        {
          "internalType": "address",
          "name": "receiver",
          "type": "address"
        }
      ],
      "name": "ERC1155InvalidReceiver",
      "type": "error"
    },
    {
      "inputs": [
        {
          "internalType": "address",
          "name": "sender",
          "type": "address"
        }
      ],
      "name": "ERC1155InvalidSender",
      "type": "error"
    },
    {
      "inputs": [
        {
          "internalType": "address",
          "name": "operator",
          "type": "address"
        },
        {
          "internalType": "address",
          "name": "owner",
          "type": "address"
        }
      ],
      "name": "ERC1155MissingApprovalForAll",
      "type": "error"
    },
    {
      "anonymous": false,
      "inputs": [
        {
          "indexed": true,
          "internalType": "address",
          "name": "account",
          "type": "address"
        },
        {
          "indexed": true,
          "internalType": "address",
          "name": "operator",
          "type": "address"
        },
        {
          "indexed": false,
          "internalType": "bool",
          "name": "approved",
          "type": "bool"
        }
      ],
      "name": "ApprovalForAll",
      "type": "event"
    },
    {
      "anonymous": false,
      "inputs": [
        {
          "indexed": true,
          "internalType": "address",
          "name": "operator",
          "type": "address"
        },
        {
          "indexed": true,
          "internalType": "address",
          "name": "from",
          "type": "address"
        },
        {
          "indexed": true,
          "internalType": "address",
          "name": "to",
          "type": "address"
        },
        {
          "indexed": false,
          "internalType": "uint256[]",
          "name": "ids",
          "type": "uint256[]"
        },
        {
          "indexed": false,
          "internalType": "uint256[]",
          "name": "values",
          "type": "uint256[]"
        }
      ],
      "name": "TransferBatch",
      "type": "event"
    },
    {
      "anonymous": false,
      "inputs": [
        {
          "indexed": true,
          "internalType": "address",
          "name": "operator",
          "type": "address"
        },
        {
          "indexed": true,
          "internalType": "address",
          "name": "from",
          "type": "address"
        },
        {
          "indexed": true,
          "internalType": "address",
          "name": "to",
          "type": "address"
        },
        {
          "indexed": false,
          "internalType": "uint256",
          "name": "id",
          "type": "uint256"
        },
        {
          "indexed": false,
          "internalType": "uint256",
          "name": "value",
          "type": "uint256"
        }
      ],
      "name": "TransferSingle",
      "type": "event"
    },
    {
      "anonymous": false,
      "inputs": [
        {
          "indexed": false,
          "internalType": "string",
          "name": "value",
          "type": "string"
        },
        {
          "indexed": true,
          "internalType": "uint256",
          "name": "id",
          "type": "uint256"
        }
      ],
      "name": "URI",
      "type": "event"
    },
    {
      "inputs": [
        {
          "internalType": "address",
          "name": "account",
          "type": "address"
        },
        {
          "internalType": "uint256",
          "name": "id",
          "type": "uint256"
        }
      ],
      "name": "balanceOf",
      "outputs": [
        {
          "internalType": "uint256",
          "name": "",
          "type": "uint256"
        }
      ],
      "stateMutability": "view",
      "type": "function"
    },
    {
      "inputs": [
        {
          "internalType": "address[]",
          "name": "accounts",
          "type": "address[]"
        },
        {
          "internalType": "uint256[]",
          "name": "ids",
          "type": "uint256[]"
        }
      ],
      "name": "balanceOfBatch",
      "outputs": [
        {
          "internalType": "uint256[]",
          "name": "",
          "type": "uint256[]"
        }
      ],
      "stateMutability": "view",
      "type": "function"
    },
    {
      "inputs": [
        {
          "internalType": "uint256",
          "name": "id",
          "type": "uint256"
        }
      ],
      "name": "exists",
      "outputs": [
        {
          "internalType": "bool",
          "name": "",
          "type": "bool"
        }
      ],
      "stateMutability": "view",
      "type": "function"
    },
    {
      "inputs": [
        {
          "internalType": "address",
          "name": "account",
          "type": "address"
        },
        {
          "internalType": "address",
          "name": "operator",
          "type": "address"
        }
      ],
      "name": "isApprovedForAll",
      "outputs": [
        {
          "internalType": "bool",
          "name": "",
          "type": "bool"
        }
      ],
      "stateMutability": "view",
      "type": "function"
    },
    {
      "inputs": [
        {
          "internalType": "address",
          "name": "account",
          "type": "address"
        },
        {
          "internalType": "uint256",
          "name": "id",
          "type": "uint256"
        },
        {
          "internalType": "uint256",
          "name": "amount",
          "type": "uint256"
        },
        {
          "internalType": "bytes",
          "name": "data",
          "type": "bytes"
        }
      ],
      "name": "mint",
      "outputs": [],
      "stateMutability": "nonpayable",
      "type": "function"
    },
    {
      "inputs": [
        {
          "internalType": "address",
          "name": "from",
          "type": "address"
        },
        {
          "internalType": "address",
          "name": "to",
          "type": "address"
        },
        {
          "internalType": "uint256[]",
          "name": "ids",
          "type": "uint256[]"
        },
        {
          "internalType": "uint256[]",
          "name": "values",
          "type": "uint256[]"
        },
        {
          "internalType": "bytes",
          "name": "data",
          "type": "bytes"
        }
      ],
      "name": "safeBatchTransferFrom",
      "outputs": [],
      "stateMutability": "nonpayable",
      "type": "function"
    },
    {
      "inputs": [
        {
          "internalType": "address",
          "name": "from",
          "type": "address"
        },
        {
          "internalType": "address",
          "name": "to",
          "type": "address"
        },
        {
          "internalType": "uint256",
          "name": "id",
          "type": "uint256"
        },
        {
          "internalType": "uint256",
          "name": "value",
          "type": "uint256"
        },
        {
          "internalType": "bytes",
          "name": "data",
          "type": "bytes"
        }
      ],
      "name": "safeTransferFrom",
      "outputs": [],
      "stateMutability": "nonpayable",
      "type": "function"
    },
    {
      "inputs": [
        {
          "internalType": "address",
          "name": "operator",
          "type": "address"
        },
        {
          "internalType": "bool",
          "name": "approved",
          "type": "bool"
        }
      ],
      "name": "setApprovalForAll",
      "outputs": [],
      "stateMutability": "nonpayable",
      "type": "function"
    },
    {
      "inputs": [
        {
          "internalType": "bytes4",
          "name": "interfaceId",
          "type": "bytes4"
        }
      ],
      "name": "supportsInterface",
      "outputs": [
        {
          "internalType": "bool",
          "name": "",
          "type": "bool"
        }
      ],
      "stateMutability": "view",
      "type": "function"
    },
    {
      "inputs": [],
      "name": "totalSupply",
      "outputs": [
        {
          "internalType": "uint256",
          "name": "",
          "type": "uint256"
        }
      ],
      "stateMutability": "view",
      "type": "function"
    },
    {
      "inputs": [
        {
          "internalType": "uint256",
          "name": "id",
          "type": "uint256"
        }
      ],
      "name": "totalSupply",
      "outputs": [
        {
          "internalType": "uint256",
          "name": "",
          "type": "uint256"
        }
      ],
      "stateMutability": "view",
      "type": "function"
    },
    {
      "inputs": [
        {
          "internalType": "uint256",
          "name": "",
          "type": "uint256"
        }
      ],
      "name": "uri",
      "outputs": [
        {
          "internalType": "string",
          "name": "",
          "type": "string"
        }
      ],
      "stateMutability": "view",
      "type": "function"
    }
  ],
  "bytecode": "0x60806040523480156200001157600080fd5b506040518060200160405280600081525062000033816200003a60201b60201c565b50620003b0565b80600290816200004b9190620002c9565b5050565b600081519050919050565b7f4e487b7100000000000000000000000000000000000000000000000000000000600052604160045260246000fd5b7f4e487b7100000000000000000000000000000000000000000000000000000000600052602260045260246000fd5b60006002820490506001821680620000d157607f821691505b602082108103620000e757620000e662000089565b5b50919050565b60008190508160005260206000209050919050565b60006020601f8301049050919050565b600082821b905092915050565b600060088302620001517fffffffffffffffffffffffffffffffffffffffffffffffffffffffffffffffff8262000112565b6200015d868362000112565b95508019841693508086168417925050509392505050565b6000819050919050565b6000819050919050565b6000620001aa620001a46200019e8462000175565b6200017f565b62000175565b9050919050565b6000819050919050565b620001c68362000189565b620001de620001d582620001b1565b8484546200011f565b825550505050565b600090565b620001f5620001e6565b62000202818484620001bb565b505050565b5b818110156200022a576200021e600082620001eb565b60018101905062000208565b5050565b601f82111562000279576200024381620000ed565b6200024e8462000102565b810160208510156200025e578190505b620002766200026d8562000102565b83018262000207565b50505b505050565b600082821c905092915050565b60006200029e600019846008026200027e565b1980831691505092915050565b6000620002b983836200028b565b9150826002028217905092915050565b620002d4826200004f565b67ffffffffffffffff811115620002f057620002ef6200005a565b5b620002fc8254620000b8565b620003098282856200022e565b600060209050601f8311600181146200034157600084156200032c578287015190505b620003388582620002ab565b865550620003a8565b601f1984166200035186620000ed565b60005b828110156200037b5784890151825560018201915060208501945060208101905062000354565b868310156200039b578489015162000397601f8916826200028b565b8355505b6001600288020188555050505b505050505050565b6122cb80620003c06000396000f3fe608060405234801561001057600080fd5b50600436106100b35760003560e01c80634f558e79116100715780634f558e79146101b2578063731133e9146101e2578063a22cb465146101fe578063bd85b0391461021a578063e985e9c51461024a578063f242432a1461027a576100b3565b8062fdd58e146100b857806301ffc9a7146100e85780630e89341c1461011857806318160ddd146101485780632eb2c2d6146101665780634e1273f414610182575b600080fd5b6100d260048036038101906100cd91906116a1565b610296565b6040516100df91906116f0565b60405180910390f35b61010260048036038101906100fd9190611763565b6102f0565b60405161010f91906117ab565b60405180910390f35b610132600480360381019061012d91906117c6565b6103d2565b60405161013f9190611883565b60405180910390f35b610150610466565b60405161015d91906116f0565b60405180910390f35b610180600480360381019061017b9190611aa2565b610470565b005b61019c60048036038101906101979190611c34565b610518565b6040516101a99190611d6a565b60405180910390f35b6101cc60048036038101906101c791906117c6565b610621565b6040516101d991906117ab565b60405180910390f35b6101fc60048036038101906101f79190611d8c565b610635565b005b61021860048036038101906102139190611e3b565b610647565b005b610234600480360381019061022f91906117c6565b61065d565b60405161024191906116f0565b60405180910390f35b610264600480360381019061025f9190611e7b565b61067a565b60405161027191906117ab565b60405180910390f35b610294600480360381019061028f9190611ebb565b61070e565b005b600080600083815260200190815260200160002060008473ffffffffffffffffffffffffffffffffffffffff1673ffffffffffffffffffffffffffffffffffffffff16815260200190815260200160002054905092915050565b60007fd9b67a26000000000000000000000000000000000000000000000000000000007bffffffffffffffffffffffffffffffffffffffffffffffffffffffff1916827bffffffffffffffffffffffffffffffffffffffffffffffffffffffff191614806103bb57507f0e89341c000000000000000000000000000000000000000000000000000000007bffffffffffffffffffffffffffffffffffffffffffffffffffffffff1916827bffffffffffffffffffffffffffffffffffffffffffffffffffffffff1916145b806103cb57506103ca826107b6565b5b9050919050565b6060600280546103e190611f81565b80601f016020809104026020016040519081016040528092919081815260200182805461040d90611f81565b801561045a5780601f1061042f5761010080835404028352916020019161045a565b820191906000526020600020905b81548152906001019060200180831161043d57829003601f168201915b50505050509050919050565b6000600454905090565b600061047a610820565b90508073ffffffffffffffffffffffffffffffffffffffff168673ffffffffffffffffffffffffffffffffffffffff16141580156104bf57506104bd868261067a565b155b156105035780866040517fe237d9220000000000000000000000000000000000000000000000000000000081526004016104fa929190611fc1565b60405180910390fd5b6105108686868686610828565b505050505050565b6060815183511461056457815183516040517f5b05999100000000000000000000000000000000000000000000000000000000815260040161055b929190611fea565b60405180910390fd5b6000835167ffffffffffffffff811115610581576105806118aa565b5b6040519080825280602002602001820160405280156105af5781602001602082028036833780820191505090505b50905060005b8451811015610616576105ec6105d4828761092090919063ffffffff16565b6105e7838761093490919063ffffffff16565b610296565b8282815181106105ff576105fe612013565b5b6020026020010181815250508060010190506105b5565b508091505092915050565b60008061062d8361065d565b119050919050565b61064184848484610948565b50505050565b610659610652610820565b83836109e1565b5050565b600060036000838152602001908152602001600020549050919050565b6000600160008473ffffffffffffffffffffffffffffffffffffffff1673ffffffffffffffffffffffffffffffffffffffff16815260200190815260200160002060008373ffffffffffffffffffffffffffffffffffffffff1673ffffffffffffffffffffffffffffffffffffffff16815260200190815260200160002060009054906101000a900460ff16905092915050565b6000610718610820565b90508073ffffffffffffffffffffffffffffffffffffffff168673ffffffffffffffffffffffffffffffffffffffff161415801561075d575061075b868261067a565b155b156107a15780866040517fe237d922000000000000000000000000000000000000000000000000000000008152600401610798929190611fc1565b60405180910390fd5b6107ae8686868686610b51565b505050505050565b60007f01ffc9a7000000000000000000000000000000000000000000000000000000007bffffffffffffffffffffffffffffffffffffffffffffffffffffffff1916827bffffffffffffffffffffffffffffffffffffffffffffffffffffffff1916149050919050565b600033905090565b600073ffffffffffffffffffffffffffffffffffffffff168473ffffffffffffffffffffffffffffffffffffffff160361089a5760006040517f57f447ce0000000000000000000000000000000000000000000000000000000081526004016108919190612042565b60405180910390fd5b600073ffffffffffffffffffffffffffffffffffffffff168573ffffffffffffffffffffffffffffffffffffffff160361090c5760006040517f01a835140000000000000000000000000000000000000000000000000000000081526004016109039190612042565b60405180910390fd5b6109198585858585610c5c565b5050505050565b600060208202602084010151905092915050565b600060208202602084010151905092915050565b600073ffffffffffffffffffffffffffffffffffffffff168473ffffffffffffffffffffffffffffffffffffffff16036109ba5760006040517f57f447ce0000000000000000000000000000000000000000000000000000000081526004016109b19190612042565b60405180910390fd5b6000806109c78585610d0e565b915091506109d9600087848487610c5c565b505050505050565b600073ffffffffffffffffffffffffffffffffffffffff168273ffffffffffffffffffffffffffffffffffffffff1603610a535760006040517fced3e100000000000000000000000000000000000000000000000000000000008152600401610a4a9190612042565b60405180910390fd5b80600160008573ffffffffffffffffffffffffffffffffffffffff1673ffffffffffffffffffffffffffffffffffffffff16815260200190815260200160002060008473ffffffffffffffffffffffffffffffffffffffff1673ffffffffffffffffffffffffffffffffffffffff16815260200190815260200160002060006101000a81548160ff0219169083151502179055508173ffffffffffffffffffffffffffffffffffffffff168373ffffffffffffffffffffffffffffffffffffffff167f17307eab39ab6107e8899845ad3d59bd9653f200f220920489ca2b5937696c3183604051610b4491906117ab565b60405180910390a3505050565b600073ffffffffffffffffffffffffffffffffffffffff168473ffffffffffffffffffffffffffffffffffffffff1603610bc35760006040517f57f447ce000000000000000000000000000000000000000000000000000000008152600401610bba9190612042565b60405180910390fd5b600073ffffffffffffffffffffffffffffffffffffffff168573ffffffffffffffffffffffffffffffffffffffff1603610c355760006040517f01a83514000000000000000000000000000000000000000000000000000000008152600401610c2c9190612042565b60405180910390fd5b600080610c428585610d0e565b91509150610c538787848487610c5c565b50505050505050565b610c6885858585610d3e565b600073ffffffffffffffffffffffffffffffffffffffff168473ffffffffffffffffffffffffffffffffffffffff1614610d07576000610ca6610820565b90506001845103610cf6576000610cc760008661093490919063ffffffff16565b90506000610cdf60008661093490919063ffffffff16565b9050610cef838989858589610ee9565b5050610d05565b610d0481878787878761109d565b5b505b5050505050565b60608060405191506001825283602083015260408201905060018152826020820152604081016040529250929050565b610d4a84848484611251565b600073ffffffffffffffffffffffffffffffffffffffff168473ffffffffffffffffffffffffffffffffffffffff1603610e24576000805b8351811015610e08576000838281518110610da057610d9f612013565b5b602002602001015190508060036000878581518110610dc257610dc1612013565b5b602002602001015181526020019081526020016000206000828254610de7919061208c565b925050819055508083610dfa919061208c565b925050806001019050610d82565b508060046000828254610e1b919061208c565b92505081905550505b600073ffffffffffffffffffffffffffffffffffffffff168373ffffffffffffffffffffffffffffffffffffffff1603610ee3576000805b8351811015610ed0576000838281518110610e7a57610e79612013565b5b602002602001015190508060036000878581518110610e9c57610e9b612013565b5b6020026020010151815260200190815260200160002060008282540392505081905550808301925050806001019050610e5c565b5080600460008282540392505081905550505b50505050565b60008473ffffffffffffffffffffffffffffffffffffffff163b1115611095578373ffffffffffffffffffffffffffffffffffffffff1663f23a6e6187878686866040518663ffffffff1660e01b8152600401610f4a959493929190612115565b6020604051808303816000875af1925050508015610f8657506040513d601f19601f82011682018060405250810190610f839190612184565b60015b61100a573d8060008114610fb6576040519150601f19603f3d011682016040523d82523d6000602084013e610fbb565b606091505b50600081510361100257846040517f57f447ce000000000000000000000000000000000000000000000000000000008152600401610ff99190612042565b60405180910390fd5b805181602001fd5b63f23a6e6160e01b7bffffffffffffffffffffffffffffffffffffffffffffffffffffffff1916817bffffffffffffffffffffffffffffffffffffffffffffffffffffffff19161461109357846040517f57f447ce00000000000000000000000000000000000000000000000000000000815260040161108a9190612042565b60405180910390fd5b505b505050505050565b60008473ffffffffffffffffffffffffffffffffffffffff163b1115611249578373ffffffffffffffffffffffffffffffffffffffff1663bc197c8187878686866040518663ffffffff1660e01b81526004016110fe9594939291906121b1565b6020604051808303816000875af192505050801561113a57506040513d601f19601f820116820180604052508101906111379190612184565b60015b6111be573d806000811461116a576040519150601f19603f3d011682016040523d82523d6000602084013e61116f565b606091505b5060008151036111b657846040517f57f447ce0000000000000000000000000000000000000000000000000000000081526004016111ad9190612042565b60405180910390fd5b805181602001fd5b63bc197c8160e01b7bffffffffffffffffffffffffffffffffffffffffffffffffffffffff1916817bffffffffffffffffffffffffffffffffffffffffffffffffffffffff19161461124757846040517f57f447ce00000000000000000000000000000000000000000000000000000000815260040161123e9190612042565b60405180910390fd5b505b505050505050565b805182511461129b57815181516040517f5b059991000000000000000000000000000000000000000000000000000000008152600401611292929190611fea565b60405180910390fd5b60006112a5610820565b905060005b83518110156114b45760006112c8828661093490919063ffffffff16565b905060006112df838661093490919063ffffffff16565b9050600073ffffffffffffffffffffffffffffffffffffffff168873ffffffffffffffffffffffffffffffffffffffff161461140c57600080600084815260200190815260200160002060008a73ffffffffffffffffffffffffffffffffffffffff1673ffffffffffffffffffffffffffffffffffffffff168152602001908152602001600020549050818110156113b457888183856040517f03dee4c50000000000000000000000000000000000000000000000000000000081526004016113ab9493929190612219565b60405180910390fd5b81810360008085815260200190815260200160002060008b73ffffffffffffffffffffffffffffffffffffffff1673ffffffffffffffffffffffffffffffffffffffff16815260200190815260200160002081905550505b600073ffffffffffffffffffffffffffffffffffffffff168773ffffffffffffffffffffffffffffffffffffffff16146114a7578060008084815260200190815260200160002060008973ffffffffffffffffffffffffffffffffffffffff1673ffffffffffffffffffffffffffffffffffffffff168152602001908152602001600020600082825461149f919061208c565b925050819055505b50508060010190506112aa565b5060018351036115735760006114d460008561093490919063ffffffff16565b905060006114ec60008561093490919063ffffffff16565b90508573ffffffffffffffffffffffffffffffffffffffff168773ffffffffffffffffffffffffffffffffffffffff168473ffffffffffffffffffffffffffffffffffffffff167fc3d58168c5ae7397731d063d5bbf3d657854427343f4c083240f7aacaa2d0f628585604051611564929190611fea565b60405180910390a450506115f2565b8373ffffffffffffffffffffffffffffffffffffffff168573ffffffffffffffffffffffffffffffffffffffff168273ffffffffffffffffffffffffffffffffffffffff167f4a39dc06d4c0dbc64b70af90fd698a233a518aa5d07e595d983b8c0526c8f7fb86866040516115e992919061225e565b60405180910390a45b5050505050565b6000604051905090565b600080fd5b600080fd5b600073ffffffffffffffffffffffffffffffffffffffff82169050919050565b60006116388261160d565b9050919050565b6116488161162d565b811461165357600080fd5b50565b6000813590506116658161163f565b92915050565b6000819050919050565b61167e8161166b565b811461168957600080fd5b50565b60008135905061169b81611675565b92915050565b600080604083850312156116b8576116b7611603565b5b60006116c685828601611656565b92505060206116d78582860161168c565b9150509250929050565b6116ea8161166b565b82525050565b600060208201905061170560008301846116e1565b92915050565b60007fffffffff0000000000000000000000000000000000000000000000000000000082169050919050565b6117408161170b565b811461174b57600080fd5b50565b60008135905061175d81611737565b92915050565b60006020828403121561177957611778611603565b5b60006117878482850161174e565b91505092915050565b60008115159050919050565b6117a581611790565b82525050565b60006020820190506117c0600083018461179c565b92915050565b6000602082840312156117dc576117db611603565b5b60006117ea8482850161168c565b91505092915050565b600081519050919050565b600082825260208201905092915050565b60005b8381101561182d578082015181840152602081019050611812565b60008484015250505050565b6000601f19601f8301169050919050565b6000611855826117f3565b61185f81856117fe565b935061186f81856020860161180f565b61187881611839565b840191505092915050565b6000602082019050818103600083015261189d818461184a565b905092915050565b600080fd5b7f4e487b7100000000000000000000000000000000000000000000000000000000600052604160045260246000fd5b6118e282611839565b810181811067ffffffffffffffff82111715611901576119006118aa565b5b80604052505050565b60006119146115f9565b905061192082826118d9565b919050565b600067ffffffffffffffff8211156119405761193f6118aa565b5b602082029050602081019050919050565b600080fd5b600061196961196484611925565b61190a565b9050808382526020820190506020840283018581111561198c5761198b611951565b5b835b818110156119b557806119a1888261168c565b84526020840193505060208101905061198e565b5050509392505050565b600082601f8301126119d4576119d36118a5565b5b81356119e4848260208601611956565b91505092915050565b600080fd5b600067ffffffffffffffff821115611a0d57611a0c6118aa565b5b611a1682611839565b9050602081019050919050565b82818337600083830152505050565b6000611a45611a40846119f2565b61190a565b905082815260208101848484011115611a6157611a606119ed565b5b611a6c848285611a23565b509392505050565b600082601f830112611a8957611a886118a5565b5b8135611a99848260208601611a32565b91505092915050565b600080600080600060a08688031215611abe57611abd611603565b5b6000611acc88828901611656565b9550506020611add88828901611656565b945050604086013567ffffffffffffffff811115611afe57611afd611608565b5b611b0a888289016119bf565b935050606086013567ffffffffffffffff811115611b2b57611b2a611608565b5b611b37888289016119bf565b925050608086013567ffffffffffffffff811115611b5857611b57611608565b5b611b6488828901611a74565b9150509295509295909350565b600067ffffffffffffffff821115611b8c57611b8b6118aa565b5b602082029050602081019050919050565b6000611bb0611bab84611b71565b61190a565b90508083825260208201905060208402830185811115611bd357611bd2611951565b5b835b81811015611bfc5780611be88882611656565b845260208401935050602081019050611bd5565b5050509392505050565b600082601f830112611c1b57611c1a6118a5565b5b8135611c2b848260208601611b9d565b91505092915050565b60008060408385031215611c4b57611c4a611603565b5b600083013567ffffffffffffffff811115611c6957611c68611608565b5b611c7585828601611c06565b925050602083013567ffffffffffffffff811115611c9657611c95611608565b5b611ca2858286016119bf565b9150509250929050565b600081519050919050565b600082825260208201905092915050565b6000819050602082019050919050565b611ce18161166b565b82525050565b6000611cf38383611cd8565b60208301905092915050565b6000602082019050919050565b6000611d1782611cac565b611d218185611cb7565b9350611d2c83611cc8565b8060005b83811015611d5d578151611d448882611ce7565b9750611d4f83611cff565b925050600181019050611d30565b5085935050505092915050565b60006020820190508181036000830152611d848184611d0c565b905092915050565b60008060008060808587031215611da657611da5611603565b5b6000611db487828801611656565b9450506020611dc58782880161168c565b9350506040611dd68782880161168c565b925050606085013567ffffffffffffffff811115611df757611df6611608565b5b611e0387828801611a74565b91505092959194509250565b611e1881611790565b8114611e2357600080fd5b50565b600081359050611e3581611e0f565b92915050565b60008060408385031215611e5257611e51611603565b5b6000611e6085828601611656565b9250506020611e7185828601611e26565b9150509250929050565b60008060408385031215611e9257611e91611603565b5b6000611ea085828601611656565b9250506020611eb185828601611656565b9150509250929050565b600080600080600060a08688031215611ed757611ed6611603565b5b6000611ee588828901611656565b9550506020611ef688828901611656565b9450506040611f078882890161168c565b9350506060611f188882890161168c565b925050608086013567ffffffffffffffff811115611f3957611f38611608565b5b611f4588828901611a74565b9150509295509295909350565b7f4e487b7100000000000000000000000000000000000000000000000000000000600052602260045260246000fd5b60006002820490506001821680611f9957607f821691505b602082108103611fac57611fab611f52565b5b50919050565b611fbb8161162d565b82525050565b6000604082019050611fd66000830185611fb2565b611fe36020830184611fb2565b9392505050565b6000604082019050611fff60008301856116e1565b61200c60208301846116e1565b9392505050565b7f4e487b7100000000000000000000000000000000000000000000000000000000600052603260045260246000fd5b60006020820190506120576000830184611fb2565b92915050565b7f4e487b7100000000000000000000000000000000000000000000000000000000600052601160045260246000fd5b60006120978261166b565b91506120a28361166b565b92508282019050808211156120ba576120b961205d565b5b92915050565b600081519050919050565b600082825260208201905092915050565b60006120e7826120c0565b6120f181856120cb565b935061210181856020860161180f565b61210a81611839565b840191505092915050565b600060a08201905061212a6000830188611fb2565b6121376020830187611fb2565b61214460408301866116e1565b61215160608301856116e1565b818103608083015261216381846120dc565b90509695505050505050565b60008151905061217e81611737565b92915050565b60006020828403121561219a57612199611603565b5b60006121a88482850161216f565b91505092915050565b600060a0820190506121c66000830188611fb2565b6121d36020830187611fb2565b81810360408301526121e58186611d0c565b905081810360608301526121f98185611d0c565b9050818103608083015261220d81846120dc565b90509695505050505050565b600060808201905061222e6000830187611fb2565b61223b60208301866116e1565b61224860408301856116e1565b61225560608301846116e1565b95945050505050565b600060408201905081810360008301526122788185611d0c565b9050818103602083015261228c8184611d0c565b9050939250505056fea2646970667358221220793aa23cfba95dea2056b9eaf92d7b00085b3178a7048540173d9dd258194b1f64736f6c63430008180033",
  "linkReferences": {},
  "deployedLinkReferences": {}
}